{"contracts/XPToken.sol":{"XPToken":{"abi":[{"inputs":[{"internalType":"string","name":"name","type":"string"},{"internalType":"string","name":"symbol","type":"string"},{"internalType":"address","name":"admin","type":"address"},{"internalType":"address","name":"factory","type":"address"}],"stateMutability":"nonpayable","type":"constructor"},{"inputs":[],"name":"AccessControlBadConfirmation","type":"error"},{"inputs":[{"internalType":"address","name":"account","type":"address"},{"internalType":"bytes32","name":"neededRole","type":"bytes32"}],"name":"AccessControlUnauthorizedAccount","type":"error"},{"inputs":[{"internalType":"address","name":"spender","type":"address"},{"internalType":"uint256","name":"allowance","type":"uint256"},{"internalType":"uint256","name":"needed","type":"uint256"}],"name":"ERC20InsufficientAllowance","type":"error"},{"inputs":[{"internalType":"address","name":"sender","type":"address"},{"internalType":"uint256","name":"balance","type":"uint256"},{"internalType":"uint256","name":"needed","type":"uint256"}],"name":"ERC20InsufficientBalance","type":"error"},{"inputs":[{"internalType":"address","name":"approver","type":"address"}],"name":"ERC20InvalidApprover","type":"error"},{"inputs":[{"internalType":"address","name":"receiver","type":"address"}],"name":"ERC20InvalidReceiver","type":"error"},{"inputs":[{"internalType":"address","name":"sender","type":"address"}],"name":"ERC20InvalidSender","type":"error"},{"inputs":[{"internalType":"address","name":"spender","type":"address"}],"name":"ERC20InvalidSpender","type":"error"},{"inputs":[],"name":"EnforcedPause","type":"error"},{"inputs":[],"name":"ExpectedPause","type":"error"},{"inputs":[],"name":"InsufficientBalance","type":"error"},{"inputs":[],"name":"ReentrancyGuardReentrantCall","type":"error"},{"inputs":[],"name":"UnauthorizedBurner","type":"error"},{"inputs":[],"name":"UnauthorizedMinter","type":"error"},{"inputs":[],"name":"ZeroAmount","type":"error"},{"anonymous":false,"inputs":[{"indexed":true,"internalType":"address","name":"owner","type":"address"},{"indexed":true,"internalType":"address","name":"spender","type":"address"},{"indexed":false,"internalType":"uint256","name":"value","type":"uint256"}],"name":"Approval","type":"event"},{"anonymous":false,"inputs":[{"indexed":false,"internalType":"address","name":"account","type":"address"}],"name":"Paused","type":"event"},{"anonymous":false,"inputs":[{"indexed":true,"internalType":"bytes32","name":"role","type":"bytes32"},{"indexed":true,"internalType":"bytes32","name":"previousAdminRole","type":"bytes32"},{"indexed":true,"internalType":"bytes32","name":"newAdminRole","type":"bytes32"}],"name":"RoleAdminChanged","type":"event"},{"anonymous":false,"inputs":[{"indexed":true,"internalType":"bytes32","name":"role","type":"bytes32"},{"indexed":true,"internalType":"address","name":"account","type":"address"},{"indexed":true,"internalType":"address","name":"sender","type":"address"}],"name":"RoleGranted","type":"event"},{"anonymous":false,"inputs":[{"indexed":true,"internalType":"bytes32","name":"role","type":"bytes32"},{"indexed":true,"internalType":"address","name":"account","type":"address"},{"indexed":true,"internalType":"address","name":"sender","type":"address"}],"name":"RoleRevoked","type":"event"},{"anonymous":false,"inputs":[{"indexed":true,"internalType":"address","name":"from","type":"address"},{"indexed":false,"internalType":"uint256","name":"amount","type":"uint256"},{"indexed":true,"internalType":"address","name":"burner","type":"address"}],"name":"TokensBurned","type":"event"},{"anonymous":false,"inputs":[{"indexed":true,"internalType":"address","name":"to","type":"address"},{"indexed":false,"internalType":"uint256","name":"amount","type":"uint256"},{"indexed":true,"internalType":"address","name":"minter","type":"address"}],"name":"TokensMinted","type":"event"},{"anonymous":false,"inputs":[{"indexed":true,"internalType":"address","name":"from","type":"address"},{"indexed":true,"internalType":"address","name":"to","type":"address"},{"indexed":false,"internalType":"uint256","name":"value","type":"uint256"}],"name":"Transfer","type":"event"},{"anonymous":false,"inputs":[{"indexed":false,"internalType":"address","name":"account","type":"address"}],"name":"Unpaused","type":"event"},{"inputs":[],"name":"BURNER_ROLE","outputs":[{"internalType":"bytes32","name":"","type":"bytes32"}],"stateMutability":"view","type":"function"},{"inputs":[],"name":"DEFAULT_ADMIN_ROLE","outputs":[{"internalType":"bytes32","name":"","type":"bytes32"}],"stateMutability":"view","type":"function"},{"inputs":[],"name":"MINTER_ROLE","outputs":[{"internalType":"bytes32","name":"","type":"bytes32"}],"stateMutability":"view","type":"function"},{"inputs":[],"name":"PAUSER_ROLE","outputs":[{"internalType":"bytes32","name":"","type":"bytes32"}],"stateMutability":"view","type":"function"},{"inputs":[{"internalType":"address","name":"owner","type":"address"},{"internalType":"address","name":"spender","type":"address"}],"name":"allowance","outputs":[{"internalType":"uint256","name":"","type":"uint256"}],"stateMutability":"view","type":"function"},{"inputs":[{"internalType":"address","name":"spender","type":"address"},{"internalType":"uint256","name":"value","type":"uint256"}],"name":"approve","outputs":[{"internalType":"bool","name":"","type":"bool"}],"stateMutability":"nonpayable","type":"function"},{"inputs":[{"internalType":"address","name":"account","type":"address"}],"name":"balanceOf","outputs":[{"internalType":"uint256","name":"","type":"uint256"}],"stateMutability":"view","type":"function"},{"inputs":[{"internalType":"uint256","name":"amount","type":"uint256"}],"name":"burn","outputs":[],"stateMutability":"nonpayable","type":"function"},{"inputs":[{"internalType":"address","name":"from","type":"address"},{"internalType":"uint256","name":"amount","type":"uint256"}],"name":"burnFrom","outputs":[],"stateMutability":"nonpayable","type":"function"},{"inputs":[],"name":"decimals","outputs":[{"internalType":"uint8","name":"","type":"uint8"}],"stateMutability":"view","type":"function"},{"inputs":[{"internalType":"bytes32","name":"role","type":"bytes32"}],"name":"getRoleAdmin","outputs":[{"internalType":"bytes32","name":"","type":"bytes32"}],"stateMutability":"view","type":"function"},{"inputs":[],"name":"getStats","outputs":[{"internalType":"uint256","name":"minted","type":"uint256"},{"internalType":"uint256","name":"burned","type":"uint256"},{"internalType":"uint256","name":"circulation","type":"uint256"}],"stateMutability":"view","type":"function"},{"inputs":[{"internalType":"bytes32","name":"role","type":"bytes32"},{"internalType":"address","name":"account","type":"address"}],"name":"grantRole","outputs":[],"stateMutability":"nonpayable","type":"function"},{"inputs":[{"internalType":"bytes32","name":"role","type":"bytes32"},{"internalType":"address","name":"account","type":"address"}],"name":"hasRole","outputs":[{"internalType":"bool","name":"","type":"bool"}],"stateMutability":"view","type":"function"},{"inputs":[{"internalType":"address","name":"to","type":"address"},{"internalType":"uint256","name":"amount","type":"uint256"}],"name":"mint","outputs":[],"stateMutability":"nonpayable","type":"function"},{"inputs":[],"name":"name","outputs":[{"internalType":"string","name":"","type":"string"}],"stateMutability":"view","type":"function"},{"inputs":[],"name":"pause","outputs":[],"stateMutability":"nonpayable","type":"function"},{"inputs":[],"name":"paused","outputs":[{"internalType":"bool","name":"","type":"bool"}],"stateMutability":"view","type":"function"},{"inputs":[{"internalType":"bytes32","name":"role","type":"bytes32"},{"internalType":"address","name":"callerConfirmation","type":"address"}],"name":"renounceRole","outputs":[],"stateMutability":"nonpayable","type":"function"},{"inputs":[{"internalType":"bytes32","name":"role","type":"bytes32"},{"internalType":"address","name":"account","type":"address"}],"name":"revokeRole","outputs":[],"stateMutability":"nonpayable","type":"function"},{"inputs":[{"internalType":"bytes4","name":"interfaceId","type":"bytes4"}],"name":"supportsInterface","outputs":[{"internalType":"bool","name":"","type":"bool"}],"stateMutability":"view","type":"function"},{"inputs":[],"name":"symbol","outputs":[{"internalType":"string","name":"","type":"string"}],"stateMutability":"view","type":"function"},{"inputs":[],"name":"totalBurnedAmount","outputs":[{"internalType":"uint256","name":"","type":"uint256"}],"stateMutability":"view","type":"function"},{"inputs":[],"name":"totalInCirculation","outputs":[{"internalType":"uint256","name":"","type":"uint256"}],"stateMutability":"view","type":"function"},{"inputs":[],"name":"totalMinted","outputs":[{"internalType":"uint256","name":"","type":"uint256"}],"stateMutability":"view","type":"function"},{"inputs":[],"name":"totalSupply","outputs":[{"internalType":"uint256","name":"","type":"uint256"}],"stateMutability":"view","type":"function"},{"inputs":[{"internalType":"address","name":"to","type":"address"},{"internalType":"uint256","name":"value","type":"uint256"}],"name":"transfer","outputs":[{"internalType":"bool","name":"","type":"bool"}],"stateMutability":"nonpayable","type":"function"},{"inputs":[{"internalType":"address","name":"from","type":"address"},{"internalType":"address","name":"to","type":"address"},{"internalType":"uint256","name":"value","type":"uint256"}],"name":"transferFrom","outputs":[{"internalType":"bool","name":"","type":"bool"}],"stateMutability":"nonpayable","type":"function"},{"inputs":[],"name":"unpause","outputs":[],"stateMutability":"nonpayable","type":"function"}],"evm":{"bytecode":{"linkReferences":{},"object":"6080604052346200037f576200175b803803806200001d8162000384565b92833981016080828203126200037f5781516001600160401b0391908281116200037f57816200004f918501620003aa565b9060209081850151908482116200037f576200006d918601620003aa565b926200008a606062000082604088016200041c565b96016200041c565b9383518281116200027f576003918254916001968784811c9416801562000374575b878510146200035e578190601f9485811162000308575b508790858311600114620002a15760009262000295575b505060001982861b1c191690871b1783555b80519384116200027f5760049485548781811c9116801562000274575b828210146200025f5783811162000214575b5080928511600114620001995750926200017c97949281926200016997956000936200018d575b505082851b92600019911b1c19161790555b600755620001628162000431565b50620004b2565b50620001758162000555565b50620005f3565b506040516110a99081620006928239f35b01519150388062000142565b929190601f1985168660005284600020946000905b828210620001fc5750509285926200017c9a9795928997620001699a9610620001e1575b50505050811b01905562000154565b01519060f884600019921b161c1916905538808080620001d2565b808a86988294978701518155019701940190620001ae565b86600052816000208480880160051c82019284891062000255575b0160051c019088905b828110620002485750506200011b565b6000815501889062000238565b925081926200022f565b602287634e487b7160e01b6000525260246000fd5b90607f169062000109565b634e487b7160e01b600052604160045260246000fd5b015190503880620000da565b90899350601f1983169187600052896000209260005b8b828210620002f15750508411620002d8575b505050811b018355620000ec565b015160001983881b60f8161c19169055388080620002ca565b8385015186558d97909501949384019301620002b7565b90915085600052876000208580850160051c8201928a861062000354575b918b91869594930160051c01915b82811062000344575050620000c3565b600081558594508b910162000334565b9250819262000326565b634e487b7160e01b600052602260045260246000fd5b93607f1693620000ac565b600080fd5b6040519190601f01601f191682016001600160401b038111838210176200027f57604052565b919080601f840112156200037f5782516001600160401b0381116200027f57602090620003e0601f8201601f1916830162000384565b928184528282870101116200037f5760005b8181106200040857508260009394955001015290565b8581018301518482018401528201620003f2565b51906001600160a01b03821682036200037f57565b6001600160a01b031660008181527f05b8ccbb9d4d8fb16ea74ce3c29a41f1b461fbdaff4714a0d9a8eb05499746bc602052604081205490919060ff16620004ae5781805260056020526040822081835260205260408220600160ff1982541617905533916000805160206200173b8339815191528180a4600190565b5090565b6001600160a01b031660008181527f99f2891db7a8db76249871a02b43b68c0bb8f22ef8a3bc1034ae9375ef6b7c3c60205260408120549091907f65d7a28e3265b37a6474929f336521b332c1681b933f6cb9f3376673440d862a9060ff16620005505780835260056020526040832082845260205260408320600160ff198254161790556000805160206200173b833981519152339380a4600190565b505090565b6001600160a01b031660008181527f15a28d26fa1bf736cf7edc9922607171ccb09c3c73b808e7772a3013e068a52260205260408120549091907f9f2df0fed2c77648de5860a4cc508cd0818c85b8b8a1ab4ceeef8d981c8956a69060ff16620005505780835260056020526040832082845260205260408320600160ff198254161790556000805160206200173b833981519152339380a4600190565b6001600160a01b031660008181527f847f481f687befb06ed3511f1a8dcef57e83007c0147ae5047583d705617093760205260408120549091907f3c11d16cbaffd01df69ce1c404f6340ee057498f5f00246190ea54220576a8489060ff16620005505780835260056020526040832082845260205260408320600160ff198254161790556000805160206200173b833981519152339380a460019056fe608060408181526004918236101561001657600080fd5b600092833560e01c91826301ffc9a714610c1e5750816306fdde0314610b44578163095ea7b314610a9a57816318160ddd1461061057816323b872dd146109a3578163248a9ca314610978578163282c51f31461093d5781632f2ff15d14610913578163313ce567146108f757816335ab5f64146108d857816336568abe146108925781633f4ba83a1461082857816340c10f19146106fb57816342966c68146106535781635c975abb1461062f5781635cb0c16f1461061057816370a08231146105d957816379cc6790146104c45781638456cb591461046957816391d148541461042257816395d89b4114610303578163a217fddf146102e8578163a2309ff8146102c9578163a9059cbb14610298578163c59d484714610268578163d53913931461022d578163d547741f146101e957508063dd62ed3e146101a15763e63ab1e91461016457600080fd5b3461019d578160031936011261019d57602090517f65d7a28e3265b37a6474929f336521b332c1681b933f6cb9f3376673440d862a8152f35b5080fd5b503461019d578060031936011261019d57806020926101be610cba565b6101c6610cd5565b6001600160a01b0391821683526001865283832091168252845220549051908152f35b919050346102295780600319360112610229576102259135610220600161020e610cd5565b93838752600560205286200154610d65565b610e0b565b5080f35b8280fd5b50503461019d578160031936011261019d57602090517f9f2df0fed2c77648de5860a4cc508cd0818c85b8b8a1ab4ceeef8d981c8956a68152f35b50503461019d578160031936011261019d5760609060085490600954906002549181519384526020840152820152f35b50503461019d578060031936011261019d576020906102c26102b8610cba565b6024359033610e82565b5160018152f35b50503461019d578160031936011261019d576020906008549051908152f35b50503461019d578160031936011261019d5751908152602090f35b83833461019d578160031936011261019d57805190828454600181811c90808316928315610418575b6020938484108114610405578388529081156103e95750600114610394575b505050829003601f01601f191682019267ffffffffffffffff841183851017610381575082918261037d925282610c71565b0390f35b634e487b7160e01b815260418552602490fd5b8787529192508591837f8a35acfbc15ff81a39ae7d344fd709f28e8600b4aa8c65c6b64bfe7fe36bd19b5b8385106103d5575050505083010185808061034b565b8054888601830152930192849082016103bf565b60ff1916878501525050151560051b840101905085808061034b565b634e487b7160e01b895260228a52602489fd5b91607f169161032c565b9050346102295781600319360112610229578160209360ff92610443610cd5565b90358252600586528282206001600160a01b039091168252855220549151911615158152f35b50503461019d578160031936011261019d5760207f62e78cea01bee320cd4e420270b5ea74000d11b0c9f74754ebdbfc544b05a258916104a7610ceb565b6104af610f8b565b600160ff19600654161760065551338152a180f35b9050346102295781600319360112610229576104de610cba565b91602435927f3c11d16cbaffd01df69ce1c404f6340ee057498f5f00246190ea54220576a848808652600560205282862033875260205260ff8387205416156105bb575061052a610f8b565b610532610fa9565b83156105ad5760018060a01b038116928386528560205284838720541061059f57508361056d9161056582600954610f68565b600955610fcc565b519182527f08009940fb138ae33fbb70c10b643e840c71f1654344cc173975a815e117e68760203393a3600160075580f35b8251631e9acf1760e31b8152fd5b5051631f2a200560e01b8152fd5b825163e2517d3f60e01b815233818601526024810191909152604490fd5b50503461019d57602036600319011261019d5760209181906001600160a01b03610601610cba565b16815280845220549051908152f35b50503461019d578160031936011261019d576020906002549051908152f35b50503461019d578160031936011261019d5760209060ff6006541690519015158152f35b9190503461022957602036600319011261022957813591610672610f8b565b61067a610fa9565b82156106ed57338452836020528282852054106106df575061069e82600954610f68565b6009556106ab8233610fcc565b5190815233907f08009940fb138ae33fbb70c10b643e840c71f1654344cc173975a815e117e68760203392a3600160075580f35b9051631e9acf1760e31b8152fd5b9051631f2a200560e01b8152fd5b905034610229578160031936011261022957610715610cba565b91602435927f9f2df0fed2c77648de5860a4cc508cd0818c85b8b8a1ab4ceeef8d981c8956a6808652600560205282862033875260205260ff8387205416156105bb5750610761610f8b565b610769610fa9565b83156105ad5761077b84600854610f68565b6008556001600160a01b03169182156108135750610797610f8b565b6107a383600254610f68565b6002558184528360205280842083815401905581847fddf252ad1be2c89b69c2b068fc378daa952ba7f163c4a11628f55a4df523b3ef60208451878152a3519182527f969cd201f68f120baff2bf3c59bc3b534434e08b69a71a14ab85cb79cd3b63e460203393a3600160075580f35b84602492519163ec442f0560e01b8352820152fd5b905034610229578260031936011261022957610842610ceb565b6006549060ff821615610884575060ff1916600655513381527f5db9ee0a495bf2e6ff9c91a7834c1ba4fdd244a5e8aa4e537bd38aeae4b073aa90602090a180f35b8251638dfc202b60e01b8152fd5b83833461019d578060031936011261019d576108ac610cd5565b90336001600160a01b038316036108c95750610225919235610e0b565b5163334bd91960e11b81528390fd5b50503461019d578160031936011261019d576020906009549051908152f35b50503461019d578160031936011261019d576020905160128152f35b919050346102295780600319360112610229576102259135610938600161020e610cd5565b610d8b565b50503461019d578160031936011261019d57602090517f3c11d16cbaffd01df69ce1c404f6340ee057498f5f00246190ea54220576a8488152f35b9050346102295760203660031901126102295781602093600192358152600585522001549051908152f35b90508234610a97576060366003190112610a97576109bf610cba565b6109c7610cd5565b916044359360018060a01b038316808352600160205286832033845260205286832054916000198310610a03575b6020886102c2898989610e82565b868310610a6b578115610a54573315610a3d575082526001602090815286832033845281529186902090859003905582906102c2876109f5565b8751634a1406b160e11b8152908101849052602490fd5b875163e602df0560e01b8152908101849052602490fd5b8751637dc7a0d960e11b8152339181019182526020820193909352604081018790528291506060010390fd5b80fd5b905034610229578160031936011261022957610ab4610cba565b602435903315610b2d576001600160a01b0316918215610b1657508083602095338152600187528181208582528752205582519081527f8c5be1e5ebec7d5bd14f71427d1e84f3dd0314c0f7b2291e5b200ac8c7c3b925843392a35160018152f35b8351634a1406b160e11b8152908101859052602490fd5b835163e602df0560e01b8152808401869052602490fd5b83833461019d578160031936011261019d5780519082600354600181811c90808316928315610c14575b6020938484108114610405578388529081156103e95750600114610bbe57505050829003601f01601f191682019267ffffffffffffffff841183851017610381575082918261037d925282610c71565b600387529192508591837fc2575a0e9e593c00f959f8c92f12db2869c3395a3b0502d05e2516446f71f85b5b838510610c00575050505083010185808061034b565b805488860183015293019284908201610bea565b91607f1691610b6e565b849134610229576020366003190112610229573563ffffffff60e01b81168091036102295760209250637965db0b60e01b8114908115610c60575b5015158152f35b6301ffc9a760e01b14905083610c59565b6020808252825181830181905290939260005b828110610ca657505060409293506000838284010152601f8019910116010190565b818101860151848201604001528501610c84565b600435906001600160a01b0382168203610cd057565b600080fd5b602435906001600160a01b0382168203610cd057565b3360009081527f99f2891db7a8db76249871a02b43b68c0bb8f22ef8a3bc1034ae9375ef6b7c3c60205260409020547f65d7a28e3265b37a6474929f336521b332c1681b933f6cb9f3376673440d862a9060ff1615610d475750565b6044906040519063e2517d3f60e01b82523360048301526024820152fd5b80600052600560205260406000203360005260205260ff6040600020541615610d475750565b906000918083526005602052604083209160018060a01b03169182845260205260ff60408420541615600014610e065780835260056020526040832082845260205260408320600160ff198254161790557f2f8788117e7eff1d82e926ec794901d17c78024a50270940304540a733656f0d339380a4600190565b505090565b906000918083526005602052604083209160018060a01b03169182845260205260ff604084205416600014610e06578083526005602052604083208284526020526040832060ff1981541690557ff6391f5c32d9c69d2a47ea670b442974b53935d1edc7fd64eb21e047a839171b339380a4600190565b916001600160a01b03808416928315610f4f5716928315610f3657610ea5610f8b565b60009083825281602052604082205490838210610f04575091604082827fddf252ad1be2c89b69c2b068fc378daa952ba7f163c4a11628f55a4df523b3ef958760209652828652038282205586815220818154019055604051908152a3565b60405163391434e360e21b81526001600160a01b03919091166004820152602481019190915260448101839052606490fd5b60405163ec442f0560e01b815260006004820152602490fd5b604051634b637e8f60e11b815260006004820152602490fd5b91908201809211610f7557565b634e487b7160e01b600052601160045260246000fd5b60ff60065416610f9757565b60405163d93c066560e01b8152600490fd5b600260075414610fba576002600755565b604051633ee5aeb560e01b8152600490fd5b906001600160a01b038216908115610f4f57610fe6610f8b565b600092828452836020526040842054908282106110415750817fddf252ad1be2c89b69c2b068fc378daa952ba7f163c4a11628f55a4df523b3ef926020928587528684520360408620558060025403600255604051908152a3565b60405163391434e360e21b81526001600160a01b03919091166004820152602481019190915260448101829052606490fdfea2646970667358221220f9d8b400ecdc28e7e78ab804707b5466ef3cda86fa51bfe0d84ccb7cc23a1f2364736f6c634300081400332f8788117e7eff1d82e926ec794901d17c78024a50270940304540a733656f0d","opcodes":"PUSH1 0x80 PUSH1 0x40 MSTORE CALLVALUE PUSH3 0x37F JUMPI PUSH3 0x175B DUP1 CODESIZE SUB DUP1 PUSH3 0x1D DUP2 PUSH3 0x384 JUMP JUMPDEST SWAP3 DUP4 CODECOPY DUP2 ADD PUSH1 0x80 DUP3 DUP3 SUB SLT PUSH3 0x37F JUMPI DUP2 MLOAD PUSH1 0x1 PUSH1 0x1 PUSH1 0x40 SHL SUB SWAP2 SWAP1 DUP3 DUP2 GT PUSH3 0x37F JUMPI DUP2 PUSH3 0x4F SWAP2 DUP6 ADD PUSH3 0x3AA JUMP JUMPDEST SWAP1 PUSH1 0x20 SWAP1 DUP2 DUP6 ADD MLOAD SWAP1 DUP5 DUP3 GT PUSH3 0x37F JUMPI PUSH3 0x6D SWAP2 DUP7 ADD PUSH3 0x3AA JUMP JUMPDEST SWAP3 PUSH3 0x8A PUSH1 0x60 PUSH3 0x82 PUSH1 0x40 DUP9 ADD PUSH3 0x41C JUMP JUMPDEST SWAP7 ADD PUSH3 0x41C JUMP JUMPDEST SWAP4 DUP4 MLOAD DUP3 DUP2 GT PUSH3 0x27F JUMPI PUSH1 0x3 SWAP2 DUP3 SLOAD SWAP2 PUSH1 0x1 SWAP7 DUP8 DUP5 DUP2 SHR SWAP5 AND DUP1 ISZERO PUSH3 0x374 JUMPI JUMPDEST DUP8 DUP6 LT EQ PUSH3 0x35E JUMPI DUP2 SWAP1 PUSH1 0x1F SWAP5 DUP6 DUP2 GT PUSH3 0x308 JUMPI JUMPDEST POP DUP8 SWAP1 DUP6 DUP4 GT PUSH1 0x1 EQ PUSH3 0x2A1 JUMPI PUSH1 0x0 SWAP3 PUSH3 0x295 JUMPI JUMPDEST POP POP PUSH1 0x0 NOT DUP3 DUP7 SHL SHR NOT AND SWAP1 DUP8 SHL OR DUP4 SSTORE JUMPDEST DUP1 MLOAD SWAP4 DUP5 GT PUSH3 0x27F JUMPI PUSH1 0x4 SWAP5 DUP6 SLOAD DUP8 DUP2 DUP2 SHR SWAP2 AND DUP1 ISZERO PUSH3 0x274 JUMPI JUMPDEST DUP3 DUP3 LT EQ PUSH3 0x25F JUMPI DUP4 DUP2 GT PUSH3 0x214 JUMPI JUMPDEST POP DUP1 SWAP3 DUP6 GT PUSH1 0x1 EQ PUSH3 0x199 JUMPI POP SWAP3 PUSH3 0x17C SWAP8 SWAP5 SWAP3 DUP2 SWAP3 PUSH3 0x169 SWAP8 SWAP6 PUSH1 0x0 SWAP4 PUSH3 0x18D JUMPI JUMPDEST POP POP DUP3 DUP6 SHL SWAP3 PUSH1 0x0 NOT SWAP2 SHL SHR NOT AND OR SWAP1 SSTORE JUMPDEST PUSH1 0x7 SSTORE PUSH3 0x162 DUP2 PUSH3 0x431 JUMP JUMPDEST POP PUSH3 0x4B2 JUMP JUMPDEST POP PUSH3 0x175 DUP2 PUSH3 0x555 JUMP JUMPDEST POP PUSH3 0x5F3 JUMP JUMPDEST POP PUSH1 0x40 MLOAD PUSH2 0x10A9 SWAP1 DUP2 PUSH3 0x692 DUP3 CODECOPY RETURN JUMPDEST ADD MLOAD SWAP2 POP CODESIZE DUP1 PUSH3 0x142 JUMP JUMPDEST SWAP3 SWAP2 SWAP1 PUSH1 0x1F NOT DUP6 AND DUP7 PUSH1 0x0 MSTORE DUP5 PUSH1 0x0 KECCAK256 SWAP5 PUSH1 0x0 SWAP1 JUMPDEST DUP3 DUP3 LT PUSH3 0x1FC JUMPI POP POP SWAP3 DUP6 SWAP3 PUSH3 0x17C SWAP11 SWAP8 SWAP6 SWAP3 DUP10 SWAP8 PUSH3 0x169 SWAP11 SWAP7 LT PUSH3 0x1E1 JUMPI JUMPDEST POP POP POP POP DUP2 SHL ADD SWAP1 SSTORE PUSH3 0x154 JUMP JUMPDEST ADD MLOAD SWAP1 PUSH1 0xF8 DUP5 PUSH1 0x0 NOT SWAP3 SHL AND SHR NOT AND SWAP1 SSTORE CODESIZE DUP1 DUP1 DUP1 PUSH3 0x1D2 JUMP JUMPDEST DUP1 DUP11 DUP7 SWAP9 DUP3 SWAP5 SWAP8 DUP8 ADD MLOAD DUP2 SSTORE ADD SWAP8 ADD SWAP5 ADD SWAP1 PUSH3 0x1AE JUMP JUMPDEST DUP7 PUSH1 0x0 MSTORE DUP2 PUSH1 0x0 KECCAK256 DUP5 DUP1 DUP9 ADD PUSH1 0x5 SHR DUP3 ADD SWAP3 DUP5 DUP10 LT PUSH3 0x255 JUMPI JUMPDEST ADD PUSH1 0x5 SHR ADD SWAP1 DUP9 SWAP1 JUMPDEST DUP3 DUP2 LT PUSH3 0x248 JUMPI POP POP PUSH3 0x11B JUMP JUMPDEST PUSH1 0x0 DUP2 SSTORE ADD DUP9 SWAP1 PUSH3 0x238 JUMP JUMPDEST SWAP3 POP DUP2 SWAP3 PUSH3 0x22F JUMP JUMPDEST PUSH1 0x22 DUP8 PUSH4 0x4E487B71 PUSH1 0xE0 SHL PUSH1 0x0 MSTORE MSTORE PUSH1 0x24 PUSH1 0x0 REVERT JUMPDEST SWAP1 PUSH1 0x7F AND SWAP1 PUSH3 0x109 JUMP JUMPDEST PUSH4 0x4E487B71 PUSH1 0xE0 SHL PUSH1 0x0 MSTORE PUSH1 0x41 PUSH1 0x4 MSTORE PUSH1 0x24 PUSH1 0x0 REVERT JUMPDEST ADD MLOAD SWAP1 POP CODESIZE DUP1 PUSH3 0xDA JUMP JUMPDEST SWAP1 DUP10 SWAP4 POP PUSH1 0x1F NOT DUP4 AND SWAP2 DUP8 PUSH1 0x0 MSTORE DUP10 PUSH1 0x0 KECCAK256 SWAP3 PUSH1 0x0 JUMPDEST DUP12 DUP3 DUP3 LT PUSH3 0x2F1 JUMPI POP POP DUP5 GT PUSH3 0x2D8 JUMPI JUMPDEST POP POP POP DUP2 SHL ADD DUP4 SSTORE PUSH3 0xEC JUMP JUMPDEST ADD MLOAD PUSH1 0x0 NOT DUP4 DUP9 SHL PUSH1 0xF8 AND SHR NOT AND SWAP1 SSTORE CODESIZE DUP1 DUP1 PUSH3 0x2CA JUMP JUMPDEST DUP4 DUP6 ADD MLOAD DUP7 SSTORE DUP14 SWAP8 SWAP1 SWAP6 ADD SWAP5 SWAP4 DUP5 ADD SWAP4 ADD PUSH3 0x2B7 JUMP JUMPDEST SWAP1 SWAP2 POP DUP6 PUSH1 0x0 MSTORE DUP8 PUSH1 0x0 KECCAK256 DUP6 DUP1 DUP6 ADD PUSH1 0x5 SHR DUP3 ADD SWAP3 DUP11 DUP7 LT PUSH3 0x354 JUMPI JUMPDEST SWAP2 DUP12 SWAP2 DUP7 SWAP6 SWAP5 SWAP4 ADD PUSH1 0x5 SHR ADD SWAP2 JUMPDEST DUP3 DUP2 LT PUSH3 0x344 JUMPI POP POP PUSH3 0xC3 JUMP JUMPDEST PUSH1 0x0 DUP2 SSTORE DUP6 SWAP5 POP DUP12 SWAP2 ADD PUSH3 0x334 JUMP JUMPDEST SWAP3 POP DUP2 SWAP3 PUSH3 0x326 JUMP JUMPDEST PUSH4 0x4E487B71 PUSH1 0xE0 SHL PUSH1 0x0 MSTORE PUSH1 0x22 PUSH1 0x4 MSTORE PUSH1 0x24 PUSH1 0x0 REVERT JUMPDEST SWAP4 PUSH1 0x7F AND SWAP4 PUSH3 0xAC JUMP JUMPDEST PUSH1 0x0 DUP1 REVERT JUMPDEST PUSH1 0x40 MLOAD SWAP2 SWAP1 PUSH1 0x1F ADD PUSH1 0x1F NOT AND DUP3 ADD PUSH1 0x1 PUSH1 0x1 PUSH1 0x40 SHL SUB DUP2 GT DUP4 DUP3 LT OR PUSH3 0x27F JUMPI PUSH1 0x40 MSTORE JUMP JUMPDEST SWAP2 SWAP1 DUP1 PUSH1 0x1F DUP5 ADD SLT ISZERO PUSH3 0x37F JUMPI DUP3 MLOAD PUSH1 0x1 PUSH1 0x1 PUSH1 0x40 SHL SUB DUP2 GT PUSH3 0x27F JUMPI PUSH1 0x20 SWAP1 PUSH3 0x3E0 PUSH1 0x1F DUP3 ADD PUSH1 0x1F NOT AND DUP4 ADD PUSH3 0x384 JUMP JUMPDEST SWAP3 DUP2 DUP5 MSTORE DUP3 DUP3 DUP8 ADD ADD GT PUSH3 0x37F JUMPI PUSH1 0x0 JUMPDEST DUP2 DUP2 LT PUSH3 0x408 JUMPI POP DUP3 PUSH1 0x0 SWAP4 SWAP5 SWAP6 POP ADD ADD MSTORE SWAP1 JUMP JUMPDEST DUP6 DUP2 ADD DUP4 ADD MLOAD DUP5 DUP3 ADD DUP5 ADD MSTORE DUP3 ADD PUSH3 0x3F2 JUMP JUMPDEST MLOAD SWAP1 PUSH1 0x1 PUSH1 0x1 PUSH1 0xA0 SHL SUB DUP3 AND DUP3 SUB PUSH3 0x37F JUMPI JUMP JUMPDEST PUSH1 0x1 PUSH1 0x1 PUSH1 0xA0 SHL SUB AND PUSH1 0x0 DUP2 DUP2 MSTORE PUSH32 0x5B8CCBB9D4D8FB16EA74CE3C29A41F1B461FBDAFF4714A0D9A8EB05499746BC PUSH1 0x20 MSTORE PUSH1 0x40 DUP2 KECCAK256 SLOAD SWAP1 SWAP2 SWAP1 PUSH1 0xFF AND PUSH3 0x4AE JUMPI DUP2 DUP1 MSTORE PUSH1 0x5 PUSH1 0x20 MSTORE PUSH1 0x40 DUP3 KECCAK256 DUP2 DUP4 MSTORE PUSH1 0x20 MSTORE PUSH1 0x40 DUP3 KECCAK256 PUSH1 0x1 PUSH1 0xFF NOT DUP3 SLOAD AND OR SWAP1 SSTORE CALLER SWAP2 PUSH1 0x0 DUP1 MLOAD PUSH1 0x20 PUSH3 0x173B DUP4 CODECOPY DUP2 MLOAD SWAP2 MSTORE DUP2 DUP1 LOG4 PUSH1 0x1 SWAP1 JUMP JUMPDEST POP SWAP1 JUMP JUMPDEST PUSH1 0x1 PUSH1 0x1 PUSH1 0xA0 SHL SUB AND PUSH1 0x0 DUP2 DUP2 MSTORE PUSH32 0x99F2891DB7A8DB76249871A02B43B68C0BB8F22EF8A3BC1034AE9375EF6B7C3C PUSH1 0x20 MSTORE PUSH1 0x40 DUP2 KECCAK256 SLOAD SWAP1 SWAP2 SWAP1 PUSH32 0x65D7A28E3265B37A6474929F336521B332C1681B933F6CB9F3376673440D862A SWAP1 PUSH1 0xFF AND PUSH3 0x550 JUMPI DUP1 DUP4 MSTORE PUSH1 0x5 PUSH1 0x20 MSTORE PUSH1 0x40 DUP4 KECCAK256 DUP3 DUP5 MSTORE PUSH1 0x20 MSTORE PUSH1 0x40 DUP4 KECCAK256 PUSH1 0x1 PUSH1 0xFF NOT DUP3 SLOAD AND OR SWAP1 SSTORE PUSH1 0x0 DUP1 MLOAD PUSH1 0x20 PUSH3 0x173B DUP4 CODECOPY DUP2 MLOAD SWAP2 MSTORE CALLER SWAP4 DUP1 LOG4 PUSH1 0x1 SWAP1 JUMP JUMPDEST POP POP SWAP1 JUMP JUMPDEST PUSH1 0x1 PUSH1 0x1 PUSH1 0xA0 SHL SUB AND PUSH1 0x0 DUP2 DUP2 MSTORE PUSH32 0x15A28D26FA1BF736CF7EDC9922607171CCB09C3C73B808E7772A3013E068A522 PUSH1 0x20 MSTORE PUSH1 0x40 DUP2 KECCAK256 SLOAD SWAP1 SWAP2 SWAP1 PUSH32 0x9F2DF0FED2C77648DE5860A4CC508CD0818C85B8B8A1AB4CEEEF8D981C8956A6 SWAP1 PUSH1 0xFF AND PUSH3 0x550 JUMPI DUP1 DUP4 MSTORE PUSH1 0x5 PUSH1 0x20 MSTORE PUSH1 0x40 DUP4 KECCAK256 DUP3 DUP5 MSTORE PUSH1 0x20 MSTORE PUSH1 0x40 DUP4 KECCAK256 PUSH1 0x1 PUSH1 0xFF NOT DUP3 SLOAD AND OR SWAP1 SSTORE PUSH1 0x0 DUP1 MLOAD PUSH1 0x20 PUSH3 0x173B DUP4 CODECOPY DUP2 MLOAD SWAP2 MSTORE CALLER SWAP4 DUP1 LOG4 PUSH1 0x1 SWAP1 JUMP JUMPDEST PUSH1 0x1 PUSH1 0x1 PUSH1 0xA0 SHL SUB AND PUSH1 0x0 DUP2 DUP2 MSTORE PUSH32 0x847F481F687BEFB06ED3511F1A8DCEF57E83007C0147AE5047583D7056170937 PUSH1 0x20 MSTORE PUSH1 0x40 DUP2 KECCAK256 SLOAD SWAP1 SWAP2 SWAP1 PUSH32 0x3C11D16CBAFFD01DF69CE1C404F6340EE057498F5F00246190EA54220576A848 SWAP1 PUSH1 0xFF AND PUSH3 0x550 JUMPI DUP1 DUP4 MSTORE PUSH1 0x5 PUSH1 0x20 MSTORE PUSH1 0x40 DUP4 KECCAK256 DUP3 DUP5 MSTORE PUSH1 0x20 MSTORE PUSH1 0x40 DUP4 KECCAK256 PUSH1 0x1 PUSH1 0xFF NOT DUP3 SLOAD AND OR SWAP1 SSTORE PUSH1 0x0 DUP1 MLOAD PUSH1 0x20 PUSH3 0x173B DUP4 CODECOPY DUP2 MLOAD SWAP2 MSTORE CALLER SWAP4 DUP1 LOG4 PUSH1 0x1 SWAP1 JUMP INVALID PUSH1 0x80 PUSH1 0x40 DUP2 DUP2 MSTORE PUSH1 0x4 SWAP2 DUP3 CALLDATASIZE LT ISZERO PUSH2 0x16 JUMPI PUSH1 0x0 DUP1 REVERT JUMPDEST PUSH1 0x0 SWAP3 DUP4 CALLDATALOAD PUSH1 0xE0 SHR SWAP2 DUP3 PUSH4 0x1FFC9A7 EQ PUSH2 0xC1E JUMPI POP DUP2 PUSH4 0x6FDDE03 EQ PUSH2 0xB44 JUMPI DUP2 PUSH4 0x95EA7B3 EQ PUSH2 0xA9A JUMPI DUP2 PUSH4 0x18160DDD EQ PUSH2 0x610 JUMPI DUP2 PUSH4 0x23B872DD EQ PUSH2 0x9A3 JUMPI DUP2 PUSH4 0x248A9CA3 EQ PUSH2 0x978 JUMPI DUP2 PUSH4 0x282C51F3 EQ PUSH2 0x93D JUMPI DUP2 PUSH4 0x2F2FF15D EQ PUSH2 0x913 JUMPI DUP2 PUSH4 0x313CE567 EQ PUSH2 0x8F7 JUMPI DUP2 PUSH4 0x35AB5F64 EQ PUSH2 0x8D8 JUMPI DUP2 PUSH4 0x36568ABE EQ PUSH2 0x892 JUMPI DUP2 PUSH4 0x3F4BA83A EQ PUSH2 0x828 JUMPI DUP2 PUSH4 0x40C10F19 EQ PUSH2 0x6FB JUMPI DUP2 PUSH4 0x42966C68 EQ PUSH2 0x653 JUMPI DUP2 PUSH4 0x5C975ABB EQ PUSH2 0x62F JUMPI DUP2 PUSH4 0x5CB0C16F EQ PUSH2 0x610 JUMPI DUP2 PUSH4 0x70A08231 EQ PUSH2 0x5D9 JUMPI DUP2 PUSH4 0x79CC6790 EQ PUSH2 0x4C4 JUMPI DUP2 PUSH4 0x8456CB59 EQ PUSH2 0x469 JUMPI DUP2 PUSH4 0x91D14854 EQ PUSH2 0x422 JUMPI DUP2 PUSH4 0x95D89B41 EQ PUSH2 0x303 JUMPI DUP2 PUSH4 0xA217FDDF EQ PUSH2 0x2E8 JUMPI DUP2 PUSH4 0xA2309FF8 EQ PUSH2 0x2C9 JUMPI DUP2 PUSH4 0xA9059CBB EQ PUSH2 0x298 JUMPI DUP2 PUSH4 0xC59D4847 EQ PUSH2 0x268 JUMPI DUP2 PUSH4 0xD5391393 EQ PUSH2 0x22D JUMPI DUP2 PUSH4 0xD547741F EQ PUSH2 0x1E9 JUMPI POP DUP1 PUSH4 0xDD62ED3E EQ PUSH2 0x1A1 JUMPI PUSH4 0xE63AB1E9 EQ PUSH2 0x164 JUMPI PUSH1 0x0 DUP1 REVERT JUMPDEST CALLVALUE PUSH2 0x19D JUMPI DUP2 PUSH1 0x3 NOT CALLDATASIZE ADD SLT PUSH2 0x19D JUMPI PUSH1 0x20 SWAP1 MLOAD PUSH32 0x65D7A28E3265B37A6474929F336521B332C1681B933F6CB9F3376673440D862A DUP2 MSTORE RETURN JUMPDEST POP DUP1 REVERT JUMPDEST POP CALLVALUE PUSH2 0x19D JUMPI DUP1 PUSH1 0x3 NOT CALLDATASIZE ADD SLT PUSH2 0x19D JUMPI DUP1 PUSH1 0x20 SWAP3 PUSH2 0x1BE PUSH2 0xCBA JUMP JUMPDEST PUSH2 0x1C6 PUSH2 0xCD5 JUMP JUMPDEST PUSH1 0x1 PUSH1 0x1 PUSH1 0xA0 SHL SUB SWAP2 DUP3 AND DUP4 MSTORE PUSH1 0x1 DUP7 MSTORE DUP4 DUP4 KECCAK256 SWAP2 AND DUP3 MSTORE DUP5 MSTORE KECCAK256 SLOAD SWAP1 MLOAD SWAP1 DUP2 MSTORE RETURN JUMPDEST SWAP2 SWAP1 POP CALLVALUE PUSH2 0x229 JUMPI DUP1 PUSH1 0x3 NOT CALLDATASIZE ADD SLT PUSH2 0x229 JUMPI PUSH2 0x225 SWAP2 CALLDATALOAD PUSH2 0x220 PUSH1 0x1 PUSH2 0x20E PUSH2 0xCD5 JUMP JUMPDEST SWAP4 DUP4 DUP8 MSTORE PUSH1 0x5 PUSH1 0x20 MSTORE DUP7 KECCAK256 ADD SLOAD PUSH2 0xD65 JUMP JUMPDEST PUSH2 0xE0B JUMP JUMPDEST POP DUP1 RETURN JUMPDEST DUP3 DUP1 REVERT JUMPDEST POP POP CALLVALUE PUSH2 0x19D JUMPI DUP2 PUSH1 0x3 NOT CALLDATASIZE ADD SLT PUSH2 0x19D JUMPI PUSH1 0x20 SWAP1 MLOAD PUSH32 0x9F2DF0FED2C77648DE5860A4CC508CD0818C85B8B8A1AB4CEEEF8D981C8956A6 DUP2 MSTORE RETURN JUMPDEST POP POP CALLVALUE PUSH2 0x19D JUMPI DUP2 PUSH1 0x3 NOT CALLDATASIZE ADD SLT PUSH2 0x19D JUMPI PUSH1 0x60 SWAP1 PUSH1 0x8 SLOAD SWAP1 PUSH1 0x9 SLOAD SWAP1 PUSH1 0x2 SLOAD SWAP2 DUP2 MLOAD SWAP4 DUP5 MSTORE PUSH1 0x20 DUP5 ADD MSTORE DUP3 ADD MSTORE RETURN JUMPDEST POP POP CALLVALUE PUSH2 0x19D JUMPI DUP1 PUSH1 0x3 NOT CALLDATASIZE ADD SLT PUSH2 0x19D JUMPI PUSH1 0x20 SWAP1 PUSH2 0x2C2 PUSH2 0x2B8 PUSH2 0xCBA JUMP JUMPDEST PUSH1 0x24 CALLDATALOAD SWAP1 CALLER PUSH2 0xE82 JUMP JUMPDEST MLOAD PUSH1 0x1 DUP2 MSTORE RETURN JUMPDEST POP POP CALLVALUE PUSH2 0x19D JUMPI DUP2 PUSH1 0x3 NOT CALLDATASIZE ADD SLT PUSH2 0x19D JUMPI PUSH1 0x20 SWAP1 PUSH1 0x8 SLOAD SWAP1 MLOAD SWAP1 DUP2 MSTORE RETURN JUMPDEST POP POP CALLVALUE PUSH2 0x19D JUMPI DUP2 PUSH1 0x3 NOT CALLDATASIZE ADD SLT PUSH2 0x19D JUMPI MLOAD SWAP1 DUP2 MSTORE PUSH1 0x20 SWAP1 RETURN JUMPDEST DUP4 DUP4 CALLVALUE PUSH2 0x19D JUMPI DUP2 PUSH1 0x3 NOT CALLDATASIZE ADD SLT PUSH2 0x19D JUMPI DUP1 MLOAD SWAP1 DUP3 DUP5 SLOAD PUSH1 0x1 DUP2 DUP2 SHR SWAP1 DUP1 DUP4 AND SWAP3 DUP4 ISZERO PUSH2 0x418 JUMPI JUMPDEST PUSH1 0x20 SWAP4 DUP5 DUP5 LT DUP2 EQ PUSH2 0x405 JUMPI DUP4 DUP9 MSTORE SWAP1 DUP2 ISZERO PUSH2 0x3E9 JUMPI POP PUSH1 0x1 EQ PUSH2 0x394 JUMPI JUMPDEST POP POP POP DUP3 SWAP1 SUB PUSH1 0x1F ADD PUSH1 0x1F NOT AND DUP3 ADD SWAP3 PUSH8 0xFFFFFFFFFFFFFFFF DUP5 GT DUP4 DUP6 LT OR PUSH2 0x381 JUMPI POP DUP3 SWAP2 DUP3 PUSH2 0x37D SWAP3 MSTORE DUP3 PUSH2 0xC71 JUMP JUMPDEST SUB SWAP1 RETURN JUMPDEST PUSH4 0x4E487B71 PUSH1 0xE0 SHL DUP2 MSTORE PUSH1 0x41 DUP6 MSTORE PUSH1 0x24 SWAP1 REVERT JUMPDEST DUP8 DUP8 MSTORE SWAP2 SWAP3 POP DUP6 SWAP2 DUP4 PUSH32 0x8A35ACFBC15FF81A39AE7D344FD709F28E8600B4AA8C65C6B64BFE7FE36BD19B JUMPDEST DUP4 DUP6 LT PUSH2 0x3D5 JUMPI POP POP POP POP DUP4 ADD ADD DUP6 DUP1 DUP1 PUSH2 0x34B JUMP JUMPDEST DUP1 SLOAD DUP9 DUP7 ADD DUP4 ADD MSTORE SWAP4 ADD SWAP3 DUP5 SWAP1 DUP3 ADD PUSH2 0x3BF JUMP JUMPDEST PUSH1 0xFF NOT AND DUP8 DUP6 ADD MSTORE POP POP ISZERO ISZERO PUSH1 0x5 SHL DUP5 ADD ADD SWAP1 POP DUP6 DUP1 DUP1 PUSH2 0x34B JUMP JUMPDEST PUSH4 0x4E487B71 PUSH1 0xE0 SHL DUP10 MSTORE PUSH1 0x22 DUP11 MSTORE PUSH1 0x24 DUP10 REVERT JUMPDEST SWAP2 PUSH1 0x7F AND SWAP2 PUSH2 0x32C JUMP JUMPDEST SWAP1 POP CALLVALUE PUSH2 0x229 JUMPI DUP2 PUSH1 0x3 NOT CALLDATASIZE ADD SLT PUSH2 0x229 JUMPI DUP2 PUSH1 0x20 SWAP4 PUSH1 0xFF SWAP3 PUSH2 0x443 PUSH2 0xCD5 JUMP JUMPDEST SWAP1 CALLDATALOAD DUP3 MSTORE PUSH1 0x5 DUP7 MSTORE DUP3 DUP3 KECCAK256 PUSH1 0x1 PUSH1 0x1 PUSH1 0xA0 SHL SUB SWAP1 SWAP2 AND DUP3 MSTORE DUP6 MSTORE KECCAK256 SLOAD SWAP2 MLOAD SWAP2 AND ISZERO ISZERO DUP2 MSTORE RETURN JUMPDEST POP POP CALLVALUE PUSH2 0x19D JUMPI DUP2 PUSH1 0x3 NOT CALLDATASIZE ADD SLT PUSH2 0x19D JUMPI PUSH1 0x20 PUSH32 0x62E78CEA01BEE320CD4E420270B5EA74000D11B0C9F74754EBDBFC544B05A258 SWAP2 PUSH2 0x4A7 PUSH2 0xCEB JUMP JUMPDEST PUSH2 0x4AF PUSH2 0xF8B JUMP JUMPDEST PUSH1 0x1 PUSH1 0xFF NOT PUSH1 0x6 SLOAD AND OR PUSH1 0x6 SSTORE MLOAD CALLER DUP2 MSTORE LOG1 DUP1 RETURN JUMPDEST SWAP1 POP CALLVALUE PUSH2 0x229 JUMPI DUP2 PUSH1 0x3 NOT CALLDATASIZE ADD SLT PUSH2 0x229 JUMPI PUSH2 0x4DE PUSH2 0xCBA JUMP JUMPDEST SWAP2 PUSH1 0x24 CALLDATALOAD SWAP3 PUSH32 0x3C11D16CBAFFD01DF69CE1C404F6340EE057498F5F00246190EA54220576A848 DUP1 DUP7 MSTORE PUSH1 0x5 PUSH1 0x20 MSTORE DUP3 DUP7 KECCAK256 CALLER DUP8 MSTORE PUSH1 0x20 MSTORE PUSH1 0xFF DUP4 DUP8 KECCAK256 SLOAD AND ISZERO PUSH2 0x5BB JUMPI POP PUSH2 0x52A PUSH2 0xF8B JUMP JUMPDEST PUSH2 0x532 PUSH2 0xFA9 JUMP JUMPDEST DUP4 ISZERO PUSH2 0x5AD JUMPI PUSH1 0x1 DUP1 PUSH1 0xA0 SHL SUB DUP2 AND SWAP3 DUP4 DUP7 MSTORE DUP6 PUSH1 0x20 MSTORE DUP5 DUP4 DUP8 KECCAK256 SLOAD LT PUSH2 0x59F JUMPI POP DUP4 PUSH2 0x56D SWAP2 PUSH2 0x565 DUP3 PUSH1 0x9 SLOAD PUSH2 0xF68 JUMP JUMPDEST PUSH1 0x9 SSTORE PUSH2 0xFCC JUMP JUMPDEST MLOAD SWAP2 DUP3 MSTORE PUSH32 0x8009940FB138AE33FBB70C10B643E840C71F1654344CC173975A815E117E687 PUSH1 0x20 CALLER SWAP4 LOG3 PUSH1 0x1 PUSH1 0x7 SSTORE DUP1 RETURN JUMPDEST DUP3 MLOAD PUSH4 0x1E9ACF17 PUSH1 0xE3 SHL DUP2 MSTORE REVERT JUMPDEST POP MLOAD PUSH4 0x1F2A2005 PUSH1 0xE0 SHL DUP2 MSTORE REVERT JUMPDEST DUP3 MLOAD PUSH4 0xE2517D3F PUSH1 0xE0 SHL DUP2 MSTORE CALLER DUP2 DUP7 ADD MSTORE PUSH1 0x24 DUP2 ADD SWAP2 SWAP1 SWAP2 MSTORE PUSH1 0x44 SWAP1 REVERT JUMPDEST POP POP CALLVALUE PUSH2 0x19D JUMPI PUSH1 0x20 CALLDATASIZE PUSH1 0x3 NOT ADD SLT PUSH2 0x19D JUMPI PUSH1 0x20 SWAP2 DUP2 SWAP1 PUSH1 0x1 PUSH1 0x1 PUSH1 0xA0 SHL SUB PUSH2 0x601 PUSH2 0xCBA JUMP JUMPDEST AND DUP2 MSTORE DUP1 DUP5 MSTORE KECCAK256 SLOAD SWAP1 MLOAD SWAP1 DUP2 MSTORE RETURN JUMPDEST POP POP CALLVALUE PUSH2 0x19D JUMPI DUP2 PUSH1 0x3 NOT CALLDATASIZE ADD SLT PUSH2 0x19D JUMPI PUSH1 0x20 SWAP1 PUSH1 0x2 SLOAD SWAP1 MLOAD SWAP1 DUP2 MSTORE RETURN JUMPDEST POP POP CALLVALUE PUSH2 0x19D JUMPI DUP2 PUSH1 0x3 NOT CALLDATASIZE ADD SLT PUSH2 0x19D JUMPI PUSH1 0x20 SWAP1 PUSH1 0xFF PUSH1 0x6 SLOAD AND SWAP1 MLOAD SWAP1 ISZERO ISZERO DUP2 MSTORE RETURN JUMPDEST SWAP2 SWAP1 POP CALLVALUE PUSH2 0x229 JUMPI PUSH1 0x20 CALLDATASIZE PUSH1 0x3 NOT ADD SLT PUSH2 0x229 JUMPI DUP2 CALLDATALOAD SWAP2 PUSH2 0x672 PUSH2 0xF8B JUMP JUMPDEST PUSH2 0x67A PUSH2 0xFA9 JUMP JUMPDEST DUP3 ISZERO PUSH2 0x6ED JUMPI CALLER DUP5 MSTORE DUP4 PUSH1 0x20 MSTORE DUP3 DUP3 DUP6 KECCAK256 SLOAD LT PUSH2 0x6DF JUMPI POP PUSH2 0x69E DUP3 PUSH1 0x9 SLOAD PUSH2 0xF68 JUMP JUMPDEST PUSH1 0x9 SSTORE PUSH2 0x6AB DUP3 CALLER PUSH2 0xFCC JUMP JUMPDEST MLOAD SWAP1 DUP2 MSTORE CALLER SWAP1 PUSH32 0x8009940FB138AE33FBB70C10B643E840C71F1654344CC173975A815E117E687 PUSH1 0x20 CALLER SWAP3 LOG3 PUSH1 0x1 PUSH1 0x7 SSTORE DUP1 RETURN JUMPDEST SWAP1 MLOAD PUSH4 0x1E9ACF17 PUSH1 0xE3 SHL DUP2 MSTORE REVERT JUMPDEST SWAP1 MLOAD PUSH4 0x1F2A2005 PUSH1 0xE0 SHL DUP2 MSTORE REVERT JUMPDEST SWAP1 POP CALLVALUE PUSH2 0x229 JUMPI DUP2 PUSH1 0x3 NOT CALLDATASIZE ADD SLT PUSH2 0x229 JUMPI PUSH2 0x715 PUSH2 0xCBA JUMP JUMPDEST SWAP2 PUSH1 0x24 CALLDATALOAD SWAP3 PUSH32 0x9F2DF0FED2C77648DE5860A4CC508CD0818C85B8B8A1AB4CEEEF8D981C8956A6 DUP1 DUP7 MSTORE PUSH1 0x5 PUSH1 0x20 MSTORE DUP3 DUP7 KECCAK256 CALLER DUP8 MSTORE PUSH1 0x20 MSTORE PUSH1 0xFF DUP4 DUP8 KECCAK256 SLOAD AND ISZERO PUSH2 0x5BB JUMPI POP PUSH2 0x761 PUSH2 0xF8B JUMP JUMPDEST PUSH2 0x769 PUSH2 0xFA9 JUMP JUMPDEST DUP4 ISZERO PUSH2 0x5AD JUMPI PUSH2 0x77B DUP5 PUSH1 0x8 SLOAD PUSH2 0xF68 JUMP JUMPDEST PUSH1 0x8 SSTORE PUSH1 0x1 PUSH1 0x1 PUSH1 0xA0 SHL SUB AND SWAP2 DUP3 ISZERO PUSH2 0x813 JUMPI POP PUSH2 0x797 PUSH2 0xF8B JUMP JUMPDEST PUSH2 0x7A3 DUP4 PUSH1 0x2 SLOAD PUSH2 0xF68 JUMP JUMPDEST PUSH1 0x2 SSTORE DUP2 DUP5 MSTORE DUP4 PUSH1 0x20 MSTORE DUP1 DUP5 KECCAK256 DUP4 DUP2 SLOAD ADD SWAP1 SSTORE DUP2 DUP5 PUSH32 0xDDF252AD1BE2C89B69C2B068FC378DAA952BA7F163C4A11628F55A4DF523B3EF PUSH1 0x20 DUP5 MLOAD DUP8 DUP2 MSTORE LOG3 MLOAD SWAP2 DUP3 MSTORE PUSH32 0x969CD201F68F120BAFF2BF3C59BC3B534434E08B69A71A14AB85CB79CD3B63E4 PUSH1 0x20 CALLER SWAP4 LOG3 PUSH1 0x1 PUSH1 0x7 SSTORE DUP1 RETURN JUMPDEST DUP5 PUSH1 0x24 SWAP3 MLOAD SWAP2 PUSH4 0xEC442F05 PUSH1 0xE0 SHL DUP4 MSTORE DUP3 ADD MSTORE REVERT JUMPDEST SWAP1 POP CALLVALUE PUSH2 0x229 JUMPI DUP3 PUSH1 0x3 NOT CALLDATASIZE ADD SLT PUSH2 0x229 JUMPI PUSH2 0x842 PUSH2 0xCEB JUMP JUMPDEST PUSH1 0x6 SLOAD SWAP1 PUSH1 0xFF DUP3 AND ISZERO PUSH2 0x884 JUMPI POP PUSH1 0xFF NOT AND PUSH1 0x6 SSTORE MLOAD CALLER DUP2 MSTORE PUSH32 0x5DB9EE0A495BF2E6FF9C91A7834C1BA4FDD244A5E8AA4E537BD38AEAE4B073AA SWAP1 PUSH1 0x20 SWAP1 LOG1 DUP1 RETURN JUMPDEST DUP3 MLOAD PUSH4 0x8DFC202B PUSH1 0xE0 SHL DUP2 MSTORE REVERT JUMPDEST DUP4 DUP4 CALLVALUE PUSH2 0x19D JUMPI DUP1 PUSH1 0x3 NOT CALLDATASIZE ADD SLT PUSH2 0x19D JUMPI PUSH2 0x8AC PUSH2 0xCD5 JUMP JUMPDEST SWAP1 CALLER PUSH1 0x1 PUSH1 0x1 PUSH1 0xA0 SHL SUB DUP4 AND SUB PUSH2 0x8C9 JUMPI POP PUSH2 0x225 SWAP2 SWAP3 CALLDATALOAD PUSH2 0xE0B JUMP JUMPDEST MLOAD PUSH4 0x334BD919 PUSH1 0xE1 SHL DUP2 MSTORE DUP4 SWAP1 REVERT JUMPDEST POP POP CALLVALUE PUSH2 0x19D JUMPI DUP2 PUSH1 0x3 NOT CALLDATASIZE ADD SLT PUSH2 0x19D JUMPI PUSH1 0x20 SWAP1 PUSH1 0x9 SLOAD SWAP1 MLOAD SWAP1 DUP2 MSTORE RETURN JUMPDEST POP POP CALLVALUE PUSH2 0x19D JUMPI DUP2 PUSH1 0x3 NOT CALLDATASIZE ADD SLT PUSH2 0x19D JUMPI PUSH1 0x20 SWAP1 MLOAD PUSH1 0x12 DUP2 MSTORE RETURN JUMPDEST SWAP2 SWAP1 POP CALLVALUE PUSH2 0x229 JUMPI DUP1 PUSH1 0x3 NOT CALLDATASIZE ADD SLT PUSH2 0x229 JUMPI PUSH2 0x225 SWAP2 CALLDATALOAD PUSH2 0x938 PUSH1 0x1 PUSH2 0x20E PUSH2 0xCD5 JUMP JUMPDEST PUSH2 0xD8B JUMP JUMPDEST POP POP CALLVALUE PUSH2 0x19D JUMPI DUP2 PUSH1 0x3 NOT CALLDATASIZE ADD SLT PUSH2 0x19D JUMPI PUSH1 0x20 SWAP1 MLOAD PUSH32 0x3C11D16CBAFFD01DF69CE1C404F6340EE057498F5F00246190EA54220576A848 DUP2 MSTORE RETURN JUMPDEST SWAP1 POP CALLVALUE PUSH2 0x229 JUMPI PUSH1 0x20 CALLDATASIZE PUSH1 0x3 NOT ADD SLT PUSH2 0x229 JUMPI DUP2 PUSH1 0x20 SWAP4 PUSH1 0x1 SWAP3 CALLDATALOAD DUP2 MSTORE PUSH1 0x5 DUP6 MSTORE KECCAK256 ADD SLOAD SWAP1 MLOAD SWAP1 DUP2 MSTORE RETURN JUMPDEST SWAP1 POP DUP3 CALLVALUE PUSH2 0xA97 JUMPI PUSH1 0x60 CALLDATASIZE PUSH1 0x3 NOT ADD SLT PUSH2 0xA97 JUMPI PUSH2 0x9BF PUSH2 0xCBA JUMP JUMPDEST PUSH2 0x9C7 PUSH2 0xCD5 JUMP JUMPDEST SWAP2 PUSH1 0x44 CALLDATALOAD SWAP4 PUSH1 0x1 DUP1 PUSH1 0xA0 SHL SUB DUP4 AND DUP1 DUP4 MSTORE PUSH1 0x1 PUSH1 0x20 MSTORE DUP7 DUP4 KECCAK256 CALLER DUP5 MSTORE PUSH1 0x20 MSTORE DUP7 DUP4 KECCAK256 SLOAD SWAP2 PUSH1 0x0 NOT DUP4 LT PUSH2 0xA03 JUMPI JUMPDEST PUSH1 0x20 DUP9 PUSH2 0x2C2 DUP10 DUP10 DUP10 PUSH2 0xE82 JUMP JUMPDEST DUP7 DUP4 LT PUSH2 0xA6B JUMPI DUP2 ISZERO PUSH2 0xA54 JUMPI CALLER ISZERO PUSH2 0xA3D JUMPI POP DUP3 MSTORE PUSH1 0x1 PUSH1 0x20 SWAP1 DUP2 MSTORE DUP7 DUP4 KECCAK256 CALLER DUP5 MSTORE DUP2 MSTORE SWAP2 DUP7 SWAP1 KECCAK256 SWAP1 DUP6 SWAP1 SUB SWAP1 SSTORE DUP3 SWAP1 PUSH2 0x2C2 DUP8 PUSH2 0x9F5 JUMP JUMPDEST DUP8 MLOAD PUSH4 0x4A1406B1 PUSH1 0xE1 SHL DUP2 MSTORE SWAP1 DUP2 ADD DUP5 SWAP1 MSTORE PUSH1 0x24 SWAP1 REVERT JUMPDEST DUP8 MLOAD PUSH4 0xE602DF05 PUSH1 0xE0 SHL DUP2 MSTORE SWAP1 DUP2 ADD DUP5 SWAP1 MSTORE PUSH1 0x24 SWAP1 REVERT JUMPDEST DUP8 MLOAD PUSH4 0x7DC7A0D9 PUSH1 0xE1 SHL DUP2 MSTORE CALLER SWAP2 DUP2 ADD SWAP2 DUP3 MSTORE PUSH1 0x20 DUP3 ADD SWAP4 SWAP1 SWAP4 MSTORE PUSH1 0x40 DUP2 ADD DUP8 SWAP1 MSTORE DUP3 SWAP2 POP PUSH1 0x60 ADD SUB SWAP1 REVERT JUMPDEST DUP1 REVERT JUMPDEST SWAP1 POP CALLVALUE PUSH2 0x229 JUMPI DUP2 PUSH1 0x3 NOT CALLDATASIZE ADD SLT PUSH2 0x229 JUMPI PUSH2 0xAB4 PUSH2 0xCBA JUMP JUMPDEST PUSH1 0x24 CALLDATALOAD SWAP1 CALLER ISZERO PUSH2 0xB2D JUMPI PUSH1 0x1 PUSH1 0x1 PUSH1 0xA0 SHL SUB AND SWAP2 DUP3 ISZERO PUSH2 0xB16 JUMPI POP DUP1 DUP4 PUSH1 0x20 SWAP6 CALLER DUP2 MSTORE PUSH1 0x1 DUP8 MSTORE DUP2 DUP2 KECCAK256 DUP6 DUP3 MSTORE DUP8 MSTORE KECCAK256 SSTORE DUP3 MLOAD SWAP1 DUP2 MSTORE PUSH32 0x8C5BE1E5EBEC7D5BD14F71427D1E84F3DD0314C0F7B2291E5B200AC8C7C3B925 DUP5 CALLER SWAP3 LOG3 MLOAD PUSH1 0x1 DUP2 MSTORE RETURN JUMPDEST DUP4 MLOAD PUSH4 0x4A1406B1 PUSH1 0xE1 SHL DUP2 MSTORE SWAP1 DUP2 ADD DUP6 SWAP1 MSTORE PUSH1 0x24 SWAP1 REVERT JUMPDEST DUP4 MLOAD PUSH4 0xE602DF05 PUSH1 0xE0 SHL DUP2 MSTORE DUP1 DUP5 ADD DUP7 SWAP1 MSTORE PUSH1 0x24 SWAP1 REVERT JUMPDEST DUP4 DUP4 CALLVALUE PUSH2 0x19D JUMPI DUP2 PUSH1 0x3 NOT CALLDATASIZE ADD SLT PUSH2 0x19D JUMPI DUP1 MLOAD SWAP1 DUP3 PUSH1 0x3 SLOAD PUSH1 0x1 DUP2 DUP2 SHR SWAP1 DUP1 DUP4 AND SWAP3 DUP4 ISZERO PUSH2 0xC14 JUMPI JUMPDEST PUSH1 0x20 SWAP4 DUP5 DUP5 LT DUP2 EQ PUSH2 0x405 JUMPI DUP4 DUP9 MSTORE SWAP1 DUP2 ISZERO PUSH2 0x3E9 JUMPI POP PUSH1 0x1 EQ PUSH2 0xBBE JUMPI POP POP POP DUP3 SWAP1 SUB PUSH1 0x1F ADD PUSH1 0x1F NOT AND DUP3 ADD SWAP3 PUSH8 0xFFFFFFFFFFFFFFFF DUP5 GT DUP4 DUP6 LT OR PUSH2 0x381 JUMPI POP DUP3 SWAP2 DUP3 PUSH2 0x37D SWAP3 MSTORE DUP3 PUSH2 0xC71 JUMP JUMPDEST PUSH1 0x3 DUP8 MSTORE SWAP2 SWAP3 POP DUP6 SWAP2 DUP4 PUSH32 0xC2575A0E9E593C00F959F8C92F12DB2869C3395A3B0502D05E2516446F71F85B JUMPDEST DUP4 DUP6 LT PUSH2 0xC00 JUMPI POP POP POP POP DUP4 ADD ADD DUP6 DUP1 DUP1 PUSH2 0x34B JUMP JUMPDEST DUP1 SLOAD DUP9 DUP7 ADD DUP4 ADD MSTORE SWAP4 ADD SWAP3 DUP5 SWAP1 DUP3 ADD PUSH2 0xBEA JUMP JUMPDEST SWAP2 PUSH1 0x7F AND SWAP2 PUSH2 0xB6E JUMP JUMPDEST DUP5 SWAP2 CALLVALUE PUSH2 0x229 JUMPI PUSH1 0x20 CALLDATASIZE PUSH1 0x3 NOT ADD SLT PUSH2 0x229 JUMPI CALLDATALOAD PUSH4 0xFFFFFFFF PUSH1 0xE0 SHL DUP2 AND DUP1 SWAP2 SUB PUSH2 0x229 JUMPI PUSH1 0x20 SWAP3 POP PUSH4 0x7965DB0B PUSH1 0xE0 SHL DUP2 EQ SWAP1 DUP2 ISZERO PUSH2 0xC60 JUMPI JUMPDEST POP ISZERO ISZERO DUP2 MSTORE RETURN JUMPDEST PUSH4 0x1FFC9A7 PUSH1 0xE0 SHL EQ SWAP1 POP DUP4 PUSH2 0xC59 JUMP JUMPDEST PUSH1 0x20 DUP1 DUP3 MSTORE DUP3 MLOAD DUP2 DUP4 ADD DUP2 SWAP1 MSTORE SWAP1 SWAP4 SWAP3 PUSH1 0x0 JUMPDEST DUP3 DUP2 LT PUSH2 0xCA6 JUMPI POP POP PUSH1 0x40 SWAP3 SWAP4 POP PUSH1 0x0 DUP4 DUP3 DUP5 ADD ADD MSTORE PUSH1 0x1F DUP1 NOT SWAP2 ADD AND ADD ADD SWAP1 JUMP JUMPDEST DUP2 DUP2 ADD DUP7 ADD MLOAD DUP5 DUP3 ADD PUSH1 0x40 ADD MSTORE DUP6 ADD PUSH2 0xC84 JUMP JUMPDEST PUSH1 0x4 CALLDATALOAD SWAP1 PUSH1 0x1 PUSH1 0x1 PUSH1 0xA0 SHL SUB DUP3 AND DUP3 SUB PUSH2 0xCD0 JUMPI JUMP JUMPDEST PUSH1 0x0 DUP1 REVERT JUMPDEST PUSH1 0x24 CALLDATALOAD SWAP1 PUSH1 0x1 PUSH1 0x1 PUSH1 0xA0 SHL SUB DUP3 AND DUP3 SUB PUSH2 0xCD0 JUMPI JUMP JUMPDEST CALLER PUSH1 0x0 SWAP1 DUP2 MSTORE PUSH32 0x99F2891DB7A8DB76249871A02B43B68C0BB8F22EF8A3BC1034AE9375EF6B7C3C PUSH1 0x20 MSTORE PUSH1 0x40 SWAP1 KECCAK256 SLOAD PUSH32 0x65D7A28E3265B37A6474929F336521B332C1681B933F6CB9F3376673440D862A SWAP1 PUSH1 0xFF AND ISZERO PUSH2 0xD47 JUMPI POP JUMP JUMPDEST PUSH1 0x44 SWAP1 PUSH1 0x40 MLOAD SWAP1 PUSH4 0xE2517D3F PUSH1 0xE0 SHL DUP3 MSTORE CALLER PUSH1 0x4 DUP4 ADD MSTORE PUSH1 0x24 DUP3 ADD MSTORE REVERT JUMPDEST DUP1 PUSH1 0x0 MSTORE PUSH1 0x5 PUSH1 0x20 MSTORE PUSH1 0x40 PUSH1 0x0 KECCAK256 CALLER PUSH1 0x0 MSTORE PUSH1 0x20 MSTORE PUSH1 0xFF PUSH1 0x40 PUSH1 0x0 KECCAK256 SLOAD AND ISZERO PUSH2 0xD47 JUMPI POP JUMP JUMPDEST SWAP1 PUSH1 0x0 SWAP2 DUP1 DUP4 MSTORE PUSH1 0x5 PUSH1 0x20 MSTORE PUSH1 0x40 DUP4 KECCAK256 SWAP2 PUSH1 0x1 DUP1 PUSH1 0xA0 SHL SUB AND SWAP2 DUP3 DUP5 MSTORE PUSH1 0x20 MSTORE PUSH1 0xFF PUSH1 0x40 DUP5 KECCAK256 SLOAD AND ISZERO PUSH1 0x0 EQ PUSH2 0xE06 JUMPI DUP1 DUP4 MSTORE PUSH1 0x5 PUSH1 0x20 MSTORE PUSH1 0x40 DUP4 KECCAK256 DUP3 DUP5 MSTORE PUSH1 0x20 MSTORE PUSH1 0x40 DUP4 KECCAK256 PUSH1 0x1 PUSH1 0xFF NOT DUP3 SLOAD AND OR SWAP1 SSTORE PUSH32 0x2F8788117E7EFF1D82E926EC794901D17C78024A50270940304540A733656F0D CALLER SWAP4 DUP1 LOG4 PUSH1 0x1 SWAP1 JUMP JUMPDEST POP POP SWAP1 JUMP JUMPDEST SWAP1 PUSH1 0x0 SWAP2 DUP1 DUP4 MSTORE PUSH1 0x5 PUSH1 0x20 MSTORE PUSH1 0x40 DUP4 KECCAK256 SWAP2 PUSH1 0x1 DUP1 PUSH1 0xA0 SHL SUB AND SWAP2 DUP3 DUP5 MSTORE PUSH1 0x20 MSTORE PUSH1 0xFF PUSH1 0x40 DUP5 KECCAK256 SLOAD AND PUSH1 0x0 EQ PUSH2 0xE06 JUMPI DUP1 DUP4 MSTORE PUSH1 0x5 PUSH1 0x20 MSTORE PUSH1 0x40 DUP4 KECCAK256 DUP3 DUP5 MSTORE PUSH1 0x20 MSTORE PUSH1 0x40 DUP4 KECCAK256 PUSH1 0xFF NOT DUP2 SLOAD AND SWAP1 SSTORE PUSH32 0xF6391F5C32D9C69D2A47EA670B442974B53935D1EDC7FD64EB21E047A839171B CALLER SWAP4 DUP1 LOG4 PUSH1 0x1 SWAP1 JUMP JUMPDEST SWAP2 PUSH1 0x1 PUSH1 0x1 PUSH1 0xA0 SHL SUB DUP1 DUP5 AND SWAP3 DUP4 ISZERO PUSH2 0xF4F JUMPI AND SWAP3 DUP4 ISZERO PUSH2 0xF36 JUMPI PUSH2 0xEA5 PUSH2 0xF8B JUMP JUMPDEST PUSH1 0x0 SWAP1 DUP4 DUP3 MSTORE DUP2 PUSH1 0x20 MSTORE PUSH1 0x40 DUP3 KECCAK256 SLOAD SWAP1 DUP4 DUP3 LT PUSH2 0xF04 JUMPI POP SWAP2 PUSH1 0x40 DUP3 DUP3 PUSH32 0xDDF252AD1BE2C89B69C2B068FC378DAA952BA7F163C4A11628F55A4DF523B3EF SWAP6 DUP8 PUSH1 0x20 SWAP7 MSTORE DUP3 DUP7 MSTORE SUB DUP3 DUP3 KECCAK256 SSTORE DUP7 DUP2 MSTORE KECCAK256 DUP2 DUP2 SLOAD ADD SWAP1 SSTORE PUSH1 0x40 MLOAD SWAP1 DUP2 MSTORE LOG3 JUMP JUMPDEST PUSH1 0x40 MLOAD PUSH4 0x391434E3 PUSH1 0xE2 SHL DUP2 MSTORE PUSH1 0x1 PUSH1 0x1 PUSH1 0xA0 SHL SUB SWAP2 SWAP1 SWAP2 AND PUSH1 0x4 DUP3 ADD MSTORE PUSH1 0x24 DUP2 ADD SWAP2 SWAP1 SWAP2 MSTORE PUSH1 0x44 DUP2 ADD DUP4 SWAP1 MSTORE PUSH1 0x64 SWAP1 REVERT JUMPDEST PUSH1 0x40 MLOAD PUSH4 0xEC442F05 PUSH1 0xE0 SHL DUP2 MSTORE PUSH1 0x0 PUSH1 0x4 DUP3 ADD MSTORE PUSH1 0x24 SWAP1 REVERT JUMPDEST PUSH1 0x40 MLOAD PUSH4 0x4B637E8F PUSH1 0xE1 SHL DUP2 MSTORE PUSH1 0x0 PUSH1 0x4 DUP3 ADD MSTORE PUSH1 0x24 SWAP1 REVERT JUMPDEST SWAP2 SWAP1 DUP3 ADD DUP1 SWAP3 GT PUSH2 0xF75 JUMPI JUMP JUMPDEST PUSH4 0x4E487B71 PUSH1 0xE0 SHL PUSH1 0x0 MSTORE PUSH1 0x11 PUSH1 0x4 MSTORE PUSH1 0x24 PUSH1 0x0 REVERT JUMPDEST PUSH1 0xFF PUSH1 0x6 SLOAD AND PUSH2 0xF97 JUMPI JUMP JUMPDEST PUSH1 0x40 MLOAD PUSH4 0xD93C0665 PUSH1 0xE0 SHL DUP2 MSTORE PUSH1 0x4 SWAP1 REVERT JUMPDEST PUSH1 0x2 PUSH1 0x7 SLOAD EQ PUSH2 0xFBA JUMPI PUSH1 0x2 PUSH1 0x7 SSTORE JUMP JUMPDEST PUSH1 0x40 MLOAD PUSH4 0x3EE5AEB5 PUSH1 0xE0 SHL DUP2 MSTORE PUSH1 0x4 SWAP1 REVERT JUMPDEST SWAP1 PUSH1 0x1 PUSH1 0x1 PUSH1 0xA0 SHL SUB DUP3 AND SWAP1 DUP2 ISZERO PUSH2 0xF4F JUMPI PUSH2 0xFE6 PUSH2 0xF8B JUMP JUMPDEST PUSH1 0x0 SWAP3 DUP3 DUP5 MSTORE DUP4 PUSH1 0x20 MSTORE PUSH1 0x40 DUP5 KECCAK256 SLOAD SWAP1 DUP3 DUP3 LT PUSH2 0x1041 JUMPI POP DUP2 PUSH32 0xDDF252AD1BE2C89B69C2B068FC378DAA952BA7F163C4A11628F55A4DF523B3EF SWAP3 PUSH1 0x20 SWAP3 DUP6 DUP8 MSTORE DUP7 DUP5 MSTORE SUB PUSH1 0x40 DUP7 KECCAK256 SSTORE DUP1 PUSH1 0x2 SLOAD SUB PUSH1 0x2 SSTORE PUSH1 0x40 MLOAD SWAP1 DUP2 MSTORE LOG3 JUMP JUMPDEST PUSH1 0x40 MLOAD PUSH4 0x391434E3 PUSH1 0xE2 SHL DUP2 MSTORE PUSH1 0x1 PUSH1 0x1 PUSH1 0xA0 SHL SUB SWAP2 SWAP1 SWAP2 AND PUSH1 0x4 DUP3 ADD MSTORE PUSH1 0x24 DUP2 ADD SWAP2 SWAP1 SWAP2 MSTORE PUSH1 0x44 DUP2 ADD DUP3 SWAP1 MSTORE PUSH1 0x64 SWAP1 REVERT INVALID LOG2 PUSH5 0x6970667358 0x22 SLT KECCAK256 0xF9 0xD8 0xB4 STOP 0xEC 0xDC 0x28 0xE7 0xE7 DUP11 0xB8 DIV PUSH17 0x7B5466EF3CDA86FA51BFE0D84CCB7CC23A 0x1F 0x23 PUSH5 0x736F6C6343 STOP ADDMOD EQ STOP CALLER 0x2F DUP8 DUP9 GT PUSH31 0x7EFF1D82E926EC794901D17C78024A50270940304540A733656F0D00000000 "},"methodIdentifiers":{"BURNER_ROLE()":"282c51f3","DEFAULT_ADMIN_ROLE()":"a217fddf","MINTER_ROLE()":"d5391393","PAUSER_ROLE()":"e63ab1e9","allowance(address,address)":"dd62ed3e","approve(address,uint256)":"095ea7b3","balanceOf(address)":"70a08231","burn(uint256)":"42966c68","burnFrom(address,uint256)":"79cc6790","decimals()":"313ce567","getRoleAdmin(bytes32)":"248a9ca3","getStats()":"c59d4847","grantRole(bytes32,address)":"2f2ff15d","hasRole(bytes32,address)":"91d14854","mint(address,uint256)":"40c10f19","name()":"06fdde03","pause()":"8456cb59","paused()":"5c975abb","renounceRole(bytes32,address)":"36568abe","revokeRole(bytes32,address)":"d547741f","supportsInterface(bytes4)":"01ffc9a7","symbol()":"95d89b41","totalBurnedAmount()":"35ab5f64","totalInCirculation()":"5cb0c16f","totalMinted()":"a2309ff8","totalSupply()":"18160ddd","transfer(address,uint256)":"a9059cbb","transferFrom(address,address,uint256)":"23b872dd","unpause()":"3f4ba83a"}}}}}