{"contracts/GameToken.sol":{"GameToken":{"abi":[{"inputs":[{"internalType":"string","name":"name","type":"string"},{"internalType":"string","name":"symbol","type":"string"},{"internalType":"uint8","name":"decimals_","type":"uint8"},{"internalType":"uint256","name":"initialSupply","type":"uint256"},{"internalType":"address","name":"owner","type":"address"},{"internalType":"address","name":"factory_","type":"address"},{"internalType":"uint256","name":"gameId_","type":"uint256"}],"stateMutability":"nonpayable","type":"constructor"},{"inputs":[],"name":"BurnDisabled","type":"error"},{"inputs":[{"internalType":"address","name":"spender","type":"address"},{"internalType":"uint256","name":"allowance","type":"uint256"},{"internalType":"uint256","name":"needed","type":"uint256"}],"name":"ERC20InsufficientAllowance","type":"error"},{"inputs":[{"internalType":"address","name":"sender","type":"address"},{"internalType":"uint256","name":"balance","type":"uint256"},{"internalType":"uint256","name":"needed","type":"uint256"}],"name":"ERC20InsufficientBalance","type":"error"},{"inputs":[{"internalType":"address","name":"approver","type":"address"}],"name":"ERC20InvalidApprover","type":"error"},{"inputs":[{"internalType":"address","name":"receiver","type":"address"}],"name":"ERC20InvalidReceiver","type":"error"},{"inputs":[{"internalType":"address","name":"sender","type":"address"}],"name":"ERC20InvalidSender","type":"error"},{"inputs":[{"internalType":"address","name":"spender","type":"address"}],"name":"ERC20InvalidSpender","type":"error"},{"inputs":[],"name":"InsufficientBalance","type":"error"},{"inputs":[{"internalType":"address","name":"owner","type":"address"}],"name":"OwnableInvalidOwner","type":"error"},{"inputs":[{"internalType":"address","name":"account","type":"address"}],"name":"OwnableUnauthorizedAccount","type":"error"},{"inputs":[],"name":"ReentrancyGuardReentrantCall","type":"error"},{"inputs":[],"name":"UnauthorizedBurner","type":"error"},{"inputs":[],"name":"ZeroAmount","type":"error"},{"anonymous":false,"inputs":[{"indexed":true,"internalType":"address","name":"owner","type":"address"},{"indexed":true,"internalType":"address","name":"spender","type":"address"},{"indexed":false,"internalType":"uint256","name":"value","type":"uint256"}],"name":"Approval","type":"event"},{"anonymous":false,"inputs":[{"indexed":false,"internalType":"bool","name":"enabled","type":"bool"}],"name":"BurnStatusChanged","type":"event"},{"anonymous":false,"inputs":[{"indexed":true,"internalType":"address","name":"previousOwner","type":"address"},{"indexed":true,"internalType":"address","name":"newOwner","type":"address"}],"name":"OwnershipTransferred","type":"event"},{"anonymous":false,"inputs":[{"indexed":true,"internalType":"address","name":"user","type":"address"},{"indexed":false,"internalType":"uint256","name":"amount","type":"uint256"},{"indexed":false,"internalType":"uint256","name":"totalBurned","type":"uint256"}],"name":"TokensBurned","type":"event"},{"anonymous":false,"inputs":[{"indexed":true,"internalType":"address","name":"from","type":"address"},{"indexed":true,"internalType":"address","name":"to","type":"address"},{"indexed":false,"internalType":"uint256","name":"value","type":"uint256"}],"name":"Transfer","type":"event"},{"inputs":[{"internalType":"address","name":"owner","type":"address"},{"internalType":"address","name":"spender","type":"address"}],"name":"allowance","outputs":[{"internalType":"uint256","name":"","type":"uint256"}],"stateMutability":"view","type":"function"},{"inputs":[{"internalType":"address","name":"spender","type":"address"},{"internalType":"uint256","name":"value","type":"uint256"}],"name":"approve","outputs":[{"internalType":"bool","name":"","type":"bool"}],"stateMutability":"nonpayable","type":"function"},{"inputs":[{"internalType":"address","name":"account","type":"address"}],"name":"balanceOf","outputs":[{"internalType":"uint256","name":"","type":"uint256"}],"stateMutability":"view","type":"function"},{"inputs":[{"internalType":"uint256","name":"amount","type":"uint256"}],"name":"burn","outputs":[],"stateMutability":"nonpayable","type":"function"},{"inputs":[],"name":"burnEnabled","outputs":[{"internalType":"bool","name":"","type":"bool"}],"stateMutability":"view","type":"function"},{"inputs":[{"internalType":"address","name":"from","type":"address"},{"internalType":"uint256","name":"amount","type":"uint256"}],"name":"burnFrom","outputs":[],"stateMutability":"nonpayable","type":"function"},{"inputs":[],"name":"decimals","outputs":[{"internalType":"uint8","name":"","type":"uint8"}],"stateMutability":"view","type":"function"},{"inputs":[{"internalType":"address","name":"token","type":"address"},{"internalType":"address","name":"to","type":"address"},{"internalType":"uint256","name":"amount","type":"uint256"}],"name":"emergencyRecover","outputs":[],"stateMutability":"nonpayable","type":"function"},{"inputs":[],"name":"factory","outputs":[{"internalType":"address","name":"","type":"address"}],"stateMutability":"view","type":"function"},{"inputs":[{"internalType":"address","name":"to","type":"address"},{"internalType":"uint256","name":"amount","type":"uint256"}],"name":"factoryMint","outputs":[],"stateMutability":"nonpayable","type":"function"},{"inputs":[],"name":"gameId","outputs":[{"internalType":"uint256","name":"","type":"uint256"}],"stateMutability":"view","type":"function"},{"inputs":[{"internalType":"address","name":"","type":"address"}],"name":"mint","outputs":[],"stateMutability":"pure","type":"function"},{"inputs":[],"name":"name","outputs":[{"internalType":"string","name":"","type":"string"}],"stateMutability":"view","type":"function"},{"inputs":[],"name":"owner","outputs":[{"internalType":"address","name":"","type":"address"}],"stateMutability":"view","type":"function"},{"inputs":[],"name":"renounceOwnership","outputs":[],"stateMutability":"nonpayable","type":"function"},{"inputs":[{"internalType":"bool","name":"enabled","type":"bool"}],"name":"setBurnEnabled","outputs":[],"stateMutability":"nonpayable","type":"function"},{"inputs":[],"name":"symbol","outputs":[{"internalType":"string","name":"","type":"string"}],"stateMutability":"view","type":"function"},{"inputs":[],"name":"totalBurned","outputs":[{"internalType":"uint256","name":"","type":"uint256"}],"stateMutability":"view","type":"function"},{"inputs":[],"name":"totalSupply","outputs":[{"internalType":"uint256","name":"","type":"uint256"}],"stateMutability":"view","type":"function"},{"inputs":[{"internalType":"address","name":"to","type":"address"},{"internalType":"uint256","name":"value","type":"uint256"}],"name":"transfer","outputs":[{"internalType":"bool","name":"","type":"bool"}],"stateMutability":"nonpayable","type":"function"},{"inputs":[{"internalType":"address","name":"from","type":"address"},{"internalType":"address","name":"to","type":"address"},{"internalType":"uint256","name":"value","type":"uint256"}],"name":"transferFrom","outputs":[{"internalType":"bool","name":"","type":"bool"}],"stateMutability":"nonpayable","type":"function"},{"inputs":[{"internalType":"address","name":"newOwner","type":"address"}],"name":"transferOwnership","outputs":[],"stateMutability":"nonpayable","type":"function"}],"evm":{"bytecode":{"linkReferences":{},"object":"604060e0815234620004925762001465803803806200001e8162000497565b928339810160e082820312620004925781516001600160401b03929083811162000492578262000050918301620004bd565b92602092838301519082821162000492576200006e918401620004bd565b90858301519260ff84168403620004925760608101519362000093608083016200052f565b9660c0620000a460a085016200052f565b93015193815181811162000383576003908154906001948583811c9316801562000487575b8c841014620004715781908c601f9485811162000418575b50508c90848311600114620003a55760009262000399575b505060001982851b1c191690851b1782555b8751928311620003835760049788548581811c9116801562000378575b8c8210146200036357908b8284879695941162000306575b50508b9184116001146200029b576000936200028f575b505082841b92600019911b1c19161785555b6001600160a01b039788169788156200027857600580546001600160a01b031981168b179091558991167f8be0079c531659141344cd1fd0a4f28419497f9722a3daafe3b4186f6b6457e0600080a38060065560ff19600854161760085560805260a05260c0526002549082820180921162000263575060025560008381528083528481208054830190558451918252917fddf252ad1be2c89b69c2b068fc378daa952ba7f163c4a11628f55a4df523b3ef91a361010061ff0019600854161760085551610f20908162000545823960805181610967015260a05181818161026e0152818161044c01526106a4015260c051816102360152f35b601190634e487b7160e01b6000525260246000fd5b8951631e4fbdf760e01b8152600081880152602490fd5b01519150388062000157565b60008a81528c812087965093929190601f198616908e5b828210620002ee5750508511620002d3575b50505050811b01855562000169565b01519060f884600019921b161c1916905538808080620002c4565b83850151875589989096019593840193018e620002b2565b9091929394508a60005283826000209181880160051c830193881062000359575b9188918897969594930160051c01915b8281106200034957508d915062000140565b6000815587965088910162000337565b9250819262000327565b60228a634e487b7160e01b6000525260246000fd5b90607f169062000128565b634e487b7160e01b600052604160045260246000fd5b015190503880620000f9565b879350908d91601f1984168760005283600020936000905b828210620003f65750508411620003dd575b505050811b0182556200010b565b015160001983871b60f8161c19169055388080620003cf565b91929395968291958786015181550195019301908f918a9695949392620003bd565b909192508560005284826000209181860160051c830193861062000467575b918991869594930160051c01915b8281106200045757508e9150620000e1565b6000815585945089910162000445565b9250819262000437565b634e487b7160e01b600052602260045260246000fd5b92607f1692620000c9565b600080fd5b6040519190601f01601f191682016001600160401b038111838210176200038357604052565b919080601f84011215620004925782516001600160401b0381116200038357602090620004f3601f8201601f1916830162000497565b92818452828287010111620004925760005b8181106200051b57508260009394955001015290565b858101830151848201840152820162000505565b51906001600160a01b0382168203620004925756fe6080604081815260048036101561001557600080fd5b600092833560e01c90816306fdde0314610b3457508063095ea7b314610a8b57806318160ddd14610a6c57806323b872dd1461098b578063313ce5671461094d57806342966c68146108ae5780635dc96d161461088a5780636a6278421461081d57806370a08231146107e6578063715018a61461078957806379cc67901461067c5780637b2c835f1461061a5780638da5cb5b146105f157806395d89b41146104ed578063a4f0ecd314610422578063a9059cbb146103f1578063ad1329d11461029d578063c45a015514610259578063d7c81b551461021e578063d89135cd146101ff578063dd62ed3e146101a75763f2fde38b1461011557600080fd5b346101a35760203660031901126101a35761012e610c73565b90610137610cc3565b6001600160a01b0391821692831561018d575050600554826bffffffffffffffffffffffff60a01b821617600555167f8be0079c531659141344cd1fd0a4f28419497f9722a3daafe3b4186f6b6457e08380a380f35b51631e4fbdf760e01b8152908101849052602490fd5b8280fd5b5050346101fb57806003193601126101fb576101c1610c73565b6001600160a01b0360243581811692908390036101f7579160209491849316825260018552828220908252845220549051908152f35b8480fd5b5080fd5b5050346101fb57816003193601126101fb576020906007549051908152f35b5050346101fb57816003193601126101fb57602090517f00000000000000000000000000000000000000000000000000000000000000008152f35b5050346101fb57816003193601126101fb57517f00000000000000000000000000000000000000000000000000000000000000006001600160a01b03168152602090f35b5090346101a3576102ad36610c8e565b91906102b7610cc3565b6001600160a01b039081169182156103e15786939291168061036d575082809281925af13d15610368573d67ffffffffffffffff811161035557825190610308601f8201601f191660200183610cef565b81528460203d92013e5b1561031c57505080f35b906020606492519162461bcd60e51b83528201526013602482015272115512081d1c985b9cd9995c8819985a5b1959606a1b6044820152fd5b634e487b7160e01b855260418452602485fd5b610312565b9460209360449293968651978895869463a9059cbb60e01b865285015260248401525af19081156103d857506103a1575080f35b6020813d82116103d0575b816103b960209383610cef565b810103126101fb5751801515036103cd5780f35b80fd5b3d91506103ac565b513d84823e3d90fd5b8451631f2a200560e01b81528690fd5b5050346101fb57806003193601126101fb5760209061041b610411610c73565b6024359033610d27565b5160018152f35b5090346101a357806003193601126101a35761043c610c73565b60243591906001600160a01b03907f0000000000000000000000000000000000000000000000000000000000000000821633036104dd57169283156104c857506020827fddf252ad1be2c89b69c2b068fc378daa952ba7f163c4a11628f55a4df523b3ef926104ae8795600254610e05565b60025585855284835280852082815401905551908152a380f35b84602492519163ec442f0560e01b8352820152fd5b825163a9c455db60e01b81528590fd5b509190346101fb57816003193601126101fb57805191809380549160019083821c928285169485156105e7575b60209586861081146105d4578589529081156105b05750600114610558575b610554878761054a828c0383610cef565b5191829182610c2a565b0390f35b81529295507f8a35acfbc15ff81a39ae7d344fd709f28e8600b4aa8c65c6b64bfe7fe36bd19b5b82841061059d57505050826105549461054a92820101943880610539565b805486850188015292860192810161057f565b60ff19168887015250505050151560051b830101925061054a826105543880610539565b634e487b7160e01b845260228352602484fd5b93607f169361051a565b5050346101fb57816003193601126101fb5760055490516001600160a01b039091168152602090f35b50346101a35760203660031901126101a35735908115158092036101a3577f1509137b40df48e8ef9596f9db16b632b15353d0e0688d9f23221953eb0328dd91602091610665610cc3565b60ff196008541660ff83161760085551908152a180f35b5090346101a357806003193601126101a357610696610c73565b602435906001600160a01b037f0000000000000000000000000000000000000000000000000000000000000000811633036107795760ff6008541615610769576106de610ec7565b8215610759578116938486528560205282848720541061074b575090610735817fccbea4088a3b7ae9ca2d15fab9a9742a4075b4d7247768a1eecea917565aba00949361072d82600754610e05565b600755610e28565b60075482519182526020820152a2600160065580f35b8351631e9acf1760e31b8152fd5b50505051631f2a200560e01b8152fd5b5050505163be20705f60e01b8152fd5b5050505163a9c455db60e01b8152fd5b83346103cd57806003193601126103cd576107a2610cc3565b600580546001600160a01b0319811690915581906001600160a01b03167f8be0079c531659141344cd1fd0a4f28419497f9722a3daafe3b4186f6b6457e08280a380f35b5050346101fb5760203660031901126101fb5760209181906001600160a01b0361080e610c73565b16815280845220549051908152f35b5082346103cd5760203660031901126103cd5750602060849261083e610c73565b505162461bcd60e51b815291820152602560248201527f4d696e742064697361626c65643a2075736520666163746f727920746f206c6f6044820152640636b2058560dc1b6064820152fd5b5050346101fb57816003193601126101fb5760209060ff6008541690519015158152f35b5090346101a35760203660031901126101a35781359160ff600854161561093f576108d7610ec7565b821561093157507fccbea4088a3b7ae9ca2d15fab9a9742a4075b4d7247768a1eecea917565aba009061090c83600754610e05565b6007556109198333610e28565b600754815193845260208401523392a2600160065580f35b9051631f2a200560e01b8152fd5b905163be20705f60e01b8152fd5b5050346101fb57816003193601126101fb576020905160ff7f0000000000000000000000000000000000000000000000000000000000000000168152f35b508290346101fb5761099c36610c8e565b6001600160a01b038316808652600160209081528787203388529052868620549195929460001983106109d8575b60208861041b898989610d27565b868310610a40578115610a29573315610a125750825260016020908152868320338452815291869020908590039055829061041b876109ca565b8751634a1406b160e11b8152908101849052602490fd5b875163e602df0560e01b8152908101849052602490fd5b8751637dc7a0d960e11b8152339181019182526020820193909352604081018790528291506060010390fd5b5050346101fb57816003193601126101fb576020906002549051908152f35b50346101a357816003193601126101a357610aa4610c73565b602435903315610b1d576001600160a01b0316918215610b0657508083602095338152600187528181208582528752205582519081527f8c5be1e5ebec7d5bd14f71427d1e84f3dd0314c0f7b2291e5b200ac8c7c3b925843392a35160018152f35b8351634a1406b160e11b8152908101859052602490fd5b835163e602df0560e01b8152808401869052602490fd5b9291905034610c265783600319360112610c2657600354600181811c9186908281168015610c1c575b6020958686108214610c095750848852908115610be75750600114610b8e575b610554868661054a828b0383610cef565b929550600383527fc2575a0e9e593c00f959f8c92f12db2869c3395a3b0502d05e2516446f71f85b5b828410610bd457505050826105549461054a928201019438610b7d565b8054868501880152928601928101610bb7565b60ff191687860152505050151560051b830101925061054a8261055438610b7d565b634e487b7160e01b845260229052602483fd5b93607f1693610b5d565b8380fd5b6020808252825181830181905290939260005b828110610c5f57505060409293506000838284010152601f8019910116010190565b818101860151848201604001528501610c3d565b600435906001600160a01b0382168203610c8957565b600080fd5b6060906003190112610c89576001600160a01b03906004358281168103610c8957916024359081168103610c89579060443590565b6005546001600160a01b03163303610cd757565b60405163118cdaa760e01b8152336004820152602490fd5b90601f8019910116810190811067ffffffffffffffff821117610d1157604052565b634e487b7160e01b600052604160045260246000fd5b916001600160a01b03808416928315610dec5716928315610dd35760009083825281602052604082205490838210610da1575091604082827fddf252ad1be2c89b69c2b068fc378daa952ba7f163c4a11628f55a4df523b3ef958760209652828652038282205586815220818154019055604051908152a3565b60405163391434e360e21b81526001600160a01b03919091166004820152602481019190915260448101839052606490fd5b60405163ec442f0560e01b815260006004820152602490fd5b604051634b637e8f60e11b815260006004820152602490fd5b91908201809211610e1257565b634e487b7160e01b600052601160045260246000fd5b906001600160a01b038216908115610dec5760009282845283602052604084205490828210610e955750817fddf252ad1be2c89b69c2b068fc378daa952ba7f163c4a11628f55a4df523b3ef926020928587528684520360408620558060025403600255604051908152a3565b60405163391434e360e21b81526001600160a01b03919091166004820152602481019190915260448101829052606490fd5b600260065414610ed8576002600655565b604051633ee5aeb560e01b8152600490fdfea26469706673582212200af63bddea01ad5644f6269fa473f9a356f219b1d5d3bbaae1183008305417cb64736f6c63430008140033","opcodes":"PUSH1 0x40 PUSH1 0xE0 DUP2 MSTORE CALLVALUE PUSH3 0x492 JUMPI PUSH3 0x1465 DUP1 CODESIZE SUB DUP1 PUSH3 0x1E DUP2 PUSH3 0x497 JUMP JUMPDEST SWAP3 DUP4 CODECOPY DUP2 ADD PUSH1 0xE0 DUP3 DUP3 SUB SLT PUSH3 0x492 JUMPI DUP2 MLOAD PUSH1 0x1 PUSH1 0x1 PUSH1 0x40 SHL SUB SWAP3 SWAP1 DUP4 DUP2 GT PUSH3 0x492 JUMPI DUP3 PUSH3 0x50 SWAP2 DUP4 ADD PUSH3 0x4BD JUMP JUMPDEST SWAP3 PUSH1 0x20 SWAP3 DUP4 DUP4 ADD MLOAD SWAP1 DUP3 DUP3 GT PUSH3 0x492 JUMPI PUSH3 0x6E SWAP2 DUP5 ADD PUSH3 0x4BD JUMP JUMPDEST SWAP1 DUP6 DUP4 ADD MLOAD SWAP3 PUSH1 0xFF DUP5 AND DUP5 SUB PUSH3 0x492 JUMPI PUSH1 0x60 DUP2 ADD MLOAD SWAP4 PUSH3 0x93 PUSH1 0x80 DUP4 ADD PUSH3 0x52F JUMP JUMPDEST SWAP7 PUSH1 0xC0 PUSH3 0xA4 PUSH1 0xA0 DUP6 ADD PUSH3 0x52F JUMP JUMPDEST SWAP4 ADD MLOAD SWAP4 DUP2 MLOAD DUP2 DUP2 GT PUSH3 0x383 JUMPI PUSH1 0x3 SWAP1 DUP2 SLOAD SWAP1 PUSH1 0x1 SWAP5 DUP6 DUP4 DUP2 SHR SWAP4 AND DUP1 ISZERO PUSH3 0x487 JUMPI JUMPDEST DUP13 DUP5 LT EQ PUSH3 0x471 JUMPI DUP2 SWAP1 DUP13 PUSH1 0x1F SWAP5 DUP6 DUP2 GT PUSH3 0x418 JUMPI JUMPDEST POP POP DUP13 SWAP1 DUP5 DUP4 GT PUSH1 0x1 EQ PUSH3 0x3A5 JUMPI PUSH1 0x0 SWAP3 PUSH3 0x399 JUMPI JUMPDEST POP POP PUSH1 0x0 NOT DUP3 DUP6 SHL SHR NOT AND SWAP1 DUP6 SHL OR DUP3 SSTORE JUMPDEST DUP8 MLOAD SWAP3 DUP4 GT PUSH3 0x383 JUMPI PUSH1 0x4 SWAP8 DUP9 SLOAD DUP6 DUP2 DUP2 SHR SWAP2 AND DUP1 ISZERO PUSH3 0x378 JUMPI JUMPDEST DUP13 DUP3 LT EQ PUSH3 0x363 JUMPI SWAP1 DUP12 DUP3 DUP5 DUP8 SWAP7 SWAP6 SWAP5 GT PUSH3 0x306 JUMPI JUMPDEST POP POP DUP12 SWAP2 DUP5 GT PUSH1 0x1 EQ PUSH3 0x29B JUMPI PUSH1 0x0 SWAP4 PUSH3 0x28F JUMPI JUMPDEST POP POP DUP3 DUP5 SHL SWAP3 PUSH1 0x0 NOT SWAP2 SHL SHR NOT AND OR DUP6 SSTORE JUMPDEST PUSH1 0x1 PUSH1 0x1 PUSH1 0xA0 SHL SUB SWAP8 DUP9 AND SWAP8 DUP9 ISZERO PUSH3 0x278 JUMPI PUSH1 0x5 DUP1 SLOAD PUSH1 0x1 PUSH1 0x1 PUSH1 0xA0 SHL SUB NOT DUP2 AND DUP12 OR SWAP1 SWAP2 SSTORE DUP10 SWAP2 AND PUSH32 0x8BE0079C531659141344CD1FD0A4F28419497F9722A3DAAFE3B4186F6B6457E0 PUSH1 0x0 DUP1 LOG3 DUP1 PUSH1 0x6 SSTORE PUSH1 0xFF NOT PUSH1 0x8 SLOAD AND OR PUSH1 0x8 SSTORE PUSH1 0x80 MSTORE PUSH1 0xA0 MSTORE PUSH1 0xC0 MSTORE PUSH1 0x2 SLOAD SWAP1 DUP3 DUP3 ADD DUP1 SWAP3 GT PUSH3 0x263 JUMPI POP PUSH1 0x2 SSTORE PUSH1 0x0 DUP4 DUP2 MSTORE DUP1 DUP4 MSTORE DUP5 DUP2 KECCAK256 DUP1 SLOAD DUP4 ADD SWAP1 SSTORE DUP5 MLOAD SWAP2 DUP3 MSTORE SWAP2 PUSH32 0xDDF252AD1BE2C89B69C2B068FC378DAA952BA7F163C4A11628F55A4DF523B3EF SWAP2 LOG3 PUSH2 0x100 PUSH2 0xFF00 NOT PUSH1 0x8 SLOAD AND OR PUSH1 0x8 SSTORE MLOAD PUSH2 0xF20 SWAP1 DUP2 PUSH3 0x545 DUP3 CODECOPY PUSH1 0x80 MLOAD DUP2 PUSH2 0x967 ADD MSTORE PUSH1 0xA0 MLOAD DUP2 DUP2 DUP2 PUSH2 0x26E ADD MSTORE DUP2 DUP2 PUSH2 0x44C ADD MSTORE PUSH2 0x6A4 ADD MSTORE PUSH1 0xC0 MLOAD DUP2 PUSH2 0x236 ADD MSTORE RETURN JUMPDEST PUSH1 0x11 SWAP1 PUSH4 0x4E487B71 PUSH1 0xE0 SHL PUSH1 0x0 MSTORE MSTORE PUSH1 0x24 PUSH1 0x0 REVERT JUMPDEST DUP10 MLOAD PUSH4 0x1E4FBDF7 PUSH1 0xE0 SHL DUP2 MSTORE PUSH1 0x0 DUP2 DUP9 ADD MSTORE PUSH1 0x24 SWAP1 REVERT JUMPDEST ADD MLOAD SWAP2 POP CODESIZE DUP1 PUSH3 0x157 JUMP JUMPDEST PUSH1 0x0 DUP11 DUP2 MSTORE DUP13 DUP2 KECCAK256 DUP8 SWAP7 POP SWAP4 SWAP3 SWAP2 SWAP1 PUSH1 0x1F NOT DUP7 AND SWAP1 DUP15 JUMPDEST DUP3 DUP3 LT PUSH3 0x2EE JUMPI POP POP DUP6 GT PUSH3 0x2D3 JUMPI JUMPDEST POP POP POP POP DUP2 SHL ADD DUP6 SSTORE PUSH3 0x169 JUMP JUMPDEST ADD MLOAD SWAP1 PUSH1 0xF8 DUP5 PUSH1 0x0 NOT SWAP3 SHL AND SHR NOT AND SWAP1 SSTORE CODESIZE DUP1 DUP1 DUP1 PUSH3 0x2C4 JUMP JUMPDEST DUP4 DUP6 ADD MLOAD DUP8 SSTORE DUP10 SWAP9 SWAP1 SWAP7 ADD SWAP6 SWAP4 DUP5 ADD SWAP4 ADD DUP15 PUSH3 0x2B2 JUMP JUMPDEST SWAP1 SWAP2 SWAP3 SWAP4 SWAP5 POP DUP11 PUSH1 0x0 MSTORE DUP4 DUP3 PUSH1 0x0 KECCAK256 SWAP2 DUP2 DUP9 ADD PUSH1 0x5 SHR DUP4 ADD SWAP4 DUP9 LT PUSH3 0x359 JUMPI JUMPDEST SWAP2 DUP9 SWAP2 DUP9 SWAP8 SWAP7 SWAP6 SWAP5 SWAP4 ADD PUSH1 0x5 SHR ADD SWAP2 JUMPDEST DUP3 DUP2 LT PUSH3 0x349 JUMPI POP DUP14 SWAP2 POP PUSH3 0x140 JUMP JUMPDEST PUSH1 0x0 DUP2 SSTORE DUP8 SWAP7 POP DUP9 SWAP2 ADD PUSH3 0x337 JUMP JUMPDEST SWAP3 POP DUP2 SWAP3 PUSH3 0x327 JUMP JUMPDEST PUSH1 0x22 DUP11 PUSH4 0x4E487B71 PUSH1 0xE0 SHL PUSH1 0x0 MSTORE MSTORE PUSH1 0x24 PUSH1 0x0 REVERT JUMPDEST SWAP1 PUSH1 0x7F AND SWAP1 PUSH3 0x128 JUMP JUMPDEST PUSH4 0x4E487B71 PUSH1 0xE0 SHL PUSH1 0x0 MSTORE PUSH1 0x41 PUSH1 0x4 MSTORE PUSH1 0x24 PUSH1 0x0 REVERT JUMPDEST ADD MLOAD SWAP1 POP CODESIZE DUP1 PUSH3 0xF9 JUMP JUMPDEST DUP8 SWAP4 POP SWAP1 DUP14 SWAP2 PUSH1 0x1F NOT DUP5 AND DUP8 PUSH1 0x0 MSTORE DUP4 PUSH1 0x0 KECCAK256 SWAP4 PUSH1 0x0 SWAP1 JUMPDEST DUP3 DUP3 LT PUSH3 0x3F6 JUMPI POP POP DUP5 GT PUSH3 0x3DD JUMPI JUMPDEST POP POP POP DUP2 SHL ADD DUP3 SSTORE PUSH3 0x10B JUMP JUMPDEST ADD MLOAD PUSH1 0x0 NOT DUP4 DUP8 SHL PUSH1 0xF8 AND SHR NOT AND SWAP1 SSTORE CODESIZE DUP1 DUP1 PUSH3 0x3CF JUMP JUMPDEST SWAP2 SWAP3 SWAP4 SWAP6 SWAP7 DUP3 SWAP2 SWAP6 DUP8 DUP7 ADD MLOAD DUP2 SSTORE ADD SWAP6 ADD SWAP4 ADD SWAP1 DUP16 SWAP2 DUP11 SWAP7 SWAP6 SWAP5 SWAP4 SWAP3 PUSH3 0x3BD JUMP JUMPDEST SWAP1 SWAP2 SWAP3 POP DUP6 PUSH1 0x0 MSTORE DUP5 DUP3 PUSH1 0x0 KECCAK256 SWAP2 DUP2 DUP7 ADD PUSH1 0x5 SHR DUP4 ADD SWAP4 DUP7 LT PUSH3 0x467 JUMPI JUMPDEST SWAP2 DUP10 SWAP2 DUP7 SWAP6 SWAP5 SWAP4 ADD PUSH1 0x5 SHR ADD SWAP2 JUMPDEST DUP3 DUP2 LT PUSH3 0x457 JUMPI POP DUP15 SWAP2 POP PUSH3 0xE1 JUMP JUMPDEST PUSH1 0x0 DUP2 SSTORE DUP6 SWAP5 POP DUP10 SWAP2 ADD PUSH3 0x445 JUMP JUMPDEST SWAP3 POP DUP2 SWAP3 PUSH3 0x437 JUMP JUMPDEST PUSH4 0x4E487B71 PUSH1 0xE0 SHL PUSH1 0x0 MSTORE PUSH1 0x22 PUSH1 0x4 MSTORE PUSH1 0x24 PUSH1 0x0 REVERT JUMPDEST SWAP3 PUSH1 0x7F AND SWAP3 PUSH3 0xC9 JUMP JUMPDEST PUSH1 0x0 DUP1 REVERT JUMPDEST PUSH1 0x40 MLOAD SWAP2 SWAP1 PUSH1 0x1F ADD PUSH1 0x1F NOT AND DUP3 ADD PUSH1 0x1 PUSH1 0x1 PUSH1 0x40 SHL SUB DUP2 GT DUP4 DUP3 LT OR PUSH3 0x383 JUMPI PUSH1 0x40 MSTORE JUMP JUMPDEST SWAP2 SWAP1 DUP1 PUSH1 0x1F DUP5 ADD SLT ISZERO PUSH3 0x492 JUMPI DUP3 MLOAD PUSH1 0x1 PUSH1 0x1 PUSH1 0x40 SHL SUB DUP2 GT PUSH3 0x383 JUMPI PUSH1 0x20 SWAP1 PUSH3 0x4F3 PUSH1 0x1F DUP3 ADD PUSH1 0x1F NOT AND DUP4 ADD PUSH3 0x497 JUMP JUMPDEST SWAP3 DUP2 DUP5 MSTORE DUP3 DUP3 DUP8 ADD ADD GT PUSH3 0x492 JUMPI PUSH1 0x0 JUMPDEST DUP2 DUP2 LT PUSH3 0x51B JUMPI POP DUP3 PUSH1 0x0 SWAP4 SWAP5 SWAP6 POP ADD ADD MSTORE SWAP1 JUMP JUMPDEST DUP6 DUP2 ADD DUP4 ADD MLOAD DUP5 DUP3 ADD DUP5 ADD MSTORE DUP3 ADD PUSH3 0x505 JUMP JUMPDEST MLOAD SWAP1 PUSH1 0x1 PUSH1 0x1 PUSH1 0xA0 SHL SUB DUP3 AND DUP3 SUB PUSH3 0x492 JUMPI JUMP INVALID PUSH1 0x80 PUSH1 0x40 DUP2 DUP2 MSTORE PUSH1 0x4 DUP1 CALLDATASIZE LT ISZERO PUSH2 0x15 JUMPI PUSH1 0x0 DUP1 REVERT JUMPDEST PUSH1 0x0 SWAP3 DUP4 CALLDATALOAD PUSH1 0xE0 SHR SWAP1 DUP2 PUSH4 0x6FDDE03 EQ PUSH2 0xB34 JUMPI POP DUP1 PUSH4 0x95EA7B3 EQ PUSH2 0xA8B JUMPI DUP1 PUSH4 0x18160DDD EQ PUSH2 0xA6C JUMPI DUP1 PUSH4 0x23B872DD EQ PUSH2 0x98B JUMPI DUP1 PUSH4 0x313CE567 EQ PUSH2 0x94D JUMPI DUP1 PUSH4 0x42966C68 EQ PUSH2 0x8AE JUMPI DUP1 PUSH4 0x5DC96D16 EQ PUSH2 0x88A JUMPI DUP1 PUSH4 0x6A627842 EQ PUSH2 0x81D JUMPI DUP1 PUSH4 0x70A08231 EQ PUSH2 0x7E6 JUMPI DUP1 PUSH4 0x715018A6 EQ PUSH2 0x789 JUMPI DUP1 PUSH4 0x79CC6790 EQ PUSH2 0x67C JUMPI DUP1 PUSH4 0x7B2C835F EQ PUSH2 0x61A JUMPI DUP1 PUSH4 0x8DA5CB5B EQ PUSH2 0x5F1 JUMPI DUP1 PUSH4 0x95D89B41 EQ PUSH2 0x4ED JUMPI DUP1 PUSH4 0xA4F0ECD3 EQ PUSH2 0x422 JUMPI DUP1 PUSH4 0xA9059CBB EQ PUSH2 0x3F1 JUMPI DUP1 PUSH4 0xAD1329D1 EQ PUSH2 0x29D JUMPI DUP1 PUSH4 0xC45A0155 EQ PUSH2 0x259 JUMPI DUP1 PUSH4 0xD7C81B55 EQ PUSH2 0x21E JUMPI DUP1 PUSH4 0xD89135CD EQ PUSH2 0x1FF JUMPI DUP1 PUSH4 0xDD62ED3E EQ PUSH2 0x1A7 JUMPI PUSH4 0xF2FDE38B EQ PUSH2 0x115 JUMPI PUSH1 0x0 DUP1 REVERT JUMPDEST CALLVALUE PUSH2 0x1A3 JUMPI PUSH1 0x20 CALLDATASIZE PUSH1 0x3 NOT ADD SLT PUSH2 0x1A3 JUMPI PUSH2 0x12E PUSH2 0xC73 JUMP JUMPDEST SWAP1 PUSH2 0x137 PUSH2 0xCC3 JUMP JUMPDEST PUSH1 0x1 PUSH1 0x1 PUSH1 0xA0 SHL SUB SWAP2 DUP3 AND SWAP3 DUP4 ISZERO PUSH2 0x18D JUMPI POP POP PUSH1 0x5 SLOAD DUP3 PUSH12 0xFFFFFFFFFFFFFFFFFFFFFFFF PUSH1 0xA0 SHL DUP3 AND OR PUSH1 0x5 SSTORE AND PUSH32 0x8BE0079C531659141344CD1FD0A4F28419497F9722A3DAAFE3B4186F6B6457E0 DUP4 DUP1 LOG3 DUP1 RETURN JUMPDEST MLOAD PUSH4 0x1E4FBDF7 PUSH1 0xE0 SHL DUP2 MSTORE SWAP1 DUP2 ADD DUP5 SWAP1 MSTORE PUSH1 0x24 SWAP1 REVERT JUMPDEST DUP3 DUP1 REVERT JUMPDEST POP POP CALLVALUE PUSH2 0x1FB JUMPI DUP1 PUSH1 0x3 NOT CALLDATASIZE ADD SLT PUSH2 0x1FB JUMPI PUSH2 0x1C1 PUSH2 0xC73 JUMP JUMPDEST PUSH1 0x1 PUSH1 0x1 PUSH1 0xA0 SHL SUB PUSH1 0x24 CALLDATALOAD DUP2 DUP2 AND SWAP3 SWAP1 DUP4 SWAP1 SUB PUSH2 0x1F7 JUMPI SWAP2 PUSH1 0x20 SWAP5 SWAP2 DUP5 SWAP4 AND DUP3 MSTORE PUSH1 0x1 DUP6 MSTORE DUP3 DUP3 KECCAK256 SWAP1 DUP3 MSTORE DUP5 MSTORE KECCAK256 SLOAD SWAP1 MLOAD SWAP1 DUP2 MSTORE RETURN JUMPDEST DUP5 DUP1 REVERT JUMPDEST POP DUP1 REVERT JUMPDEST POP POP CALLVALUE PUSH2 0x1FB JUMPI DUP2 PUSH1 0x3 NOT CALLDATASIZE ADD SLT PUSH2 0x1FB JUMPI PUSH1 0x20 SWAP1 PUSH1 0x7 SLOAD SWAP1 MLOAD SWAP1 DUP2 MSTORE RETURN JUMPDEST POP POP CALLVALUE PUSH2 0x1FB JUMPI DUP2 PUSH1 0x3 NOT CALLDATASIZE ADD SLT PUSH2 0x1FB JUMPI PUSH1 0x20 SWAP1 MLOAD PUSH32 0x0 DUP2 MSTORE RETURN JUMPDEST POP POP CALLVALUE PUSH2 0x1FB JUMPI DUP2 PUSH1 0x3 NOT CALLDATASIZE ADD SLT PUSH2 0x1FB JUMPI MLOAD PUSH32 0x0 PUSH1 0x1 PUSH1 0x1 PUSH1 0xA0 SHL SUB AND DUP2 MSTORE PUSH1 0x20 SWAP1 RETURN JUMPDEST POP SWAP1 CALLVALUE PUSH2 0x1A3 JUMPI PUSH2 0x2AD CALLDATASIZE PUSH2 0xC8E JUMP JUMPDEST SWAP2 SWAP1 PUSH2 0x2B7 PUSH2 0xCC3 JUMP JUMPDEST PUSH1 0x1 PUSH1 0x1 PUSH1 0xA0 SHL SUB SWAP1 DUP2 AND SWAP2 DUP3 ISZERO PUSH2 0x3E1 JUMPI DUP7 SWAP4 SWAP3 SWAP2 AND DUP1 PUSH2 0x36D JUMPI POP DUP3 DUP1 SWAP3 DUP2 SWAP3 GAS CALL RETURNDATASIZE ISZERO PUSH2 0x368 JUMPI RETURNDATASIZE PUSH8 0xFFFFFFFFFFFFFFFF DUP2 GT PUSH2 0x355 JUMPI DUP3 MLOAD SWAP1 PUSH2 0x308 PUSH1 0x1F DUP3 ADD PUSH1 0x1F NOT AND PUSH1 0x20 ADD DUP4 PUSH2 0xCEF JUMP JUMPDEST DUP2 MSTORE DUP5 PUSH1 0x20 RETURNDATASIZE SWAP3 ADD RETURNDATACOPY JUMPDEST ISZERO PUSH2 0x31C JUMPI POP POP DUP1 RETURN JUMPDEST SWAP1 PUSH1 0x20 PUSH1 0x64 SWAP3 MLOAD SWAP2 PUSH3 0x461BCD PUSH1 0xE5 SHL DUP4 MSTORE DUP3 ADD MSTORE PUSH1 0x13 PUSH1 0x24 DUP3 ADD MSTORE PUSH19 0x115512081D1C985B9CD9995C8819985A5B1959 PUSH1 0x6A SHL PUSH1 0x44 DUP3 ADD MSTORE REVERT JUMPDEST PUSH4 0x4E487B71 PUSH1 0xE0 SHL DUP6 MSTORE PUSH1 0x41 DUP5 MSTORE PUSH1 0x24 DUP6 REVERT JUMPDEST PUSH2 0x312 JUMP JUMPDEST SWAP5 PUSH1 0x20 SWAP4 PUSH1 0x44 SWAP3 SWAP4 SWAP7 DUP7 MLOAD SWAP8 DUP9 SWAP6 DUP7 SWAP5 PUSH4 0xA9059CBB PUSH1 0xE0 SHL DUP7 MSTORE DUP6 ADD MSTORE PUSH1 0x24 DUP5 ADD MSTORE GAS CALL SWAP1 DUP2 ISZERO PUSH2 0x3D8 JUMPI POP PUSH2 0x3A1 JUMPI POP DUP1 RETURN JUMPDEST PUSH1 0x20 DUP2 RETURNDATASIZE DUP3 GT PUSH2 0x3D0 JUMPI JUMPDEST DUP2 PUSH2 0x3B9 PUSH1 0x20 SWAP4 DUP4 PUSH2 0xCEF JUMP JUMPDEST DUP2 ADD SUB SLT PUSH2 0x1FB JUMPI MLOAD DUP1 ISZERO ISZERO SUB PUSH2 0x3CD JUMPI DUP1 RETURN JUMPDEST DUP1 REVERT JUMPDEST RETURNDATASIZE SWAP2 POP PUSH2 0x3AC JUMP JUMPDEST MLOAD RETURNDATASIZE DUP5 DUP3 RETURNDATACOPY RETURNDATASIZE SWAP1 REVERT JUMPDEST DUP5 MLOAD PUSH4 0x1F2A2005 PUSH1 0xE0 SHL DUP2 MSTORE DUP7 SWAP1 REVERT JUMPDEST POP POP CALLVALUE PUSH2 0x1FB JUMPI DUP1 PUSH1 0x3 NOT CALLDATASIZE ADD SLT PUSH2 0x1FB JUMPI PUSH1 0x20 SWAP1 PUSH2 0x41B PUSH2 0x411 PUSH2 0xC73 JUMP JUMPDEST PUSH1 0x24 CALLDATALOAD SWAP1 CALLER PUSH2 0xD27 JUMP JUMPDEST MLOAD PUSH1 0x1 DUP2 MSTORE RETURN JUMPDEST POP SWAP1 CALLVALUE PUSH2 0x1A3 JUMPI DUP1 PUSH1 0x3 NOT CALLDATASIZE ADD SLT PUSH2 0x1A3 JUMPI PUSH2 0x43C PUSH2 0xC73 JUMP JUMPDEST PUSH1 0x24 CALLDATALOAD SWAP2 SWAP1 PUSH1 0x1 PUSH1 0x1 PUSH1 0xA0 SHL SUB SWAP1 PUSH32 0x0 DUP3 AND CALLER SUB PUSH2 0x4DD JUMPI AND SWAP3 DUP4 ISZERO PUSH2 0x4C8 JUMPI POP PUSH1 0x20 DUP3 PUSH32 0xDDF252AD1BE2C89B69C2B068FC378DAA952BA7F163C4A11628F55A4DF523B3EF SWAP3 PUSH2 0x4AE DUP8 SWAP6 PUSH1 0x2 SLOAD PUSH2 0xE05 JUMP JUMPDEST PUSH1 0x2 SSTORE DUP6 DUP6 MSTORE DUP5 DUP4 MSTORE DUP1 DUP6 KECCAK256 DUP3 DUP2 SLOAD ADD SWAP1 SSTORE MLOAD SWAP1 DUP2 MSTORE LOG3 DUP1 RETURN JUMPDEST DUP5 PUSH1 0x24 SWAP3 MLOAD SWAP2 PUSH4 0xEC442F05 PUSH1 0xE0 SHL DUP4 MSTORE DUP3 ADD MSTORE REVERT JUMPDEST DUP3 MLOAD PUSH4 0xA9C455DB PUSH1 0xE0 SHL DUP2 MSTORE DUP6 SWAP1 REVERT JUMPDEST POP SWAP2 SWAP1 CALLVALUE PUSH2 0x1FB JUMPI DUP2 PUSH1 0x3 NOT CALLDATASIZE ADD SLT PUSH2 0x1FB JUMPI DUP1 MLOAD SWAP2 DUP1 SWAP4 DUP1 SLOAD SWAP2 PUSH1 0x1 SWAP1 DUP4 DUP3 SHR SWAP3 DUP3 DUP6 AND SWAP5 DUP6 ISZERO PUSH2 0x5E7 JUMPI JUMPDEST PUSH1 0x20 SWAP6 DUP7 DUP7 LT DUP2 EQ PUSH2 0x5D4 JUMPI DUP6 DUP10 MSTORE SWAP1 DUP2 ISZERO PUSH2 0x5B0 JUMPI POP PUSH1 0x1 EQ PUSH2 0x558 JUMPI JUMPDEST PUSH2 0x554 DUP8 DUP8 PUSH2 0x54A DUP3 DUP13 SUB DUP4 PUSH2 0xCEF JUMP JUMPDEST MLOAD SWAP2 DUP3 SWAP2 DUP3 PUSH2 0xC2A JUMP JUMPDEST SUB SWAP1 RETURN JUMPDEST DUP2 MSTORE SWAP3 SWAP6 POP PUSH32 0x8A35ACFBC15FF81A39AE7D344FD709F28E8600B4AA8C65C6B64BFE7FE36BD19B JUMPDEST DUP3 DUP5 LT PUSH2 0x59D JUMPI POP POP POP DUP3 PUSH2 0x554 SWAP5 PUSH2 0x54A SWAP3 DUP3 ADD ADD SWAP5 CODESIZE DUP1 PUSH2 0x539 JUMP JUMPDEST DUP1 SLOAD DUP7 DUP6 ADD DUP9 ADD MSTORE SWAP3 DUP7 ADD SWAP3 DUP2 ADD PUSH2 0x57F JUMP JUMPDEST PUSH1 0xFF NOT AND DUP9 DUP8 ADD MSTORE POP POP POP POP ISZERO ISZERO PUSH1 0x5 SHL DUP4 ADD ADD SWAP3 POP PUSH2 0x54A DUP3 PUSH2 0x554 CODESIZE DUP1 PUSH2 0x539 JUMP JUMPDEST PUSH4 0x4E487B71 PUSH1 0xE0 SHL DUP5 MSTORE PUSH1 0x22 DUP4 MSTORE PUSH1 0x24 DUP5 REVERT JUMPDEST SWAP4 PUSH1 0x7F AND SWAP4 PUSH2 0x51A JUMP JUMPDEST POP POP CALLVALUE PUSH2 0x1FB JUMPI DUP2 PUSH1 0x3 NOT CALLDATASIZE ADD SLT PUSH2 0x1FB JUMPI PUSH1 0x5 SLOAD SWAP1 MLOAD PUSH1 0x1 PUSH1 0x1 PUSH1 0xA0 SHL SUB SWAP1 SWAP2 AND DUP2 MSTORE PUSH1 0x20 SWAP1 RETURN JUMPDEST POP CALLVALUE PUSH2 0x1A3 JUMPI PUSH1 0x20 CALLDATASIZE PUSH1 0x3 NOT ADD SLT PUSH2 0x1A3 JUMPI CALLDATALOAD SWAP1 DUP2 ISZERO ISZERO DUP1 SWAP3 SUB PUSH2 0x1A3 JUMPI PUSH32 0x1509137B40DF48E8EF9596F9DB16B632B15353D0E0688D9F23221953EB0328DD SWAP2 PUSH1 0x20 SWAP2 PUSH2 0x665 PUSH2 0xCC3 JUMP JUMPDEST PUSH1 0xFF NOT PUSH1 0x8 SLOAD AND PUSH1 0xFF DUP4 AND OR PUSH1 0x8 SSTORE MLOAD SWAP1 DUP2 MSTORE LOG1 DUP1 RETURN JUMPDEST POP SWAP1 CALLVALUE PUSH2 0x1A3 JUMPI DUP1 PUSH1 0x3 NOT CALLDATASIZE ADD SLT PUSH2 0x1A3 JUMPI PUSH2 0x696 PUSH2 0xC73 JUMP JUMPDEST PUSH1 0x24 CALLDATALOAD SWAP1 PUSH1 0x1 PUSH1 0x1 PUSH1 0xA0 SHL SUB PUSH32 0x0 DUP2 AND CALLER SUB PUSH2 0x779 JUMPI PUSH1 0xFF PUSH1 0x8 SLOAD AND ISZERO PUSH2 0x769 JUMPI PUSH2 0x6DE PUSH2 0xEC7 JUMP JUMPDEST DUP3 ISZERO PUSH2 0x759 JUMPI DUP2 AND SWAP4 DUP5 DUP7 MSTORE DUP6 PUSH1 0x20 MSTORE DUP3 DUP5 DUP8 KECCAK256 SLOAD LT PUSH2 0x74B JUMPI POP SWAP1 PUSH2 0x735 DUP2 PUSH32 0xCCBEA4088A3B7AE9CA2D15FAB9A9742A4075B4D7247768A1EECEA917565ABA00 SWAP5 SWAP4 PUSH2 0x72D DUP3 PUSH1 0x7 SLOAD PUSH2 0xE05 JUMP JUMPDEST PUSH1 0x7 SSTORE PUSH2 0xE28 JUMP JUMPDEST PUSH1 0x7 SLOAD DUP3 MLOAD SWAP2 DUP3 MSTORE PUSH1 0x20 DUP3 ADD MSTORE LOG2 PUSH1 0x1 PUSH1 0x6 SSTORE DUP1 RETURN JUMPDEST DUP4 MLOAD PUSH4 0x1E9ACF17 PUSH1 0xE3 SHL DUP2 MSTORE REVERT JUMPDEST POP POP POP MLOAD PUSH4 0x1F2A2005 PUSH1 0xE0 SHL DUP2 MSTORE REVERT JUMPDEST POP POP POP MLOAD PUSH4 0xBE20705F PUSH1 0xE0 SHL DUP2 MSTORE REVERT JUMPDEST POP POP POP MLOAD PUSH4 0xA9C455DB PUSH1 0xE0 SHL DUP2 MSTORE REVERT JUMPDEST DUP4 CALLVALUE PUSH2 0x3CD JUMPI DUP1 PUSH1 0x3 NOT CALLDATASIZE ADD SLT PUSH2 0x3CD JUMPI PUSH2 0x7A2 PUSH2 0xCC3 JUMP JUMPDEST PUSH1 0x5 DUP1 SLOAD PUSH1 0x1 PUSH1 0x1 PUSH1 0xA0 SHL SUB NOT DUP2 AND SWAP1 SWAP2 SSTORE DUP2 SWAP1 PUSH1 0x1 PUSH1 0x1 PUSH1 0xA0 SHL SUB AND PUSH32 0x8BE0079C531659141344CD1FD0A4F28419497F9722A3DAAFE3B4186F6B6457E0 DUP3 DUP1 LOG3 DUP1 RETURN JUMPDEST POP POP CALLVALUE PUSH2 0x1FB JUMPI PUSH1 0x20 CALLDATASIZE PUSH1 0x3 NOT ADD SLT PUSH2 0x1FB JUMPI PUSH1 0x20 SWAP2 DUP2 SWAP1 PUSH1 0x1 PUSH1 0x1 PUSH1 0xA0 SHL SUB PUSH2 0x80E PUSH2 0xC73 JUMP JUMPDEST AND DUP2 MSTORE DUP1 DUP5 MSTORE KECCAK256 SLOAD SWAP1 MLOAD SWAP1 DUP2 MSTORE RETURN JUMPDEST POP DUP3 CALLVALUE PUSH2 0x3CD JUMPI PUSH1 0x20 CALLDATASIZE PUSH1 0x3 NOT ADD SLT PUSH2 0x3CD JUMPI POP PUSH1 0x20 PUSH1 0x84 SWAP3 PUSH2 0x83E PUSH2 0xC73 JUMP JUMPDEST POP MLOAD PUSH3 0x461BCD PUSH1 0xE5 SHL DUP2 MSTORE SWAP2 DUP3 ADD MSTORE PUSH1 0x25 PUSH1 0x24 DUP3 ADD MSTORE PUSH32 0x4D696E742064697361626C65643A2075736520666163746F727920746F206C6F PUSH1 0x44 DUP3 ADD MSTORE PUSH5 0x636B20585 PUSH1 0xDC SHL PUSH1 0x64 DUP3 ADD MSTORE REVERT JUMPDEST POP POP CALLVALUE PUSH2 0x1FB JUMPI DUP2 PUSH1 0x3 NOT CALLDATASIZE ADD SLT PUSH2 0x1FB JUMPI PUSH1 0x20 SWAP1 PUSH1 0xFF PUSH1 0x8 SLOAD AND SWAP1 MLOAD SWAP1 ISZERO ISZERO DUP2 MSTORE RETURN JUMPDEST POP SWAP1 CALLVALUE PUSH2 0x1A3 JUMPI PUSH1 0x20 CALLDATASIZE PUSH1 0x3 NOT ADD SLT PUSH2 0x1A3 JUMPI DUP2 CALLDATALOAD SWAP2 PUSH1 0xFF PUSH1 0x8 SLOAD AND ISZERO PUSH2 0x93F JUMPI PUSH2 0x8D7 PUSH2 0xEC7 JUMP JUMPDEST DUP3 ISZERO PUSH2 0x931 JUMPI POP PUSH32 0xCCBEA4088A3B7AE9CA2D15FAB9A9742A4075B4D7247768A1EECEA917565ABA00 SWAP1 PUSH2 0x90C DUP4 PUSH1 0x7 SLOAD PUSH2 0xE05 JUMP JUMPDEST PUSH1 0x7 SSTORE PUSH2 0x919 DUP4 CALLER PUSH2 0xE28 JUMP JUMPDEST PUSH1 0x7 SLOAD DUP2 MLOAD SWAP4 DUP5 MSTORE PUSH1 0x20 DUP5 ADD MSTORE CALLER SWAP3 LOG2 PUSH1 0x1 PUSH1 0x6 SSTORE DUP1 RETURN JUMPDEST SWAP1 MLOAD PUSH4 0x1F2A2005 PUSH1 0xE0 SHL DUP2 MSTORE REVERT JUMPDEST SWAP1 MLOAD PUSH4 0xBE20705F PUSH1 0xE0 SHL DUP2 MSTORE REVERT JUMPDEST POP POP CALLVALUE PUSH2 0x1FB JUMPI DUP2 PUSH1 0x3 NOT CALLDATASIZE ADD SLT PUSH2 0x1FB JUMPI PUSH1 0x20 SWAP1 MLOAD PUSH1 0xFF PUSH32 0x0 AND DUP2 MSTORE RETURN JUMPDEST POP DUP3 SWAP1 CALLVALUE PUSH2 0x1FB JUMPI PUSH2 0x99C CALLDATASIZE PUSH2 0xC8E JUMP JUMPDEST PUSH1 0x1 PUSH1 0x1 PUSH1 0xA0 SHL SUB DUP4 AND DUP1 DUP7 MSTORE PUSH1 0x1 PUSH1 0x20 SWAP1 DUP2 MSTORE DUP8 DUP8 KECCAK256 CALLER DUP9 MSTORE SWAP1 MSTORE DUP7 DUP7 KECCAK256 SLOAD SWAP2 SWAP6 SWAP3 SWAP5 PUSH1 0x0 NOT DUP4 LT PUSH2 0x9D8 JUMPI JUMPDEST PUSH1 0x20 DUP9 PUSH2 0x41B DUP10 DUP10 DUP10 PUSH2 0xD27 JUMP JUMPDEST DUP7 DUP4 LT PUSH2 0xA40 JUMPI DUP2 ISZERO PUSH2 0xA29 JUMPI CALLER ISZERO PUSH2 0xA12 JUMPI POP DUP3 MSTORE PUSH1 0x1 PUSH1 0x20 SWAP1 DUP2 MSTORE DUP7 DUP4 KECCAK256 CALLER DUP5 MSTORE DUP2 MSTORE SWAP2 DUP7 SWAP1 KECCAK256 SWAP1 DUP6 SWAP1 SUB SWAP1 SSTORE DUP3 SWAP1 PUSH2 0x41B DUP8 PUSH2 0x9CA JUMP JUMPDEST DUP8 MLOAD PUSH4 0x4A1406B1 PUSH1 0xE1 SHL DUP2 MSTORE SWAP1 DUP2 ADD DUP5 SWAP1 MSTORE PUSH1 0x24 SWAP1 REVERT JUMPDEST DUP8 MLOAD PUSH4 0xE602DF05 PUSH1 0xE0 SHL DUP2 MSTORE SWAP1 DUP2 ADD DUP5 SWAP1 MSTORE PUSH1 0x24 SWAP1 REVERT JUMPDEST DUP8 MLOAD PUSH4 0x7DC7A0D9 PUSH1 0xE1 SHL DUP2 MSTORE CALLER SWAP2 DUP2 ADD SWAP2 DUP3 MSTORE PUSH1 0x20 DUP3 ADD SWAP4 SWAP1 SWAP4 MSTORE PUSH1 0x40 DUP2 ADD DUP8 SWAP1 MSTORE DUP3 SWAP2 POP PUSH1 0x60 ADD SUB SWAP1 REVERT JUMPDEST POP POP CALLVALUE PUSH2 0x1FB JUMPI DUP2 PUSH1 0x3 NOT CALLDATASIZE ADD SLT PUSH2 0x1FB JUMPI PUSH1 0x20 SWAP1 PUSH1 0x2 SLOAD SWAP1 MLOAD SWAP1 DUP2 MSTORE RETURN JUMPDEST POP CALLVALUE PUSH2 0x1A3 JUMPI DUP2 PUSH1 0x3 NOT CALLDATASIZE ADD SLT PUSH2 0x1A3 JUMPI PUSH2 0xAA4 PUSH2 0xC73 JUMP JUMPDEST PUSH1 0x24 CALLDATALOAD SWAP1 CALLER ISZERO PUSH2 0xB1D JUMPI PUSH1 0x1 PUSH1 0x1 PUSH1 0xA0 SHL SUB AND SWAP2 DUP3 ISZERO PUSH2 0xB06 JUMPI POP DUP1 DUP4 PUSH1 0x20 SWAP6 CALLER DUP2 MSTORE PUSH1 0x1 DUP8 MSTORE DUP2 DUP2 KECCAK256 DUP6 DUP3 MSTORE DUP8 MSTORE KECCAK256 SSTORE DUP3 MLOAD SWAP1 DUP2 MSTORE PUSH32 0x8C5BE1E5EBEC7D5BD14F71427D1E84F3DD0314C0F7B2291E5B200AC8C7C3B925 DUP5 CALLER SWAP3 LOG3 MLOAD PUSH1 0x1 DUP2 MSTORE RETURN JUMPDEST DUP4 MLOAD PUSH4 0x4A1406B1 PUSH1 0xE1 SHL DUP2 MSTORE SWAP1 DUP2 ADD DUP6 SWAP1 MSTORE PUSH1 0x24 SWAP1 REVERT JUMPDEST DUP4 MLOAD PUSH4 0xE602DF05 PUSH1 0xE0 SHL DUP2 MSTORE DUP1 DUP5 ADD DUP7 SWAP1 MSTORE PUSH1 0x24 SWAP1 REVERT JUMPDEST SWAP3 SWAP2 SWAP1 POP CALLVALUE PUSH2 0xC26 JUMPI DUP4 PUSH1 0x3 NOT CALLDATASIZE ADD SLT PUSH2 0xC26 JUMPI PUSH1 0x3 SLOAD PUSH1 0x1 DUP2 DUP2 SHR SWAP2 DUP7 SWAP1 DUP3 DUP2 AND DUP1 ISZERO PUSH2 0xC1C JUMPI JUMPDEST PUSH1 0x20 SWAP6 DUP7 DUP7 LT DUP3 EQ PUSH2 0xC09 JUMPI POP DUP5 DUP9 MSTORE SWAP1 DUP2 ISZERO PUSH2 0xBE7 JUMPI POP PUSH1 0x1 EQ PUSH2 0xB8E JUMPI JUMPDEST PUSH2 0x554 DUP7 DUP7 PUSH2 0x54A DUP3 DUP12 SUB DUP4 PUSH2 0xCEF JUMP JUMPDEST SWAP3 SWAP6 POP PUSH1 0x3 DUP4 MSTORE PUSH32 0xC2575A0E9E593C00F959F8C92F12DB2869C3395A3B0502D05E2516446F71F85B JUMPDEST DUP3 DUP5 LT PUSH2 0xBD4 JUMPI POP POP POP DUP3 PUSH2 0x554 SWAP5 PUSH2 0x54A SWAP3 DUP3 ADD ADD SWAP5 CODESIZE PUSH2 0xB7D JUMP JUMPDEST DUP1 SLOAD DUP7 DUP6 ADD DUP9 ADD MSTORE SWAP3 DUP7 ADD SWAP3 DUP2 ADD PUSH2 0xBB7 JUMP JUMPDEST PUSH1 0xFF NOT AND DUP8 DUP7 ADD MSTORE POP POP POP ISZERO ISZERO PUSH1 0x5 SHL DUP4 ADD ADD SWAP3 POP PUSH2 0x54A DUP3 PUSH2 0x554 CODESIZE PUSH2 0xB7D JUMP JUMPDEST PUSH4 0x4E487B71 PUSH1 0xE0 SHL DUP5 MSTORE PUSH1 0x22 SWAP1 MSTORE PUSH1 0x24 DUP4 REVERT JUMPDEST SWAP4 PUSH1 0x7F AND SWAP4 PUSH2 0xB5D JUMP JUMPDEST DUP4 DUP1 REVERT JUMPDEST PUSH1 0x20 DUP1 DUP3 MSTORE DUP3 MLOAD DUP2 DUP4 ADD DUP2 SWAP1 MSTORE SWAP1 SWAP4 SWAP3 PUSH1 0x0 JUMPDEST DUP3 DUP2 LT PUSH2 0xC5F JUMPI POP POP PUSH1 0x40 SWAP3 SWAP4 POP PUSH1 0x0 DUP4 DUP3 DUP5 ADD ADD MSTORE PUSH1 0x1F DUP1 NOT SWAP2 ADD AND ADD ADD SWAP1 JUMP JUMPDEST DUP2 DUP2 ADD DUP7 ADD MLOAD DUP5 DUP3 ADD PUSH1 0x40 ADD MSTORE DUP6 ADD PUSH2 0xC3D JUMP JUMPDEST PUSH1 0x4 CALLDATALOAD SWAP1 PUSH1 0x1 PUSH1 0x1 PUSH1 0xA0 SHL SUB DUP3 AND DUP3 SUB PUSH2 0xC89 JUMPI JUMP JUMPDEST PUSH1 0x0 DUP1 REVERT JUMPDEST PUSH1 0x60 SWAP1 PUSH1 0x3 NOT ADD SLT PUSH2 0xC89 JUMPI PUSH1 0x1 PUSH1 0x1 PUSH1 0xA0 SHL SUB SWAP1 PUSH1 0x4 CALLDATALOAD DUP3 DUP2 AND DUP2 SUB PUSH2 0xC89 JUMPI SWAP2 PUSH1 0x24 CALLDATALOAD SWAP1 DUP2 AND DUP2 SUB PUSH2 0xC89 JUMPI SWAP1 PUSH1 0x44 CALLDATALOAD SWAP1 JUMP JUMPDEST PUSH1 0x5 SLOAD PUSH1 0x1 PUSH1 0x1 PUSH1 0xA0 SHL SUB AND CALLER SUB PUSH2 0xCD7 JUMPI JUMP JUMPDEST PUSH1 0x40 MLOAD PUSH4 0x118CDAA7 PUSH1 0xE0 SHL DUP2 MSTORE CALLER PUSH1 0x4 DUP3 ADD MSTORE PUSH1 0x24 SWAP1 REVERT JUMPDEST SWAP1 PUSH1 0x1F DUP1 NOT SWAP2 ADD AND DUP2 ADD SWAP1 DUP2 LT PUSH8 0xFFFFFFFFFFFFFFFF DUP3 GT OR PUSH2 0xD11 JUMPI PUSH1 0x40 MSTORE JUMP JUMPDEST PUSH4 0x4E487B71 PUSH1 0xE0 SHL PUSH1 0x0 MSTORE PUSH1 0x41 PUSH1 0x4 MSTORE PUSH1 0x24 PUSH1 0x0 REVERT JUMPDEST SWAP2 PUSH1 0x1 PUSH1 0x1 PUSH1 0xA0 SHL SUB DUP1 DUP5 AND SWAP3 DUP4 ISZERO PUSH2 0xDEC JUMPI AND SWAP3 DUP4 ISZERO PUSH2 0xDD3 JUMPI PUSH1 0x0 SWAP1 DUP4 DUP3 MSTORE DUP2 PUSH1 0x20 MSTORE PUSH1 0x40 DUP3 KECCAK256 SLOAD SWAP1 DUP4 DUP3 LT PUSH2 0xDA1 JUMPI POP SWAP2 PUSH1 0x40 DUP3 DUP3 PUSH32 0xDDF252AD1BE2C89B69C2B068FC378DAA952BA7F163C4A11628F55A4DF523B3EF SWAP6 DUP8 PUSH1 0x20 SWAP7 MSTORE DUP3 DUP7 MSTORE SUB DUP3 DUP3 KECCAK256 SSTORE DUP7 DUP2 MSTORE KECCAK256 DUP2 DUP2 SLOAD ADD SWAP1 SSTORE PUSH1 0x40 MLOAD SWAP1 DUP2 MSTORE LOG3 JUMP JUMPDEST PUSH1 0x40 MLOAD PUSH4 0x391434E3 PUSH1 0xE2 SHL DUP2 MSTORE PUSH1 0x1 PUSH1 0x1 PUSH1 0xA0 SHL SUB SWAP2 SWAP1 SWAP2 AND PUSH1 0x4 DUP3 ADD MSTORE PUSH1 0x24 DUP2 ADD SWAP2 SWAP1 SWAP2 MSTORE PUSH1 0x44 DUP2 ADD DUP4 SWAP1 MSTORE PUSH1 0x64 SWAP1 REVERT JUMPDEST PUSH1 0x40 MLOAD PUSH4 0xEC442F05 PUSH1 0xE0 SHL DUP2 MSTORE PUSH1 0x0 PUSH1 0x4 DUP3 ADD MSTORE PUSH1 0x24 SWAP1 REVERT JUMPDEST PUSH1 0x40 MLOAD PUSH4 0x4B637E8F PUSH1 0xE1 SHL DUP2 MSTORE PUSH1 0x0 PUSH1 0x4 DUP3 ADD MSTORE PUSH1 0x24 SWAP1 REVERT JUMPDEST SWAP2 SWAP1 DUP3 ADD DUP1 SWAP3 GT PUSH2 0xE12 JUMPI JUMP JUMPDEST PUSH4 0x4E487B71 PUSH1 0xE0 SHL PUSH1 0x0 MSTORE PUSH1 0x11 PUSH1 0x4 MSTORE PUSH1 0x24 PUSH1 0x0 REVERT JUMPDEST SWAP1 PUSH1 0x1 PUSH1 0x1 PUSH1 0xA0 SHL SUB DUP3 AND SWAP1 DUP2 ISZERO PUSH2 0xDEC JUMPI PUSH1 0x0 SWAP3 DUP3 DUP5 MSTORE DUP4 PUSH1 0x20 MSTORE PUSH1 0x40 DUP5 KECCAK256 SLOAD SWAP1 DUP3 DUP3 LT PUSH2 0xE95 JUMPI POP DUP2 PUSH32 0xDDF252AD1BE2C89B69C2B068FC378DAA952BA7F163C4A11628F55A4DF523B3EF SWAP3 PUSH1 0x20 SWAP3 DUP6 DUP8 MSTORE DUP7 DUP5 MSTORE SUB PUSH1 0x40 DUP7 KECCAK256 SSTORE DUP1 PUSH1 0x2 SLOAD SUB PUSH1 0x2 SSTORE PUSH1 0x40 MLOAD SWAP1 DUP2 MSTORE LOG3 JUMP JUMPDEST PUSH1 0x40 MLOAD PUSH4 0x391434E3 PUSH1 0xE2 SHL DUP2 MSTORE PUSH1 0x1 PUSH1 0x1 PUSH1 0xA0 SHL SUB SWAP2 SWAP1 SWAP2 AND PUSH1 0x4 DUP3 ADD MSTORE PUSH1 0x24 DUP2 ADD SWAP2 SWAP1 SWAP2 MSTORE PUSH1 0x44 DUP2 ADD DUP3 SWAP1 MSTORE PUSH1 0x64 SWAP1 REVERT JUMPDEST PUSH1 0x2 PUSH1 0x6 SLOAD EQ PUSH2 0xED8 JUMPI PUSH1 0x2 PUSH1 0x6 SSTORE JUMP JUMPDEST PUSH1 0x40 MLOAD PUSH4 0x3EE5AEB5 PUSH1 0xE0 SHL DUP2 MSTORE PUSH1 0x4 SWAP1 REVERT INVALID LOG2 PUSH5 0x6970667358 0x22 SLT KECCAK256 EXP 0xF6 EXTCODESIZE 0xDD 0xEA ADD 0xAD JUMP PREVRANDAO 0xF6 0x26 SWAP16 LOG4 PUSH20 0xF9A356F219B1D5D3BBAAE1183008305417CB6473 PUSH16 0x6C634300081400330000000000000000 "},"methodIdentifiers":{"allowance(address,address)":"dd62ed3e","approve(address,uint256)":"095ea7b3","balanceOf(address)":"70a08231","burn(uint256)":"42966c68","burnEnabled()":"5dc96d16","burnFrom(address,uint256)":"79cc6790","decimals()":"313ce567","emergencyRecover(address,address,uint256)":"ad1329d1","factory()":"c45a0155","factoryMint(address,uint256)":"a4f0ecd3","gameId()":"d7c81b55","mint(address)":"6a627842","name()":"06fdde03","owner()":"8da5cb5b","renounceOwnership()":"715018a6","setBurnEnabled(bool)":"7b2c835f","symbol()":"95d89b41","totalBurned()":"d89135cd","totalSupply()":"18160ddd","transfer(address,uint256)":"a9059cbb","transferFrom(address,address,uint256)":"23b872dd","transferOwnership(address)":"f2fde38b"}}}}}