{"contracts/GameToken.sol":{"GameToken":{"abi":[{"inputs":[{"internalType":"string","name":"name","type":"string"},{"internalType":"string","name":"symbol","type":"string"},{"internalType":"uint8","name":"decimals_","type":"uint8"},{"internalType":"uint256","name":"initialSupply","type":"uint256"},{"internalType":"address","name":"owner","type":"address"},{"internalType":"address","name":"factory_","type":"address"},{"internalType":"uint256","name":"gameId_","type":"uint256"}],"stateMutability":"nonpayable","type":"constructor"},{"inputs":[{"internalType":"string","name":"reason","type":"string"}],"name":"BurnDisabled","type":"error"},{"inputs":[{"internalType":"address","name":"from","type":"address"},{"internalType":"uint256","name":"amount","type":"uint256"},{"internalType":"string","name":"reason","type":"string"}],"name":"BurningOperationFailed","type":"error"},{"inputs":[],"name":"ContractPaused","type":"error"},{"inputs":[{"internalType":"address","name":"spender","type":"address"},{"internalType":"uint256","name":"allowance","type":"uint256"},{"internalType":"uint256","name":"needed","type":"uint256"}],"name":"ERC20InsufficientAllowance","type":"error"},{"inputs":[{"internalType":"address","name":"sender","type":"address"},{"internalType":"uint256","name":"balance","type":"uint256"},{"internalType":"uint256","name":"needed","type":"uint256"}],"name":"ERC20InsufficientBalance","type":"error"},{"inputs":[{"internalType":"address","name":"approver","type":"address"}],"name":"ERC20InvalidApprover","type":"error"},{"inputs":[{"internalType":"address","name":"receiver","type":"address"}],"name":"ERC20InvalidReceiver","type":"error"},{"inputs":[{"internalType":"address","name":"sender","type":"address"}],"name":"ERC20InvalidSender","type":"error"},{"inputs":[{"internalType":"address","name":"spender","type":"address"}],"name":"ERC20InvalidSpender","type":"error"},{"inputs":[{"internalType":"uint256","name":"requested","type":"uint256"},{"internalType":"uint256","name":"maxAllowed","type":"uint256"}],"name":"ExcessiveBurnRequest","type":"error"},{"inputs":[{"internalType":"uint256","name":"gameId","type":"uint256"}],"name":"GameTokenInactive","type":"error"},{"inputs":[{"internalType":"address","name":"account","type":"address"},{"internalType":"uint256","name":"required","type":"uint256"},{"internalType":"uint256","name":"available","type":"uint256"}],"name":"InsufficientBalance","type":"error"},{"inputs":[{"internalType":"address","name":"provided","type":"address"},{"internalType":"string","name":"reason","type":"string"}],"name":"InvalidAddress","type":"error"},{"inputs":[{"internalType":"uint256","name":"provided","type":"uint256"},{"internalType":"uint256","name":"min","type":"uint256"},{"internalType":"uint256","name":"max","type":"uint256"}],"name":"InvalidAmount","type":"error"},{"inputs":[{"internalType":"uint256","name":"amount","type":"uint256"},{"internalType":"string","name":"reason","type":"string"}],"name":"InvalidBurnAmount","type":"error"},{"inputs":[{"internalType":"string","name":"reason","type":"string"}],"name":"InvalidContractState","type":"error"},{"inputs":[{"internalType":"string","name":"operation","type":"string"},{"internalType":"string","name":"reason","type":"string"}],"name":"InvalidGameOperation","type":"error"},{"inputs":[{"internalType":"address","name":"target","type":"address"}],"name":"InvalidRecoveryTarget","type":"error"},{"inputs":[{"internalType":"string","name":"operation","type":"string"}],"name":"MathOverflow","type":"error"},{"inputs":[{"internalType":"string","name":"operation","type":"string"}],"name":"MathUnderflow","type":"error"},{"inputs":[{"internalType":"string","name":"reason","type":"string"}],"name":"MintingDisabledAfterInit","type":"error"},{"inputs":[{"internalType":"address","name":"owner","type":"address"}],"name":"OwnableInvalidOwner","type":"error"},{"inputs":[{"internalType":"address","name":"account","type":"address"}],"name":"OwnableUnauthorizedAccount","type":"error"},{"inputs":[{"internalType":"address","name":"token","type":"address"},{"internalType":"string","name":"reason","type":"string"}],"name":"RecoveryFailed","type":"error"},{"inputs":[{"internalType":"string","name":"reason","type":"string"}],"name":"RecoveryNotAllowed","type":"error"},{"inputs":[],"name":"ReentrancyDetected","type":"error"},{"inputs":[],"name":"ReentrancyGuardReentrantCall","type":"error"},{"inputs":[{"internalType":"address","name":"from","type":"address"},{"internalType":"address","name":"to","type":"address"},{"internalType":"uint256","name":"amount","type":"uint256"}],"name":"TransferOperationFailed","type":"error"},{"inputs":[{"internalType":"address","name":"caller","type":"address"}],"name":"UnauthorizedBurner","type":"error"},{"inputs":[{"internalType":"address","name":"caller","type":"address"},{"internalType":"address","name":"expectedFactory","type":"address"}],"name":"UnauthorizedFactory","type":"error"},{"inputs":[{"internalType":"address","name":"caller","type":"address"},{"internalType":"address","name":"expectedOwner","type":"address"}],"name":"UnauthorizedOwner","type":"error"},{"inputs":[],"name":"ZeroAddress","type":"error"},{"inputs":[],"name":"ZeroAmount","type":"error"},{"anonymous":false,"inputs":[{"indexed":true,"internalType":"address","name":"owner","type":"address"},{"indexed":true,"internalType":"address","name":"spender","type":"address"},{"indexed":false,"internalType":"uint256","name":"value","type":"uint256"}],"name":"Approval","type":"event"},{"anonymous":false,"inputs":[{"indexed":false,"internalType":"bool","name":"enabled","type":"bool"}],"name":"BurnStatusChanged","type":"event"},{"anonymous":false,"inputs":[{"indexed":true,"internalType":"address","name":"previousOwner","type":"address"},{"indexed":true,"internalType":"address","name":"newOwner","type":"address"}],"name":"OwnershipTransferred","type":"event"},{"anonymous":false,"inputs":[{"indexed":true,"internalType":"address","name":"user","type":"address"},{"indexed":false,"internalType":"uint256","name":"amount","type":"uint256"},{"indexed":false,"internalType":"uint256","name":"totalBurned","type":"uint256"}],"name":"TokensBurned","type":"event"},{"anonymous":false,"inputs":[{"indexed":true,"internalType":"address","name":"from","type":"address"},{"indexed":true,"internalType":"address","name":"to","type":"address"},{"indexed":false,"internalType":"uint256","name":"value","type":"uint256"}],"name":"Transfer","type":"event"},{"inputs":[{"internalType":"address","name":"from","type":"address"},{"internalType":"uint256","name":"amount","type":"uint256"}],"name":"_performBurn","outputs":[],"stateMutability":"nonpayable","type":"function"},{"inputs":[{"internalType":"address","name":"owner","type":"address"},{"internalType":"address","name":"spender","type":"address"}],"name":"allowance","outputs":[{"internalType":"uint256","name":"","type":"uint256"}],"stateMutability":"view","type":"function"},{"inputs":[{"internalType":"address","name":"spender","type":"address"},{"internalType":"uint256","name":"value","type":"uint256"}],"name":"approve","outputs":[{"internalType":"bool","name":"","type":"bool"}],"stateMutability":"nonpayable","type":"function"},{"inputs":[{"internalType":"address","name":"account","type":"address"}],"name":"balanceOf","outputs":[{"internalType":"uint256","name":"","type":"uint256"}],"stateMutability":"view","type":"function"},{"inputs":[{"internalType":"uint256","name":"amount","type":"uint256"}],"name":"burn","outputs":[],"stateMutability":"nonpayable","type":"function"},{"inputs":[],"name":"burnEnabled","outputs":[{"internalType":"bool","name":"","type":"bool"}],"stateMutability":"view","type":"function"},{"inputs":[{"internalType":"address","name":"from","type":"address"},{"internalType":"uint256","name":"amount","type":"uint256"}],"name":"burnFrom","outputs":[],"stateMutability":"nonpayable","type":"function"},{"inputs":[],"name":"decimals","outputs":[{"internalType":"uint8","name":"","type":"uint8"}],"stateMutability":"view","type":"function"},{"inputs":[{"internalType":"address","name":"token","type":"address"},{"internalType":"address","name":"to","type":"address"},{"internalType":"uint256","name":"amount","type":"uint256"}],"name":"emergencyRecover","outputs":[],"stateMutability":"nonpayable","type":"function"},{"inputs":[],"name":"factory","outputs":[{"internalType":"address","name":"","type":"address"}],"stateMutability":"view","type":"function"},{"inputs":[{"internalType":"address","name":"to","type":"address"},{"internalType":"uint256","name":"amount","type":"uint256"}],"name":"factoryMint","outputs":[],"stateMutability":"nonpayable","type":"function"},{"inputs":[],"name":"gameId","outputs":[{"internalType":"uint256","name":"","type":"uint256"}],"stateMutability":"view","type":"function"},{"inputs":[{"internalType":"address","name":"","type":"address"}],"name":"mint","outputs":[],"stateMutability":"pure","type":"function"},{"inputs":[],"name":"name","outputs":[{"internalType":"string","name":"","type":"string"}],"stateMutability":"view","type":"function"},{"inputs":[],"name":"owner","outputs":[{"internalType":"address","name":"","type":"address"}],"stateMutability":"view","type":"function"},{"inputs":[],"name":"renounceOwnership","outputs":[],"stateMutability":"nonpayable","type":"function"},{"inputs":[{"internalType":"bool","name":"enabled","type":"bool"}],"name":"setBurnEnabled","outputs":[],"stateMutability":"nonpayable","type":"function"},{"inputs":[],"name":"symbol","outputs":[{"internalType":"string","name":"","type":"string"}],"stateMutability":"view","type":"function"},{"inputs":[],"name":"totalBurned","outputs":[{"internalType":"uint256","name":"","type":"uint256"}],"stateMutability":"view","type":"function"},{"inputs":[],"name":"totalSupply","outputs":[{"internalType":"uint256","name":"","type":"uint256"}],"stateMutability":"view","type":"function"},{"inputs":[{"internalType":"address","name":"to","type":"address"},{"internalType":"uint256","name":"value","type":"uint256"}],"name":"transfer","outputs":[{"internalType":"bool","name":"","type":"bool"}],"stateMutability":"nonpayable","type":"function"},{"inputs":[{"internalType":"address","name":"from","type":"address"},{"internalType":"address","name":"to","type":"address"},{"internalType":"uint256","name":"value","type":"uint256"}],"name":"transferFrom","outputs":[{"internalType":"bool","name":"","type":"bool"}],"stateMutability":"nonpayable","type":"function"},{"inputs":[{"internalType":"address","name":"newOwner","type":"address"}],"name":"transferOwnership","outputs":[],"stateMutability":"nonpayable","type":"function"}],"evm":{"bytecode":{"linkReferences":{},"object":"604060e08152346200064c5762001adb803803806200001e8162000651565b92833981019060e0818303126200064c5780516001600160401b0381116200064c57826200004e91830162000677565b602082015190926001600160401b0382116200064c576200007191830162000677565b838201519160ff831683036200064c576060810151926200009560808301620006e9565b60c0620000a560a08501620006e9565b93015186519094906001600160401b0381116200052a57600354600181811c9116801562000641575b60208210146200050957601f8111620005d7575b50806020601f82116001146200054c5760009162000540575b508160011b916000199060031b1c1916176003555b80516001600160401b0381116200052a57600454600181811c911680156200051f575b60208210146200050957601f81116200049f575b50806020601f8211600114620004155760009162000409575b508160011b916000199060031b1c1916176004555b6001600160a01b03918216968715620003f157600580546001600160a01b031981168a1790915589519190899085167f8be0079c531659141344cd1fd0a4f28419497f9722a3daafe3b4186f6b6457e0600080a36001600655600160ff1960085416176008555115620003a7575051156200035b57821680156200034a57601260ff8316116200032257841562000311578514620002c05760805260a05260c05260025490808201809211620002aa5760207fddf252ad1be2c89b69c2b068fc378daa952ba7f163c4a11628f55a4df523b3ef916000936002558484528382528584208181540190558551908152a361010061ff00196008541617600855516113dc9081620006ff823960805181610dbd015260a05181818161039d01528181610592015261080c015260c051816103650152f35b634e487b7160e01b600052601160045260246000fd5b855163313b9aa160e21b8152602060048201526024808201527f4f776e657220616e6420666163746f72792063616e6e6f74206265207468652060448201526373616d6560e01b6064820152608490fd5b8651631f2a200560e01b8152600490fd5b86516346f4384b60e01b815260ff831660048201526000602482015260126044820152606490fd5b865163d92e233d60e01b8152600490fd5b865163f7693c3d60e01b81526000600482015260248101889052601c60448201527f546f6b656e2073796d626f6c2063616e6e6f7420626520656d707479000000006064820152608490fd5b63f7693c3d60e01b81526000600482015260248101899052601a60448201527f546f6b656e206e616d652063616e6e6f7420626520656d7074790000000000006064820152608490fd5b8851631e4fbdf760e01b815260006004820152602490fd5b90508201513862000160565b6004600090815292507f8a35acfbc15ff81a39ae7d344fd709f28e8600b4aa8c65c6b64bfe7fe36bd19b905b601f198316841062000486576001935082601f198116106200046c575b5050811b0160045562000175565b84015160001960f88460031b161c1916905538806200045e565b8481015182556020938401936001909201910162000441565b60046000527f8a35acfbc15ff81a39ae7d344fd709f28e8600b4aa8c65c6b64bfe7fe36bd19b601f830160051c81019160208410620004fe575b601f0160051c01905b818110620004f1575062000147565b60008155600101620004e2565b9091508190620004d9565b634e487b7160e01b600052602260045260246000fd5b90607f169062000133565b634e487b7160e01b600052604160045260246000fd5b905088015138620000fb565b6003600090815292507fc2575a0e9e593c00f959f8c92f12db2869c3395a3b0502d05e2516446f71f85b905b8a601f1984168510620005bf57506001935082601f19811610620005a5575b5050811b0160035562000110565b8a015160001960f88460031b161c19169055388062000597565b81015182556020938401936001909201910162000578565b60036000527fc2575a0e9e593c00f959f8c92f12db2869c3395a3b0502d05e2516446f71f85b601f830160051c8101916020841062000636575b601f0160051c01905b818110620006295750620000e2565b600081556001016200061a565b909150819062000611565b90607f1690620000ce565b600080fd5b6040519190601f01601f191682016001600160401b038111838210176200052a57604052565b919080601f840112156200064c5782516001600160401b0381116200052a57602090620006ad601f8201601f1916830162000651565b928184528282870101116200064c5760005b818110620006d557508260009394955001015290565b8581018301518482018401528201620006bf565b51906001600160a01b03821682036200064c5756fe608060409080825260048036101561001657600080fd5b600091823560e01c90816306fdde0314610f8a57508063095ea7b314610edf57806318160ddd14610ec057806323b872dd14610de1578063313ce56714610da357806342966c6814610bd75780635dc96d1614610bb35780636a62784214610b4657806370a0823114610b0f578063715018a614610ab157806379cc6790146107e35780637b2c835f1461077f5780638da5cb5b1461075657806395d89b411461063a578063a4f0ecd314610568578063a9059cbb14610537578063ad1329d1146103cc578063c45a015514610388578063d7c81b551461034d578063d89135cd1461032e578063dd62ed3e146102d7578063f2fde38b146102415763f658f32a1461012157600080fd5b3461023d578260031936011261023d576101396110be565b9060243590303303610201576001600160a01b0383169283156101ea578360005260006020528560002054918383106101b257856000867fddf252ad1be2c89b69c2b068fc378daa952ba7f163c4a11628f55a4df523b3ef6020888c818a8688528785520381872055816002540360025551908152a380f35b865163391434e360e21b81526001600160a01b03909216908201908152602081018390526040810184905281906060010390fd5b0390fd5b8551634b637e8f60e11b8152808301869052602490fd5b606490602086519162461bcd60e51b8352820152601660248201527513db9b1e481cd95b198b58d85b1b08185b1b1bddd95960521b6044820152fd5b5080fd5b508290346102d35760203660031901126102d35761025d6110be565b90610266611109565b6001600160a01b039182169283156102bd575050600554826bffffffffffffffffffffffff60a01b821617600555167f8be0079c531659141344cd1fd0a4f28419497f9722a3daafe3b4186f6b6457e0600080a380f35b51631e4fbdf760e01b8152908101849052602490fd5b8280fd5b82843461023d578060031936011261023d576102f16110be565b6001600160a01b0392602435848116929190839003610329576020948492168152600185522090600052825280600020549051908152f35b600080fd5b82843461023d578160031936011261023d576020906007549051908152f35b82843461023d578160031936011261023d57602090517f00000000000000000000000000000000000000000000000000000000000000008152f35b82843461023d578160031936011261023d57517f00000000000000000000000000000000000000000000000000000000000000006001600160a01b03168152602090f35b5082346102d3576103dc366110d4565b91906103e6611109565b6001600160a01b0381811692831561052757879493929116908161049f57505082809281925af13d1561049a573d67ffffffffffffffff81116104875782519061043a601f8201601f19166020018361115f565b81528460203d92013e5b1561044e57505080f35b906020606492519162461bcd60e51b83528201526013602482015272115512081d1c985b9cd9995c8819985a5b1959606a1b6044820152fd5b634e487b7160e01b855260418452602485fd5b610444565b855163a9059cbb60e01b81526001600160a01b03919091169681019687526020808801949094529592938693849003604001925083915af190811561051e57506104e7575080f35b6020813d8211610516575b816104ff6020938361115f565b8101031261023d5751801515036105135780f35b80fd5b3d91506104f2565b513d84823e3d90fd5b855163d92e233d60e01b81528790fd5b82843461023d578060031936011261023d576020906105616105576110be565b6024359033611181565b5160018152f35b5082346102d357806003193601126102d3576105826110be565b60243591906001600160a01b03907f000000000000000000000000000000000000000000000000000000000000000082163303610624571692831561060f57506020827fddf252ad1be2c89b69c2b068fc378daa952ba7f163c4a11628f55a4df523b3ef926105f560009560025461125f565b60025585855284835280852082815401905551908152a380f35b84602492519163ec442f0560e01b8352820152fd5b8251635936416f60e01b81523381870152602490fd5b5091903461051357806003193601126105135781519181845492600184811c9181861695861561074c575b6020968785108114610739579087899a92868b999a9b52918260001461070f5750506001146106b4575b85886106b0896106a1848a038561115f565b5192828493845283019061107e565b0390f35b815286935091907f8a35acfbc15ff81a39ae7d344fd709f28e8600b4aa8c65c6b64bfe7fe36bd19b5b8284106106f757505050820101816106a16106b03861068f565b8054848a0186015288955087949093019281016106dd565b60ff19168882015294151560051b870190940194508593506106a192506106b0915038905061068f565b634e487b7160e01b835260228a52602483fd5b92607f1692610665565b82843461023d578160031936011261023d5760055490516001600160a01b039091168152602090f35b508290346102d35760203660031901126102d35735908115158092036102d3577f1509137b40df48e8ef9596f9db16b632b15353d0e0688d9f23221953eb0328dd916020916107cc611109565b60ff196008541660ff83161760085551908152a180f35b5082346102d357806003193601126102d3576107fd6110be565b92602435906001600160a01b037f000000000000000000000000000000000000000000000000000000000000000081163303610a9b5760ff6008541615610a5957610846611383565b85168015610a49578215610a39578082528160205283822054838110610a0757506002548084116109eb57600a90048311610994576108878360075461125f565b600755303b1561023d578351637b2c799560e11b81526001600160a01b038716868201908152602081018590528390819083908190604001038183305af19182610980575b50506109475750506108dc611282565b6308c379a01461090d575b6101e6916108f782600754611312565b5051631e764bc560e31b81529384938401611343565b6109156112a0565b8061092057506108e7565b906101e69261093182600754611312565b5051631e764bc560e31b8152948594850161131f565b7fccbea4088a3b7ae9ca2d15fab9a9742a4075b4d7247768a1eecea917565aba00848460075482519182526020820152a2600160065580f35b61098990611135565b6102d35782886108cc565b505060a493508151926333be48f560e21b84528301526024820152602460448201527f45786365656473206d6178696d756d206275726e20706572207472616e7361636064820152633a34b7b760e11b6084820152fd5b8560449185875192631ee970cd60e31b84528301526024820152fd5b935163db42144d60e01b81526001600160a01b0390961694860194855250506020830152604082015281906060010390fd5b50505051631f2a200560e01b8152fd5b5050505163d92e233d60e01b8152fd5b8351630eb8953f60e01b8152602081870181815260139181019190915272109d5c9b9a5b99c81a5cc8191a5cd8589b1959606a1b604082015281906060010390fd5b8351635936416f60e01b81523381870152602490fd5b8234610513578060031936011261051357610aca611109565b600580546001600160a01b031981169091556000906001600160a01b03167f8be0079c531659141344cd1fd0a4f28419497f9722a3daafe3b4186f6b6457e08280a380f35b82843461023d57602036600319011261023d5760209181906001600160a01b03610b376110be565b16815280845220549051908152f35b50903461051357602036600319011261051357506020608492610b676110be565b505162461bcd60e51b815291820152602560248201527f4d696e742064697361626c65643a2075736520666163746f727920746f206c6f6044820152640636b2058560dc1b6064820152fd5b82843461023d578160031936011261023d5760209060ff6008541690519015158152f35b5082346102d35760203660031901126102d35781359260ff6008541615610d6157610c00611383565b8315610d53573381528060205281812054848110610d295750610c258460075461125f565b600755303b15610513578151637b2c799560e11b81523384820190815260208101869052909190819083908190604001038183305af19182610d1a575b5090610cdf5750610c71611282565b6308c379a014610ca4575b6101e690610c8c84600754611312565b5051631e764bc560e31b815292839233908401611343565b610cac6112a0565b80610cb75750610c7c565b6101e691610cc785600754611312565b5051631e764bc560e31b81529384933390850161131f565b837fccbea4088a3b7ae9ca2d15fab9a9742a4075b4d7247768a1eecea917565aba0083600754815193845260208401523392a2600160065580f35b610d2390611135565b85610c62565b915163db42144d60e01b815233938101938452602084019490945250604082015281906060010390fd5b5051631f2a200560e01b8152fd5b8151630eb8953f60e01b8152602081850181815260139181019190915272109d5c9b9a5b99c81a5cc8191a5cd8589b1959606a1b604082015281906060010390fd5b82843461023d578160031936011261023d576020905160ff7f0000000000000000000000000000000000000000000000000000000000000000168152f35b503461023d57610df0366110d4565b6001600160a01b03831680865260016020908152878720338852905286862054919592946000198310610e2c575b602088610561898989611181565b868310610e94578115610e7d573315610e665750825260016020908152868320338452815291869020908590039055829061056138610e1e565b8751634a1406b160e11b8152908101849052602490fd5b875163e602df0560e01b8152908101849052602490fd5b8751637dc7a0d960e11b8152339181019182526020820193909352604081018790528291506060010390fd5b82843461023d578160031936011261023d576020906002549051908152f35b508290346102d357816003193601126102d357610efa6110be565b602435903315610f73576001600160a01b0316918215610f5c57508083602095338152600187528181208582528752205582519081527f8c5be1e5ebec7d5bd14f71427d1e84f3dd0314c0f7b2291e5b200ac8c7c3b925843392a35160018152f35b8351634a1406b160e11b8152908101859052602490fd5b835163e602df0560e01b8152808401869052602490fd5b905082843461023d578160031936011261023d578160035492600184811c91818616958615611074575b6020968785108114610739578899509688969785829a52918260001461104d575050600114610ff1575b5050506106b092916106a191038561115f565b9190869350600383527fc2575a0e9e593c00f959f8c92f12db2869c3395a3b0502d05e2516446f71f85b5b82841061103557505050820101816106a16106b0610fde565b8054848a01860152889550879490930192810161101c565b60ff19168782015293151560051b860190930193508492506106a191506106b09050610fde565b92607f1692610fb4565b919082519283825260005b8481106110aa575050826000602080949584010152601f8019910116010190565b602081830181015184830182015201611089565b600435906001600160a01b038216820361032957565b6060906003190112610329576001600160a01b0390600435828116810361032957916024359081168103610329579060443590565b6005546001600160a01b0316330361111d57565b60405163118cdaa760e01b8152336004820152602490fd5b67ffffffffffffffff811161114957604052565b634e487b7160e01b600052604160045260246000fd5b90601f8019910116810190811067ffffffffffffffff82111761114957604052565b916001600160a01b03808416928315611246571692831561122d57600090838252816020526040822054908382106111fb575091604082827fddf252ad1be2c89b69c2b068fc378daa952ba7f163c4a11628f55a4df523b3ef958760209652828652038282205586815220818154019055604051908152a3565b60405163391434e360e21b81526001600160a01b03919091166004820152602481019190915260448101839052606490fd5b60405163ec442f0560e01b815260006004820152602490fd5b604051634b637e8f60e11b815260006004820152602490fd5b9190820180921161126c57565b634e487b7160e01b600052601160045260246000fd5b60009060033d1161128f57565b905060046000803e60005160e01c90565b600060443d106112fe57604051600319913d83016004833e815167ffffffffffffffff918282113d60248401111761130157818401948551938411611309573d8501016020848701011161130157506112fe9291016020019061115f565b90565b949350505050565b50949350505050565b9190820391821161126c57565b6112fe939260609260018060a01b031682526020820152816040820152019061107e565b909160a092600180851b0316825260208201526060604082015260126060820152712ab735b737bbb710313ab9371032b93937b960711b60808201520190565b600260065414611394576002600655565b604051633ee5aeb560e01b8152600490fdfea2646970667358221220cd711da2a8cbe2259ca40fd30fa7084f8aa4a846e6d0d61a8dcd331080b5da0b64736f6c63430008140033","opcodes":"PUSH1 0x40 PUSH1 0xE0 DUP2 MSTORE CALLVALUE PUSH3 0x64C JUMPI PUSH3 0x1ADB DUP1 CODESIZE SUB DUP1 PUSH3 0x1E DUP2 PUSH3 0x651 JUMP JUMPDEST SWAP3 DUP4 CODECOPY DUP2 ADD SWAP1 PUSH1 0xE0 DUP2 DUP4 SUB SLT PUSH3 0x64C JUMPI DUP1 MLOAD PUSH1 0x1 PUSH1 0x1 PUSH1 0x40 SHL SUB DUP2 GT PUSH3 0x64C JUMPI DUP3 PUSH3 0x4E SWAP2 DUP4 ADD PUSH3 0x677 JUMP JUMPDEST PUSH1 0x20 DUP3 ADD MLOAD SWAP1 SWAP3 PUSH1 0x1 PUSH1 0x1 PUSH1 0x40 SHL SUB DUP3 GT PUSH3 0x64C JUMPI PUSH3 0x71 SWAP2 DUP4 ADD PUSH3 0x677 JUMP JUMPDEST DUP4 DUP3 ADD MLOAD SWAP2 PUSH1 0xFF DUP4 AND DUP4 SUB PUSH3 0x64C JUMPI PUSH1 0x60 DUP2 ADD MLOAD SWAP3 PUSH3 0x95 PUSH1 0x80 DUP4 ADD PUSH3 0x6E9 JUMP JUMPDEST PUSH1 0xC0 PUSH3 0xA5 PUSH1 0xA0 DUP6 ADD PUSH3 0x6E9 JUMP JUMPDEST SWAP4 ADD MLOAD DUP7 MLOAD SWAP1 SWAP5 SWAP1 PUSH1 0x1 PUSH1 0x1 PUSH1 0x40 SHL SUB DUP2 GT PUSH3 0x52A JUMPI PUSH1 0x3 SLOAD PUSH1 0x1 DUP2 DUP2 SHR SWAP2 AND DUP1 ISZERO PUSH3 0x641 JUMPI JUMPDEST PUSH1 0x20 DUP3 LT EQ PUSH3 0x509 JUMPI PUSH1 0x1F DUP2 GT PUSH3 0x5D7 JUMPI JUMPDEST POP DUP1 PUSH1 0x20 PUSH1 0x1F DUP3 GT PUSH1 0x1 EQ PUSH3 0x54C JUMPI PUSH1 0x0 SWAP2 PUSH3 0x540 JUMPI JUMPDEST POP DUP2 PUSH1 0x1 SHL SWAP2 PUSH1 0x0 NOT SWAP1 PUSH1 0x3 SHL SHR NOT AND OR PUSH1 0x3 SSTORE JUMPDEST DUP1 MLOAD PUSH1 0x1 PUSH1 0x1 PUSH1 0x40 SHL SUB DUP2 GT PUSH3 0x52A JUMPI PUSH1 0x4 SLOAD PUSH1 0x1 DUP2 DUP2 SHR SWAP2 AND DUP1 ISZERO PUSH3 0x51F JUMPI JUMPDEST PUSH1 0x20 DUP3 LT EQ PUSH3 0x509 JUMPI PUSH1 0x1F DUP2 GT PUSH3 0x49F JUMPI JUMPDEST POP DUP1 PUSH1 0x20 PUSH1 0x1F DUP3 GT PUSH1 0x1 EQ PUSH3 0x415 JUMPI PUSH1 0x0 SWAP2 PUSH3 0x409 JUMPI JUMPDEST POP DUP2 PUSH1 0x1 SHL SWAP2 PUSH1 0x0 NOT SWAP1 PUSH1 0x3 SHL SHR NOT AND OR PUSH1 0x4 SSTORE JUMPDEST PUSH1 0x1 PUSH1 0x1 PUSH1 0xA0 SHL SUB SWAP2 DUP3 AND SWAP7 DUP8 ISZERO PUSH3 0x3F1 JUMPI PUSH1 0x5 DUP1 SLOAD PUSH1 0x1 PUSH1 0x1 PUSH1 0xA0 SHL SUB NOT DUP2 AND DUP11 OR SWAP1 SWAP2 SSTORE DUP10 MLOAD SWAP2 SWAP1 DUP10 SWAP1 DUP6 AND PUSH32 0x8BE0079C531659141344CD1FD0A4F28419497F9722A3DAAFE3B4186F6B6457E0 PUSH1 0x0 DUP1 LOG3 PUSH1 0x1 PUSH1 0x6 SSTORE PUSH1 0x1 PUSH1 0xFF NOT PUSH1 0x8 SLOAD AND OR PUSH1 0x8 SSTORE MLOAD ISZERO PUSH3 0x3A7 JUMPI POP MLOAD ISZERO PUSH3 0x35B JUMPI DUP3 AND DUP1 ISZERO PUSH3 0x34A JUMPI PUSH1 0x12 PUSH1 0xFF DUP4 AND GT PUSH3 0x322 JUMPI DUP5 ISZERO PUSH3 0x311 JUMPI DUP6 EQ PUSH3 0x2C0 JUMPI PUSH1 0x80 MSTORE PUSH1 0xA0 MSTORE PUSH1 0xC0 MSTORE PUSH1 0x2 SLOAD SWAP1 DUP1 DUP3 ADD DUP1 SWAP3 GT PUSH3 0x2AA JUMPI PUSH1 0x20 PUSH32 0xDDF252AD1BE2C89B69C2B068FC378DAA952BA7F163C4A11628F55A4DF523B3EF SWAP2 PUSH1 0x0 SWAP4 PUSH1 0x2 SSTORE DUP5 DUP5 MSTORE DUP4 DUP3 MSTORE DUP6 DUP5 KECCAK256 DUP2 DUP2 SLOAD ADD SWAP1 SSTORE DUP6 MLOAD SWAP1 DUP2 MSTORE LOG3 PUSH2 0x100 PUSH2 0xFF00 NOT PUSH1 0x8 SLOAD AND OR PUSH1 0x8 SSTORE MLOAD PUSH2 0x13DC SWAP1 DUP2 PUSH3 0x6FF DUP3 CODECOPY PUSH1 0x80 MLOAD DUP2 PUSH2 0xDBD ADD MSTORE PUSH1 0xA0 MLOAD DUP2 DUP2 DUP2 PUSH2 0x39D ADD MSTORE DUP2 DUP2 PUSH2 0x592 ADD MSTORE PUSH2 0x80C ADD MSTORE PUSH1 0xC0 MLOAD DUP2 PUSH2 0x365 ADD MSTORE RETURN JUMPDEST PUSH4 0x4E487B71 PUSH1 0xE0 SHL PUSH1 0x0 MSTORE PUSH1 0x11 PUSH1 0x4 MSTORE PUSH1 0x24 PUSH1 0x0 REVERT JUMPDEST DUP6 MLOAD PUSH4 0x313B9AA1 PUSH1 0xE2 SHL DUP2 MSTORE PUSH1 0x20 PUSH1 0x4 DUP3 ADD MSTORE PUSH1 0x24 DUP1 DUP3 ADD MSTORE PUSH32 0x4F776E657220616E6420666163746F72792063616E6E6F742062652074686520 PUSH1 0x44 DUP3 ADD MSTORE PUSH4 0x73616D65 PUSH1 0xE0 SHL PUSH1 0x64 DUP3 ADD MSTORE PUSH1 0x84 SWAP1 REVERT JUMPDEST DUP7 MLOAD PUSH4 0x1F2A2005 PUSH1 0xE0 SHL DUP2 MSTORE PUSH1 0x4 SWAP1 REVERT JUMPDEST DUP7 MLOAD PUSH4 0x46F4384B PUSH1 0xE0 SHL DUP2 MSTORE PUSH1 0xFF DUP4 AND PUSH1 0x4 DUP3 ADD MSTORE PUSH1 0x0 PUSH1 0x24 DUP3 ADD MSTORE PUSH1 0x12 PUSH1 0x44 DUP3 ADD MSTORE PUSH1 0x64 SWAP1 REVERT JUMPDEST DUP7 MLOAD PUSH4 0xD92E233D PUSH1 0xE0 SHL DUP2 MSTORE PUSH1 0x4 SWAP1 REVERT JUMPDEST DUP7 MLOAD PUSH4 0xF7693C3D PUSH1 0xE0 SHL DUP2 MSTORE PUSH1 0x0 PUSH1 0x4 DUP3 ADD MSTORE PUSH1 0x24 DUP2 ADD DUP9 SWAP1 MSTORE PUSH1 0x1C PUSH1 0x44 DUP3 ADD MSTORE PUSH32 0x546F6B656E2073796D626F6C2063616E6E6F7420626520656D70747900000000 PUSH1 0x64 DUP3 ADD MSTORE PUSH1 0x84 SWAP1 REVERT JUMPDEST PUSH4 0xF7693C3D PUSH1 0xE0 SHL DUP2 MSTORE PUSH1 0x0 PUSH1 0x4 DUP3 ADD MSTORE PUSH1 0x24 DUP2 ADD DUP10 SWAP1 MSTORE PUSH1 0x1A PUSH1 0x44 DUP3 ADD MSTORE PUSH32 0x546F6B656E206E616D652063616E6E6F7420626520656D707479000000000000 PUSH1 0x64 DUP3 ADD MSTORE PUSH1 0x84 SWAP1 REVERT JUMPDEST DUP9 MLOAD PUSH4 0x1E4FBDF7 PUSH1 0xE0 SHL DUP2 MSTORE PUSH1 0x0 PUSH1 0x4 DUP3 ADD MSTORE PUSH1 0x24 SWAP1 REVERT JUMPDEST SWAP1 POP DUP3 ADD MLOAD CODESIZE PUSH3 0x160 JUMP JUMPDEST PUSH1 0x4 PUSH1 0x0 SWAP1 DUP2 MSTORE SWAP3 POP PUSH32 0x8A35ACFBC15FF81A39AE7D344FD709F28E8600B4AA8C65C6B64BFE7FE36BD19B SWAP1 JUMPDEST PUSH1 0x1F NOT DUP4 AND DUP5 LT PUSH3 0x486 JUMPI PUSH1 0x1 SWAP4 POP DUP3 PUSH1 0x1F NOT DUP2 AND LT PUSH3 0x46C JUMPI JUMPDEST POP POP DUP2 SHL ADD PUSH1 0x4 SSTORE PUSH3 0x175 JUMP JUMPDEST DUP5 ADD MLOAD PUSH1 0x0 NOT PUSH1 0xF8 DUP5 PUSH1 0x3 SHL AND SHR NOT AND SWAP1 SSTORE CODESIZE DUP1 PUSH3 0x45E JUMP JUMPDEST DUP5 DUP2 ADD MLOAD DUP3 SSTORE PUSH1 0x20 SWAP4 DUP5 ADD SWAP4 PUSH1 0x1 SWAP1 SWAP3 ADD SWAP2 ADD PUSH3 0x441 JUMP JUMPDEST PUSH1 0x4 PUSH1 0x0 MSTORE PUSH32 0x8A35ACFBC15FF81A39AE7D344FD709F28E8600B4AA8C65C6B64BFE7FE36BD19B PUSH1 0x1F DUP4 ADD PUSH1 0x5 SHR DUP2 ADD SWAP2 PUSH1 0x20 DUP5 LT PUSH3 0x4FE JUMPI JUMPDEST PUSH1 0x1F ADD PUSH1 0x5 SHR ADD SWAP1 JUMPDEST DUP2 DUP2 LT PUSH3 0x4F1 JUMPI POP PUSH3 0x147 JUMP JUMPDEST PUSH1 0x0 DUP2 SSTORE PUSH1 0x1 ADD PUSH3 0x4E2 JUMP JUMPDEST SWAP1 SWAP2 POP DUP2 SWAP1 PUSH3 0x4D9 JUMP JUMPDEST PUSH4 0x4E487B71 PUSH1 0xE0 SHL PUSH1 0x0 MSTORE PUSH1 0x22 PUSH1 0x4 MSTORE PUSH1 0x24 PUSH1 0x0 REVERT JUMPDEST SWAP1 PUSH1 0x7F AND SWAP1 PUSH3 0x133 JUMP JUMPDEST PUSH4 0x4E487B71 PUSH1 0xE0 SHL PUSH1 0x0 MSTORE PUSH1 0x41 PUSH1 0x4 MSTORE PUSH1 0x24 PUSH1 0x0 REVERT JUMPDEST SWAP1 POP DUP9 ADD MLOAD CODESIZE PUSH3 0xFB JUMP JUMPDEST PUSH1 0x3 PUSH1 0x0 SWAP1 DUP2 MSTORE SWAP3 POP PUSH32 0xC2575A0E9E593C00F959F8C92F12DB2869C3395A3B0502D05E2516446F71F85B SWAP1 JUMPDEST DUP11 PUSH1 0x1F NOT DUP5 AND DUP6 LT PUSH3 0x5BF JUMPI POP PUSH1 0x1 SWAP4 POP DUP3 PUSH1 0x1F NOT DUP2 AND LT PUSH3 0x5A5 JUMPI JUMPDEST POP POP DUP2 SHL ADD PUSH1 0x3 SSTORE PUSH3 0x110 JUMP JUMPDEST DUP11 ADD MLOAD PUSH1 0x0 NOT PUSH1 0xF8 DUP5 PUSH1 0x3 SHL AND SHR NOT AND SWAP1 SSTORE CODESIZE DUP1 PUSH3 0x597 JUMP JUMPDEST DUP2 ADD MLOAD DUP3 SSTORE PUSH1 0x20 SWAP4 DUP5 ADD SWAP4 PUSH1 0x1 SWAP1 SWAP3 ADD SWAP2 ADD PUSH3 0x578 JUMP JUMPDEST PUSH1 0x3 PUSH1 0x0 MSTORE PUSH32 0xC2575A0E9E593C00F959F8C92F12DB2869C3395A3B0502D05E2516446F71F85B PUSH1 0x1F DUP4 ADD PUSH1 0x5 SHR DUP2 ADD SWAP2 PUSH1 0x20 DUP5 LT PUSH3 0x636 JUMPI JUMPDEST PUSH1 0x1F ADD PUSH1 0x5 SHR ADD SWAP1 JUMPDEST DUP2 DUP2 LT PUSH3 0x629 JUMPI POP PUSH3 0xE2 JUMP JUMPDEST PUSH1 0x0 DUP2 SSTORE PUSH1 0x1 ADD PUSH3 0x61A JUMP JUMPDEST SWAP1 SWAP2 POP DUP2 SWAP1 PUSH3 0x611 JUMP JUMPDEST SWAP1 PUSH1 0x7F AND SWAP1 PUSH3 0xCE JUMP JUMPDEST PUSH1 0x0 DUP1 REVERT JUMPDEST PUSH1 0x40 MLOAD SWAP2 SWAP1 PUSH1 0x1F ADD PUSH1 0x1F NOT AND DUP3 ADD PUSH1 0x1 PUSH1 0x1 PUSH1 0x40 SHL SUB DUP2 GT DUP4 DUP3 LT OR PUSH3 0x52A JUMPI PUSH1 0x40 MSTORE JUMP JUMPDEST SWAP2 SWAP1 DUP1 PUSH1 0x1F DUP5 ADD SLT ISZERO PUSH3 0x64C JUMPI DUP3 MLOAD PUSH1 0x1 PUSH1 0x1 PUSH1 0x40 SHL SUB DUP2 GT PUSH3 0x52A JUMPI PUSH1 0x20 SWAP1 PUSH3 0x6AD PUSH1 0x1F DUP3 ADD PUSH1 0x1F NOT AND DUP4 ADD PUSH3 0x651 JUMP JUMPDEST SWAP3 DUP2 DUP5 MSTORE DUP3 DUP3 DUP8 ADD ADD GT PUSH3 0x64C JUMPI PUSH1 0x0 JUMPDEST DUP2 DUP2 LT PUSH3 0x6D5 JUMPI POP DUP3 PUSH1 0x0 SWAP4 SWAP5 SWAP6 POP ADD ADD MSTORE SWAP1 JUMP JUMPDEST DUP6 DUP2 ADD DUP4 ADD MLOAD DUP5 DUP3 ADD DUP5 ADD MSTORE DUP3 ADD PUSH3 0x6BF JUMP JUMPDEST MLOAD SWAP1 PUSH1 0x1 PUSH1 0x1 PUSH1 0xA0 SHL SUB DUP3 AND DUP3 SUB PUSH3 0x64C JUMPI JUMP INVALID PUSH1 0x80 PUSH1 0x40 SWAP1 DUP1 DUP3 MSTORE PUSH1 0x4 DUP1 CALLDATASIZE LT ISZERO PUSH2 0x16 JUMPI PUSH1 0x0 DUP1 REVERT JUMPDEST PUSH1 0x0 SWAP2 DUP3 CALLDATALOAD PUSH1 0xE0 SHR SWAP1 DUP2 PUSH4 0x6FDDE03 EQ PUSH2 0xF8A JUMPI POP DUP1 PUSH4 0x95EA7B3 EQ PUSH2 0xEDF JUMPI DUP1 PUSH4 0x18160DDD EQ PUSH2 0xEC0 JUMPI DUP1 PUSH4 0x23B872DD EQ PUSH2 0xDE1 JUMPI DUP1 PUSH4 0x313CE567 EQ PUSH2 0xDA3 JUMPI DUP1 PUSH4 0x42966C68 EQ PUSH2 0xBD7 JUMPI DUP1 PUSH4 0x5DC96D16 EQ PUSH2 0xBB3 JUMPI DUP1 PUSH4 0x6A627842 EQ PUSH2 0xB46 JUMPI DUP1 PUSH4 0x70A08231 EQ PUSH2 0xB0F JUMPI DUP1 PUSH4 0x715018A6 EQ PUSH2 0xAB1 JUMPI DUP1 PUSH4 0x79CC6790 EQ PUSH2 0x7E3 JUMPI DUP1 PUSH4 0x7B2C835F EQ PUSH2 0x77F JUMPI DUP1 PUSH4 0x8DA5CB5B EQ PUSH2 0x756 JUMPI DUP1 PUSH4 0x95D89B41 EQ PUSH2 0x63A JUMPI DUP1 PUSH4 0xA4F0ECD3 EQ PUSH2 0x568 JUMPI DUP1 PUSH4 0xA9059CBB EQ PUSH2 0x537 JUMPI DUP1 PUSH4 0xAD1329D1 EQ PUSH2 0x3CC JUMPI DUP1 PUSH4 0xC45A0155 EQ PUSH2 0x388 JUMPI DUP1 PUSH4 0xD7C81B55 EQ PUSH2 0x34D JUMPI DUP1 PUSH4 0xD89135CD EQ PUSH2 0x32E JUMPI DUP1 PUSH4 0xDD62ED3E EQ PUSH2 0x2D7 JUMPI DUP1 PUSH4 0xF2FDE38B EQ PUSH2 0x241 JUMPI PUSH4 0xF658F32A EQ PUSH2 0x121 JUMPI PUSH1 0x0 DUP1 REVERT JUMPDEST CALLVALUE PUSH2 0x23D JUMPI DUP3 PUSH1 0x3 NOT CALLDATASIZE ADD SLT PUSH2 0x23D JUMPI PUSH2 0x139 PUSH2 0x10BE JUMP JUMPDEST SWAP1 PUSH1 0x24 CALLDATALOAD SWAP1 ADDRESS CALLER SUB PUSH2 0x201 JUMPI PUSH1 0x1 PUSH1 0x1 PUSH1 0xA0 SHL SUB DUP4 AND SWAP3 DUP4 ISZERO PUSH2 0x1EA JUMPI DUP4 PUSH1 0x0 MSTORE PUSH1 0x0 PUSH1 0x20 MSTORE DUP6 PUSH1 0x0 KECCAK256 SLOAD SWAP2 DUP4 DUP4 LT PUSH2 0x1B2 JUMPI DUP6 PUSH1 0x0 DUP7 PUSH32 0xDDF252AD1BE2C89B69C2B068FC378DAA952BA7F163C4A11628F55A4DF523B3EF PUSH1 0x20 DUP9 DUP13 DUP2 DUP11 DUP7 DUP9 MSTORE DUP8 DUP6 MSTORE SUB DUP2 DUP8 KECCAK256 SSTORE DUP2 PUSH1 0x2 SLOAD SUB PUSH1 0x2 SSTORE MLOAD SWAP1 DUP2 MSTORE LOG3 DUP1 RETURN JUMPDEST DUP7 MLOAD PUSH4 0x391434E3 PUSH1 0xE2 SHL DUP2 MSTORE PUSH1 0x1 PUSH1 0x1 PUSH1 0xA0 SHL SUB SWAP1 SWAP3 AND SWAP1 DUP3 ADD SWAP1 DUP2 MSTORE PUSH1 0x20 DUP2 ADD DUP4 SWAP1 MSTORE PUSH1 0x40 DUP2 ADD DUP5 SWAP1 MSTORE DUP2 SWAP1 PUSH1 0x60 ADD SUB SWAP1 REVERT JUMPDEST SUB SWAP1 REVERT JUMPDEST DUP6 MLOAD PUSH4 0x4B637E8F PUSH1 0xE1 SHL DUP2 MSTORE DUP1 DUP4 ADD DUP7 SWAP1 MSTORE PUSH1 0x24 SWAP1 REVERT JUMPDEST PUSH1 0x64 SWAP1 PUSH1 0x20 DUP7 MLOAD SWAP2 PUSH3 0x461BCD PUSH1 0xE5 SHL DUP4 MSTORE DUP3 ADD MSTORE PUSH1 0x16 PUSH1 0x24 DUP3 ADD MSTORE PUSH22 0x13DB9B1E481CD95B198B58D85B1B08185B1B1BDDD959 PUSH1 0x52 SHL PUSH1 0x44 DUP3 ADD MSTORE REVERT JUMPDEST POP DUP1 REVERT JUMPDEST POP DUP3 SWAP1 CALLVALUE PUSH2 0x2D3 JUMPI PUSH1 0x20 CALLDATASIZE PUSH1 0x3 NOT ADD SLT PUSH2 0x2D3 JUMPI PUSH2 0x25D PUSH2 0x10BE JUMP JUMPDEST SWAP1 PUSH2 0x266 PUSH2 0x1109 JUMP JUMPDEST PUSH1 0x1 PUSH1 0x1 PUSH1 0xA0 SHL SUB SWAP2 DUP3 AND SWAP3 DUP4 ISZERO PUSH2 0x2BD JUMPI POP POP PUSH1 0x5 SLOAD DUP3 PUSH12 0xFFFFFFFFFFFFFFFFFFFFFFFF PUSH1 0xA0 SHL DUP3 AND OR PUSH1 0x5 SSTORE AND PUSH32 0x8BE0079C531659141344CD1FD0A4F28419497F9722A3DAAFE3B4186F6B6457E0 PUSH1 0x0 DUP1 LOG3 DUP1 RETURN JUMPDEST MLOAD PUSH4 0x1E4FBDF7 PUSH1 0xE0 SHL DUP2 MSTORE SWAP1 DUP2 ADD DUP5 SWAP1 MSTORE PUSH1 0x24 SWAP1 REVERT JUMPDEST DUP3 DUP1 REVERT JUMPDEST DUP3 DUP5 CALLVALUE PUSH2 0x23D JUMPI DUP1 PUSH1 0x3 NOT CALLDATASIZE ADD SLT PUSH2 0x23D JUMPI PUSH2 0x2F1 PUSH2 0x10BE JUMP JUMPDEST PUSH1 0x1 PUSH1 0x1 PUSH1 0xA0 SHL SUB SWAP3 PUSH1 0x24 CALLDATALOAD DUP5 DUP2 AND SWAP3 SWAP2 SWAP1 DUP4 SWAP1 SUB PUSH2 0x329 JUMPI PUSH1 0x20 SWAP5 DUP5 SWAP3 AND DUP2 MSTORE PUSH1 0x1 DUP6 MSTORE KECCAK256 SWAP1 PUSH1 0x0 MSTORE DUP3 MSTORE DUP1 PUSH1 0x0 KECCAK256 SLOAD SWAP1 MLOAD SWAP1 DUP2 MSTORE RETURN JUMPDEST PUSH1 0x0 DUP1 REVERT JUMPDEST DUP3 DUP5 CALLVALUE PUSH2 0x23D JUMPI DUP2 PUSH1 0x3 NOT CALLDATASIZE ADD SLT PUSH2 0x23D JUMPI PUSH1 0x20 SWAP1 PUSH1 0x7 SLOAD SWAP1 MLOAD SWAP1 DUP2 MSTORE RETURN JUMPDEST DUP3 DUP5 CALLVALUE PUSH2 0x23D JUMPI DUP2 PUSH1 0x3 NOT CALLDATASIZE ADD SLT PUSH2 0x23D JUMPI PUSH1 0x20 SWAP1 MLOAD PUSH32 0x0 DUP2 MSTORE RETURN JUMPDEST DUP3 DUP5 CALLVALUE PUSH2 0x23D JUMPI DUP2 PUSH1 0x3 NOT CALLDATASIZE ADD SLT PUSH2 0x23D JUMPI MLOAD PUSH32 0x0 PUSH1 0x1 PUSH1 0x1 PUSH1 0xA0 SHL SUB AND DUP2 MSTORE PUSH1 0x20 SWAP1 RETURN JUMPDEST POP DUP3 CALLVALUE PUSH2 0x2D3 JUMPI PUSH2 0x3DC CALLDATASIZE PUSH2 0x10D4 JUMP JUMPDEST SWAP2 SWAP1 PUSH2 0x3E6 PUSH2 0x1109 JUMP JUMPDEST PUSH1 0x1 PUSH1 0x1 PUSH1 0xA0 SHL SUB DUP2 DUP2 AND SWAP3 DUP4 ISZERO PUSH2 0x527 JUMPI DUP8 SWAP5 SWAP4 SWAP3 SWAP2 AND SWAP1 DUP2 PUSH2 0x49F JUMPI POP POP DUP3 DUP1 SWAP3 DUP2 SWAP3 GAS CALL RETURNDATASIZE ISZERO PUSH2 0x49A JUMPI RETURNDATASIZE PUSH8 0xFFFFFFFFFFFFFFFF DUP2 GT PUSH2 0x487 JUMPI DUP3 MLOAD SWAP1 PUSH2 0x43A PUSH1 0x1F DUP3 ADD PUSH1 0x1F NOT AND PUSH1 0x20 ADD DUP4 PUSH2 0x115F JUMP JUMPDEST DUP2 MSTORE DUP5 PUSH1 0x20 RETURNDATASIZE SWAP3 ADD RETURNDATACOPY JUMPDEST ISZERO PUSH2 0x44E JUMPI POP POP DUP1 RETURN JUMPDEST SWAP1 PUSH1 0x20 PUSH1 0x64 SWAP3 MLOAD SWAP2 PUSH3 0x461BCD PUSH1 0xE5 SHL DUP4 MSTORE DUP3 ADD MSTORE PUSH1 0x13 PUSH1 0x24 DUP3 ADD MSTORE PUSH19 0x115512081D1C985B9CD9995C8819985A5B1959 PUSH1 0x6A SHL PUSH1 0x44 DUP3 ADD MSTORE REVERT JUMPDEST PUSH4 0x4E487B71 PUSH1 0xE0 SHL DUP6 MSTORE PUSH1 0x41 DUP5 MSTORE PUSH1 0x24 DUP6 REVERT JUMPDEST PUSH2 0x444 JUMP JUMPDEST DUP6 MLOAD PUSH4 0xA9059CBB PUSH1 0xE0 SHL DUP2 MSTORE PUSH1 0x1 PUSH1 0x1 PUSH1 0xA0 SHL SUB SWAP2 SWAP1 SWAP2 AND SWAP7 DUP2 ADD SWAP7 DUP8 MSTORE PUSH1 0x20 DUP1 DUP9 ADD SWAP5 SWAP1 SWAP5 MSTORE SWAP6 SWAP3 SWAP4 DUP7 SWAP4 DUP5 SWAP1 SUB PUSH1 0x40 ADD SWAP3 POP DUP4 SWAP2 GAS CALL SWAP1 DUP2 ISZERO PUSH2 0x51E JUMPI POP PUSH2 0x4E7 JUMPI POP DUP1 RETURN JUMPDEST PUSH1 0x20 DUP2 RETURNDATASIZE DUP3 GT PUSH2 0x516 JUMPI JUMPDEST DUP2 PUSH2 0x4FF PUSH1 0x20 SWAP4 DUP4 PUSH2 0x115F JUMP JUMPDEST DUP2 ADD SUB SLT PUSH2 0x23D JUMPI MLOAD DUP1 ISZERO ISZERO SUB PUSH2 0x513 JUMPI DUP1 RETURN JUMPDEST DUP1 REVERT JUMPDEST RETURNDATASIZE SWAP2 POP PUSH2 0x4F2 JUMP JUMPDEST MLOAD RETURNDATASIZE DUP5 DUP3 RETURNDATACOPY RETURNDATASIZE SWAP1 REVERT JUMPDEST DUP6 MLOAD PUSH4 0xD92E233D PUSH1 0xE0 SHL DUP2 MSTORE DUP8 SWAP1 REVERT JUMPDEST DUP3 DUP5 CALLVALUE PUSH2 0x23D JUMPI DUP1 PUSH1 0x3 NOT CALLDATASIZE ADD SLT PUSH2 0x23D JUMPI PUSH1 0x20 SWAP1 PUSH2 0x561 PUSH2 0x557 PUSH2 0x10BE JUMP JUMPDEST PUSH1 0x24 CALLDATALOAD SWAP1 CALLER PUSH2 0x1181 JUMP JUMPDEST MLOAD PUSH1 0x1 DUP2 MSTORE RETURN JUMPDEST POP DUP3 CALLVALUE PUSH2 0x2D3 JUMPI DUP1 PUSH1 0x3 NOT CALLDATASIZE ADD SLT PUSH2 0x2D3 JUMPI PUSH2 0x582 PUSH2 0x10BE JUMP JUMPDEST PUSH1 0x24 CALLDATALOAD SWAP2 SWAP1 PUSH1 0x1 PUSH1 0x1 PUSH1 0xA0 SHL SUB SWAP1 PUSH32 0x0 DUP3 AND CALLER SUB PUSH2 0x624 JUMPI AND SWAP3 DUP4 ISZERO PUSH2 0x60F JUMPI POP PUSH1 0x20 DUP3 PUSH32 0xDDF252AD1BE2C89B69C2B068FC378DAA952BA7F163C4A11628F55A4DF523B3EF SWAP3 PUSH2 0x5F5 PUSH1 0x0 SWAP6 PUSH1 0x2 SLOAD PUSH2 0x125F JUMP JUMPDEST PUSH1 0x2 SSTORE DUP6 DUP6 MSTORE DUP5 DUP4 MSTORE DUP1 DUP6 KECCAK256 DUP3 DUP2 SLOAD ADD SWAP1 SSTORE MLOAD SWAP1 DUP2 MSTORE LOG3 DUP1 RETURN JUMPDEST DUP5 PUSH1 0x24 SWAP3 MLOAD SWAP2 PUSH4 0xEC442F05 PUSH1 0xE0 SHL DUP4 MSTORE DUP3 ADD MSTORE REVERT JUMPDEST DUP3 MLOAD PUSH4 0x5936416F PUSH1 0xE0 SHL DUP2 MSTORE CALLER DUP2 DUP8 ADD MSTORE PUSH1 0x24 SWAP1 REVERT JUMPDEST POP SWAP2 SWAP1 CALLVALUE PUSH2 0x513 JUMPI DUP1 PUSH1 0x3 NOT CALLDATASIZE ADD SLT PUSH2 0x513 JUMPI DUP2 MLOAD SWAP2 DUP2 DUP5 SLOAD SWAP3 PUSH1 0x1 DUP5 DUP2 SHR SWAP2 DUP2 DUP7 AND SWAP6 DUP7 ISZERO PUSH2 0x74C JUMPI JUMPDEST PUSH1 0x20 SWAP7 DUP8 DUP6 LT DUP2 EQ PUSH2 0x739 JUMPI SWAP1 DUP8 DUP10 SWAP11 SWAP3 DUP7 DUP12 SWAP10 SWAP11 SWAP12 MSTORE SWAP2 DUP3 PUSH1 0x0 EQ PUSH2 0x70F JUMPI POP POP PUSH1 0x1 EQ PUSH2 0x6B4 JUMPI JUMPDEST DUP6 DUP9 PUSH2 0x6B0 DUP10 PUSH2 0x6A1 DUP5 DUP11 SUB DUP6 PUSH2 0x115F JUMP JUMPDEST MLOAD SWAP3 DUP3 DUP5 SWAP4 DUP5 MSTORE DUP4 ADD SWAP1 PUSH2 0x107E JUMP JUMPDEST SUB SWAP1 RETURN JUMPDEST DUP2 MSTORE DUP7 SWAP4 POP SWAP2 SWAP1 PUSH32 0x8A35ACFBC15FF81A39AE7D344FD709F28E8600B4AA8C65C6B64BFE7FE36BD19B JUMPDEST DUP3 DUP5 LT PUSH2 0x6F7 JUMPI POP POP POP DUP3 ADD ADD DUP2 PUSH2 0x6A1 PUSH2 0x6B0 CODESIZE PUSH2 0x68F JUMP JUMPDEST DUP1 SLOAD DUP5 DUP11 ADD DUP7 ADD MSTORE DUP9 SWAP6 POP DUP8 SWAP5 SWAP1 SWAP4 ADD SWAP3 DUP2 ADD PUSH2 0x6DD JUMP JUMPDEST PUSH1 0xFF NOT AND DUP9 DUP3 ADD MSTORE SWAP5 ISZERO ISZERO PUSH1 0x5 SHL DUP8 ADD SWAP1 SWAP5 ADD SWAP5 POP DUP6 SWAP4 POP PUSH2 0x6A1 SWAP3 POP PUSH2 0x6B0 SWAP2 POP CODESIZE SWAP1 POP PUSH2 0x68F JUMP JUMPDEST PUSH4 0x4E487B71 PUSH1 0xE0 SHL DUP4 MSTORE PUSH1 0x22 DUP11 MSTORE PUSH1 0x24 DUP4 REVERT JUMPDEST SWAP3 PUSH1 0x7F AND SWAP3 PUSH2 0x665 JUMP JUMPDEST DUP3 DUP5 CALLVALUE PUSH2 0x23D JUMPI DUP2 PUSH1 0x3 NOT CALLDATASIZE ADD SLT PUSH2 0x23D JUMPI PUSH1 0x5 SLOAD SWAP1 MLOAD PUSH1 0x1 PUSH1 0x1 PUSH1 0xA0 SHL SUB SWAP1 SWAP2 AND DUP2 MSTORE PUSH1 0x20 SWAP1 RETURN JUMPDEST POP DUP3 SWAP1 CALLVALUE PUSH2 0x2D3 JUMPI PUSH1 0x20 CALLDATASIZE PUSH1 0x3 NOT ADD SLT PUSH2 0x2D3 JUMPI CALLDATALOAD SWAP1 DUP2 ISZERO ISZERO DUP1 SWAP3 SUB PUSH2 0x2D3 JUMPI PUSH32 0x1509137B40DF48E8EF9596F9DB16B632B15353D0E0688D9F23221953EB0328DD SWAP2 PUSH1 0x20 SWAP2 PUSH2 0x7CC PUSH2 0x1109 JUMP JUMPDEST PUSH1 0xFF NOT PUSH1 0x8 SLOAD AND PUSH1 0xFF DUP4 AND OR PUSH1 0x8 SSTORE MLOAD SWAP1 DUP2 MSTORE LOG1 DUP1 RETURN JUMPDEST POP DUP3 CALLVALUE PUSH2 0x2D3 JUMPI DUP1 PUSH1 0x3 NOT CALLDATASIZE ADD SLT PUSH2 0x2D3 JUMPI PUSH2 0x7FD PUSH2 0x10BE JUMP JUMPDEST SWAP3 PUSH1 0x24 CALLDATALOAD SWAP1 PUSH1 0x1 PUSH1 0x1 PUSH1 0xA0 SHL SUB PUSH32 0x0 DUP2 AND CALLER SUB PUSH2 0xA9B JUMPI PUSH1 0xFF PUSH1 0x8 SLOAD AND ISZERO PUSH2 0xA59 JUMPI PUSH2 0x846 PUSH2 0x1383 JUMP JUMPDEST DUP6 AND DUP1 ISZERO PUSH2 0xA49 JUMPI DUP3 ISZERO PUSH2 0xA39 JUMPI DUP1 DUP3 MSTORE DUP2 PUSH1 0x20 MSTORE DUP4 DUP3 KECCAK256 SLOAD DUP4 DUP2 LT PUSH2 0xA07 JUMPI POP PUSH1 0x2 SLOAD DUP1 DUP5 GT PUSH2 0x9EB JUMPI PUSH1 0xA SWAP1 DIV DUP4 GT PUSH2 0x994 JUMPI PUSH2 0x887 DUP4 PUSH1 0x7 SLOAD PUSH2 0x125F JUMP JUMPDEST PUSH1 0x7 SSTORE ADDRESS EXTCODESIZE ISZERO PUSH2 0x23D JUMPI DUP4 MLOAD PUSH4 0x7B2C7995 PUSH1 0xE1 SHL DUP2 MSTORE PUSH1 0x1 PUSH1 0x1 PUSH1 0xA0 SHL SUB DUP8 AND DUP7 DUP3 ADD SWAP1 DUP2 MSTORE PUSH1 0x20 DUP2 ADD DUP6 SWAP1 MSTORE DUP4 SWAP1 DUP2 SWAP1 DUP4 SWAP1 DUP2 SWAP1 PUSH1 0x40 ADD SUB DUP2 DUP4 ADDRESS GAS CALL SWAP2 DUP3 PUSH2 0x980 JUMPI JUMPDEST POP POP PUSH2 0x947 JUMPI POP POP PUSH2 0x8DC PUSH2 0x1282 JUMP JUMPDEST PUSH4 0x8C379A0 EQ PUSH2 0x90D JUMPI JUMPDEST PUSH2 0x1E6 SWAP2 PUSH2 0x8F7 DUP3 PUSH1 0x7 SLOAD PUSH2 0x1312 JUMP JUMPDEST POP MLOAD PUSH4 0x1E764BC5 PUSH1 0xE3 SHL DUP2 MSTORE SWAP4 DUP5 SWAP4 DUP5 ADD PUSH2 0x1343 JUMP JUMPDEST PUSH2 0x915 PUSH2 0x12A0 JUMP JUMPDEST DUP1 PUSH2 0x920 JUMPI POP PUSH2 0x8E7 JUMP JUMPDEST SWAP1 PUSH2 0x1E6 SWAP3 PUSH2 0x931 DUP3 PUSH1 0x7 SLOAD PUSH2 0x1312 JUMP JUMPDEST POP MLOAD PUSH4 0x1E764BC5 PUSH1 0xE3 SHL DUP2 MSTORE SWAP5 DUP6 SWAP5 DUP6 ADD PUSH2 0x131F JUMP JUMPDEST PUSH32 0xCCBEA4088A3B7AE9CA2D15FAB9A9742A4075B4D7247768A1EECEA917565ABA00 DUP5 DUP5 PUSH1 0x7 SLOAD DUP3 MLOAD SWAP2 DUP3 MSTORE PUSH1 0x20 DUP3 ADD MSTORE LOG2 PUSH1 0x1 PUSH1 0x6 SSTORE DUP1 RETURN JUMPDEST PUSH2 0x989 SWAP1 PUSH2 0x1135 JUMP JUMPDEST PUSH2 0x2D3 JUMPI DUP3 DUP9 PUSH2 0x8CC JUMP JUMPDEST POP POP PUSH1 0xA4 SWAP4 POP DUP2 MLOAD SWAP3 PUSH4 0x33BE48F5 PUSH1 0xE2 SHL DUP5 MSTORE DUP4 ADD MSTORE PUSH1 0x24 DUP3 ADD MSTORE PUSH1 0x24 PUSH1 0x44 DUP3 ADD MSTORE PUSH32 0x45786365656473206D6178696D756D206275726E20706572207472616E736163 PUSH1 0x64 DUP3 ADD MSTORE PUSH4 0x3A34B7B7 PUSH1 0xE1 SHL PUSH1 0x84 DUP3 ADD MSTORE REVERT JUMPDEST DUP6 PUSH1 0x44 SWAP2 DUP6 DUP8 MLOAD SWAP3 PUSH4 0x1EE970CD PUSH1 0xE3 SHL DUP5 MSTORE DUP4 ADD MSTORE PUSH1 0x24 DUP3 ADD MSTORE REVERT JUMPDEST SWAP4 MLOAD PUSH4 0xDB42144D PUSH1 0xE0 SHL DUP2 MSTORE PUSH1 0x1 PUSH1 0x1 PUSH1 0xA0 SHL SUB SWAP1 SWAP7 AND SWAP5 DUP7 ADD SWAP5 DUP6 MSTORE POP POP PUSH1 0x20 DUP4 ADD MSTORE PUSH1 0x40 DUP3 ADD MSTORE DUP2 SWAP1 PUSH1 0x60 ADD SUB SWAP1 REVERT JUMPDEST POP POP POP MLOAD PUSH4 0x1F2A2005 PUSH1 0xE0 SHL DUP2 MSTORE REVERT JUMPDEST POP POP POP MLOAD PUSH4 0xD92E233D PUSH1 0xE0 SHL DUP2 MSTORE REVERT JUMPDEST DUP4 MLOAD PUSH4 0xEB8953F PUSH1 0xE0 SHL DUP2 MSTORE PUSH1 0x20 DUP2 DUP8 ADD DUP2 DUP2 MSTORE PUSH1 0x13 SWAP2 DUP2 ADD SWAP2 SWAP1 SWAP2 MSTORE PUSH19 0x109D5C9B9A5B99C81A5CC8191A5CD8589B1959 PUSH1 0x6A SHL PUSH1 0x40 DUP3 ADD MSTORE DUP2 SWAP1 PUSH1 0x60 ADD SUB SWAP1 REVERT JUMPDEST DUP4 MLOAD PUSH4 0x5936416F PUSH1 0xE0 SHL DUP2 MSTORE CALLER DUP2 DUP8 ADD MSTORE PUSH1 0x24 SWAP1 REVERT JUMPDEST DUP3 CALLVALUE PUSH2 0x513 JUMPI DUP1 PUSH1 0x3 NOT CALLDATASIZE ADD SLT PUSH2 0x513 JUMPI PUSH2 0xACA PUSH2 0x1109 JUMP JUMPDEST PUSH1 0x5 DUP1 SLOAD PUSH1 0x1 PUSH1 0x1 PUSH1 0xA0 SHL SUB NOT DUP2 AND SWAP1 SWAP2 SSTORE PUSH1 0x0 SWAP1 PUSH1 0x1 PUSH1 0x1 PUSH1 0xA0 SHL SUB AND PUSH32 0x8BE0079C531659141344CD1FD0A4F28419497F9722A3DAAFE3B4186F6B6457E0 DUP3 DUP1 LOG3 DUP1 RETURN JUMPDEST DUP3 DUP5 CALLVALUE PUSH2 0x23D JUMPI PUSH1 0x20 CALLDATASIZE PUSH1 0x3 NOT ADD SLT PUSH2 0x23D JUMPI PUSH1 0x20 SWAP2 DUP2 SWAP1 PUSH1 0x1 PUSH1 0x1 PUSH1 0xA0 SHL SUB PUSH2 0xB37 PUSH2 0x10BE JUMP JUMPDEST AND DUP2 MSTORE DUP1 DUP5 MSTORE KECCAK256 SLOAD SWAP1 MLOAD SWAP1 DUP2 MSTORE RETURN JUMPDEST POP SWAP1 CALLVALUE PUSH2 0x513 JUMPI PUSH1 0x20 CALLDATASIZE PUSH1 0x3 NOT ADD SLT PUSH2 0x513 JUMPI POP PUSH1 0x20 PUSH1 0x84 SWAP3 PUSH2 0xB67 PUSH2 0x10BE JUMP JUMPDEST POP MLOAD PUSH3 0x461BCD PUSH1 0xE5 SHL DUP2 MSTORE SWAP2 DUP3 ADD MSTORE PUSH1 0x25 PUSH1 0x24 DUP3 ADD MSTORE PUSH32 0x4D696E742064697361626C65643A2075736520666163746F727920746F206C6F PUSH1 0x44 DUP3 ADD MSTORE PUSH5 0x636B20585 PUSH1 0xDC SHL PUSH1 0x64 DUP3 ADD MSTORE REVERT JUMPDEST DUP3 DUP5 CALLVALUE PUSH2 0x23D JUMPI DUP2 PUSH1 0x3 NOT CALLDATASIZE ADD SLT PUSH2 0x23D JUMPI PUSH1 0x20 SWAP1 PUSH1 0xFF PUSH1 0x8 SLOAD AND SWAP1 MLOAD SWAP1 ISZERO ISZERO DUP2 MSTORE RETURN JUMPDEST POP DUP3 CALLVALUE PUSH2 0x2D3 JUMPI PUSH1 0x20 CALLDATASIZE PUSH1 0x3 NOT ADD SLT PUSH2 0x2D3 JUMPI DUP2 CALLDATALOAD SWAP3 PUSH1 0xFF PUSH1 0x8 SLOAD AND ISZERO PUSH2 0xD61 JUMPI PUSH2 0xC00 PUSH2 0x1383 JUMP JUMPDEST DUP4 ISZERO PUSH2 0xD53 JUMPI CALLER DUP2 MSTORE DUP1 PUSH1 0x20 MSTORE DUP2 DUP2 KECCAK256 SLOAD DUP5 DUP2 LT PUSH2 0xD29 JUMPI POP PUSH2 0xC25 DUP5 PUSH1 0x7 SLOAD PUSH2 0x125F JUMP JUMPDEST PUSH1 0x7 SSTORE ADDRESS EXTCODESIZE ISZERO PUSH2 0x513 JUMPI DUP2 MLOAD PUSH4 0x7B2C7995 PUSH1 0xE1 SHL DUP2 MSTORE CALLER DUP5 DUP3 ADD SWAP1 DUP2 MSTORE PUSH1 0x20 DUP2 ADD DUP7 SWAP1 MSTORE SWAP1 SWAP2 SWAP1 DUP2 SWAP1 DUP4 SWAP1 DUP2 SWAP1 PUSH1 0x40 ADD SUB DUP2 DUP4 ADDRESS GAS CALL SWAP2 DUP3 PUSH2 0xD1A JUMPI JUMPDEST POP SWAP1 PUSH2 0xCDF JUMPI POP PUSH2 0xC71 PUSH2 0x1282 JUMP JUMPDEST PUSH4 0x8C379A0 EQ PUSH2 0xCA4 JUMPI JUMPDEST PUSH2 0x1E6 SWAP1 PUSH2 0xC8C DUP5 PUSH1 0x7 SLOAD PUSH2 0x1312 JUMP JUMPDEST POP MLOAD PUSH4 0x1E764BC5 PUSH1 0xE3 SHL DUP2 MSTORE SWAP3 DUP4 SWAP3 CALLER SWAP1 DUP5 ADD PUSH2 0x1343 JUMP JUMPDEST PUSH2 0xCAC PUSH2 0x12A0 JUMP JUMPDEST DUP1 PUSH2 0xCB7 JUMPI POP PUSH2 0xC7C JUMP JUMPDEST PUSH2 0x1E6 SWAP2 PUSH2 0xCC7 DUP6 PUSH1 0x7 SLOAD PUSH2 0x1312 JUMP JUMPDEST POP MLOAD PUSH4 0x1E764BC5 PUSH1 0xE3 SHL DUP2 MSTORE SWAP4 DUP5 SWAP4 CALLER SWAP1 DUP6 ADD PUSH2 0x131F JUMP JUMPDEST DUP4 PUSH32 0xCCBEA4088A3B7AE9CA2D15FAB9A9742A4075B4D7247768A1EECEA917565ABA00 DUP4 PUSH1 0x7 SLOAD DUP2 MLOAD SWAP4 DUP5 MSTORE PUSH1 0x20 DUP5 ADD MSTORE CALLER SWAP3 LOG2 PUSH1 0x1 PUSH1 0x6 SSTORE DUP1 RETURN JUMPDEST PUSH2 0xD23 SWAP1 PUSH2 0x1135 JUMP JUMPDEST DUP6 PUSH2 0xC62 JUMP JUMPDEST SWAP2 MLOAD PUSH4 0xDB42144D PUSH1 0xE0 SHL DUP2 MSTORE CALLER SWAP4 DUP2 ADD SWAP4 DUP5 MSTORE PUSH1 0x20 DUP5 ADD SWAP5 SWAP1 SWAP5 MSTORE POP PUSH1 0x40 DUP3 ADD MSTORE DUP2 SWAP1 PUSH1 0x60 ADD SUB SWAP1 REVERT JUMPDEST POP MLOAD PUSH4 0x1F2A2005 PUSH1 0xE0 SHL DUP2 MSTORE REVERT JUMPDEST DUP2 MLOAD PUSH4 0xEB8953F PUSH1 0xE0 SHL DUP2 MSTORE PUSH1 0x20 DUP2 DUP6 ADD DUP2 DUP2 MSTORE PUSH1 0x13 SWAP2 DUP2 ADD SWAP2 SWAP1 SWAP2 MSTORE PUSH19 0x109D5C9B9A5B99C81A5CC8191A5CD8589B1959 PUSH1 0x6A SHL PUSH1 0x40 DUP3 ADD MSTORE DUP2 SWAP1 PUSH1 0x60 ADD SUB SWAP1 REVERT JUMPDEST DUP3 DUP5 CALLVALUE PUSH2 0x23D JUMPI DUP2 PUSH1 0x3 NOT CALLDATASIZE ADD SLT PUSH2 0x23D JUMPI PUSH1 0x20 SWAP1 MLOAD PUSH1 0xFF PUSH32 0x0 AND DUP2 MSTORE RETURN JUMPDEST POP CALLVALUE PUSH2 0x23D JUMPI PUSH2 0xDF0 CALLDATASIZE PUSH2 0x10D4 JUMP JUMPDEST PUSH1 0x1 PUSH1 0x1 PUSH1 0xA0 SHL SUB DUP4 AND DUP1 DUP7 MSTORE PUSH1 0x1 PUSH1 0x20 SWAP1 DUP2 MSTORE DUP8 DUP8 KECCAK256 CALLER DUP9 MSTORE SWAP1 MSTORE DUP7 DUP7 KECCAK256 SLOAD SWAP2 SWAP6 SWAP3 SWAP5 PUSH1 0x0 NOT DUP4 LT PUSH2 0xE2C JUMPI JUMPDEST PUSH1 0x20 DUP9 PUSH2 0x561 DUP10 DUP10 DUP10 PUSH2 0x1181 JUMP JUMPDEST DUP7 DUP4 LT PUSH2 0xE94 JUMPI DUP2 ISZERO PUSH2 0xE7D JUMPI CALLER ISZERO PUSH2 0xE66 JUMPI POP DUP3 MSTORE PUSH1 0x1 PUSH1 0x20 SWAP1 DUP2 MSTORE DUP7 DUP4 KECCAK256 CALLER DUP5 MSTORE DUP2 MSTORE SWAP2 DUP7 SWAP1 KECCAK256 SWAP1 DUP6 SWAP1 SUB SWAP1 SSTORE DUP3 SWAP1 PUSH2 0x561 CODESIZE PUSH2 0xE1E JUMP JUMPDEST DUP8 MLOAD PUSH4 0x4A1406B1 PUSH1 0xE1 SHL DUP2 MSTORE SWAP1 DUP2 ADD DUP5 SWAP1 MSTORE PUSH1 0x24 SWAP1 REVERT JUMPDEST DUP8 MLOAD PUSH4 0xE602DF05 PUSH1 0xE0 SHL DUP2 MSTORE SWAP1 DUP2 ADD DUP5 SWAP1 MSTORE PUSH1 0x24 SWAP1 REVERT JUMPDEST DUP8 MLOAD PUSH4 0x7DC7A0D9 PUSH1 0xE1 SHL DUP2 MSTORE CALLER SWAP2 DUP2 ADD SWAP2 DUP3 MSTORE PUSH1 0x20 DUP3 ADD SWAP4 SWAP1 SWAP4 MSTORE PUSH1 0x40 DUP2 ADD DUP8 SWAP1 MSTORE DUP3 SWAP2 POP PUSH1 0x60 ADD SUB SWAP1 REVERT JUMPDEST DUP3 DUP5 CALLVALUE PUSH2 0x23D JUMPI DUP2 PUSH1 0x3 NOT CALLDATASIZE ADD SLT PUSH2 0x23D JUMPI PUSH1 0x20 SWAP1 PUSH1 0x2 SLOAD SWAP1 MLOAD SWAP1 DUP2 MSTORE RETURN JUMPDEST POP DUP3 SWAP1 CALLVALUE PUSH2 0x2D3 JUMPI DUP2 PUSH1 0x3 NOT CALLDATASIZE ADD SLT PUSH2 0x2D3 JUMPI PUSH2 0xEFA PUSH2 0x10BE JUMP JUMPDEST PUSH1 0x24 CALLDATALOAD SWAP1 CALLER ISZERO PUSH2 0xF73 JUMPI PUSH1 0x1 PUSH1 0x1 PUSH1 0xA0 SHL SUB AND SWAP2 DUP3 ISZERO PUSH2 0xF5C JUMPI POP DUP1 DUP4 PUSH1 0x20 SWAP6 CALLER DUP2 MSTORE PUSH1 0x1 DUP8 MSTORE DUP2 DUP2 KECCAK256 DUP6 DUP3 MSTORE DUP8 MSTORE KECCAK256 SSTORE DUP3 MLOAD SWAP1 DUP2 MSTORE PUSH32 0x8C5BE1E5EBEC7D5BD14F71427D1E84F3DD0314C0F7B2291E5B200AC8C7C3B925 DUP5 CALLER SWAP3 LOG3 MLOAD PUSH1 0x1 DUP2 MSTORE RETURN JUMPDEST DUP4 MLOAD PUSH4 0x4A1406B1 PUSH1 0xE1 SHL DUP2 MSTORE SWAP1 DUP2 ADD DUP6 SWAP1 MSTORE PUSH1 0x24 SWAP1 REVERT JUMPDEST DUP4 MLOAD PUSH4 0xE602DF05 PUSH1 0xE0 SHL DUP2 MSTORE DUP1 DUP5 ADD DUP7 SWAP1 MSTORE PUSH1 0x24 SWAP1 REVERT JUMPDEST SWAP1 POP DUP3 DUP5 CALLVALUE PUSH2 0x23D JUMPI DUP2 PUSH1 0x3 NOT CALLDATASIZE ADD SLT PUSH2 0x23D JUMPI DUP2 PUSH1 0x3 SLOAD SWAP3 PUSH1 0x1 DUP5 DUP2 SHR SWAP2 DUP2 DUP7 AND SWAP6 DUP7 ISZERO PUSH2 0x1074 JUMPI JUMPDEST PUSH1 0x20 SWAP7 DUP8 DUP6 LT DUP2 EQ PUSH2 0x739 JUMPI DUP9 SWAP10 POP SWAP7 DUP9 SWAP7 SWAP8 DUP6 DUP3 SWAP11 MSTORE SWAP2 DUP3 PUSH1 0x0 EQ PUSH2 0x104D JUMPI POP POP PUSH1 0x1 EQ PUSH2 0xFF1 JUMPI JUMPDEST POP POP POP PUSH2 0x6B0 SWAP3 SWAP2 PUSH2 0x6A1 SWAP2 SUB DUP6 PUSH2 0x115F JUMP JUMPDEST SWAP2 SWAP1 DUP7 SWAP4 POP PUSH1 0x3 DUP4 MSTORE PUSH32 0xC2575A0E9E593C00F959F8C92F12DB2869C3395A3B0502D05E2516446F71F85B JUMPDEST DUP3 DUP5 LT PUSH2 0x1035 JUMPI POP POP POP DUP3 ADD ADD DUP2 PUSH2 0x6A1 PUSH2 0x6B0 PUSH2 0xFDE JUMP JUMPDEST DUP1 SLOAD DUP5 DUP11 ADD DUP7 ADD MSTORE DUP9 SWAP6 POP DUP8 SWAP5 SWAP1 SWAP4 ADD SWAP3 DUP2 ADD PUSH2 0x101C JUMP JUMPDEST PUSH1 0xFF NOT AND DUP8 DUP3 ADD MSTORE SWAP4 ISZERO ISZERO PUSH1 0x5 SHL DUP7 ADD SWAP1 SWAP4 ADD SWAP4 POP DUP5 SWAP3 POP PUSH2 0x6A1 SWAP2 POP PUSH2 0x6B0 SWAP1 POP PUSH2 0xFDE JUMP JUMPDEST SWAP3 PUSH1 0x7F AND SWAP3 PUSH2 0xFB4 JUMP JUMPDEST SWAP2 SWAP1 DUP3 MLOAD SWAP3 DUP4 DUP3 MSTORE PUSH1 0x0 JUMPDEST DUP5 DUP2 LT PUSH2 0x10AA JUMPI POP POP DUP3 PUSH1 0x0 PUSH1 0x20 DUP1 SWAP5 SWAP6 DUP5 ADD ADD MSTORE PUSH1 0x1F DUP1 NOT SWAP2 ADD AND ADD ADD SWAP1 JUMP JUMPDEST PUSH1 0x20 DUP2 DUP4 ADD DUP2 ADD MLOAD DUP5 DUP4 ADD DUP3 ADD MSTORE ADD PUSH2 0x1089 JUMP JUMPDEST PUSH1 0x4 CALLDATALOAD SWAP1 PUSH1 0x1 PUSH1 0x1 PUSH1 0xA0 SHL SUB DUP3 AND DUP3 SUB PUSH2 0x329 JUMPI JUMP JUMPDEST PUSH1 0x60 SWAP1 PUSH1 0x3 NOT ADD SLT PUSH2 0x329 JUMPI PUSH1 0x1 PUSH1 0x1 PUSH1 0xA0 SHL SUB SWAP1 PUSH1 0x4 CALLDATALOAD DUP3 DUP2 AND DUP2 SUB PUSH2 0x329 JUMPI SWAP2 PUSH1 0x24 CALLDATALOAD SWAP1 DUP2 AND DUP2 SUB PUSH2 0x329 JUMPI SWAP1 PUSH1 0x44 CALLDATALOAD SWAP1 JUMP JUMPDEST PUSH1 0x5 SLOAD PUSH1 0x1 PUSH1 0x1 PUSH1 0xA0 SHL SUB AND CALLER SUB PUSH2 0x111D JUMPI JUMP JUMPDEST PUSH1 0x40 MLOAD PUSH4 0x118CDAA7 PUSH1 0xE0 SHL DUP2 MSTORE CALLER PUSH1 0x4 DUP3 ADD MSTORE PUSH1 0x24 SWAP1 REVERT JUMPDEST PUSH8 0xFFFFFFFFFFFFFFFF DUP2 GT PUSH2 0x1149 JUMPI PUSH1 0x40 MSTORE JUMP JUMPDEST PUSH4 0x4E487B71 PUSH1 0xE0 SHL PUSH1 0x0 MSTORE PUSH1 0x41 PUSH1 0x4 MSTORE PUSH1 0x24 PUSH1 0x0 REVERT JUMPDEST SWAP1 PUSH1 0x1F DUP1 NOT SWAP2 ADD AND DUP2 ADD SWAP1 DUP2 LT PUSH8 0xFFFFFFFFFFFFFFFF DUP3 GT OR PUSH2 0x1149 JUMPI PUSH1 0x40 MSTORE JUMP JUMPDEST SWAP2 PUSH1 0x1 PUSH1 0x1 PUSH1 0xA0 SHL SUB DUP1 DUP5 AND SWAP3 DUP4 ISZERO PUSH2 0x1246 JUMPI AND SWAP3 DUP4 ISZERO PUSH2 0x122D JUMPI PUSH1 0x0 SWAP1 DUP4 DUP3 MSTORE DUP2 PUSH1 0x20 MSTORE PUSH1 0x40 DUP3 KECCAK256 SLOAD SWAP1 DUP4 DUP3 LT PUSH2 0x11FB JUMPI POP SWAP2 PUSH1 0x40 DUP3 DUP3 PUSH32 0xDDF252AD1BE2C89B69C2B068FC378DAA952BA7F163C4A11628F55A4DF523B3EF SWAP6 DUP8 PUSH1 0x20 SWAP7 MSTORE DUP3 DUP7 MSTORE SUB DUP3 DUP3 KECCAK256 SSTORE DUP7 DUP2 MSTORE KECCAK256 DUP2 DUP2 SLOAD ADD SWAP1 SSTORE PUSH1 0x40 MLOAD SWAP1 DUP2 MSTORE LOG3 JUMP JUMPDEST PUSH1 0x40 MLOAD PUSH4 0x391434E3 PUSH1 0xE2 SHL DUP2 MSTORE PUSH1 0x1 PUSH1 0x1 PUSH1 0xA0 SHL SUB SWAP2 SWAP1 SWAP2 AND PUSH1 0x4 DUP3 ADD MSTORE PUSH1 0x24 DUP2 ADD SWAP2 SWAP1 SWAP2 MSTORE PUSH1 0x44 DUP2 ADD DUP4 SWAP1 MSTORE PUSH1 0x64 SWAP1 REVERT JUMPDEST PUSH1 0x40 MLOAD PUSH4 0xEC442F05 PUSH1 0xE0 SHL DUP2 MSTORE PUSH1 0x0 PUSH1 0x4 DUP3 ADD MSTORE PUSH1 0x24 SWAP1 REVERT JUMPDEST PUSH1 0x40 MLOAD PUSH4 0x4B637E8F PUSH1 0xE1 SHL DUP2 MSTORE PUSH1 0x0 PUSH1 0x4 DUP3 ADD MSTORE PUSH1 0x24 SWAP1 REVERT JUMPDEST SWAP2 SWAP1 DUP3 ADD DUP1 SWAP3 GT PUSH2 0x126C JUMPI JUMP JUMPDEST PUSH4 0x4E487B71 PUSH1 0xE0 SHL PUSH1 0x0 MSTORE PUSH1 0x11 PUSH1 0x4 MSTORE PUSH1 0x24 PUSH1 0x0 REVERT JUMPDEST PUSH1 0x0 SWAP1 PUSH1 0x3 RETURNDATASIZE GT PUSH2 0x128F JUMPI JUMP JUMPDEST SWAP1 POP PUSH1 0x4 PUSH1 0x0 DUP1 RETURNDATACOPY PUSH1 0x0 MLOAD PUSH1 0xE0 SHR SWAP1 JUMP JUMPDEST PUSH1 0x0 PUSH1 0x44 RETURNDATASIZE LT PUSH2 0x12FE JUMPI PUSH1 0x40 MLOAD PUSH1 0x3 NOT SWAP2 RETURNDATASIZE DUP4 ADD PUSH1 0x4 DUP4 RETURNDATACOPY DUP2 MLOAD PUSH8 0xFFFFFFFFFFFFFFFF SWAP2 DUP3 DUP3 GT RETURNDATASIZE PUSH1 0x24 DUP5 ADD GT OR PUSH2 0x1301 JUMPI DUP2 DUP5 ADD SWAP5 DUP6 MLOAD SWAP4 DUP5 GT PUSH2 0x1309 JUMPI RETURNDATASIZE DUP6 ADD ADD PUSH1 0x20 DUP5 DUP8 ADD ADD GT PUSH2 0x1301 JUMPI POP PUSH2 0x12FE SWAP3 SWAP2 ADD PUSH1 0x20 ADD SWAP1 PUSH2 0x115F JUMP JUMPDEST SWAP1 JUMP JUMPDEST SWAP5 SWAP4 POP POP POP POP JUMP JUMPDEST POP SWAP5 SWAP4 POP POP POP POP JUMP JUMPDEST SWAP2 SWAP1 DUP3 SUB SWAP2 DUP3 GT PUSH2 0x126C JUMPI JUMP JUMPDEST PUSH2 0x12FE SWAP4 SWAP3 PUSH1 0x60 SWAP3 PUSH1 0x1 DUP1 PUSH1 0xA0 SHL SUB AND DUP3 MSTORE PUSH1 0x20 DUP3 ADD MSTORE DUP2 PUSH1 0x40 DUP3 ADD MSTORE ADD SWAP1 PUSH2 0x107E JUMP JUMPDEST SWAP1 SWAP2 PUSH1 0xA0 SWAP3 PUSH1 0x1 DUP1 DUP6 SHL SUB AND DUP3 MSTORE PUSH1 0x20 DUP3 ADD MSTORE PUSH1 0x60 PUSH1 0x40 DUP3 ADD MSTORE PUSH1 0x12 PUSH1 0x60 DUP3 ADD MSTORE PUSH18 0x2AB735B737BBB710313AB9371032B93937B9 PUSH1 0x71 SHL PUSH1 0x80 DUP3 ADD MSTORE ADD SWAP1 JUMP JUMPDEST PUSH1 0x2 PUSH1 0x6 SLOAD EQ PUSH2 0x1394 JUMPI PUSH1 0x2 PUSH1 0x6 SSTORE JUMP JUMPDEST PUSH1 0x40 MLOAD PUSH4 0x3EE5AEB5 PUSH1 0xE0 SHL DUP2 MSTORE PUSH1 0x4 SWAP1 REVERT INVALID LOG2 PUSH5 0x6970667358 0x22 SLT KECCAK256 0xCD PUSH18 0x1DA2A8CBE2259CA40FD30FA7084F8AA4A846 0xE6 0xD0 0xD6 BYTE DUP14 0xCD CALLER LT DUP1 0xB5 0xDA SIGNEXTEND PUSH5 0x736F6C6343 STOP ADDMOD EQ STOP CALLER "},"methodIdentifiers":{"_performBurn(address,uint256)":"f658f32a","allowance(address,address)":"dd62ed3e","approve(address,uint256)":"095ea7b3","balanceOf(address)":"70a08231","burn(uint256)":"42966c68","burnEnabled()":"5dc96d16","burnFrom(address,uint256)":"79cc6790","decimals()":"313ce567","emergencyRecover(address,address,uint256)":"ad1329d1","factory()":"c45a0155","factoryMint(address,uint256)":"a4f0ecd3","gameId()":"d7c81b55","mint(address)":"6a627842","name()":"06fdde03","owner()":"8da5cb5b","renounceOwnership()":"715018a6","setBurnEnabled(bool)":"7b2c835f","symbol()":"95d89b41","totalBurned()":"d89135cd","totalSupply()":"18160ddd","transfer(address,uint256)":"a9059cbb","transferFrom(address,address,uint256)":"23b872dd","transferOwnership(address)":"f2fde38b"}}}}}