{"contracts/GameTokenFactory.sol":{"GameTokenFactory":{"abi":[{"inputs":[{"internalType":"address","name":"_credaToken","type":"address"},{"internalType":"address","name":"_xpToken","type":"address"}],"stateMutability":"nonpayable","type":"constructor"},{"inputs":[],"name":"AccessControlBadConfirmation","type":"error"},{"inputs":[{"internalType":"address","name":"account","type":"address"},{"internalType":"bytes32","name":"neededRole","type":"bytes32"}],"name":"AccessControlUnauthorizedAccount","type":"error"},{"inputs":[{"internalType":"address","name":"token","type":"address"},{"internalType":"address","name":"from","type":"address"},{"internalType":"uint256","name":"amount","type":"uint256"}],"name":"BurnFailed","type":"error"},{"inputs":[],"name":"ContractNotPaused","type":"error"},{"inputs":[],"name":"ContractPaused","type":"error"},{"inputs":[{"internalType":"uint256","name":"input","type":"uint256"},{"internalType":"uint256","name":"rate","type":"uint256"}],"name":"ConversionResultsInZero","type":"error"},{"inputs":[{"internalType":"string","name":"operation","type":"string"}],"name":"DivisionByZero","type":"error"},{"inputs":[{"internalType":"address","name":"user","type":"address"},{"internalType":"string","name":"name","type":"string"}],"name":"DuplicateGameName","type":"error"},{"inputs":[{"internalType":"string","name":"action","type":"string"},{"internalType":"string","name":"reason","type":"string"}],"name":"EmergencyActionFailed","type":"error"},{"inputs":[{"internalType":"string","name":"fieldName","type":"string"}],"name":"EmptyString","type":"error"},{"inputs":[],"name":"EnforcedPause","type":"error"},{"inputs":[{"internalType":"uint256","name":"provided","type":"uint256"},{"internalType":"uint256","name":"maximum","type":"uint256"}],"name":"ExcessiveAmount","type":"error"},{"inputs":[],"name":"ExpectedPause","type":"error"},{"inputs":[{"internalType":"address","name":"target","type":"address"},{"internalType":"bytes","name":"data","type":"bytes"}],"name":"ExternalCallFailed","type":"error"},{"inputs":[{"internalType":"string","name":"reason","type":"string"}],"name":"GameTokenDeploymentFailed","type":"error"},{"inputs":[{"internalType":"address","name":"user","type":"address"},{"internalType":"uint256","name":"current","type":"uint256"},{"internalType":"uint256","name":"maximum","type":"uint256"}],"name":"GameTokenLimitExceeded","type":"error"},{"inputs":[{"internalType":"uint256","name":"gameId","type":"uint256"}],"name":"GameTokenNotActive","type":"error"},{"inputs":[{"internalType":"address","name":"user","type":"address"},{"internalType":"address","name":"spender","type":"address"},{"internalType":"address","name":"token","type":"address"},{"internalType":"uint256","name":"required","type":"uint256"},{"internalType":"uint256","name":"current","type":"uint256"}],"name":"InsufficientAllowance","type":"error"},{"inputs":[{"internalType":"uint256","name":"provided","type":"uint256"},{"internalType":"uint256","name":"required","type":"uint256"}],"name":"InsufficientAmount","type":"error"},{"inputs":[{"internalType":"address","name":"user","type":"address"},{"internalType":"address","name":"token","type":"address"},{"internalType":"uint256","name":"required","type":"uint256"},{"internalType":"uint256","name":"available","type":"uint256"}],"name":"InsufficientUserBalance","type":"error"},{"inputs":[{"internalType":"uint256","name":"required","type":"uint256"},{"internalType":"uint256","name":"available","type":"uint256"}],"name":"InsufficientXpReserves","type":"error"},{"inputs":[{"internalType":"string","name":"operation","type":"string"},{"internalType":"string","name":"reason","type":"string"}],"name":"InvalidCalculation","type":"error"},{"inputs":[{"internalType":"string","name":"fieldName","type":"string"}],"name":"InvalidCharacters","type":"error"},{"inputs":[{"internalType":"string","name":"reason","type":"string"}],"name":"InvalidContractState","type":"error"},{"inputs":[{"internalType":"uint256","name":"rate","type":"uint256"}],"name":"InvalidConversionRate","type":"error"},{"inputs":[{"internalType":"uint8","name":"provided","type":"uint8"},{"internalType":"uint8","name":"maxAllowed","type":"uint8"}],"name":"InvalidDecimals","type":"error"},{"inputs":[{"internalType":"uint256","name":"provided","type":"uint256"},{"internalType":"uint256","name":"maxValid","type":"uint256"}],"name":"InvalidGameId","type":"error"},{"inputs":[{"internalType":"uint256","name":"calculated","type":"uint256"},{"internalType":"uint256","name":"minimum","type":"uint256"},{"internalType":"uint256","name":"maximum","type":"uint256"}],"name":"InvalidInitialSupply","type":"error"},{"inputs":[{"internalType":"address","name":"target","type":"address"}],"name":"InvalidRecoveryTarget","type":"error"},{"inputs":[{"internalType":"bytes32","name":"role","type":"bytes32"}],"name":"InvalidRole","type":"error"},{"inputs":[{"internalType":"string","name":"operation","type":"string"}],"name":"MathOverflow","type":"error"},{"inputs":[{"internalType":"string","name":"operation","type":"string"}],"name":"MathUnderflow","type":"error"},{"inputs":[{"internalType":"address","name":"token","type":"address"},{"internalType":"address","name":"to","type":"address"},{"internalType":"uint256","name":"amount","type":"uint256"}],"name":"MintFailed","type":"error"},{"inputs":[{"internalType":"uint256","name":"oldRate","type":"uint256"},{"internalType":"uint256","name":"newRate","type":"uint256"},{"internalType":"uint256","name":"maxChangePercent","type":"uint256"}],"name":"RateChangeTooBig","type":"error"},{"inputs":[{"internalType":"address","name":"token","type":"address"},{"internalType":"string","name":"reason","type":"string"}],"name":"RecoveryNotAllowed","type":"error"},{"inputs":[],"name":"ReentrancyDetected","type":"error"},{"inputs":[],"name":"ReentrancyGuardReentrantCall","type":"error"},{"inputs":[{"internalType":"address","name":"account","type":"address"},{"internalType":"bytes32","name":"role","type":"bytes32"}],"name":"RoleAlreadyGranted","type":"error"},{"inputs":[{"internalType":"address","name":"account","type":"address"},{"internalType":"bytes32","name":"role","type":"bytes32"}],"name":"RoleNotGranted","type":"error"},{"inputs":[{"internalType":"string","name":"fieldName","type":"string"},{"internalType":"uint256","name":"length","type":"uint256"},{"internalType":"uint256","name":"maxLength","type":"uint256"}],"name":"StringTooLong","type":"error"},{"inputs":[{"internalType":"address","name":"user","type":"address"},{"internalType":"uint256","name":"timeRemaining","type":"uint256"}],"name":"TokenCreationCooldown","type":"error"},{"inputs":[{"internalType":"address","name":"token","type":"address"},{"internalType":"address","name":"from","type":"address"},{"internalType":"address","name":"to","type":"address"},{"internalType":"uint256","name":"amount","type":"uint256"}],"name":"TransferFailed","type":"error"},{"inputs":[{"internalType":"address","name":"caller","type":"address"},{"internalType":"bytes32","name":"requiredRole","type":"bytes32"}],"name":"UnauthorizedAccess","type":"error"},{"inputs":[],"name":"ZeroAddress","type":"error"},{"inputs":[],"name":"ZeroAmount","type":"error"},{"inputs":[],"name":"ZeroRate","type":"error"},{"anonymous":false,"inputs":[{"indexed":true,"internalType":"address","name":"user","type":"address"},{"indexed":false,"internalType":"uint256","name":"credaAmount","type":"uint256"},{"indexed":false,"internalType":"uint256","name":"xpMinted","type":"uint256"}],"name":"CredaLocked","type":"event"},{"anonymous":false,"inputs":[{"indexed":true,"internalType":"address","name":"token","type":"address"},{"indexed":true,"internalType":"address","name":"to","type":"address"},{"indexed":false,"internalType":"uint256","name":"amount","type":"uint256"}],"name":"EmergencyWithdraw","type":"event"},{"anonymous":false,"inputs":[{"indexed":true,"internalType":"uint256","name":"gameId","type":"uint256"},{"indexed":true,"internalType":"address","name":"user","type":"address"},{"indexed":false,"internalType":"uint256","name":"burnAmount","type":"uint256"},{"indexed":false,"internalType":"uint256","name":"xpReturned","type":"uint256"}],"name":"GameTokenBurned","type":"event"},{"anonymous":false,"inputs":[{"indexed":true,"internalType":"uint256","name":"gameId","type":"uint256"},{"indexed":true,"internalType":"address","name":"creator","type":"address"},{"indexed":true,"internalType":"address","name":"tokenAddress","type":"address"},{"indexed":false,"internalType":"string","name":"name","type":"string"},{"indexed":false,"internalType":"string","name":"symbol","type":"string"},{"indexed":false,"internalType":"uint256","name":"xpLocked","type":"uint256"},{"indexed":false,"internalType":"uint256","name":"initialSupply","type":"uint256"}],"name":"GameTokenCreated","type":"event"},{"anonymous":false,"inputs":[{"indexed":false,"internalType":"address","name":"account","type":"address"}],"name":"Paused","type":"event"},{"anonymous":false,"inputs":[{"indexed":false,"internalType":"uint256","name":"oldRate","type":"uint256"},{"indexed":false,"internalType":"uint256","name":"newRate","type":"uint256"}],"name":"RateUpdated","type":"event"},{"anonymous":false,"inputs":[{"indexed":true,"internalType":"bytes32","name":"role","type":"bytes32"},{"indexed":true,"internalType":"bytes32","name":"previousAdminRole","type":"bytes32"},{"indexed":true,"internalType":"bytes32","name":"newAdminRole","type":"bytes32"}],"name":"RoleAdminChanged","type":"event"},{"anonymous":false,"inputs":[{"indexed":true,"internalType":"bytes32","name":"role","type":"bytes32"},{"indexed":true,"internalType":"address","name":"account","type":"address"},{"indexed":true,"internalType":"address","name":"sender","type":"address"}],"name":"RoleGranted","type":"event"},{"anonymous":false,"inputs":[{"indexed":true,"internalType":"bytes32","name":"role","type":"bytes32"},{"indexed":true,"internalType":"address","name":"account","type":"address"},{"indexed":true,"internalType":"address","name":"sender","type":"address"}],"name":"RoleRevoked","type":"event"},{"anonymous":false,"inputs":[{"indexed":false,"internalType":"address","name":"account","type":"address"}],"name":"Unpaused","type":"event"},{"inputs":[],"name":"DEFAULT_ADMIN_ROLE","outputs":[{"internalType":"bytes32","name":"","type":"bytes32"}],"stateMutability":"view","type":"function"},{"inputs":[],"name":"EMERGENCY_ROLE","outputs":[{"internalType":"bytes32","name":"","type":"bytes32"}],"stateMutability":"view","type":"function"},{"inputs":[],"name":"MAX_GAME_TOKEN_DECIMALS","outputs":[{"internalType":"uint256","name":"","type":"uint256"}],"stateMutability":"view","type":"function"},{"inputs":[],"name":"MAX_NAME_LENGTH","outputs":[{"internalType":"uint256","name":"","type":"uint256"}],"stateMutability":"view","type":"function"},{"inputs":[],"name":"MAX_SYMBOL_LENGTH","outputs":[{"internalType":"uint256","name":"","type":"uint256"}],"stateMutability":"view","type":"function"},{"inputs":[],"name":"MIN_XP_LOCK_AMOUNT","outputs":[{"internalType":"uint256","name":"","type":"uint256"}],"stateMutability":"view","type":"function"},{"inputs":[],"name":"PAUSER_ROLE","outputs":[{"internalType":"bytes32","name":"","type":"bytes32"}],"stateMutability":"view","type":"function"},{"inputs":[],"name":"PRECISION_FACTOR","outputs":[{"internalType":"uint256","name":"","type":"uint256"}],"stateMutability":"view","type":"function"},{"inputs":[],"name":"RATE_MANAGER_ROLE","outputs":[{"internalType":"bytes32","name":"","type":"bytes32"}],"stateMutability":"view","type":"function"},{"inputs":[{"internalType":"uint256","name":"gameId","type":"uint256"},{"internalType":"uint256","name":"burnAmount","type":"uint256"}],"name":"burnGameToken","outputs":[],"stateMutability":"nonpayable","type":"function"},{"inputs":[{"internalType":"uint256","name":"credaAmount","type":"uint256"}],"name":"calculateXpAmount","outputs":[{"internalType":"uint256","name":"","type":"uint256"}],"stateMutability":"view","type":"function"},{"inputs":[{"internalType":"uint256","name":"gameId","type":"uint256"},{"internalType":"uint256","name":"burnAmount","type":"uint256"}],"name":"calculateXpReturn","outputs":[{"internalType":"uint256","name":"","type":"uint256"}],"stateMutability":"view","type":"function"},{"inputs":[{"internalType":"uint256","name":"xpAmount","type":"uint256"},{"internalType":"string","name":"name","type":"string"},{"internalType":"string","name":"symbol","type":"string"},{"internalType":"uint8","name":"decimals","type":"uint8"}],"name":"createGameToken","outputs":[{"internalType":"uint256","name":"gameId","type":"uint256"},{"internalType":"address","name":"tokenAddress","type":"address"}],"stateMutability":"nonpayable","type":"function"},{"inputs":[],"name":"credaToXpRate","outputs":[{"internalType":"uint256","name":"","type":"uint256"}],"stateMutability":"view","type":"function"},{"inputs":[],"name":"credaToken","outputs":[{"internalType":"contract IERC20","name":"","type":"address"}],"stateMutability":"view","type":"function"},{"inputs":[{"internalType":"address","name":"token","type":"address"},{"internalType":"address","name":"to","type":"address"},{"internalType":"uint256","name":"amount","type":"uint256"}],"name":"emergencyWithdraw","outputs":[],"stateMutability":"nonpayable","type":"function"},{"inputs":[{"internalType":"uint256","name":"","type":"uint256"}],"name":"gameTokenMetadata","outputs":[{"internalType":"string","name":"name","type":"string"},{"internalType":"string","name":"symbol","type":"string"},{"internalType":"uint256","name":"initialSupply","type":"uint256"},{"internalType":"uint256","name":"creationTime","type":"uint256"}],"stateMutability":"view","type":"function"},{"inputs":[{"internalType":"uint256","name":"","type":"uint256"}],"name":"gameTokens","outputs":[{"internalType":"address","name":"tokenAddress","type":"address"},{"internalType":"address","name":"creator","type":"address"},{"internalType":"uint88","name":"xpLocked","type":"uint88"},{"internalType":"uint8","name":"decimals","type":"uint8"},{"internalType":"bool","name":"active","type":"bool"}],"stateMutability":"view","type":"function"},{"inputs":[{"internalType":"uint256","name":"gameId","type":"uint256"}],"name":"getGameTokenInfo","outputs":[{"components":[{"internalType":"address","name":"tokenAddress","type":"address"},{"internalType":"address","name":"creator","type":"address"},{"internalType":"uint88","name":"xpLocked","type":"uint88"},{"internalType":"uint8","name":"decimals","type":"uint8"},{"internalType":"bool","name":"active","type":"bool"}],"internalType":"struct GameTokenFactory.GameTokenInfo","name":"info","type":"tuple"},{"components":[{"internalType":"string","name":"name","type":"string"},{"internalType":"string","name":"symbol","type":"string"},{"internalType":"uint256","name":"initialSupply","type":"uint256"},{"internalType":"uint256","name":"creationTime","type":"uint256"}],"internalType":"struct GameTokenFactory.GameTokenMetadata","name":"metadata","type":"tuple"}],"stateMutability":"view","type":"function"},{"inputs":[{"internalType":"bytes32","name":"role","type":"bytes32"}],"name":"getRoleAdmin","outputs":[{"internalType":"bytes32","name":"","type":"bytes32"}],"stateMutability":"view","type":"function"},{"inputs":[{"internalType":"address","name":"user","type":"address"}],"name":"getUserGameTokens","outputs":[{"internalType":"uint256[]","name":"","type":"uint256[]"}],"stateMutability":"view","type":"function"},{"inputs":[{"internalType":"bytes32","name":"role","type":"bytes32"},{"internalType":"address","name":"account","type":"address"}],"name":"grantRole","outputs":[],"stateMutability":"nonpayable","type":"function"},{"inputs":[{"internalType":"bytes32","name":"role","type":"bytes32"},{"internalType":"address","name":"account","type":"address"}],"name":"hasRole","outputs":[{"internalType":"bool","name":"","type":"bool"}],"stateMutability":"view","type":"function"},{"inputs":[{"internalType":"address","name":"user","type":"address"},{"internalType":"string","name":"name","type":"string"}],"name":"isGameNameUsed","outputs":[{"internalType":"bool","name":"","type":"bool"}],"stateMutability":"view","type":"function"},{"inputs":[{"internalType":"uint256","name":"amountCreda","type":"uint256"}],"name":"lockCreda","outputs":[],"stateMutability":"nonpayable","type":"function"},{"inputs":[],"name":"nextGameId","outputs":[{"internalType":"uint256","name":"","type":"uint256"}],"stateMutability":"view","type":"function"},{"inputs":[],"name":"pause","outputs":[],"stateMutability":"nonpayable","type":"function"},{"inputs":[],"name":"paused","outputs":[{"internalType":"bool","name":"","type":"bool"}],"stateMutability":"view","type":"function"},{"inputs":[{"internalType":"bytes32","name":"role","type":"bytes32"},{"internalType":"address","name":"callerConfirmation","type":"address"}],"name":"renounceRole","outputs":[],"stateMutability":"nonpayable","type":"function"},{"inputs":[{"internalType":"bytes32","name":"role","type":"bytes32"},{"internalType":"address","name":"account","type":"address"}],"name":"revokeRole","outputs":[],"stateMutability":"nonpayable","type":"function"},{"inputs":[{"internalType":"uint256","name":"newRate","type":"uint256"}],"name":"setRate","outputs":[],"stateMutability":"nonpayable","type":"function"},{"inputs":[{"internalType":"bytes4","name":"interfaceId","type":"bytes4"}],"name":"supportsInterface","outputs":[{"internalType":"bool","name":"","type":"bool"}],"stateMutability":"view","type":"function"},{"inputs":[],"name":"totalLockedCreda","outputs":[{"internalType":"uint256","name":"","type":"uint256"}],"stateMutability":"view","type":"function"},{"inputs":[],"name":"unpause","outputs":[],"stateMutability":"nonpayable","type":"function"},{"inputs":[{"internalType":"address","name":"","type":"address"},{"internalType":"string","name":"","type":"string"}],"name":"userGameNames","outputs":[{"internalType":"bool","name":"","type":"bool"}],"stateMutability":"view","type":"function"},{"inputs":[{"internalType":"address","name":"","type":"address"},{"internalType":"uint256","name":"","type":"uint256"}],"name":"userGameTokens","outputs":[{"internalType":"uint256","name":"","type":"uint256"}],"stateMutability":"view","type":"function"},{"inputs":[{"internalType":"address","name":"","type":"address"}],"name":"userLockedCreda","outputs":[{"internalType":"uint256","name":"","type":"uint256"}],"stateMutability":"view","type":"function"},{"inputs":[],"name":"xpReserves","outputs":[{"internalType":"uint256","name":"","type":"uint256"}],"stateMutability":"view","type":"function"},{"inputs":[],"name":"xpToken","outputs":[{"internalType":"contract IERC20","name":"","type":"address"}],"stateMutability":"view","type":"function"}],"evm":{"bytecode":{"linkReferences":{},"object":"60c034620001b157620050f190601f38839003908101601f19168201906001600160401b03821183831017620001b65780839160409586948552833981010312620001b1576200005d60206200005583620001cc565b9201620001cc565b60016002819055670de0b6b3a76400006003556004556001600160a01b0391821691908215620001a057169081156200018f578181146200013b5760805260a052620000a933620001e1565b50620000b53362000261565b50620000c13362000303565b50620000cd33620003a0565b5051614c9390816200043e8239608051818181610fe4015281816110c00152611614015260a051818181610591015281816105c20152818161062001528181610764015281816107c001528181610887015281816108e3015281816117ba01528181611a7d0152611e690152f35b825163313b9aa160e21b815260206004820152602660248201527f435245444120616e6420585020746f6b656e732063616e6e6f74206265207468604482015265652073616d6560d01b6064820152608490fd5b825163d92e233d60e01b8152600490fd5b835163d92e233d60e01b8152600490fd5b600080fd5b634e487b7160e01b600052604160045260246000fd5b51906001600160a01b0382168203620001b157565b6001600160a01b031660008181527fad3228b676f7d3cd4284a5443f17f1962b36e491b30a40b2405849e597ba5fb5602052604081205490919060ff166200025d57818052816020526040822081835260205260408220600160ff198254161790553391600080516020620050d18339815191528180a4600190565b5090565b6001600160a01b031660008181527f43393de9c580acbb6a28cd9d65b7ec5698943d0e6fec07062b42a76c1fb8aeb960205260408120549091907f9f29eee2263c2102949fd3febafb3dd6dbbaee114f48a474222b2159942eb2b29060ff16620002fe57808352826020526040832082845260205260408320600160ff19825416179055600080516020620050d1833981519152339380a4600190565b505090565b6001600160a01b031660008181527ff7c9542c591017a21c74b6f3fab6263c7952fc0aaf9db4c22a2a04ddc7f8674f60205260408120549091907f65d7a28e3265b37a6474929f336521b332c1681b933f6cb9f3376673440d862a9060ff16620002fe57808352826020526040832082845260205260408320600160ff19825416179055600080516020620050d1833981519152339380a4600190565b6001600160a01b031660008181527f3c1b1854ab1360abbb06c8d4c6b2672d4b8cedc5eff522ab19e51d5cb8fdbd4660205260408120549091907fbf233dd2aafeb4d50879c4aa5c81e96d92f6e6945c906a58f9f2d1c1631b4b269060ff16620002fe57808352826020526040832082845260205260408320600160ff19825416179055600080516020620050d1833981519152339380a460019056fe60808060405260043610156200001457600080fd5b600090813560e01c90816301ffc9a714620027d95750806305a61954146200275757806307819945146200271a5780631bf44cb0146200267f57806320df43591462002642578063238d4af81462002622578063248a9ca314620025f45780632f2ff15d14620025af57806334fcf437146200242057806336568abe14620023d15780633b420a7314620023aa5780633f4ba83a146200233a578063546fdad414620022825780635c975abb146200225d5780635e79c1dc14620020c65780635ed6c1db1462001c0f5780636d8554e21462001bef57806374b334c51462001bb75780638456cb591462001b57578063860749851462001b395780638760550d14620014ca57806391d148541462001aea578063a217fddf1462001acc578063aa6450ce1462001aac578063ae5014b11462001a65578063b135bbb01462001a45578063bec697db14620015d6578063bf034b69146200156a578063c21c64a7146200150d578063cb327b8b14620014d0578063ccd34cd514620014ca578063d547741f1462001481578063df525b7d1462001463578063e3d891711462001445578063e63ab1e91462001408578063e63ea4081462001013578063ecdf8fc41462000fcc578063f71575581462000f505763fd44d27414620001f657600080fd5b346200084d5760803660031901126200084d576024356001600160401b0381116200094e576200022b90369060040162002aff565b91906044356001600160401b03811162000f4c576200024f90369060040162002aff565b90916064359260ff8416840362000f48576200026a62002cf7565b6200027462002d16565b670de0b6b3a764000094856004351062000f2857601260ff86161162000f065760405195620002a387620028d2565b60048752636e616d6560e01b6020880152620002c136898662002a58565b9586511562000eab5786516064811162000ecf575060005b87518110156200040a5760ff60f81b6020828a01015116600360fc1b8110159081620003fa575b8115620003d3575b8115620003ac575b81156200039d575b81156200038e575b81156200037f575b811562000370575b50156200034857620003429062002d7d565b620002d9565b604051631cc3cc4160e21b815260206004820152806200036c602482018c620029e7565b0390fd5b601760f91b1490503862000330565b605f60f81b8114915062000328565b602d60f81b8114915062000320565b600160fd1b8114915062000318565b9050606160f81b81101580620003c4575b9062000310565b50603d60f91b811115620003bd565b9050604160f81b81101580620003eb575b9062000308565b50602d60f91b811115620003e4565b603960f81b811115915062000300565b5088604051956200041b87620028d2565b60068752651cde5b589bdb60d21b60208801526200043b36898862002a58565b9586511562000eab578651600a811162000e74575060005b87518110156200055c5760ff60f81b6020828a01015116600360fc1b81101590816200054c575b811562000525575b8115620004fe575b8115620004ef575b8115620004e0575b8115620004d1575b8115620004c2575b50156200034857620004bc9062002d7d565b62000453565b601760f91b1490508b620004aa565b605f60f81b81149150620004a2565b602d60f81b811491506200049a565b600160fd1b8114915062000492565b9050606160f81b8110158062000516575b906200048a565b50603d60f91b8111156200050f565b9050604160f81b811015806200053d575b9062000482565b50602d60f91b81111562000536565b603960f81b81111591506200047a565b5088338752600a60205260ff60408820602060405180928888833788820190815203019020541662000e4757620005c06004357f00000000000000000000000000000000000000000000000000000000000000006001600160a01b03163362002f59565b7f00000000000000000000000000000000000000000000000000000000000000006001600160a01b03163b1562000e435760405163079cc67960e41b81523360048083019190915235602482015287908181604481836001600160a01b037f0000000000000000000000000000000000000000000000000000000000000000165af18015620008505762000e2b575b505062000661600435600b5462002d59565b600b5560045495620006738762002d7d565b600455604d60ff87161162000e17576200069660ff8716600a0a60043562002d8d565b049260405180611adb8101106001600160401b03611adb8301111762000e0357611adb62003183823960e0611adb82015280620006f8620006e060e0611adb840101898662002d38565b611adb830181036020611adb85010152858762002d38565b60ff8916611adb83016040810191909152606081018890523360808201523060a082015260c0018a9052039089f0806200096e57888060033d116200095d575b6308c379a0146200085b575b6200074e62002cc2565b506200075f600435600b5462002e39565b600b557f00000000000000000000000000000000000000000000000000000000000000006001600160a01b03163b156200084d576040516340c10f1960e01b8152336004808301919091523560248201528181604481836001600160a01b037f0000000000000000000000000000000000000000000000000000000000000000165af18015620008505762000835575b604051630a288e3760e11b815260206004820152601860248201527f556e6b6e6f776e206465706c6f796d656e74206572726f7200000000000000006044820152606490fd5b620008418291620028be565b6200084d5780620007ef565b80fd5b6040513d84823e3d90fd5b6200086562002dc2565b8062000872575062000744565b62000882600435600b5462002e39565b600b557f00000000000000000000000000000000000000000000000000000000000000006001600160a01b03163b156200094e576040516340c10f1960e01b8152336004808301919091523560248201528281604481836001600160a01b037f0000000000000000000000000000000000000000000000000000000000000000165af18015620009525762000936575b604051630a288e3760e11b815260206004820152806200036c6024820185620029e7565b620009428391620028be565b6200094e578162000912565b5080fd5b6040513d85823e3d90fd5b50600481803e805160e01c62000738565b60018060a01b03169560806002604051926200098a8462002870565b60018060a01b038a16845260208401903382526001600160581b0360043516604086015260ff60608601911681526001848601528b8d52600760205260408d209160018060a01b038651166bffffffffffffffffffffffff60a01b84541617835560018060a01b03905116906001600160581b0360a01b604087015160a01b169060ff60f81b905160f81b16911717600182015501910151151560ff8019835416911617905560405162000a3e81620028a2565b62000a4b36878462002a58565b815262000a5a36848662002a58565b60208201528460408201524260608201528789526008602052604089209080518051906001600160401b03821162000d2257819062000a9a855462002833565b601f811162000db0575b50602090601f831160011462000d42578d9262000d36575b50508160011b916000199060031b1c19161782555b60208101518051906001600160401b03821162000d225762000af7600185015462002833565b601f811162000cd8575b506020908c601f841160011462000c6157926003949281926060959262000c55575b505060001982861b1c1916600191821b17908501555b6040810151600285015501519101553388526009602052604088208054906801000000000000000082101562000c4157916040809a62000b8a8462000be8989796600162000bd99701815562002ad0565b81549060031b908d821b91600019901b1916179055338152600a6020522060208b5180928a8583378a820190815203019020600160ff1982541617905589519660808852608088019162002d38565b91858303602087015262002d38565b90600435868401526060830152837f36b9329ca62bde49b750d7ab93525ccc2ff4ced5c2745cd242894377ec4b5d0560018060a01b038516938033940390a4600160025582519182526001600160a01b03166020820152f35b634e487b7160e01b8a52604160045260248afd5b015190508e8062000b23565b5090600185018d5260208d20918d5b601f198516811062000cbf5750926003949260019260609583601f1981161062000ca6575b505050811b01600185015562000b39565b015160001983881b60f8161c191690558e808062000c95565b9192602060018192868501518155019401920162000c70565b600185018d5260208d20601f840160051c81016020851062000d1a575b601f830160051c8201811062000d0d57505062000b01565b6000815560010162000cf5565b508062000cf5565b634e487b7160e01b8c52604160045260248cfd5b015190508c8062000abc565b9250848d5260208d20908d935b601f198416851062000d94576001945083601f1981161062000d7a575b505050811b01825562000ad1565b015160001960f88460031b161c191690558c808062000d6c565b8181015183556020948501946001909301929091019062000d4f565b909150848d5260208d20601f840160051c81016020851062000dfb575b90849392915b601f830160051c8201811062000deb57505062000aa4565b6000815585945060010162000dd3565b508062000dcd565b634e487b7160e01b89526041600452602489fd5b634e487b7160e01b88526011600452602488fd5b62000e3690620028be565b62000e435786886200064f565b8680fd5b60408051635844456f60e01b81523360048201526024810191909152806200036c60448201878762002d38565b60405163d7d74b9d60e01b81526060600482015290819062000e9a606483018c620029e7565b906024830152600a60448301520390fd5b6040516318a996bb60e21b815260206004820152806200036c602482018b620029e7565b60405163d7d74b9d60e01b81526060600482015290819062000ef5606483018c620029e7565b906024830152606460448301520390fd5b60405163047e54d360e31b815260ff8616600482015260126024820152604490fd5b60448660405190630da801c760e31b825260043560048301526024820152fd5b8480fd5b8280fd5b50346200084d5760403660031901126200084d5762000f6e62002a0e565b6024356001600160401b03811162000f4c5791602060ff92604062000f998396369060040162002aff565b6001600160a01b039093168552600a84529320604051938492908190843782019081520301902054166040519015158152f35b50346200084d57806003193601126200084d576040517f00000000000000000000000000000000000000000000000000000000000000006001600160a01b03168152602090f35b50346200084d5760603660031901126200084d576200103162002a0e565b6200103b62002a25565b3360009081527f3c1b1854ab1360abbb06c8d4c6b2672d4b8cedc5eff522ab19e51d5cb8fdbd466020908152604090912054604435907fbf233dd2aafeb4d50879c4aa5c81e96d92f6e6945c906a58f9f2d1c1631b4b269060ff1615620013ea57506001600160a01b03838116949093908515620013d8578215620013c657848116947f000000000000000000000000000000000000000000000000000000000000000016851480620013ba575b620013585784620011ce5750509047808311620011a357508480808085885af16200111362002cc2565b501562001147577ff24ef89f38eadc1bde50701ad6e4d6d11a2dc24f7cf834a486991f3883328504915b604051908152a380f35b60c460405163678ff87760e11b815260406004820152600e60448201526d11551217d5d2551211149055d05360921b606482015260806024820152600f60848201526e151c985b9cd9995c8819985a5b1959608a1b60a4820152fd5b8260849160405191630af4502d60e11b83523060048401526000602484015260448301526064820152fd5b6040516370a0823160e01b81523060048201528481602481895afa908115620012db57889162001320575b50808411620012e6575060405163a9059cbb60e01b81526001600160a01b03831660048201526024810184905284816044818b8a5af1908115620012db578891620012a7575b501562001271575050907ff24ef89f38eadc1bde50701ad6e4d6d11a2dc24f7cf834a486991f3883328504916200113d565b60405163cd3f165960e01b81526001600160a01b0391821660048201523060248201529116604482015260648101829052608490fd5b620012cc9150853d8711620012d3575b620012c38183620028ee565b81019062002ca8565b386200123f565b503d620012b7565b6040513d8a823e3d90fd5b604051630af4502d60e11b81523060048201526001600160a01b039290921660248301526044820193909352606481019290925250608490fd5b90508481813d831162001350575b6200133a8183620028ee565b810103126200134b575138620011f9565b600080fd5b503d6200132e565b60a485604051906301d4dc2360e61b8252600482015260406024820152602d60448201527f43616e6e6f74207769746864726177204352454441207768696c6520746f6b6560648201526c1b9cc8185c99481b1bd8dad959609a1b6084820152fd5b506006541515620010e9565b604051631f2a200560e01b8152600490fd5b60405163d92e233d60e01b8152600490fd5b6044906040519063e2517d3f60e01b82523360048301526024820152fd5b50346200084d57806003193601126200084d5760206040517f65d7a28e3265b37a6474929f336521b332c1681b933f6cb9f3376673440d862a8152f35b50346200084d57806003193601126200084d576020604051600a8152f35b50346200084d57806003193601126200084d57602060405160128152f35b50346200084d5760403660031901126200084d57620014c6600435620014a662002a25565b9080845283602052620014c0600160408620015462002b8c565b62002c32565b5080f35b62002aab565b50346200084d57806003193601126200084d5760206040517f9f29eee2263c2102949fd3febafb3dd6dbbaee114f48a474222b2159942eb2b28152f35b50346200084d5760403660031901126200084d576200152b62002a0e565b6001600160a01b03168152600960205260408120805460243592908310156200084d5760206200155c848462002ad0565b90546040519160031b1c8152f35b50346200084d5760203660031901126200084d57604060a0916004358152600760205220600180831b03808254169160ff600260018301549201541691604051938452811660208401526001600160581b0381851c16604084015260f81c606083015215156080820152f35b50346200084d576020806003193601126200094e5760043591620015f962002cf7565b6200160362002d16565b8215620013c6576001600160a01b037f00000000000000000000000000000000000000000000000000000000000000008116939092906200164681863362002f59565b60035493841562001a2c57670de0b6b3a76400006200169d6040516200166c81620028d2565b601a81527f43524544415f544f5f58505f4d554c5449504c49434154494f4e000000000000868201528785620030d3565b7321a922a220afaa27afac282fa224ab24a9a4a7a760611b85604051620016c481620028d2565b6014815201520494851562001a0e57506040516323b872dd60e01b8152336004820152306024820152604481018390528381606481888b5af190811562001a03578591620019e1575b5015620019ab573384526005835262001763604085205483604051916200173483620028d2565b601883527f555345525f4c4f434b45445f43524544415f5550444154450000000000000000878401526200312c565b338552600584526040852055620017b560065483604051916200178683620028d2565b601983527f544f54414c5f4c4f434b45445f43524544415f55504441544500000000000000878401526200312c565b6006557f00000000000000000000000000000000000000000000000000000000000000001692833b156200084d576040516340c10f1960e01b815233600482015260248101869052818082604481838a5af1918262001993575b505062001959576200182062002cc2565b5060405163a9059cbb60e01b8152336004820152602481018390529583908790604490829085905af19586156200194c57620018f89495966200192a575b50338152600583526040620018ae81832054848351916200187f83620028d2565b601883527f5245564552545f555345525f4c4f434b45445f435245444100000000000000008884015262003146565b913381526005855220556006547f5245564552545f544f54414c5f4c4f434b45445f43524544410000000000000060405193620018eb85620028d2565b6019855284015262003146565b5060405163505066fb60e11b81526001600160a01b039190911660048201523360248201526044810191909152606490fd5b6200194490843d8611620012d357620012c38183620028ee565b50386200185e565b50604051903d90823e3d90fd5b9184906040519283528201527f9f7ba93b5a3c052166a93cfb443d72d1fec4f82bb913b1383b8f26c10fb7941e60403392a2600160025580f35b6200199e90620028be565b6200094e5781386200180f565b5060405163cd3f165960e01b81526001600160a01b03861660048201523360248201523060448201526064810191909152608490fd5b620019fc9150843d8611620012d357620012c38183620028ee565b386200170d565b6040513d87823e3d90fd5b8260449160405191631281124d60e11b835260048301526024820152fd5b60405163f10e7e1760e01b815260048101869052602490fd5b50346200084d57806003193601126200084d576020600454604051908152f35b50346200084d57806003193601126200084d576040517f00000000000000000000000000000000000000000000000000000000000000006001600160a01b03168152602090f35b50346200084d57806003193601126200084d576020600654604051908152f35b50346200084d57806003193601126200084d57602090604051908152f35b50346200084d5760403660031901126200084d57604062001b0a62002a25565b91600435815280602052209060018060a01b0316600052602052602060ff604060002054166040519015158152f35b50346200084d57806003193601126200084d57602060405160648152f35b50346200084d57806003193601126200084d5762001b7462002b2f565b62001b7e62002cf7565b600160ff19815416176001557f62e78cea01bee320cd4e420270b5ea74000d11b0c9f74754ebdbfc544b05a2586020604051338152a180f35b50346200084d5760203660031901126200084d576020670de0b6b3a764000062001be660035460043562002d8d565b04604051908152f35b50346200084d57806003193601126200084d576020600b54604051908152f35b50346200084d5762001c213662002a94565b9162001c2c62002cf7565b62001c3662002d16565b8215620013c65781158015620020b9575b620020765781815260209060078252604081209160ff600284015416156200205d5783825260088152604082209160405162001c8381620028a2565b62001c8e8462002910565b815262001c9e6001850162002910565b8382015260028401549060606003604083019684885201549101521562001ff35783546040516370a0823160e01b81523360048201526001600160a01b039691871694908481602481895afa90811562001fe857849162001fb5575b5088811062001f7f575062001d586001600160581b03600188015460a01c166040519062001d2882620028d2565b601882527f58505f52455455524e5f4d554c5449504c49434154494f4e0000000000000000878301528a620030d3565b90519060405162001d6981620028d2565b60128152712c282fa922aa2aa9272fa224ab24a9a4a7a760711b86820152821562001f5a57509062001d9b9162002da1565b93600b5485811062001f3c5750803b1562000f4c5760405163079cc67960e41b8152336004820152602481018990529083908290604490829084905af1908162001f26575b5062001e26575050505062001df462002cc2565b505460405163a587784360e01b815291166001600160a01b031660048201523360248201526044810191909152606490fd5b86908662001e64600b54876040519162001e4083620028d2565b601283527158505f52455345525645535f55504441544560701b8984015262003146565b600b557f00000000000000000000000000000000000000000000000000000000000000001693843b1562001f22576040516340c10f1960e01b815233600482015260248101879052848082604481838b5af1918262001f0a575b505062001ed1578585620018f862002cc2565b85906040519384528301527fefd5d515529a8f76c5944b1d953cde6b2c61c8b81e144c964aeb038714cabca660403393a3600160025580f35b62001f1590620028be565b62000f4857848862001ebe565b8380fd5b62001f3490939193620028be565b913862001de0565b8560449160405191637427529b60e01b835260048301526024820152fd5b856200036c604051928392638567227360e01b845260048401526024830190620029e7565b604051630af4502d60e11b81523360048201526001600160a01b0387166024820152604481018a90526064810191909152608490fd5b90508481813d831162001fe0575b62001fcf8183620028ee565b8101031262001f2257513862001cfa565b503d62001fc3565b6040513d86823e3d90fd5b60c46040516378dbf71b60e11b81526040600482015260156044820152742c282fa922aa2aa9272fa1a0a621aaa620aa24a7a760591b6064820152608060248201526016608482015275496e697469616c20737570706c79206973207a65726f60501b60a4820152fd5b60405163c00006e360e01b815260048101859052602490fd5b906004546000198101908111620020a5576044925060405191633d00b05560e01b835260048301526024820152fd5b634e487b7160e01b83526011600452602483fd5b5060045482101562001c47565b50346200084d57602090816003193601126200084d5760043591604051620020ee8162002870565b82815282828201528260408201528260609181838201526080015282816040516200211981620028a2565b8181528185820152826040820152015283835260078252604083209160405193620021448562002870565b600160a01b600190039586855416865260018501549383870194888116865260408801936001600160581b0397888360a01c168652838a019260f81c83526002015460ff169360808a019415158552815260088652604090209660405194620021ad86620028a2565b620021b88962002910565b8652620021c860018a0162002910565b968087019788528b60028b01549a604089019b8c5260030154998689019a8b526040519d8e9d51168d525116908b0152511660408901525160ff1690870152511515608086015260a0850160c090525160c085016080905261014085016200223091620029e7565b905184820360bf190160e08601526200224a9190620029e7565b9151610100840152516101208301520390f35b50346200084d57806003193601126200084d57602060ff600154166040519015158152f35b50346200084d576020806003193601126200094e576001600160a01b03620022a962002a0e565b168252600981526040822060405192838383549182815201908193835284832090835b818110620023255750505084620022e5910385620028ee565b60405193838594850191818652518092526040850193925b8281106200230d57505050500390f35b835185528695509381019392810192600101620022fd565b825484529286019260019283019201620022cc565b50346200084d57806003193601126200084d576200235762002b2f565b60015460ff811615620023985760ff19166001557f5db9ee0a495bf2e6ff9c91a7834c1ba4fdd244a5e8aa4e537bd38aeae4b073aa6020604051338152a180f35b604051638dfc202b60e01b8152600490fd5b50346200084d576020620023c9620023c23662002a94565b9062002e47565b604051908152f35b50346200084d5760403660031901126200084d57620023ef62002a25565b336001600160a01b038216036200240e57620014c69060043562002c32565b60405163334bd91960e11b8152600490fd5b50346200084d5760203660031901126200084d576004357f9f29eee2263c2102949fd3febafb3dd6dbbaee114f48a474222b2159942eb2b2808352826020526040832033845260205260ff60408420541615620013ea575080156200259d576003549081620024f2575b683635c9adc5dea00000808211620024d457507fb38780ddde1f073d91c150de2696f3f7085883648ba21cc5ef01029cb21d1916918160409260035582519182526020820152a180f35b60449250604051916338e65e3960e11b835260048301526024820152fd5b81811115620025695762002507828262002e39565b6064810290808204606414901517156200255557620025298360329262002da1565b11156200248a576064925060405191635bb6cca360e01b83526004830152602482015260326044820152fd5b634e487b7160e01b84526011600452602484fd5b62002575818362002e39565b6064810290808204606414901517156200255557620025978360329262002da1565b62002529565b6040516314cee7cd60e11b8152600490fd5b50346200084d5760403660031901126200084d57620014c6600435620025d462002a25565b9080845283602052620025ee600160408620015462002b8c565b62002bb3565b50346200084d5760203660031901126200084d57600160406020926004358152808452200154604051908152f35b50346200084d57806003193601126200084d576020600354604051908152f35b50346200084d57806003193601126200084d5760206040517fbf233dd2aafeb4d50879c4aa5c81e96d92f6e6945c906a58f9f2d1c1631b4b268152f35b50346200084d5760403660031901126200084d576200269d62002a0e565b6024356001600160401b03811162000f4c573660238201121562000f4c57602060ff9260408295620026de6200270595369060248160040135910162002a58565b6001600160a01b039093168152600a845220604051825190948593829085908701620029c2565b82019081520301902054166040519015158152f35b50346200084d5760203660031901126200084d576020906040906001600160a01b036200274662002a0e565b168152600583522054604051908152f35b50346200084d5760203660031901126200084d576040620027bb916004358152600860205220620027888162002910565b90620027976001820162002910565b620027ca6003600284015493015491604051958695608087526080870190620029e7565b908582036020870152620029e7565b91604084015260608301520390f35b9050346200094e5760203660031901126200094e5760043563ffffffff60e01b811680910362000f4c5760209250637965db0b60e01b811490811562002821575b5015158152f35b6301ffc9a760e01b149050386200281a565b90600182811c9216801562002865575b60208310146200284f57565b634e487b7160e01b600052602260045260246000fd5b91607f169162002843565b60a081019081106001600160401b038211176200288c57604052565b634e487b7160e01b600052604160045260246000fd5b608081019081106001600160401b038211176200288c57604052565b6001600160401b0381116200288c57604052565b604081019081106001600160401b038211176200288c57604052565b90601f801991011681019081106001600160401b038211176200288c57604052565b9060405191826000825492620029268462002833565b9081845260019485811690816000146200299d575060011462002956575b50506200295492500383620028ee565b565b9093915060005260209081600020936000915b81831062002984575050620029549350820101388062002944565b8554888401850152948501948794509183019162002969565b9150506200295494506020925060ff191682840152151560051b820101388062002944565b60005b838110620029d65750506000910152565b8181015183820152602001620029c5565b9060209162002a0281518092818552858086019101620029c2565b601f01601f1916010190565b600435906001600160a01b03821682036200134b57565b602435906001600160a01b03821682036200134b57565b6001600160401b0381116200288c57601f01601f191660200190565b92919262002a668262002a3c565b9162002a766040519384620028ee565b8294818452818301116200134b578281602093846000960137010152565b60409060031901126200134b576004359060243590565b346200134b5760003660031901126200134b576020604051670de0b6b3a76400008152f35b805482101562002ae95760005260206000200190600090565b634e487b7160e01b600052603260045260246000fd5b9181601f840112156200134b578235916001600160401b0383116200134b57602083818601950101116200134b57565b3360009081527ff7c9542c591017a21c74b6f3fab6263c7952fc0aaf9db4c22a2a04ddc7f8674f60205260409020547f65d7a28e3265b37a6474929f336521b332c1681b933f6cb9f3376673440d862a9060ff1615620013ea5750565b80600052600060205260406000203360005260205260ff6040600020541615620013ea5750565b9060009180835282602052604083209160018060a01b03169182845260205260ff6040842054161560001462002c2d57808352826020526040832082845260205260408320600160ff198254161790557f2f8788117e7eff1d82e926ec794901d17c78024a50270940304540a733656f0d339380a4600190565b505090565b9060009180835282602052604083209160018060a01b03169182845260205260ff60408420541660001462002c2d5780835282602052604083208284526020526040832060ff1981541690557ff6391f5c32d9c69d2a47ea670b442974b53935d1edc7fd64eb21e047a839171b339380a4600190565b908160209103126200134b575180151581036200134b5790565b3d1562002cf2573d9062002cd68262002a3c565b9162002ce66040519384620028ee565b82523d6000602084013e565b606090565b60ff6001541662002d0457565b60405163d93c066560e01b8152600490fd5b600280541462002d265760028055565b604051633ee5aeb560e01b8152600490fd5b908060209392818452848401376000828201840152601f01601f1916010190565b9190820180921162002d6757565b634e487b7160e01b600052601160045260246000fd5b600019811462002d675760010190565b8181029291811591840414171562002d6757565b811562002dac570490565b634e487b7160e01b600052601260045260246000fd5b600060443d1062002e2557604051600319913d83016004833e81516001600160401b03918282113d60248401111762002e285781840194855193841162002e30573d8501016020848701011162002e28575062002e2592910160200190620028ee565b90565b949350505050565b50949350505050565b9190820391821162002d6757565b8015801562002f4c575b62002f455760009080825260076020526040918281209083519262002e768462002870565b60018060a01b03938484541681526001840154948516602082015260ff6002878301956001600160581b0397888160a01c16885260f81c606085015201541615906080821591015262002f3c578152600860205283812093805162002edb81620028a2565b62002ee68662002910565b815262002ef66001870162002910565b60208201526060600360028801549383019784895201549101521562002f3457509262002f2b9162002e259451169062002d8d565b90519062002da1565b935050505090565b50935050505090565b5050600090565b5060045481101562002e51565b918015620013c657604080516370a0823160e01b81526001600160a01b03858116600483018190529560209591821693928681602481885afa908115620030c85760009162003095575b508581106200305f575050508051636eb1769f60e11b81528560048201523060248201528481604481865afa94851562003054576000956200301d575b505082841062002ff1575050505050565b60a4955051936351750bc760e01b85526004850152306024850152604484015260648301526084820152fd5b8181969293963d83116200304c575b620030388183620028ee565b810103126200084d57505192388062002fe0565b503d6200302c565b82513d6000823e3d90fd5b8351630af4502d60e11b81526001600160a01b039283166004820152929091166024830152604482018590526064820152608490fd5b908782813d8311620030c0575b620030ae8183620028ee565b810103126200084d5750513862002fa3565b503d620030a2565b84513d6000823e3d90fd5b919082156200312457620030f4620030ec828562002d8d565b938462002da1565b03620030fe575090565b604051623e162760e31b8152602060048201529081906200036c906024830190620029e7565b505050600090565b91906200313a908362002d59565b918210620030fe575090565b9291928082116200315e5762002e2592935062002e39565b604051637d75267760e01b815260206004820152806200036c6024820187620029e756fe604060e08152346200064c5762001adb803803806200001e8162000651565b92833981019060e0818303126200064c5780516001600160401b0381116200064c57826200004e91830162000677565b602082015190926001600160401b0382116200064c576200007191830162000677565b838201519160ff831683036200064c576060810151926200009560808301620006e9565b60c0620000a560a08501620006e9565b93015186519094906001600160401b0381116200052a57600354600181811c9116801562000641575b60208210146200050957601f8111620005d7575b50806020601f82116001146200054c5760009162000540575b508160011b916000199060031b1c1916176003555b80516001600160401b0381116200052a57600454600181811c911680156200051f575b60208210146200050957601f81116200049f575b50806020601f8211600114620004155760009162000409575b508160011b916000199060031b1c1916176004555b6001600160a01b03918216968715620003f157600580546001600160a01b031981168a1790915589519190899085167f8be0079c531659141344cd1fd0a4f28419497f9722a3daafe3b4186f6b6457e0600080a36001600655600160ff1960085416176008555115620003a7575051156200035b57821680156200034a57601260ff8316116200032257841562000311578514620002c05760805260a05260c05260025490808201809211620002aa5760207fddf252ad1be2c89b69c2b068fc378daa952ba7f163c4a11628f55a4df523b3ef916000936002558484528382528584208181540190558551908152a361010061ff00196008541617600855516113dc9081620006ff823960805181610dbd015260a05181818161039d01528181610592015261080c015260c051816103650152f35b634e487b7160e01b600052601160045260246000fd5b855163313b9aa160e21b8152602060048201526024808201527f4f776e657220616e6420666163746f72792063616e6e6f74206265207468652060448201526373616d6560e01b6064820152608490fd5b8651631f2a200560e01b8152600490fd5b86516346f4384b60e01b815260ff831660048201526000602482015260126044820152606490fd5b865163d92e233d60e01b8152600490fd5b865163f7693c3d60e01b81526000600482015260248101889052601c60448201527f546f6b656e2073796d626f6c2063616e6e6f7420626520656d707479000000006064820152608490fd5b63f7693c3d60e01b81526000600482015260248101899052601a60448201527f546f6b656e206e616d652063616e6e6f7420626520656d7074790000000000006064820152608490fd5b8851631e4fbdf760e01b815260006004820152602490fd5b90508201513862000160565b6004600090815292507f8a35acfbc15ff81a39ae7d344fd709f28e8600b4aa8c65c6b64bfe7fe36bd19b905b601f198316841062000486576001935082601f198116106200046c575b5050811b0160045562000175565b84015160001960f88460031b161c1916905538806200045e565b8481015182556020938401936001909201910162000441565b60046000527f8a35acfbc15ff81a39ae7d344fd709f28e8600b4aa8c65c6b64bfe7fe36bd19b601f830160051c81019160208410620004fe575b601f0160051c01905b818110620004f1575062000147565b60008155600101620004e2565b9091508190620004d9565b634e487b7160e01b600052602260045260246000fd5b90607f169062000133565b634e487b7160e01b600052604160045260246000fd5b905088015138620000fb565b6003600090815292507fc2575a0e9e593c00f959f8c92f12db2869c3395a3b0502d05e2516446f71f85b905b8a601f1984168510620005bf57506001935082601f19811610620005a5575b5050811b0160035562000110565b8a015160001960f88460031b161c19169055388062000597565b81015182556020938401936001909201910162000578565b60036000527fc2575a0e9e593c00f959f8c92f12db2869c3395a3b0502d05e2516446f71f85b601f830160051c8101916020841062000636575b601f0160051c01905b818110620006295750620000e2565b600081556001016200061a565b909150819062000611565b90607f1690620000ce565b600080fd5b6040519190601f01601f191682016001600160401b038111838210176200052a57604052565b919080601f840112156200064c5782516001600160401b0381116200052a57602090620006ad601f8201601f1916830162000651565b928184528282870101116200064c5760005b818110620006d557508260009394955001015290565b8581018301518482018401528201620006bf565b51906001600160a01b03821682036200064c5756fe608060409080825260048036101561001657600080fd5b600091823560e01c90816306fdde0314610f8a57508063095ea7b314610edf57806318160ddd14610ec057806323b872dd14610de1578063313ce56714610da357806342966c6814610bd75780635dc96d1614610bb35780636a62784214610b4657806370a0823114610b0f578063715018a614610ab157806379cc6790146107e35780637b2c835f1461077f5780638da5cb5b1461075657806395d89b411461063a578063a4f0ecd314610568578063a9059cbb14610537578063ad1329d1146103cc578063c45a015514610388578063d7c81b551461034d578063d89135cd1461032e578063dd62ed3e146102d7578063f2fde38b146102415763f658f32a1461012157600080fd5b3461023d578260031936011261023d576101396110be565b9060243590303303610201576001600160a01b0383169283156101ea578360005260006020528560002054918383106101b257856000867fddf252ad1be2c89b69c2b068fc378daa952ba7f163c4a11628f55a4df523b3ef6020888c818a8688528785520381872055816002540360025551908152a380f35b865163391434e360e21b81526001600160a01b03909216908201908152602081018390526040810184905281906060010390fd5b0390fd5b8551634b637e8f60e11b8152808301869052602490fd5b606490602086519162461bcd60e51b8352820152601660248201527513db9b1e481cd95b198b58d85b1b08185b1b1bddd95960521b6044820152fd5b5080fd5b508290346102d35760203660031901126102d35761025d6110be565b90610266611109565b6001600160a01b039182169283156102bd575050600554826bffffffffffffffffffffffff60a01b821617600555167f8be0079c531659141344cd1fd0a4f28419497f9722a3daafe3b4186f6b6457e0600080a380f35b51631e4fbdf760e01b8152908101849052602490fd5b8280fd5b82843461023d578060031936011261023d576102f16110be565b6001600160a01b0392602435848116929190839003610329576020948492168152600185522090600052825280600020549051908152f35b600080fd5b82843461023d578160031936011261023d576020906007549051908152f35b82843461023d578160031936011261023d57602090517f00000000000000000000000000000000000000000000000000000000000000008152f35b82843461023d578160031936011261023d57517f00000000000000000000000000000000000000000000000000000000000000006001600160a01b03168152602090f35b5082346102d3576103dc366110d4565b91906103e6611109565b6001600160a01b0381811692831561052757879493929116908161049f57505082809281925af13d1561049a573d67ffffffffffffffff81116104875782519061043a601f8201601f19166020018361115f565b81528460203d92013e5b1561044e57505080f35b906020606492519162461bcd60e51b83528201526013602482015272115512081d1c985b9cd9995c8819985a5b1959606a1b6044820152fd5b634e487b7160e01b855260418452602485fd5b610444565b855163a9059cbb60e01b81526001600160a01b03919091169681019687526020808801949094529592938693849003604001925083915af190811561051e57506104e7575080f35b6020813d8211610516575b816104ff6020938361115f565b8101031261023d5751801515036105135780f35b80fd5b3d91506104f2565b513d84823e3d90fd5b855163d92e233d60e01b81528790fd5b82843461023d578060031936011261023d576020906105616105576110be565b6024359033611181565b5160018152f35b5082346102d357806003193601126102d3576105826110be565b60243591906001600160a01b03907f000000000000000000000000000000000000000000000000000000000000000082163303610624571692831561060f57506020827fddf252ad1be2c89b69c2b068fc378daa952ba7f163c4a11628f55a4df523b3ef926105f560009560025461125f565b60025585855284835280852082815401905551908152a380f35b84602492519163ec442f0560e01b8352820152fd5b8251635936416f60e01b81523381870152602490fd5b5091903461051357806003193601126105135781519181845492600184811c9181861695861561074c575b6020968785108114610739579087899a92868b999a9b52918260001461070f5750506001146106b4575b85886106b0896106a1848a038561115f565b5192828493845283019061107e565b0390f35b815286935091907f8a35acfbc15ff81a39ae7d344fd709f28e8600b4aa8c65c6b64bfe7fe36bd19b5b8284106106f757505050820101816106a16106b03861068f565b8054848a0186015288955087949093019281016106dd565b60ff19168882015294151560051b870190940194508593506106a192506106b0915038905061068f565b634e487b7160e01b835260228a52602483fd5b92607f1692610665565b82843461023d578160031936011261023d5760055490516001600160a01b039091168152602090f35b508290346102d35760203660031901126102d35735908115158092036102d3577f1509137b40df48e8ef9596f9db16b632b15353d0e0688d9f23221953eb0328dd916020916107cc611109565b60ff196008541660ff83161760085551908152a180f35b5082346102d357806003193601126102d3576107fd6110be565b92602435906001600160a01b037f000000000000000000000000000000000000000000000000000000000000000081163303610a9b5760ff6008541615610a5957610846611383565b85168015610a49578215610a39578082528160205283822054838110610a0757506002548084116109eb57600a90048311610994576108878360075461125f565b600755303b1561023d578351637b2c799560e11b81526001600160a01b038716868201908152602081018590528390819083908190604001038183305af19182610980575b50506109475750506108dc611282565b6308c379a01461090d575b6101e6916108f782600754611312565b5051631e764bc560e31b81529384938401611343565b6109156112a0565b8061092057506108e7565b906101e69261093182600754611312565b5051631e764bc560e31b8152948594850161131f565b7fccbea4088a3b7ae9ca2d15fab9a9742a4075b4d7247768a1eecea917565aba00848460075482519182526020820152a2600160065580f35b61098990611135565b6102d35782886108cc565b505060a493508151926333be48f560e21b84528301526024820152602460448201527f45786365656473206d6178696d756d206275726e20706572207472616e7361636064820152633a34b7b760e11b6084820152fd5b8560449185875192631ee970cd60e31b84528301526024820152fd5b935163db42144d60e01b81526001600160a01b0390961694860194855250506020830152604082015281906060010390fd5b50505051631f2a200560e01b8152fd5b5050505163d92e233d60e01b8152fd5b8351630eb8953f60e01b8152602081870181815260139181019190915272109d5c9b9a5b99c81a5cc8191a5cd8589b1959606a1b604082015281906060010390fd5b8351635936416f60e01b81523381870152602490fd5b8234610513578060031936011261051357610aca611109565b600580546001600160a01b031981169091556000906001600160a01b03167f8be0079c531659141344cd1fd0a4f28419497f9722a3daafe3b4186f6b6457e08280a380f35b82843461023d57602036600319011261023d5760209181906001600160a01b03610b376110be565b16815280845220549051908152f35b50903461051357602036600319011261051357506020608492610b676110be565b505162461bcd60e51b815291820152602560248201527f4d696e742064697361626c65643a2075736520666163746f727920746f206c6f6044820152640636b2058560dc1b6064820152fd5b82843461023d578160031936011261023d5760209060ff6008541690519015158152f35b5082346102d35760203660031901126102d35781359260ff6008541615610d6157610c00611383565b8315610d53573381528060205281812054848110610d295750610c258460075461125f565b600755303b15610513578151637b2c799560e11b81523384820190815260208101869052909190819083908190604001038183305af19182610d1a575b5090610cdf5750610c71611282565b6308c379a014610ca4575b6101e690610c8c84600754611312565b5051631e764bc560e31b815292839233908401611343565b610cac6112a0565b80610cb75750610c7c565b6101e691610cc785600754611312565b5051631e764bc560e31b81529384933390850161131f565b837fccbea4088a3b7ae9ca2d15fab9a9742a4075b4d7247768a1eecea917565aba0083600754815193845260208401523392a2600160065580f35b610d2390611135565b85610c62565b915163db42144d60e01b815233938101938452602084019490945250604082015281906060010390fd5b5051631f2a200560e01b8152fd5b8151630eb8953f60e01b8152602081850181815260139181019190915272109d5c9b9a5b99c81a5cc8191a5cd8589b1959606a1b604082015281906060010390fd5b82843461023d578160031936011261023d576020905160ff7f0000000000000000000000000000000000000000000000000000000000000000168152f35b503461023d57610df0366110d4565b6001600160a01b03831680865260016020908152878720338852905286862054919592946000198310610e2c575b602088610561898989611181565b868310610e94578115610e7d573315610e665750825260016020908152868320338452815291869020908590039055829061056138610e1e565b8751634a1406b160e11b8152908101849052602490fd5b875163e602df0560e01b8152908101849052602490fd5b8751637dc7a0d960e11b8152339181019182526020820193909352604081018790528291506060010390fd5b82843461023d578160031936011261023d576020906002549051908152f35b508290346102d357816003193601126102d357610efa6110be565b602435903315610f73576001600160a01b0316918215610f5c57508083602095338152600187528181208582528752205582519081527f8c5be1e5ebec7d5bd14f71427d1e84f3dd0314c0f7b2291e5b200ac8c7c3b925843392a35160018152f35b8351634a1406b160e11b8152908101859052602490fd5b835163e602df0560e01b8152808401869052602490fd5b905082843461023d578160031936011261023d578160035492600184811c91818616958615611074575b6020968785108114610739578899509688969785829a52918260001461104d575050600114610ff1575b5050506106b092916106a191038561115f565b9190869350600383527fc2575a0e9e593c00f959f8c92f12db2869c3395a3b0502d05e2516446f71f85b5b82841061103557505050820101816106a16106b0610fde565b8054848a01860152889550879490930192810161101c565b60ff19168782015293151560051b860190930193508492506106a191506106b09050610fde565b92607f1692610fb4565b919082519283825260005b8481106110aa575050826000602080949584010152601f8019910116010190565b602081830181015184830182015201611089565b600435906001600160a01b038216820361032957565b6060906003190112610329576001600160a01b0390600435828116810361032957916024359081168103610329579060443590565b6005546001600160a01b0316330361111d57565b60405163118cdaa760e01b8152336004820152602490fd5b67ffffffffffffffff811161114957604052565b634e487b7160e01b600052604160045260246000fd5b90601f8019910116810190811067ffffffffffffffff82111761114957604052565b916001600160a01b03808416928315611246571692831561122d57600090838252816020526040822054908382106111fb575091604082827fddf252ad1be2c89b69c2b068fc378daa952ba7f163c4a11628f55a4df523b3ef958760209652828652038282205586815220818154019055604051908152a3565b60405163391434e360e21b81526001600160a01b03919091166004820152602481019190915260448101839052606490fd5b60405163ec442f0560e01b815260006004820152602490fd5b604051634b637e8f60e11b815260006004820152602490fd5b9190820180921161126c57565b634e487b7160e01b600052601160045260246000fd5b60009060033d1161128f57565b905060046000803e60005160e01c90565b600060443d106112fe57604051600319913d83016004833e815167ffffffffffffffff918282113d60248401111761130157818401948551938411611309573d8501016020848701011161130157506112fe9291016020019061115f565b90565b949350505050565b50949350505050565b9190820391821161126c57565b6112fe939260609260018060a01b031682526020820152816040820152019061107e565b909160a092600180851b0316825260208201526060604082015260126060820152712ab735b737bbb710313ab9371032b93937b960711b60808201520190565b600260065414611394576002600655565b604051633ee5aeb560e01b8152600490fdfea2646970667358221220cd711da2a8cbe2259ca40fd30fa7084f8aa4a846e6d0d61a8dcd331080b5da0b64736f6c63430008140033a264697066735822122058623d7a469179cf3c7159c182eceb4d1c303b2a39634704ee255923c94542db64736f6c634300081400332f8788117e7eff1d82e926ec794901d17c78024a50270940304540a733656f0d","opcodes":"PUSH1 0xC0 CALLVALUE PUSH3 0x1B1 JUMPI PUSH3 0x50F1 SWAP1 PUSH1 0x1F CODESIZE DUP4 SWAP1 SUB SWAP1 DUP2 ADD PUSH1 0x1F NOT AND DUP3 ADD SWAP1 PUSH1 0x1 PUSH1 0x1 PUSH1 0x40 SHL SUB DUP3 GT DUP4 DUP4 LT OR PUSH3 0x1B6 JUMPI DUP1 DUP4 SWAP2 PUSH1 0x40 SWAP6 DUP7 SWAP5 DUP6 MSTORE DUP4 CODECOPY DUP2 ADD SUB SLT PUSH3 0x1B1 JUMPI PUSH3 0x5D PUSH1 0x20 PUSH3 0x55 DUP4 PUSH3 0x1CC JUMP JUMPDEST SWAP3 ADD PUSH3 0x1CC JUMP JUMPDEST PUSH1 0x1 PUSH1 0x2 DUP2 SWAP1 SSTORE PUSH8 0xDE0B6B3A7640000 PUSH1 0x3 SSTORE PUSH1 0x4 SSTORE PUSH1 0x1 PUSH1 0x1 PUSH1 0xA0 SHL SUB SWAP2 DUP3 AND SWAP2 SWAP1 DUP3 ISZERO PUSH3 0x1A0 JUMPI AND SWAP1 DUP2 ISZERO PUSH3 0x18F JUMPI DUP2 DUP2 EQ PUSH3 0x13B JUMPI PUSH1 0x80 MSTORE PUSH1 0xA0 MSTORE PUSH3 0xA9 CALLER PUSH3 0x1E1 JUMP JUMPDEST POP PUSH3 0xB5 CALLER PUSH3 0x261 JUMP JUMPDEST POP PUSH3 0xC1 CALLER PUSH3 0x303 JUMP JUMPDEST POP PUSH3 0xCD CALLER PUSH3 0x3A0 JUMP JUMPDEST POP MLOAD PUSH2 0x4C93 SWAP1 DUP2 PUSH3 0x43E DUP3 CODECOPY PUSH1 0x80 MLOAD DUP2 DUP2 DUP2 PUSH2 0xFE4 ADD MSTORE DUP2 DUP2 PUSH2 0x10C0 ADD MSTORE PUSH2 0x1614 ADD MSTORE PUSH1 0xA0 MLOAD DUP2 DUP2 DUP2 PUSH2 0x591 ADD MSTORE DUP2 DUP2 PUSH2 0x5C2 ADD MSTORE DUP2 DUP2 PUSH2 0x620 ADD MSTORE DUP2 DUP2 PUSH2 0x764 ADD MSTORE DUP2 DUP2 PUSH2 0x7C0 ADD MSTORE DUP2 DUP2 PUSH2 0x887 ADD MSTORE DUP2 DUP2 PUSH2 0x8E3 ADD MSTORE DUP2 DUP2 PUSH2 0x17BA ADD MSTORE DUP2 DUP2 PUSH2 0x1A7D ADD MSTORE PUSH2 0x1E69 ADD MSTORE RETURN JUMPDEST DUP3 MLOAD PUSH4 0x313B9AA1 PUSH1 0xE2 SHL DUP2 MSTORE PUSH1 0x20 PUSH1 0x4 DUP3 ADD MSTORE PUSH1 0x26 PUSH1 0x24 DUP3 ADD MSTORE PUSH32 0x435245444120616E6420585020746F6B656E732063616E6E6F74206265207468 PUSH1 0x44 DUP3 ADD MSTORE PUSH6 0x652073616D65 PUSH1 0xD0 SHL PUSH1 0x64 DUP3 ADD MSTORE PUSH1 0x84 SWAP1 REVERT JUMPDEST DUP3 MLOAD PUSH4 0xD92E233D PUSH1 0xE0 SHL DUP2 MSTORE PUSH1 0x4 SWAP1 REVERT JUMPDEST DUP4 MLOAD PUSH4 0xD92E233D PUSH1 0xE0 SHL DUP2 MSTORE PUSH1 0x4 SWAP1 REVERT JUMPDEST PUSH1 0x0 DUP1 REVERT JUMPDEST PUSH4 0x4E487B71 PUSH1 0xE0 SHL PUSH1 0x0 MSTORE PUSH1 0x41 PUSH1 0x4 MSTORE PUSH1 0x24 PUSH1 0x0 REVERT JUMPDEST MLOAD SWAP1 PUSH1 0x1 PUSH1 0x1 PUSH1 0xA0 SHL SUB DUP3 AND DUP3 SUB PUSH3 0x1B1 JUMPI JUMP JUMPDEST PUSH1 0x1 PUSH1 0x1 PUSH1 0xA0 SHL SUB AND PUSH1 0x0 DUP2 DUP2 MSTORE PUSH32 0xAD3228B676F7D3CD4284A5443F17F1962B36E491B30A40B2405849E597BA5FB5 PUSH1 0x20 MSTORE PUSH1 0x40 DUP2 KECCAK256 SLOAD SWAP1 SWAP2 SWAP1 PUSH1 0xFF AND PUSH3 0x25D JUMPI DUP2 DUP1 MSTORE DUP2 PUSH1 0x20 MSTORE PUSH1 0x40 DUP3 KECCAK256 DUP2 DUP4 MSTORE PUSH1 0x20 MSTORE PUSH1 0x40 DUP3 KECCAK256 PUSH1 0x1 PUSH1 0xFF NOT DUP3 SLOAD AND OR SWAP1 SSTORE CALLER SWAP2 PUSH1 0x0 DUP1 MLOAD PUSH1 0x20 PUSH3 0x50D1 DUP4 CODECOPY DUP2 MLOAD SWAP2 MSTORE DUP2 DUP1 LOG4 PUSH1 0x1 SWAP1 JUMP JUMPDEST POP SWAP1 JUMP JUMPDEST PUSH1 0x1 PUSH1 0x1 PUSH1 0xA0 SHL SUB AND PUSH1 0x0 DUP2 DUP2 MSTORE PUSH32 0x43393DE9C580ACBB6A28CD9D65B7EC5698943D0E6FEC07062B42A76C1FB8AEB9 PUSH1 0x20 MSTORE PUSH1 0x40 DUP2 KECCAK256 SLOAD SWAP1 SWAP2 SWAP1 PUSH32 0x9F29EEE2263C2102949FD3FEBAFB3DD6DBBAEE114F48A474222B2159942EB2B2 SWAP1 PUSH1 0xFF AND PUSH3 0x2FE JUMPI DUP1 DUP4 MSTORE DUP3 PUSH1 0x20 MSTORE PUSH1 0x40 DUP4 KECCAK256 DUP3 DUP5 MSTORE PUSH1 0x20 MSTORE PUSH1 0x40 DUP4 KECCAK256 PUSH1 0x1 PUSH1 0xFF NOT DUP3 SLOAD AND OR SWAP1 SSTORE PUSH1 0x0 DUP1 MLOAD PUSH1 0x20 PUSH3 0x50D1 DUP4 CODECOPY DUP2 MLOAD SWAP2 MSTORE CALLER SWAP4 DUP1 LOG4 PUSH1 0x1 SWAP1 JUMP JUMPDEST POP POP SWAP1 JUMP JUMPDEST PUSH1 0x1 PUSH1 0x1 PUSH1 0xA0 SHL SUB AND PUSH1 0x0 DUP2 DUP2 MSTORE PUSH32 0xF7C9542C591017A21C74B6F3FAB6263C7952FC0AAF9DB4C22A2A04DDC7F8674F PUSH1 0x20 MSTORE PUSH1 0x40 DUP2 KECCAK256 SLOAD SWAP1 SWAP2 SWAP1 PUSH32 0x65D7A28E3265B37A6474929F336521B332C1681B933F6CB9F3376673440D862A SWAP1 PUSH1 0xFF AND PUSH3 0x2FE JUMPI DUP1 DUP4 MSTORE DUP3 PUSH1 0x20 MSTORE PUSH1 0x40 DUP4 KECCAK256 DUP3 DUP5 MSTORE PUSH1 0x20 MSTORE PUSH1 0x40 DUP4 KECCAK256 PUSH1 0x1 PUSH1 0xFF NOT DUP3 SLOAD AND OR SWAP1 SSTORE PUSH1 0x0 DUP1 MLOAD PUSH1 0x20 PUSH3 0x50D1 DUP4 CODECOPY DUP2 MLOAD SWAP2 MSTORE CALLER SWAP4 DUP1 LOG4 PUSH1 0x1 SWAP1 JUMP JUMPDEST PUSH1 0x1 PUSH1 0x1 PUSH1 0xA0 SHL SUB AND PUSH1 0x0 DUP2 DUP2 MSTORE PUSH32 0x3C1B1854AB1360ABBB06C8D4C6B2672D4B8CEDC5EFF522AB19E51D5CB8FDBD46 PUSH1 0x20 MSTORE PUSH1 0x40 DUP2 KECCAK256 SLOAD SWAP1 SWAP2 SWAP1 PUSH32 0xBF233DD2AAFEB4D50879C4AA5C81E96D92F6E6945C906A58F9F2D1C1631B4B26 SWAP1 PUSH1 0xFF AND PUSH3 0x2FE JUMPI DUP1 DUP4 MSTORE DUP3 PUSH1 0x20 MSTORE PUSH1 0x40 DUP4 KECCAK256 DUP3 DUP5 MSTORE PUSH1 0x20 MSTORE PUSH1 0x40 DUP4 KECCAK256 PUSH1 0x1 PUSH1 0xFF NOT DUP3 SLOAD AND OR SWAP1 SSTORE PUSH1 0x0 DUP1 MLOAD PUSH1 0x20 PUSH3 0x50D1 DUP4 CODECOPY DUP2 MLOAD SWAP2 MSTORE CALLER SWAP4 DUP1 LOG4 PUSH1 0x1 SWAP1 JUMP INVALID PUSH1 0x80 DUP1 PUSH1 0x40 MSTORE PUSH1 0x4 CALLDATASIZE LT ISZERO PUSH3 0x14 JUMPI PUSH1 0x0 DUP1 REVERT JUMPDEST PUSH1 0x0 SWAP1 DUP2 CALLDATALOAD PUSH1 0xE0 SHR SWAP1 DUP2 PUSH4 0x1FFC9A7 EQ PUSH3 0x27D9 JUMPI POP DUP1 PUSH4 0x5A61954 EQ PUSH3 0x2757 JUMPI DUP1 PUSH4 0x7819945 EQ PUSH3 0x271A JUMPI DUP1 PUSH4 0x1BF44CB0 EQ PUSH3 0x267F JUMPI DUP1 PUSH4 0x20DF4359 EQ PUSH3 0x2642 JUMPI DUP1 PUSH4 0x238D4AF8 EQ PUSH3 0x2622 JUMPI DUP1 PUSH4 0x248A9CA3 EQ PUSH3 0x25F4 JUMPI DUP1 PUSH4 0x2F2FF15D EQ PUSH3 0x25AF JUMPI DUP1 PUSH4 0x34FCF437 EQ PUSH3 0x2420 JUMPI DUP1 PUSH4 0x36568ABE EQ PUSH3 0x23D1 JUMPI DUP1 PUSH4 0x3B420A73 EQ PUSH3 0x23AA JUMPI DUP1 PUSH4 0x3F4BA83A EQ PUSH3 0x233A JUMPI DUP1 PUSH4 0x546FDAD4 EQ PUSH3 0x2282 JUMPI DUP1 PUSH4 0x5C975ABB EQ PUSH3 0x225D JUMPI DUP1 PUSH4 0x5E79C1DC EQ PUSH3 0x20C6 JUMPI DUP1 PUSH4 0x5ED6C1DB EQ PUSH3 0x1C0F JUMPI DUP1 PUSH4 0x6D8554E2 EQ PUSH3 0x1BEF JUMPI DUP1 PUSH4 0x74B334C5 EQ PUSH3 0x1BB7 JUMPI DUP1 PUSH4 0x8456CB59 EQ PUSH3 0x1B57 JUMPI DUP1 PUSH4 0x86074985 EQ PUSH3 0x1B39 JUMPI DUP1 PUSH4 0x8760550D EQ PUSH3 0x14CA JUMPI DUP1 PUSH4 0x91D14854 EQ PUSH3 0x1AEA JUMPI DUP1 PUSH4 0xA217FDDF EQ PUSH3 0x1ACC JUMPI DUP1 PUSH4 0xAA6450CE EQ PUSH3 0x1AAC JUMPI DUP1 PUSH4 0xAE5014B1 EQ PUSH3 0x1A65 JUMPI DUP1 PUSH4 0xB135BBB0 EQ PUSH3 0x1A45 JUMPI DUP1 PUSH4 0xBEC697DB EQ PUSH3 0x15D6 JUMPI DUP1 PUSH4 0xBF034B69 EQ PUSH3 0x156A JUMPI DUP1 PUSH4 0xC21C64A7 EQ PUSH3 0x150D JUMPI DUP1 PUSH4 0xCB327B8B EQ PUSH3 0x14D0 JUMPI DUP1 PUSH4 0xCCD34CD5 EQ PUSH3 0x14CA JUMPI DUP1 PUSH4 0xD547741F EQ PUSH3 0x1481 JUMPI DUP1 PUSH4 0xDF525B7D EQ PUSH3 0x1463 JUMPI DUP1 PUSH4 0xE3D89171 EQ PUSH3 0x1445 JUMPI DUP1 PUSH4 0xE63AB1E9 EQ PUSH3 0x1408 JUMPI DUP1 PUSH4 0xE63EA408 EQ PUSH3 0x1013 JUMPI DUP1 PUSH4 0xECDF8FC4 EQ PUSH3 0xFCC JUMPI DUP1 PUSH4 0xF7157558 EQ PUSH3 0xF50 JUMPI PUSH4 0xFD44D274 EQ PUSH3 0x1F6 JUMPI PUSH1 0x0 DUP1 REVERT JUMPDEST CALLVALUE PUSH3 0x84D JUMPI PUSH1 0x80 CALLDATASIZE PUSH1 0x3 NOT ADD SLT PUSH3 0x84D JUMPI PUSH1 0x24 CALLDATALOAD PUSH1 0x1 PUSH1 0x1 PUSH1 0x40 SHL SUB DUP2 GT PUSH3 0x94E JUMPI PUSH3 0x22B SWAP1 CALLDATASIZE SWAP1 PUSH1 0x4 ADD PUSH3 0x2AFF JUMP JUMPDEST SWAP2 SWAP1 PUSH1 0x44 CALLDATALOAD PUSH1 0x1 PUSH1 0x1 PUSH1 0x40 SHL SUB DUP2 GT PUSH3 0xF4C JUMPI PUSH3 0x24F SWAP1 CALLDATASIZE SWAP1 PUSH1 0x4 ADD PUSH3 0x2AFF JUMP JUMPDEST SWAP1 SWAP2 PUSH1 0x64 CALLDATALOAD SWAP3 PUSH1 0xFF DUP5 AND DUP5 SUB PUSH3 0xF48 JUMPI PUSH3 0x26A PUSH3 0x2CF7 JUMP JUMPDEST PUSH3 0x274 PUSH3 0x2D16 JUMP JUMPDEST PUSH8 0xDE0B6B3A7640000 SWAP5 DUP6 PUSH1 0x4 CALLDATALOAD LT PUSH3 0xF28 JUMPI PUSH1 0x12 PUSH1 0xFF DUP7 AND GT PUSH3 0xF06 JUMPI PUSH1 0x40 MLOAD SWAP6 PUSH3 0x2A3 DUP8 PUSH3 0x28D2 JUMP JUMPDEST PUSH1 0x4 DUP8 MSTORE PUSH4 0x6E616D65 PUSH1 0xE0 SHL PUSH1 0x20 DUP9 ADD MSTORE PUSH3 0x2C1 CALLDATASIZE DUP10 DUP7 PUSH3 0x2A58 JUMP JUMPDEST SWAP6 DUP7 MLOAD ISZERO PUSH3 0xEAB JUMPI DUP7 MLOAD PUSH1 0x64 DUP2 GT PUSH3 0xECF JUMPI POP PUSH1 0x0 JUMPDEST DUP8 MLOAD DUP2 LT ISZERO PUSH3 0x40A JUMPI PUSH1 0xFF PUSH1 0xF8 SHL PUSH1 0x20 DUP3 DUP11 ADD ADD MLOAD AND PUSH1 0x3 PUSH1 0xFC SHL DUP2 LT ISZERO SWAP1 DUP2 PUSH3 0x3FA JUMPI JUMPDEST DUP2 ISZERO PUSH3 0x3D3 JUMPI JUMPDEST DUP2 ISZERO PUSH3 0x3AC JUMPI JUMPDEST DUP2 ISZERO PUSH3 0x39D JUMPI JUMPDEST DUP2 ISZERO PUSH3 0x38E JUMPI JUMPDEST DUP2 ISZERO PUSH3 0x37F JUMPI JUMPDEST DUP2 ISZERO PUSH3 0x370 JUMPI JUMPDEST POP ISZERO PUSH3 0x348 JUMPI PUSH3 0x342 SWAP1 PUSH3 0x2D7D JUMP JUMPDEST PUSH3 0x2D9 JUMP JUMPDEST PUSH1 0x40 MLOAD PUSH4 0x1CC3CC41 PUSH1 0xE2 SHL DUP2 MSTORE PUSH1 0x20 PUSH1 0x4 DUP3 ADD MSTORE DUP1 PUSH3 0x36C PUSH1 0x24 DUP3 ADD DUP13 PUSH3 0x29E7 JUMP JUMPDEST SUB SWAP1 REVERT JUMPDEST PUSH1 0x17 PUSH1 0xF9 SHL EQ SWAP1 POP CODESIZE PUSH3 0x330 JUMP JUMPDEST PUSH1 0x5F PUSH1 0xF8 SHL DUP2 EQ SWAP2 POP PUSH3 0x328 JUMP JUMPDEST PUSH1 0x2D PUSH1 0xF8 SHL DUP2 EQ SWAP2 POP PUSH3 0x320 JUMP JUMPDEST PUSH1 0x1 PUSH1 0xFD SHL DUP2 EQ SWAP2 POP PUSH3 0x318 JUMP JUMPDEST SWAP1 POP PUSH1 0x61 PUSH1 0xF8 SHL DUP2 LT ISZERO DUP1 PUSH3 0x3C4 JUMPI JUMPDEST SWAP1 PUSH3 0x310 JUMP JUMPDEST POP PUSH1 0x3D PUSH1 0xF9 SHL DUP2 GT ISZERO PUSH3 0x3BD JUMP JUMPDEST SWAP1 POP PUSH1 0x41 PUSH1 0xF8 SHL DUP2 LT ISZERO DUP1 PUSH3 0x3EB JUMPI JUMPDEST SWAP1 PUSH3 0x308 JUMP JUMPDEST POP PUSH1 0x2D PUSH1 0xF9 SHL DUP2 GT ISZERO PUSH3 0x3E4 JUMP JUMPDEST PUSH1 0x39 PUSH1 0xF8 SHL DUP2 GT ISZERO SWAP2 POP PUSH3 0x300 JUMP JUMPDEST POP DUP9 PUSH1 0x40 MLOAD SWAP6 PUSH3 0x41B DUP8 PUSH3 0x28D2 JUMP JUMPDEST PUSH1 0x6 DUP8 MSTORE PUSH6 0x1CDE5B589BDB PUSH1 0xD2 SHL PUSH1 0x20 DUP9 ADD MSTORE PUSH3 0x43B CALLDATASIZE DUP10 DUP9 PUSH3 0x2A58 JUMP JUMPDEST SWAP6 DUP7 MLOAD ISZERO PUSH3 0xEAB JUMPI DUP7 MLOAD PUSH1 0xA DUP2 GT PUSH3 0xE74 JUMPI POP PUSH1 0x0 JUMPDEST DUP8 MLOAD DUP2 LT ISZERO PUSH3 0x55C JUMPI PUSH1 0xFF PUSH1 0xF8 SHL PUSH1 0x20 DUP3 DUP11 ADD ADD MLOAD AND PUSH1 0x3 PUSH1 0xFC SHL DUP2 LT ISZERO SWAP1 DUP2 PUSH3 0x54C JUMPI JUMPDEST DUP2 ISZERO PUSH3 0x525 JUMPI JUMPDEST DUP2 ISZERO PUSH3 0x4FE JUMPI JUMPDEST DUP2 ISZERO PUSH3 0x4EF JUMPI JUMPDEST DUP2 ISZERO PUSH3 0x4E0 JUMPI JUMPDEST DUP2 ISZERO PUSH3 0x4D1 JUMPI JUMPDEST DUP2 ISZERO PUSH3 0x4C2 JUMPI JUMPDEST POP ISZERO PUSH3 0x348 JUMPI PUSH3 0x4BC SWAP1 PUSH3 0x2D7D JUMP JUMPDEST PUSH3 0x453 JUMP JUMPDEST PUSH1 0x17 PUSH1 0xF9 SHL EQ SWAP1 POP DUP12 PUSH3 0x4AA JUMP JUMPDEST PUSH1 0x5F PUSH1 0xF8 SHL DUP2 EQ SWAP2 POP PUSH3 0x4A2 JUMP JUMPDEST PUSH1 0x2D PUSH1 0xF8 SHL DUP2 EQ SWAP2 POP PUSH3 0x49A JUMP JUMPDEST PUSH1 0x1 PUSH1 0xFD SHL DUP2 EQ SWAP2 POP PUSH3 0x492 JUMP JUMPDEST SWAP1 POP PUSH1 0x61 PUSH1 0xF8 SHL DUP2 LT ISZERO DUP1 PUSH3 0x516 JUMPI JUMPDEST SWAP1 PUSH3 0x48A JUMP JUMPDEST POP PUSH1 0x3D PUSH1 0xF9 SHL DUP2 GT ISZERO PUSH3 0x50F JUMP JUMPDEST SWAP1 POP PUSH1 0x41 PUSH1 0xF8 SHL DUP2 LT ISZERO DUP1 PUSH3 0x53D JUMPI JUMPDEST SWAP1 PUSH3 0x482 JUMP JUMPDEST POP PUSH1 0x2D PUSH1 0xF9 SHL DUP2 GT ISZERO PUSH3 0x536 JUMP JUMPDEST PUSH1 0x39 PUSH1 0xF8 SHL DUP2 GT ISZERO SWAP2 POP PUSH3 0x47A JUMP JUMPDEST POP DUP9 CALLER DUP8 MSTORE PUSH1 0xA PUSH1 0x20 MSTORE PUSH1 0xFF PUSH1 0x40 DUP9 KECCAK256 PUSH1 0x20 PUSH1 0x40 MLOAD DUP1 SWAP3 DUP9 DUP9 DUP4 CALLDATACOPY DUP9 DUP3 ADD SWAP1 DUP2 MSTORE SUB ADD SWAP1 KECCAK256 SLOAD AND PUSH3 0xE47 JUMPI PUSH3 0x5C0 PUSH1 0x4 CALLDATALOAD PUSH32 0x0 PUSH1 0x1 PUSH1 0x1 PUSH1 0xA0 SHL SUB AND CALLER PUSH3 0x2F59 JUMP JUMPDEST PUSH32 0x0 PUSH1 0x1 PUSH1 0x1 PUSH1 0xA0 SHL SUB AND EXTCODESIZE ISZERO PUSH3 0xE43 JUMPI PUSH1 0x40 MLOAD PUSH4 0x79CC679 PUSH1 0xE4 SHL DUP2 MSTORE CALLER PUSH1 0x4 DUP1 DUP4 ADD SWAP2 SWAP1 SWAP2 MSTORE CALLDATALOAD PUSH1 0x24 DUP3 ADD MSTORE DUP8 SWAP1 DUP2 DUP2 PUSH1 0x44 DUP2 DUP4 PUSH1 0x1 PUSH1 0x1 PUSH1 0xA0 SHL SUB PUSH32 0x0 AND GAS CALL DUP1 ISZERO PUSH3 0x850 JUMPI PUSH3 0xE2B JUMPI JUMPDEST POP POP PUSH3 0x661 PUSH1 0x4 CALLDATALOAD PUSH1 0xB SLOAD PUSH3 0x2D59 JUMP JUMPDEST PUSH1 0xB SSTORE PUSH1 0x4 SLOAD SWAP6 PUSH3 0x673 DUP8 PUSH3 0x2D7D JUMP JUMPDEST PUSH1 0x4 SSTORE PUSH1 0x4D PUSH1 0xFF DUP8 AND GT PUSH3 0xE17 JUMPI PUSH3 0x696 PUSH1 0xFF DUP8 AND PUSH1 0xA EXP PUSH1 0x4 CALLDATALOAD PUSH3 0x2D8D JUMP JUMPDEST DIV SWAP3 PUSH1 0x40 MLOAD DUP1 PUSH2 0x1ADB DUP2 ADD LT PUSH1 0x1 PUSH1 0x1 PUSH1 0x40 SHL SUB PUSH2 0x1ADB DUP4 ADD GT OR PUSH3 0xE03 JUMPI PUSH2 0x1ADB PUSH3 0x3183 DUP3 CODECOPY PUSH1 0xE0 PUSH2 0x1ADB DUP3 ADD MSTORE DUP1 PUSH3 0x6F8 PUSH3 0x6E0 PUSH1 0xE0 PUSH2 0x1ADB DUP5 ADD ADD DUP10 DUP7 PUSH3 0x2D38 JUMP JUMPDEST PUSH2 0x1ADB DUP4 ADD DUP2 SUB PUSH1 0x20 PUSH2 0x1ADB DUP6 ADD ADD MSTORE DUP6 DUP8 PUSH3 0x2D38 JUMP JUMPDEST PUSH1 0xFF DUP10 AND PUSH2 0x1ADB DUP4 ADD PUSH1 0x40 DUP2 ADD SWAP2 SWAP1 SWAP2 MSTORE PUSH1 0x60 DUP2 ADD DUP9 SWAP1 MSTORE CALLER PUSH1 0x80 DUP3 ADD MSTORE ADDRESS PUSH1 0xA0 DUP3 ADD MSTORE PUSH1 0xC0 ADD DUP11 SWAP1 MSTORE SUB SWAP1 DUP10 CREATE DUP1 PUSH3 0x96E JUMPI DUP9 DUP1 PUSH1 0x3 RETURNDATASIZE GT PUSH3 0x95D JUMPI JUMPDEST PUSH4 0x8C379A0 EQ PUSH3 0x85B JUMPI JUMPDEST PUSH3 0x74E PUSH3 0x2CC2 JUMP JUMPDEST POP PUSH3 0x75F PUSH1 0x4 CALLDATALOAD PUSH1 0xB SLOAD PUSH3 0x2E39 JUMP JUMPDEST PUSH1 0xB SSTORE PUSH32 0x0 PUSH1 0x1 PUSH1 0x1 PUSH1 0xA0 SHL SUB AND EXTCODESIZE ISZERO PUSH3 0x84D JUMPI PUSH1 0x40 MLOAD PUSH4 0x40C10F19 PUSH1 0xE0 SHL DUP2 MSTORE CALLER PUSH1 0x4 DUP1 DUP4 ADD SWAP2 SWAP1 SWAP2 MSTORE CALLDATALOAD PUSH1 0x24 DUP3 ADD MSTORE DUP2 DUP2 PUSH1 0x44 DUP2 DUP4 PUSH1 0x1 PUSH1 0x1 PUSH1 0xA0 SHL SUB PUSH32 0x0 AND GAS CALL DUP1 ISZERO PUSH3 0x850 JUMPI PUSH3 0x835 JUMPI JUMPDEST PUSH1 0x40 MLOAD PUSH4 0xA288E37 PUSH1 0xE1 SHL DUP2 MSTORE PUSH1 0x20 PUSH1 0x4 DUP3 ADD MSTORE PUSH1 0x18 PUSH1 0x24 DUP3 ADD MSTORE PUSH32 0x556E6B6E6F776E206465706C6F796D656E74206572726F720000000000000000 PUSH1 0x44 DUP3 ADD MSTORE PUSH1 0x64 SWAP1 REVERT JUMPDEST PUSH3 0x841 DUP3 SWAP2 PUSH3 0x28BE JUMP JUMPDEST PUSH3 0x84D JUMPI DUP1 PUSH3 0x7EF JUMP JUMPDEST DUP1 REVERT JUMPDEST PUSH1 0x40 MLOAD RETURNDATASIZE DUP5 DUP3 RETURNDATACOPY RETURNDATASIZE SWAP1 REVERT JUMPDEST PUSH3 0x865 PUSH3 0x2DC2 JUMP JUMPDEST DUP1 PUSH3 0x872 JUMPI POP PUSH3 0x744 JUMP JUMPDEST PUSH3 0x882 PUSH1 0x4 CALLDATALOAD PUSH1 0xB SLOAD PUSH3 0x2E39 JUMP JUMPDEST PUSH1 0xB SSTORE PUSH32 0x0 PUSH1 0x1 PUSH1 0x1 PUSH1 0xA0 SHL SUB AND EXTCODESIZE ISZERO PUSH3 0x94E JUMPI PUSH1 0x40 MLOAD PUSH4 0x40C10F19 PUSH1 0xE0 SHL DUP2 MSTORE CALLER PUSH1 0x4 DUP1 DUP4 ADD SWAP2 SWAP1 SWAP2 MSTORE CALLDATALOAD PUSH1 0x24 DUP3 ADD MSTORE DUP3 DUP2 PUSH1 0x44 DUP2 DUP4 PUSH1 0x1 PUSH1 0x1 PUSH1 0xA0 SHL SUB PUSH32 0x0 AND GAS CALL DUP1 ISZERO PUSH3 0x952 JUMPI PUSH3 0x936 JUMPI JUMPDEST PUSH1 0x40 MLOAD PUSH4 0xA288E37 PUSH1 0xE1 SHL DUP2 MSTORE PUSH1 0x20 PUSH1 0x4 DUP3 ADD MSTORE DUP1 PUSH3 0x36C PUSH1 0x24 DUP3 ADD DUP6 PUSH3 0x29E7 JUMP JUMPDEST PUSH3 0x942 DUP4 SWAP2 PUSH3 0x28BE JUMP JUMPDEST PUSH3 0x94E JUMPI DUP2 PUSH3 0x912 JUMP JUMPDEST POP DUP1 REVERT JUMPDEST PUSH1 0x40 MLOAD RETURNDATASIZE DUP6 DUP3 RETURNDATACOPY RETURNDATASIZE SWAP1 REVERT JUMPDEST POP PUSH1 0x4 DUP2 DUP1 RETURNDATACOPY DUP1 MLOAD PUSH1 0xE0 SHR PUSH3 0x738 JUMP JUMPDEST PUSH1 0x1 DUP1 PUSH1 0xA0 SHL SUB AND SWAP6 PUSH1 0x80 PUSH1 0x2 PUSH1 0x40 MLOAD SWAP3 PUSH3 0x98A DUP5 PUSH3 0x2870 JUMP JUMPDEST PUSH1 0x1 DUP1 PUSH1 0xA0 SHL SUB DUP11 AND DUP5 MSTORE PUSH1 0x20 DUP5 ADD SWAP1 CALLER DUP3 MSTORE PUSH1 0x1 PUSH1 0x1 PUSH1 0x58 SHL SUB PUSH1 0x4 CALLDATALOAD AND PUSH1 0x40 DUP7 ADD MSTORE PUSH1 0xFF PUSH1 0x60 DUP7 ADD SWAP2 AND DUP2 MSTORE PUSH1 0x1 DUP5 DUP7 ADD MSTORE DUP12 DUP14 MSTORE PUSH1 0x7 PUSH1 0x20 MSTORE PUSH1 0x40 DUP14 KECCAK256 SWAP2 PUSH1 0x1 DUP1 PUSH1 0xA0 SHL SUB DUP7 MLOAD AND PUSH12 0xFFFFFFFFFFFFFFFFFFFFFFFF PUSH1 0xA0 SHL DUP5 SLOAD AND OR DUP4 SSTORE PUSH1 0x1 DUP1 PUSH1 0xA0 SHL SUB SWAP1 MLOAD AND SWAP1 PUSH1 0x1 PUSH1 0x1 PUSH1 0x58 SHL SUB PUSH1 0xA0 SHL PUSH1 0x40 DUP8 ADD MLOAD PUSH1 0xA0 SHL AND SWAP1 PUSH1 0xFF PUSH1 0xF8 SHL SWAP1 MLOAD PUSH1 0xF8 SHL AND SWAP2 OR OR PUSH1 0x1 DUP3 ADD SSTORE ADD SWAP2 ADD MLOAD ISZERO ISZERO PUSH1 0xFF DUP1 NOT DUP4 SLOAD AND SWAP2 AND OR SWAP1 SSTORE PUSH1 0x40 MLOAD PUSH3 0xA3E DUP2 PUSH3 0x28A2 JUMP JUMPDEST PUSH3 0xA4B CALLDATASIZE DUP8 DUP5 PUSH3 0x2A58 JUMP JUMPDEST DUP2 MSTORE PUSH3 0xA5A CALLDATASIZE DUP5 DUP7 PUSH3 0x2A58 JUMP JUMPDEST PUSH1 0x20 DUP3 ADD MSTORE DUP5 PUSH1 0x40 DUP3 ADD MSTORE TIMESTAMP PUSH1 0x60 DUP3 ADD MSTORE DUP8 DUP10 MSTORE PUSH1 0x8 PUSH1 0x20 MSTORE PUSH1 0x40 DUP10 KECCAK256 SWAP1 DUP1 MLOAD DUP1 MLOAD SWAP1 PUSH1 0x1 PUSH1 0x1 PUSH1 0x40 SHL SUB DUP3 GT PUSH3 0xD22 JUMPI DUP2 SWAP1 PUSH3 0xA9A DUP6 SLOAD PUSH3 0x2833 JUMP JUMPDEST PUSH1 0x1F DUP2 GT PUSH3 0xDB0 JUMPI JUMPDEST POP PUSH1 0x20 SWAP1 PUSH1 0x1F DUP4 GT PUSH1 0x1 EQ PUSH3 0xD42 JUMPI DUP14 SWAP3 PUSH3 0xD36 JUMPI JUMPDEST POP POP DUP2 PUSH1 0x1 SHL SWAP2 PUSH1 0x0 NOT SWAP1 PUSH1 0x3 SHL SHR NOT AND OR DUP3 SSTORE JUMPDEST PUSH1 0x20 DUP2 ADD MLOAD DUP1 MLOAD SWAP1 PUSH1 0x1 PUSH1 0x1 PUSH1 0x40 SHL SUB DUP3 GT PUSH3 0xD22 JUMPI PUSH3 0xAF7 PUSH1 0x1 DUP6 ADD SLOAD PUSH3 0x2833 JUMP JUMPDEST PUSH1 0x1F DUP2 GT PUSH3 0xCD8 JUMPI JUMPDEST POP PUSH1 0x20 SWAP1 DUP13 PUSH1 0x1F DUP5 GT PUSH1 0x1 EQ PUSH3 0xC61 JUMPI SWAP3 PUSH1 0x3 SWAP5 SWAP3 DUP2 SWAP3 PUSH1 0x60 SWAP6 SWAP3 PUSH3 0xC55 JUMPI JUMPDEST POP POP PUSH1 0x0 NOT DUP3 DUP7 SHL SHR NOT AND PUSH1 0x1 SWAP2 DUP3 SHL OR SWAP1 DUP6 ADD SSTORE JUMPDEST PUSH1 0x40 DUP2 ADD MLOAD PUSH1 0x2 DUP6 ADD SSTORE ADD MLOAD SWAP2 ADD SSTORE CALLER DUP9 MSTORE PUSH1 0x9 PUSH1 0x20 MSTORE PUSH1 0x40 DUP9 KECCAK256 DUP1 SLOAD SWAP1 PUSH9 0x10000000000000000 DUP3 LT ISZERO PUSH3 0xC41 JUMPI SWAP2 PUSH1 0x40 DUP1 SWAP11 PUSH3 0xB8A DUP5 PUSH3 0xBE8 SWAP9 SWAP8 SWAP7 PUSH1 0x1 PUSH3 0xBD9 SWAP8 ADD DUP2 SSTORE PUSH3 0x2AD0 JUMP JUMPDEST DUP2 SLOAD SWAP1 PUSH1 0x3 SHL SWAP1 DUP14 DUP3 SHL SWAP2 PUSH1 0x0 NOT SWAP1 SHL NOT AND OR SWAP1 SSTORE CALLER DUP2 MSTORE PUSH1 0xA PUSH1 0x20 MSTORE KECCAK256 PUSH1 0x20 DUP12 MLOAD DUP1 SWAP3 DUP11 DUP6 DUP4 CALLDATACOPY DUP11 DUP3 ADD SWAP1 DUP2 MSTORE SUB ADD SWAP1 KECCAK256 PUSH1 0x1 PUSH1 0xFF NOT DUP3 SLOAD AND OR SWAP1 SSTORE DUP10 MLOAD SWAP7 PUSH1 0x80 DUP9 MSTORE PUSH1 0x80 DUP9 ADD SWAP2 PUSH3 0x2D38 JUMP JUMPDEST SWAP2 DUP6 DUP4 SUB PUSH1 0x20 DUP8 ADD MSTORE PUSH3 0x2D38 JUMP JUMPDEST SWAP1 PUSH1 0x4 CALLDATALOAD DUP7 DUP5 ADD MSTORE PUSH1 0x60 DUP4 ADD MSTORE DUP4 PUSH32 0x36B9329CA62BDE49B750D7AB93525CCC2FF4CED5C2745CD242894377EC4B5D05 PUSH1 0x1 DUP1 PUSH1 0xA0 SHL SUB DUP6 AND SWAP4 DUP1 CALLER SWAP5 SUB SWAP1 LOG4 PUSH1 0x1 PUSH1 0x2 SSTORE DUP3 MLOAD SWAP2 DUP3 MSTORE PUSH1 0x1 PUSH1 0x1 PUSH1 0xA0 SHL SUB AND PUSH1 0x20 DUP3 ADD MSTORE RETURN JUMPDEST PUSH4 0x4E487B71 PUSH1 0xE0 SHL DUP11 MSTORE PUSH1 0x41 PUSH1 0x4 MSTORE PUSH1 0x24 DUP11 REVERT JUMPDEST ADD MLOAD SWAP1 POP DUP15 DUP1 PUSH3 0xB23 JUMP JUMPDEST POP SWAP1 PUSH1 0x1 DUP6 ADD DUP14 MSTORE PUSH1 0x20 DUP14 KECCAK256 SWAP2 DUP14 JUMPDEST PUSH1 0x1F NOT DUP6 AND DUP2 LT PUSH3 0xCBF JUMPI POP SWAP3 PUSH1 0x3 SWAP5 SWAP3 PUSH1 0x1 SWAP3 PUSH1 0x60 SWAP6 DUP4 PUSH1 0x1F NOT DUP2 AND LT PUSH3 0xCA6 JUMPI JUMPDEST POP POP POP DUP2 SHL ADD PUSH1 0x1 DUP6 ADD SSTORE PUSH3 0xB39 JUMP JUMPDEST ADD MLOAD PUSH1 0x0 NOT DUP4 DUP9 SHL PUSH1 0xF8 AND SHR NOT AND SWAP1 SSTORE DUP15 DUP1 DUP1 PUSH3 0xC95 JUMP JUMPDEST SWAP2 SWAP3 PUSH1 0x20 PUSH1 0x1 DUP2 SWAP3 DUP7 DUP6 ADD MLOAD DUP2 SSTORE ADD SWAP5 ADD SWAP3 ADD PUSH3 0xC70 JUMP JUMPDEST PUSH1 0x1 DUP6 ADD DUP14 MSTORE PUSH1 0x20 DUP14 KECCAK256 PUSH1 0x1F DUP5 ADD PUSH1 0x5 SHR DUP2 ADD PUSH1 0x20 DUP6 LT PUSH3 0xD1A JUMPI JUMPDEST PUSH1 0x1F DUP4 ADD PUSH1 0x5 SHR DUP3 ADD DUP2 LT PUSH3 0xD0D JUMPI POP POP PUSH3 0xB01 JUMP JUMPDEST PUSH1 0x0 DUP2 SSTORE PUSH1 0x1 ADD PUSH3 0xCF5 JUMP JUMPDEST POP DUP1 PUSH3 0xCF5 JUMP JUMPDEST PUSH4 0x4E487B71 PUSH1 0xE0 SHL DUP13 MSTORE PUSH1 0x41 PUSH1 0x4 MSTORE PUSH1 0x24 DUP13 REVERT JUMPDEST ADD MLOAD SWAP1 POP DUP13 DUP1 PUSH3 0xABC JUMP JUMPDEST SWAP3 POP DUP5 DUP14 MSTORE PUSH1 0x20 DUP14 KECCAK256 SWAP1 DUP14 SWAP4 JUMPDEST PUSH1 0x1F NOT DUP5 AND DUP6 LT PUSH3 0xD94 JUMPI PUSH1 0x1 SWAP5 POP DUP4 PUSH1 0x1F NOT DUP2 AND LT PUSH3 0xD7A JUMPI JUMPDEST POP POP POP DUP2 SHL ADD DUP3 SSTORE PUSH3 0xAD1 JUMP JUMPDEST ADD MLOAD PUSH1 0x0 NOT PUSH1 0xF8 DUP5 PUSH1 0x3 SHL AND SHR NOT AND SWAP1 SSTORE DUP13 DUP1 DUP1 PUSH3 0xD6C JUMP JUMPDEST DUP2 DUP2 ADD MLOAD DUP4 SSTORE PUSH1 0x20 SWAP5 DUP6 ADD SWAP5 PUSH1 0x1 SWAP1 SWAP4 ADD SWAP3 SWAP1 SWAP2 ADD SWAP1 PUSH3 0xD4F JUMP JUMPDEST SWAP1 SWAP2 POP DUP5 DUP14 MSTORE PUSH1 0x20 DUP14 KECCAK256 PUSH1 0x1F DUP5 ADD PUSH1 0x5 SHR DUP2 ADD PUSH1 0x20 DUP6 LT PUSH3 0xDFB JUMPI JUMPDEST SWAP1 DUP5 SWAP4 SWAP3 SWAP2 JUMPDEST PUSH1 0x1F DUP4 ADD PUSH1 0x5 SHR DUP3 ADD DUP2 LT PUSH3 0xDEB JUMPI POP POP PUSH3 0xAA4 JUMP JUMPDEST PUSH1 0x0 DUP2 SSTORE DUP6 SWAP5 POP PUSH1 0x1 ADD PUSH3 0xDD3 JUMP JUMPDEST POP DUP1 PUSH3 0xDCD JUMP JUMPDEST PUSH4 0x4E487B71 PUSH1 0xE0 SHL DUP10 MSTORE PUSH1 0x41 PUSH1 0x4 MSTORE PUSH1 0x24 DUP10 REVERT JUMPDEST PUSH4 0x4E487B71 PUSH1 0xE0 SHL DUP9 MSTORE PUSH1 0x11 PUSH1 0x4 MSTORE PUSH1 0x24 DUP9 REVERT JUMPDEST PUSH3 0xE36 SWAP1 PUSH3 0x28BE JUMP JUMPDEST PUSH3 0xE43 JUMPI DUP7 DUP9 PUSH3 0x64F JUMP JUMPDEST DUP7 DUP1 REVERT JUMPDEST PUSH1 0x40 DUP1 MLOAD PUSH4 0x5844456F PUSH1 0xE0 SHL DUP2 MSTORE CALLER PUSH1 0x4 DUP3 ADD MSTORE PUSH1 0x24 DUP2 ADD SWAP2 SWAP1 SWAP2 MSTORE DUP1 PUSH3 0x36C PUSH1 0x44 DUP3 ADD DUP8 DUP8 PUSH3 0x2D38 JUMP JUMPDEST PUSH1 0x40 MLOAD PUSH4 0xD7D74B9D PUSH1 0xE0 SHL DUP2 MSTORE PUSH1 0x60 PUSH1 0x4 DUP3 ADD MSTORE SWAP1 DUP2 SWAP1 PUSH3 0xE9A PUSH1 0x64 DUP4 ADD DUP13 PUSH3 0x29E7 JUMP JUMPDEST SWAP1 PUSH1 0x24 DUP4 ADD MSTORE PUSH1 0xA PUSH1 0x44 DUP4 ADD MSTORE SUB SWAP1 REVERT JUMPDEST PUSH1 0x40 MLOAD PUSH4 0x18A996BB PUSH1 0xE2 SHL DUP2 MSTORE PUSH1 0x20 PUSH1 0x4 DUP3 ADD MSTORE DUP1 PUSH3 0x36C PUSH1 0x24 DUP3 ADD DUP12 PUSH3 0x29E7 JUMP JUMPDEST PUSH1 0x40 MLOAD PUSH4 0xD7D74B9D PUSH1 0xE0 SHL DUP2 MSTORE PUSH1 0x60 PUSH1 0x4 DUP3 ADD MSTORE SWAP1 DUP2 SWAP1 PUSH3 0xEF5 PUSH1 0x64 DUP4 ADD DUP13 PUSH3 0x29E7 JUMP JUMPDEST SWAP1 PUSH1 0x24 DUP4 ADD MSTORE PUSH1 0x64 PUSH1 0x44 DUP4 ADD MSTORE SUB SWAP1 REVERT JUMPDEST PUSH1 0x40 MLOAD PUSH4 0x47E54D3 PUSH1 0xE3 SHL DUP2 MSTORE PUSH1 0xFF DUP7 AND PUSH1 0x4 DUP3 ADD MSTORE PUSH1 0x12 PUSH1 0x24 DUP3 ADD MSTORE PUSH1 0x44 SWAP1 REVERT JUMPDEST PUSH1 0x44 DUP7 PUSH1 0x40 MLOAD SWAP1 PUSH4 0xDA801C7 PUSH1 0xE3 SHL DUP3 MSTORE PUSH1 0x4 CALLDATALOAD PUSH1 0x4 DUP4 ADD MSTORE PUSH1 0x24 DUP3 ADD MSTORE REVERT JUMPDEST DUP5 DUP1 REVERT JUMPDEST DUP3 DUP1 REVERT JUMPDEST POP CALLVALUE PUSH3 0x84D JUMPI PUSH1 0x40 CALLDATASIZE PUSH1 0x3 NOT ADD SLT PUSH3 0x84D JUMPI PUSH3 0xF6E PUSH3 0x2A0E JUMP JUMPDEST PUSH1 0x24 CALLDATALOAD PUSH1 0x1 PUSH1 0x1 PUSH1 0x40 SHL SUB DUP2 GT PUSH3 0xF4C JUMPI SWAP2 PUSH1 0x20 PUSH1 0xFF SWAP3 PUSH1 0x40 PUSH3 0xF99 DUP4 SWAP7 CALLDATASIZE SWAP1 PUSH1 0x4 ADD PUSH3 0x2AFF JUMP JUMPDEST PUSH1 0x1 PUSH1 0x1 PUSH1 0xA0 SHL SUB SWAP1 SWAP4 AND DUP6 MSTORE PUSH1 0xA DUP5 MSTORE SWAP4 KECCAK256 PUSH1 0x40 MLOAD SWAP4 DUP5 SWAP3 SWAP1 DUP2 SWAP1 DUP5 CALLDATACOPY DUP3 ADD SWAP1 DUP2 MSTORE SUB ADD SWAP1 KECCAK256 SLOAD AND PUSH1 0x40 MLOAD SWAP1 ISZERO ISZERO DUP2 MSTORE RETURN JUMPDEST POP CALLVALUE PUSH3 0x84D JUMPI DUP1 PUSH1 0x3 NOT CALLDATASIZE ADD SLT PUSH3 0x84D JUMPI PUSH1 0x40 MLOAD PUSH32 0x0 PUSH1 0x1 PUSH1 0x1 PUSH1 0xA0 SHL SUB AND DUP2 MSTORE PUSH1 0x20 SWAP1 RETURN JUMPDEST POP CALLVALUE PUSH3 0x84D JUMPI PUSH1 0x60 CALLDATASIZE PUSH1 0x3 NOT ADD SLT PUSH3 0x84D JUMPI PUSH3 0x1031 PUSH3 0x2A0E JUMP JUMPDEST PUSH3 0x103B PUSH3 0x2A25 JUMP JUMPDEST CALLER PUSH1 0x0 SWAP1 DUP2 MSTORE PUSH32 0x3C1B1854AB1360ABBB06C8D4C6B2672D4B8CEDC5EFF522AB19E51D5CB8FDBD46 PUSH1 0x20 SWAP1 DUP2 MSTORE PUSH1 0x40 SWAP1 SWAP2 KECCAK256 SLOAD PUSH1 0x44 CALLDATALOAD SWAP1 PUSH32 0xBF233DD2AAFEB4D50879C4AA5C81E96D92F6E6945C906A58F9F2D1C1631B4B26 SWAP1 PUSH1 0xFF AND ISZERO PUSH3 0x13EA JUMPI POP PUSH1 0x1 PUSH1 0x1 PUSH1 0xA0 SHL SUB DUP4 DUP2 AND SWAP5 SWAP1 SWAP4 SWAP1 DUP6 ISZERO PUSH3 0x13D8 JUMPI DUP3 ISZERO PUSH3 0x13C6 JUMPI DUP5 DUP2 AND SWAP5 PUSH32 0x0 AND DUP6 EQ DUP1 PUSH3 0x13BA JUMPI JUMPDEST PUSH3 0x1358 JUMPI DUP5 PUSH3 0x11CE JUMPI POP POP SWAP1 SELFBALANCE DUP1 DUP4 GT PUSH3 0x11A3 JUMPI POP DUP5 DUP1 DUP1 DUP1 DUP6 DUP9 GAS CALL PUSH3 0x1113 PUSH3 0x2CC2 JUMP JUMPDEST POP ISZERO PUSH3 0x1147 JUMPI PUSH32 0xF24EF89F38EADC1BDE50701AD6E4D6D11A2DC24F7CF834A486991F3883328504 SWAP2 JUMPDEST PUSH1 0x40 MLOAD SWAP1 DUP2 MSTORE LOG3 DUP1 RETURN JUMPDEST PUSH1 0xC4 PUSH1 0x40 MLOAD PUSH4 0x678FF877 PUSH1 0xE1 SHL DUP2 MSTORE PUSH1 0x40 PUSH1 0x4 DUP3 ADD MSTORE PUSH1 0xE PUSH1 0x44 DUP3 ADD MSTORE PUSH14 0x11551217D5D2551211149055D053 PUSH1 0x92 SHL PUSH1 0x64 DUP3 ADD MSTORE PUSH1 0x80 PUSH1 0x24 DUP3 ADD MSTORE PUSH1 0xF PUSH1 0x84 DUP3 ADD MSTORE PUSH15 0x151C985B9CD9995C8819985A5B1959 PUSH1 0x8A SHL PUSH1 0xA4 DUP3 ADD MSTORE REVERT JUMPDEST DUP3 PUSH1 0x84 SWAP2 PUSH1 0x40 MLOAD SWAP2 PUSH4 0xAF4502D PUSH1 0xE1 SHL DUP4 MSTORE ADDRESS PUSH1 0x4 DUP5 ADD MSTORE PUSH1 0x0 PUSH1 0x24 DUP5 ADD MSTORE PUSH1 0x44 DUP4 ADD MSTORE PUSH1 0x64 DUP3 ADD MSTORE REVERT JUMPDEST PUSH1 0x40 MLOAD PUSH4 0x70A08231 PUSH1 0xE0 SHL DUP2 MSTORE ADDRESS PUSH1 0x4 DUP3 ADD MSTORE DUP5 DUP2 PUSH1 0x24 DUP2 DUP10 GAS STATICCALL SWAP1 DUP2 ISZERO PUSH3 0x12DB JUMPI DUP9 SWAP2 PUSH3 0x1320 JUMPI JUMPDEST POP DUP1 DUP5 GT PUSH3 0x12E6 JUMPI POP PUSH1 0x40 MLOAD PUSH4 0xA9059CBB PUSH1 0xE0 SHL DUP2 MSTORE PUSH1 0x1 PUSH1 0x1 PUSH1 0xA0 SHL SUB DUP4 AND PUSH1 0x4 DUP3 ADD MSTORE PUSH1 0x24 DUP2 ADD DUP5 SWAP1 MSTORE DUP5 DUP2 PUSH1 0x44 DUP2 DUP12 DUP11 GAS CALL SWAP1 DUP2 ISZERO PUSH3 0x12DB JUMPI DUP9 SWAP2 PUSH3 0x12A7 JUMPI JUMPDEST POP ISZERO PUSH3 0x1271 JUMPI POP POP SWAP1 PUSH32 0xF24EF89F38EADC1BDE50701AD6E4D6D11A2DC24F7CF834A486991F3883328504 SWAP2 PUSH3 0x113D JUMP JUMPDEST PUSH1 0x40 MLOAD PUSH4 0xCD3F1659 PUSH1 0xE0 SHL DUP2 MSTORE PUSH1 0x1 PUSH1 0x1 PUSH1 0xA0 SHL SUB SWAP2 DUP3 AND PUSH1 0x4 DUP3 ADD MSTORE ADDRESS PUSH1 0x24 DUP3 ADD MSTORE SWAP2 AND PUSH1 0x44 DUP3 ADD MSTORE PUSH1 0x64 DUP2 ADD DUP3 SWAP1 MSTORE PUSH1 0x84 SWAP1 REVERT JUMPDEST PUSH3 0x12CC SWAP2 POP DUP6 RETURNDATASIZE DUP8 GT PUSH3 0x12D3 JUMPI JUMPDEST PUSH3 0x12C3 DUP2 DUP4 PUSH3 0x28EE JUMP JUMPDEST DUP2 ADD SWAP1 PUSH3 0x2CA8 JUMP JUMPDEST CODESIZE PUSH3 0x123F JUMP JUMPDEST POP RETURNDATASIZE PUSH3 0x12B7 JUMP JUMPDEST PUSH1 0x40 MLOAD RETURNDATASIZE DUP11 DUP3 RETURNDATACOPY RETURNDATASIZE SWAP1 REVERT JUMPDEST PUSH1 0x40 MLOAD PUSH4 0xAF4502D PUSH1 0xE1 SHL DUP2 MSTORE ADDRESS PUSH1 0x4 DUP3 ADD MSTORE PUSH1 0x1 PUSH1 0x1 PUSH1 0xA0 SHL SUB SWAP3 SWAP1 SWAP3 AND PUSH1 0x24 DUP4 ADD MSTORE PUSH1 0x44 DUP3 ADD SWAP4 SWAP1 SWAP4 MSTORE PUSH1 0x64 DUP2 ADD SWAP3 SWAP1 SWAP3 MSTORE POP PUSH1 0x84 SWAP1 REVERT JUMPDEST SWAP1 POP DUP5 DUP2 DUP2 RETURNDATASIZE DUP4 GT PUSH3 0x1350 JUMPI JUMPDEST PUSH3 0x133A DUP2 DUP4 PUSH3 0x28EE JUMP JUMPDEST DUP2 ADD SUB SLT PUSH3 0x134B JUMPI MLOAD CODESIZE PUSH3 0x11F9 JUMP JUMPDEST PUSH1 0x0 DUP1 REVERT JUMPDEST POP RETURNDATASIZE PUSH3 0x132E JUMP JUMPDEST PUSH1 0xA4 DUP6 PUSH1 0x40 MLOAD SWAP1 PUSH4 0x1D4DC23 PUSH1 0xE6 SHL DUP3 MSTORE PUSH1 0x4 DUP3 ADD MSTORE PUSH1 0x40 PUSH1 0x24 DUP3 ADD MSTORE PUSH1 0x2D PUSH1 0x44 DUP3 ADD MSTORE PUSH32 0x43616E6E6F74207769746864726177204352454441207768696C6520746F6B65 PUSH1 0x64 DUP3 ADD MSTORE PUSH13 0x1B9CC8185C99481B1BD8DAD959 PUSH1 0x9A SHL PUSH1 0x84 DUP3 ADD MSTORE REVERT JUMPDEST POP PUSH1 0x6 SLOAD ISZERO ISZERO PUSH3 0x10E9 JUMP JUMPDEST PUSH1 0x40 MLOAD PUSH4 0x1F2A2005 PUSH1 0xE0 SHL DUP2 MSTORE PUSH1 0x4 SWAP1 REVERT JUMPDEST PUSH1 0x40 MLOAD PUSH4 0xD92E233D PUSH1 0xE0 SHL DUP2 MSTORE PUSH1 0x4 SWAP1 REVERT JUMPDEST PUSH1 0x44 SWAP1 PUSH1 0x40 MLOAD SWAP1 PUSH4 0xE2517D3F PUSH1 0xE0 SHL DUP3 MSTORE CALLER PUSH1 0x4 DUP4 ADD MSTORE PUSH1 0x24 DUP3 ADD MSTORE REVERT JUMPDEST POP CALLVALUE PUSH3 0x84D JUMPI DUP1 PUSH1 0x3 NOT CALLDATASIZE ADD SLT PUSH3 0x84D JUMPI PUSH1 0x20 PUSH1 0x40 MLOAD PUSH32 0x65D7A28E3265B37A6474929F336521B332C1681B933F6CB9F3376673440D862A DUP2 MSTORE RETURN JUMPDEST POP CALLVALUE PUSH3 0x84D JUMPI DUP1 PUSH1 0x3 NOT CALLDATASIZE ADD SLT PUSH3 0x84D JUMPI PUSH1 0x20 PUSH1 0x40 MLOAD PUSH1 0xA DUP2 MSTORE RETURN JUMPDEST POP CALLVALUE PUSH3 0x84D JUMPI DUP1 PUSH1 0x3 NOT CALLDATASIZE ADD SLT PUSH3 0x84D JUMPI PUSH1 0x20 PUSH1 0x40 MLOAD PUSH1 0x12 DUP2 MSTORE RETURN JUMPDEST POP CALLVALUE PUSH3 0x84D JUMPI PUSH1 0x40 CALLDATASIZE PUSH1 0x3 NOT ADD SLT PUSH3 0x84D JUMPI PUSH3 0x14C6 PUSH1 0x4 CALLDATALOAD PUSH3 0x14A6 PUSH3 0x2A25 JUMP JUMPDEST SWAP1 DUP1 DUP5 MSTORE DUP4 PUSH1 0x20 MSTORE PUSH3 0x14C0 PUSH1 0x1 PUSH1 0x40 DUP7 KECCAK256 ADD SLOAD PUSH3 0x2B8C JUMP JUMPDEST PUSH3 0x2C32 JUMP JUMPDEST POP DUP1 RETURN JUMPDEST PUSH3 0x2AAB JUMP JUMPDEST POP CALLVALUE PUSH3 0x84D JUMPI DUP1 PUSH1 0x3 NOT CALLDATASIZE ADD SLT PUSH3 0x84D JUMPI PUSH1 0x20 PUSH1 0x40 MLOAD PUSH32 0x9F29EEE2263C2102949FD3FEBAFB3DD6DBBAEE114F48A474222B2159942EB2B2 DUP2 MSTORE RETURN JUMPDEST POP CALLVALUE PUSH3 0x84D JUMPI PUSH1 0x40 CALLDATASIZE PUSH1 0x3 NOT ADD SLT PUSH3 0x84D JUMPI PUSH3 0x152B PUSH3 0x2A0E JUMP JUMPDEST PUSH1 0x1 PUSH1 0x1 PUSH1 0xA0 SHL SUB AND DUP2 MSTORE PUSH1 0x9 PUSH1 0x20 MSTORE PUSH1 0x40 DUP2 KECCAK256 DUP1 SLOAD PUSH1 0x24 CALLDATALOAD SWAP3 SWAP1 DUP4 LT ISZERO PUSH3 0x84D JUMPI PUSH1 0x20 PUSH3 0x155C DUP5 DUP5 PUSH3 0x2AD0 JUMP JUMPDEST SWAP1 SLOAD PUSH1 0x40 MLOAD SWAP2 PUSH1 0x3 SHL SHR DUP2 MSTORE RETURN JUMPDEST POP CALLVALUE PUSH3 0x84D JUMPI PUSH1 0x20 CALLDATASIZE PUSH1 0x3 NOT ADD SLT PUSH3 0x84D JUMPI PUSH1 0x40 PUSH1 0xA0 SWAP2 PUSH1 0x4 CALLDATALOAD DUP2 MSTORE PUSH1 0x7 PUSH1 0x20 MSTORE KECCAK256 PUSH1 0x1 DUP1 DUP4 SHL SUB DUP1 DUP3 SLOAD AND SWAP2 PUSH1 0xFF PUSH1 0x2 PUSH1 0x1 DUP4 ADD SLOAD SWAP3 ADD SLOAD AND SWAP2 PUSH1 0x40 MLOAD SWAP4 DUP5 MSTORE DUP2 AND PUSH1 0x20 DUP5 ADD MSTORE PUSH1 0x1 PUSH1 0x1 PUSH1 0x58 SHL SUB DUP2 DUP6 SHR AND PUSH1 0x40 DUP5 ADD MSTORE PUSH1 0xF8 SHR PUSH1 0x60 DUP4 ADD MSTORE ISZERO ISZERO PUSH1 0x80 DUP3 ADD MSTORE RETURN JUMPDEST POP CALLVALUE PUSH3 0x84D JUMPI PUSH1 0x20 DUP1 PUSH1 0x3 NOT CALLDATASIZE ADD SLT PUSH3 0x94E JUMPI PUSH1 0x4 CALLDATALOAD SWAP2 PUSH3 0x15F9 PUSH3 0x2CF7 JUMP JUMPDEST PUSH3 0x1603 PUSH3 0x2D16 JUMP JUMPDEST DUP3 ISZERO PUSH3 0x13C6 JUMPI PUSH1 0x1 PUSH1 0x1 PUSH1 0xA0 SHL SUB PUSH32 0x0 DUP2 AND SWAP4 SWAP1 SWAP3 SWAP1 PUSH3 0x1646 DUP2 DUP7 CALLER PUSH3 0x2F59 JUMP JUMPDEST PUSH1 0x3 SLOAD SWAP4 DUP5 ISZERO PUSH3 0x1A2C JUMPI PUSH8 0xDE0B6B3A7640000 PUSH3 0x169D PUSH1 0x40 MLOAD PUSH3 0x166C DUP2 PUSH3 0x28D2 JUMP JUMPDEST PUSH1 0x1A DUP2 MSTORE PUSH32 0x43524544415F544F5F58505F4D554C5449504C49434154494F4E000000000000 DUP7 DUP3 ADD MSTORE DUP8 DUP6 PUSH3 0x30D3 JUMP JUMPDEST PUSH20 0x21A922A220AFAA27AFAC282FA224AB24A9A4A7A7 PUSH1 0x61 SHL DUP6 PUSH1 0x40 MLOAD PUSH3 0x16C4 DUP2 PUSH3 0x28D2 JUMP JUMPDEST PUSH1 0x14 DUP2 MSTORE ADD MSTORE DIV SWAP5 DUP6 ISZERO PUSH3 0x1A0E JUMPI POP PUSH1 0x40 MLOAD PUSH4 0x23B872DD PUSH1 0xE0 SHL DUP2 MSTORE CALLER PUSH1 0x4 DUP3 ADD MSTORE ADDRESS PUSH1 0x24 DUP3 ADD MSTORE PUSH1 0x44 DUP2 ADD DUP4 SWAP1 MSTORE DUP4 DUP2 PUSH1 0x64 DUP2 DUP9 DUP12 GAS CALL SWAP1 DUP2 ISZERO PUSH3 0x1A03 JUMPI DUP6 SWAP2 PUSH3 0x19E1 JUMPI JUMPDEST POP ISZERO PUSH3 0x19AB JUMPI CALLER DUP5 MSTORE PUSH1 0x5 DUP4 MSTORE PUSH3 0x1763 PUSH1 0x40 DUP6 KECCAK256 SLOAD DUP4 PUSH1 0x40 MLOAD SWAP2 PUSH3 0x1734 DUP4 PUSH3 0x28D2 JUMP JUMPDEST PUSH1 0x18 DUP4 MSTORE PUSH32 0x555345525F4C4F434B45445F43524544415F5550444154450000000000000000 DUP8 DUP5 ADD MSTORE PUSH3 0x312C JUMP JUMPDEST CALLER DUP6 MSTORE PUSH1 0x5 DUP5 MSTORE PUSH1 0x40 DUP6 KECCAK256 SSTORE PUSH3 0x17B5 PUSH1 0x6 SLOAD DUP4 PUSH1 0x40 MLOAD SWAP2 PUSH3 0x1786 DUP4 PUSH3 0x28D2 JUMP JUMPDEST PUSH1 0x19 DUP4 MSTORE PUSH32 0x544F54414C5F4C4F434B45445F43524544415F55504441544500000000000000 DUP8 DUP5 ADD MSTORE PUSH3 0x312C JUMP JUMPDEST PUSH1 0x6 SSTORE PUSH32 0x0 AND SWAP3 DUP4 EXTCODESIZE ISZERO PUSH3 0x84D JUMPI PUSH1 0x40 MLOAD PUSH4 0x40C10F19 PUSH1 0xE0 SHL DUP2 MSTORE CALLER PUSH1 0x4 DUP3 ADD MSTORE PUSH1 0x24 DUP2 ADD DUP7 SWAP1 MSTORE DUP2 DUP1 DUP3 PUSH1 0x44 DUP2 DUP4 DUP11 GAS CALL SWAP2 DUP3 PUSH3 0x1993 JUMPI JUMPDEST POP POP PUSH3 0x1959 JUMPI PUSH3 0x1820 PUSH3 0x2CC2 JUMP JUMPDEST POP PUSH1 0x40 MLOAD PUSH4 0xA9059CBB PUSH1 0xE0 SHL DUP2 MSTORE CALLER PUSH1 0x4 DUP3 ADD MSTORE PUSH1 0x24 DUP2 ADD DUP4 SWAP1 MSTORE SWAP6 DUP4 SWAP1 DUP8 SWAP1 PUSH1 0x44 SWAP1 DUP3 SWAP1 DUP6 SWAP1 GAS CALL SWAP6 DUP7 ISZERO PUSH3 0x194C JUMPI PUSH3 0x18F8 SWAP5 SWAP6 SWAP7 PUSH3 0x192A JUMPI JUMPDEST POP CALLER DUP2 MSTORE PUSH1 0x5 DUP4 MSTORE PUSH1 0x40 PUSH3 0x18AE DUP2 DUP4 KECCAK256 SLOAD DUP5 DUP4 MLOAD SWAP2 PUSH3 0x187F DUP4 PUSH3 0x28D2 JUMP JUMPDEST PUSH1 0x18 DUP4 MSTORE PUSH32 0x5245564552545F555345525F4C4F434B45445F43524544410000000000000000 DUP9 DUP5 ADD MSTORE PUSH3 0x3146 JUMP JUMPDEST SWAP2 CALLER DUP2 MSTORE PUSH1 0x5 DUP6 MSTORE KECCAK256 SSTORE PUSH1 0x6 SLOAD PUSH32 0x5245564552545F544F54414C5F4C4F434B45445F435245444100000000000000 PUSH1 0x40 MLOAD SWAP4 PUSH3 0x18EB DUP6 PUSH3 0x28D2 JUMP JUMPDEST PUSH1 0x19 DUP6 MSTORE DUP5 ADD MSTORE PUSH3 0x3146 JUMP JUMPDEST POP PUSH1 0x40 MLOAD PUSH4 0x505066FB PUSH1 0xE1 SHL DUP2 MSTORE PUSH1 0x1 PUSH1 0x1 PUSH1 0xA0 SHL SUB SWAP2 SWAP1 SWAP2 AND PUSH1 0x4 DUP3 ADD MSTORE CALLER PUSH1 0x24 DUP3 ADD MSTORE PUSH1 0x44 DUP2 ADD SWAP2 SWAP1 SWAP2 MSTORE PUSH1 0x64 SWAP1 REVERT JUMPDEST PUSH3 0x1944 SWAP1 DUP5 RETURNDATASIZE DUP7 GT PUSH3 0x12D3 JUMPI PUSH3 0x12C3 DUP2 DUP4 PUSH3 0x28EE JUMP JUMPDEST POP CODESIZE PUSH3 0x185E JUMP JUMPDEST POP PUSH1 0x40 MLOAD SWAP1 RETURNDATASIZE SWAP1 DUP3 RETURNDATACOPY RETURNDATASIZE SWAP1 REVERT JUMPDEST SWAP2 DUP5 SWAP1 PUSH1 0x40 MLOAD SWAP3 DUP4 MSTORE DUP3 ADD MSTORE PUSH32 0x9F7BA93B5A3C052166A93CFB443D72D1FEC4F82BB913B1383B8F26C10FB7941E PUSH1 0x40 CALLER SWAP3 LOG2 PUSH1 0x1 PUSH1 0x2 SSTORE DUP1 RETURN JUMPDEST PUSH3 0x199E SWAP1 PUSH3 0x28BE JUMP JUMPDEST PUSH3 0x94E JUMPI DUP2 CODESIZE PUSH3 0x180F JUMP JUMPDEST POP PUSH1 0x40 MLOAD PUSH4 0xCD3F1659 PUSH1 0xE0 SHL DUP2 MSTORE PUSH1 0x1 PUSH1 0x1 PUSH1 0xA0 SHL SUB DUP7 AND PUSH1 0x4 DUP3 ADD MSTORE CALLER PUSH1 0x24 DUP3 ADD MSTORE ADDRESS PUSH1 0x44 DUP3 ADD MSTORE PUSH1 0x64 DUP2 ADD SWAP2 SWAP1 SWAP2 MSTORE PUSH1 0x84 SWAP1 REVERT JUMPDEST PUSH3 0x19FC SWAP2 POP DUP5 RETURNDATASIZE DUP7 GT PUSH3 0x12D3 JUMPI PUSH3 0x12C3 DUP2 DUP4 PUSH3 0x28EE JUMP JUMPDEST CODESIZE PUSH3 0x170D JUMP JUMPDEST PUSH1 0x40 MLOAD RETURNDATASIZE DUP8 DUP3 RETURNDATACOPY RETURNDATASIZE SWAP1 REVERT JUMPDEST DUP3 PUSH1 0x44 SWAP2 PUSH1 0x40 MLOAD SWAP2 PUSH4 0x1281124D PUSH1 0xE1 SHL DUP4 MSTORE PUSH1 0x4 DUP4 ADD MSTORE PUSH1 0x24 DUP3 ADD MSTORE REVERT JUMPDEST PUSH1 0x40 MLOAD PUSH4 0xF10E7E17 PUSH1 0xE0 SHL DUP2 MSTORE PUSH1 0x4 DUP2 ADD DUP7 SWAP1 MSTORE PUSH1 0x24 SWAP1 REVERT JUMPDEST POP CALLVALUE PUSH3 0x84D JUMPI DUP1 PUSH1 0x3 NOT CALLDATASIZE ADD SLT PUSH3 0x84D JUMPI PUSH1 0x20 PUSH1 0x4 SLOAD PUSH1 0x40 MLOAD SWAP1 DUP2 MSTORE RETURN JUMPDEST POP CALLVALUE PUSH3 0x84D JUMPI DUP1 PUSH1 0x3 NOT CALLDATASIZE ADD SLT PUSH3 0x84D JUMPI PUSH1 0x40 MLOAD PUSH32 0x0 PUSH1 0x1 PUSH1 0x1 PUSH1 0xA0 SHL SUB AND DUP2 MSTORE PUSH1 0x20 SWAP1 RETURN JUMPDEST POP CALLVALUE PUSH3 0x84D JUMPI DUP1 PUSH1 0x3 NOT CALLDATASIZE ADD SLT PUSH3 0x84D JUMPI PUSH1 0x20 PUSH1 0x6 SLOAD PUSH1 0x40 MLOAD SWAP1 DUP2 MSTORE RETURN JUMPDEST POP CALLVALUE PUSH3 0x84D JUMPI DUP1 PUSH1 0x3 NOT CALLDATASIZE ADD SLT PUSH3 0x84D JUMPI PUSH1 0x20 SWAP1 PUSH1 0x40 MLOAD SWAP1 DUP2 MSTORE RETURN JUMPDEST POP CALLVALUE PUSH3 0x84D JUMPI PUSH1 0x40 CALLDATASIZE PUSH1 0x3 NOT ADD SLT PUSH3 0x84D JUMPI PUSH1 0x40 PUSH3 0x1B0A PUSH3 0x2A25 JUMP JUMPDEST SWAP2 PUSH1 0x4 CALLDATALOAD DUP2 MSTORE DUP1 PUSH1 0x20 MSTORE KECCAK256 SWAP1 PUSH1 0x1 DUP1 PUSH1 0xA0 SHL SUB AND PUSH1 0x0 MSTORE PUSH1 0x20 MSTORE PUSH1 0x20 PUSH1 0xFF PUSH1 0x40 PUSH1 0x0 KECCAK256 SLOAD AND PUSH1 0x40 MLOAD SWAP1 ISZERO ISZERO DUP2 MSTORE RETURN JUMPDEST POP CALLVALUE PUSH3 0x84D JUMPI DUP1 PUSH1 0x3 NOT CALLDATASIZE ADD SLT PUSH3 0x84D JUMPI PUSH1 0x20 PUSH1 0x40 MLOAD PUSH1 0x64 DUP2 MSTORE RETURN JUMPDEST POP CALLVALUE PUSH3 0x84D JUMPI DUP1 PUSH1 0x3 NOT CALLDATASIZE ADD SLT PUSH3 0x84D JUMPI PUSH3 0x1B74 PUSH3 0x2B2F JUMP JUMPDEST PUSH3 0x1B7E PUSH3 0x2CF7 JUMP JUMPDEST PUSH1 0x1 PUSH1 0xFF NOT DUP2 SLOAD AND OR PUSH1 0x1 SSTORE PUSH32 0x62E78CEA01BEE320CD4E420270B5EA74000D11B0C9F74754EBDBFC544B05A258 PUSH1 0x20 PUSH1 0x40 MLOAD CALLER DUP2 MSTORE LOG1 DUP1 RETURN JUMPDEST POP CALLVALUE PUSH3 0x84D JUMPI PUSH1 0x20 CALLDATASIZE PUSH1 0x3 NOT ADD SLT PUSH3 0x84D JUMPI PUSH1 0x20 PUSH8 0xDE0B6B3A7640000 PUSH3 0x1BE6 PUSH1 0x3 SLOAD PUSH1 0x4 CALLDATALOAD PUSH3 0x2D8D JUMP JUMPDEST DIV PUSH1 0x40 MLOAD SWAP1 DUP2 MSTORE RETURN JUMPDEST POP CALLVALUE PUSH3 0x84D JUMPI DUP1 PUSH1 0x3 NOT CALLDATASIZE ADD SLT PUSH3 0x84D JUMPI PUSH1 0x20 PUSH1 0xB SLOAD PUSH1 0x40 MLOAD SWAP1 DUP2 MSTORE RETURN JUMPDEST POP CALLVALUE PUSH3 0x84D JUMPI PUSH3 0x1C21 CALLDATASIZE PUSH3 0x2A94 JUMP JUMPDEST SWAP2 PUSH3 0x1C2C PUSH3 0x2CF7 JUMP JUMPDEST PUSH3 0x1C36 PUSH3 0x2D16 JUMP JUMPDEST DUP3 ISZERO PUSH3 0x13C6 JUMPI DUP2 ISZERO DUP1 ISZERO PUSH3 0x20B9 JUMPI JUMPDEST PUSH3 0x2076 JUMPI DUP2 DUP2 MSTORE PUSH1 0x20 SWAP1 PUSH1 0x7 DUP3 MSTORE PUSH1 0x40 DUP2 KECCAK256 SWAP2 PUSH1 0xFF PUSH1 0x2 DUP5 ADD SLOAD AND ISZERO PUSH3 0x205D JUMPI DUP4 DUP3 MSTORE PUSH1 0x8 DUP2 MSTORE PUSH1 0x40 DUP3 KECCAK256 SWAP2 PUSH1 0x40 MLOAD PUSH3 0x1C83 DUP2 PUSH3 0x28A2 JUMP JUMPDEST PUSH3 0x1C8E DUP5 PUSH3 0x2910 JUMP JUMPDEST DUP2 MSTORE PUSH3 0x1C9E PUSH1 0x1 DUP6 ADD PUSH3 0x2910 JUMP JUMPDEST DUP4 DUP3 ADD MSTORE PUSH1 0x2 DUP5 ADD SLOAD SWAP1 PUSH1 0x60 PUSH1 0x3 PUSH1 0x40 DUP4 ADD SWAP7 DUP5 DUP9 MSTORE ADD SLOAD SWAP2 ADD MSTORE ISZERO PUSH3 0x1FF3 JUMPI DUP4 SLOAD PUSH1 0x40 MLOAD PUSH4 0x70A08231 PUSH1 0xE0 SHL DUP2 MSTORE CALLER PUSH1 0x4 DUP3 ADD MSTORE PUSH1 0x1 PUSH1 0x1 PUSH1 0xA0 SHL SUB SWAP7 SWAP2 DUP8 AND SWAP5 SWAP1 DUP5 DUP2 PUSH1 0x24 DUP2 DUP10 GAS STATICCALL SWAP1 DUP2 ISZERO PUSH3 0x1FE8 JUMPI DUP5 SWAP2 PUSH3 0x1FB5 JUMPI JUMPDEST POP DUP9 DUP2 LT PUSH3 0x1F7F JUMPI POP PUSH3 0x1D58 PUSH1 0x1 PUSH1 0x1 PUSH1 0x58 SHL SUB PUSH1 0x1 DUP9 ADD SLOAD PUSH1 0xA0 SHR AND PUSH1 0x40 MLOAD SWAP1 PUSH3 0x1D28 DUP3 PUSH3 0x28D2 JUMP JUMPDEST PUSH1 0x18 DUP3 MSTORE PUSH32 0x58505F52455455524E5F4D554C5449504C49434154494F4E0000000000000000 DUP8 DUP4 ADD MSTORE DUP11 PUSH3 0x30D3 JUMP JUMPDEST SWAP1 MLOAD SWAP1 PUSH1 0x40 MLOAD PUSH3 0x1D69 DUP2 PUSH3 0x28D2 JUMP JUMPDEST PUSH1 0x12 DUP2 MSTORE PUSH18 0x2C282FA922AA2AA9272FA224AB24A9A4A7A7 PUSH1 0x71 SHL DUP7 DUP3 ADD MSTORE DUP3 ISZERO PUSH3 0x1F5A JUMPI POP SWAP1 PUSH3 0x1D9B SWAP2 PUSH3 0x2DA1 JUMP JUMPDEST SWAP4 PUSH1 0xB SLOAD DUP6 DUP2 LT PUSH3 0x1F3C JUMPI POP DUP1 EXTCODESIZE ISZERO PUSH3 0xF4C JUMPI PUSH1 0x40 MLOAD PUSH4 0x79CC679 PUSH1 0xE4 SHL DUP2 MSTORE CALLER PUSH1 0x4 DUP3 ADD MSTORE PUSH1 0x24 DUP2 ADD DUP10 SWAP1 MSTORE SWAP1 DUP4 SWAP1 DUP3 SWAP1 PUSH1 0x44 SWAP1 DUP3 SWAP1 DUP5 SWAP1 GAS CALL SWAP1 DUP2 PUSH3 0x1F26 JUMPI JUMPDEST POP PUSH3 0x1E26 JUMPI POP POP POP POP PUSH3 0x1DF4 PUSH3 0x2CC2 JUMP JUMPDEST POP SLOAD PUSH1 0x40 MLOAD PUSH4 0xA5877843 PUSH1 0xE0 SHL DUP2 MSTORE SWAP2 AND PUSH1 0x1 PUSH1 0x1 PUSH1 0xA0 SHL SUB AND PUSH1 0x4 DUP3 ADD MSTORE CALLER PUSH1 0x24 DUP3 ADD MSTORE PUSH1 0x44 DUP2 ADD SWAP2 SWAP1 SWAP2 MSTORE PUSH1 0x64 SWAP1 REVERT JUMPDEST DUP7 SWAP1 DUP7 PUSH3 0x1E64 PUSH1 0xB SLOAD DUP8 PUSH1 0x40 MLOAD SWAP2 PUSH3 0x1E40 DUP4 PUSH3 0x28D2 JUMP JUMPDEST PUSH1 0x12 DUP4 MSTORE PUSH18 0x58505F52455345525645535F555044415445 PUSH1 0x70 SHL DUP10 DUP5 ADD MSTORE PUSH3 0x3146 JUMP JUMPDEST PUSH1 0xB SSTORE PUSH32 0x0 AND SWAP4 DUP5 EXTCODESIZE ISZERO PUSH3 0x1F22 JUMPI PUSH1 0x40 MLOAD PUSH4 0x40C10F19 PUSH1 0xE0 SHL DUP2 MSTORE CALLER PUSH1 0x4 DUP3 ADD MSTORE PUSH1 0x24 DUP2 ADD DUP8 SWAP1 MSTORE DUP5 DUP1 DUP3 PUSH1 0x44 DUP2 DUP4 DUP12 GAS CALL SWAP2 DUP3 PUSH3 0x1F0A JUMPI JUMPDEST POP POP PUSH3 0x1ED1 JUMPI DUP6 DUP6 PUSH3 0x18F8 PUSH3 0x2CC2 JUMP JUMPDEST DUP6 SWAP1 PUSH1 0x40 MLOAD SWAP4 DUP5 MSTORE DUP4 ADD MSTORE PUSH32 0xEFD5D515529A8F76C5944B1D953CDE6B2C61C8B81E144C964AEB038714CABCA6 PUSH1 0x40 CALLER SWAP4 LOG3 PUSH1 0x1 PUSH1 0x2 SSTORE DUP1 RETURN JUMPDEST PUSH3 0x1F15 SWAP1 PUSH3 0x28BE JUMP JUMPDEST PUSH3 0xF48 JUMPI DUP5 DUP9 PUSH3 0x1EBE JUMP JUMPDEST DUP4 DUP1 REVERT JUMPDEST PUSH3 0x1F34 SWAP1 SWAP4 SWAP2 SWAP4 PUSH3 0x28BE JUMP JUMPDEST SWAP2 CODESIZE PUSH3 0x1DE0 JUMP JUMPDEST DUP6 PUSH1 0x44 SWAP2 PUSH1 0x40 MLOAD SWAP2 PUSH4 0x7427529B PUSH1 0xE0 SHL DUP4 MSTORE PUSH1 0x4 DUP4 ADD MSTORE PUSH1 0x24 DUP3 ADD MSTORE REVERT JUMPDEST DUP6 PUSH3 0x36C PUSH1 0x40 MLOAD SWAP3 DUP4 SWAP3 PUSH4 0x85672273 PUSH1 0xE0 SHL DUP5 MSTORE PUSH1 0x4 DUP5 ADD MSTORE PUSH1 0x24 DUP4 ADD SWAP1 PUSH3 0x29E7 JUMP JUMPDEST PUSH1 0x40 MLOAD PUSH4 0xAF4502D PUSH1 0xE1 SHL DUP2 MSTORE CALLER PUSH1 0x4 DUP3 ADD MSTORE PUSH1 0x1 PUSH1 0x1 PUSH1 0xA0 SHL SUB DUP8 AND PUSH1 0x24 DUP3 ADD MSTORE PUSH1 0x44 DUP2 ADD DUP11 SWAP1 MSTORE PUSH1 0x64 DUP2 ADD SWAP2 SWAP1 SWAP2 MSTORE PUSH1 0x84 SWAP1 REVERT JUMPDEST SWAP1 POP DUP5 DUP2 DUP2 RETURNDATASIZE DUP4 GT PUSH3 0x1FE0 JUMPI JUMPDEST PUSH3 0x1FCF DUP2 DUP4 PUSH3 0x28EE JUMP JUMPDEST DUP2 ADD SUB SLT PUSH3 0x1F22 JUMPI MLOAD CODESIZE PUSH3 0x1CFA JUMP JUMPDEST POP RETURNDATASIZE PUSH3 0x1FC3 JUMP JUMPDEST PUSH1 0x40 MLOAD RETURNDATASIZE DUP7 DUP3 RETURNDATACOPY RETURNDATASIZE SWAP1 REVERT JUMPDEST PUSH1 0xC4 PUSH1 0x40 MLOAD PUSH4 0x78DBF71B PUSH1 0xE1 SHL DUP2 MSTORE PUSH1 0x40 PUSH1 0x4 DUP3 ADD MSTORE PUSH1 0x15 PUSH1 0x44 DUP3 ADD MSTORE PUSH21 0x2C282FA922AA2AA9272FA1A0A621AAA620AA24A7A7 PUSH1 0x59 SHL PUSH1 0x64 DUP3 ADD MSTORE PUSH1 0x80 PUSH1 0x24 DUP3 ADD MSTORE PUSH1 0x16 PUSH1 0x84 DUP3 ADD MSTORE PUSH22 0x496E697469616C20737570706C79206973207A65726F PUSH1 0x50 SHL PUSH1 0xA4 DUP3 ADD MSTORE REVERT JUMPDEST PUSH1 0x40 MLOAD PUSH4 0xC00006E3 PUSH1 0xE0 SHL DUP2 MSTORE PUSH1 0x4 DUP2 ADD DUP6 SWAP1 MSTORE PUSH1 0x24 SWAP1 REVERT JUMPDEST SWAP1 PUSH1 0x4 SLOAD PUSH1 0x0 NOT DUP2 ADD SWAP1 DUP2 GT PUSH3 0x20A5 JUMPI PUSH1 0x44 SWAP3 POP PUSH1 0x40 MLOAD SWAP2 PUSH4 0x3D00B055 PUSH1 0xE0 SHL DUP4 MSTORE PUSH1 0x4 DUP4 ADD MSTORE PUSH1 0x24 DUP3 ADD MSTORE REVERT JUMPDEST PUSH4 0x4E487B71 PUSH1 0xE0 SHL DUP4 MSTORE PUSH1 0x11 PUSH1 0x4 MSTORE PUSH1 0x24 DUP4 REVERT JUMPDEST POP PUSH1 0x4 SLOAD DUP3 LT ISZERO PUSH3 0x1C47 JUMP JUMPDEST POP CALLVALUE PUSH3 0x84D JUMPI PUSH1 0x20 SWAP1 DUP2 PUSH1 0x3 NOT CALLDATASIZE ADD SLT PUSH3 0x84D JUMPI PUSH1 0x4 CALLDATALOAD SWAP2 PUSH1 0x40 MLOAD PUSH3 0x20EE DUP2 PUSH3 0x2870 JUMP JUMPDEST DUP3 DUP2 MSTORE DUP3 DUP3 DUP3 ADD MSTORE DUP3 PUSH1 0x40 DUP3 ADD MSTORE DUP3 PUSH1 0x60 SWAP2 DUP2 DUP4 DUP3 ADD MSTORE PUSH1 0x80 ADD MSTORE DUP3 DUP2 PUSH1 0x40 MLOAD PUSH3 0x2119 DUP2 PUSH3 0x28A2 JUMP JUMPDEST DUP2 DUP2 MSTORE DUP2 DUP6 DUP3 ADD MSTORE DUP3 PUSH1 0x40 DUP3 ADD MSTORE ADD MSTORE DUP4 DUP4 MSTORE PUSH1 0x7 DUP3 MSTORE PUSH1 0x40 DUP4 KECCAK256 SWAP2 PUSH1 0x40 MLOAD SWAP4 PUSH3 0x2144 DUP6 PUSH3 0x2870 JUMP JUMPDEST PUSH1 0x1 PUSH1 0xA0 SHL PUSH1 0x1 SWAP1 SUB SWAP6 DUP7 DUP6 SLOAD AND DUP7 MSTORE PUSH1 0x1 DUP6 ADD SLOAD SWAP4 DUP4 DUP8 ADD SWAP5 DUP9 DUP2 AND DUP7 MSTORE PUSH1 0x40 DUP9 ADD SWAP4 PUSH1 0x1 PUSH1 0x1 PUSH1 0x58 SHL SUB SWAP8 DUP9 DUP4 PUSH1 0xA0 SHR AND DUP7 MSTORE DUP4 DUP11 ADD SWAP3 PUSH1 0xF8 SHR DUP4 MSTORE PUSH1 0x2 ADD SLOAD PUSH1 0xFF AND SWAP4 PUSH1 0x80 DUP11 ADD SWAP5 ISZERO ISZERO DUP6 MSTORE DUP2 MSTORE PUSH1 0x8 DUP7 MSTORE PUSH1 0x40 SWAP1 KECCAK256 SWAP7 PUSH1 0x40 MLOAD SWAP5 PUSH3 0x21AD DUP7 PUSH3 0x28A2 JUMP JUMPDEST PUSH3 0x21B8 DUP10 PUSH3 0x2910 JUMP JUMPDEST DUP7 MSTORE PUSH3 0x21C8 PUSH1 0x1 DUP11 ADD PUSH3 0x2910 JUMP JUMPDEST SWAP7 DUP1 DUP8 ADD SWAP8 DUP9 MSTORE DUP12 PUSH1 0x2 DUP12 ADD SLOAD SWAP11 PUSH1 0x40 DUP10 ADD SWAP12 DUP13 MSTORE PUSH1 0x3 ADD SLOAD SWAP10 DUP7 DUP10 ADD SWAP11 DUP12 MSTORE PUSH1 0x40 MLOAD SWAP14 DUP15 SWAP14 MLOAD AND DUP14 MSTORE MLOAD AND SWAP1 DUP12 ADD MSTORE MLOAD AND PUSH1 0x40 DUP10 ADD MSTORE MLOAD PUSH1 0xFF AND SWAP1 DUP8 ADD MSTORE MLOAD ISZERO ISZERO PUSH1 0x80 DUP7 ADD MSTORE PUSH1 0xA0 DUP6 ADD PUSH1 0xC0 SWAP1 MSTORE MLOAD PUSH1 0xC0 DUP6 ADD PUSH1 0x80 SWAP1 MSTORE PUSH2 0x140 DUP6 ADD PUSH3 0x2230 SWAP2 PUSH3 0x29E7 JUMP JUMPDEST SWAP1 MLOAD DUP5 DUP3 SUB PUSH1 0xBF NOT ADD PUSH1 0xE0 DUP7 ADD MSTORE PUSH3 0x224A SWAP2 SWAP1 PUSH3 0x29E7 JUMP JUMPDEST SWAP2 MLOAD PUSH2 0x100 DUP5 ADD MSTORE MLOAD PUSH2 0x120 DUP4 ADD MSTORE SUB SWAP1 RETURN JUMPDEST POP CALLVALUE PUSH3 0x84D JUMPI DUP1 PUSH1 0x3 NOT CALLDATASIZE ADD SLT PUSH3 0x84D JUMPI PUSH1 0x20 PUSH1 0xFF PUSH1 0x1 SLOAD AND PUSH1 0x40 MLOAD SWAP1 ISZERO ISZERO DUP2 MSTORE RETURN JUMPDEST POP CALLVALUE PUSH3 0x84D JUMPI PUSH1 0x20 DUP1 PUSH1 0x3 NOT CALLDATASIZE ADD SLT PUSH3 0x94E JUMPI PUSH1 0x1 PUSH1 0x1 PUSH1 0xA0 SHL SUB PUSH3 0x22A9 PUSH3 0x2A0E JUMP JUMPDEST AND DUP3 MSTORE PUSH1 0x9 DUP2 MSTORE PUSH1 0x40 DUP3 KECCAK256 PUSH1 0x40 MLOAD SWAP3 DUP4 DUP4 DUP4 SLOAD SWAP2 DUP3 DUP2 MSTORE ADD SWAP1 DUP2 SWAP4 DUP4 MSTORE DUP5 DUP4 KECCAK256 SWAP1 DUP4 JUMPDEST DUP2 DUP2 LT PUSH3 0x2325 JUMPI POP POP POP DUP5 PUSH3 0x22E5 SWAP2 SUB DUP6 PUSH3 0x28EE JUMP JUMPDEST PUSH1 0x40 MLOAD SWAP4 DUP4 DUP6 SWAP5 DUP6 ADD SWAP2 DUP2 DUP7 MSTORE MLOAD DUP1 SWAP3 MSTORE PUSH1 0x40 DUP6 ADD SWAP4 SWAP3 JUMPDEST DUP3 DUP2 LT PUSH3 0x230D JUMPI POP POP POP POP SUB SWAP1 RETURN JUMPDEST DUP4 MLOAD DUP6 MSTORE DUP7 SWAP6 POP SWAP4 DUP2 ADD SWAP4 SWAP3 DUP2 ADD SWAP3 PUSH1 0x1 ADD PUSH3 0x22FD JUMP JUMPDEST DUP3 SLOAD DUP5 MSTORE SWAP3 DUP7 ADD SWAP3 PUSH1 0x1 SWAP3 DUP4 ADD SWAP3 ADD PUSH3 0x22CC JUMP JUMPDEST POP CALLVALUE PUSH3 0x84D JUMPI DUP1 PUSH1 0x3 NOT CALLDATASIZE ADD SLT PUSH3 0x84D JUMPI PUSH3 0x2357 PUSH3 0x2B2F JUMP JUMPDEST PUSH1 0x1 SLOAD PUSH1 0xFF DUP2 AND ISZERO PUSH3 0x2398 JUMPI PUSH1 0xFF NOT AND PUSH1 0x1 SSTORE PUSH32 0x5DB9EE0A495BF2E6FF9C91A7834C1BA4FDD244A5E8AA4E537BD38AEAE4B073AA PUSH1 0x20 PUSH1 0x40 MLOAD CALLER DUP2 MSTORE LOG1 DUP1 RETURN JUMPDEST PUSH1 0x40 MLOAD PUSH4 0x8DFC202B PUSH1 0xE0 SHL DUP2 MSTORE PUSH1 0x4 SWAP1 REVERT JUMPDEST POP CALLVALUE PUSH3 0x84D JUMPI PUSH1 0x20 PUSH3 0x23C9 PUSH3 0x23C2 CALLDATASIZE PUSH3 0x2A94 JUMP JUMPDEST SWAP1 PUSH3 0x2E47 JUMP JUMPDEST PUSH1 0x40 MLOAD SWAP1 DUP2 MSTORE RETURN JUMPDEST POP CALLVALUE PUSH3 0x84D JUMPI PUSH1 0x40 CALLDATASIZE PUSH1 0x3 NOT ADD SLT PUSH3 0x84D JUMPI PUSH3 0x23EF PUSH3 0x2A25 JUMP JUMPDEST CALLER PUSH1 0x1 PUSH1 0x1 PUSH1 0xA0 SHL SUB DUP3 AND SUB PUSH3 0x240E JUMPI PUSH3 0x14C6 SWAP1 PUSH1 0x4 CALLDATALOAD PUSH3 0x2C32 JUMP JUMPDEST PUSH1 0x40 MLOAD PUSH4 0x334BD919 PUSH1 0xE1 SHL DUP2 MSTORE PUSH1 0x4 SWAP1 REVERT JUMPDEST POP CALLVALUE PUSH3 0x84D JUMPI PUSH1 0x20 CALLDATASIZE PUSH1 0x3 NOT ADD SLT PUSH3 0x84D JUMPI PUSH1 0x4 CALLDATALOAD PUSH32 0x9F29EEE2263C2102949FD3FEBAFB3DD6DBBAEE114F48A474222B2159942EB2B2 DUP1 DUP4 MSTORE DUP3 PUSH1 0x20 MSTORE PUSH1 0x40 DUP4 KECCAK256 CALLER DUP5 MSTORE PUSH1 0x20 MSTORE PUSH1 0xFF PUSH1 0x40 DUP5 KECCAK256 SLOAD AND ISZERO PUSH3 0x13EA JUMPI POP DUP1 ISZERO PUSH3 0x259D JUMPI PUSH1 0x3 SLOAD SWAP1 DUP2 PUSH3 0x24F2 JUMPI JUMPDEST PUSH9 0x3635C9ADC5DEA00000 DUP1 DUP3 GT PUSH3 0x24D4 JUMPI POP PUSH32 0xB38780DDDE1F073D91C150DE2696F3F7085883648BA21CC5EF01029CB21D1916 SWAP2 DUP2 PUSH1 0x40 SWAP3 PUSH1 0x3 SSTORE DUP3 MLOAD SWAP2 DUP3 MSTORE PUSH1 0x20 DUP3 ADD MSTORE LOG1 DUP1 RETURN JUMPDEST PUSH1 0x44 SWAP3 POP PUSH1 0x40 MLOAD SWAP2 PUSH4 0x38E65E39 PUSH1 0xE1 SHL DUP4 MSTORE PUSH1 0x4 DUP4 ADD MSTORE PUSH1 0x24 DUP3 ADD MSTORE REVERT JUMPDEST DUP2 DUP2 GT ISZERO PUSH3 0x2569 JUMPI PUSH3 0x2507 DUP3 DUP3 PUSH3 0x2E39 JUMP JUMPDEST PUSH1 0x64 DUP2 MUL SWAP1 DUP1 DUP3 DIV PUSH1 0x64 EQ SWAP1 ISZERO OR ISZERO PUSH3 0x2555 JUMPI PUSH3 0x2529 DUP4 PUSH1 0x32 SWAP3 PUSH3 0x2DA1 JUMP JUMPDEST GT ISZERO PUSH3 0x248A JUMPI PUSH1 0x64 SWAP3 POP PUSH1 0x40 MLOAD SWAP2 PUSH4 0x5BB6CCA3 PUSH1 0xE0 SHL DUP4 MSTORE PUSH1 0x4 DUP4 ADD MSTORE PUSH1 0x24 DUP3 ADD MSTORE PUSH1 0x32 PUSH1 0x44 DUP3 ADD MSTORE REVERT JUMPDEST PUSH4 0x4E487B71 PUSH1 0xE0 SHL DUP5 MSTORE PUSH1 0x11 PUSH1 0x4 MSTORE PUSH1 0x24 DUP5 REVERT JUMPDEST PUSH3 0x2575 DUP2 DUP4 PUSH3 0x2E39 JUMP JUMPDEST PUSH1 0x64 DUP2 MUL SWAP1 DUP1 DUP3 DIV PUSH1 0x64 EQ SWAP1 ISZERO OR ISZERO PUSH3 0x2555 JUMPI PUSH3 0x2597 DUP4 PUSH1 0x32 SWAP3 PUSH3 0x2DA1 JUMP JUMPDEST PUSH3 0x2529 JUMP JUMPDEST PUSH1 0x40 MLOAD PUSH4 0x14CEE7CD PUSH1 0xE1 SHL DUP2 MSTORE PUSH1 0x4 SWAP1 REVERT JUMPDEST POP CALLVALUE PUSH3 0x84D JUMPI PUSH1 0x40 CALLDATASIZE PUSH1 0x3 NOT ADD SLT PUSH3 0x84D JUMPI PUSH3 0x14C6 PUSH1 0x4 CALLDATALOAD PUSH3 0x25D4 PUSH3 0x2A25 JUMP JUMPDEST SWAP1 DUP1 DUP5 MSTORE DUP4 PUSH1 0x20 MSTORE PUSH3 0x25EE PUSH1 0x1 PUSH1 0x40 DUP7 KECCAK256 ADD SLOAD PUSH3 0x2B8C JUMP JUMPDEST PUSH3 0x2BB3 JUMP JUMPDEST POP CALLVALUE PUSH3 0x84D JUMPI PUSH1 0x20 CALLDATASIZE PUSH1 0x3 NOT ADD SLT PUSH3 0x84D JUMPI PUSH1 0x1 PUSH1 0x40 PUSH1 0x20 SWAP3 PUSH1 0x4 CALLDATALOAD DUP2 MSTORE DUP1 DUP5 MSTORE KECCAK256 ADD SLOAD PUSH1 0x40 MLOAD SWAP1 DUP2 MSTORE RETURN JUMPDEST POP CALLVALUE PUSH3 0x84D JUMPI DUP1 PUSH1 0x3 NOT CALLDATASIZE ADD SLT PUSH3 0x84D JUMPI PUSH1 0x20 PUSH1 0x3 SLOAD PUSH1 0x40 MLOAD SWAP1 DUP2 MSTORE RETURN JUMPDEST POP CALLVALUE PUSH3 0x84D JUMPI DUP1 PUSH1 0x3 NOT CALLDATASIZE ADD SLT PUSH3 0x84D JUMPI PUSH1 0x20 PUSH1 0x40 MLOAD PUSH32 0xBF233DD2AAFEB4D50879C4AA5C81E96D92F6E6945C906A58F9F2D1C1631B4B26 DUP2 MSTORE RETURN JUMPDEST POP CALLVALUE PUSH3 0x84D JUMPI PUSH1 0x40 CALLDATASIZE PUSH1 0x3 NOT ADD SLT PUSH3 0x84D JUMPI PUSH3 0x269D PUSH3 0x2A0E JUMP JUMPDEST PUSH1 0x24 CALLDATALOAD PUSH1 0x1 PUSH1 0x1 PUSH1 0x40 SHL SUB DUP2 GT PUSH3 0xF4C JUMPI CALLDATASIZE PUSH1 0x23 DUP3 ADD SLT ISZERO PUSH3 0xF4C JUMPI PUSH1 0x20 PUSH1 0xFF SWAP3 PUSH1 0x40 DUP3 SWAP6 PUSH3 0x26DE PUSH3 0x2705 SWAP6 CALLDATASIZE SWAP1 PUSH1 0x24 DUP2 PUSH1 0x4 ADD CALLDATALOAD SWAP2 ADD PUSH3 0x2A58 JUMP JUMPDEST PUSH1 0x1 PUSH1 0x1 PUSH1 0xA0 SHL SUB SWAP1 SWAP4 AND DUP2 MSTORE PUSH1 0xA DUP5 MSTORE KECCAK256 PUSH1 0x40 MLOAD DUP3 MLOAD SWAP1 SWAP5 DUP6 SWAP4 DUP3 SWAP1 DUP6 SWAP1 DUP8 ADD PUSH3 0x29C2 JUMP JUMPDEST DUP3 ADD SWAP1 DUP2 MSTORE SUB ADD SWAP1 KECCAK256 SLOAD AND PUSH1 0x40 MLOAD SWAP1 ISZERO ISZERO DUP2 MSTORE RETURN JUMPDEST POP CALLVALUE PUSH3 0x84D JUMPI PUSH1 0x20 CALLDATASIZE PUSH1 0x3 NOT ADD SLT PUSH3 0x84D JUMPI PUSH1 0x20 SWAP1 PUSH1 0x40 SWAP1 PUSH1 0x1 PUSH1 0x1 PUSH1 0xA0 SHL SUB PUSH3 0x2746 PUSH3 0x2A0E JUMP JUMPDEST AND DUP2 MSTORE PUSH1 0x5 DUP4 MSTORE KECCAK256 SLOAD PUSH1 0x40 MLOAD SWAP1 DUP2 MSTORE RETURN JUMPDEST POP CALLVALUE PUSH3 0x84D JUMPI PUSH1 0x20 CALLDATASIZE PUSH1 0x3 NOT ADD SLT PUSH3 0x84D JUMPI PUSH1 0x40 PUSH3 0x27BB SWAP2 PUSH1 0x4 CALLDATALOAD DUP2 MSTORE PUSH1 0x8 PUSH1 0x20 MSTORE KECCAK256 PUSH3 0x2788 DUP2 PUSH3 0x2910 JUMP JUMPDEST SWAP1 PUSH3 0x2797 PUSH1 0x1 DUP3 ADD PUSH3 0x2910 JUMP JUMPDEST PUSH3 0x27CA PUSH1 0x3 PUSH1 0x2 DUP5 ADD SLOAD SWAP4 ADD SLOAD SWAP2 PUSH1 0x40 MLOAD SWAP6 DUP7 SWAP6 PUSH1 0x80 DUP8 MSTORE PUSH1 0x80 DUP8 ADD SWAP1 PUSH3 0x29E7 JUMP JUMPDEST SWAP1 DUP6 DUP3 SUB PUSH1 0x20 DUP8 ADD MSTORE PUSH3 0x29E7 JUMP JUMPDEST SWAP2 PUSH1 0x40 DUP5 ADD MSTORE PUSH1 0x60 DUP4 ADD MSTORE SUB SWAP1 RETURN JUMPDEST SWAP1 POP CALLVALUE PUSH3 0x94E JUMPI PUSH1 0x20 CALLDATASIZE PUSH1 0x3 NOT ADD SLT PUSH3 0x94E JUMPI PUSH1 0x4 CALLDATALOAD PUSH4 0xFFFFFFFF PUSH1 0xE0 SHL DUP2 AND DUP1 SWAP2 SUB PUSH3 0xF4C JUMPI PUSH1 0x20 SWAP3 POP PUSH4 0x7965DB0B PUSH1 0xE0 SHL DUP2 EQ SWAP1 DUP2 ISZERO PUSH3 0x2821 JUMPI JUMPDEST POP ISZERO ISZERO DUP2 MSTORE RETURN JUMPDEST PUSH4 0x1FFC9A7 PUSH1 0xE0 SHL EQ SWAP1 POP CODESIZE PUSH3 0x281A JUMP JUMPDEST SWAP1 PUSH1 0x1 DUP3 DUP2 SHR SWAP3 AND DUP1 ISZERO PUSH3 0x2865 JUMPI JUMPDEST PUSH1 0x20 DUP4 LT EQ PUSH3 0x284F JUMPI JUMP JUMPDEST PUSH4 0x4E487B71 PUSH1 0xE0 SHL PUSH1 0x0 MSTORE PUSH1 0x22 PUSH1 0x4 MSTORE PUSH1 0x24 PUSH1 0x0 REVERT JUMPDEST SWAP2 PUSH1 0x7F AND SWAP2 PUSH3 0x2843 JUMP JUMPDEST PUSH1 0xA0 DUP2 ADD SWAP1 DUP2 LT PUSH1 0x1 PUSH1 0x1 PUSH1 0x40 SHL SUB DUP3 GT OR PUSH3 0x288C JUMPI PUSH1 0x40 MSTORE JUMP JUMPDEST PUSH4 0x4E487B71 PUSH1 0xE0 SHL PUSH1 0x0 MSTORE PUSH1 0x41 PUSH1 0x4 MSTORE PUSH1 0x24 PUSH1 0x0 REVERT JUMPDEST PUSH1 0x80 DUP2 ADD SWAP1 DUP2 LT PUSH1 0x1 PUSH1 0x1 PUSH1 0x40 SHL SUB DUP3 GT OR PUSH3 0x288C JUMPI PUSH1 0x40 MSTORE JUMP JUMPDEST PUSH1 0x1 PUSH1 0x1 PUSH1 0x40 SHL SUB DUP2 GT PUSH3 0x288C JUMPI PUSH1 0x40 MSTORE JUMP JUMPDEST PUSH1 0x40 DUP2 ADD SWAP1 DUP2 LT PUSH1 0x1 PUSH1 0x1 PUSH1 0x40 SHL SUB DUP3 GT OR PUSH3 0x288C JUMPI PUSH1 0x40 MSTORE JUMP JUMPDEST SWAP1 PUSH1 0x1F DUP1 NOT SWAP2 ADD AND DUP2 ADD SWAP1 DUP2 LT PUSH1 0x1 PUSH1 0x1 PUSH1 0x40 SHL SUB DUP3 GT OR PUSH3 0x288C JUMPI PUSH1 0x40 MSTORE JUMP JUMPDEST SWAP1 PUSH1 0x40 MLOAD SWAP2 DUP3 PUSH1 0x0 DUP3 SLOAD SWAP3 PUSH3 0x2926 DUP5 PUSH3 0x2833 JUMP JUMPDEST SWAP1 DUP2 DUP5 MSTORE PUSH1 0x1 SWAP5 DUP6 DUP2 AND SWAP1 DUP2 PUSH1 0x0 EQ PUSH3 0x299D JUMPI POP PUSH1 0x1 EQ PUSH3 0x2956 JUMPI JUMPDEST POP POP PUSH3 0x2954 SWAP3 POP SUB DUP4 PUSH3 0x28EE JUMP JUMPDEST JUMP JUMPDEST SWAP1 SWAP4 SWAP2 POP PUSH1 0x0 MSTORE PUSH1 0x20 SWAP1 DUP2 PUSH1 0x0 KECCAK256 SWAP4 PUSH1 0x0 SWAP2 JUMPDEST DUP2 DUP4 LT PUSH3 0x2984 JUMPI POP POP PUSH3 0x2954 SWAP4 POP DUP3 ADD ADD CODESIZE DUP1 PUSH3 0x2944 JUMP JUMPDEST DUP6 SLOAD DUP9 DUP5 ADD DUP6 ADD MSTORE SWAP5 DUP6 ADD SWAP5 DUP8 SWAP5 POP SWAP2 DUP4 ADD SWAP2 PUSH3 0x2969 JUMP JUMPDEST SWAP2 POP POP PUSH3 0x2954 SWAP5 POP PUSH1 0x20 SWAP3 POP PUSH1 0xFF NOT AND DUP3 DUP5 ADD MSTORE ISZERO ISZERO PUSH1 0x5 SHL DUP3 ADD ADD CODESIZE DUP1 PUSH3 0x2944 JUMP JUMPDEST PUSH1 0x0 JUMPDEST DUP4 DUP2 LT PUSH3 0x29D6 JUMPI POP POP PUSH1 0x0 SWAP2 ADD MSTORE JUMP JUMPDEST DUP2 DUP2 ADD MLOAD DUP4 DUP3 ADD MSTORE PUSH1 0x20 ADD PUSH3 0x29C5 JUMP JUMPDEST SWAP1 PUSH1 0x20 SWAP2 PUSH3 0x2A02 DUP2 MLOAD DUP1 SWAP3 DUP2 DUP6 MSTORE DUP6 DUP1 DUP7 ADD SWAP2 ADD PUSH3 0x29C2 JUMP JUMPDEST PUSH1 0x1F ADD PUSH1 0x1F NOT AND ADD ADD SWAP1 JUMP JUMPDEST PUSH1 0x4 CALLDATALOAD SWAP1 PUSH1 0x1 PUSH1 0x1 PUSH1 0xA0 SHL SUB DUP3 AND DUP3 SUB PUSH3 0x134B JUMPI JUMP JUMPDEST PUSH1 0x24 CALLDATALOAD SWAP1 PUSH1 0x1 PUSH1 0x1 PUSH1 0xA0 SHL SUB DUP3 AND DUP3 SUB PUSH3 0x134B JUMPI JUMP JUMPDEST PUSH1 0x1 PUSH1 0x1 PUSH1 0x40 SHL SUB DUP2 GT PUSH3 0x288C JUMPI PUSH1 0x1F ADD PUSH1 0x1F NOT AND PUSH1 0x20 ADD SWAP1 JUMP JUMPDEST SWAP3 SWAP2 SWAP3 PUSH3 0x2A66 DUP3 PUSH3 0x2A3C JUMP JUMPDEST SWAP2 PUSH3 0x2A76 PUSH1 0x40 MLOAD SWAP4 DUP5 PUSH3 0x28EE JUMP JUMPDEST DUP3 SWAP5 DUP2 DUP5 MSTORE DUP2 DUP4 ADD GT PUSH3 0x134B JUMPI DUP3 DUP2 PUSH1 0x20 SWAP4 DUP5 PUSH1 0x0 SWAP7 ADD CALLDATACOPY ADD ADD MSTORE JUMP JUMPDEST PUSH1 0x40 SWAP1 PUSH1 0x3 NOT ADD SLT PUSH3 0x134B JUMPI PUSH1 0x4 CALLDATALOAD SWAP1 PUSH1 0x24 CALLDATALOAD SWAP1 JUMP JUMPDEST CALLVALUE PUSH3 0x134B JUMPI PUSH1 0x0 CALLDATASIZE PUSH1 0x3 NOT ADD SLT PUSH3 0x134B JUMPI PUSH1 0x20 PUSH1 0x40 MLOAD PUSH8 0xDE0B6B3A7640000 DUP2 MSTORE RETURN JUMPDEST DUP1 SLOAD DUP3 LT ISZERO PUSH3 0x2AE9 JUMPI PUSH1 0x0 MSTORE PUSH1 0x20 PUSH1 0x0 KECCAK256 ADD SWAP1 PUSH1 0x0 SWAP1 JUMP JUMPDEST PUSH4 0x4E487B71 PUSH1 0xE0 SHL PUSH1 0x0 MSTORE PUSH1 0x32 PUSH1 0x4 MSTORE PUSH1 0x24 PUSH1 0x0 REVERT JUMPDEST SWAP2 DUP2 PUSH1 0x1F DUP5 ADD SLT ISZERO PUSH3 0x134B JUMPI DUP3 CALLDATALOAD SWAP2 PUSH1 0x1 PUSH1 0x1 PUSH1 0x40 SHL SUB DUP4 GT PUSH3 0x134B JUMPI PUSH1 0x20 DUP4 DUP2 DUP7 ADD SWAP6 ADD ADD GT PUSH3 0x134B JUMPI JUMP JUMPDEST CALLER PUSH1 0x0 SWAP1 DUP2 MSTORE PUSH32 0xF7C9542C591017A21C74B6F3FAB6263C7952FC0AAF9DB4C22A2A04DDC7F8674F PUSH1 0x20 MSTORE PUSH1 0x40 SWAP1 KECCAK256 SLOAD PUSH32 0x65D7A28E3265B37A6474929F336521B332C1681B933F6CB9F3376673440D862A SWAP1 PUSH1 0xFF AND ISZERO PUSH3 0x13EA JUMPI POP JUMP JUMPDEST DUP1 PUSH1 0x0 MSTORE PUSH1 0x0 PUSH1 0x20 MSTORE PUSH1 0x40 PUSH1 0x0 KECCAK256 CALLER PUSH1 0x0 MSTORE PUSH1 0x20 MSTORE PUSH1 0xFF PUSH1 0x40 PUSH1 0x0 KECCAK256 SLOAD AND ISZERO PUSH3 0x13EA JUMPI POP JUMP JUMPDEST SWAP1 PUSH1 0x0 SWAP2 DUP1 DUP4 MSTORE DUP3 PUSH1 0x20 MSTORE PUSH1 0x40 DUP4 KECCAK256 SWAP2 PUSH1 0x1 DUP1 PUSH1 0xA0 SHL SUB AND SWAP2 DUP3 DUP5 MSTORE PUSH1 0x20 MSTORE PUSH1 0xFF PUSH1 0x40 DUP5 KECCAK256 SLOAD AND ISZERO PUSH1 0x0 EQ PUSH3 0x2C2D JUMPI DUP1 DUP4 MSTORE DUP3 PUSH1 0x20 MSTORE PUSH1 0x40 DUP4 KECCAK256 DUP3 DUP5 MSTORE PUSH1 0x20 MSTORE PUSH1 0x40 DUP4 KECCAK256 PUSH1 0x1 PUSH1 0xFF NOT DUP3 SLOAD AND OR SWAP1 SSTORE PUSH32 0x2F8788117E7EFF1D82E926EC794901D17C78024A50270940304540A733656F0D CALLER SWAP4 DUP1 LOG4 PUSH1 0x1 SWAP1 JUMP JUMPDEST POP POP SWAP1 JUMP JUMPDEST SWAP1 PUSH1 0x0 SWAP2 DUP1 DUP4 MSTORE DUP3 PUSH1 0x20 MSTORE PUSH1 0x40 DUP4 KECCAK256 SWAP2 PUSH1 0x1 DUP1 PUSH1 0xA0 SHL SUB AND SWAP2 DUP3 DUP5 MSTORE PUSH1 0x20 MSTORE PUSH1 0xFF PUSH1 0x40 DUP5 KECCAK256 SLOAD AND PUSH1 0x0 EQ PUSH3 0x2C2D JUMPI DUP1 DUP4 MSTORE DUP3 PUSH1 0x20 MSTORE PUSH1 0x40 DUP4 KECCAK256 DUP3 DUP5 MSTORE PUSH1 0x20 MSTORE PUSH1 0x40 DUP4 KECCAK256 PUSH1 0xFF NOT DUP2 SLOAD AND SWAP1 SSTORE PUSH32 0xF6391F5C32D9C69D2A47EA670B442974B53935D1EDC7FD64EB21E047A839171B CALLER SWAP4 DUP1 LOG4 PUSH1 0x1 SWAP1 JUMP JUMPDEST SWAP1 DUP2 PUSH1 0x20 SWAP2 SUB SLT PUSH3 0x134B JUMPI MLOAD DUP1 ISZERO ISZERO DUP2 SUB PUSH3 0x134B JUMPI SWAP1 JUMP JUMPDEST RETURNDATASIZE ISZERO PUSH3 0x2CF2 JUMPI RETURNDATASIZE SWAP1 PUSH3 0x2CD6 DUP3 PUSH3 0x2A3C JUMP JUMPDEST SWAP2 PUSH3 0x2CE6 PUSH1 0x40 MLOAD SWAP4 DUP5 PUSH3 0x28EE JUMP JUMPDEST DUP3 MSTORE RETURNDATASIZE PUSH1 0x0 PUSH1 0x20 DUP5 ADD RETURNDATACOPY JUMP JUMPDEST PUSH1 0x60 SWAP1 JUMP JUMPDEST PUSH1 0xFF PUSH1 0x1 SLOAD AND PUSH3 0x2D04 JUMPI JUMP JUMPDEST PUSH1 0x40 MLOAD PUSH4 0xD93C0665 PUSH1 0xE0 SHL DUP2 MSTORE PUSH1 0x4 SWAP1 REVERT JUMPDEST PUSH1 0x2 DUP1 SLOAD EQ PUSH3 0x2D26 JUMPI PUSH1 0x2 DUP1 SSTORE JUMP JUMPDEST PUSH1 0x40 MLOAD PUSH4 0x3EE5AEB5 PUSH1 0xE0 SHL DUP2 MSTORE PUSH1 0x4 SWAP1 REVERT JUMPDEST SWAP1 DUP1 PUSH1 0x20 SWAP4 SWAP3 DUP2 DUP5 MSTORE DUP5 DUP5 ADD CALLDATACOPY PUSH1 0x0 DUP3 DUP3 ADD DUP5 ADD MSTORE PUSH1 0x1F ADD PUSH1 0x1F NOT AND ADD ADD SWAP1 JUMP JUMPDEST SWAP2 SWAP1 DUP3 ADD DUP1 SWAP3 GT PUSH3 0x2D67 JUMPI JUMP JUMPDEST PUSH4 0x4E487B71 PUSH1 0xE0 SHL PUSH1 0x0 MSTORE PUSH1 0x11 PUSH1 0x4 MSTORE PUSH1 0x24 PUSH1 0x0 REVERT JUMPDEST PUSH1 0x0 NOT DUP2 EQ PUSH3 0x2D67 JUMPI PUSH1 0x1 ADD SWAP1 JUMP JUMPDEST DUP2 DUP2 MUL SWAP3 SWAP2 DUP2 ISZERO SWAP2 DUP5 DIV EQ OR ISZERO PUSH3 0x2D67 JUMPI JUMP JUMPDEST DUP2 ISZERO PUSH3 0x2DAC JUMPI DIV SWAP1 JUMP JUMPDEST PUSH4 0x4E487B71 PUSH1 0xE0 SHL PUSH1 0x0 MSTORE PUSH1 0x12 PUSH1 0x4 MSTORE PUSH1 0x24 PUSH1 0x0 REVERT JUMPDEST PUSH1 0x0 PUSH1 0x44 RETURNDATASIZE LT PUSH3 0x2E25 JUMPI PUSH1 0x40 MLOAD PUSH1 0x3 NOT SWAP2 RETURNDATASIZE DUP4 ADD PUSH1 0x4 DUP4 RETURNDATACOPY DUP2 MLOAD PUSH1 0x1 PUSH1 0x1 PUSH1 0x40 SHL SUB SWAP2 DUP3 DUP3 GT RETURNDATASIZE PUSH1 0x24 DUP5 ADD GT OR PUSH3 0x2E28 JUMPI DUP2 DUP5 ADD SWAP5 DUP6 MLOAD SWAP4 DUP5 GT PUSH3 0x2E30 JUMPI RETURNDATASIZE DUP6 ADD ADD PUSH1 0x20 DUP5 DUP8 ADD ADD GT PUSH3 0x2E28 JUMPI POP PUSH3 0x2E25 SWAP3 SWAP2 ADD PUSH1 0x20 ADD SWAP1 PUSH3 0x28EE JUMP JUMPDEST SWAP1 JUMP JUMPDEST SWAP5 SWAP4 POP POP POP POP JUMP JUMPDEST POP SWAP5 SWAP4 POP POP POP POP JUMP JUMPDEST SWAP2 SWAP1 DUP3 SUB SWAP2 DUP3 GT PUSH3 0x2D67 JUMPI JUMP JUMPDEST DUP1 ISZERO DUP1 ISZERO PUSH3 0x2F4C JUMPI JUMPDEST PUSH3 0x2F45 JUMPI PUSH1 0x0 SWAP1 DUP1 DUP3 MSTORE PUSH1 0x7 PUSH1 0x20 MSTORE PUSH1 0x40 SWAP2 DUP3 DUP2 KECCAK256 SWAP1 DUP4 MLOAD SWAP3 PUSH3 0x2E76 DUP5 PUSH3 0x2870 JUMP JUMPDEST PUSH1 0x1 DUP1 PUSH1 0xA0 SHL SUB SWAP4 DUP5 DUP5 SLOAD AND DUP2 MSTORE PUSH1 0x1 DUP5 ADD SLOAD SWAP5 DUP6 AND PUSH1 0x20 DUP3 ADD MSTORE PUSH1 0xFF PUSH1 0x2 DUP8 DUP4 ADD SWAP6 PUSH1 0x1 PUSH1 0x1 PUSH1 0x58 SHL SUB SWAP8 DUP9 DUP2 PUSH1 0xA0 SHR AND DUP9 MSTORE PUSH1 0xF8 SHR PUSH1 0x60 DUP6 ADD MSTORE ADD SLOAD AND ISZERO SWAP1 PUSH1 0x80 DUP3 ISZERO SWAP2 ADD MSTORE PUSH3 0x2F3C JUMPI DUP2 MSTORE PUSH1 0x8 PUSH1 0x20 MSTORE DUP4 DUP2 KECCAK256 SWAP4 DUP1 MLOAD PUSH3 0x2EDB DUP2 PUSH3 0x28A2 JUMP JUMPDEST PUSH3 0x2EE6 DUP7 PUSH3 0x2910 JUMP JUMPDEST DUP2 MSTORE PUSH3 0x2EF6 PUSH1 0x1 DUP8 ADD PUSH3 0x2910 JUMP JUMPDEST PUSH1 0x20 DUP3 ADD MSTORE PUSH1 0x60 PUSH1 0x3 PUSH1 0x2 DUP9 ADD SLOAD SWAP4 DUP4 ADD SWAP8 DUP5 DUP10 MSTORE ADD SLOAD SWAP2 ADD MSTORE ISZERO PUSH3 0x2F34 JUMPI POP SWAP3 PUSH3 0x2F2B SWAP2 PUSH3 0x2E25 SWAP5 MLOAD AND SWAP1 PUSH3 0x2D8D JUMP JUMPDEST SWAP1 MLOAD SWAP1 PUSH3 0x2DA1 JUMP JUMPDEST SWAP4 POP POP POP POP SWAP1 JUMP JUMPDEST POP SWAP4 POP POP POP POP SWAP1 JUMP JUMPDEST POP POP PUSH1 0x0 SWAP1 JUMP JUMPDEST POP PUSH1 0x4 SLOAD DUP2 LT ISZERO PUSH3 0x2E51 JUMP JUMPDEST SWAP2 DUP1 ISZERO PUSH3 0x13C6 JUMPI PUSH1 0x40 DUP1 MLOAD PUSH4 0x70A08231 PUSH1 0xE0 SHL DUP2 MSTORE PUSH1 0x1 PUSH1 0x1 PUSH1 0xA0 SHL SUB DUP6 DUP2 AND PUSH1 0x4 DUP4 ADD DUP2 SWAP1 MSTORE SWAP6 PUSH1 0x20 SWAP6 SWAP2 DUP3 AND SWAP4 SWAP3 DUP7 DUP2 PUSH1 0x24 DUP2 DUP9 GAS STATICCALL SWAP1 DUP2 ISZERO PUSH3 0x30C8 JUMPI PUSH1 0x0 SWAP2 PUSH3 0x3095 JUMPI JUMPDEST POP DUP6 DUP2 LT PUSH3 0x305F JUMPI POP POP POP DUP1 MLOAD PUSH4 0x6EB1769F PUSH1 0xE1 SHL DUP2 MSTORE DUP6 PUSH1 0x4 DUP3 ADD MSTORE ADDRESS PUSH1 0x24 DUP3 ADD MSTORE DUP5 DUP2 PUSH1 0x44 DUP2 DUP7 GAS STATICCALL SWAP5 DUP6 ISZERO PUSH3 0x3054 JUMPI PUSH1 0x0 SWAP6 PUSH3 0x301D JUMPI JUMPDEST POP POP DUP3 DUP5 LT PUSH3 0x2FF1 JUMPI POP POP POP POP POP JUMP JUMPDEST PUSH1 0xA4 SWAP6 POP MLOAD SWAP4 PUSH4 0x51750BC7 PUSH1 0xE0 SHL DUP6 MSTORE PUSH1 0x4 DUP6 ADD MSTORE ADDRESS PUSH1 0x24 DUP6 ADD MSTORE PUSH1 0x44 DUP5 ADD MSTORE PUSH1 0x64 DUP4 ADD MSTORE PUSH1 0x84 DUP3 ADD MSTORE REVERT JUMPDEST DUP2 DUP2 SWAP7 SWAP3 SWAP4 SWAP7 RETURNDATASIZE DUP4 GT PUSH3 0x304C JUMPI JUMPDEST PUSH3 0x3038 DUP2 DUP4 PUSH3 0x28EE JUMP JUMPDEST DUP2 ADD SUB SLT PUSH3 0x84D JUMPI POP MLOAD SWAP3 CODESIZE DUP1 PUSH3 0x2FE0 JUMP JUMPDEST POP RETURNDATASIZE PUSH3 0x302C JUMP JUMPDEST DUP3 MLOAD RETURNDATASIZE PUSH1 0x0 DUP3 RETURNDATACOPY RETURNDATASIZE SWAP1 REVERT JUMPDEST DUP4 MLOAD PUSH4 0xAF4502D PUSH1 0xE1 SHL DUP2 MSTORE PUSH1 0x1 PUSH1 0x1 PUSH1 0xA0 SHL SUB SWAP3 DUP4 AND PUSH1 0x4 DUP3 ADD MSTORE SWAP3 SWAP1 SWAP2 AND PUSH1 0x24 DUP4 ADD MSTORE PUSH1 0x44 DUP3 ADD DUP6 SWAP1 MSTORE PUSH1 0x64 DUP3 ADD MSTORE PUSH1 0x84 SWAP1 REVERT JUMPDEST SWAP1 DUP8 DUP3 DUP2 RETURNDATASIZE DUP4 GT PUSH3 0x30C0 JUMPI JUMPDEST PUSH3 0x30AE DUP2 DUP4 PUSH3 0x28EE JUMP JUMPDEST DUP2 ADD SUB SLT PUSH3 0x84D JUMPI POP MLOAD CODESIZE PUSH3 0x2FA3 JUMP JUMPDEST POP RETURNDATASIZE PUSH3 0x30A2 JUMP JUMPDEST DUP5 MLOAD RETURNDATASIZE PUSH1 0x0 DUP3 RETURNDATACOPY RETURNDATASIZE SWAP1 REVERT JUMPDEST SWAP2 SWAP1 DUP3 ISZERO PUSH3 0x3124 JUMPI PUSH3 0x30F4 PUSH3 0x30EC DUP3 DUP6 PUSH3 0x2D8D JUMP JUMPDEST SWAP4 DUP5 PUSH3 0x2DA1 JUMP JUMPDEST SUB PUSH3 0x30FE JUMPI POP SWAP1 JUMP JUMPDEST PUSH1 0x40 MLOAD PUSH3 0x3E1627 PUSH1 0xE3 SHL DUP2 MSTORE PUSH1 0x20 PUSH1 0x4 DUP3 ADD MSTORE SWAP1 DUP2 SWAP1 PUSH3 0x36C SWAP1 PUSH1 0x24 DUP4 ADD SWAP1 PUSH3 0x29E7 JUMP JUMPDEST POP POP POP PUSH1 0x0 SWAP1 JUMP JUMPDEST SWAP2 SWAP1 PUSH3 0x313A SWAP1 DUP4 PUSH3 0x2D59 JUMP JUMPDEST SWAP2 DUP3 LT PUSH3 0x30FE JUMPI POP SWAP1 JUMP JUMPDEST SWAP3 SWAP2 SWAP3 DUP1 DUP3 GT PUSH3 0x315E JUMPI PUSH3 0x2E25 SWAP3 SWAP4 POP PUSH3 0x2E39 JUMP JUMPDEST PUSH1 0x40 MLOAD PUSH4 0x7D752677 PUSH1 0xE0 SHL DUP2 MSTORE PUSH1 0x20 PUSH1 0x4 DUP3 ADD MSTORE DUP1 PUSH3 0x36C PUSH1 0x24 DUP3 ADD DUP8 PUSH3 0x29E7 JUMP INVALID PUSH1 0x40 PUSH1 0xE0 DUP2 MSTORE CALLVALUE PUSH3 0x64C JUMPI PUSH3 0x1ADB DUP1 CODESIZE SUB DUP1 PUSH3 0x1E DUP2 PUSH3 0x651 JUMP JUMPDEST SWAP3 DUP4 CODECOPY DUP2 ADD SWAP1 PUSH1 0xE0 DUP2 DUP4 SUB SLT PUSH3 0x64C JUMPI DUP1 MLOAD PUSH1 0x1 PUSH1 0x1 PUSH1 0x40 SHL SUB DUP2 GT PUSH3 0x64C JUMPI DUP3 PUSH3 0x4E SWAP2 DUP4 ADD PUSH3 0x677 JUMP JUMPDEST PUSH1 0x20 DUP3 ADD MLOAD SWAP1 SWAP3 PUSH1 0x1 PUSH1 0x1 PUSH1 0x40 SHL SUB DUP3 GT PUSH3 0x64C JUMPI PUSH3 0x71 SWAP2 DUP4 ADD PUSH3 0x677 JUMP JUMPDEST DUP4 DUP3 ADD MLOAD SWAP2 PUSH1 0xFF DUP4 AND DUP4 SUB PUSH3 0x64C JUMPI PUSH1 0x60 DUP2 ADD MLOAD SWAP3 PUSH3 0x95 PUSH1 0x80 DUP4 ADD PUSH3 0x6E9 JUMP JUMPDEST PUSH1 0xC0 PUSH3 0xA5 PUSH1 0xA0 DUP6 ADD PUSH3 0x6E9 JUMP JUMPDEST SWAP4 ADD MLOAD DUP7 MLOAD SWAP1 SWAP5 SWAP1 PUSH1 0x1 PUSH1 0x1 PUSH1 0x40 SHL SUB DUP2 GT PUSH3 0x52A JUMPI PUSH1 0x3 SLOAD PUSH1 0x1 DUP2 DUP2 SHR SWAP2 AND DUP1 ISZERO PUSH3 0x641 JUMPI JUMPDEST PUSH1 0x20 DUP3 LT EQ PUSH3 0x509 JUMPI PUSH1 0x1F DUP2 GT PUSH3 0x5D7 JUMPI JUMPDEST POP DUP1 PUSH1 0x20 PUSH1 0x1F DUP3 GT PUSH1 0x1 EQ PUSH3 0x54C JUMPI PUSH1 0x0 SWAP2 PUSH3 0x540 JUMPI JUMPDEST POP DUP2 PUSH1 0x1 SHL SWAP2 PUSH1 0x0 NOT SWAP1 PUSH1 0x3 SHL SHR NOT AND OR PUSH1 0x3 SSTORE JUMPDEST DUP1 MLOAD PUSH1 0x1 PUSH1 0x1 PUSH1 0x40 SHL SUB DUP2 GT PUSH3 0x52A JUMPI PUSH1 0x4 SLOAD PUSH1 0x1 DUP2 DUP2 SHR SWAP2 AND DUP1 ISZERO PUSH3 0x51F JUMPI JUMPDEST PUSH1 0x20 DUP3 LT EQ PUSH3 0x509 JUMPI PUSH1 0x1F DUP2 GT PUSH3 0x49F JUMPI JUMPDEST POP DUP1 PUSH1 0x20 PUSH1 0x1F DUP3 GT PUSH1 0x1 EQ PUSH3 0x415 JUMPI PUSH1 0x0 SWAP2 PUSH3 0x409 JUMPI JUMPDEST POP DUP2 PUSH1 0x1 SHL SWAP2 PUSH1 0x0 NOT SWAP1 PUSH1 0x3 SHL SHR NOT AND OR PUSH1 0x4 SSTORE JUMPDEST PUSH1 0x1 PUSH1 0x1 PUSH1 0xA0 SHL SUB SWAP2 DUP3 AND SWAP7 DUP8 ISZERO PUSH3 0x3F1 JUMPI PUSH1 0x5 DUP1 SLOAD PUSH1 0x1 PUSH1 0x1 PUSH1 0xA0 SHL SUB NOT DUP2 AND DUP11 OR SWAP1 SWAP2 SSTORE DUP10 MLOAD SWAP2 SWAP1 DUP10 SWAP1 DUP6 AND PUSH32 0x8BE0079C531659141344CD1FD0A4F28419497F9722A3DAAFE3B4186F6B6457E0 PUSH1 0x0 DUP1 LOG3 PUSH1 0x1 PUSH1 0x6 SSTORE PUSH1 0x1 PUSH1 0xFF NOT PUSH1 0x8 SLOAD AND OR PUSH1 0x8 SSTORE MLOAD ISZERO PUSH3 0x3A7 JUMPI POP MLOAD ISZERO PUSH3 0x35B JUMPI DUP3 AND DUP1 ISZERO PUSH3 0x34A JUMPI PUSH1 0x12 PUSH1 0xFF DUP4 AND GT PUSH3 0x322 JUMPI DUP5 ISZERO PUSH3 0x311 JUMPI DUP6 EQ PUSH3 0x2C0 JUMPI PUSH1 0x80 MSTORE PUSH1 0xA0 MSTORE PUSH1 0xC0 MSTORE PUSH1 0x2 SLOAD SWAP1 DUP1 DUP3 ADD DUP1 SWAP3 GT PUSH3 0x2AA JUMPI PUSH1 0x20 PUSH32 0xDDF252AD1BE2C89B69C2B068FC378DAA952BA7F163C4A11628F55A4DF523B3EF SWAP2 PUSH1 0x0 SWAP4 PUSH1 0x2 SSTORE DUP5 DUP5 MSTORE DUP4 DUP3 MSTORE DUP6 DUP5 KECCAK256 DUP2 DUP2 SLOAD ADD SWAP1 SSTORE DUP6 MLOAD SWAP1 DUP2 MSTORE LOG3 PUSH2 0x100 PUSH2 0xFF00 NOT PUSH1 0x8 SLOAD AND OR PUSH1 0x8 SSTORE MLOAD PUSH2 0x13DC SWAP1 DUP2 PUSH3 0x6FF DUP3 CODECOPY PUSH1 0x80 MLOAD DUP2 PUSH2 0xDBD ADD MSTORE PUSH1 0xA0 MLOAD DUP2 DUP2 DUP2 PUSH2 0x39D ADD MSTORE DUP2 DUP2 PUSH2 0x592 ADD MSTORE PUSH2 0x80C ADD MSTORE PUSH1 0xC0 MLOAD DUP2 PUSH2 0x365 ADD MSTORE RETURN JUMPDEST PUSH4 0x4E487B71 PUSH1 0xE0 SHL PUSH1 0x0 MSTORE PUSH1 0x11 PUSH1 0x4 MSTORE PUSH1 0x24 PUSH1 0x0 REVERT JUMPDEST DUP6 MLOAD PUSH4 0x313B9AA1 PUSH1 0xE2 SHL DUP2 MSTORE PUSH1 0x20 PUSH1 0x4 DUP3 ADD MSTORE PUSH1 0x24 DUP1 DUP3 ADD MSTORE PUSH32 0x4F776E657220616E6420666163746F72792063616E6E6F742062652074686520 PUSH1 0x44 DUP3 ADD MSTORE PUSH4 0x73616D65 PUSH1 0xE0 SHL PUSH1 0x64 DUP3 ADD MSTORE PUSH1 0x84 SWAP1 REVERT JUMPDEST DUP7 MLOAD PUSH4 0x1F2A2005 PUSH1 0xE0 SHL DUP2 MSTORE PUSH1 0x4 SWAP1 REVERT JUMPDEST DUP7 MLOAD PUSH4 0x46F4384B PUSH1 0xE0 SHL DUP2 MSTORE PUSH1 0xFF DUP4 AND PUSH1 0x4 DUP3 ADD MSTORE PUSH1 0x0 PUSH1 0x24 DUP3 ADD MSTORE PUSH1 0x12 PUSH1 0x44 DUP3 ADD MSTORE PUSH1 0x64 SWAP1 REVERT JUMPDEST DUP7 MLOAD PUSH4 0xD92E233D PUSH1 0xE0 SHL DUP2 MSTORE PUSH1 0x4 SWAP1 REVERT JUMPDEST DUP7 MLOAD PUSH4 0xF7693C3D PUSH1 0xE0 SHL DUP2 MSTORE PUSH1 0x0 PUSH1 0x4 DUP3 ADD MSTORE PUSH1 0x24 DUP2 ADD DUP9 SWAP1 MSTORE PUSH1 0x1C PUSH1 0x44 DUP3 ADD MSTORE PUSH32 0x546F6B656E2073796D626F6C2063616E6E6F7420626520656D70747900000000 PUSH1 0x64 DUP3 ADD MSTORE PUSH1 0x84 SWAP1 REVERT JUMPDEST PUSH4 0xF7693C3D PUSH1 0xE0 SHL DUP2 MSTORE PUSH1 0x0 PUSH1 0x4 DUP3 ADD MSTORE PUSH1 0x24 DUP2 ADD DUP10 SWAP1 MSTORE PUSH1 0x1A PUSH1 0x44 DUP3 ADD MSTORE PUSH32 0x546F6B656E206E616D652063616E6E6F7420626520656D707479000000000000 PUSH1 0x64 DUP3 ADD MSTORE PUSH1 0x84 SWAP1 REVERT JUMPDEST DUP9 MLOAD PUSH4 0x1E4FBDF7 PUSH1 0xE0 SHL DUP2 MSTORE PUSH1 0x0 PUSH1 0x4 DUP3 ADD MSTORE PUSH1 0x24 SWAP1 REVERT JUMPDEST SWAP1 POP DUP3 ADD MLOAD CODESIZE PUSH3 0x160 JUMP JUMPDEST PUSH1 0x4 PUSH1 0x0 SWAP1 DUP2 MSTORE SWAP3 POP PUSH32 0x8A35ACFBC15FF81A39AE7D344FD709F28E8600B4AA8C65C6B64BFE7FE36BD19B SWAP1 JUMPDEST PUSH1 0x1F NOT DUP4 AND DUP5 LT PUSH3 0x486 JUMPI PUSH1 0x1 SWAP4 POP DUP3 PUSH1 0x1F NOT DUP2 AND LT PUSH3 0x46C JUMPI JUMPDEST POP POP DUP2 SHL ADD PUSH1 0x4 SSTORE PUSH3 0x175 JUMP JUMPDEST DUP5 ADD MLOAD PUSH1 0x0 NOT PUSH1 0xF8 DUP5 PUSH1 0x3 SHL AND SHR NOT AND SWAP1 SSTORE CODESIZE DUP1 PUSH3 0x45E JUMP JUMPDEST DUP5 DUP2 ADD MLOAD DUP3 SSTORE PUSH1 0x20 SWAP4 DUP5 ADD SWAP4 PUSH1 0x1 SWAP1 SWAP3 ADD SWAP2 ADD PUSH3 0x441 JUMP JUMPDEST PUSH1 0x4 PUSH1 0x0 MSTORE PUSH32 0x8A35ACFBC15FF81A39AE7D344FD709F28E8600B4AA8C65C6B64BFE7FE36BD19B PUSH1 0x1F DUP4 ADD PUSH1 0x5 SHR DUP2 ADD SWAP2 PUSH1 0x20 DUP5 LT PUSH3 0x4FE JUMPI JUMPDEST PUSH1 0x1F ADD PUSH1 0x5 SHR ADD SWAP1 JUMPDEST DUP2 DUP2 LT PUSH3 0x4F1 JUMPI POP PUSH3 0x147 JUMP JUMPDEST PUSH1 0x0 DUP2 SSTORE PUSH1 0x1 ADD PUSH3 0x4E2 JUMP JUMPDEST SWAP1 SWAP2 POP DUP2 SWAP1 PUSH3 0x4D9 JUMP JUMPDEST PUSH4 0x4E487B71 PUSH1 0xE0 SHL PUSH1 0x0 MSTORE PUSH1 0x22 PUSH1 0x4 MSTORE PUSH1 0x24 PUSH1 0x0 REVERT JUMPDEST SWAP1 PUSH1 0x7F AND SWAP1 PUSH3 0x133 JUMP JUMPDEST PUSH4 0x4E487B71 PUSH1 0xE0 SHL PUSH1 0x0 MSTORE PUSH1 0x41 PUSH1 0x4 MSTORE PUSH1 0x24 PUSH1 0x0 REVERT JUMPDEST SWAP1 POP DUP9 ADD MLOAD CODESIZE PUSH3 0xFB JUMP JUMPDEST PUSH1 0x3 PUSH1 0x0 SWAP1 DUP2 MSTORE SWAP3 POP PUSH32 0xC2575A0E9E593C00F959F8C92F12DB2869C3395A3B0502D05E2516446F71F85B SWAP1 JUMPDEST DUP11 PUSH1 0x1F NOT DUP5 AND DUP6 LT PUSH3 0x5BF JUMPI POP PUSH1 0x1 SWAP4 POP DUP3 PUSH1 0x1F NOT DUP2 AND LT PUSH3 0x5A5 JUMPI JUMPDEST POP POP DUP2 SHL ADD PUSH1 0x3 SSTORE PUSH3 0x110 JUMP JUMPDEST DUP11 ADD MLOAD PUSH1 0x0 NOT PUSH1 0xF8 DUP5 PUSH1 0x3 SHL AND SHR NOT AND SWAP1 SSTORE CODESIZE DUP1 PUSH3 0x597 JUMP JUMPDEST DUP2 ADD MLOAD DUP3 SSTORE PUSH1 0x20 SWAP4 DUP5 ADD SWAP4 PUSH1 0x1 SWAP1 SWAP3 ADD SWAP2 ADD PUSH3 0x578 JUMP JUMPDEST PUSH1 0x3 PUSH1 0x0 MSTORE PUSH32 0xC2575A0E9E593C00F959F8C92F12DB2869C3395A3B0502D05E2516446F71F85B PUSH1 0x1F DUP4 ADD PUSH1 0x5 SHR DUP2 ADD SWAP2 PUSH1 0x20 DUP5 LT PUSH3 0x636 JUMPI JUMPDEST PUSH1 0x1F ADD PUSH1 0x5 SHR ADD SWAP1 JUMPDEST DUP2 DUP2 LT PUSH3 0x629 JUMPI POP PUSH3 0xE2 JUMP JUMPDEST PUSH1 0x0 DUP2 SSTORE PUSH1 0x1 ADD PUSH3 0x61A JUMP JUMPDEST SWAP1 SWAP2 POP DUP2 SWAP1 PUSH3 0x611 JUMP JUMPDEST SWAP1 PUSH1 0x7F AND SWAP1 PUSH3 0xCE JUMP JUMPDEST PUSH1 0x0 DUP1 REVERT JUMPDEST PUSH1 0x40 MLOAD SWAP2 SWAP1 PUSH1 0x1F ADD PUSH1 0x1F NOT AND DUP3 ADD PUSH1 0x1 PUSH1 0x1 PUSH1 0x40 SHL SUB DUP2 GT DUP4 DUP3 LT OR PUSH3 0x52A JUMPI PUSH1 0x40 MSTORE JUMP JUMPDEST SWAP2 SWAP1 DUP1 PUSH1 0x1F DUP5 ADD SLT ISZERO PUSH3 0x64C JUMPI DUP3 MLOAD PUSH1 0x1 PUSH1 0x1 PUSH1 0x40 SHL SUB DUP2 GT PUSH3 0x52A JUMPI PUSH1 0x20 SWAP1 PUSH3 0x6AD PUSH1 0x1F DUP3 ADD PUSH1 0x1F NOT AND DUP4 ADD PUSH3 0x651 JUMP JUMPDEST SWAP3 DUP2 DUP5 MSTORE DUP3 DUP3 DUP8 ADD ADD GT PUSH3 0x64C JUMPI PUSH1 0x0 JUMPDEST DUP2 DUP2 LT PUSH3 0x6D5 JUMPI POP DUP3 PUSH1 0x0 SWAP4 SWAP5 SWAP6 POP ADD ADD MSTORE SWAP1 JUMP JUMPDEST DUP6 DUP2 ADD DUP4 ADD MLOAD DUP5 DUP3 ADD DUP5 ADD MSTORE DUP3 ADD PUSH3 0x6BF JUMP JUMPDEST MLOAD SWAP1 PUSH1 0x1 PUSH1 0x1 PUSH1 0xA0 SHL SUB DUP3 AND DUP3 SUB PUSH3 0x64C JUMPI JUMP INVALID PUSH1 0x80 PUSH1 0x40 SWAP1 DUP1 DUP3 MSTORE PUSH1 0x4 DUP1 CALLDATASIZE LT ISZERO PUSH2 0x16 JUMPI PUSH1 0x0 DUP1 REVERT JUMPDEST PUSH1 0x0 SWAP2 DUP3 CALLDATALOAD PUSH1 0xE0 SHR SWAP1 DUP2 PUSH4 0x6FDDE03 EQ PUSH2 0xF8A JUMPI POP DUP1 PUSH4 0x95EA7B3 EQ PUSH2 0xEDF JUMPI DUP1 PUSH4 0x18160DDD EQ PUSH2 0xEC0 JUMPI DUP1 PUSH4 0x23B872DD EQ PUSH2 0xDE1 JUMPI DUP1 PUSH4 0x313CE567 EQ PUSH2 0xDA3 JUMPI DUP1 PUSH4 0x42966C68 EQ PUSH2 0xBD7 JUMPI DUP1 PUSH4 0x5DC96D16 EQ PUSH2 0xBB3 JUMPI DUP1 PUSH4 0x6A627842 EQ PUSH2 0xB46 JUMPI DUP1 PUSH4 0x70A08231 EQ PUSH2 0xB0F JUMPI DUP1 PUSH4 0x715018A6 EQ PUSH2 0xAB1 JUMPI DUP1 PUSH4 0x79CC6790 EQ PUSH2 0x7E3 JUMPI DUP1 PUSH4 0x7B2C835F EQ PUSH2 0x77F JUMPI DUP1 PUSH4 0x8DA5CB5B EQ PUSH2 0x756 JUMPI DUP1 PUSH4 0x95D89B41 EQ PUSH2 0x63A JUMPI DUP1 PUSH4 0xA4F0ECD3 EQ PUSH2 0x568 JUMPI DUP1 PUSH4 0xA9059CBB EQ PUSH2 0x537 JUMPI DUP1 PUSH4 0xAD1329D1 EQ PUSH2 0x3CC JUMPI DUP1 PUSH4 0xC45A0155 EQ PUSH2 0x388 JUMPI DUP1 PUSH4 0xD7C81B55 EQ PUSH2 0x34D JUMPI DUP1 PUSH4 0xD89135CD EQ PUSH2 0x32E JUMPI DUP1 PUSH4 0xDD62ED3E EQ PUSH2 0x2D7 JUMPI DUP1 PUSH4 0xF2FDE38B EQ PUSH2 0x241 JUMPI PUSH4 0xF658F32A EQ PUSH2 0x121 JUMPI PUSH1 0x0 DUP1 REVERT JUMPDEST CALLVALUE PUSH2 0x23D JUMPI DUP3 PUSH1 0x3 NOT CALLDATASIZE ADD SLT PUSH2 0x23D JUMPI PUSH2 0x139 PUSH2 0x10BE JUMP JUMPDEST SWAP1 PUSH1 0x24 CALLDATALOAD SWAP1 ADDRESS CALLER SUB PUSH2 0x201 JUMPI PUSH1 0x1 PUSH1 0x1 PUSH1 0xA0 SHL SUB DUP4 AND SWAP3 DUP4 ISZERO PUSH2 0x1EA JUMPI DUP4 PUSH1 0x0 MSTORE PUSH1 0x0 PUSH1 0x20 MSTORE DUP6 PUSH1 0x0 KECCAK256 SLOAD SWAP2 DUP4 DUP4 LT PUSH2 0x1B2 JUMPI DUP6 PUSH1 0x0 DUP7 PUSH32 0xDDF252AD1BE2C89B69C2B068FC378DAA952BA7F163C4A11628F55A4DF523B3EF PUSH1 0x20 DUP9 DUP13 DUP2 DUP11 DUP7 DUP9 MSTORE DUP8 DUP6 MSTORE SUB DUP2 DUP8 KECCAK256 SSTORE DUP2 PUSH1 0x2 SLOAD SUB PUSH1 0x2 SSTORE MLOAD SWAP1 DUP2 MSTORE LOG3 DUP1 RETURN JUMPDEST DUP7 MLOAD PUSH4 0x391434E3 PUSH1 0xE2 SHL DUP2 MSTORE PUSH1 0x1 PUSH1 0x1 PUSH1 0xA0 SHL SUB SWAP1 SWAP3 AND SWAP1 DUP3 ADD SWAP1 DUP2 MSTORE PUSH1 0x20 DUP2 ADD DUP4 SWAP1 MSTORE PUSH1 0x40 DUP2 ADD DUP5 SWAP1 MSTORE DUP2 SWAP1 PUSH1 0x60 ADD SUB SWAP1 REVERT JUMPDEST SUB SWAP1 REVERT JUMPDEST DUP6 MLOAD PUSH4 0x4B637E8F PUSH1 0xE1 SHL DUP2 MSTORE DUP1 DUP4 ADD DUP7 SWAP1 MSTORE PUSH1 0x24 SWAP1 REVERT JUMPDEST PUSH1 0x64 SWAP1 PUSH1 0x20 DUP7 MLOAD SWAP2 PUSH3 0x461BCD PUSH1 0xE5 SHL DUP4 MSTORE DUP3 ADD MSTORE PUSH1 0x16 PUSH1 0x24 DUP3 ADD MSTORE PUSH22 0x13DB9B1E481CD95B198B58D85B1B08185B1B1BDDD959 PUSH1 0x52 SHL PUSH1 0x44 DUP3 ADD MSTORE REVERT JUMPDEST POP DUP1 REVERT JUMPDEST POP DUP3 SWAP1 CALLVALUE PUSH2 0x2D3 JUMPI PUSH1 0x20 CALLDATASIZE PUSH1 0x3 NOT ADD SLT PUSH2 0x2D3 JUMPI PUSH2 0x25D PUSH2 0x10BE JUMP JUMPDEST SWAP1 PUSH2 0x266 PUSH2 0x1109 JUMP JUMPDEST PUSH1 0x1 PUSH1 0x1 PUSH1 0xA0 SHL SUB SWAP2 DUP3 AND SWAP3 DUP4 ISZERO PUSH2 0x2BD JUMPI POP POP PUSH1 0x5 SLOAD DUP3 PUSH12 0xFFFFFFFFFFFFFFFFFFFFFFFF PUSH1 0xA0 SHL DUP3 AND OR PUSH1 0x5 SSTORE AND PUSH32 0x8BE0079C531659141344CD1FD0A4F28419497F9722A3DAAFE3B4186F6B6457E0 PUSH1 0x0 DUP1 LOG3 DUP1 RETURN JUMPDEST MLOAD PUSH4 0x1E4FBDF7 PUSH1 0xE0 SHL DUP2 MSTORE SWAP1 DUP2 ADD DUP5 SWAP1 MSTORE PUSH1 0x24 SWAP1 REVERT JUMPDEST DUP3 DUP1 REVERT JUMPDEST DUP3 DUP5 CALLVALUE PUSH2 0x23D JUMPI DUP1 PUSH1 0x3 NOT CALLDATASIZE ADD SLT PUSH2 0x23D JUMPI PUSH2 0x2F1 PUSH2 0x10BE JUMP JUMPDEST PUSH1 0x1 PUSH1 0x1 PUSH1 0xA0 SHL SUB SWAP3 PUSH1 0x24 CALLDATALOAD DUP5 DUP2 AND SWAP3 SWAP2 SWAP1 DUP4 SWAP1 SUB PUSH2 0x329 JUMPI PUSH1 0x20 SWAP5 DUP5 SWAP3 AND DUP2 MSTORE PUSH1 0x1 DUP6 MSTORE KECCAK256 SWAP1 PUSH1 0x0 MSTORE DUP3 MSTORE DUP1 PUSH1 0x0 KECCAK256 SLOAD SWAP1 MLOAD SWAP1 DUP2 MSTORE RETURN JUMPDEST PUSH1 0x0 DUP1 REVERT JUMPDEST DUP3 DUP5 CALLVALUE PUSH2 0x23D JUMPI DUP2 PUSH1 0x3 NOT CALLDATASIZE ADD SLT PUSH2 0x23D JUMPI PUSH1 0x20 SWAP1 PUSH1 0x7 SLOAD SWAP1 MLOAD SWAP1 DUP2 MSTORE RETURN JUMPDEST DUP3 DUP5 CALLVALUE PUSH2 0x23D JUMPI DUP2 PUSH1 0x3 NOT CALLDATASIZE ADD SLT PUSH2 0x23D JUMPI PUSH1 0x20 SWAP1 MLOAD PUSH32 0x0 DUP2 MSTORE RETURN JUMPDEST DUP3 DUP5 CALLVALUE PUSH2 0x23D JUMPI DUP2 PUSH1 0x3 NOT CALLDATASIZE ADD SLT PUSH2 0x23D JUMPI MLOAD PUSH32 0x0 PUSH1 0x1 PUSH1 0x1 PUSH1 0xA0 SHL SUB AND DUP2 MSTORE PUSH1 0x20 SWAP1 RETURN JUMPDEST POP DUP3 CALLVALUE PUSH2 0x2D3 JUMPI PUSH2 0x3DC CALLDATASIZE PUSH2 0x10D4 JUMP JUMPDEST SWAP2 SWAP1 PUSH2 0x3E6 PUSH2 0x1109 JUMP JUMPDEST PUSH1 0x1 PUSH1 0x1 PUSH1 0xA0 SHL SUB DUP2 DUP2 AND SWAP3 DUP4 ISZERO PUSH2 0x527 JUMPI DUP8 SWAP5 SWAP4 SWAP3 SWAP2 AND SWAP1 DUP2 PUSH2 0x49F JUMPI POP POP DUP3 DUP1 SWAP3 DUP2 SWAP3 GAS CALL RETURNDATASIZE ISZERO PUSH2 0x49A JUMPI RETURNDATASIZE PUSH8 0xFFFFFFFFFFFFFFFF DUP2 GT PUSH2 0x487 JUMPI DUP3 MLOAD SWAP1 PUSH2 0x43A PUSH1 0x1F DUP3 ADD PUSH1 0x1F NOT AND PUSH1 0x20 ADD DUP4 PUSH2 0x115F JUMP JUMPDEST DUP2 MSTORE DUP5 PUSH1 0x20 RETURNDATASIZE SWAP3 ADD RETURNDATACOPY JUMPDEST ISZERO PUSH2 0x44E JUMPI POP POP DUP1 RETURN JUMPDEST SWAP1 PUSH1 0x20 PUSH1 0x64 SWAP3 MLOAD SWAP2 PUSH3 0x461BCD PUSH1 0xE5 SHL DUP4 MSTORE DUP3 ADD MSTORE PUSH1 0x13 PUSH1 0x24 DUP3 ADD MSTORE PUSH19 0x115512081D1C985B9CD9995C8819985A5B1959 PUSH1 0x6A SHL PUSH1 0x44 DUP3 ADD MSTORE REVERT JUMPDEST PUSH4 0x4E487B71 PUSH1 0xE0 SHL DUP6 MSTORE PUSH1 0x41 DUP5 MSTORE PUSH1 0x24 DUP6 REVERT JUMPDEST PUSH2 0x444 JUMP JUMPDEST DUP6 MLOAD PUSH4 0xA9059CBB PUSH1 0xE0 SHL DUP2 MSTORE PUSH1 0x1 PUSH1 0x1 PUSH1 0xA0 SHL SUB SWAP2 SWAP1 SWAP2 AND SWAP7 DUP2 ADD SWAP7 DUP8 MSTORE PUSH1 0x20 DUP1 DUP9 ADD SWAP5 SWAP1 SWAP5 MSTORE SWAP6 SWAP3 SWAP4 DUP7 SWAP4 DUP5 SWAP1 SUB PUSH1 0x40 ADD SWAP3 POP DUP4 SWAP2 GAS CALL SWAP1 DUP2 ISZERO PUSH2 0x51E JUMPI POP PUSH2 0x4E7 JUMPI POP DUP1 RETURN JUMPDEST PUSH1 0x20 DUP2 RETURNDATASIZE DUP3 GT PUSH2 0x516 JUMPI JUMPDEST DUP2 PUSH2 0x4FF PUSH1 0x20 SWAP4 DUP4 PUSH2 0x115F JUMP JUMPDEST DUP2 ADD SUB SLT PUSH2 0x23D JUMPI MLOAD DUP1 ISZERO ISZERO SUB PUSH2 0x513 JUMPI DUP1 RETURN JUMPDEST DUP1 REVERT JUMPDEST RETURNDATASIZE SWAP2 POP PUSH2 0x4F2 JUMP JUMPDEST MLOAD RETURNDATASIZE DUP5 DUP3 RETURNDATACOPY RETURNDATASIZE SWAP1 REVERT JUMPDEST DUP6 MLOAD PUSH4 0xD92E233D PUSH1 0xE0 SHL DUP2 MSTORE DUP8 SWAP1 REVERT JUMPDEST DUP3 DUP5 CALLVALUE PUSH2 0x23D JUMPI DUP1 PUSH1 0x3 NOT CALLDATASIZE ADD SLT PUSH2 0x23D JUMPI PUSH1 0x20 SWAP1 PUSH2 0x561 PUSH2 0x557 PUSH2 0x10BE JUMP JUMPDEST PUSH1 0x24 CALLDATALOAD SWAP1 CALLER PUSH2 0x1181 JUMP JUMPDEST MLOAD PUSH1 0x1 DUP2 MSTORE RETURN JUMPDEST POP DUP3 CALLVALUE PUSH2 0x2D3 JUMPI DUP1 PUSH1 0x3 NOT CALLDATASIZE ADD SLT PUSH2 0x2D3 JUMPI PUSH2 0x582 PUSH2 0x10BE JUMP JUMPDEST PUSH1 0x24 CALLDATALOAD SWAP2 SWAP1 PUSH1 0x1 PUSH1 0x1 PUSH1 0xA0 SHL SUB SWAP1 PUSH32 0x0 DUP3 AND CALLER SUB PUSH2 0x624 JUMPI AND SWAP3 DUP4 ISZERO PUSH2 0x60F JUMPI POP PUSH1 0x20 DUP3 PUSH32 0xDDF252AD1BE2C89B69C2B068FC378DAA952BA7F163C4A11628F55A4DF523B3EF SWAP3 PUSH2 0x5F5 PUSH1 0x0 SWAP6 PUSH1 0x2 SLOAD PUSH2 0x125F JUMP JUMPDEST PUSH1 0x2 SSTORE DUP6 DUP6 MSTORE DUP5 DUP4 MSTORE DUP1 DUP6 KECCAK256 DUP3 DUP2 SLOAD ADD SWAP1 SSTORE MLOAD SWAP1 DUP2 MSTORE LOG3 DUP1 RETURN JUMPDEST DUP5 PUSH1 0x24 SWAP3 MLOAD SWAP2 PUSH4 0xEC442F05 PUSH1 0xE0 SHL DUP4 MSTORE DUP3 ADD MSTORE REVERT JUMPDEST DUP3 MLOAD PUSH4 0x5936416F PUSH1 0xE0 SHL DUP2 MSTORE CALLER DUP2 DUP8 ADD MSTORE PUSH1 0x24 SWAP1 REVERT JUMPDEST POP SWAP2 SWAP1 CALLVALUE PUSH2 0x513 JUMPI DUP1 PUSH1 0x3 NOT CALLDATASIZE ADD SLT PUSH2 0x513 JUMPI DUP2 MLOAD SWAP2 DUP2 DUP5 SLOAD SWAP3 PUSH1 0x1 DUP5 DUP2 SHR SWAP2 DUP2 DUP7 AND SWAP6 DUP7 ISZERO PUSH2 0x74C JUMPI JUMPDEST PUSH1 0x20 SWAP7 DUP8 DUP6 LT DUP2 EQ PUSH2 0x739 JUMPI SWAP1 DUP8 DUP10 SWAP11 SWAP3 DUP7 DUP12 SWAP10 SWAP11 SWAP12 MSTORE SWAP2 DUP3 PUSH1 0x0 EQ PUSH2 0x70F JUMPI POP POP PUSH1 0x1 EQ PUSH2 0x6B4 JUMPI JUMPDEST DUP6 DUP9 PUSH2 0x6B0 DUP10 PUSH2 0x6A1 DUP5 DUP11 SUB DUP6 PUSH2 0x115F JUMP JUMPDEST MLOAD SWAP3 DUP3 DUP5 SWAP4 DUP5 MSTORE DUP4 ADD SWAP1 PUSH2 0x107E JUMP JUMPDEST SUB SWAP1 RETURN JUMPDEST DUP2 MSTORE DUP7 SWAP4 POP SWAP2 SWAP1 PUSH32 0x8A35ACFBC15FF81A39AE7D344FD709F28E8600B4AA8C65C6B64BFE7FE36BD19B JUMPDEST DUP3 DUP5 LT PUSH2 0x6F7 JUMPI POP POP POP DUP3 ADD ADD DUP2 PUSH2 0x6A1 PUSH2 0x6B0 CODESIZE PUSH2 0x68F JUMP JUMPDEST DUP1 SLOAD DUP5 DUP11 ADD DUP7 ADD MSTORE DUP9 SWAP6 POP DUP8 SWAP5 SWAP1 SWAP4 ADD SWAP3 DUP2 ADD PUSH2 0x6DD JUMP JUMPDEST PUSH1 0xFF NOT AND DUP9 DUP3 ADD MSTORE SWAP5 ISZERO ISZERO PUSH1 0x5 SHL DUP8 ADD SWAP1 SWAP5 ADD SWAP5 POP DUP6 SWAP4 POP PUSH2 0x6A1 SWAP3 POP PUSH2 0x6B0 SWAP2 POP CODESIZE SWAP1 POP PUSH2 0x68F JUMP JUMPDEST PUSH4 0x4E487B71 PUSH1 0xE0 SHL DUP4 MSTORE PUSH1 0x22 DUP11 MSTORE PUSH1 0x24 DUP4 REVERT JUMPDEST SWAP3 PUSH1 0x7F AND SWAP3 PUSH2 0x665 JUMP JUMPDEST DUP3 DUP5 CALLVALUE PUSH2 0x23D JUMPI DUP2 PUSH1 0x3 NOT CALLDATASIZE ADD SLT PUSH2 0x23D JUMPI PUSH1 0x5 SLOAD SWAP1 MLOAD PUSH1 0x1 PUSH1 0x1 PUSH1 0xA0 SHL SUB SWAP1 SWAP2 AND DUP2 MSTORE PUSH1 0x20 SWAP1 RETURN JUMPDEST POP DUP3 SWAP1 CALLVALUE PUSH2 0x2D3 JUMPI PUSH1 0x20 CALLDATASIZE PUSH1 0x3 NOT ADD SLT PUSH2 0x2D3 JUMPI CALLDATALOAD SWAP1 DUP2 ISZERO ISZERO DUP1 SWAP3 SUB PUSH2 0x2D3 JUMPI PUSH32 0x1509137B40DF48E8EF9596F9DB16B632B15353D0E0688D9F23221953EB0328DD SWAP2 PUSH1 0x20 SWAP2 PUSH2 0x7CC PUSH2 0x1109 JUMP JUMPDEST PUSH1 0xFF NOT PUSH1 0x8 SLOAD AND PUSH1 0xFF DUP4 AND OR PUSH1 0x8 SSTORE MLOAD SWAP1 DUP2 MSTORE LOG1 DUP1 RETURN JUMPDEST POP DUP3 CALLVALUE PUSH2 0x2D3 JUMPI DUP1 PUSH1 0x3 NOT CALLDATASIZE ADD SLT PUSH2 0x2D3 JUMPI PUSH2 0x7FD PUSH2 0x10BE JUMP JUMPDEST SWAP3 PUSH1 0x24 CALLDATALOAD SWAP1 PUSH1 0x1 PUSH1 0x1 PUSH1 0xA0 SHL SUB PUSH32 0x0 DUP2 AND CALLER SUB PUSH2 0xA9B JUMPI PUSH1 0xFF PUSH1 0x8 SLOAD AND ISZERO PUSH2 0xA59 JUMPI PUSH2 0x846 PUSH2 0x1383 JUMP JUMPDEST DUP6 AND DUP1 ISZERO PUSH2 0xA49 JUMPI DUP3 ISZERO PUSH2 0xA39 JUMPI DUP1 DUP3 MSTORE DUP2 PUSH1 0x20 MSTORE DUP4 DUP3 KECCAK256 SLOAD DUP4 DUP2 LT PUSH2 0xA07 JUMPI POP PUSH1 0x2 SLOAD DUP1 DUP5 GT PUSH2 0x9EB JUMPI PUSH1 0xA SWAP1 DIV DUP4 GT PUSH2 0x994 JUMPI PUSH2 0x887 DUP4 PUSH1 0x7 SLOAD PUSH2 0x125F JUMP JUMPDEST PUSH1 0x7 SSTORE ADDRESS EXTCODESIZE ISZERO PUSH2 0x23D JUMPI DUP4 MLOAD PUSH4 0x7B2C7995 PUSH1 0xE1 SHL DUP2 MSTORE PUSH1 0x1 PUSH1 0x1 PUSH1 0xA0 SHL SUB DUP8 AND DUP7 DUP3 ADD SWAP1 DUP2 MSTORE PUSH1 0x20 DUP2 ADD DUP6 SWAP1 MSTORE DUP4 SWAP1 DUP2 SWAP1 DUP4 SWAP1 DUP2 SWAP1 PUSH1 0x40 ADD SUB DUP2 DUP4 ADDRESS GAS CALL SWAP2 DUP3 PUSH2 0x980 JUMPI JUMPDEST POP POP PUSH2 0x947 JUMPI POP POP PUSH2 0x8DC PUSH2 0x1282 JUMP JUMPDEST PUSH4 0x8C379A0 EQ PUSH2 0x90D JUMPI JUMPDEST PUSH2 0x1E6 SWAP2 PUSH2 0x8F7 DUP3 PUSH1 0x7 SLOAD PUSH2 0x1312 JUMP JUMPDEST POP MLOAD PUSH4 0x1E764BC5 PUSH1 0xE3 SHL DUP2 MSTORE SWAP4 DUP5 SWAP4 DUP5 ADD PUSH2 0x1343 JUMP JUMPDEST PUSH2 0x915 PUSH2 0x12A0 JUMP JUMPDEST DUP1 PUSH2 0x920 JUMPI POP PUSH2 0x8E7 JUMP JUMPDEST SWAP1 PUSH2 0x1E6 SWAP3 PUSH2 0x931 DUP3 PUSH1 0x7 SLOAD PUSH2 0x1312 JUMP JUMPDEST POP MLOAD PUSH4 0x1E764BC5 PUSH1 0xE3 SHL DUP2 MSTORE SWAP5 DUP6 SWAP5 DUP6 ADD PUSH2 0x131F JUMP JUMPDEST PUSH32 0xCCBEA4088A3B7AE9CA2D15FAB9A9742A4075B4D7247768A1EECEA917565ABA00 DUP5 DUP5 PUSH1 0x7 SLOAD DUP3 MLOAD SWAP2 DUP3 MSTORE PUSH1 0x20 DUP3 ADD MSTORE LOG2 PUSH1 0x1 PUSH1 0x6 SSTORE DUP1 RETURN JUMPDEST PUSH2 0x989 SWAP1 PUSH2 0x1135 JUMP JUMPDEST PUSH2 0x2D3 JUMPI DUP3 DUP9 PUSH2 0x8CC JUMP JUMPDEST POP POP PUSH1 0xA4 SWAP4 POP DUP2 MLOAD SWAP3 PUSH4 0x33BE48F5 PUSH1 0xE2 SHL DUP5 MSTORE DUP4 ADD MSTORE PUSH1 0x24 DUP3 ADD MSTORE PUSH1 0x24 PUSH1 0x44 DUP3 ADD MSTORE PUSH32 0x45786365656473206D6178696D756D206275726E20706572207472616E736163 PUSH1 0x64 DUP3 ADD MSTORE PUSH4 0x3A34B7B7 PUSH1 0xE1 SHL PUSH1 0x84 DUP3 ADD MSTORE REVERT JUMPDEST DUP6 PUSH1 0x44 SWAP2 DUP6 DUP8 MLOAD SWAP3 PUSH4 0x1EE970CD PUSH1 0xE3 SHL DUP5 MSTORE DUP4 ADD MSTORE PUSH1 0x24 DUP3 ADD MSTORE REVERT JUMPDEST SWAP4 MLOAD PUSH4 0xDB42144D PUSH1 0xE0 SHL DUP2 MSTORE PUSH1 0x1 PUSH1 0x1 PUSH1 0xA0 SHL SUB SWAP1 SWAP7 AND SWAP5 DUP7 ADD SWAP5 DUP6 MSTORE POP POP PUSH1 0x20 DUP4 ADD MSTORE PUSH1 0x40 DUP3 ADD MSTORE DUP2 SWAP1 PUSH1 0x60 ADD SUB SWAP1 REVERT JUMPDEST POP POP POP MLOAD PUSH4 0x1F2A2005 PUSH1 0xE0 SHL DUP2 MSTORE REVERT JUMPDEST POP POP POP MLOAD PUSH4 0xD92E233D PUSH1 0xE0 SHL DUP2 MSTORE REVERT JUMPDEST DUP4 MLOAD PUSH4 0xEB8953F PUSH1 0xE0 SHL DUP2 MSTORE PUSH1 0x20 DUP2 DUP8 ADD DUP2 DUP2 MSTORE PUSH1 0x13 SWAP2 DUP2 ADD SWAP2 SWAP1 SWAP2 MSTORE PUSH19 0x109D5C9B9A5B99C81A5CC8191A5CD8589B1959 PUSH1 0x6A SHL PUSH1 0x40 DUP3 ADD MSTORE DUP2 SWAP1 PUSH1 0x60 ADD SUB SWAP1 REVERT JUMPDEST DUP4 MLOAD PUSH4 0x5936416F PUSH1 0xE0 SHL DUP2 MSTORE CALLER DUP2 DUP8 ADD MSTORE PUSH1 0x24 SWAP1 REVERT JUMPDEST DUP3 CALLVALUE PUSH2 0x513 JUMPI DUP1 PUSH1 0x3 NOT CALLDATASIZE ADD SLT PUSH2 0x513 JUMPI PUSH2 0xACA PUSH2 0x1109 JUMP JUMPDEST PUSH1 0x5 DUP1 SLOAD PUSH1 0x1 PUSH1 0x1 PUSH1 0xA0 SHL SUB NOT DUP2 AND SWAP1 SWAP2 SSTORE PUSH1 0x0 SWAP1 PUSH1 0x1 PUSH1 0x1 PUSH1 0xA0 SHL SUB AND PUSH32 0x8BE0079C531659141344CD1FD0A4F28419497F9722A3DAAFE3B4186F6B6457E0 DUP3 DUP1 LOG3 DUP1 RETURN JUMPDEST DUP3 DUP5 CALLVALUE PUSH2 0x23D JUMPI PUSH1 0x20 CALLDATASIZE PUSH1 0x3 NOT ADD SLT PUSH2 0x23D JUMPI PUSH1 0x20 SWAP2 DUP2 SWAP1 PUSH1 0x1 PUSH1 0x1 PUSH1 0xA0 SHL SUB PUSH2 0xB37 PUSH2 0x10BE JUMP JUMPDEST AND DUP2 MSTORE DUP1 DUP5 MSTORE KECCAK256 SLOAD SWAP1 MLOAD SWAP1 DUP2 MSTORE RETURN JUMPDEST POP SWAP1 CALLVALUE PUSH2 0x513 JUMPI PUSH1 0x20 CALLDATASIZE PUSH1 0x3 NOT ADD SLT PUSH2 0x513 JUMPI POP PUSH1 0x20 PUSH1 0x84 SWAP3 PUSH2 0xB67 PUSH2 0x10BE JUMP JUMPDEST POP MLOAD PUSH3 0x461BCD PUSH1 0xE5 SHL DUP2 MSTORE SWAP2 DUP3 ADD MSTORE PUSH1 0x25 PUSH1 0x24 DUP3 ADD MSTORE PUSH32 0x4D696E742064697361626C65643A2075736520666163746F727920746F206C6F PUSH1 0x44 DUP3 ADD MSTORE PUSH5 0x636B20585 PUSH1 0xDC SHL PUSH1 0x64 DUP3 ADD MSTORE REVERT JUMPDEST DUP3 DUP5 CALLVALUE PUSH2 0x23D JUMPI DUP2 PUSH1 0x3 NOT CALLDATASIZE ADD SLT PUSH2 0x23D JUMPI PUSH1 0x20 SWAP1 PUSH1 0xFF PUSH1 0x8 SLOAD AND SWAP1 MLOAD SWAP1 ISZERO ISZERO DUP2 MSTORE RETURN JUMPDEST POP DUP3 CALLVALUE PUSH2 0x2D3 JUMPI PUSH1 0x20 CALLDATASIZE PUSH1 0x3 NOT ADD SLT PUSH2 0x2D3 JUMPI DUP2 CALLDATALOAD SWAP3 PUSH1 0xFF PUSH1 0x8 SLOAD AND ISZERO PUSH2 0xD61 JUMPI PUSH2 0xC00 PUSH2 0x1383 JUMP JUMPDEST DUP4 ISZERO PUSH2 0xD53 JUMPI CALLER DUP2 MSTORE DUP1 PUSH1 0x20 MSTORE DUP2 DUP2 KECCAK256 SLOAD DUP5 DUP2 LT PUSH2 0xD29 JUMPI POP PUSH2 0xC25 DUP5 PUSH1 0x7 SLOAD PUSH2 0x125F JUMP JUMPDEST PUSH1 0x7 SSTORE ADDRESS EXTCODESIZE ISZERO PUSH2 0x513 JUMPI DUP2 MLOAD PUSH4 0x7B2C7995 PUSH1 0xE1 SHL DUP2 MSTORE CALLER DUP5 DUP3 ADD SWAP1 DUP2 MSTORE PUSH1 0x20 DUP2 ADD DUP7 SWAP1 MSTORE SWAP1 SWAP2 SWAP1 DUP2 SWAP1 DUP4 SWAP1 DUP2 SWAP1 PUSH1 0x40 ADD SUB DUP2 DUP4 ADDRESS GAS CALL SWAP2 DUP3 PUSH2 0xD1A JUMPI JUMPDEST POP SWAP1 PUSH2 0xCDF JUMPI POP PUSH2 0xC71 PUSH2 0x1282 JUMP JUMPDEST PUSH4 0x8C379A0 EQ PUSH2 0xCA4 JUMPI JUMPDEST PUSH2 0x1E6 SWAP1 PUSH2 0xC8C DUP5 PUSH1 0x7 SLOAD PUSH2 0x1312 JUMP JUMPDEST POP MLOAD PUSH4 0x1E764BC5 PUSH1 0xE3 SHL DUP2 MSTORE SWAP3 DUP4 SWAP3 CALLER SWAP1 DUP5 ADD PUSH2 0x1343 JUMP JUMPDEST PUSH2 0xCAC PUSH2 0x12A0 JUMP JUMPDEST DUP1 PUSH2 0xCB7 JUMPI POP PUSH2 0xC7C JUMP JUMPDEST PUSH2 0x1E6 SWAP2 PUSH2 0xCC7 DUP6 PUSH1 0x7 SLOAD PUSH2 0x1312 JUMP JUMPDEST POP MLOAD PUSH4 0x1E764BC5 PUSH1 0xE3 SHL DUP2 MSTORE SWAP4 DUP5 SWAP4 CALLER SWAP1 DUP6 ADD PUSH2 0x131F JUMP JUMPDEST DUP4 PUSH32 0xCCBEA4088A3B7AE9CA2D15FAB9A9742A4075B4D7247768A1EECEA917565ABA00 DUP4 PUSH1 0x7 SLOAD DUP2 MLOAD SWAP4 DUP5 MSTORE PUSH1 0x20 DUP5 ADD MSTORE CALLER SWAP3 LOG2 PUSH1 0x1 PUSH1 0x6 SSTORE DUP1 RETURN JUMPDEST PUSH2 0xD23 SWAP1 PUSH2 0x1135 JUMP JUMPDEST DUP6 PUSH2 0xC62 JUMP JUMPDEST SWAP2 MLOAD PUSH4 0xDB42144D PUSH1 0xE0 SHL DUP2 MSTORE CALLER SWAP4 DUP2 ADD SWAP4 DUP5 MSTORE PUSH1 0x20 DUP5 ADD SWAP5 SWAP1 SWAP5 MSTORE POP PUSH1 0x40 DUP3 ADD MSTORE DUP2 SWAP1 PUSH1 0x60 ADD SUB SWAP1 REVERT JUMPDEST POP MLOAD PUSH4 0x1F2A2005 PUSH1 0xE0 SHL DUP2 MSTORE REVERT JUMPDEST DUP2 MLOAD PUSH4 0xEB8953F PUSH1 0xE0 SHL DUP2 MSTORE PUSH1 0x20 DUP2 DUP6 ADD DUP2 DUP2 MSTORE PUSH1 0x13 SWAP2 DUP2 ADD SWAP2 SWAP1 SWAP2 MSTORE PUSH19 0x109D5C9B9A5B99C81A5CC8191A5CD8589B1959 PUSH1 0x6A SHL PUSH1 0x40 DUP3 ADD MSTORE DUP2 SWAP1 PUSH1 0x60 ADD SUB SWAP1 REVERT JUMPDEST DUP3 DUP5 CALLVALUE PUSH2 0x23D JUMPI DUP2 PUSH1 0x3 NOT CALLDATASIZE ADD SLT PUSH2 0x23D JUMPI PUSH1 0x20 SWAP1 MLOAD PUSH1 0xFF PUSH32 0x0 AND DUP2 MSTORE RETURN JUMPDEST POP CALLVALUE PUSH2 0x23D JUMPI PUSH2 0xDF0 CALLDATASIZE PUSH2 0x10D4 JUMP JUMPDEST PUSH1 0x1 PUSH1 0x1 PUSH1 0xA0 SHL SUB DUP4 AND DUP1 DUP7 MSTORE PUSH1 0x1 PUSH1 0x20 SWAP1 DUP2 MSTORE DUP8 DUP8 KECCAK256 CALLER DUP9 MSTORE SWAP1 MSTORE DUP7 DUP7 KECCAK256 SLOAD SWAP2 SWAP6 SWAP3 SWAP5 PUSH1 0x0 NOT DUP4 LT PUSH2 0xE2C JUMPI JUMPDEST PUSH1 0x20 DUP9 PUSH2 0x561 DUP10 DUP10 DUP10 PUSH2 0x1181 JUMP JUMPDEST DUP7 DUP4 LT PUSH2 0xE94 JUMPI DUP2 ISZERO PUSH2 0xE7D JUMPI CALLER ISZERO PUSH2 0xE66 JUMPI POP DUP3 MSTORE PUSH1 0x1 PUSH1 0x20 SWAP1 DUP2 MSTORE DUP7 DUP4 KECCAK256 CALLER DUP5 MSTORE DUP2 MSTORE SWAP2 DUP7 SWAP1 KECCAK256 SWAP1 DUP6 SWAP1 SUB SWAP1 SSTORE DUP3 SWAP1 PUSH2 0x561 CODESIZE PUSH2 0xE1E JUMP JUMPDEST DUP8 MLOAD PUSH4 0x4A1406B1 PUSH1 0xE1 SHL DUP2 MSTORE SWAP1 DUP2 ADD DUP5 SWAP1 MSTORE PUSH1 0x24 SWAP1 REVERT JUMPDEST DUP8 MLOAD PUSH4 0xE602DF05 PUSH1 0xE0 SHL DUP2 MSTORE SWAP1 DUP2 ADD DUP5 SWAP1 MSTORE PUSH1 0x24 SWAP1 REVERT JUMPDEST DUP8 MLOAD PUSH4 0x7DC7A0D9 PUSH1 0xE1 SHL DUP2 MSTORE CALLER SWAP2 DUP2 ADD SWAP2 DUP3 MSTORE PUSH1 0x20 DUP3 ADD SWAP4 SWAP1 SWAP4 MSTORE PUSH1 0x40 DUP2 ADD DUP8 SWAP1 MSTORE DUP3 SWAP2 POP PUSH1 0x60 ADD SUB SWAP1 REVERT JUMPDEST DUP3 DUP5 CALLVALUE PUSH2 0x23D JUMPI DUP2 PUSH1 0x3 NOT CALLDATASIZE ADD SLT PUSH2 0x23D JUMPI PUSH1 0x20 SWAP1 PUSH1 0x2 SLOAD SWAP1 MLOAD SWAP1 DUP2 MSTORE RETURN JUMPDEST POP DUP3 SWAP1 CALLVALUE PUSH2 0x2D3 JUMPI DUP2 PUSH1 0x3 NOT CALLDATASIZE ADD SLT PUSH2 0x2D3 JUMPI PUSH2 0xEFA PUSH2 0x10BE JUMP JUMPDEST PUSH1 0x24 CALLDATALOAD SWAP1 CALLER ISZERO PUSH2 0xF73 JUMPI PUSH1 0x1 PUSH1 0x1 PUSH1 0xA0 SHL SUB AND SWAP2 DUP3 ISZERO PUSH2 0xF5C JUMPI POP DUP1 DUP4 PUSH1 0x20 SWAP6 CALLER DUP2 MSTORE PUSH1 0x1 DUP8 MSTORE DUP2 DUP2 KECCAK256 DUP6 DUP3 MSTORE DUP8 MSTORE KECCAK256 SSTORE DUP3 MLOAD SWAP1 DUP2 MSTORE PUSH32 0x8C5BE1E5EBEC7D5BD14F71427D1E84F3DD0314C0F7B2291E5B200AC8C7C3B925 DUP5 CALLER SWAP3 LOG3 MLOAD PUSH1 0x1 DUP2 MSTORE RETURN JUMPDEST DUP4 MLOAD PUSH4 0x4A1406B1 PUSH1 0xE1 SHL DUP2 MSTORE SWAP1 DUP2 ADD DUP6 SWAP1 MSTORE PUSH1 0x24 SWAP1 REVERT JUMPDEST DUP4 MLOAD PUSH4 0xE602DF05 PUSH1 0xE0 SHL DUP2 MSTORE DUP1 DUP5 ADD DUP7 SWAP1 MSTORE PUSH1 0x24 SWAP1 REVERT JUMPDEST SWAP1 POP DUP3 DUP5 CALLVALUE PUSH2 0x23D JUMPI DUP2 PUSH1 0x3 NOT CALLDATASIZE ADD SLT PUSH2 0x23D JUMPI DUP2 PUSH1 0x3 SLOAD SWAP3 PUSH1 0x1 DUP5 DUP2 SHR SWAP2 DUP2 DUP7 AND SWAP6 DUP7 ISZERO PUSH2 0x1074 JUMPI JUMPDEST PUSH1 0x20 SWAP7 DUP8 DUP6 LT DUP2 EQ PUSH2 0x739 JUMPI DUP9 SWAP10 POP SWAP7 DUP9 SWAP7 SWAP8 DUP6 DUP3 SWAP11 MSTORE SWAP2 DUP3 PUSH1 0x0 EQ PUSH2 0x104D JUMPI POP POP PUSH1 0x1 EQ PUSH2 0xFF1 JUMPI JUMPDEST POP POP POP PUSH2 0x6B0 SWAP3 SWAP2 PUSH2 0x6A1 SWAP2 SUB DUP6 PUSH2 0x115F JUMP JUMPDEST SWAP2 SWAP1 DUP7 SWAP4 POP PUSH1 0x3 DUP4 MSTORE PUSH32 0xC2575A0E9E593C00F959F8C92F12DB2869C3395A3B0502D05E2516446F71F85B JUMPDEST DUP3 DUP5 LT PUSH2 0x1035 JUMPI POP POP POP DUP3 ADD ADD DUP2 PUSH2 0x6A1 PUSH2 0x6B0 PUSH2 0xFDE JUMP JUMPDEST DUP1 SLOAD DUP5 DUP11 ADD DUP7 ADD MSTORE DUP9 SWAP6 POP DUP8 SWAP5 SWAP1 SWAP4 ADD SWAP3 DUP2 ADD PUSH2 0x101C JUMP JUMPDEST PUSH1 0xFF NOT AND DUP8 DUP3 ADD MSTORE SWAP4 ISZERO ISZERO PUSH1 0x5 SHL DUP7 ADD SWAP1 SWAP4 ADD SWAP4 POP DUP5 SWAP3 POP PUSH2 0x6A1 SWAP2 POP PUSH2 0x6B0 SWAP1 POP PUSH2 0xFDE JUMP JUMPDEST SWAP3 PUSH1 0x7F AND SWAP3 PUSH2 0xFB4 JUMP JUMPDEST SWAP2 SWAP1 DUP3 MLOAD SWAP3 DUP4 DUP3 MSTORE PUSH1 0x0 JUMPDEST DUP5 DUP2 LT PUSH2 0x10AA JUMPI POP POP DUP3 PUSH1 0x0 PUSH1 0x20 DUP1 SWAP5 SWAP6 DUP5 ADD ADD MSTORE PUSH1 0x1F DUP1 NOT SWAP2 ADD AND ADD ADD SWAP1 JUMP JUMPDEST PUSH1 0x20 DUP2 DUP4 ADD DUP2 ADD MLOAD DUP5 DUP4 ADD DUP3 ADD MSTORE ADD PUSH2 0x1089 JUMP JUMPDEST PUSH1 0x4 CALLDATALOAD SWAP1 PUSH1 0x1 PUSH1 0x1 PUSH1 0xA0 SHL SUB DUP3 AND DUP3 SUB PUSH2 0x329 JUMPI JUMP JUMPDEST PUSH1 0x60 SWAP1 PUSH1 0x3 NOT ADD SLT PUSH2 0x329 JUMPI PUSH1 0x1 PUSH1 0x1 PUSH1 0xA0 SHL SUB SWAP1 PUSH1 0x4 CALLDATALOAD DUP3 DUP2 AND DUP2 SUB PUSH2 0x329 JUMPI SWAP2 PUSH1 0x24 CALLDATALOAD SWAP1 DUP2 AND DUP2 SUB PUSH2 0x329 JUMPI SWAP1 PUSH1 0x44 CALLDATALOAD SWAP1 JUMP JUMPDEST PUSH1 0x5 SLOAD PUSH1 0x1 PUSH1 0x1 PUSH1 0xA0 SHL SUB AND CALLER SUB PUSH2 0x111D JUMPI JUMP JUMPDEST PUSH1 0x40 MLOAD PUSH4 0x118CDAA7 PUSH1 0xE0 SHL DUP2 MSTORE CALLER PUSH1 0x4 DUP3 ADD MSTORE PUSH1 0x24 SWAP1 REVERT JUMPDEST PUSH8 0xFFFFFFFFFFFFFFFF DUP2 GT PUSH2 0x1149 JUMPI PUSH1 0x40 MSTORE JUMP JUMPDEST PUSH4 0x4E487B71 PUSH1 0xE0 SHL PUSH1 0x0 MSTORE PUSH1 0x41 PUSH1 0x4 MSTORE PUSH1 0x24 PUSH1 0x0 REVERT JUMPDEST SWAP1 PUSH1 0x1F DUP1 NOT SWAP2 ADD AND DUP2 ADD SWAP1 DUP2 LT PUSH8 0xFFFFFFFFFFFFFFFF DUP3 GT OR PUSH2 0x1149 JUMPI PUSH1 0x40 MSTORE JUMP JUMPDEST SWAP2 PUSH1 0x1 PUSH1 0x1 PUSH1 0xA0 SHL SUB DUP1 DUP5 AND SWAP3 DUP4 ISZERO PUSH2 0x1246 JUMPI AND SWAP3 DUP4 ISZERO PUSH2 0x122D JUMPI PUSH1 0x0 SWAP1 DUP4 DUP3 MSTORE DUP2 PUSH1 0x20 MSTORE PUSH1 0x40 DUP3 KECCAK256 SLOAD SWAP1 DUP4 DUP3 LT PUSH2 0x11FB JUMPI POP SWAP2 PUSH1 0x40 DUP3 DUP3 PUSH32 0xDDF252AD1BE2C89B69C2B068FC378DAA952BA7F163C4A11628F55A4DF523B3EF SWAP6 DUP8 PUSH1 0x20 SWAP7 MSTORE DUP3 DUP7 MSTORE SUB DUP3 DUP3 KECCAK256 SSTORE DUP7 DUP2 MSTORE KECCAK256 DUP2 DUP2 SLOAD ADD SWAP1 SSTORE PUSH1 0x40 MLOAD SWAP1 DUP2 MSTORE LOG3 JUMP JUMPDEST PUSH1 0x40 MLOAD PUSH4 0x391434E3 PUSH1 0xE2 SHL DUP2 MSTORE PUSH1 0x1 PUSH1 0x1 PUSH1 0xA0 SHL SUB SWAP2 SWAP1 SWAP2 AND PUSH1 0x4 DUP3 ADD MSTORE PUSH1 0x24 DUP2 ADD SWAP2 SWAP1 SWAP2 MSTORE PUSH1 0x44 DUP2 ADD DUP4 SWAP1 MSTORE PUSH1 0x64 SWAP1 REVERT JUMPDEST PUSH1 0x40 MLOAD PUSH4 0xEC442F05 PUSH1 0xE0 SHL DUP2 MSTORE PUSH1 0x0 PUSH1 0x4 DUP3 ADD MSTORE PUSH1 0x24 SWAP1 REVERT JUMPDEST PUSH1 0x40 MLOAD PUSH4 0x4B637E8F PUSH1 0xE1 SHL DUP2 MSTORE PUSH1 0x0 PUSH1 0x4 DUP3 ADD MSTORE PUSH1 0x24 SWAP1 REVERT JUMPDEST SWAP2 SWAP1 DUP3 ADD DUP1 SWAP3 GT PUSH2 0x126C JUMPI JUMP JUMPDEST PUSH4 0x4E487B71 PUSH1 0xE0 SHL PUSH1 0x0 MSTORE PUSH1 0x11 PUSH1 0x4 MSTORE PUSH1 0x24 PUSH1 0x0 REVERT JUMPDEST PUSH1 0x0 SWAP1 PUSH1 0x3 RETURNDATASIZE GT PUSH2 0x128F JUMPI JUMP JUMPDEST SWAP1 POP PUSH1 0x4 PUSH1 0x0 DUP1 RETURNDATACOPY PUSH1 0x0 MLOAD PUSH1 0xE0 SHR SWAP1 JUMP JUMPDEST PUSH1 0x0 PUSH1 0x44 RETURNDATASIZE LT PUSH2 0x12FE JUMPI PUSH1 0x40 MLOAD PUSH1 0x3 NOT SWAP2 RETURNDATASIZE DUP4 ADD PUSH1 0x4 DUP4 RETURNDATACOPY DUP2 MLOAD PUSH8 0xFFFFFFFFFFFFFFFF SWAP2 DUP3 DUP3 GT RETURNDATASIZE PUSH1 0x24 DUP5 ADD GT OR PUSH2 0x1301 JUMPI DUP2 DUP5 ADD SWAP5 DUP6 MLOAD SWAP4 DUP5 GT PUSH2 0x1309 JUMPI RETURNDATASIZE DUP6 ADD ADD PUSH1 0x20 DUP5 DUP8 ADD ADD GT PUSH2 0x1301 JUMPI POP PUSH2 0x12FE SWAP3 SWAP2 ADD PUSH1 0x20 ADD SWAP1 PUSH2 0x115F JUMP JUMPDEST SWAP1 JUMP JUMPDEST SWAP5 SWAP4 POP POP POP POP JUMP JUMPDEST POP SWAP5 SWAP4 POP POP POP POP JUMP JUMPDEST SWAP2 SWAP1 DUP3 SUB SWAP2 DUP3 GT PUSH2 0x126C JUMPI JUMP JUMPDEST PUSH2 0x12FE SWAP4 SWAP3 PUSH1 0x60 SWAP3 PUSH1 0x1 DUP1 PUSH1 0xA0 SHL SUB AND DUP3 MSTORE PUSH1 0x20 DUP3 ADD MSTORE DUP2 PUSH1 0x40 DUP3 ADD MSTORE ADD SWAP1 PUSH2 0x107E JUMP JUMPDEST SWAP1 SWAP2 PUSH1 0xA0 SWAP3 PUSH1 0x1 DUP1 DUP6 SHL SUB AND DUP3 MSTORE PUSH1 0x20 DUP3 ADD MSTORE PUSH1 0x60 PUSH1 0x40 DUP3 ADD MSTORE PUSH1 0x12 PUSH1 0x60 DUP3 ADD MSTORE PUSH18 0x2AB735B737BBB710313AB9371032B93937B9 PUSH1 0x71 SHL PUSH1 0x80 DUP3 ADD MSTORE ADD SWAP1 JUMP JUMPDEST PUSH1 0x2 PUSH1 0x6 SLOAD EQ PUSH2 0x1394 JUMPI PUSH1 0x2 PUSH1 0x6 SSTORE JUMP JUMPDEST PUSH1 0x40 MLOAD PUSH4 0x3EE5AEB5 PUSH1 0xE0 SHL DUP2 MSTORE PUSH1 0x4 SWAP1 REVERT INVALID LOG2 PUSH5 0x6970667358 0x22 SLT KECCAK256 0xCD PUSH18 0x1DA2A8CBE2259CA40FD30FA7084F8AA4A846 0xE6 0xD0 0xD6 BYTE DUP14 0xCD CALLER LT DUP1 0xB5 0xDA SIGNEXTEND PUSH5 0x736F6C6343 STOP ADDMOD EQ STOP CALLER LOG2 PUSH5 0x6970667358 0x22 SLT KECCAK256 PC PUSH3 0x3D7A46 SWAP2 PUSH26 0xCF3C7159C182ECEB4D1C303B2A39634704EE255923C94542DB64 PUSH20 0x6F6C634300081400332F8788117E7EFF1D82E926 0xEC PUSH26 0x4901D17C78024A50270940304540A733656F0D00000000000000 "},"methodIdentifiers":{"DEFAULT_ADMIN_ROLE()":"a217fddf","EMERGENCY_ROLE()":"20df4359","MAX_GAME_TOKEN_DECIMALS()":"df525b7d","MAX_NAME_LENGTH()":"86074985","MAX_SYMBOL_LENGTH()":"e3d89171","MIN_XP_LOCK_AMOUNT()":"8760550d","PAUSER_ROLE()":"e63ab1e9","PRECISION_FACTOR()":"ccd34cd5","RATE_MANAGER_ROLE()":"cb327b8b","burnGameToken(uint256,uint256)":"5ed6c1db","calculateXpAmount(uint256)":"74b334c5","calculateXpReturn(uint256,uint256)":"3b420a73","createGameToken(uint256,string,string,uint8)":"fd44d274","credaToXpRate()":"238d4af8","credaToken()":"ecdf8fc4","emergencyWithdraw(address,address,uint256)":"e63ea408","gameTokenMetadata(uint256)":"05a61954","gameTokens(uint256)":"bf034b69","getGameTokenInfo(uint256)":"5e79c1dc","getRoleAdmin(bytes32)":"248a9ca3","getUserGameTokens(address)":"546fdad4","grantRole(bytes32,address)":"2f2ff15d","hasRole(bytes32,address)":"91d14854","isGameNameUsed(address,string)":"f7157558","lockCreda(uint256)":"bec697db","nextGameId()":"b135bbb0","pause()":"8456cb59","paused()":"5c975abb","renounceRole(bytes32,address)":"36568abe","revokeRole(bytes32,address)":"d547741f","setRate(uint256)":"34fcf437","supportsInterface(bytes4)":"01ffc9a7","totalLockedCreda()":"aa6450ce","unpause()":"3f4ba83a","userGameNames(address,string)":"1bf44cb0","userGameTokens(address,uint256)":"c21c64a7","userLockedCreda(address)":"07819945","xpReserves()":"6d8554e2","xpToken()":"ae5014b1"}}}}}