{"contracts/GameToken.sol":{"GameToken":{"abi":[{"inputs":[{"internalType":"string","name":"name","type":"string"},{"internalType":"string","name":"symbol","type":"string"},{"internalType":"uint8","name":"decimals_","type":"uint8"},{"internalType":"uint256","name":"initialSupply","type":"uint256"},{"internalType":"address","name":"owner","type":"address"},{"internalType":"address","name":"factory_","type":"address"},{"internalType":"uint256","name":"gameId_","type":"uint256"}],"stateMutability":"nonpayable","type":"constructor"},{"inputs":[],"name":"BurnDisabled","type":"error"},{"inputs":[{"internalType":"address","name":"spender","type":"address"},{"internalType":"uint256","name":"allowance","type":"uint256"},{"internalType":"uint256","name":"needed","type":"uint256"}],"name":"ERC20InsufficientAllowance","type":"error"},{"inputs":[{"internalType":"address","name":"sender","type":"address"},{"internalType":"uint256","name":"balance","type":"uint256"},{"internalType":"uint256","name":"needed","type":"uint256"}],"name":"ERC20InsufficientBalance","type":"error"},{"inputs":[{"internalType":"address","name":"approver","type":"address"}],"name":"ERC20InvalidApprover","type":"error"},{"inputs":[{"internalType":"address","name":"receiver","type":"address"}],"name":"ERC20InvalidReceiver","type":"error"},{"inputs":[{"internalType":"address","name":"sender","type":"address"}],"name":"ERC20InvalidSender","type":"error"},{"inputs":[{"internalType":"address","name":"spender","type":"address"}],"name":"ERC20InvalidSpender","type":"error"},{"inputs":[],"name":"InsufficientBalance","type":"error"},{"inputs":[{"internalType":"address","name":"owner","type":"address"}],"name":"OwnableInvalidOwner","type":"error"},{"inputs":[{"internalType":"address","name":"account","type":"address"}],"name":"OwnableUnauthorizedAccount","type":"error"},{"inputs":[],"name":"ReentrancyGuardReentrantCall","type":"error"},{"inputs":[],"name":"UnauthorizedBurner","type":"error"},{"inputs":[],"name":"ZeroAmount","type":"error"},{"anonymous":false,"inputs":[{"indexed":true,"internalType":"address","name":"owner","type":"address"},{"indexed":true,"internalType":"address","name":"spender","type":"address"},{"indexed":false,"internalType":"uint256","name":"value","type":"uint256"}],"name":"Approval","type":"event"},{"anonymous":false,"inputs":[{"indexed":false,"internalType":"bool","name":"enabled","type":"bool"}],"name":"BurnStatusChanged","type":"event"},{"anonymous":false,"inputs":[{"indexed":true,"internalType":"address","name":"previousOwner","type":"address"},{"indexed":true,"internalType":"address","name":"newOwner","type":"address"}],"name":"OwnershipTransferred","type":"event"},{"anonymous":false,"inputs":[{"indexed":true,"internalType":"address","name":"user","type":"address"},{"indexed":false,"internalType":"uint256","name":"amount","type":"uint256"},{"indexed":false,"internalType":"uint256","name":"totalBurned","type":"uint256"}],"name":"TokensBurned","type":"event"},{"anonymous":false,"inputs":[{"indexed":true,"internalType":"address","name":"from","type":"address"},{"indexed":true,"internalType":"address","name":"to","type":"address"},{"indexed":false,"internalType":"uint256","name":"value","type":"uint256"}],"name":"Transfer","type":"event"},{"inputs":[{"internalType":"address","name":"owner","type":"address"},{"internalType":"address","name":"spender","type":"address"}],"name":"allowance","outputs":[{"internalType":"uint256","name":"","type":"uint256"}],"stateMutability":"view","type":"function"},{"inputs":[{"internalType":"address","name":"spender","type":"address"},{"internalType":"uint256","name":"value","type":"uint256"}],"name":"approve","outputs":[{"internalType":"bool","name":"","type":"bool"}],"stateMutability":"nonpayable","type":"function"},{"inputs":[{"internalType":"address","name":"account","type":"address"}],"name":"balanceOf","outputs":[{"internalType":"uint256","name":"","type":"uint256"}],"stateMutability":"view","type":"function"},{"inputs":[{"internalType":"uint256","name":"amount","type":"uint256"}],"name":"burn","outputs":[],"stateMutability":"nonpayable","type":"function"},{"inputs":[],"name":"burnEnabled","outputs":[{"internalType":"bool","name":"","type":"bool"}],"stateMutability":"view","type":"function"},{"inputs":[{"internalType":"address","name":"from","type":"address"},{"internalType":"uint256","name":"amount","type":"uint256"}],"name":"burnFrom","outputs":[],"stateMutability":"nonpayable","type":"function"},{"inputs":[],"name":"decimals","outputs":[{"internalType":"uint8","name":"","type":"uint8"}],"stateMutability":"view","type":"function"},{"inputs":[{"internalType":"address","name":"token","type":"address"},{"internalType":"address","name":"to","type":"address"},{"internalType":"uint256","name":"amount","type":"uint256"}],"name":"emergencyRecover","outputs":[],"stateMutability":"nonpayable","type":"function"},{"inputs":[],"name":"factory","outputs":[{"internalType":"address","name":"","type":"address"}],"stateMutability":"view","type":"function"},{"inputs":[],"name":"gameId","outputs":[{"internalType":"uint256","name":"","type":"uint256"}],"stateMutability":"view","type":"function"},{"inputs":[],"name":"name","outputs":[{"internalType":"string","name":"","type":"string"}],"stateMutability":"view","type":"function"},{"inputs":[],"name":"owner","outputs":[{"internalType":"address","name":"","type":"address"}],"stateMutability":"view","type":"function"},{"inputs":[],"name":"renounceOwnership","outputs":[],"stateMutability":"nonpayable","type":"function"},{"inputs":[{"internalType":"bool","name":"enabled","type":"bool"}],"name":"setBurnEnabled","outputs":[],"stateMutability":"nonpayable","type":"function"},{"inputs":[],"name":"symbol","outputs":[{"internalType":"string","name":"","type":"string"}],"stateMutability":"view","type":"function"},{"inputs":[],"name":"totalBurned","outputs":[{"internalType":"uint256","name":"","type":"uint256"}],"stateMutability":"view","type":"function"},{"inputs":[],"name":"totalSupply","outputs":[{"internalType":"uint256","name":"","type":"uint256"}],"stateMutability":"view","type":"function"},{"inputs":[{"internalType":"address","name":"to","type":"address"},{"internalType":"uint256","name":"value","type":"uint256"}],"name":"transfer","outputs":[{"internalType":"bool","name":"","type":"bool"}],"stateMutability":"nonpayable","type":"function"},{"inputs":[{"internalType":"address","name":"from","type":"address"},{"internalType":"address","name":"to","type":"address"},{"internalType":"uint256","name":"value","type":"uint256"}],"name":"transferFrom","outputs":[{"internalType":"bool","name":"","type":"bool"}],"stateMutability":"nonpayable","type":"function"},{"inputs":[{"internalType":"address","name":"newOwner","type":"address"}],"name":"transferOwnership","outputs":[],"stateMutability":"nonpayable","type":"function"}],"evm":{"bytecode":{"linkReferences":{},"object":"604060e08152346200047c5762001301803803806200001e8162000481565b928339810160e0828203126200047c5781516001600160401b0392908381116200047c578262000050918301620004a7565b9260209283830151908282116200047c576200006e918401620004a7565b90858301519260ff841684036200047c57606081015193620000936080830162000519565b9660c0620000a460a0850162000519565b9301519381518181116200036d576003908154906001948583811c9316801562000471575b8c8410146200045b5781908c601f9485811162000402575b50508c908483116001146200038f5760009262000383575b505060001982851b1c191690851b1782555b87519283116200036d5760049788548581811c9116801562000362575b8c8210146200034d57908b82848796959411620002f0575b50508b918411600114620002855760009362000279575b505082841b92600019911b1c19161785555b6001600160a01b039788169788156200026257600580546001600160a01b031981168b179091558991167f8be0079c531659141344cd1fd0a4f28419497f9722a3daafe3b4186f6b6457e0600080a38060065560ff19600854161760085560805260a05260c052600254908282018092116200024d575060025560008381528083528481208054830190558451918252917fddf252ad1be2c89b69c2b068fc378daa952ba7f163c4a11628f55a4df523b3ef91a351610dd290816200052f823960805181610819015260a05181818161025801526105c3015260c051816102200152f35b601190634e487b7160e01b6000525260246000fd5b8951631e4fbdf760e01b8152600081880152602490fd5b01519150388062000157565b60008a81528c812087965093929190601f198616908e5b828210620002d85750508511620002bd575b50505050811b01855562000169565b01519060f884600019921b161c1916905538808080620002ae565b83850151875589989096019593840193018e6200029c565b9091929394508a60005283826000209181880160051c830193881062000343575b9188918897969594930160051c01915b8281106200033357508d915062000140565b6000815587965088910162000321565b9250819262000311565b60228a634e487b7160e01b6000525260246000fd5b90607f169062000128565b634e487b7160e01b600052604160045260246000fd5b015190503880620000f9565b879350908d91601f1984168760005283600020936000905b828210620003e05750508411620003c7575b505050811b0182556200010b565b015160001983871b60f8161c19169055388080620003b9565b91929395968291958786015181550195019301908f918a9695949392620003a7565b909192508560005284826000209181860160051c830193861062000451575b918991869594930160051c01915b8281106200044157508e9150620000e1565b600081558594508991016200042f565b9250819262000421565b634e487b7160e01b600052602260045260246000fd5b92607f1692620000c9565b600080fd5b6040519190601f01601f191682016001600160401b038111838210176200036d57604052565b919080601f840112156200047c5782516001600160401b0381116200036d57602090620004dd601f8201601f1916830162000481565b928184528282870101116200047c5760005b8181106200050557508260009394955001015290565b8581018301518482018401528201620004ef565b51906001600160a01b03821682036200047c5756fe6080604081815260048036101561001557600080fd5b600092833560e01c90816306fdde03146109e657508063095ea7b31461093d57806318160ddd1461091e57806323b872dd1461083d578063313ce567146107ff57806342966c68146107605780635dc96d161461073c57806370a0823114610705578063715018a6146106a857806379cc67901461059b5780637b2c835f146105395780638da5cb5b1461051057806395d89b411461040c578063a9059cbb146103db578063ad1329d114610287578063c45a015514610243578063d7c81b5514610208578063d89135cd146101e9578063dd62ed3e146101915763f2fde38b146100ff57600080fd5b3461018d57602036600319011261018d57610118610b25565b90610121610b75565b6001600160a01b03918216928315610177575050600554826bffffffffffffffffffffffff60a01b821617600555167f8be0079c531659141344cd1fd0a4f28419497f9722a3daafe3b4186f6b6457e08380a380f35b51631e4fbdf760e01b8152908101849052602490fd5b8280fd5b5050346101e557806003193601126101e5576101ab610b25565b6001600160a01b0360243581811692908390036101e1579160209491849316825260018552828220908252845220549051908152f35b8480fd5b5080fd5b5050346101e557816003193601126101e5576020906007549051908152f35b5050346101e557816003193601126101e557602090517f00000000000000000000000000000000000000000000000000000000000000008152f35b5050346101e557816003193601126101e557517f00000000000000000000000000000000000000000000000000000000000000006001600160a01b03168152602090f35b50903461018d5761029736610b40565b91906102a1610b75565b6001600160a01b039081169182156103cb57869392911680610357575082809281925af13d15610352573d67ffffffffffffffff811161033f578251906102f2601f8201601f191660200183610ba1565b81528460203d92013e5b1561030657505080f35b906020606492519162461bcd60e51b83528201526013602482015272115512081d1c985b9cd9995c8819985a5b1959606a1b6044820152fd5b634e487b7160e01b855260418452602485fd5b6102fc565b9460209360449293968651978895869463a9059cbb60e01b865285015260248401525af19081156103c2575061038b575080f35b6020813d82116103ba575b816103a360209383610ba1565b810103126101e55751801515036103b75780f35b80fd5b3d9150610396565b513d84823e3d90fd5b8451631f2a200560e01b81528690fd5b5050346101e557806003193601126101e5576020906104056103fb610b25565b6024359033610bd9565b5160018152f35b509190346101e557816003193601126101e557805191809380549160019083821c92828516948515610506575b60209586861081146104f3578589529081156104cf5750600114610477575b6104738787610469828c0383610ba1565b5191829182610adc565b0390f35b81529295507f8a35acfbc15ff81a39ae7d344fd709f28e8600b4aa8c65c6b64bfe7fe36bd19b5b8284106104bc57505050826104739461046992820101943880610458565b805486850188015292860192810161049e565b60ff19168887015250505050151560051b8301019250610469826104733880610458565b634e487b7160e01b845260228352602484fd5b93607f1693610439565b5050346101e557816003193601126101e55760055490516001600160a01b039091168152602090f35b503461018d57602036600319011261018d57359081151580920361018d577f1509137b40df48e8ef9596f9db16b632b15353d0e0688d9f23221953eb0328dd91602091610584610b75565b60ff196008541660ff83161760085551908152a180f35b50903461018d578060031936011261018d576105b5610b25565b602435906001600160a01b037f0000000000000000000000000000000000000000000000000000000000000000811633036106985760ff6008541615610688576105fd610d79565b8215610678578116938486528560205282848720541061066a575090610654817fccbea4088a3b7ae9ca2d15fab9a9742a4075b4d7247768a1eecea917565aba00949361064c82600754610cb7565b600755610cda565b60075482519182526020820152a2600160065580f35b8351631e9acf1760e31b8152fd5b50505051631f2a200560e01b8152fd5b5050505163be20705f60e01b8152fd5b5050505163a9c455db60e01b8152fd5b83346103b757806003193601126103b7576106c1610b75565b600580546001600160a01b0319811690915581906001600160a01b03167f8be0079c531659141344cd1fd0a4f28419497f9722a3daafe3b4186f6b6457e08280a380f35b5050346101e55760203660031901126101e55760209181906001600160a01b0361072d610b25565b16815280845220549051908152f35b5050346101e557816003193601126101e55760209060ff6008541690519015158152f35b50903461018d57602036600319011261018d5781359160ff60085416156107f157610789610d79565b82156107e357507fccbea4088a3b7ae9ca2d15fab9a9742a4075b4d7247768a1eecea917565aba00906107be83600754610cb7565b6007556107cb8333610cda565b600754815193845260208401523392a2600160065580f35b9051631f2a200560e01b8152fd5b905163be20705f60e01b8152fd5b5050346101e557816003193601126101e5576020905160ff7f0000000000000000000000000000000000000000000000000000000000000000168152f35b508290346101e55761084e36610b40565b6001600160a01b0383168086526001602090815287872033885290528686205491959294600019831061088a575b602088610405898989610bd9565b8683106108f25781156108db5733156108c4575082526001602090815286832033845281529186902090859003905582906104058761087c565b8751634a1406b160e11b8152908101849052602490fd5b875163e602df0560e01b8152908101849052602490fd5b8751637dc7a0d960e11b8152339181019182526020820193909352604081018790528291506060010390fd5b5050346101e557816003193601126101e5576020906002549051908152f35b503461018d578160031936011261018d57610956610b25565b6024359033156109cf576001600160a01b03169182156109b857508083602095338152600187528181208582528752205582519081527f8c5be1e5ebec7d5bd14f71427d1e84f3dd0314c0f7b2291e5b200ac8c7c3b925843392a35160018152f35b8351634a1406b160e11b8152908101859052602490fd5b835163e602df0560e01b8152808401869052602490fd5b9291905034610ad85783600319360112610ad857600354600181811c9186908281168015610ace575b6020958686108214610abb5750848852908115610a995750600114610a40575b6104738686610469828b0383610ba1565b929550600383527fc2575a0e9e593c00f959f8c92f12db2869c3395a3b0502d05e2516446f71f85b5b828410610a86575050508261047394610469928201019438610a2f565b8054868501880152928601928101610a69565b60ff191687860152505050151560051b83010192506104698261047338610a2f565b634e487b7160e01b845260229052602483fd5b93607f1693610a0f565b8380fd5b6020808252825181830181905290939260005b828110610b1157505060409293506000838284010152601f8019910116010190565b818101860151848201604001528501610aef565b600435906001600160a01b0382168203610b3b57565b600080fd5b6060906003190112610b3b576001600160a01b03906004358281168103610b3b57916024359081168103610b3b579060443590565b6005546001600160a01b03163303610b8957565b60405163118cdaa760e01b8152336004820152602490fd5b90601f8019910116810190811067ffffffffffffffff821117610bc357604052565b634e487b7160e01b600052604160045260246000fd5b916001600160a01b03808416928315610c9e5716928315610c855760009083825281602052604082205490838210610c53575091604082827fddf252ad1be2c89b69c2b068fc378daa952ba7f163c4a11628f55a4df523b3ef958760209652828652038282205586815220818154019055604051908152a3565b60405163391434e360e21b81526001600160a01b03919091166004820152602481019190915260448101839052606490fd5b60405163ec442f0560e01b815260006004820152602490fd5b604051634b637e8f60e11b815260006004820152602490fd5b91908201809211610cc457565b634e487b7160e01b600052601160045260246000fd5b906001600160a01b038216908115610c9e5760009282845283602052604084205490828210610d475750817fddf252ad1be2c89b69c2b068fc378daa952ba7f163c4a11628f55a4df523b3ef926020928587528684520360408620558060025403600255604051908152a3565b60405163391434e360e21b81526001600160a01b03919091166004820152602481019190915260448101829052606490fd5b600260065414610d8a576002600655565b604051633ee5aeb560e01b8152600490fdfea26469706673582212209f1c438f5f60eea04008a1ef860d670535e4031d5538854a94abe019fbceb6d864736f6c63430008140033","opcodes":"PUSH1 0x40 PUSH1 0xE0 DUP2 MSTORE CALLVALUE PUSH3 0x47C JUMPI PUSH3 0x1301 DUP1 CODESIZE SUB DUP1 PUSH3 0x1E DUP2 PUSH3 0x481 JUMP JUMPDEST SWAP3 DUP4 CODECOPY DUP2 ADD PUSH1 0xE0 DUP3 DUP3 SUB SLT PUSH3 0x47C JUMPI DUP2 MLOAD PUSH1 0x1 PUSH1 0x1 PUSH1 0x40 SHL SUB SWAP3 SWAP1 DUP4 DUP2 GT PUSH3 0x47C JUMPI DUP3 PUSH3 0x50 SWAP2 DUP4 ADD PUSH3 0x4A7 JUMP JUMPDEST SWAP3 PUSH1 0x20 SWAP3 DUP4 DUP4 ADD MLOAD SWAP1 DUP3 DUP3 GT PUSH3 0x47C JUMPI PUSH3 0x6E SWAP2 DUP5 ADD PUSH3 0x4A7 JUMP JUMPDEST SWAP1 DUP6 DUP4 ADD MLOAD SWAP3 PUSH1 0xFF DUP5 AND DUP5 SUB PUSH3 0x47C JUMPI PUSH1 0x60 DUP2 ADD MLOAD SWAP4 PUSH3 0x93 PUSH1 0x80 DUP4 ADD PUSH3 0x519 JUMP JUMPDEST SWAP7 PUSH1 0xC0 PUSH3 0xA4 PUSH1 0xA0 DUP6 ADD PUSH3 0x519 JUMP JUMPDEST SWAP4 ADD MLOAD SWAP4 DUP2 MLOAD DUP2 DUP2 GT PUSH3 0x36D JUMPI PUSH1 0x3 SWAP1 DUP2 SLOAD SWAP1 PUSH1 0x1 SWAP5 DUP6 DUP4 DUP2 SHR SWAP4 AND DUP1 ISZERO PUSH3 0x471 JUMPI JUMPDEST DUP13 DUP5 LT EQ PUSH3 0x45B JUMPI DUP2 SWAP1 DUP13 PUSH1 0x1F SWAP5 DUP6 DUP2 GT PUSH3 0x402 JUMPI JUMPDEST POP POP DUP13 SWAP1 DUP5 DUP4 GT PUSH1 0x1 EQ PUSH3 0x38F JUMPI PUSH1 0x0 SWAP3 PUSH3 0x383 JUMPI JUMPDEST POP POP PUSH1 0x0 NOT DUP3 DUP6 SHL SHR NOT AND SWAP1 DUP6 SHL OR DUP3 SSTORE JUMPDEST DUP8 MLOAD SWAP3 DUP4 GT PUSH3 0x36D JUMPI PUSH1 0x4 SWAP8 DUP9 SLOAD DUP6 DUP2 DUP2 SHR SWAP2 AND DUP1 ISZERO PUSH3 0x362 JUMPI JUMPDEST DUP13 DUP3 LT EQ PUSH3 0x34D JUMPI SWAP1 DUP12 DUP3 DUP5 DUP8 SWAP7 SWAP6 SWAP5 GT PUSH3 0x2F0 JUMPI JUMPDEST POP POP DUP12 SWAP2 DUP5 GT PUSH1 0x1 EQ PUSH3 0x285 JUMPI PUSH1 0x0 SWAP4 PUSH3 0x279 JUMPI JUMPDEST POP POP DUP3 DUP5 SHL SWAP3 PUSH1 0x0 NOT SWAP2 SHL SHR NOT AND OR DUP6 SSTORE JUMPDEST PUSH1 0x1 PUSH1 0x1 PUSH1 0xA0 SHL SUB SWAP8 DUP9 AND SWAP8 DUP9 ISZERO PUSH3 0x262 JUMPI PUSH1 0x5 DUP1 SLOAD PUSH1 0x1 PUSH1 0x1 PUSH1 0xA0 SHL SUB NOT DUP2 AND DUP12 OR SWAP1 SWAP2 SSTORE DUP10 SWAP2 AND PUSH32 0x8BE0079C531659141344CD1FD0A4F28419497F9722A3DAAFE3B4186F6B6457E0 PUSH1 0x0 DUP1 LOG3 DUP1 PUSH1 0x6 SSTORE PUSH1 0xFF NOT PUSH1 0x8 SLOAD AND OR PUSH1 0x8 SSTORE PUSH1 0x80 MSTORE PUSH1 0xA0 MSTORE PUSH1 0xC0 MSTORE PUSH1 0x2 SLOAD SWAP1 DUP3 DUP3 ADD DUP1 SWAP3 GT PUSH3 0x24D JUMPI POP PUSH1 0x2 SSTORE PUSH1 0x0 DUP4 DUP2 MSTORE DUP1 DUP4 MSTORE DUP5 DUP2 KECCAK256 DUP1 SLOAD DUP4 ADD SWAP1 SSTORE DUP5 MLOAD SWAP2 DUP3 MSTORE SWAP2 PUSH32 0xDDF252AD1BE2C89B69C2B068FC378DAA952BA7F163C4A11628F55A4DF523B3EF SWAP2 LOG3 MLOAD PUSH2 0xDD2 SWAP1 DUP2 PUSH3 0x52F DUP3 CODECOPY PUSH1 0x80 MLOAD DUP2 PUSH2 0x819 ADD MSTORE PUSH1 0xA0 MLOAD DUP2 DUP2 DUP2 PUSH2 0x258 ADD MSTORE PUSH2 0x5C3 ADD MSTORE PUSH1 0xC0 MLOAD DUP2 PUSH2 0x220 ADD MSTORE RETURN JUMPDEST PUSH1 0x11 SWAP1 PUSH4 0x4E487B71 PUSH1 0xE0 SHL PUSH1 0x0 MSTORE MSTORE PUSH1 0x24 PUSH1 0x0 REVERT JUMPDEST DUP10 MLOAD PUSH4 0x1E4FBDF7 PUSH1 0xE0 SHL DUP2 MSTORE PUSH1 0x0 DUP2 DUP9 ADD MSTORE PUSH1 0x24 SWAP1 REVERT JUMPDEST ADD MLOAD SWAP2 POP CODESIZE DUP1 PUSH3 0x157 JUMP JUMPDEST PUSH1 0x0 DUP11 DUP2 MSTORE DUP13 DUP2 KECCAK256 DUP8 SWAP7 POP SWAP4 SWAP3 SWAP2 SWAP1 PUSH1 0x1F NOT DUP7 AND SWAP1 DUP15 JUMPDEST DUP3 DUP3 LT PUSH3 0x2D8 JUMPI POP POP DUP6 GT PUSH3 0x2BD JUMPI JUMPDEST POP POP POP POP DUP2 SHL ADD DUP6 SSTORE PUSH3 0x169 JUMP JUMPDEST ADD MLOAD SWAP1 PUSH1 0xF8 DUP5 PUSH1 0x0 NOT SWAP3 SHL AND SHR NOT AND SWAP1 SSTORE CODESIZE DUP1 DUP1 DUP1 PUSH3 0x2AE JUMP JUMPDEST DUP4 DUP6 ADD MLOAD DUP8 SSTORE DUP10 SWAP9 SWAP1 SWAP7 ADD SWAP6 SWAP4 DUP5 ADD SWAP4 ADD DUP15 PUSH3 0x29C JUMP JUMPDEST SWAP1 SWAP2 SWAP3 SWAP4 SWAP5 POP DUP11 PUSH1 0x0 MSTORE DUP4 DUP3 PUSH1 0x0 KECCAK256 SWAP2 DUP2 DUP9 ADD PUSH1 0x5 SHR DUP4 ADD SWAP4 DUP9 LT PUSH3 0x343 JUMPI JUMPDEST SWAP2 DUP9 SWAP2 DUP9 SWAP8 SWAP7 SWAP6 SWAP5 SWAP4 ADD PUSH1 0x5 SHR ADD SWAP2 JUMPDEST DUP3 DUP2 LT PUSH3 0x333 JUMPI POP DUP14 SWAP2 POP PUSH3 0x140 JUMP JUMPDEST PUSH1 0x0 DUP2 SSTORE DUP8 SWAP7 POP DUP9 SWAP2 ADD PUSH3 0x321 JUMP JUMPDEST SWAP3 POP DUP2 SWAP3 PUSH3 0x311 JUMP JUMPDEST PUSH1 0x22 DUP11 PUSH4 0x4E487B71 PUSH1 0xE0 SHL PUSH1 0x0 MSTORE MSTORE PUSH1 0x24 PUSH1 0x0 REVERT JUMPDEST SWAP1 PUSH1 0x7F AND SWAP1 PUSH3 0x128 JUMP JUMPDEST PUSH4 0x4E487B71 PUSH1 0xE0 SHL PUSH1 0x0 MSTORE PUSH1 0x41 PUSH1 0x4 MSTORE PUSH1 0x24 PUSH1 0x0 REVERT JUMPDEST ADD MLOAD SWAP1 POP CODESIZE DUP1 PUSH3 0xF9 JUMP JUMPDEST DUP8 SWAP4 POP SWAP1 DUP14 SWAP2 PUSH1 0x1F NOT DUP5 AND DUP8 PUSH1 0x0 MSTORE DUP4 PUSH1 0x0 KECCAK256 SWAP4 PUSH1 0x0 SWAP1 JUMPDEST DUP3 DUP3 LT PUSH3 0x3E0 JUMPI POP POP DUP5 GT PUSH3 0x3C7 JUMPI JUMPDEST POP POP POP DUP2 SHL ADD DUP3 SSTORE PUSH3 0x10B JUMP JUMPDEST ADD MLOAD PUSH1 0x0 NOT DUP4 DUP8 SHL PUSH1 0xF8 AND SHR NOT AND SWAP1 SSTORE CODESIZE DUP1 DUP1 PUSH3 0x3B9 JUMP JUMPDEST SWAP2 SWAP3 SWAP4 SWAP6 SWAP7 DUP3 SWAP2 SWAP6 DUP8 DUP7 ADD MLOAD DUP2 SSTORE ADD SWAP6 ADD SWAP4 ADD SWAP1 DUP16 SWAP2 DUP11 SWAP7 SWAP6 SWAP5 SWAP4 SWAP3 PUSH3 0x3A7 JUMP JUMPDEST SWAP1 SWAP2 SWAP3 POP DUP6 PUSH1 0x0 MSTORE DUP5 DUP3 PUSH1 0x0 KECCAK256 SWAP2 DUP2 DUP7 ADD PUSH1 0x5 SHR DUP4 ADD SWAP4 DUP7 LT PUSH3 0x451 JUMPI JUMPDEST SWAP2 DUP10 SWAP2 DUP7 SWAP6 SWAP5 SWAP4 ADD PUSH1 0x5 SHR ADD SWAP2 JUMPDEST DUP3 DUP2 LT PUSH3 0x441 JUMPI POP DUP15 SWAP2 POP PUSH3 0xE1 JUMP JUMPDEST PUSH1 0x0 DUP2 SSTORE DUP6 SWAP5 POP DUP10 SWAP2 ADD PUSH3 0x42F JUMP JUMPDEST SWAP3 POP DUP2 SWAP3 PUSH3 0x421 JUMP JUMPDEST PUSH4 0x4E487B71 PUSH1 0xE0 SHL PUSH1 0x0 MSTORE PUSH1 0x22 PUSH1 0x4 MSTORE PUSH1 0x24 PUSH1 0x0 REVERT JUMPDEST SWAP3 PUSH1 0x7F AND SWAP3 PUSH3 0xC9 JUMP JUMPDEST PUSH1 0x0 DUP1 REVERT JUMPDEST PUSH1 0x40 MLOAD SWAP2 SWAP1 PUSH1 0x1F ADD PUSH1 0x1F NOT AND DUP3 ADD PUSH1 0x1 PUSH1 0x1 PUSH1 0x40 SHL SUB DUP2 GT DUP4 DUP3 LT OR PUSH3 0x36D JUMPI PUSH1 0x40 MSTORE JUMP JUMPDEST SWAP2 SWAP1 DUP1 PUSH1 0x1F DUP5 ADD SLT ISZERO PUSH3 0x47C JUMPI DUP3 MLOAD PUSH1 0x1 PUSH1 0x1 PUSH1 0x40 SHL SUB DUP2 GT PUSH3 0x36D JUMPI PUSH1 0x20 SWAP1 PUSH3 0x4DD PUSH1 0x1F DUP3 ADD PUSH1 0x1F NOT AND DUP4 ADD PUSH3 0x481 JUMP JUMPDEST SWAP3 DUP2 DUP5 MSTORE DUP3 DUP3 DUP8 ADD ADD GT PUSH3 0x47C JUMPI PUSH1 0x0 JUMPDEST DUP2 DUP2 LT PUSH3 0x505 JUMPI POP DUP3 PUSH1 0x0 SWAP4 SWAP5 SWAP6 POP ADD ADD MSTORE SWAP1 JUMP JUMPDEST DUP6 DUP2 ADD DUP4 ADD MLOAD DUP5 DUP3 ADD DUP5 ADD MSTORE DUP3 ADD PUSH3 0x4EF JUMP JUMPDEST MLOAD SWAP1 PUSH1 0x1 PUSH1 0x1 PUSH1 0xA0 SHL SUB DUP3 AND DUP3 SUB PUSH3 0x47C JUMPI JUMP INVALID PUSH1 0x80 PUSH1 0x40 DUP2 DUP2 MSTORE PUSH1 0x4 DUP1 CALLDATASIZE LT ISZERO PUSH2 0x15 JUMPI PUSH1 0x0 DUP1 REVERT JUMPDEST PUSH1 0x0 SWAP3 DUP4 CALLDATALOAD PUSH1 0xE0 SHR SWAP1 DUP2 PUSH4 0x6FDDE03 EQ PUSH2 0x9E6 JUMPI POP DUP1 PUSH4 0x95EA7B3 EQ PUSH2 0x93D JUMPI DUP1 PUSH4 0x18160DDD EQ PUSH2 0x91E JUMPI DUP1 PUSH4 0x23B872DD EQ PUSH2 0x83D JUMPI DUP1 PUSH4 0x313CE567 EQ PUSH2 0x7FF JUMPI DUP1 PUSH4 0x42966C68 EQ PUSH2 0x760 JUMPI DUP1 PUSH4 0x5DC96D16 EQ PUSH2 0x73C JUMPI DUP1 PUSH4 0x70A08231 EQ PUSH2 0x705 JUMPI DUP1 PUSH4 0x715018A6 EQ PUSH2 0x6A8 JUMPI DUP1 PUSH4 0x79CC6790 EQ PUSH2 0x59B JUMPI DUP1 PUSH4 0x7B2C835F EQ PUSH2 0x539 JUMPI DUP1 PUSH4 0x8DA5CB5B EQ PUSH2 0x510 JUMPI DUP1 PUSH4 0x95D89B41 EQ PUSH2 0x40C JUMPI DUP1 PUSH4 0xA9059CBB EQ PUSH2 0x3DB JUMPI DUP1 PUSH4 0xAD1329D1 EQ PUSH2 0x287 JUMPI DUP1 PUSH4 0xC45A0155 EQ PUSH2 0x243 JUMPI DUP1 PUSH4 0xD7C81B55 EQ PUSH2 0x208 JUMPI DUP1 PUSH4 0xD89135CD EQ PUSH2 0x1E9 JUMPI DUP1 PUSH4 0xDD62ED3E EQ PUSH2 0x191 JUMPI PUSH4 0xF2FDE38B EQ PUSH2 0xFF JUMPI PUSH1 0x0 DUP1 REVERT JUMPDEST CALLVALUE PUSH2 0x18D JUMPI PUSH1 0x20 CALLDATASIZE PUSH1 0x3 NOT ADD SLT PUSH2 0x18D JUMPI PUSH2 0x118 PUSH2 0xB25 JUMP JUMPDEST SWAP1 PUSH2 0x121 PUSH2 0xB75 JUMP JUMPDEST PUSH1 0x1 PUSH1 0x1 PUSH1 0xA0 SHL SUB SWAP2 DUP3 AND SWAP3 DUP4 ISZERO PUSH2 0x177 JUMPI POP POP PUSH1 0x5 SLOAD DUP3 PUSH12 0xFFFFFFFFFFFFFFFFFFFFFFFF PUSH1 0xA0 SHL DUP3 AND OR PUSH1 0x5 SSTORE AND PUSH32 0x8BE0079C531659141344CD1FD0A4F28419497F9722A3DAAFE3B4186F6B6457E0 DUP4 DUP1 LOG3 DUP1 RETURN JUMPDEST MLOAD PUSH4 0x1E4FBDF7 PUSH1 0xE0 SHL DUP2 MSTORE SWAP1 DUP2 ADD DUP5 SWAP1 MSTORE PUSH1 0x24 SWAP1 REVERT JUMPDEST DUP3 DUP1 REVERT JUMPDEST POP POP CALLVALUE PUSH2 0x1E5 JUMPI DUP1 PUSH1 0x3 NOT CALLDATASIZE ADD SLT PUSH2 0x1E5 JUMPI PUSH2 0x1AB PUSH2 0xB25 JUMP JUMPDEST PUSH1 0x1 PUSH1 0x1 PUSH1 0xA0 SHL SUB PUSH1 0x24 CALLDATALOAD DUP2 DUP2 AND SWAP3 SWAP1 DUP4 SWAP1 SUB PUSH2 0x1E1 JUMPI SWAP2 PUSH1 0x20 SWAP5 SWAP2 DUP5 SWAP4 AND DUP3 MSTORE PUSH1 0x1 DUP6 MSTORE DUP3 DUP3 KECCAK256 SWAP1 DUP3 MSTORE DUP5 MSTORE KECCAK256 SLOAD SWAP1 MLOAD SWAP1 DUP2 MSTORE RETURN JUMPDEST DUP5 DUP1 REVERT JUMPDEST POP DUP1 REVERT JUMPDEST POP POP CALLVALUE PUSH2 0x1E5 JUMPI DUP2 PUSH1 0x3 NOT CALLDATASIZE ADD SLT PUSH2 0x1E5 JUMPI PUSH1 0x20 SWAP1 PUSH1 0x7 SLOAD SWAP1 MLOAD SWAP1 DUP2 MSTORE RETURN JUMPDEST POP POP CALLVALUE PUSH2 0x1E5 JUMPI DUP2 PUSH1 0x3 NOT CALLDATASIZE ADD SLT PUSH2 0x1E5 JUMPI PUSH1 0x20 SWAP1 MLOAD PUSH32 0x0 DUP2 MSTORE RETURN JUMPDEST POP POP CALLVALUE PUSH2 0x1E5 JUMPI DUP2 PUSH1 0x3 NOT CALLDATASIZE ADD SLT PUSH2 0x1E5 JUMPI MLOAD PUSH32 0x0 PUSH1 0x1 PUSH1 0x1 PUSH1 0xA0 SHL SUB AND DUP2 MSTORE PUSH1 0x20 SWAP1 RETURN JUMPDEST POP SWAP1 CALLVALUE PUSH2 0x18D JUMPI PUSH2 0x297 CALLDATASIZE PUSH2 0xB40 JUMP JUMPDEST SWAP2 SWAP1 PUSH2 0x2A1 PUSH2 0xB75 JUMP JUMPDEST PUSH1 0x1 PUSH1 0x1 PUSH1 0xA0 SHL SUB SWAP1 DUP2 AND SWAP2 DUP3 ISZERO PUSH2 0x3CB JUMPI DUP7 SWAP4 SWAP3 SWAP2 AND DUP1 PUSH2 0x357 JUMPI POP DUP3 DUP1 SWAP3 DUP2 SWAP3 GAS CALL RETURNDATASIZE ISZERO PUSH2 0x352 JUMPI RETURNDATASIZE PUSH8 0xFFFFFFFFFFFFFFFF DUP2 GT PUSH2 0x33F JUMPI DUP3 MLOAD SWAP1 PUSH2 0x2F2 PUSH1 0x1F DUP3 ADD PUSH1 0x1F NOT AND PUSH1 0x20 ADD DUP4 PUSH2 0xBA1 JUMP JUMPDEST DUP2 MSTORE DUP5 PUSH1 0x20 RETURNDATASIZE SWAP3 ADD RETURNDATACOPY JUMPDEST ISZERO PUSH2 0x306 JUMPI POP POP DUP1 RETURN JUMPDEST SWAP1 PUSH1 0x20 PUSH1 0x64 SWAP3 MLOAD SWAP2 PUSH3 0x461BCD PUSH1 0xE5 SHL DUP4 MSTORE DUP3 ADD MSTORE PUSH1 0x13 PUSH1 0x24 DUP3 ADD MSTORE PUSH19 0x115512081D1C985B9CD9995C8819985A5B1959 PUSH1 0x6A SHL PUSH1 0x44 DUP3 ADD MSTORE REVERT JUMPDEST PUSH4 0x4E487B71 PUSH1 0xE0 SHL DUP6 MSTORE PUSH1 0x41 DUP5 MSTORE PUSH1 0x24 DUP6 REVERT JUMPDEST PUSH2 0x2FC JUMP JUMPDEST SWAP5 PUSH1 0x20 SWAP4 PUSH1 0x44 SWAP3 SWAP4 SWAP7 DUP7 MLOAD SWAP8 DUP9 SWAP6 DUP7 SWAP5 PUSH4 0xA9059CBB PUSH1 0xE0 SHL DUP7 MSTORE DUP6 ADD MSTORE PUSH1 0x24 DUP5 ADD MSTORE GAS CALL SWAP1 DUP2 ISZERO PUSH2 0x3C2 JUMPI POP PUSH2 0x38B JUMPI POP DUP1 RETURN JUMPDEST PUSH1 0x20 DUP2 RETURNDATASIZE DUP3 GT PUSH2 0x3BA JUMPI JUMPDEST DUP2 PUSH2 0x3A3 PUSH1 0x20 SWAP4 DUP4 PUSH2 0xBA1 JUMP JUMPDEST DUP2 ADD SUB SLT PUSH2 0x1E5 JUMPI MLOAD DUP1 ISZERO ISZERO SUB PUSH2 0x3B7 JUMPI DUP1 RETURN JUMPDEST DUP1 REVERT JUMPDEST RETURNDATASIZE SWAP2 POP PUSH2 0x396 JUMP JUMPDEST MLOAD RETURNDATASIZE DUP5 DUP3 RETURNDATACOPY RETURNDATASIZE SWAP1 REVERT JUMPDEST DUP5 MLOAD PUSH4 0x1F2A2005 PUSH1 0xE0 SHL DUP2 MSTORE DUP7 SWAP1 REVERT JUMPDEST POP POP CALLVALUE PUSH2 0x1E5 JUMPI DUP1 PUSH1 0x3 NOT CALLDATASIZE ADD SLT PUSH2 0x1E5 JUMPI PUSH1 0x20 SWAP1 PUSH2 0x405 PUSH2 0x3FB PUSH2 0xB25 JUMP JUMPDEST PUSH1 0x24 CALLDATALOAD SWAP1 CALLER PUSH2 0xBD9 JUMP JUMPDEST MLOAD PUSH1 0x1 DUP2 MSTORE RETURN JUMPDEST POP SWAP2 SWAP1 CALLVALUE PUSH2 0x1E5 JUMPI DUP2 PUSH1 0x3 NOT CALLDATASIZE ADD SLT PUSH2 0x1E5 JUMPI DUP1 MLOAD SWAP2 DUP1 SWAP4 DUP1 SLOAD SWAP2 PUSH1 0x1 SWAP1 DUP4 DUP3 SHR SWAP3 DUP3 DUP6 AND SWAP5 DUP6 ISZERO PUSH2 0x506 JUMPI JUMPDEST PUSH1 0x20 SWAP6 DUP7 DUP7 LT DUP2 EQ PUSH2 0x4F3 JUMPI DUP6 DUP10 MSTORE SWAP1 DUP2 ISZERO PUSH2 0x4CF JUMPI POP PUSH1 0x1 EQ PUSH2 0x477 JUMPI JUMPDEST PUSH2 0x473 DUP8 DUP8 PUSH2 0x469 DUP3 DUP13 SUB DUP4 PUSH2 0xBA1 JUMP JUMPDEST MLOAD SWAP2 DUP3 SWAP2 DUP3 PUSH2 0xADC JUMP JUMPDEST SUB SWAP1 RETURN JUMPDEST DUP2 MSTORE SWAP3 SWAP6 POP PUSH32 0x8A35ACFBC15FF81A39AE7D344FD709F28E8600B4AA8C65C6B64BFE7FE36BD19B JUMPDEST DUP3 DUP5 LT PUSH2 0x4BC JUMPI POP POP POP DUP3 PUSH2 0x473 SWAP5 PUSH2 0x469 SWAP3 DUP3 ADD ADD SWAP5 CODESIZE DUP1 PUSH2 0x458 JUMP JUMPDEST DUP1 SLOAD DUP7 DUP6 ADD DUP9 ADD MSTORE SWAP3 DUP7 ADD SWAP3 DUP2 ADD PUSH2 0x49E JUMP JUMPDEST PUSH1 0xFF NOT AND DUP9 DUP8 ADD MSTORE POP POP POP POP ISZERO ISZERO PUSH1 0x5 SHL DUP4 ADD ADD SWAP3 POP PUSH2 0x469 DUP3 PUSH2 0x473 CODESIZE DUP1 PUSH2 0x458 JUMP JUMPDEST PUSH4 0x4E487B71 PUSH1 0xE0 SHL DUP5 MSTORE PUSH1 0x22 DUP4 MSTORE PUSH1 0x24 DUP5 REVERT JUMPDEST SWAP4 PUSH1 0x7F AND SWAP4 PUSH2 0x439 JUMP JUMPDEST POP POP CALLVALUE PUSH2 0x1E5 JUMPI DUP2 PUSH1 0x3 NOT CALLDATASIZE ADD SLT PUSH2 0x1E5 JUMPI PUSH1 0x5 SLOAD SWAP1 MLOAD PUSH1 0x1 PUSH1 0x1 PUSH1 0xA0 SHL SUB SWAP1 SWAP2 AND DUP2 MSTORE PUSH1 0x20 SWAP1 RETURN JUMPDEST POP CALLVALUE PUSH2 0x18D JUMPI PUSH1 0x20 CALLDATASIZE PUSH1 0x3 NOT ADD SLT PUSH2 0x18D JUMPI CALLDATALOAD SWAP1 DUP2 ISZERO ISZERO DUP1 SWAP3 SUB PUSH2 0x18D JUMPI PUSH32 0x1509137B40DF48E8EF9596F9DB16B632B15353D0E0688D9F23221953EB0328DD SWAP2 PUSH1 0x20 SWAP2 PUSH2 0x584 PUSH2 0xB75 JUMP JUMPDEST PUSH1 0xFF NOT PUSH1 0x8 SLOAD AND PUSH1 0xFF DUP4 AND OR PUSH1 0x8 SSTORE MLOAD SWAP1 DUP2 MSTORE LOG1 DUP1 RETURN JUMPDEST POP SWAP1 CALLVALUE PUSH2 0x18D JUMPI DUP1 PUSH1 0x3 NOT CALLDATASIZE ADD SLT PUSH2 0x18D JUMPI PUSH2 0x5B5 PUSH2 0xB25 JUMP JUMPDEST PUSH1 0x24 CALLDATALOAD SWAP1 PUSH1 0x1 PUSH1 0x1 PUSH1 0xA0 SHL SUB PUSH32 0x0 DUP2 AND CALLER SUB PUSH2 0x698 JUMPI PUSH1 0xFF PUSH1 0x8 SLOAD AND ISZERO PUSH2 0x688 JUMPI PUSH2 0x5FD PUSH2 0xD79 JUMP JUMPDEST DUP3 ISZERO PUSH2 0x678 JUMPI DUP2 AND SWAP4 DUP5 DUP7 MSTORE DUP6 PUSH1 0x20 MSTORE DUP3 DUP5 DUP8 KECCAK256 SLOAD LT PUSH2 0x66A JUMPI POP SWAP1 PUSH2 0x654 DUP2 PUSH32 0xCCBEA4088A3B7AE9CA2D15FAB9A9742A4075B4D7247768A1EECEA917565ABA00 SWAP5 SWAP4 PUSH2 0x64C DUP3 PUSH1 0x7 SLOAD PUSH2 0xCB7 JUMP JUMPDEST PUSH1 0x7 SSTORE PUSH2 0xCDA JUMP JUMPDEST PUSH1 0x7 SLOAD DUP3 MLOAD SWAP2 DUP3 MSTORE PUSH1 0x20 DUP3 ADD MSTORE LOG2 PUSH1 0x1 PUSH1 0x6 SSTORE DUP1 RETURN JUMPDEST DUP4 MLOAD PUSH4 0x1E9ACF17 PUSH1 0xE3 SHL DUP2 MSTORE REVERT JUMPDEST POP POP POP MLOAD PUSH4 0x1F2A2005 PUSH1 0xE0 SHL DUP2 MSTORE REVERT JUMPDEST POP POP POP MLOAD PUSH4 0xBE20705F PUSH1 0xE0 SHL DUP2 MSTORE REVERT JUMPDEST POP POP POP MLOAD PUSH4 0xA9C455DB PUSH1 0xE0 SHL DUP2 MSTORE REVERT JUMPDEST DUP4 CALLVALUE PUSH2 0x3B7 JUMPI DUP1 PUSH1 0x3 NOT CALLDATASIZE ADD SLT PUSH2 0x3B7 JUMPI PUSH2 0x6C1 PUSH2 0xB75 JUMP JUMPDEST PUSH1 0x5 DUP1 SLOAD PUSH1 0x1 PUSH1 0x1 PUSH1 0xA0 SHL SUB NOT DUP2 AND SWAP1 SWAP2 SSTORE DUP2 SWAP1 PUSH1 0x1 PUSH1 0x1 PUSH1 0xA0 SHL SUB AND PUSH32 0x8BE0079C531659141344CD1FD0A4F28419497F9722A3DAAFE3B4186F6B6457E0 DUP3 DUP1 LOG3 DUP1 RETURN JUMPDEST POP POP CALLVALUE PUSH2 0x1E5 JUMPI PUSH1 0x20 CALLDATASIZE PUSH1 0x3 NOT ADD SLT PUSH2 0x1E5 JUMPI PUSH1 0x20 SWAP2 DUP2 SWAP1 PUSH1 0x1 PUSH1 0x1 PUSH1 0xA0 SHL SUB PUSH2 0x72D PUSH2 0xB25 JUMP JUMPDEST AND DUP2 MSTORE DUP1 DUP5 MSTORE KECCAK256 SLOAD SWAP1 MLOAD SWAP1 DUP2 MSTORE RETURN JUMPDEST POP POP CALLVALUE PUSH2 0x1E5 JUMPI DUP2 PUSH1 0x3 NOT CALLDATASIZE ADD SLT PUSH2 0x1E5 JUMPI PUSH1 0x20 SWAP1 PUSH1 0xFF PUSH1 0x8 SLOAD AND SWAP1 MLOAD SWAP1 ISZERO ISZERO DUP2 MSTORE RETURN JUMPDEST POP SWAP1 CALLVALUE PUSH2 0x18D JUMPI PUSH1 0x20 CALLDATASIZE PUSH1 0x3 NOT ADD SLT PUSH2 0x18D JUMPI DUP2 CALLDATALOAD SWAP2 PUSH1 0xFF PUSH1 0x8 SLOAD AND ISZERO PUSH2 0x7F1 JUMPI PUSH2 0x789 PUSH2 0xD79 JUMP JUMPDEST DUP3 ISZERO PUSH2 0x7E3 JUMPI POP PUSH32 0xCCBEA4088A3B7AE9CA2D15FAB9A9742A4075B4D7247768A1EECEA917565ABA00 SWAP1 PUSH2 0x7BE DUP4 PUSH1 0x7 SLOAD PUSH2 0xCB7 JUMP JUMPDEST PUSH1 0x7 SSTORE PUSH2 0x7CB DUP4 CALLER PUSH2 0xCDA JUMP JUMPDEST PUSH1 0x7 SLOAD DUP2 MLOAD SWAP4 DUP5 MSTORE PUSH1 0x20 DUP5 ADD MSTORE CALLER SWAP3 LOG2 PUSH1 0x1 PUSH1 0x6 SSTORE DUP1 RETURN JUMPDEST SWAP1 MLOAD PUSH4 0x1F2A2005 PUSH1 0xE0 SHL DUP2 MSTORE REVERT JUMPDEST SWAP1 MLOAD PUSH4 0xBE20705F PUSH1 0xE0 SHL DUP2 MSTORE REVERT JUMPDEST POP POP CALLVALUE PUSH2 0x1E5 JUMPI DUP2 PUSH1 0x3 NOT CALLDATASIZE ADD SLT PUSH2 0x1E5 JUMPI PUSH1 0x20 SWAP1 MLOAD PUSH1 0xFF PUSH32 0x0 AND DUP2 MSTORE RETURN JUMPDEST POP DUP3 SWAP1 CALLVALUE PUSH2 0x1E5 JUMPI PUSH2 0x84E CALLDATASIZE PUSH2 0xB40 JUMP JUMPDEST PUSH1 0x1 PUSH1 0x1 PUSH1 0xA0 SHL SUB DUP4 AND DUP1 DUP7 MSTORE PUSH1 0x1 PUSH1 0x20 SWAP1 DUP2 MSTORE DUP8 DUP8 KECCAK256 CALLER DUP9 MSTORE SWAP1 MSTORE DUP7 DUP7 KECCAK256 SLOAD SWAP2 SWAP6 SWAP3 SWAP5 PUSH1 0x0 NOT DUP4 LT PUSH2 0x88A JUMPI JUMPDEST PUSH1 0x20 DUP9 PUSH2 0x405 DUP10 DUP10 DUP10 PUSH2 0xBD9 JUMP JUMPDEST DUP7 DUP4 LT PUSH2 0x8F2 JUMPI DUP2 ISZERO PUSH2 0x8DB JUMPI CALLER ISZERO PUSH2 0x8C4 JUMPI POP DUP3 MSTORE PUSH1 0x1 PUSH1 0x20 SWAP1 DUP2 MSTORE DUP7 DUP4 KECCAK256 CALLER DUP5 MSTORE DUP2 MSTORE SWAP2 DUP7 SWAP1 KECCAK256 SWAP1 DUP6 SWAP1 SUB SWAP1 SSTORE DUP3 SWAP1 PUSH2 0x405 DUP8 PUSH2 0x87C JUMP JUMPDEST DUP8 MLOAD PUSH4 0x4A1406B1 PUSH1 0xE1 SHL DUP2 MSTORE SWAP1 DUP2 ADD DUP5 SWAP1 MSTORE PUSH1 0x24 SWAP1 REVERT JUMPDEST DUP8 MLOAD PUSH4 0xE602DF05 PUSH1 0xE0 SHL DUP2 MSTORE SWAP1 DUP2 ADD DUP5 SWAP1 MSTORE PUSH1 0x24 SWAP1 REVERT JUMPDEST DUP8 MLOAD PUSH4 0x7DC7A0D9 PUSH1 0xE1 SHL DUP2 MSTORE CALLER SWAP2 DUP2 ADD SWAP2 DUP3 MSTORE PUSH1 0x20 DUP3 ADD SWAP4 SWAP1 SWAP4 MSTORE PUSH1 0x40 DUP2 ADD DUP8 SWAP1 MSTORE DUP3 SWAP2 POP PUSH1 0x60 ADD SUB SWAP1 REVERT JUMPDEST POP POP CALLVALUE PUSH2 0x1E5 JUMPI DUP2 PUSH1 0x3 NOT CALLDATASIZE ADD SLT PUSH2 0x1E5 JUMPI PUSH1 0x20 SWAP1 PUSH1 0x2 SLOAD SWAP1 MLOAD SWAP1 DUP2 MSTORE RETURN JUMPDEST POP CALLVALUE PUSH2 0x18D JUMPI DUP2 PUSH1 0x3 NOT CALLDATASIZE ADD SLT PUSH2 0x18D JUMPI PUSH2 0x956 PUSH2 0xB25 JUMP JUMPDEST PUSH1 0x24 CALLDATALOAD SWAP1 CALLER ISZERO PUSH2 0x9CF JUMPI PUSH1 0x1 PUSH1 0x1 PUSH1 0xA0 SHL SUB AND SWAP2 DUP3 ISZERO PUSH2 0x9B8 JUMPI POP DUP1 DUP4 PUSH1 0x20 SWAP6 CALLER DUP2 MSTORE PUSH1 0x1 DUP8 MSTORE DUP2 DUP2 KECCAK256 DUP6 DUP3 MSTORE DUP8 MSTORE KECCAK256 SSTORE DUP3 MLOAD SWAP1 DUP2 MSTORE PUSH32 0x8C5BE1E5EBEC7D5BD14F71427D1E84F3DD0314C0F7B2291E5B200AC8C7C3B925 DUP5 CALLER SWAP3 LOG3 MLOAD PUSH1 0x1 DUP2 MSTORE RETURN JUMPDEST DUP4 MLOAD PUSH4 0x4A1406B1 PUSH1 0xE1 SHL DUP2 MSTORE SWAP1 DUP2 ADD DUP6 SWAP1 MSTORE PUSH1 0x24 SWAP1 REVERT JUMPDEST DUP4 MLOAD PUSH4 0xE602DF05 PUSH1 0xE0 SHL DUP2 MSTORE DUP1 DUP5 ADD DUP7 SWAP1 MSTORE PUSH1 0x24 SWAP1 REVERT JUMPDEST SWAP3 SWAP2 SWAP1 POP CALLVALUE PUSH2 0xAD8 JUMPI DUP4 PUSH1 0x3 NOT CALLDATASIZE ADD SLT PUSH2 0xAD8 JUMPI PUSH1 0x3 SLOAD PUSH1 0x1 DUP2 DUP2 SHR SWAP2 DUP7 SWAP1 DUP3 DUP2 AND DUP1 ISZERO PUSH2 0xACE JUMPI JUMPDEST PUSH1 0x20 SWAP6 DUP7 DUP7 LT DUP3 EQ PUSH2 0xABB JUMPI POP DUP5 DUP9 MSTORE SWAP1 DUP2 ISZERO PUSH2 0xA99 JUMPI POP PUSH1 0x1 EQ PUSH2 0xA40 JUMPI JUMPDEST PUSH2 0x473 DUP7 DUP7 PUSH2 0x469 DUP3 DUP12 SUB DUP4 PUSH2 0xBA1 JUMP JUMPDEST SWAP3 SWAP6 POP PUSH1 0x3 DUP4 MSTORE PUSH32 0xC2575A0E9E593C00F959F8C92F12DB2869C3395A3B0502D05E2516446F71F85B JUMPDEST DUP3 DUP5 LT PUSH2 0xA86 JUMPI POP POP POP DUP3 PUSH2 0x473 SWAP5 PUSH2 0x469 SWAP3 DUP3 ADD ADD SWAP5 CODESIZE PUSH2 0xA2F JUMP JUMPDEST DUP1 SLOAD DUP7 DUP6 ADD DUP9 ADD MSTORE SWAP3 DUP7 ADD SWAP3 DUP2 ADD PUSH2 0xA69 JUMP JUMPDEST PUSH1 0xFF NOT AND DUP8 DUP7 ADD MSTORE POP POP POP ISZERO ISZERO PUSH1 0x5 SHL DUP4 ADD ADD SWAP3 POP PUSH2 0x469 DUP3 PUSH2 0x473 CODESIZE PUSH2 0xA2F JUMP JUMPDEST PUSH4 0x4E487B71 PUSH1 0xE0 SHL DUP5 MSTORE PUSH1 0x22 SWAP1 MSTORE PUSH1 0x24 DUP4 REVERT JUMPDEST SWAP4 PUSH1 0x7F AND SWAP4 PUSH2 0xA0F JUMP JUMPDEST DUP4 DUP1 REVERT JUMPDEST PUSH1 0x20 DUP1 DUP3 MSTORE DUP3 MLOAD DUP2 DUP4 ADD DUP2 SWAP1 MSTORE SWAP1 SWAP4 SWAP3 PUSH1 0x0 JUMPDEST DUP3 DUP2 LT PUSH2 0xB11 JUMPI POP POP PUSH1 0x40 SWAP3 SWAP4 POP PUSH1 0x0 DUP4 DUP3 DUP5 ADD ADD MSTORE PUSH1 0x1F DUP1 NOT SWAP2 ADD AND ADD ADD SWAP1 JUMP JUMPDEST DUP2 DUP2 ADD DUP7 ADD MLOAD DUP5 DUP3 ADD PUSH1 0x40 ADD MSTORE DUP6 ADD PUSH2 0xAEF JUMP JUMPDEST PUSH1 0x4 CALLDATALOAD SWAP1 PUSH1 0x1 PUSH1 0x1 PUSH1 0xA0 SHL SUB DUP3 AND DUP3 SUB PUSH2 0xB3B JUMPI JUMP JUMPDEST PUSH1 0x0 DUP1 REVERT JUMPDEST PUSH1 0x60 SWAP1 PUSH1 0x3 NOT ADD SLT PUSH2 0xB3B JUMPI PUSH1 0x1 PUSH1 0x1 PUSH1 0xA0 SHL SUB SWAP1 PUSH1 0x4 CALLDATALOAD DUP3 DUP2 AND DUP2 SUB PUSH2 0xB3B JUMPI SWAP2 PUSH1 0x24 CALLDATALOAD SWAP1 DUP2 AND DUP2 SUB PUSH2 0xB3B JUMPI SWAP1 PUSH1 0x44 CALLDATALOAD SWAP1 JUMP JUMPDEST PUSH1 0x5 SLOAD PUSH1 0x1 PUSH1 0x1 PUSH1 0xA0 SHL SUB AND CALLER SUB PUSH2 0xB89 JUMPI JUMP JUMPDEST PUSH1 0x40 MLOAD PUSH4 0x118CDAA7 PUSH1 0xE0 SHL DUP2 MSTORE CALLER PUSH1 0x4 DUP3 ADD MSTORE PUSH1 0x24 SWAP1 REVERT JUMPDEST SWAP1 PUSH1 0x1F DUP1 NOT SWAP2 ADD AND DUP2 ADD SWAP1 DUP2 LT PUSH8 0xFFFFFFFFFFFFFFFF DUP3 GT OR PUSH2 0xBC3 JUMPI PUSH1 0x40 MSTORE JUMP JUMPDEST PUSH4 0x4E487B71 PUSH1 0xE0 SHL PUSH1 0x0 MSTORE PUSH1 0x41 PUSH1 0x4 MSTORE PUSH1 0x24 PUSH1 0x0 REVERT JUMPDEST SWAP2 PUSH1 0x1 PUSH1 0x1 PUSH1 0xA0 SHL SUB DUP1 DUP5 AND SWAP3 DUP4 ISZERO PUSH2 0xC9E JUMPI AND SWAP3 DUP4 ISZERO PUSH2 0xC85 JUMPI PUSH1 0x0 SWAP1 DUP4 DUP3 MSTORE DUP2 PUSH1 0x20 MSTORE PUSH1 0x40 DUP3 KECCAK256 SLOAD SWAP1 DUP4 DUP3 LT PUSH2 0xC53 JUMPI POP SWAP2 PUSH1 0x40 DUP3 DUP3 PUSH32 0xDDF252AD1BE2C89B69C2B068FC378DAA952BA7F163C4A11628F55A4DF523B3EF SWAP6 DUP8 PUSH1 0x20 SWAP7 MSTORE DUP3 DUP7 MSTORE SUB DUP3 DUP3 KECCAK256 SSTORE DUP7 DUP2 MSTORE KECCAK256 DUP2 DUP2 SLOAD ADD SWAP1 SSTORE PUSH1 0x40 MLOAD SWAP1 DUP2 MSTORE LOG3 JUMP JUMPDEST PUSH1 0x40 MLOAD PUSH4 0x391434E3 PUSH1 0xE2 SHL DUP2 MSTORE PUSH1 0x1 PUSH1 0x1 PUSH1 0xA0 SHL SUB SWAP2 SWAP1 SWAP2 AND PUSH1 0x4 DUP3 ADD MSTORE PUSH1 0x24 DUP2 ADD SWAP2 SWAP1 SWAP2 MSTORE PUSH1 0x44 DUP2 ADD DUP4 SWAP1 MSTORE PUSH1 0x64 SWAP1 REVERT JUMPDEST PUSH1 0x40 MLOAD PUSH4 0xEC442F05 PUSH1 0xE0 SHL DUP2 MSTORE PUSH1 0x0 PUSH1 0x4 DUP3 ADD MSTORE PUSH1 0x24 SWAP1 REVERT JUMPDEST PUSH1 0x40 MLOAD PUSH4 0x4B637E8F PUSH1 0xE1 SHL DUP2 MSTORE PUSH1 0x0 PUSH1 0x4 DUP3 ADD MSTORE PUSH1 0x24 SWAP1 REVERT JUMPDEST SWAP2 SWAP1 DUP3 ADD DUP1 SWAP3 GT PUSH2 0xCC4 JUMPI JUMP JUMPDEST PUSH4 0x4E487B71 PUSH1 0xE0 SHL PUSH1 0x0 MSTORE PUSH1 0x11 PUSH1 0x4 MSTORE PUSH1 0x24 PUSH1 0x0 REVERT JUMPDEST SWAP1 PUSH1 0x1 PUSH1 0x1 PUSH1 0xA0 SHL SUB DUP3 AND SWAP1 DUP2 ISZERO PUSH2 0xC9E JUMPI PUSH1 0x0 SWAP3 DUP3 DUP5 MSTORE DUP4 PUSH1 0x20 MSTORE PUSH1 0x40 DUP5 KECCAK256 SLOAD SWAP1 DUP3 DUP3 LT PUSH2 0xD47 JUMPI POP DUP2 PUSH32 0xDDF252AD1BE2C89B69C2B068FC378DAA952BA7F163C4A11628F55A4DF523B3EF SWAP3 PUSH1 0x20 SWAP3 DUP6 DUP8 MSTORE DUP7 DUP5 MSTORE SUB PUSH1 0x40 DUP7 KECCAK256 SSTORE DUP1 PUSH1 0x2 SLOAD SUB PUSH1 0x2 SSTORE PUSH1 0x40 MLOAD SWAP1 DUP2 MSTORE LOG3 JUMP JUMPDEST PUSH1 0x40 MLOAD PUSH4 0x391434E3 PUSH1 0xE2 SHL DUP2 MSTORE PUSH1 0x1 PUSH1 0x1 PUSH1 0xA0 SHL SUB SWAP2 SWAP1 SWAP2 AND PUSH1 0x4 DUP3 ADD MSTORE PUSH1 0x24 DUP2 ADD SWAP2 SWAP1 SWAP2 MSTORE PUSH1 0x44 DUP2 ADD DUP3 SWAP1 MSTORE PUSH1 0x64 SWAP1 REVERT JUMPDEST PUSH1 0x2 PUSH1 0x6 SLOAD EQ PUSH2 0xD8A JUMPI PUSH1 0x2 PUSH1 0x6 SSTORE JUMP JUMPDEST PUSH1 0x40 MLOAD PUSH4 0x3EE5AEB5 PUSH1 0xE0 SHL DUP2 MSTORE PUSH1 0x4 SWAP1 REVERT INVALID LOG2 PUSH5 0x6970667358 0x22 SLT KECCAK256 SWAP16 SHR NUMBER DUP16 PUSH0 PUSH1 0xEE LOG0 BLOCKHASH ADDMOD LOG1 0xEF DUP7 0xD PUSH8 0x535E4031D553885 0x4A SWAP5 0xAB 0xE0 NOT 0xFB 0xCE 0xB6 0xD8 PUSH5 0x736F6C6343 STOP ADDMOD EQ STOP CALLER "},"methodIdentifiers":{"allowance(address,address)":"dd62ed3e","approve(address,uint256)":"095ea7b3","balanceOf(address)":"70a08231","burn(uint256)":"42966c68","burnEnabled()":"5dc96d16","burnFrom(address,uint256)":"79cc6790","decimals()":"313ce567","emergencyRecover(address,address,uint256)":"ad1329d1","factory()":"c45a0155","gameId()":"d7c81b55","name()":"06fdde03","owner()":"8da5cb5b","renounceOwnership()":"715018a6","setBurnEnabled(bool)":"7b2c835f","symbol()":"95d89b41","totalBurned()":"d89135cd","totalSupply()":"18160ddd","transfer(address,uint256)":"a9059cbb","transferFrom(address,address,uint256)":"23b872dd","transferOwnership(address)":"f2fde38b"}}}}}