{"contracts/GameEcosystem.sol":{"GameEcosystem":{"abi":[{"inputs":[{"internalType":"address","name":"_cridaToken","type":"address"},{"internalType":"address","name":"_xpToken","type":"address"},{"internalType":"string","name":"_uri","type":"string"}],"stateMutability":"nonpayable","type":"constructor"},{"inputs":[],"name":"AccessControlBadConfirmation","type":"error"},{"inputs":[{"internalType":"address","name":"account","type":"address"},{"internalType":"bytes32","name":"neededRole","type":"bytes32"}],"name":"AccessControlUnauthorizedAccount","type":"error"},{"inputs":[{"internalType":"address","name":"sender","type":"address"},{"internalType":"uint256","name":"balance","type":"uint256"},{"internalType":"uint256","name":"needed","type":"uint256"},{"internalType":"uint256","name":"tokenId","type":"uint256"}],"name":"ERC1155InsufficientBalance","type":"error"},{"inputs":[{"internalType":"address","name":"approver","type":"address"}],"name":"ERC1155InvalidApprover","type":"error"},{"inputs":[{"internalType":"uint256","name":"idsLength","type":"uint256"},{"internalType":"uint256","name":"valuesLength","type":"uint256"}],"name":"ERC1155InvalidArrayLength","type":"error"},{"inputs":[{"internalType":"address","name":"operator","type":"address"}],"name":"ERC1155InvalidOperator","type":"error"},{"inputs":[{"internalType":"address","name":"receiver","type":"address"}],"name":"ERC1155InvalidReceiver","type":"error"},{"inputs":[{"internalType":"address","name":"sender","type":"address"}],"name":"ERC1155InvalidSender","type":"error"},{"inputs":[{"internalType":"address","name":"operator","type":"address"},{"internalType":"address","name":"owner","type":"address"}],"name":"ERC1155MissingApprovalForAll","type":"error"},{"inputs":[],"name":"EnforcedPause","type":"error"},{"inputs":[],"name":"ExpectedPause","type":"error"},{"inputs":[],"name":"GameTokenNotActive","type":"error"},{"inputs":[],"name":"InsufficientAmount","type":"error"},{"inputs":[],"name":"InsufficientXpReserves","type":"error"},{"inputs":[],"name":"InvalidDecimals","type":"error"},{"inputs":[],"name":"InvalidGameId","type":"error"},{"inputs":[],"name":"NameTooLong","type":"error"},{"inputs":[],"name":"ReentrancyGuardReentrantCall","type":"error"},{"inputs":[],"name":"SymbolTooLong","type":"error"},{"inputs":[],"name":"TransferFailed","type":"error"},{"inputs":[],"name":"ZeroAmount","type":"error"},{"inputs":[],"name":"ZeroRate","type":"error"},{"anonymous":false,"inputs":[{"indexed":true,"internalType":"address","name":"account","type":"address"},{"indexed":true,"internalType":"address","name":"operator","type":"address"},{"indexed":false,"internalType":"bool","name":"approved","type":"bool"}],"name":"ApprovalForAll","type":"event"},{"anonymous":false,"inputs":[{"indexed":true,"internalType":"address","name":"user","type":"address"},{"indexed":false,"internalType":"uint256","name":"cridaAmount","type":"uint256"},{"indexed":false,"internalType":"uint256","name":"xpMinted","type":"uint256"}],"name":"CridaLocked","type":"event"},{"anonymous":false,"inputs":[{"indexed":true,"internalType":"address","name":"token","type":"address"},{"indexed":true,"internalType":"address","name":"to","type":"address"},{"indexed":false,"internalType":"uint256","name":"amount","type":"uint256"}],"name":"EmergencyWithdraw","type":"event"},{"anonymous":false,"inputs":[{"indexed":true,"internalType":"uint256","name":"gameId","type":"uint256"},{"indexed":true,"internalType":"address","name":"user","type":"address"},{"indexed":false,"internalType":"uint256","name":"burnAmount","type":"uint256"},{"indexed":false,"internalType":"uint256","name":"xpReturned","type":"uint256"}],"name":"GameTokenBurned","type":"event"},{"anonymous":false,"inputs":[{"indexed":true,"internalType":"uint256","name":"gameId","type":"uint256"},{"indexed":true,"internalType":"address","name":"creator","type":"address"},{"indexed":false,"internalType":"string","name":"name","type":"string"},{"indexed":false,"internalType":"string","name":"symbol","type":"string"},{"indexed":false,"internalType":"uint256","name":"xpLocked","type":"uint256"},{"indexed":false,"internalType":"uint256","name":"initialSupply","type":"uint256"}],"name":"GameTokenCreated","type":"event"},{"anonymous":false,"inputs":[{"indexed":false,"internalType":"address","name":"account","type":"address"}],"name":"Paused","type":"event"},{"anonymous":false,"inputs":[{"indexed":false,"internalType":"uint256","name":"oldRate","type":"uint256"},{"indexed":false,"internalType":"uint256","name":"newRate","type":"uint256"}],"name":"RateUpdated","type":"event"},{"anonymous":false,"inputs":[{"indexed":true,"internalType":"bytes32","name":"role","type":"bytes32"},{"indexed":true,"internalType":"bytes32","name":"previousAdminRole","type":"bytes32"},{"indexed":true,"internalType":"bytes32","name":"newAdminRole","type":"bytes32"}],"name":"RoleAdminChanged","type":"event"},{"anonymous":false,"inputs":[{"indexed":true,"internalType":"bytes32","name":"role","type":"bytes32"},{"indexed":true,"internalType":"address","name":"account","type":"address"},{"indexed":true,"internalType":"address","name":"sender","type":"address"}],"name":"RoleGranted","type":"event"},{"anonymous":false,"inputs":[{"indexed":true,"internalType":"bytes32","name":"role","type":"bytes32"},{"indexed":true,"internalType":"address","name":"account","type":"address"},{"indexed":true,"internalType":"address","name":"sender","type":"address"}],"name":"RoleRevoked","type":"event"},{"anonymous":false,"inputs":[{"indexed":true,"internalType":"address","name":"operator","type":"address"},{"indexed":true,"internalType":"address","name":"from","type":"address"},{"indexed":true,"internalType":"address","name":"to","type":"address"},{"indexed":false,"internalType":"uint256[]","name":"ids","type":"uint256[]"},{"indexed":false,"internalType":"uint256[]","name":"values","type":"uint256[]"}],"name":"TransferBatch","type":"event"},{"anonymous":false,"inputs":[{"indexed":true,"internalType":"address","name":"operator","type":"address"},{"indexed":true,"internalType":"address","name":"from","type":"address"},{"indexed":true,"internalType":"address","name":"to","type":"address"},{"indexed":false,"internalType":"uint256","name":"id","type":"uint256"},{"indexed":false,"internalType":"uint256","name":"value","type":"uint256"}],"name":"TransferSingle","type":"event"},{"anonymous":false,"inputs":[{"indexed":false,"internalType":"string","name":"value","type":"string"},{"indexed":true,"internalType":"uint256","name":"id","type":"uint256"}],"name":"URI","type":"event"},{"anonymous":false,"inputs":[{"indexed":false,"internalType":"address","name":"account","type":"address"}],"name":"Unpaused","type":"event"},{"inputs":[],"name":"DEFAULT_ADMIN_ROLE","outputs":[{"internalType":"bytes32","name":"","type":"bytes32"}],"stateMutability":"view","type":"function"},{"inputs":[],"name":"EMERGENCY_ROLE","outputs":[{"internalType":"bytes32","name":"","type":"bytes32"}],"stateMutability":"view","type":"function"},{"inputs":[],"name":"MAX_GAME_TOKEN_DECIMALS","outputs":[{"internalType":"uint256","name":"","type":"uint256"}],"stateMutability":"view","type":"function"},{"inputs":[],"name":"MIN_XP_LOCK_AMOUNT","outputs":[{"internalType":"uint256","name":"","type":"uint256"}],"stateMutability":"view","type":"function"},{"inputs":[],"name":"PAUSER_ROLE","outputs":[{"internalType":"bytes32","name":"","type":"bytes32"}],"stateMutability":"view","type":"function"},{"inputs":[],"name":"PRECISION_FACTOR","outputs":[{"internalType":"uint256","name":"","type":"uint256"}],"stateMutability":"view","type":"function"},{"inputs":[],"name":"RATE_MANAGER_ROLE","outputs":[{"internalType":"bytes32","name":"","type":"bytes32"}],"stateMutability":"view","type":"function"},{"inputs":[{"internalType":"address","name":"account","type":"address"},{"internalType":"uint256","name":"id","type":"uint256"}],"name":"balanceOf","outputs":[{"internalType":"uint256","name":"","type":"uint256"}],"stateMutability":"view","type":"function"},{"inputs":[{"internalType":"address[]","name":"accounts","type":"address[]"},{"internalType":"uint256[]","name":"ids","type":"uint256[]"}],"name":"balanceOfBatch","outputs":[{"internalType":"uint256[]","name":"","type":"uint256[]"}],"stateMutability":"view","type":"function"},{"inputs":[{"internalType":"uint256","name":"gameId","type":"uint256"},{"internalType":"uint256","name":"burnAmount","type":"uint256"}],"name":"burnGameToken","outputs":[],"stateMutability":"nonpayable","type":"function"},{"inputs":[{"internalType":"uint256","name":"cridaAmount","type":"uint256"}],"name":"calculateXpAmount","outputs":[{"internalType":"uint256","name":"","type":"uint256"}],"stateMutability":"view","type":"function"},{"inputs":[{"internalType":"uint256","name":"gameId","type":"uint256"},{"internalType":"uint256","name":"burnAmount","type":"uint256"}],"name":"calculateXpReturn","outputs":[{"internalType":"uint256","name":"","type":"uint256"}],"stateMutability":"view","type":"function"},{"inputs":[{"internalType":"uint256","name":"xpAmount","type":"uint256"},{"internalType":"string","name":"name","type":"string"},{"internalType":"string","name":"symbol","type":"string"},{"internalType":"uint8","name":"decimals","type":"uint8"}],"name":"createGameToken","outputs":[{"internalType":"uint256","name":"gameId","type":"uint256"}],"stateMutability":"nonpayable","type":"function"},{"inputs":[],"name":"cridaToXpRate","outputs":[{"internalType":"uint256","name":"","type":"uint256"}],"stateMutability":"view","type":"function"},{"inputs":[],"name":"cridaToken","outputs":[{"internalType":"contract IERC20","name":"","type":"address"}],"stateMutability":"view","type":"function"},{"inputs":[{"internalType":"address","name":"token","type":"address"},{"internalType":"address","name":"to","type":"address"},{"internalType":"uint256","name":"amount","type":"uint256"}],"name":"emergencyWithdraw","outputs":[],"stateMutability":"nonpayable","type":"function"},{"inputs":[{"internalType":"uint256","name":"","type":"uint256"}],"name":"gameTokens","outputs":[{"internalType":"address","name":"creator","type":"address"},{"internalType":"string","name":"name","type":"string"},{"internalType":"string","name":"symbol","type":"string"},{"internalType":"uint8","name":"decimals","type":"uint8"},{"internalType":"uint256","name":"initialSupply","type":"uint256"},{"internalType":"uint256","name":"xpLocked","type":"uint256"},{"internalType":"uint256","name":"currentSupply","type":"uint256"},{"internalType":"bool","name":"active","type":"bool"}],"stateMutability":"view","type":"function"},{"inputs":[{"internalType":"uint256","name":"gameId","type":"uint256"}],"name":"getGameTokenInfo","outputs":[{"components":[{"internalType":"address","name":"creator","type":"address"},{"internalType":"string","name":"name","type":"string"},{"internalType":"string","name":"symbol","type":"string"},{"internalType":"uint8","name":"decimals","type":"uint8"},{"internalType":"uint256","name":"initialSupply","type":"uint256"},{"internalType":"uint256","name":"xpLocked","type":"uint256"},{"internalType":"uint256","name":"currentSupply","type":"uint256"},{"internalType":"bool","name":"active","type":"bool"}],"internalType":"struct GameEcosystem.GameTokenInfo","name":"","type":"tuple"}],"stateMutability":"view","type":"function"},{"inputs":[{"internalType":"bytes32","name":"role","type":"bytes32"}],"name":"getRoleAdmin","outputs":[{"internalType":"bytes32","name":"","type":"bytes32"}],"stateMutability":"view","type":"function"},{"inputs":[{"internalType":"address","name":"user","type":"address"}],"name":"getUserGameTokens","outputs":[{"internalType":"uint256[]","name":"","type":"uint256[]"}],"stateMutability":"view","type":"function"},{"inputs":[{"internalType":"bytes32","name":"role","type":"bytes32"},{"internalType":"address","name":"account","type":"address"}],"name":"grantRole","outputs":[],"stateMutability":"nonpayable","type":"function"},{"inputs":[{"internalType":"bytes32","name":"role","type":"bytes32"},{"internalType":"address","name":"account","type":"address"}],"name":"hasRole","outputs":[{"internalType":"bool","name":"","type":"bool"}],"stateMutability":"view","type":"function"},{"inputs":[{"internalType":"address","name":"account","type":"address"},{"internalType":"address","name":"operator","type":"address"}],"name":"isApprovedForAll","outputs":[{"internalType":"bool","name":"","type":"bool"}],"stateMutability":"view","type":"function"},{"inputs":[{"internalType":"uint256","name":"amountCrida","type":"uint256"}],"name":"lockCrida","outputs":[],"stateMutability":"nonpayable","type":"function"},{"inputs":[],"name":"nextGameId","outputs":[{"internalType":"uint256","name":"","type":"uint256"}],"stateMutability":"view","type":"function"},{"inputs":[],"name":"pause","outputs":[],"stateMutability":"nonpayable","type":"function"},{"inputs":[],"name":"paused","outputs":[{"internalType":"bool","name":"","type":"bool"}],"stateMutability":"view","type":"function"},{"inputs":[{"internalType":"bytes32","name":"role","type":"bytes32"},{"internalType":"address","name":"callerConfirmation","type":"address"}],"name":"renounceRole","outputs":[],"stateMutability":"nonpayable","type":"function"},{"inputs":[{"internalType":"bytes32","name":"role","type":"bytes32"},{"internalType":"address","name":"account","type":"address"}],"name":"revokeRole","outputs":[],"stateMutability":"nonpayable","type":"function"},{"inputs":[{"internalType":"address","name":"from","type":"address"},{"internalType":"address","name":"to","type":"address"},{"internalType":"uint256[]","name":"ids","type":"uint256[]"},{"internalType":"uint256[]","name":"values","type":"uint256[]"},{"internalType":"bytes","name":"data","type":"bytes"}],"name":"safeBatchTransferFrom","outputs":[],"stateMutability":"nonpayable","type":"function"},{"inputs":[{"internalType":"address","name":"from","type":"address"},{"internalType":"address","name":"to","type":"address"},{"internalType":"uint256","name":"id","type":"uint256"},{"internalType":"uint256","name":"value","type":"uint256"},{"internalType":"bytes","name":"data","type":"bytes"}],"name":"safeTransferFrom","outputs":[],"stateMutability":"nonpayable","type":"function"},{"inputs":[{"internalType":"address","name":"operator","type":"address"},{"internalType":"bool","name":"approved","type":"bool"}],"name":"setApprovalForAll","outputs":[],"stateMutability":"nonpayable","type":"function"},{"inputs":[{"internalType":"uint256","name":"newRate","type":"uint256"}],"name":"setRate","outputs":[],"stateMutability":"nonpayable","type":"function"},{"inputs":[{"internalType":"bytes4","name":"interfaceId","type":"bytes4"}],"name":"supportsInterface","outputs":[{"internalType":"bool","name":"","type":"bool"}],"stateMutability":"view","type":"function"},{"inputs":[],"name":"totalLockedCrida","outputs":[{"internalType":"uint256","name":"","type":"uint256"}],"stateMutability":"view","type":"function"},{"inputs":[],"name":"unpause","outputs":[],"stateMutability":"nonpayable","type":"function"},{"inputs":[{"internalType":"uint256","name":"gameId","type":"uint256"}],"name":"uri","outputs":[{"internalType":"string","name":"","type":"string"}],"stateMutability":"view","type":"function"},{"inputs":[{"internalType":"address","name":"","type":"address"},{"internalType":"uint256","name":"","type":"uint256"}],"name":"userGameTokens","outputs":[{"internalType":"uint256","name":"","type":"uint256"}],"stateMutability":"view","type":"function"},{"inputs":[{"internalType":"address","name":"","type":"address"}],"name":"userLockedCrida","outputs":[{"internalType":"uint256","name":"","type":"uint256"}],"stateMutability":"view","type":"function"},{"inputs":[],"name":"xpReserves","outputs":[{"internalType":"uint256","name":"","type":"uint256"}],"stateMutability":"view","type":"function"},{"inputs":[],"name":"xpToken","outputs":[{"internalType":"contract IERC20","name":"","type":"address"}],"stateMutability":"view","type":"function"}],"evm":{"bytecode":{"linkReferences":{},"object":"60c060405234620002e857620033d4803803806200001d81620002ed565b928339810190606081830312620002e857620000398162000313565b9060206200004981830162000313565b604083015190926001600160401b039190828211620002e8570191601f90868285011215620002e8578351838111620002bd57601f19946200009182850187168401620002ed565b98828a52838383010111620002e857829060005b838110620002d3575050600091890101528651928311620002bd57600254936001948581811c91168015620002b2575b838210146200029c5783811162000250575b5081928411600114620001e55750508192939495600092620001d9575b5050600019600383901b1c191690821b176002555b6005819055670de0b6b3a76400006006556007556001600160a01b0391821680158015620001ce575b620001bc576080521660a052620001593362000328565b506200016533620003a9565b5062000171336200044c565b506200017d33620004ea565b50604051612e2b9081620005898239608051818181610ea6015261109e015260a051818181610d82015281816111320152818161130d01526123c90152f35b604051631f2a200560e01b8152600490fd5b508282161562000142565b01519050388062000104565b839291921696600260005282600020926000905b898210620002385750508385969798106200021e575b505050811b0160025562000119565b015160001960f88460031b161c191690553880806200020f565b808785968294968601518155019501930190620001f9565b6002600052826000208480870160051c82019285881062000292575b0160051c019086905b82811062000285575050620000e7565b6000815501869062000275565b925081926200026c565b634e487b7160e01b600052602260045260246000fd5b90607f1690620000d5565b634e487b7160e01b600052604160045260246000fd5b8181018301518b8201840152849201620000a5565b600080fd5b6040519190601f01601f191682016001600160401b03811183821017620002bd57604052565b51906001600160a01b0382168203620002e857565b6001600160a01b031660008181527f3617319a054d772f909f7c479a2cebe5066e836a939412e32403c99029b92eff602052604081205490919060ff16620003a55781805260036020526040822081835260205260408220600160ff198254161790553391600080516020620033b48339815191528180a4600190565b5090565b6001600160a01b031660008181527fce96a28fb06ca29ce31a17de45a1073cd88b8170e4a67f7f416f721e36bde95c60205260408120549091907f9f29eee2263c2102949fd3febafb3dd6dbbaee114f48a474222b2159942eb2b29060ff16620004475780835260036020526040832082845260205260408320600160ff19825416179055600080516020620033b4833981519152339380a4600190565b505090565b6001600160a01b031660008181527f30adeb818ef77f204f5a603c30fa5332397b6e28fb3b7f9d937ae6a6914716de60205260408120549091907f65d7a28e3265b37a6474929f336521b332c1681b933f6cb9f3376673440d862a9060ff16620004475780835260036020526040832082845260205260408320600160ff19825416179055600080516020620033b4833981519152339380a4600190565b6001600160a01b031660008181527f4a18c22192f7476ec84391fce95952ace1237d522de16c98159f6d46d423ef3660205260408120549091907fbf233dd2aafeb4d50879c4aa5c81e96d92f6e6945c906a58f9f2d1c1631b4b269060ff16620004475780835260036020526040832082845260205260408320600160ff19825416179055600080516020620033b4833981519152339380a460019056fe6080604052600436101561001257600080fd5b60003560e01c8062fdd58e146102a657806301ffc9a7146102a15780630e89341c1461029c57806320df435914610297578063248a9ca3146102925780632eb2c2d61461028d5780632f2ff15d1461028857806334fcf4371461028357806336568abe1461027e5780633b420a73146102795780633f4ba83a146102745780634e1273f41461026f578063546fdad41461026a5780635c975abb146102655780635e79c1dc146102605780635ed6c1db1461025b5780636d8061b8146102565780636d8554e2146102515780636dd9cbd41461024c57806374b334c5146102475780638456cb59146102425780638760550d1461023d57806391d148541461023857806397e05e8614610233578063a217fddf1461022e578063a22cb46514610229578063ae5014b114610224578063b135bbb01461021f578063bf034b691461021a578063c21c64a714610215578063cb327b8b14610210578063cb4cd5561461020b578063ccd34cd514610206578063d547741f14610201578063df525b7d146101fc578063e63ab1e9146101f7578063e63ea408146101f2578063e8321987146101ed578063e985e9c5146101e8578063f242432a146101e35763fd44d274146101de57600080fd5b6119ca565b61187e565b61182d565b61180f565b6116c2565b611687565b61166b565b61162c565b611609565b6115cf565b611594565b61153c565b611492565b61133c565b6112f7565b61123b565b611215565b611014565b610fc2565b610f9e565b610f44565b610f11565b610ef3565b610ed5565b610e90565b610c62565b610b6f565b610ac7565b610a4f565b610995565b6108e6565b6108bd565b610876565b610794565b610755565b61062c565b610491565b610456565b61041f565b61034f565b6102f0565b600435906001600160a01b03821682036102c157565b600080fd5b602435906001600160a01b03821682036102c157565b35906001600160a01b03821682036102c157565b346102c15760403660031901126102c157602061033461030e6102ab565b6024356000526000835260406000209060018060a01b0316600052602052604060002090565b54604051908152f35b6001600160e01b03198116036102c157565b346102c15760203660031901126102c157602060043561036e8161033d565b63ffffffff60e01b16637965db0b60e01b8114908115610394575b506040519015158152f35b636cdb3d1360e11b8114915081156103c6575b81156103b5575b5038610389565b6301ffc9a760e01b149050386103ae565b6303a24d0760e21b811491506103a7565b60005b8381106103ea5750506000910152565b81810151838201526020016103da565b90602091610413815180928185528580860191016103d7565b601f01601f1916010190565b346102c15760203660031901126102c15761045261043e600435612be8565b6040519182916020835260208301906103fa565b0390f35b346102c15760003660031901126102c15760206040517fbf233dd2aafeb4d50879c4aa5c81e96d92f6e6945c906a58f9f2d1c1631b4b268152f35b346102c15760203660031901126102c15760043560005260036020526020600160406000200154604051908152f35b634e487b7160e01b600052604160045260246000fd5b610100810190811067ffffffffffffffff8211176104f357604052565b6104c0565b6020810190811067ffffffffffffffff8211176104f357604052565b90601f8019910116810190811067ffffffffffffffff8211176104f357604052565b60405190610543826104d6565b565b67ffffffffffffffff81116104f35760051b60200190565b81601f820112156102c15780359161057483610545565b926105826040519485610514565b808452602092838086019260051b8201019283116102c1578301905b8282106105ac575050505090565b8135815290830190830161059e565b67ffffffffffffffff81116104f357601f01601f191660200190565b9291926105e3826105bb565b916105f16040519384610514565b8294818452818301116102c1578281602093846000960137010152565b9080601f830112156102c157816020610629933591016105d7565b90565b346102c15760a03660031901126102c1576106456102ab565b61064d6102c6565b906044359167ffffffffffffffff908184116102c1576106726004943690860161055d565b906064358381116102c15761068a903690870161055d565b926084359081116102c1576106a2903690870161060e565b936001600160a01b03808216903382141580610731575b610704578316156106ec57156106d5576106d39550611d39565b005b604051626a0d4560e21b8152600081880152602490fd5b604051632bfa23e760e11b8152600081890152602490fd5b6040805163711bec9160e11b815233818b019081526001600160a01b038616602082015290918291010390fd5b50600082815260016020908152604080832033845290915290205460ff16156106b9565b346102c15760403660031901126102c1576106d36004356107746102c6565b9080600052600360205261078f600160406000200154611ae9565b611b0a565b346102c15760203660031901126102c1573360009081527fce96a28fb06ca29ce31a17de45a1073cd88b8170e4a67f7f416f721e36bde95c6020526040902054600435907f9f29eee2263c2102949fd3febafb3dd6dbbaee114f48a474222b2159942eb2b29060ff1615610858575080156108465760068054908290556040805191825260208201929092527fb38780ddde1f073d91c150de2696f3f7085883648ba21cc5ef01029cb21d19169190a1005b6040516314cee7cd60e11b8152600490fd5b6044906040519063e2517d3f60e01b82523360048301526024820152fd5b346102c15760403660031901126102c15761088f6102c6565b336001600160a01b038216036108ab576106d390600435611ba4565b60405163334bd91960e11b8152600490fd5b346102c15760403660031901126102c15760206108de602435600435612b80565b604051908152f35b346102c15760003660031901126102c1576108ff611a33565b60045460ff81161561093e5760ff19166004557f5db9ee0a495bf2e6ff9c91a7834c1ba4fdd244a5e8aa4e537bd38aeae4b073aa6020604051338152a1005b604051638dfc202b60e01b8152600490fd5b90815180825260208080930193019160005b828110610970575050505090565b835185529381019392810192600101610962565b906020610629928181520190610950565b346102c15760403660031901126102c15760043567ffffffffffffffff8082116102c157366023830112156102c15781600401356109d281610545565b926109e06040519485610514565b81845260209160248386019160051b830101913683116102c157602401905b828210610a3857856024358681116102c15761045291610a26610a2c92369060040161055d565b90611c74565b60405191829182610984565b838091610a44846102dc565b8152019101906109ff565b346102c1576020806003193601126102c1576001600160a01b03610a716102ab565b16600052600b8152604060002090604051908181845491828152019360005281600020916000905b828210610ab05761045285610a2c81890382610514565b835486529485019460019384019390910190610a99565b346102c15760003660031901126102c157602060ff600454166040519015158152f35b610629906020815260018060a01b038351166020820152602083015160e0610b39610b23610100938460408701526101208601906103fa565b6040870151858203601f190160608701526103fa565b606086015160ff16608085015294608081015160a085015260a081015160c085015260c081015182850152015191019015159052565b346102c15760203660031901126102c157610452604060e08151610b92816104d6565b6000918183809352606060208201526060858201528260608201528260808201528260a08201528260c082015201526004358152600a60205220610c56610c4d6007610bdc610536565b84546001600160a01b0316815293610bf660018201611394565b6020860152610c0760028201611394565b6040860152610c27610c1d600383015460ff1690565b60ff166060870152565b60048101546080860152600581015460a0860152600681015460c0860152015460ff1690565b151560e0830152565b60405191829182610aea565b346102c1576040806003193601126102c157600480359060243592610c85612315565b610c8d612333565b8315610e8357610ca783600052600a602052604060002090565b91610cbd610cb9600785015460ff1690565b1590565b610e755783158015610e69575b610e5b5784610cfe33610ce7876000526000602052604060002090565b9060018060a01b0316600052602052604060002090565b5410610e4d57610d1f610d156005850154876122cd565b82850154906122e0565b9283600c5410610e3e57600690610d37878733612953565b01610d43868254612946565b9055610d59610d5484600c54612946565b600c55565b815163a9059cbb60e01b81523382820190815260208181018690529082908190604001038160007f00000000000000000000000000000000000000000000000000000000000000006001600160a01b03165af1908115610e3957600091610e0b575b5015610dfd575051928352602083015233917fefd5d515529a8f76c5944b1d953cde6b2c61c8b81e144c964aeb038714cabca690604090a36106d36001600555565b90516312171d8360e31b8152fd5b610e2c915060203d8111610e32575b610e248183610514565b810190612300565b38610dbb565b503d610e1a565b611feb565b5090516331d2f70960e01b8152fd5b9051632ca2f52b60e11b8152fd5b905163bb97cc9b60e01b8152fd5b50600754841015610cca565b90516307350d3b60e11b8152fd5b51631f2a200560e01b8152fd5b346102c15760003660031901126102c1576040517f00000000000000000000000000000000000000000000000000000000000000006001600160a01b03168152602090f35b346102c15760003660031901126102c1576020600c54604051908152f35b346102c15760003660031901126102c1576020600654604051908152f35b346102c15760203660031901126102c1576020670de0b6b3a7640000610f3b6006546004356122cd565b04604051908152f35b346102c15760003660031901126102c157610f5d611a33565b610f65612315565b600160ff1960045416176004557f62e78cea01bee320cd4e420270b5ea74000d11b0c9f74754ebdbfc544b05a2586020604051338152a1005b346102c15760003660031901126102c1576020604051683635c9adc5dea000008152f35b346102c15760403660031901126102c157602060ff611008610fe26102c6565b6004356000526003845260406000209060018060a01b0316600052602052604060002090565b54166040519015158152f35b346102c1576020806003193601126102c1576004803590611033612315565b61103b612333565b81156112065761105e611050600654846122cd565b670de0b6b3a7640000900490565b604080516323b872dd60e01b815233848201908152306020820152918201859052600095929392916001600160a01b03919083908290819003606001818a7f000000000000000000000000000000000000000000000000000000000000000087165af1908115610e395787916111e9575b50156111d8573360009081526008602052604090206110ef868254611f40565b905561110561110086600954611f40565b600955565b6040805163a9059cbb60e01b8152338582019081526020810187905290928492849283918b9183910103927f0000000000000000000000000000000000000000000000000000000000000000165af1918215610e395786926111bb575b5050156111ac575060408051928352602083019190915233917f728ef7f9f5da04913a2539a83b1d7620e12ed0fb6ca88328bdba350f977cff0f9190a26111a96001600555565b80f35b6040516312171d8360e31b8152fd5b6111d19250803d10610e3257610e248183610514565b3880611162565b6040516312171d8360e31b81528390fd5b6112009150833d8511610e3257610e248183610514565b386110cf565b604051631f2a200560e01b8152fd5b346102c15760003660031901126102c157602060405160008152f35b801515036102c157565b346102c15760403660031901126102c1576112546102ab565b60243561126081611231565b6001600160a01b0382169182156112df578161129e6112af9233600052600160205260406000209060018060a01b0316600052602052604060002090565b9060ff801983541691151516179055565b60405190151581527f17307eab39ab6107e8899845ad3d59bd9653f200f220920489ca2b5937696c3160203392a3005b60405162ced3e160e81b815260006004820152602490fd5b346102c15760003660031901126102c1576040517f00000000000000000000000000000000000000000000000000000000000000006001600160a01b03168152602090f35b346102c15760003660031901126102c1576020600754604051908152f35b90600182811c9216801561138a575b602083101461137457565b634e487b7160e01b600052602260045260246000fd5b91607f1691611369565b90604051918260008254926113a88461135a565b90818452600194858116908160001461141557506001146113d2575b505061054392500383610514565b9093915060005260209081600020936000915b8183106113fd575050610543935082010138806113c4565b855488840185015294850194879450918301916113e5565b91505061054394506020925060ff191682840152151560051b82010138806113c4565b96939897949160e096936114676114759260ff9460018060a01b03168b526101008060208d01528b01906103fa565b9089820360408b01526103fa565b98166060870152608086015260a085015260c08401521515910152565b346102c15760203660031901126102c1576004356000908152600a6020526040902080546001600160a01b03166104526114ce60018401611394565b926114db60028201611394565b9060ff600382015416600482015460058301549160ff60076006860154950154169460405198899889611438565b634e487b7160e01b600052603260045260246000fd5b80548210156115375760005260206000200190600090565b611509565b346102c15760403660031901126102c1576115556102ab565b6001600160a01b03166000908152600b60205260409020805460243591908210156102c1576020916115869161151f565b90546040519160031b1c8152f35b346102c15760003660031901126102c15760206040517f9f29eee2263c2102949fd3febafb3dd6dbbaee114f48a474222b2159942eb2b28152f35b346102c15760203660031901126102c1576001600160a01b036115f06102ab565b1660005260086020526020604060002054604051908152f35b346102c15760003660031901126102c1576020604051670de0b6b3a76400008152f35b346102c15760403660031901126102c1576106d360043561164b6102c6565b90806000526003602052611666600160406000200154611ae9565b611ba4565b346102c15760003660031901126102c157602060405160128152f35b346102c15760003660031901126102c15760206040517f65d7a28e3265b37a6474929f336521b332c1681b933f6cb9f3376673440d862a8152f35b346102c15760603660031901126102c1576116db6102ab565b6116e36102c6565b6044356116ee611a91565b6001600160a01b03828116939084156117fd57169181908361176f5750600080808093875af161171c61200a565b501561175d576117587ff24ef89f38eadc1bde50701ad6e4d6d11a2dc24f7cf834a486991f3883328504915b6040519081529081906020820190565b0390a3005b6040516312171d8360e31b8152600490fd5b60405163a9059cbb60e01b81526001600160a01b0391909116600482015260248101919091526020816044816000875af1908115610e39576000916117df575b501561175d576117587ff24ef89f38eadc1bde50701ad6e4d6d11a2dc24f7cf834a486991f388332850491611748565b6117f7915060203d8111610e3257610e248183610514565b386117af565b604051631f2a200560e01b8152600490fd5b346102c15760003660031901126102c1576020600954604051908152f35b346102c15760403660031901126102c157602060ff61100861184d6102ab565b6118556102c6565b6001600160a01b0391821660009081526001865260408082209290931681526020919091522090565b346102c15760a03660031901126102c1576118976102ab565b61189f6102c6565b60843567ffffffffffffffff81116102c1576118bf90369060040161060e565b906001600160a01b03838116903382141580611978575b611951578216156119385715611920576106d3926119186064356044359160405192600184526020840152604083019160018352606084015260808301604052565b929091611d39565b604051626a0d4560e21b815260006004820152602490fd5b604051632bfa23e760e11b815260006004820152602490fd5b60405163711bec9160e11b81523360048201526001600160a01b0386166024820152604490fd5b50600082815260016020908152604080832033845290915290205460ff16156118d6565b9181601f840112156102c15782359167ffffffffffffffff83116102c157602083818601950101116102c157565b346102c15760803660031901126102c15767ffffffffffffffff6024358181116102c1576119fc90369060040161199c565b916044359081116102c157611a1590369060040161199c565b6064359160ff831683036102c1576104529461174894600435612356565b3360009081527f30adeb818ef77f204f5a603c30fa5332397b6e28fb3b7f9d937ae6a6914716de602052604090207f65d7a28e3265b37a6474929f336521b332c1681b933f6cb9f3376673440d862a9060ff905b5416156108585750565b3360009081527f4a18c22192f7476ec84391fce95952ace1237d522de16c98159f6d46d423ef36602052604090207fbf233dd2aafeb4d50879c4aa5c81e96d92f6e6945c906a58f9f2d1c1631b4b269060ff90611a87565b6000818152600360209081526040808320338452909152902060ff90611a87565b600090808252600360205260ff611b3684604085209060018060a01b0316600052602052604060002090565b5416611b9e578082526003602090815260408084206001600160a01b038616600090815292529020805460ff1916600117905533926001600160a01b0316917f2f8788117e7eff1d82e926ec794901d17c78024a50270940304540a733656f0d9080a4600190565b50905090565b600090808252600360205260ff611bd084604085209060018060a01b0316600052602052604060002090565b541615611b9e578082526003602090815260408084206001600160a01b038616600090815292529020805460ff1916905533926001600160a01b0316917ff6391f5c32d9c69d2a47ea670b442974b53935d1edc7fd64eb21e047a839171b9080a4600190565b634e487b7160e01b600052601160045260246000fd5b6000198114611c5b5760010190565b611c36565b80518210156115375760209160051b010190565b91909180518351808203611d17575050805190611c9082610545565b91611c9e6040519384610514565b808352611cad601f1991610545565b0190602091368385013760005b8151811015611d0f57600581901b8281018401519087018401516000908152602081815260408083206001600160a01b0390941683529290522054611d0a9190611d048287611c60565b52611c4c565b611cba565b509193505050565b604051635b05999160e01b815260048101919091526024810191909152604490fd5b949190918151845190818103611d1757505060005b8251811015611e4a57600581901b83810160209081015191870101516001600160a01b03929186908a8516611dc3575b611d91948216611d96575b505050611c4c565b611d4e565b611db991610ce7611db1926000526000602052604060002090565b918254611f40565b9055388581611d89565b9192939050611de08a610ce7846000526000602052604060002090565b54838110611e135791879184611d9196959403611e0b8d610ce7856000526000602052604060002090565b559450611d7e565b6040516303dee4c560e01b81526001600160a01b038c16600482015260248101919091526044810184905260648101839052608490fd5b509491939290936001855114600014611ef5576020858101518382015160408051928352928201526001600160a01b03838116929086169133917fc3d58168c5ae7397731d063d5bbf3d657854427343f4c083240f7aacaa2d0f6291a45b6001600160a01b038116611ebe575b5050505050565b8451600103611ee457602080611eda9601519201519233612134565b3880808080611eb7565b611ef094919233612280565b611eda565b6040516001600160a01b03828116919085169033907f4a39dc06d4c0dbc64b70af90fd698a233a518aa5d07e595d983b8c0526c8f7fb9080611f38888c83611f4d565b0390a4611ea8565b91908201809211611c5b57565b9091611f6461062993604084526040840190610950565b916020818403910152610950565b908160209103126102c157516106298161033d565b909260a0926106299594600180861b03168352600060208401526040830152606082015281608082015201906103fa565b919261062995949160a094600180871b0380921685521660208401526040830152606082015281608082015201906103fa565b6040513d6000823e3d90fd5b60405190612004826104f8565b60008252565b3d15612035573d9061201b826105bb565b916120296040519384610514565b82523d6000602084013e565b606090565b9293919093843b61204c575050505050565b60209161206f604051948593849363f23a6e6160e01b9889865260048601611f87565b038160006001600160a01b0388165af160009181612104575b506120c7578261209661200a565b80519190826120c057604051632bfa23e760e11b81526001600160a01b0383166004820152602490fd5b9050602001fd5b6001600160e01b031916036120e157503880808080611eb7565b604051632bfa23e760e11b81526001600160a01b03919091166004820152602490fd5b61212691925060203d811161212d575b61211e8183610514565b810190611f72565b9038612088565b503d612114565b939290949194853b612149575b505050505050565b61216c602093604051958694859463f23a6e6160e01b998a875260048701611fb8565b038160006001600160a01b0388165af1600091816121ae575b50612193578261209661200a565b6001600160e01b031916036120e15750388080808080612141565b6121c791925060203d811161212d5761211e8183610514565b9038612185565b926121fd610629959361220b9360018060a01b031686526000602087015260a0604087015260a0860190610950565b908482036060860152610950565b9160808184039101526103fa565b939061062995936121fd9161220b9460018060a01b03809216885216602087015260a0604087015260a0860190610950565b9293919093843b61225d575050505050565b60209161206f604051948593849363bc197c8160e01b98898652600486016121ce565b939290949194853b61229457505050505050565b61216c602093604051958694859463bc197c8160e01b998a875260048701612219565b90600a820291808304600a1490151715611c5b57565b81810292918115918404141715611c5b57565b81156122ea570490565b634e487b7160e01b600052601260045260246000fd5b908160209103126102c1575161062981611231565b60ff6004541661232157565b60405163d93c066560e01b8152600490fd5b600260055414612344576002600555565b604051633ee5aeb560e01b8152600490fd5b949193929093612364612315565b61236c612333565b683635c9adc5dea00000861061257157601260ff84161161255f576032811161254d57600a841161253b576040516323b872dd60e01b81523360048201523060248201526044810187905260208160648160006001600160a01b037f0000000000000000000000000000000000000000000000000000000000000000165af1908115610e395760009161251d575b501561175d576125107f209e4cc824c27fb4d0b3d56450b5cdead204b21bfb8286755c4865b577a8a28f93612434610d5489600c54611f40565b60075497889661244b61244689611c4c565b600755565b6124d561246361105061245d86612583565b856122cd565b9361249d61246f610536565b3381529161247e368a8f6105d7565b602084015261248e36868c6105d7565b604084015260ff166060830152565b8460808201528360a08201528460c08201526124bc60e0820160019052565b6124d08a600052600a602052604060002090565b6126b7565b336000908152600b602052604090206124ef90899061275f565b6125026124fa611ff7565b848a336127f1565b604051958695339a876127ba565b0390a36106296001600555565b612535915060203d8111610e3257610e248183610514565b386123fa565b604051631124f78b60e01b8152600490fd5b60405163680b6caf60e01b8152600490fd5b604051630692acc560e51b8152600490fd5b604051632ca2f52b60e11b8152600490fd5b60ff16604d8111611c5b57600a0a90565b90601f81116125a257505050565b600091825260208220906020601f850160051c830194106125de575b601f0160051c01915b8281106125d357505050565b8181556001016125c7565b90925082906125be565b919091825167ffffffffffffffff81116104f3576126108161260a845461135a565b84612594565b602080601f831160011461264c575081929394600092612641575b50508160011b916000199060031b1c1916179055565b01519050388061262b565b90601f1983169561266285600052602060002090565b926000905b88821061269f57505083600195969710612686575b505050811b019055565b015160001960f88460031b161c1916905538808061267c565b80600185968294968601518155019501930190612667565b815181546001600160a01b0319166001600160a01b039091161781556105439160079061274c9060e0906126f26020820151600187016125e8565b6127036040820151600287016125e8565b612727612714606083015160ff1690565b600387019060ff1660ff19825416179055565b6080810151600486015560a0810151600586015560c081015160068601550151151590565b91019060ff801983541691151516179055565b8054680100000000000000008110156104f3576127819160018201815561151f565b819291549060031b91821b91600019901b1916179055565b908060209392818452848401376000828201840152601f01601f1916010190565b9290936127d96060956127e79499989799608087526080870191612799565b918483036020860152612799565b9460408201520152565b6001600160a01b038116939290919084156119385761282d60405192600184526020840152604083019160018352606084015260808301604052565b928151845190818103611d1757505060005b8251811015612884578061287f9160051b612878611db187610ce7602080868b010151958c010151946000526000602052604060002090565b9055611c4c565b61283f565b5092919360018251146000146128fb5760208281015184820151604080519283529282015260009133917fc3d58168c5ae7397731d063d5bbf3d657854427343f4c083240f7aacaa2d0f629190a45b80516001036128f1579060208061054395930151910151913361203a565b610543933361224b565b60006040517f4a39dc06d4c0dbc64b70af90fd698a233a518aa5d07e595d983b8c0526c8f7fb33918061292f888883611f4d565b0390a46128d3565b600019810191908211611c5b57565b91908203918211611c5b57565b6001600160a01b0381169290919083156119205761298e60405192600184526020840152604083019160018352606084015260808301604052565b9190604094600086516129a0816104f8565b528151845190818103612ad457505060005b8251811015612a4d578060051b602080828601015191870101516129e486610ce7846000526000602052604060002090565b54818110612a175786610ce7612a12959493612a0c9303936000526000602052604060002090565b55611c4c565b6129b2565b89516303dee4c560e01b81526001600160a01b038816600482015260248101919091526044810182905260648101839052608490fd5b50949060009493925060018151148514612aa25760209081015192810151915192835282015233907fc3d58168c5ae7397731d063d5bbf3d657854427343f4c083240f7aacaa2d0f629080604081015b0390a4565b905133927f4a39dc06d4c0dbc64b70af90fd698a233a518aa5d07e595d983b8c0526c8f7fb928291612a9d9183611f4d565b8751635b05999160e01b815260048101919091526024810191909152604490fd5b90610543612b776007612b06610536565b85546001600160a01b0316815294612b2060018201611394565b6020870152612b3160028201611394565b6040870152612b51612b47600383015460ff1690565b60ff166060880152565b60048101546080870152600581015460a0870152600681015460c0870152015460ff1690565b151560e0840152565b600052600a602052604060002060ff600782015416158015612bc5575b612bbe576004612bb5610629936005840154906122cd565b910154906122e0565b5050600090565b50600481015415612b9d565b90612be4602092828151948592016103d7565b0190565b80158015612ce4575b612cdb57612c0c612c1191600052600a602052604060002090565b612af5565b612c21610cb960e0830151151590565b612cdb5761062981612ccd612cc06020612c8f95015192612c89612ca7612c62612c5d612c576060604087015196015160ff1690565b60ff1690565b612d12565b92612c89604051998a98612c8960208b01600990683d913730b6b2911d1160b91b81520190565b90612bd1565b6b11161139bcb6b137b6111d1160a11b8152600c0190565b6c1116113232b1b4b6b0b639911d60991b8152600d0190565b607d60f81b815260010190565b03601f198101835282610514565b50610629611ff7565b50600754811015612bf1565b60ff166030019060ff8211611c5b57565b908151811015611537570160200190565b8015612dc6578060008281935b612db2575081612d2e846105bb565b93612d3c6040519586610514565b808552601f19612d4b826105bb565b01366020870137905b612d5e5750505090565b612d6790612937565b9182612daa612da1612d91612d8c612c57600a870496612d86886122b7565b90612946565b612cf0565b60f81b6001600160f81b03191690565b841a9186612d01565b539182612d54565b92612dbe600a91611c4c565b930480612d1f565b506040516040810181811067ffffffffffffffff8211176104f35760405260018152600360fc1b60208201529056fea264697066735822122013e382b7353f13894daae4d39b99f298b4de4c6cbdf79dc82417526b424271f764736f6c634300081400332f8788117e7eff1d82e926ec794901d17c78024a50270940304540a733656f0d","opcodes":"PUSH1 0xC0 PUSH1 0x40 MSTORE CALLVALUE PUSH3 0x2E8 JUMPI PUSH3 0x33D4 DUP1 CODESIZE SUB DUP1 PUSH3 0x1D DUP2 PUSH3 0x2ED JUMP JUMPDEST SWAP3 DUP4 CODECOPY DUP2 ADD SWAP1 PUSH1 0x60 DUP2 DUP4 SUB SLT PUSH3 0x2E8 JUMPI PUSH3 0x39 DUP2 PUSH3 0x313 JUMP JUMPDEST SWAP1 PUSH1 0x20 PUSH3 0x49 DUP2 DUP4 ADD PUSH3 0x313 JUMP JUMPDEST PUSH1 0x40 DUP4 ADD MLOAD SWAP1 SWAP3 PUSH1 0x1 PUSH1 0x1 PUSH1 0x40 SHL SUB SWAP2 SWAP1 DUP3 DUP3 GT PUSH3 0x2E8 JUMPI ADD SWAP2 PUSH1 0x1F SWAP1 DUP7 DUP3 DUP6 ADD SLT ISZERO PUSH3 0x2E8 JUMPI DUP4 MLOAD DUP4 DUP2 GT PUSH3 0x2BD JUMPI PUSH1 0x1F NOT SWAP5 PUSH3 0x91 DUP3 DUP6 ADD DUP8 AND DUP5 ADD PUSH3 0x2ED JUMP JUMPDEST SWAP9 DUP3 DUP11 MSTORE DUP4 DUP4 DUP4 ADD ADD GT PUSH3 0x2E8 JUMPI DUP3 SWAP1 PUSH1 0x0 JUMPDEST DUP4 DUP2 LT PUSH3 0x2D3 JUMPI POP POP PUSH1 0x0 SWAP2 DUP10 ADD ADD MSTORE DUP7 MLOAD SWAP3 DUP4 GT PUSH3 0x2BD JUMPI PUSH1 0x2 SLOAD SWAP4 PUSH1 0x1 SWAP5 DUP6 DUP2 DUP2 SHR SWAP2 AND DUP1 ISZERO PUSH3 0x2B2 JUMPI JUMPDEST DUP4 DUP3 LT EQ PUSH3 0x29C JUMPI DUP4 DUP2 GT PUSH3 0x250 JUMPI JUMPDEST POP DUP2 SWAP3 DUP5 GT PUSH1 0x1 EQ PUSH3 0x1E5 JUMPI POP POP DUP2 SWAP3 SWAP4 SWAP5 SWAP6 PUSH1 0x0 SWAP3 PUSH3 0x1D9 JUMPI JUMPDEST POP POP PUSH1 0x0 NOT PUSH1 0x3 DUP4 SWAP1 SHL SHR NOT AND SWAP1 DUP3 SHL OR PUSH1 0x2 SSTORE JUMPDEST PUSH1 0x5 DUP2 SWAP1 SSTORE PUSH8 0xDE0B6B3A7640000 PUSH1 0x6 SSTORE PUSH1 0x7 SSTORE PUSH1 0x1 PUSH1 0x1 PUSH1 0xA0 SHL SUB SWAP2 DUP3 AND DUP1 ISZERO DUP1 ISZERO PUSH3 0x1CE JUMPI JUMPDEST PUSH3 0x1BC JUMPI PUSH1 0x80 MSTORE AND PUSH1 0xA0 MSTORE PUSH3 0x159 CALLER PUSH3 0x328 JUMP JUMPDEST POP PUSH3 0x165 CALLER PUSH3 0x3A9 JUMP JUMPDEST POP PUSH3 0x171 CALLER PUSH3 0x44C JUMP JUMPDEST POP PUSH3 0x17D CALLER PUSH3 0x4EA JUMP JUMPDEST POP PUSH1 0x40 MLOAD PUSH2 0x2E2B SWAP1 DUP2 PUSH3 0x589 DUP3 CODECOPY PUSH1 0x80 MLOAD DUP2 DUP2 DUP2 PUSH2 0xEA6 ADD MSTORE PUSH2 0x109E ADD MSTORE PUSH1 0xA0 MLOAD DUP2 DUP2 DUP2 PUSH2 0xD82 ADD MSTORE DUP2 DUP2 PUSH2 0x1132 ADD MSTORE DUP2 DUP2 PUSH2 0x130D ADD MSTORE PUSH2 0x23C9 ADD MSTORE RETURN JUMPDEST PUSH1 0x40 MLOAD PUSH4 0x1F2A2005 PUSH1 0xE0 SHL DUP2 MSTORE PUSH1 0x4 SWAP1 REVERT JUMPDEST POP DUP3 DUP3 AND ISZERO PUSH3 0x142 JUMP JUMPDEST ADD MLOAD SWAP1 POP CODESIZE DUP1 PUSH3 0x104 JUMP JUMPDEST DUP4 SWAP3 SWAP2 SWAP3 AND SWAP7 PUSH1 0x2 PUSH1 0x0 MSTORE DUP3 PUSH1 0x0 KECCAK256 SWAP3 PUSH1 0x0 SWAP1 JUMPDEST DUP10 DUP3 LT PUSH3 0x238 JUMPI POP POP DUP4 DUP6 SWAP7 SWAP8 SWAP9 LT PUSH3 0x21E JUMPI JUMPDEST POP POP POP DUP2 SHL ADD PUSH1 0x2 SSTORE PUSH3 0x119 JUMP JUMPDEST ADD MLOAD PUSH1 0x0 NOT PUSH1 0xF8 DUP5 PUSH1 0x3 SHL AND SHR NOT AND SWAP1 SSTORE CODESIZE DUP1 DUP1 PUSH3 0x20F JUMP JUMPDEST DUP1 DUP8 DUP6 SWAP7 DUP3 SWAP5 SWAP7 DUP7 ADD MLOAD DUP2 SSTORE ADD SWAP6 ADD SWAP4 ADD SWAP1 PUSH3 0x1F9 JUMP JUMPDEST PUSH1 0x2 PUSH1 0x0 MSTORE DUP3 PUSH1 0x0 KECCAK256 DUP5 DUP1 DUP8 ADD PUSH1 0x5 SHR DUP3 ADD SWAP3 DUP6 DUP9 LT PUSH3 0x292 JUMPI JUMPDEST ADD PUSH1 0x5 SHR ADD SWAP1 DUP7 SWAP1 JUMPDEST DUP3 DUP2 LT PUSH3 0x285 JUMPI POP POP PUSH3 0xE7 JUMP JUMPDEST PUSH1 0x0 DUP2 SSTORE ADD DUP7 SWAP1 PUSH3 0x275 JUMP JUMPDEST SWAP3 POP DUP2 SWAP3 PUSH3 0x26C JUMP JUMPDEST PUSH4 0x4E487B71 PUSH1 0xE0 SHL PUSH1 0x0 MSTORE PUSH1 0x22 PUSH1 0x4 MSTORE PUSH1 0x24 PUSH1 0x0 REVERT JUMPDEST SWAP1 PUSH1 0x7F AND SWAP1 PUSH3 0xD5 JUMP JUMPDEST PUSH4 0x4E487B71 PUSH1 0xE0 SHL PUSH1 0x0 MSTORE PUSH1 0x41 PUSH1 0x4 MSTORE PUSH1 0x24 PUSH1 0x0 REVERT JUMPDEST DUP2 DUP2 ADD DUP4 ADD MLOAD DUP12 DUP3 ADD DUP5 ADD MSTORE DUP5 SWAP3 ADD PUSH3 0xA5 JUMP JUMPDEST PUSH1 0x0 DUP1 REVERT JUMPDEST PUSH1 0x40 MLOAD SWAP2 SWAP1 PUSH1 0x1F ADD PUSH1 0x1F NOT AND DUP3 ADD PUSH1 0x1 PUSH1 0x1 PUSH1 0x40 SHL SUB DUP2 GT DUP4 DUP3 LT OR PUSH3 0x2BD JUMPI PUSH1 0x40 MSTORE JUMP JUMPDEST MLOAD SWAP1 PUSH1 0x1 PUSH1 0x1 PUSH1 0xA0 SHL SUB DUP3 AND DUP3 SUB PUSH3 0x2E8 JUMPI JUMP JUMPDEST PUSH1 0x1 PUSH1 0x1 PUSH1 0xA0 SHL SUB AND PUSH1 0x0 DUP2 DUP2 MSTORE PUSH32 0x3617319A054D772F909F7C479A2CEBE5066E836A939412E32403C99029B92EFF PUSH1 0x20 MSTORE PUSH1 0x40 DUP2 KECCAK256 SLOAD SWAP1 SWAP2 SWAP1 PUSH1 0xFF AND PUSH3 0x3A5 JUMPI DUP2 DUP1 MSTORE PUSH1 0x3 PUSH1 0x20 MSTORE PUSH1 0x40 DUP3 KECCAK256 DUP2 DUP4 MSTORE PUSH1 0x20 MSTORE PUSH1 0x40 DUP3 KECCAK256 PUSH1 0x1 PUSH1 0xFF NOT DUP3 SLOAD AND OR SWAP1 SSTORE CALLER SWAP2 PUSH1 0x0 DUP1 MLOAD PUSH1 0x20 PUSH3 0x33B4 DUP4 CODECOPY DUP2 MLOAD SWAP2 MSTORE DUP2 DUP1 LOG4 PUSH1 0x1 SWAP1 JUMP JUMPDEST POP SWAP1 JUMP JUMPDEST PUSH1 0x1 PUSH1 0x1 PUSH1 0xA0 SHL SUB AND PUSH1 0x0 DUP2 DUP2 MSTORE PUSH32 0xCE96A28FB06CA29CE31A17DE45A1073CD88B8170E4A67F7F416F721E36BDE95C PUSH1 0x20 MSTORE PUSH1 0x40 DUP2 KECCAK256 SLOAD SWAP1 SWAP2 SWAP1 PUSH32 0x9F29EEE2263C2102949FD3FEBAFB3DD6DBBAEE114F48A474222B2159942EB2B2 SWAP1 PUSH1 0xFF AND PUSH3 0x447 JUMPI DUP1 DUP4 MSTORE PUSH1 0x3 PUSH1 0x20 MSTORE PUSH1 0x40 DUP4 KECCAK256 DUP3 DUP5 MSTORE PUSH1 0x20 MSTORE PUSH1 0x40 DUP4 KECCAK256 PUSH1 0x1 PUSH1 0xFF NOT DUP3 SLOAD AND OR SWAP1 SSTORE PUSH1 0x0 DUP1 MLOAD PUSH1 0x20 PUSH3 0x33B4 DUP4 CODECOPY DUP2 MLOAD SWAP2 MSTORE CALLER SWAP4 DUP1 LOG4 PUSH1 0x1 SWAP1 JUMP JUMPDEST POP POP SWAP1 JUMP JUMPDEST PUSH1 0x1 PUSH1 0x1 PUSH1 0xA0 SHL SUB AND PUSH1 0x0 DUP2 DUP2 MSTORE PUSH32 0x30ADEB818EF77F204F5A603C30FA5332397B6E28FB3B7F9D937AE6A6914716DE PUSH1 0x20 MSTORE PUSH1 0x40 DUP2 KECCAK256 SLOAD SWAP1 SWAP2 SWAP1 PUSH32 0x65D7A28E3265B37A6474929F336521B332C1681B933F6CB9F3376673440D862A SWAP1 PUSH1 0xFF AND PUSH3 0x447 JUMPI DUP1 DUP4 MSTORE PUSH1 0x3 PUSH1 0x20 MSTORE PUSH1 0x40 DUP4 KECCAK256 DUP3 DUP5 MSTORE PUSH1 0x20 MSTORE PUSH1 0x40 DUP4 KECCAK256 PUSH1 0x1 PUSH1 0xFF NOT DUP3 SLOAD AND OR SWAP1 SSTORE PUSH1 0x0 DUP1 MLOAD PUSH1 0x20 PUSH3 0x33B4 DUP4 CODECOPY DUP2 MLOAD SWAP2 MSTORE CALLER SWAP4 DUP1 LOG4 PUSH1 0x1 SWAP1 JUMP JUMPDEST PUSH1 0x1 PUSH1 0x1 PUSH1 0xA0 SHL SUB AND PUSH1 0x0 DUP2 DUP2 MSTORE PUSH32 0x4A18C22192F7476EC84391FCE95952ACE1237D522DE16C98159F6D46D423EF36 PUSH1 0x20 MSTORE PUSH1 0x40 DUP2 KECCAK256 SLOAD SWAP1 SWAP2 SWAP1 PUSH32 0xBF233DD2AAFEB4D50879C4AA5C81E96D92F6E6945C906A58F9F2D1C1631B4B26 SWAP1 PUSH1 0xFF AND PUSH3 0x447 JUMPI DUP1 DUP4 MSTORE PUSH1 0x3 PUSH1 0x20 MSTORE PUSH1 0x40 DUP4 KECCAK256 DUP3 DUP5 MSTORE PUSH1 0x20 MSTORE PUSH1 0x40 DUP4 KECCAK256 PUSH1 0x1 PUSH1 0xFF NOT DUP3 SLOAD AND OR SWAP1 SSTORE PUSH1 0x0 DUP1 MLOAD PUSH1 0x20 PUSH3 0x33B4 DUP4 CODECOPY DUP2 MLOAD SWAP2 MSTORE CALLER SWAP4 DUP1 LOG4 PUSH1 0x1 SWAP1 JUMP INVALID PUSH1 0x80 PUSH1 0x40 MSTORE PUSH1 0x4 CALLDATASIZE LT ISZERO PUSH2 0x12 JUMPI PUSH1 0x0 DUP1 REVERT JUMPDEST PUSH1 0x0 CALLDATALOAD PUSH1 0xE0 SHR DUP1 PUSH3 0xFDD58E EQ PUSH2 0x2A6 JUMPI DUP1 PUSH4 0x1FFC9A7 EQ PUSH2 0x2A1 JUMPI DUP1 PUSH4 0xE89341C EQ PUSH2 0x29C JUMPI DUP1 PUSH4 0x20DF4359 EQ PUSH2 0x297 JUMPI DUP1 PUSH4 0x248A9CA3 EQ PUSH2 0x292 JUMPI DUP1 PUSH4 0x2EB2C2D6 EQ PUSH2 0x28D JUMPI DUP1 PUSH4 0x2F2FF15D EQ PUSH2 0x288 JUMPI DUP1 PUSH4 0x34FCF437 EQ PUSH2 0x283 JUMPI DUP1 PUSH4 0x36568ABE EQ PUSH2 0x27E JUMPI DUP1 PUSH4 0x3B420A73 EQ PUSH2 0x279 JUMPI DUP1 PUSH4 0x3F4BA83A EQ PUSH2 0x274 JUMPI DUP1 PUSH4 0x4E1273F4 EQ PUSH2 0x26F JUMPI DUP1 PUSH4 0x546FDAD4 EQ PUSH2 0x26A JUMPI DUP1 PUSH4 0x5C975ABB EQ PUSH2 0x265 JUMPI DUP1 PUSH4 0x5E79C1DC EQ PUSH2 0x260 JUMPI DUP1 PUSH4 0x5ED6C1DB EQ PUSH2 0x25B JUMPI DUP1 PUSH4 0x6D8061B8 EQ PUSH2 0x256 JUMPI DUP1 PUSH4 0x6D8554E2 EQ PUSH2 0x251 JUMPI DUP1 PUSH4 0x6DD9CBD4 EQ PUSH2 0x24C JUMPI DUP1 PUSH4 0x74B334C5 EQ PUSH2 0x247 JUMPI DUP1 PUSH4 0x8456CB59 EQ PUSH2 0x242 JUMPI DUP1 PUSH4 0x8760550D EQ PUSH2 0x23D JUMPI DUP1 PUSH4 0x91D14854 EQ PUSH2 0x238 JUMPI DUP1 PUSH4 0x97E05E86 EQ PUSH2 0x233 JUMPI DUP1 PUSH4 0xA217FDDF EQ PUSH2 0x22E JUMPI DUP1 PUSH4 0xA22CB465 EQ PUSH2 0x229 JUMPI DUP1 PUSH4 0xAE5014B1 EQ PUSH2 0x224 JUMPI DUP1 PUSH4 0xB135BBB0 EQ PUSH2 0x21F JUMPI DUP1 PUSH4 0xBF034B69 EQ PUSH2 0x21A JUMPI DUP1 PUSH4 0xC21C64A7 EQ PUSH2 0x215 JUMPI DUP1 PUSH4 0xCB327B8B EQ PUSH2 0x210 JUMPI DUP1 PUSH4 0xCB4CD556 EQ PUSH2 0x20B JUMPI DUP1 PUSH4 0xCCD34CD5 EQ PUSH2 0x206 JUMPI DUP1 PUSH4 0xD547741F EQ PUSH2 0x201 JUMPI DUP1 PUSH4 0xDF525B7D EQ PUSH2 0x1FC JUMPI DUP1 PUSH4 0xE63AB1E9 EQ PUSH2 0x1F7 JUMPI DUP1 PUSH4 0xE63EA408 EQ PUSH2 0x1F2 JUMPI DUP1 PUSH4 0xE8321987 EQ PUSH2 0x1ED JUMPI DUP1 PUSH4 0xE985E9C5 EQ PUSH2 0x1E8 JUMPI DUP1 PUSH4 0xF242432A EQ PUSH2 0x1E3 JUMPI PUSH4 0xFD44D274 EQ PUSH2 0x1DE JUMPI PUSH1 0x0 DUP1 REVERT JUMPDEST PUSH2 0x19CA JUMP JUMPDEST PUSH2 0x187E JUMP JUMPDEST PUSH2 0x182D JUMP JUMPDEST PUSH2 0x180F JUMP JUMPDEST PUSH2 0x16C2 JUMP JUMPDEST PUSH2 0x1687 JUMP JUMPDEST PUSH2 0x166B JUMP JUMPDEST PUSH2 0x162C JUMP JUMPDEST PUSH2 0x1609 JUMP JUMPDEST PUSH2 0x15CF JUMP JUMPDEST PUSH2 0x1594 JUMP JUMPDEST PUSH2 0x153C JUMP JUMPDEST PUSH2 0x1492 JUMP JUMPDEST PUSH2 0x133C JUMP JUMPDEST PUSH2 0x12F7 JUMP JUMPDEST PUSH2 0x123B JUMP JUMPDEST PUSH2 0x1215 JUMP JUMPDEST PUSH2 0x1014 JUMP JUMPDEST PUSH2 0xFC2 JUMP JUMPDEST PUSH2 0xF9E JUMP JUMPDEST PUSH2 0xF44 JUMP JUMPDEST PUSH2 0xF11 JUMP JUMPDEST PUSH2 0xEF3 JUMP JUMPDEST PUSH2 0xED5 JUMP JUMPDEST PUSH2 0xE90 JUMP JUMPDEST PUSH2 0xC62 JUMP JUMPDEST PUSH2 0xB6F JUMP JUMPDEST PUSH2 0xAC7 JUMP JUMPDEST PUSH2 0xA4F JUMP JUMPDEST PUSH2 0x995 JUMP JUMPDEST PUSH2 0x8E6 JUMP JUMPDEST PUSH2 0x8BD JUMP JUMPDEST PUSH2 0x876 JUMP JUMPDEST PUSH2 0x794 JUMP JUMPDEST PUSH2 0x755 JUMP JUMPDEST PUSH2 0x62C JUMP JUMPDEST PUSH2 0x491 JUMP JUMPDEST PUSH2 0x456 JUMP JUMPDEST PUSH2 0x41F JUMP JUMPDEST PUSH2 0x34F JUMP JUMPDEST PUSH2 0x2F0 JUMP JUMPDEST PUSH1 0x4 CALLDATALOAD SWAP1 PUSH1 0x1 PUSH1 0x1 PUSH1 0xA0 SHL SUB DUP3 AND DUP3 SUB PUSH2 0x2C1 JUMPI JUMP JUMPDEST PUSH1 0x0 DUP1 REVERT JUMPDEST PUSH1 0x24 CALLDATALOAD SWAP1 PUSH1 0x1 PUSH1 0x1 PUSH1 0xA0 SHL SUB DUP3 AND DUP3 SUB PUSH2 0x2C1 JUMPI JUMP JUMPDEST CALLDATALOAD SWAP1 PUSH1 0x1 PUSH1 0x1 PUSH1 0xA0 SHL SUB DUP3 AND DUP3 SUB PUSH2 0x2C1 JUMPI JUMP JUMPDEST CALLVALUE PUSH2 0x2C1 JUMPI PUSH1 0x40 CALLDATASIZE PUSH1 0x3 NOT ADD SLT PUSH2 0x2C1 JUMPI PUSH1 0x20 PUSH2 0x334 PUSH2 0x30E PUSH2 0x2AB JUMP JUMPDEST PUSH1 0x24 CALLDATALOAD PUSH1 0x0 MSTORE PUSH1 0x0 DUP4 MSTORE PUSH1 0x40 PUSH1 0x0 KECCAK256 SWAP1 PUSH1 0x1 DUP1 PUSH1 0xA0 SHL SUB AND PUSH1 0x0 MSTORE PUSH1 0x20 MSTORE PUSH1 0x40 PUSH1 0x0 KECCAK256 SWAP1 JUMP JUMPDEST SLOAD PUSH1 0x40 MLOAD SWAP1 DUP2 MSTORE RETURN JUMPDEST PUSH1 0x1 PUSH1 0x1 PUSH1 0xE0 SHL SUB NOT DUP2 AND SUB PUSH2 0x2C1 JUMPI JUMP JUMPDEST CALLVALUE PUSH2 0x2C1 JUMPI PUSH1 0x20 CALLDATASIZE PUSH1 0x3 NOT ADD SLT PUSH2 0x2C1 JUMPI PUSH1 0x20 PUSH1 0x4 CALLDATALOAD PUSH2 0x36E DUP2 PUSH2 0x33D JUMP JUMPDEST PUSH4 0xFFFFFFFF PUSH1 0xE0 SHL AND PUSH4 0x7965DB0B PUSH1 0xE0 SHL DUP2 EQ SWAP1 DUP2 ISZERO PUSH2 0x394 JUMPI JUMPDEST POP PUSH1 0x40 MLOAD SWAP1 ISZERO ISZERO DUP2 MSTORE RETURN JUMPDEST PUSH4 0x6CDB3D13 PUSH1 0xE1 SHL DUP2 EQ SWAP2 POP DUP2 ISZERO PUSH2 0x3C6 JUMPI JUMPDEST DUP2 ISZERO PUSH2 0x3B5 JUMPI JUMPDEST POP CODESIZE PUSH2 0x389 JUMP JUMPDEST PUSH4 0x1FFC9A7 PUSH1 0xE0 SHL EQ SWAP1 POP CODESIZE PUSH2 0x3AE JUMP JUMPDEST PUSH4 0x3A24D07 PUSH1 0xE2 SHL DUP2 EQ SWAP2 POP PUSH2 0x3A7 JUMP JUMPDEST PUSH1 0x0 JUMPDEST DUP4 DUP2 LT PUSH2 0x3EA JUMPI POP POP PUSH1 0x0 SWAP2 ADD MSTORE JUMP JUMPDEST DUP2 DUP2 ADD MLOAD DUP4 DUP3 ADD MSTORE PUSH1 0x20 ADD PUSH2 0x3DA JUMP JUMPDEST SWAP1 PUSH1 0x20 SWAP2 PUSH2 0x413 DUP2 MLOAD DUP1 SWAP3 DUP2 DUP6 MSTORE DUP6 DUP1 DUP7 ADD SWAP2 ADD PUSH2 0x3D7 JUMP JUMPDEST PUSH1 0x1F ADD PUSH1 0x1F NOT AND ADD ADD SWAP1 JUMP JUMPDEST CALLVALUE PUSH2 0x2C1 JUMPI PUSH1 0x20 CALLDATASIZE PUSH1 0x3 NOT ADD SLT PUSH2 0x2C1 JUMPI PUSH2 0x452 PUSH2 0x43E PUSH1 0x4 CALLDATALOAD PUSH2 0x2BE8 JUMP JUMPDEST PUSH1 0x40 MLOAD SWAP2 DUP3 SWAP2 PUSH1 0x20 DUP4 MSTORE PUSH1 0x20 DUP4 ADD SWAP1 PUSH2 0x3FA JUMP JUMPDEST SUB SWAP1 RETURN JUMPDEST CALLVALUE PUSH2 0x2C1 JUMPI PUSH1 0x0 CALLDATASIZE PUSH1 0x3 NOT ADD SLT PUSH2 0x2C1 JUMPI PUSH1 0x20 PUSH1 0x40 MLOAD PUSH32 0xBF233DD2AAFEB4D50879C4AA5C81E96D92F6E6945C906A58F9F2D1C1631B4B26 DUP2 MSTORE RETURN JUMPDEST CALLVALUE PUSH2 0x2C1 JUMPI PUSH1 0x20 CALLDATASIZE PUSH1 0x3 NOT ADD SLT PUSH2 0x2C1 JUMPI PUSH1 0x4 CALLDATALOAD PUSH1 0x0 MSTORE PUSH1 0x3 PUSH1 0x20 MSTORE PUSH1 0x20 PUSH1 0x1 PUSH1 0x40 PUSH1 0x0 KECCAK256 ADD SLOAD PUSH1 0x40 MLOAD SWAP1 DUP2 MSTORE RETURN JUMPDEST PUSH4 0x4E487B71 PUSH1 0xE0 SHL PUSH1 0x0 MSTORE PUSH1 0x41 PUSH1 0x4 MSTORE PUSH1 0x24 PUSH1 0x0 REVERT JUMPDEST PUSH2 0x100 DUP2 ADD SWAP1 DUP2 LT PUSH8 0xFFFFFFFFFFFFFFFF DUP3 GT OR PUSH2 0x4F3 JUMPI PUSH1 0x40 MSTORE JUMP JUMPDEST PUSH2 0x4C0 JUMP JUMPDEST PUSH1 0x20 DUP2 ADD SWAP1 DUP2 LT PUSH8 0xFFFFFFFFFFFFFFFF DUP3 GT OR PUSH2 0x4F3 JUMPI PUSH1 0x40 MSTORE JUMP JUMPDEST SWAP1 PUSH1 0x1F DUP1 NOT SWAP2 ADD AND DUP2 ADD SWAP1 DUP2 LT PUSH8 0xFFFFFFFFFFFFFFFF DUP3 GT OR PUSH2 0x4F3 JUMPI PUSH1 0x40 MSTORE JUMP JUMPDEST PUSH1 0x40 MLOAD SWAP1 PUSH2 0x543 DUP3 PUSH2 0x4D6 JUMP JUMPDEST JUMP JUMPDEST PUSH8 0xFFFFFFFFFFFFFFFF DUP2 GT PUSH2 0x4F3 JUMPI PUSH1 0x5 SHL PUSH1 0x20 ADD SWAP1 JUMP JUMPDEST DUP2 PUSH1 0x1F DUP3 ADD SLT ISZERO PUSH2 0x2C1 JUMPI DUP1 CALLDATALOAD SWAP2 PUSH2 0x574 DUP4 PUSH2 0x545 JUMP JUMPDEST SWAP3 PUSH2 0x582 PUSH1 0x40 MLOAD SWAP5 DUP6 PUSH2 0x514 JUMP JUMPDEST DUP1 DUP5 MSTORE PUSH1 0x20 SWAP3 DUP4 DUP1 DUP7 ADD SWAP3 PUSH1 0x5 SHL DUP3 ADD ADD SWAP3 DUP4 GT PUSH2 0x2C1 JUMPI DUP4 ADD SWAP1 JUMPDEST DUP3 DUP3 LT PUSH2 0x5AC JUMPI POP POP POP POP SWAP1 JUMP JUMPDEST DUP2 CALLDATALOAD DUP2 MSTORE SWAP1 DUP4 ADD SWAP1 DUP4 ADD PUSH2 0x59E JUMP JUMPDEST PUSH8 0xFFFFFFFFFFFFFFFF DUP2 GT PUSH2 0x4F3 JUMPI PUSH1 0x1F ADD PUSH1 0x1F NOT AND PUSH1 0x20 ADD SWAP1 JUMP JUMPDEST SWAP3 SWAP2 SWAP3 PUSH2 0x5E3 DUP3 PUSH2 0x5BB JUMP JUMPDEST SWAP2 PUSH2 0x5F1 PUSH1 0x40 MLOAD SWAP4 DUP5 PUSH2 0x514 JUMP JUMPDEST DUP3 SWAP5 DUP2 DUP5 MSTORE DUP2 DUP4 ADD GT PUSH2 0x2C1 JUMPI DUP3 DUP2 PUSH1 0x20 SWAP4 DUP5 PUSH1 0x0 SWAP7 ADD CALLDATACOPY ADD ADD MSTORE JUMP JUMPDEST SWAP1 DUP1 PUSH1 0x1F DUP4 ADD SLT ISZERO PUSH2 0x2C1 JUMPI DUP2 PUSH1 0x20 PUSH2 0x629 SWAP4 CALLDATALOAD SWAP2 ADD PUSH2 0x5D7 JUMP JUMPDEST SWAP1 JUMP JUMPDEST CALLVALUE PUSH2 0x2C1 JUMPI PUSH1 0xA0 CALLDATASIZE PUSH1 0x3 NOT ADD SLT PUSH2 0x2C1 JUMPI PUSH2 0x645 PUSH2 0x2AB JUMP JUMPDEST PUSH2 0x64D PUSH2 0x2C6 JUMP JUMPDEST SWAP1 PUSH1 0x44 CALLDATALOAD SWAP2 PUSH8 0xFFFFFFFFFFFFFFFF SWAP1 DUP2 DUP5 GT PUSH2 0x2C1 JUMPI PUSH2 0x672 PUSH1 0x4 SWAP5 CALLDATASIZE SWAP1 DUP7 ADD PUSH2 0x55D JUMP JUMPDEST SWAP1 PUSH1 0x64 CALLDATALOAD DUP4 DUP2 GT PUSH2 0x2C1 JUMPI PUSH2 0x68A SWAP1 CALLDATASIZE SWAP1 DUP8 ADD PUSH2 0x55D JUMP JUMPDEST SWAP3 PUSH1 0x84 CALLDATALOAD SWAP1 DUP2 GT PUSH2 0x2C1 JUMPI PUSH2 0x6A2 SWAP1 CALLDATASIZE SWAP1 DUP8 ADD PUSH2 0x60E JUMP JUMPDEST SWAP4 PUSH1 0x1 PUSH1 0x1 PUSH1 0xA0 SHL SUB DUP1 DUP3 AND SWAP1 CALLER DUP3 EQ ISZERO DUP1 PUSH2 0x731 JUMPI JUMPDEST PUSH2 0x704 JUMPI DUP4 AND ISZERO PUSH2 0x6EC JUMPI ISZERO PUSH2 0x6D5 JUMPI PUSH2 0x6D3 SWAP6 POP PUSH2 0x1D39 JUMP JUMPDEST STOP JUMPDEST PUSH1 0x40 MLOAD PUSH3 0x6A0D45 PUSH1 0xE2 SHL DUP2 MSTORE PUSH1 0x0 DUP2 DUP9 ADD MSTORE PUSH1 0x24 SWAP1 REVERT JUMPDEST PUSH1 0x40 MLOAD PUSH4 0x2BFA23E7 PUSH1 0xE1 SHL DUP2 MSTORE PUSH1 0x0 DUP2 DUP10 ADD MSTORE PUSH1 0x24 SWAP1 REVERT JUMPDEST PUSH1 0x40 DUP1 MLOAD PUSH4 0x711BEC91 PUSH1 0xE1 SHL DUP2 MSTORE CALLER DUP2 DUP12 ADD SWAP1 DUP2 MSTORE PUSH1 0x1 PUSH1 0x1 PUSH1 0xA0 SHL SUB DUP7 AND PUSH1 0x20 DUP3 ADD MSTORE SWAP1 SWAP2 DUP3 SWAP2 ADD SUB SWAP1 REVERT JUMPDEST POP PUSH1 0x0 DUP3 DUP2 MSTORE PUSH1 0x1 PUSH1 0x20 SWAP1 DUP2 MSTORE PUSH1 0x40 DUP1 DUP4 KECCAK256 CALLER DUP5 MSTORE SWAP1 SWAP2 MSTORE SWAP1 KECCAK256 SLOAD PUSH1 0xFF AND ISZERO PUSH2 0x6B9 JUMP JUMPDEST CALLVALUE PUSH2 0x2C1 JUMPI PUSH1 0x40 CALLDATASIZE PUSH1 0x3 NOT ADD SLT PUSH2 0x2C1 JUMPI PUSH2 0x6D3 PUSH1 0x4 CALLDATALOAD PUSH2 0x774 PUSH2 0x2C6 JUMP JUMPDEST SWAP1 DUP1 PUSH1 0x0 MSTORE PUSH1 0x3 PUSH1 0x20 MSTORE PUSH2 0x78F PUSH1 0x1 PUSH1 0x40 PUSH1 0x0 KECCAK256 ADD SLOAD PUSH2 0x1AE9 JUMP JUMPDEST PUSH2 0x1B0A JUMP JUMPDEST CALLVALUE PUSH2 0x2C1 JUMPI PUSH1 0x20 CALLDATASIZE PUSH1 0x3 NOT ADD SLT PUSH2 0x2C1 JUMPI CALLER PUSH1 0x0 SWAP1 DUP2 MSTORE PUSH32 0xCE96A28FB06CA29CE31A17DE45A1073CD88B8170E4A67F7F416F721E36BDE95C PUSH1 0x20 MSTORE PUSH1 0x40 SWAP1 KECCAK256 SLOAD PUSH1 0x4 CALLDATALOAD SWAP1 PUSH32 0x9F29EEE2263C2102949FD3FEBAFB3DD6DBBAEE114F48A474222B2159942EB2B2 SWAP1 PUSH1 0xFF AND ISZERO PUSH2 0x858 JUMPI POP DUP1 ISZERO PUSH2 0x846 JUMPI PUSH1 0x6 DUP1 SLOAD SWAP1 DUP3 SWAP1 SSTORE PUSH1 0x40 DUP1 MLOAD SWAP2 DUP3 MSTORE PUSH1 0x20 DUP3 ADD SWAP3 SWAP1 SWAP3 MSTORE PUSH32 0xB38780DDDE1F073D91C150DE2696F3F7085883648BA21CC5EF01029CB21D1916 SWAP2 SWAP1 LOG1 STOP JUMPDEST PUSH1 0x40 MLOAD PUSH4 0x14CEE7CD PUSH1 0xE1 SHL DUP2 MSTORE PUSH1 0x4 SWAP1 REVERT JUMPDEST PUSH1 0x44 SWAP1 PUSH1 0x40 MLOAD SWAP1 PUSH4 0xE2517D3F PUSH1 0xE0 SHL DUP3 MSTORE CALLER PUSH1 0x4 DUP4 ADD MSTORE PUSH1 0x24 DUP3 ADD MSTORE REVERT JUMPDEST CALLVALUE PUSH2 0x2C1 JUMPI PUSH1 0x40 CALLDATASIZE PUSH1 0x3 NOT ADD SLT PUSH2 0x2C1 JUMPI PUSH2 0x88F PUSH2 0x2C6 JUMP JUMPDEST CALLER PUSH1 0x1 PUSH1 0x1 PUSH1 0xA0 SHL SUB DUP3 AND SUB PUSH2 0x8AB JUMPI PUSH2 0x6D3 SWAP1 PUSH1 0x4 CALLDATALOAD PUSH2 0x1BA4 JUMP JUMPDEST PUSH1 0x40 MLOAD PUSH4 0x334BD919 PUSH1 0xE1 SHL DUP2 MSTORE PUSH1 0x4 SWAP1 REVERT JUMPDEST CALLVALUE PUSH2 0x2C1 JUMPI PUSH1 0x40 CALLDATASIZE PUSH1 0x3 NOT ADD SLT PUSH2 0x2C1 JUMPI PUSH1 0x20 PUSH2 0x8DE PUSH1 0x24 CALLDATALOAD PUSH1 0x4 CALLDATALOAD PUSH2 0x2B80 JUMP JUMPDEST PUSH1 0x40 MLOAD SWAP1 DUP2 MSTORE RETURN JUMPDEST CALLVALUE PUSH2 0x2C1 JUMPI PUSH1 0x0 CALLDATASIZE PUSH1 0x3 NOT ADD SLT PUSH2 0x2C1 JUMPI PUSH2 0x8FF PUSH2 0x1A33 JUMP JUMPDEST PUSH1 0x4 SLOAD PUSH1 0xFF DUP2 AND ISZERO PUSH2 0x93E JUMPI PUSH1 0xFF NOT AND PUSH1 0x4 SSTORE PUSH32 0x5DB9EE0A495BF2E6FF9C91A7834C1BA4FDD244A5E8AA4E537BD38AEAE4B073AA PUSH1 0x20 PUSH1 0x40 MLOAD CALLER DUP2 MSTORE LOG1 STOP JUMPDEST PUSH1 0x40 MLOAD PUSH4 0x8DFC202B PUSH1 0xE0 SHL DUP2 MSTORE PUSH1 0x4 SWAP1 REVERT JUMPDEST SWAP1 DUP2 MLOAD DUP1 DUP3 MSTORE PUSH1 0x20 DUP1 DUP1 SWAP4 ADD SWAP4 ADD SWAP2 PUSH1 0x0 JUMPDEST DUP3 DUP2 LT PUSH2 0x970 JUMPI POP POP POP POP SWAP1 JUMP JUMPDEST DUP4 MLOAD DUP6 MSTORE SWAP4 DUP2 ADD SWAP4 SWAP3 DUP2 ADD SWAP3 PUSH1 0x1 ADD PUSH2 0x962 JUMP JUMPDEST SWAP1 PUSH1 0x20 PUSH2 0x629 SWAP3 DUP2 DUP2 MSTORE ADD SWAP1 PUSH2 0x950 JUMP JUMPDEST CALLVALUE PUSH2 0x2C1 JUMPI PUSH1 0x40 CALLDATASIZE PUSH1 0x3 NOT ADD SLT PUSH2 0x2C1 JUMPI PUSH1 0x4 CALLDATALOAD PUSH8 0xFFFFFFFFFFFFFFFF DUP1 DUP3 GT PUSH2 0x2C1 JUMPI CALLDATASIZE PUSH1 0x23 DUP4 ADD SLT ISZERO PUSH2 0x2C1 JUMPI DUP2 PUSH1 0x4 ADD CALLDATALOAD PUSH2 0x9D2 DUP2 PUSH2 0x545 JUMP JUMPDEST SWAP3 PUSH2 0x9E0 PUSH1 0x40 MLOAD SWAP5 DUP6 PUSH2 0x514 JUMP JUMPDEST DUP2 DUP5 MSTORE PUSH1 0x20 SWAP2 PUSH1 0x24 DUP4 DUP7 ADD SWAP2 PUSH1 0x5 SHL DUP4 ADD ADD SWAP2 CALLDATASIZE DUP4 GT PUSH2 0x2C1 JUMPI PUSH1 0x24 ADD SWAP1 JUMPDEST DUP3 DUP3 LT PUSH2 0xA38 JUMPI DUP6 PUSH1 0x24 CALLDATALOAD DUP7 DUP2 GT PUSH2 0x2C1 JUMPI PUSH2 0x452 SWAP2 PUSH2 0xA26 PUSH2 0xA2C SWAP3 CALLDATASIZE SWAP1 PUSH1 0x4 ADD PUSH2 0x55D JUMP JUMPDEST SWAP1 PUSH2 0x1C74 JUMP JUMPDEST PUSH1 0x40 MLOAD SWAP2 DUP3 SWAP2 DUP3 PUSH2 0x984 JUMP JUMPDEST DUP4 DUP1 SWAP2 PUSH2 0xA44 DUP5 PUSH2 0x2DC JUMP JUMPDEST DUP2 MSTORE ADD SWAP2 ADD SWAP1 PUSH2 0x9FF JUMP JUMPDEST CALLVALUE PUSH2 0x2C1 JUMPI PUSH1 0x20 DUP1 PUSH1 0x3 NOT CALLDATASIZE ADD SLT PUSH2 0x2C1 JUMPI PUSH1 0x1 PUSH1 0x1 PUSH1 0xA0 SHL SUB PUSH2 0xA71 PUSH2 0x2AB JUMP JUMPDEST AND PUSH1 0x0 MSTORE PUSH1 0xB DUP2 MSTORE PUSH1 0x40 PUSH1 0x0 KECCAK256 SWAP1 PUSH1 0x40 MLOAD SWAP1 DUP2 DUP2 DUP5 SLOAD SWAP2 DUP3 DUP2 MSTORE ADD SWAP4 PUSH1 0x0 MSTORE DUP2 PUSH1 0x0 KECCAK256 SWAP2 PUSH1 0x0 SWAP1 JUMPDEST DUP3 DUP3 LT PUSH2 0xAB0 JUMPI PUSH2 0x452 DUP6 PUSH2 0xA2C DUP2 DUP10 SUB DUP3 PUSH2 0x514 JUMP JUMPDEST DUP4 SLOAD DUP7 MSTORE SWAP5 DUP6 ADD SWAP5 PUSH1 0x1 SWAP4 DUP5 ADD SWAP4 SWAP1 SWAP2 ADD SWAP1 PUSH2 0xA99 JUMP JUMPDEST CALLVALUE PUSH2 0x2C1 JUMPI PUSH1 0x0 CALLDATASIZE PUSH1 0x3 NOT ADD SLT PUSH2 0x2C1 JUMPI PUSH1 0x20 PUSH1 0xFF PUSH1 0x4 SLOAD AND PUSH1 0x40 MLOAD SWAP1 ISZERO ISZERO DUP2 MSTORE RETURN JUMPDEST PUSH2 0x629 SWAP1 PUSH1 0x20 DUP2 MSTORE PUSH1 0x1 DUP1 PUSH1 0xA0 SHL SUB DUP4 MLOAD AND PUSH1 0x20 DUP3 ADD MSTORE PUSH1 0x20 DUP4 ADD MLOAD PUSH1 0xE0 PUSH2 0xB39 PUSH2 0xB23 PUSH2 0x100 SWAP4 DUP5 PUSH1 0x40 DUP8 ADD MSTORE PUSH2 0x120 DUP7 ADD SWAP1 PUSH2 0x3FA JUMP JUMPDEST PUSH1 0x40 DUP8 ADD MLOAD DUP6 DUP3 SUB PUSH1 0x1F NOT ADD PUSH1 0x60 DUP8 ADD MSTORE PUSH2 0x3FA JUMP JUMPDEST PUSH1 0x60 DUP7 ADD MLOAD PUSH1 0xFF AND PUSH1 0x80 DUP6 ADD MSTORE SWAP5 PUSH1 0x80 DUP2 ADD MLOAD PUSH1 0xA0 DUP6 ADD MSTORE PUSH1 0xA0 DUP2 ADD MLOAD PUSH1 0xC0 DUP6 ADD MSTORE PUSH1 0xC0 DUP2 ADD MLOAD DUP3 DUP6 ADD MSTORE ADD MLOAD SWAP2 ADD SWAP1 ISZERO ISZERO SWAP1 MSTORE JUMP JUMPDEST CALLVALUE PUSH2 0x2C1 JUMPI PUSH1 0x20 CALLDATASIZE PUSH1 0x3 NOT ADD SLT PUSH2 0x2C1 JUMPI PUSH2 0x452 PUSH1 0x40 PUSH1 0xE0 DUP2 MLOAD PUSH2 0xB92 DUP2 PUSH2 0x4D6 JUMP JUMPDEST PUSH1 0x0 SWAP2 DUP2 DUP4 DUP1 SWAP4 MSTORE PUSH1 0x60 PUSH1 0x20 DUP3 ADD MSTORE PUSH1 0x60 DUP6 DUP3 ADD MSTORE DUP3 PUSH1 0x60 DUP3 ADD MSTORE DUP3 PUSH1 0x80 DUP3 ADD MSTORE DUP3 PUSH1 0xA0 DUP3 ADD MSTORE DUP3 PUSH1 0xC0 DUP3 ADD MSTORE ADD MSTORE PUSH1 0x4 CALLDATALOAD DUP2 MSTORE PUSH1 0xA PUSH1 0x20 MSTORE KECCAK256 PUSH2 0xC56 PUSH2 0xC4D PUSH1 0x7 PUSH2 0xBDC PUSH2 0x536 JUMP JUMPDEST DUP5 SLOAD PUSH1 0x1 PUSH1 0x1 PUSH1 0xA0 SHL SUB AND DUP2 MSTORE SWAP4 PUSH2 0xBF6 PUSH1 0x1 DUP3 ADD PUSH2 0x1394 JUMP JUMPDEST PUSH1 0x20 DUP7 ADD MSTORE PUSH2 0xC07 PUSH1 0x2 DUP3 ADD PUSH2 0x1394 JUMP JUMPDEST PUSH1 0x40 DUP7 ADD MSTORE PUSH2 0xC27 PUSH2 0xC1D PUSH1 0x3 DUP4 ADD SLOAD PUSH1 0xFF AND SWAP1 JUMP JUMPDEST PUSH1 0xFF AND PUSH1 0x60 DUP8 ADD MSTORE JUMP JUMPDEST PUSH1 0x4 DUP2 ADD SLOAD PUSH1 0x80 DUP7 ADD MSTORE PUSH1 0x5 DUP2 ADD SLOAD PUSH1 0xA0 DUP7 ADD MSTORE PUSH1 0x6 DUP2 ADD SLOAD PUSH1 0xC0 DUP7 ADD MSTORE ADD SLOAD PUSH1 0xFF AND SWAP1 JUMP JUMPDEST ISZERO ISZERO PUSH1 0xE0 DUP4 ADD MSTORE JUMP JUMPDEST PUSH1 0x40 MLOAD SWAP2 DUP3 SWAP2 DUP3 PUSH2 0xAEA JUMP JUMPDEST CALLVALUE PUSH2 0x2C1 JUMPI PUSH1 0x40 DUP1 PUSH1 0x3 NOT CALLDATASIZE ADD SLT PUSH2 0x2C1 JUMPI PUSH1 0x4 DUP1 CALLDATALOAD SWAP1 PUSH1 0x24 CALLDATALOAD SWAP3 PUSH2 0xC85 PUSH2 0x2315 JUMP JUMPDEST PUSH2 0xC8D PUSH2 0x2333 JUMP JUMPDEST DUP4 ISZERO PUSH2 0xE83 JUMPI PUSH2 0xCA7 DUP4 PUSH1 0x0 MSTORE PUSH1 0xA PUSH1 0x20 MSTORE PUSH1 0x40 PUSH1 0x0 KECCAK256 SWAP1 JUMP JUMPDEST SWAP2 PUSH2 0xCBD PUSH2 0xCB9 PUSH1 0x7 DUP6 ADD SLOAD PUSH1 0xFF AND SWAP1 JUMP JUMPDEST ISZERO SWAP1 JUMP JUMPDEST PUSH2 0xE75 JUMPI DUP4 ISZERO DUP1 ISZERO PUSH2 0xE69 JUMPI JUMPDEST PUSH2 0xE5B JUMPI DUP5 PUSH2 0xCFE CALLER PUSH2 0xCE7 DUP8 PUSH1 0x0 MSTORE PUSH1 0x0 PUSH1 0x20 MSTORE PUSH1 0x40 PUSH1 0x0 KECCAK256 SWAP1 JUMP JUMPDEST SWAP1 PUSH1 0x1 DUP1 PUSH1 0xA0 SHL SUB AND PUSH1 0x0 MSTORE PUSH1 0x20 MSTORE PUSH1 0x40 PUSH1 0x0 KECCAK256 SWAP1 JUMP JUMPDEST SLOAD LT PUSH2 0xE4D JUMPI PUSH2 0xD1F PUSH2 0xD15 PUSH1 0x5 DUP6 ADD SLOAD DUP8 PUSH2 0x22CD JUMP JUMPDEST DUP3 DUP6 ADD SLOAD SWAP1 PUSH2 0x22E0 JUMP JUMPDEST SWAP3 DUP4 PUSH1 0xC SLOAD LT PUSH2 0xE3E JUMPI PUSH1 0x6 SWAP1 PUSH2 0xD37 DUP8 DUP8 CALLER PUSH2 0x2953 JUMP JUMPDEST ADD PUSH2 0xD43 DUP7 DUP3 SLOAD PUSH2 0x2946 JUMP JUMPDEST SWAP1 SSTORE PUSH2 0xD59 PUSH2 0xD54 DUP5 PUSH1 0xC SLOAD PUSH2 0x2946 JUMP JUMPDEST PUSH1 0xC SSTORE JUMP JUMPDEST DUP2 MLOAD PUSH4 0xA9059CBB PUSH1 0xE0 SHL DUP2 MSTORE CALLER DUP3 DUP3 ADD SWAP1 DUP2 MSTORE PUSH1 0x20 DUP2 DUP2 ADD DUP7 SWAP1 MSTORE SWAP1 DUP3 SWAP1 DUP2 SWAP1 PUSH1 0x40 ADD SUB DUP2 PUSH1 0x0 PUSH32 0x0 PUSH1 0x1 PUSH1 0x1 PUSH1 0xA0 SHL SUB AND GAS CALL SWAP1 DUP2 ISZERO PUSH2 0xE39 JUMPI PUSH1 0x0 SWAP2 PUSH2 0xE0B JUMPI JUMPDEST POP ISZERO PUSH2 0xDFD JUMPI POP MLOAD SWAP3 DUP4 MSTORE PUSH1 0x20 DUP4 ADD MSTORE CALLER SWAP2 PUSH32 0xEFD5D515529A8F76C5944B1D953CDE6B2C61C8B81E144C964AEB038714CABCA6 SWAP1 PUSH1 0x40 SWAP1 LOG3 PUSH2 0x6D3 PUSH1 0x1 PUSH1 0x5 SSTORE JUMP JUMPDEST SWAP1 MLOAD PUSH4 0x12171D83 PUSH1 0xE3 SHL DUP2 MSTORE REVERT JUMPDEST PUSH2 0xE2C SWAP2 POP PUSH1 0x20 RETURNDATASIZE DUP2 GT PUSH2 0xE32 JUMPI JUMPDEST PUSH2 0xE24 DUP2 DUP4 PUSH2 0x514 JUMP JUMPDEST DUP2 ADD SWAP1 PUSH2 0x2300 JUMP JUMPDEST CODESIZE PUSH2 0xDBB JUMP JUMPDEST POP RETURNDATASIZE PUSH2 0xE1A JUMP JUMPDEST PUSH2 0x1FEB JUMP JUMPDEST POP SWAP1 MLOAD PUSH4 0x31D2F709 PUSH1 0xE0 SHL DUP2 MSTORE REVERT JUMPDEST SWAP1 MLOAD PUSH4 0x2CA2F52B PUSH1 0xE1 SHL DUP2 MSTORE REVERT JUMPDEST SWAP1 MLOAD PUSH4 0xBB97CC9B PUSH1 0xE0 SHL DUP2 MSTORE REVERT JUMPDEST POP PUSH1 0x7 SLOAD DUP5 LT ISZERO PUSH2 0xCCA JUMP JUMPDEST SWAP1 MLOAD PUSH4 0x7350D3B PUSH1 0xE1 SHL DUP2 MSTORE REVERT JUMPDEST MLOAD PUSH4 0x1F2A2005 PUSH1 0xE0 SHL DUP2 MSTORE REVERT JUMPDEST CALLVALUE PUSH2 0x2C1 JUMPI PUSH1 0x0 CALLDATASIZE PUSH1 0x3 NOT ADD SLT PUSH2 0x2C1 JUMPI PUSH1 0x40 MLOAD PUSH32 0x0 PUSH1 0x1 PUSH1 0x1 PUSH1 0xA0 SHL SUB AND DUP2 MSTORE PUSH1 0x20 SWAP1 RETURN JUMPDEST CALLVALUE PUSH2 0x2C1 JUMPI PUSH1 0x0 CALLDATASIZE PUSH1 0x3 NOT ADD SLT PUSH2 0x2C1 JUMPI PUSH1 0x20 PUSH1 0xC SLOAD PUSH1 0x40 MLOAD SWAP1 DUP2 MSTORE RETURN JUMPDEST CALLVALUE PUSH2 0x2C1 JUMPI PUSH1 0x0 CALLDATASIZE PUSH1 0x3 NOT ADD SLT PUSH2 0x2C1 JUMPI PUSH1 0x20 PUSH1 0x6 SLOAD PUSH1 0x40 MLOAD SWAP1 DUP2 MSTORE RETURN JUMPDEST CALLVALUE PUSH2 0x2C1 JUMPI PUSH1 0x20 CALLDATASIZE PUSH1 0x3 NOT ADD SLT PUSH2 0x2C1 JUMPI PUSH1 0x20 PUSH8 0xDE0B6B3A7640000 PUSH2 0xF3B PUSH1 0x6 SLOAD PUSH1 0x4 CALLDATALOAD PUSH2 0x22CD JUMP JUMPDEST DIV PUSH1 0x40 MLOAD SWAP1 DUP2 MSTORE RETURN JUMPDEST CALLVALUE PUSH2 0x2C1 JUMPI PUSH1 0x0 CALLDATASIZE PUSH1 0x3 NOT ADD SLT PUSH2 0x2C1 JUMPI PUSH2 0xF5D PUSH2 0x1A33 JUMP JUMPDEST PUSH2 0xF65 PUSH2 0x2315 JUMP JUMPDEST PUSH1 0x1 PUSH1 0xFF NOT PUSH1 0x4 SLOAD AND OR PUSH1 0x4 SSTORE PUSH32 0x62E78CEA01BEE320CD4E420270B5EA74000D11B0C9F74754EBDBFC544B05A258 PUSH1 0x20 PUSH1 0x40 MLOAD CALLER DUP2 MSTORE LOG1 STOP JUMPDEST CALLVALUE PUSH2 0x2C1 JUMPI PUSH1 0x0 CALLDATASIZE PUSH1 0x3 NOT ADD SLT PUSH2 0x2C1 JUMPI PUSH1 0x20 PUSH1 0x40 MLOAD PUSH9 0x3635C9ADC5DEA00000 DUP2 MSTORE RETURN JUMPDEST CALLVALUE PUSH2 0x2C1 JUMPI PUSH1 0x40 CALLDATASIZE PUSH1 0x3 NOT ADD SLT PUSH2 0x2C1 JUMPI PUSH1 0x20 PUSH1 0xFF PUSH2 0x1008 PUSH2 0xFE2 PUSH2 0x2C6 JUMP JUMPDEST PUSH1 0x4 CALLDATALOAD PUSH1 0x0 MSTORE PUSH1 0x3 DUP5 MSTORE PUSH1 0x40 PUSH1 0x0 KECCAK256 SWAP1 PUSH1 0x1 DUP1 PUSH1 0xA0 SHL SUB AND PUSH1 0x0 MSTORE PUSH1 0x20 MSTORE PUSH1 0x40 PUSH1 0x0 KECCAK256 SWAP1 JUMP JUMPDEST SLOAD AND PUSH1 0x40 MLOAD SWAP1 ISZERO ISZERO DUP2 MSTORE RETURN JUMPDEST CALLVALUE PUSH2 0x2C1 JUMPI PUSH1 0x20 DUP1 PUSH1 0x3 NOT CALLDATASIZE ADD SLT PUSH2 0x2C1 JUMPI PUSH1 0x4 DUP1 CALLDATALOAD SWAP1 PUSH2 0x1033 PUSH2 0x2315 JUMP JUMPDEST PUSH2 0x103B PUSH2 0x2333 JUMP JUMPDEST DUP2 ISZERO PUSH2 0x1206 JUMPI PUSH2 0x105E PUSH2 0x1050 PUSH1 0x6 SLOAD DUP5 PUSH2 0x22CD JUMP JUMPDEST PUSH8 0xDE0B6B3A7640000 SWAP1 DIV SWAP1 JUMP JUMPDEST PUSH1 0x40 DUP1 MLOAD PUSH4 0x23B872DD PUSH1 0xE0 SHL DUP2 MSTORE CALLER DUP5 DUP3 ADD SWAP1 DUP2 MSTORE ADDRESS PUSH1 0x20 DUP3 ADD MSTORE SWAP2 DUP3 ADD DUP6 SWAP1 MSTORE PUSH1 0x0 SWAP6 SWAP3 SWAP4 SWAP3 SWAP2 PUSH1 0x1 PUSH1 0x1 PUSH1 0xA0 SHL SUB SWAP2 SWAP1 DUP4 SWAP1 DUP3 SWAP1 DUP2 SWAP1 SUB PUSH1 0x60 ADD DUP2 DUP11 PUSH32 0x0 DUP8 AND GAS CALL SWAP1 DUP2 ISZERO PUSH2 0xE39 JUMPI DUP8 SWAP2 PUSH2 0x11E9 JUMPI JUMPDEST POP ISZERO PUSH2 0x11D8 JUMPI CALLER PUSH1 0x0 SWAP1 DUP2 MSTORE PUSH1 0x8 PUSH1 0x20 MSTORE PUSH1 0x40 SWAP1 KECCAK256 PUSH2 0x10EF DUP7 DUP3 SLOAD PUSH2 0x1F40 JUMP JUMPDEST SWAP1 SSTORE PUSH2 0x1105 PUSH2 0x1100 DUP7 PUSH1 0x9 SLOAD PUSH2 0x1F40 JUMP JUMPDEST PUSH1 0x9 SSTORE JUMP JUMPDEST PUSH1 0x40 DUP1 MLOAD PUSH4 0xA9059CBB PUSH1 0xE0 SHL DUP2 MSTORE CALLER DUP6 DUP3 ADD SWAP1 DUP2 MSTORE PUSH1 0x20 DUP2 ADD DUP8 SWAP1 MSTORE SWAP1 SWAP3 DUP5 SWAP3 DUP5 SWAP3 DUP4 SWAP2 DUP12 SWAP2 DUP4 SWAP2 ADD SUB SWAP3 PUSH32 0x0 AND GAS CALL SWAP2 DUP3 ISZERO PUSH2 0xE39 JUMPI DUP7 SWAP3 PUSH2 0x11BB JUMPI JUMPDEST POP POP ISZERO PUSH2 0x11AC JUMPI POP PUSH1 0x40 DUP1 MLOAD SWAP3 DUP4 MSTORE PUSH1 0x20 DUP4 ADD SWAP2 SWAP1 SWAP2 MSTORE CALLER SWAP2 PUSH32 0x728EF7F9F5DA04913A2539A83B1D7620E12ED0FB6CA88328BDBA350F977CFF0F SWAP2 SWAP1 LOG2 PUSH2 0x11A9 PUSH1 0x1 PUSH1 0x5 SSTORE JUMP JUMPDEST DUP1 RETURN JUMPDEST PUSH1 0x40 MLOAD PUSH4 0x12171D83 PUSH1 0xE3 SHL DUP2 MSTORE REVERT JUMPDEST PUSH2 0x11D1 SWAP3 POP DUP1 RETURNDATASIZE LT PUSH2 0xE32 JUMPI PUSH2 0xE24 DUP2 DUP4 PUSH2 0x514 JUMP JUMPDEST CODESIZE DUP1 PUSH2 0x1162 JUMP JUMPDEST PUSH1 0x40 MLOAD PUSH4 0x12171D83 PUSH1 0xE3 SHL DUP2 MSTORE DUP4 SWAP1 REVERT JUMPDEST PUSH2 0x1200 SWAP2 POP DUP4 RETURNDATASIZE DUP6 GT PUSH2 0xE32 JUMPI PUSH2 0xE24 DUP2 DUP4 PUSH2 0x514 JUMP JUMPDEST CODESIZE PUSH2 0x10CF JUMP JUMPDEST PUSH1 0x40 MLOAD PUSH4 0x1F2A2005 PUSH1 0xE0 SHL DUP2 MSTORE REVERT JUMPDEST CALLVALUE PUSH2 0x2C1 JUMPI PUSH1 0x0 CALLDATASIZE PUSH1 0x3 NOT ADD SLT PUSH2 0x2C1 JUMPI PUSH1 0x20 PUSH1 0x40 MLOAD PUSH1 0x0 DUP2 MSTORE RETURN JUMPDEST DUP1 ISZERO ISZERO SUB PUSH2 0x2C1 JUMPI JUMP JUMPDEST CALLVALUE PUSH2 0x2C1 JUMPI PUSH1 0x40 CALLDATASIZE PUSH1 0x3 NOT ADD SLT PUSH2 0x2C1 JUMPI PUSH2 0x1254 PUSH2 0x2AB JUMP JUMPDEST PUSH1 0x24 CALLDATALOAD PUSH2 0x1260 DUP2 PUSH2 0x1231 JUMP JUMPDEST PUSH1 0x1 PUSH1 0x1 PUSH1 0xA0 SHL SUB DUP3 AND SWAP2 DUP3 ISZERO PUSH2 0x12DF JUMPI DUP2 PUSH2 0x129E PUSH2 0x12AF SWAP3 CALLER PUSH1 0x0 MSTORE PUSH1 0x1 PUSH1 0x20 MSTORE PUSH1 0x40 PUSH1 0x0 KECCAK256 SWAP1 PUSH1 0x1 DUP1 PUSH1 0xA0 SHL SUB AND PUSH1 0x0 MSTORE PUSH1 0x20 MSTORE PUSH1 0x40 PUSH1 0x0 KECCAK256 SWAP1 JUMP JUMPDEST SWAP1 PUSH1 0xFF DUP1 NOT DUP4 SLOAD AND SWAP2 ISZERO ISZERO AND OR SWAP1 SSTORE JUMP JUMPDEST PUSH1 0x40 MLOAD SWAP1 ISZERO ISZERO DUP2 MSTORE PUSH32 0x17307EAB39AB6107E8899845AD3D59BD9653F200F220920489CA2B5937696C31 PUSH1 0x20 CALLER SWAP3 LOG3 STOP JUMPDEST PUSH1 0x40 MLOAD PUSH3 0xCED3E1 PUSH1 0xE8 SHL DUP2 MSTORE PUSH1 0x0 PUSH1 0x4 DUP3 ADD MSTORE PUSH1 0x24 SWAP1 REVERT JUMPDEST CALLVALUE PUSH2 0x2C1 JUMPI PUSH1 0x0 CALLDATASIZE PUSH1 0x3 NOT ADD SLT PUSH2 0x2C1 JUMPI PUSH1 0x40 MLOAD PUSH32 0x0 PUSH1 0x1 PUSH1 0x1 PUSH1 0xA0 SHL SUB AND DUP2 MSTORE PUSH1 0x20 SWAP1 RETURN JUMPDEST CALLVALUE PUSH2 0x2C1 JUMPI PUSH1 0x0 CALLDATASIZE PUSH1 0x3 NOT ADD SLT PUSH2 0x2C1 JUMPI PUSH1 0x20 PUSH1 0x7 SLOAD PUSH1 0x40 MLOAD SWAP1 DUP2 MSTORE RETURN JUMPDEST SWAP1 PUSH1 0x1 DUP3 DUP2 SHR SWAP3 AND DUP1 ISZERO PUSH2 0x138A JUMPI JUMPDEST PUSH1 0x20 DUP4 LT EQ PUSH2 0x1374 JUMPI JUMP JUMPDEST PUSH4 0x4E487B71 PUSH1 0xE0 SHL PUSH1 0x0 MSTORE PUSH1 0x22 PUSH1 0x4 MSTORE PUSH1 0x24 PUSH1 0x0 REVERT JUMPDEST SWAP2 PUSH1 0x7F AND SWAP2 PUSH2 0x1369 JUMP JUMPDEST SWAP1 PUSH1 0x40 MLOAD SWAP2 DUP3 PUSH1 0x0 DUP3 SLOAD SWAP3 PUSH2 0x13A8 DUP5 PUSH2 0x135A JUMP JUMPDEST SWAP1 DUP2 DUP5 MSTORE PUSH1 0x1 SWAP5 DUP6 DUP2 AND SWAP1 DUP2 PUSH1 0x0 EQ PUSH2 0x1415 JUMPI POP PUSH1 0x1 EQ PUSH2 0x13D2 JUMPI JUMPDEST POP POP PUSH2 0x543 SWAP3 POP SUB DUP4 PUSH2 0x514 JUMP JUMPDEST SWAP1 SWAP4 SWAP2 POP PUSH1 0x0 MSTORE PUSH1 0x20 SWAP1 DUP2 PUSH1 0x0 KECCAK256 SWAP4 PUSH1 0x0 SWAP2 JUMPDEST DUP2 DUP4 LT PUSH2 0x13FD JUMPI POP POP PUSH2 0x543 SWAP4 POP DUP3 ADD ADD CODESIZE DUP1 PUSH2 0x13C4 JUMP JUMPDEST DUP6 SLOAD DUP9 DUP5 ADD DUP6 ADD MSTORE SWAP5 DUP6 ADD SWAP5 DUP8 SWAP5 POP SWAP2 DUP4 ADD SWAP2 PUSH2 0x13E5 JUMP JUMPDEST SWAP2 POP POP PUSH2 0x543 SWAP5 POP PUSH1 0x20 SWAP3 POP PUSH1 0xFF NOT AND DUP3 DUP5 ADD MSTORE ISZERO ISZERO PUSH1 0x5 SHL DUP3 ADD ADD CODESIZE DUP1 PUSH2 0x13C4 JUMP JUMPDEST SWAP7 SWAP4 SWAP9 SWAP8 SWAP5 SWAP2 PUSH1 0xE0 SWAP7 SWAP4 PUSH2 0x1467 PUSH2 0x1475 SWAP3 PUSH1 0xFF SWAP5 PUSH1 0x1 DUP1 PUSH1 0xA0 SHL SUB AND DUP12 MSTORE PUSH2 0x100 DUP1 PUSH1 0x20 DUP14 ADD MSTORE DUP12 ADD SWAP1 PUSH2 0x3FA JUMP JUMPDEST SWAP1 DUP10 DUP3 SUB PUSH1 0x40 DUP12 ADD MSTORE PUSH2 0x3FA JUMP JUMPDEST SWAP9 AND PUSH1 0x60 DUP8 ADD MSTORE PUSH1 0x80 DUP7 ADD MSTORE PUSH1 0xA0 DUP6 ADD MSTORE PUSH1 0xC0 DUP5 ADD MSTORE ISZERO ISZERO SWAP2 ADD MSTORE JUMP JUMPDEST CALLVALUE PUSH2 0x2C1 JUMPI PUSH1 0x20 CALLDATASIZE PUSH1 0x3 NOT ADD SLT PUSH2 0x2C1 JUMPI PUSH1 0x4 CALLDATALOAD PUSH1 0x0 SWAP1 DUP2 MSTORE PUSH1 0xA PUSH1 0x20 MSTORE PUSH1 0x40 SWAP1 KECCAK256 DUP1 SLOAD PUSH1 0x1 PUSH1 0x1 PUSH1 0xA0 SHL SUB AND PUSH2 0x452 PUSH2 0x14CE PUSH1 0x1 DUP5 ADD PUSH2 0x1394 JUMP JUMPDEST SWAP3 PUSH2 0x14DB PUSH1 0x2 DUP3 ADD PUSH2 0x1394 JUMP JUMPDEST SWAP1 PUSH1 0xFF PUSH1 0x3 DUP3 ADD SLOAD AND PUSH1 0x4 DUP3 ADD SLOAD PUSH1 0x5 DUP4 ADD SLOAD SWAP2 PUSH1 0xFF PUSH1 0x7 PUSH1 0x6 DUP7 ADD SLOAD SWAP6 ADD SLOAD AND SWAP5 PUSH1 0x40 MLOAD SWAP9 DUP10 SWAP9 DUP10 PUSH2 0x1438 JUMP JUMPDEST PUSH4 0x4E487B71 PUSH1 0xE0 SHL PUSH1 0x0 MSTORE PUSH1 0x32 PUSH1 0x4 MSTORE PUSH1 0x24 PUSH1 0x0 REVERT JUMPDEST DUP1 SLOAD DUP3 LT ISZERO PUSH2 0x1537 JUMPI PUSH1 0x0 MSTORE PUSH1 0x20 PUSH1 0x0 KECCAK256 ADD SWAP1 PUSH1 0x0 SWAP1 JUMP JUMPDEST PUSH2 0x1509 JUMP JUMPDEST CALLVALUE PUSH2 0x2C1 JUMPI PUSH1 0x40 CALLDATASIZE PUSH1 0x3 NOT ADD SLT PUSH2 0x2C1 JUMPI PUSH2 0x1555 PUSH2 0x2AB JUMP JUMPDEST PUSH1 0x1 PUSH1 0x1 PUSH1 0xA0 SHL SUB AND PUSH1 0x0 SWAP1 DUP2 MSTORE PUSH1 0xB PUSH1 0x20 MSTORE PUSH1 0x40 SWAP1 KECCAK256 DUP1 SLOAD PUSH1 0x24 CALLDATALOAD SWAP2 SWAP1 DUP3 LT ISZERO PUSH2 0x2C1 JUMPI PUSH1 0x20 SWAP2 PUSH2 0x1586 SWAP2 PUSH2 0x151F JUMP JUMPDEST SWAP1 SLOAD PUSH1 0x40 MLOAD SWAP2 PUSH1 0x3 SHL SHR DUP2 MSTORE RETURN JUMPDEST CALLVALUE PUSH2 0x2C1 JUMPI PUSH1 0x0 CALLDATASIZE PUSH1 0x3 NOT ADD SLT PUSH2 0x2C1 JUMPI PUSH1 0x20 PUSH1 0x40 MLOAD PUSH32 0x9F29EEE2263C2102949FD3FEBAFB3DD6DBBAEE114F48A474222B2159942EB2B2 DUP2 MSTORE RETURN JUMPDEST CALLVALUE PUSH2 0x2C1 JUMPI PUSH1 0x20 CALLDATASIZE PUSH1 0x3 NOT ADD SLT PUSH2 0x2C1 JUMPI PUSH1 0x1 PUSH1 0x1 PUSH1 0xA0 SHL SUB PUSH2 0x15F0 PUSH2 0x2AB JUMP JUMPDEST AND PUSH1 0x0 MSTORE PUSH1 0x8 PUSH1 0x20 MSTORE PUSH1 0x20 PUSH1 0x40 PUSH1 0x0 KECCAK256 SLOAD PUSH1 0x40 MLOAD SWAP1 DUP2 MSTORE RETURN JUMPDEST CALLVALUE PUSH2 0x2C1 JUMPI PUSH1 0x0 CALLDATASIZE PUSH1 0x3 NOT ADD SLT PUSH2 0x2C1 JUMPI PUSH1 0x20 PUSH1 0x40 MLOAD PUSH8 0xDE0B6B3A7640000 DUP2 MSTORE RETURN JUMPDEST CALLVALUE PUSH2 0x2C1 JUMPI PUSH1 0x40 CALLDATASIZE PUSH1 0x3 NOT ADD SLT PUSH2 0x2C1 JUMPI PUSH2 0x6D3 PUSH1 0x4 CALLDATALOAD PUSH2 0x164B PUSH2 0x2C6 JUMP JUMPDEST SWAP1 DUP1 PUSH1 0x0 MSTORE PUSH1 0x3 PUSH1 0x20 MSTORE PUSH2 0x1666 PUSH1 0x1 PUSH1 0x40 PUSH1 0x0 KECCAK256 ADD SLOAD PUSH2 0x1AE9 JUMP JUMPDEST PUSH2 0x1BA4 JUMP JUMPDEST CALLVALUE PUSH2 0x2C1 JUMPI PUSH1 0x0 CALLDATASIZE PUSH1 0x3 NOT ADD SLT PUSH2 0x2C1 JUMPI PUSH1 0x20 PUSH1 0x40 MLOAD PUSH1 0x12 DUP2 MSTORE RETURN JUMPDEST CALLVALUE PUSH2 0x2C1 JUMPI PUSH1 0x0 CALLDATASIZE PUSH1 0x3 NOT ADD SLT PUSH2 0x2C1 JUMPI PUSH1 0x20 PUSH1 0x40 MLOAD PUSH32 0x65D7A28E3265B37A6474929F336521B332C1681B933F6CB9F3376673440D862A DUP2 MSTORE RETURN JUMPDEST CALLVALUE PUSH2 0x2C1 JUMPI PUSH1 0x60 CALLDATASIZE PUSH1 0x3 NOT ADD SLT PUSH2 0x2C1 JUMPI PUSH2 0x16DB PUSH2 0x2AB JUMP JUMPDEST PUSH2 0x16E3 PUSH2 0x2C6 JUMP JUMPDEST PUSH1 0x44 CALLDATALOAD PUSH2 0x16EE PUSH2 0x1A91 JUMP JUMPDEST PUSH1 0x1 PUSH1 0x1 PUSH1 0xA0 SHL SUB DUP3 DUP2 AND SWAP4 SWAP1 DUP5 ISZERO PUSH2 0x17FD JUMPI AND SWAP2 DUP2 SWAP1 DUP4 PUSH2 0x176F JUMPI POP PUSH1 0x0 DUP1 DUP1 DUP1 SWAP4 DUP8 GAS CALL PUSH2 0x171C PUSH2 0x200A JUMP JUMPDEST POP ISZERO PUSH2 0x175D JUMPI PUSH2 0x1758 PUSH32 0xF24EF89F38EADC1BDE50701AD6E4D6D11A2DC24F7CF834A486991F3883328504 SWAP2 JUMPDEST PUSH1 0x40 MLOAD SWAP1 DUP2 MSTORE SWAP1 DUP2 SWAP1 PUSH1 0x20 DUP3 ADD SWAP1 JUMP JUMPDEST SUB SWAP1 LOG3 STOP JUMPDEST PUSH1 0x40 MLOAD PUSH4 0x12171D83 PUSH1 0xE3 SHL DUP2 MSTORE PUSH1 0x4 SWAP1 REVERT JUMPDEST PUSH1 0x40 MLOAD PUSH4 0xA9059CBB PUSH1 0xE0 SHL DUP2 MSTORE PUSH1 0x1 PUSH1 0x1 PUSH1 0xA0 SHL SUB SWAP2 SWAP1 SWAP2 AND PUSH1 0x4 DUP3 ADD MSTORE PUSH1 0x24 DUP2 ADD SWAP2 SWAP1 SWAP2 MSTORE PUSH1 0x20 DUP2 PUSH1 0x44 DUP2 PUSH1 0x0 DUP8 GAS CALL SWAP1 DUP2 ISZERO PUSH2 0xE39 JUMPI PUSH1 0x0 SWAP2 PUSH2 0x17DF JUMPI JUMPDEST POP ISZERO PUSH2 0x175D JUMPI PUSH2 0x1758 PUSH32 0xF24EF89F38EADC1BDE50701AD6E4D6D11A2DC24F7CF834A486991F3883328504 SWAP2 PUSH2 0x1748 JUMP JUMPDEST PUSH2 0x17F7 SWAP2 POP PUSH1 0x20 RETURNDATASIZE DUP2 GT PUSH2 0xE32 JUMPI PUSH2 0xE24 DUP2 DUP4 PUSH2 0x514 JUMP JUMPDEST CODESIZE PUSH2 0x17AF JUMP JUMPDEST PUSH1 0x40 MLOAD PUSH4 0x1F2A2005 PUSH1 0xE0 SHL DUP2 MSTORE PUSH1 0x4 SWAP1 REVERT JUMPDEST CALLVALUE PUSH2 0x2C1 JUMPI PUSH1 0x0 CALLDATASIZE PUSH1 0x3 NOT ADD SLT PUSH2 0x2C1 JUMPI PUSH1 0x20 PUSH1 0x9 SLOAD PUSH1 0x40 MLOAD SWAP1 DUP2 MSTORE RETURN JUMPDEST CALLVALUE PUSH2 0x2C1 JUMPI PUSH1 0x40 CALLDATASIZE PUSH1 0x3 NOT ADD SLT PUSH2 0x2C1 JUMPI PUSH1 0x20 PUSH1 0xFF PUSH2 0x1008 PUSH2 0x184D PUSH2 0x2AB JUMP JUMPDEST PUSH2 0x1855 PUSH2 0x2C6 JUMP JUMPDEST PUSH1 0x1 PUSH1 0x1 PUSH1 0xA0 SHL SUB SWAP2 DUP3 AND PUSH1 0x0 SWAP1 DUP2 MSTORE PUSH1 0x1 DUP7 MSTORE PUSH1 0x40 DUP1 DUP3 KECCAK256 SWAP3 SWAP1 SWAP4 AND DUP2 MSTORE PUSH1 0x20 SWAP2 SWAP1 SWAP2 MSTORE KECCAK256 SWAP1 JUMP JUMPDEST CALLVALUE PUSH2 0x2C1 JUMPI PUSH1 0xA0 CALLDATASIZE PUSH1 0x3 NOT ADD SLT PUSH2 0x2C1 JUMPI PUSH2 0x1897 PUSH2 0x2AB JUMP JUMPDEST PUSH2 0x189F PUSH2 0x2C6 JUMP JUMPDEST PUSH1 0x84 CALLDATALOAD PUSH8 0xFFFFFFFFFFFFFFFF DUP2 GT PUSH2 0x2C1 JUMPI PUSH2 0x18BF SWAP1 CALLDATASIZE SWAP1 PUSH1 0x4 ADD PUSH2 0x60E JUMP JUMPDEST SWAP1 PUSH1 0x1 PUSH1 0x1 PUSH1 0xA0 SHL SUB DUP4 DUP2 AND SWAP1 CALLER DUP3 EQ ISZERO DUP1 PUSH2 0x1978 JUMPI JUMPDEST PUSH2 0x1951 JUMPI DUP3 AND ISZERO PUSH2 0x1938 JUMPI ISZERO PUSH2 0x1920 JUMPI PUSH2 0x6D3 SWAP3 PUSH2 0x1918 PUSH1 0x64 CALLDATALOAD PUSH1 0x44 CALLDATALOAD SWAP2 PUSH1 0x40 MLOAD SWAP3 PUSH1 0x1 DUP5 MSTORE PUSH1 0x20 DUP5 ADD MSTORE PUSH1 0x40 DUP4 ADD SWAP2 PUSH1 0x1 DUP4 MSTORE PUSH1 0x60 DUP5 ADD MSTORE PUSH1 0x80 DUP4 ADD PUSH1 0x40 MSTORE JUMP JUMPDEST SWAP3 SWAP1 SWAP2 PUSH2 0x1D39 JUMP JUMPDEST PUSH1 0x40 MLOAD PUSH3 0x6A0D45 PUSH1 0xE2 SHL DUP2 MSTORE PUSH1 0x0 PUSH1 0x4 DUP3 ADD MSTORE PUSH1 0x24 SWAP1 REVERT JUMPDEST PUSH1 0x40 MLOAD PUSH4 0x2BFA23E7 PUSH1 0xE1 SHL DUP2 MSTORE PUSH1 0x0 PUSH1 0x4 DUP3 ADD MSTORE PUSH1 0x24 SWAP1 REVERT JUMPDEST PUSH1 0x40 MLOAD PUSH4 0x711BEC91 PUSH1 0xE1 SHL DUP2 MSTORE CALLER PUSH1 0x4 DUP3 ADD MSTORE PUSH1 0x1 PUSH1 0x1 PUSH1 0xA0 SHL SUB DUP7 AND PUSH1 0x24 DUP3 ADD MSTORE PUSH1 0x44 SWAP1 REVERT JUMPDEST POP PUSH1 0x0 DUP3 DUP2 MSTORE PUSH1 0x1 PUSH1 0x20 SWAP1 DUP2 MSTORE PUSH1 0x40 DUP1 DUP4 KECCAK256 CALLER DUP5 MSTORE SWAP1 SWAP2 MSTORE SWAP1 KECCAK256 SLOAD PUSH1 0xFF AND ISZERO PUSH2 0x18D6 JUMP JUMPDEST SWAP2 DUP2 PUSH1 0x1F DUP5 ADD SLT ISZERO PUSH2 0x2C1 JUMPI DUP3 CALLDATALOAD SWAP2 PUSH8 0xFFFFFFFFFFFFFFFF DUP4 GT PUSH2 0x2C1 JUMPI PUSH1 0x20 DUP4 DUP2 DUP7 ADD SWAP6 ADD ADD GT PUSH2 0x2C1 JUMPI JUMP JUMPDEST CALLVALUE PUSH2 0x2C1 JUMPI PUSH1 0x80 CALLDATASIZE PUSH1 0x3 NOT ADD SLT PUSH2 0x2C1 JUMPI PUSH8 0xFFFFFFFFFFFFFFFF PUSH1 0x24 CALLDATALOAD DUP2 DUP2 GT PUSH2 0x2C1 JUMPI PUSH2 0x19FC SWAP1 CALLDATASIZE SWAP1 PUSH1 0x4 ADD PUSH2 0x199C JUMP JUMPDEST SWAP2 PUSH1 0x44 CALLDATALOAD SWAP1 DUP2 GT PUSH2 0x2C1 JUMPI PUSH2 0x1A15 SWAP1 CALLDATASIZE SWAP1 PUSH1 0x4 ADD PUSH2 0x199C JUMP JUMPDEST PUSH1 0x64 CALLDATALOAD SWAP2 PUSH1 0xFF DUP4 AND DUP4 SUB PUSH2 0x2C1 JUMPI PUSH2 0x452 SWAP5 PUSH2 0x1748 SWAP5 PUSH1 0x4 CALLDATALOAD PUSH2 0x2356 JUMP JUMPDEST CALLER PUSH1 0x0 SWAP1 DUP2 MSTORE PUSH32 0x30ADEB818EF77F204F5A603C30FA5332397B6E28FB3B7F9D937AE6A6914716DE PUSH1 0x20 MSTORE PUSH1 0x40 SWAP1 KECCAK256 PUSH32 0x65D7A28E3265B37A6474929F336521B332C1681B933F6CB9F3376673440D862A SWAP1 PUSH1 0xFF SWAP1 JUMPDEST SLOAD AND ISZERO PUSH2 0x858 JUMPI POP JUMP JUMPDEST CALLER PUSH1 0x0 SWAP1 DUP2 MSTORE PUSH32 0x4A18C22192F7476EC84391FCE95952ACE1237D522DE16C98159F6D46D423EF36 PUSH1 0x20 MSTORE PUSH1 0x40 SWAP1 KECCAK256 PUSH32 0xBF233DD2AAFEB4D50879C4AA5C81E96D92F6E6945C906A58F9F2D1C1631B4B26 SWAP1 PUSH1 0xFF SWAP1 PUSH2 0x1A87 JUMP JUMPDEST PUSH1 0x0 DUP2 DUP2 MSTORE PUSH1 0x3 PUSH1 0x20 SWAP1 DUP2 MSTORE PUSH1 0x40 DUP1 DUP4 KECCAK256 CALLER DUP5 MSTORE SWAP1 SWAP2 MSTORE SWAP1 KECCAK256 PUSH1 0xFF SWAP1 PUSH2 0x1A87 JUMP JUMPDEST PUSH1 0x0 SWAP1 DUP1 DUP3 MSTORE PUSH1 0x3 PUSH1 0x20 MSTORE PUSH1 0xFF PUSH2 0x1B36 DUP5 PUSH1 0x40 DUP6 KECCAK256 SWAP1 PUSH1 0x1 DUP1 PUSH1 0xA0 SHL SUB AND PUSH1 0x0 MSTORE PUSH1 0x20 MSTORE PUSH1 0x40 PUSH1 0x0 KECCAK256 SWAP1 JUMP JUMPDEST SLOAD AND PUSH2 0x1B9E JUMPI DUP1 DUP3 MSTORE PUSH1 0x3 PUSH1 0x20 SWAP1 DUP2 MSTORE PUSH1 0x40 DUP1 DUP5 KECCAK256 PUSH1 0x1 PUSH1 0x1 PUSH1 0xA0 SHL SUB DUP7 AND PUSH1 0x0 SWAP1 DUP2 MSTORE SWAP3 MSTORE SWAP1 KECCAK256 DUP1 SLOAD PUSH1 0xFF NOT AND PUSH1 0x1 OR SWAP1 SSTORE CALLER SWAP3 PUSH1 0x1 PUSH1 0x1 PUSH1 0xA0 SHL SUB AND SWAP2 PUSH32 0x2F8788117E7EFF1D82E926EC794901D17C78024A50270940304540A733656F0D SWAP1 DUP1 LOG4 PUSH1 0x1 SWAP1 JUMP JUMPDEST POP SWAP1 POP SWAP1 JUMP JUMPDEST PUSH1 0x0 SWAP1 DUP1 DUP3 MSTORE PUSH1 0x3 PUSH1 0x20 MSTORE PUSH1 0xFF PUSH2 0x1BD0 DUP5 PUSH1 0x40 DUP6 KECCAK256 SWAP1 PUSH1 0x1 DUP1 PUSH1 0xA0 SHL SUB AND PUSH1 0x0 MSTORE PUSH1 0x20 MSTORE PUSH1 0x40 PUSH1 0x0 KECCAK256 SWAP1 JUMP JUMPDEST SLOAD AND ISZERO PUSH2 0x1B9E JUMPI DUP1 DUP3 MSTORE PUSH1 0x3 PUSH1 0x20 SWAP1 DUP2 MSTORE PUSH1 0x40 DUP1 DUP5 KECCAK256 PUSH1 0x1 PUSH1 0x1 PUSH1 0xA0 SHL SUB DUP7 AND PUSH1 0x0 SWAP1 DUP2 MSTORE SWAP3 MSTORE SWAP1 KECCAK256 DUP1 SLOAD PUSH1 0xFF NOT AND SWAP1 SSTORE CALLER SWAP3 PUSH1 0x1 PUSH1 0x1 PUSH1 0xA0 SHL SUB AND SWAP2 PUSH32 0xF6391F5C32D9C69D2A47EA670B442974B53935D1EDC7FD64EB21E047A839171B SWAP1 DUP1 LOG4 PUSH1 0x1 SWAP1 JUMP JUMPDEST PUSH4 0x4E487B71 PUSH1 0xE0 SHL PUSH1 0x0 MSTORE PUSH1 0x11 PUSH1 0x4 MSTORE PUSH1 0x24 PUSH1 0x0 REVERT JUMPDEST PUSH1 0x0 NOT DUP2 EQ PUSH2 0x1C5B JUMPI PUSH1 0x1 ADD SWAP1 JUMP JUMPDEST PUSH2 0x1C36 JUMP JUMPDEST DUP1 MLOAD DUP3 LT ISZERO PUSH2 0x1537 JUMPI PUSH1 0x20 SWAP2 PUSH1 0x5 SHL ADD ADD SWAP1 JUMP JUMPDEST SWAP2 SWAP1 SWAP2 DUP1 MLOAD DUP4 MLOAD DUP1 DUP3 SUB PUSH2 0x1D17 JUMPI POP POP DUP1 MLOAD SWAP1 PUSH2 0x1C90 DUP3 PUSH2 0x545 JUMP JUMPDEST SWAP2 PUSH2 0x1C9E PUSH1 0x40 MLOAD SWAP4 DUP5 PUSH2 0x514 JUMP JUMPDEST DUP1 DUP4 MSTORE PUSH2 0x1CAD PUSH1 0x1F NOT SWAP2 PUSH2 0x545 JUMP JUMPDEST ADD SWAP1 PUSH1 0x20 SWAP2 CALLDATASIZE DUP4 DUP6 ADD CALLDATACOPY PUSH1 0x0 JUMPDEST DUP2 MLOAD DUP2 LT ISZERO PUSH2 0x1D0F JUMPI PUSH1 0x5 DUP2 SWAP1 SHL DUP3 DUP2 ADD DUP5 ADD MLOAD SWAP1 DUP8 ADD DUP5 ADD MLOAD PUSH1 0x0 SWAP1 DUP2 MSTORE PUSH1 0x20 DUP2 DUP2 MSTORE PUSH1 0x40 DUP1 DUP4 KECCAK256 PUSH1 0x1 PUSH1 0x1 PUSH1 0xA0 SHL SUB SWAP1 SWAP5 AND DUP4 MSTORE SWAP3 SWAP1 MSTORE KECCAK256 SLOAD PUSH2 0x1D0A SWAP2 SWAP1 PUSH2 0x1D04 DUP3 DUP8 PUSH2 0x1C60 JUMP JUMPDEST MSTORE PUSH2 0x1C4C JUMP JUMPDEST PUSH2 0x1CBA JUMP JUMPDEST POP SWAP2 SWAP4 POP POP POP JUMP JUMPDEST PUSH1 0x40 MLOAD PUSH4 0x5B059991 PUSH1 0xE0 SHL DUP2 MSTORE PUSH1 0x4 DUP2 ADD SWAP2 SWAP1 SWAP2 MSTORE PUSH1 0x24 DUP2 ADD SWAP2 SWAP1 SWAP2 MSTORE PUSH1 0x44 SWAP1 REVERT JUMPDEST SWAP5 SWAP2 SWAP1 SWAP2 DUP2 MLOAD DUP5 MLOAD SWAP1 DUP2 DUP2 SUB PUSH2 0x1D17 JUMPI POP POP PUSH1 0x0 JUMPDEST DUP3 MLOAD DUP2 LT ISZERO PUSH2 0x1E4A JUMPI PUSH1 0x5 DUP2 SWAP1 SHL DUP4 DUP2 ADD PUSH1 0x20 SWAP1 DUP2 ADD MLOAD SWAP2 DUP8 ADD ADD MLOAD PUSH1 0x1 PUSH1 0x1 PUSH1 0xA0 SHL SUB SWAP3 SWAP2 DUP7 SWAP1 DUP11 DUP6 AND PUSH2 0x1DC3 JUMPI JUMPDEST PUSH2 0x1D91 SWAP5 DUP3 AND PUSH2 0x1D96 JUMPI JUMPDEST POP POP POP PUSH2 0x1C4C JUMP JUMPDEST PUSH2 0x1D4E JUMP JUMPDEST PUSH2 0x1DB9 SWAP2 PUSH2 0xCE7 PUSH2 0x1DB1 SWAP3 PUSH1 0x0 MSTORE PUSH1 0x0 PUSH1 0x20 MSTORE PUSH1 0x40 PUSH1 0x0 KECCAK256 SWAP1 JUMP JUMPDEST SWAP2 DUP3 SLOAD PUSH2 0x1F40 JUMP JUMPDEST SWAP1 SSTORE CODESIZE DUP6 DUP2 PUSH2 0x1D89 JUMP JUMPDEST SWAP2 SWAP3 SWAP4 SWAP1 POP PUSH2 0x1DE0 DUP11 PUSH2 0xCE7 DUP5 PUSH1 0x0 MSTORE PUSH1 0x0 PUSH1 0x20 MSTORE PUSH1 0x40 PUSH1 0x0 KECCAK256 SWAP1 JUMP JUMPDEST SLOAD DUP4 DUP2 LT PUSH2 0x1E13 JUMPI SWAP2 DUP8 SWAP2 DUP5 PUSH2 0x1D91 SWAP7 SWAP6 SWAP5 SUB PUSH2 0x1E0B DUP14 PUSH2 0xCE7 DUP6 PUSH1 0x0 MSTORE PUSH1 0x0 PUSH1 0x20 MSTORE PUSH1 0x40 PUSH1 0x0 KECCAK256 SWAP1 JUMP JUMPDEST SSTORE SWAP5 POP PUSH2 0x1D7E JUMP JUMPDEST PUSH1 0x40 MLOAD PUSH4 0x3DEE4C5 PUSH1 0xE0 SHL DUP2 MSTORE PUSH1 0x1 PUSH1 0x1 PUSH1 0xA0 SHL SUB DUP13 AND PUSH1 0x4 DUP3 ADD MSTORE PUSH1 0x24 DUP2 ADD SWAP2 SWAP1 SWAP2 MSTORE PUSH1 0x44 DUP2 ADD DUP5 SWAP1 MSTORE PUSH1 0x64 DUP2 ADD DUP4 SWAP1 MSTORE PUSH1 0x84 SWAP1 REVERT JUMPDEST POP SWAP5 SWAP2 SWAP4 SWAP3 SWAP1 SWAP4 PUSH1 0x1 DUP6 MLOAD EQ PUSH1 0x0 EQ PUSH2 0x1EF5 JUMPI PUSH1 0x20 DUP6 DUP2 ADD MLOAD DUP4 DUP3 ADD MLOAD PUSH1 0x40 DUP1 MLOAD SWAP3 DUP4 MSTORE SWAP3 DUP3 ADD MSTORE PUSH1 0x1 PUSH1 0x1 PUSH1 0xA0 SHL SUB DUP4 DUP2 AND SWAP3 SWAP1 DUP7 AND SWAP2 CALLER SWAP2 PUSH32 0xC3D58168C5AE7397731D063D5BBF3D657854427343F4C083240F7AACAA2D0F62 SWAP2 LOG4 JUMPDEST PUSH1 0x1 PUSH1 0x1 PUSH1 0xA0 SHL SUB DUP2 AND PUSH2 0x1EBE JUMPI JUMPDEST POP POP POP POP POP JUMP JUMPDEST DUP5 MLOAD PUSH1 0x1 SUB PUSH2 0x1EE4 JUMPI PUSH1 0x20 DUP1 PUSH2 0x1EDA SWAP7 ADD MLOAD SWAP3 ADD MLOAD SWAP3 CALLER PUSH2 0x2134 JUMP JUMPDEST CODESIZE DUP1 DUP1 DUP1 DUP1 PUSH2 0x1EB7 JUMP JUMPDEST PUSH2 0x1EF0 SWAP5 SWAP2 SWAP3 CALLER PUSH2 0x2280 JUMP JUMPDEST PUSH2 0x1EDA JUMP JUMPDEST PUSH1 0x40 MLOAD PUSH1 0x1 PUSH1 0x1 PUSH1 0xA0 SHL SUB DUP3 DUP2 AND SWAP2 SWAP1 DUP6 AND SWAP1 CALLER SWAP1 PUSH32 0x4A39DC06D4C0DBC64B70AF90FD698A233A518AA5D07E595D983B8C0526C8F7FB SWAP1 DUP1 PUSH2 0x1F38 DUP9 DUP13 DUP4 PUSH2 0x1F4D JUMP JUMPDEST SUB SWAP1 LOG4 PUSH2 0x1EA8 JUMP JUMPDEST SWAP2 SWAP1 DUP3 ADD DUP1 SWAP3 GT PUSH2 0x1C5B JUMPI JUMP JUMPDEST SWAP1 SWAP2 PUSH2 0x1F64 PUSH2 0x629 SWAP4 PUSH1 0x40 DUP5 MSTORE PUSH1 0x40 DUP5 ADD SWAP1 PUSH2 0x950 JUMP JUMPDEST SWAP2 PUSH1 0x20 DUP2 DUP5 SUB SWAP2 ADD MSTORE PUSH2 0x950 JUMP JUMPDEST SWAP1 DUP2 PUSH1 0x20 SWAP2 SUB SLT PUSH2 0x2C1 JUMPI MLOAD PUSH2 0x629 DUP2 PUSH2 0x33D JUMP JUMPDEST SWAP1 SWAP3 PUSH1 0xA0 SWAP3 PUSH2 0x629 SWAP6 SWAP5 PUSH1 0x1 DUP1 DUP7 SHL SUB AND DUP4 MSTORE PUSH1 0x0 PUSH1 0x20 DUP5 ADD MSTORE PUSH1 0x40 DUP4 ADD MSTORE PUSH1 0x60 DUP3 ADD MSTORE DUP2 PUSH1 0x80 DUP3 ADD MSTORE ADD SWAP1 PUSH2 0x3FA JUMP JUMPDEST SWAP2 SWAP3 PUSH2 0x629 SWAP6 SWAP5 SWAP2 PUSH1 0xA0 SWAP5 PUSH1 0x1 DUP1 DUP8 SHL SUB DUP1 SWAP3 AND DUP6 MSTORE AND PUSH1 0x20 DUP5 ADD MSTORE PUSH1 0x40 DUP4 ADD MSTORE PUSH1 0x60 DUP3 ADD MSTORE DUP2 PUSH1 0x80 DUP3 ADD MSTORE ADD SWAP1 PUSH2 0x3FA JUMP JUMPDEST PUSH1 0x40 MLOAD RETURNDATASIZE PUSH1 0x0 DUP3 RETURNDATACOPY RETURNDATASIZE SWAP1 REVERT JUMPDEST PUSH1 0x40 MLOAD SWAP1 PUSH2 0x2004 DUP3 PUSH2 0x4F8 JUMP JUMPDEST PUSH1 0x0 DUP3 MSTORE JUMP JUMPDEST RETURNDATASIZE ISZERO PUSH2 0x2035 JUMPI RETURNDATASIZE SWAP1 PUSH2 0x201B DUP3 PUSH2 0x5BB JUMP JUMPDEST SWAP2 PUSH2 0x2029 PUSH1 0x40 MLOAD SWAP4 DUP5 PUSH2 0x514 JUMP JUMPDEST DUP3 MSTORE RETURNDATASIZE PUSH1 0x0 PUSH1 0x20 DUP5 ADD RETURNDATACOPY JUMP JUMPDEST PUSH1 0x60 SWAP1 JUMP JUMPDEST SWAP3 SWAP4 SWAP2 SWAP1 SWAP4 DUP5 EXTCODESIZE PUSH2 0x204C JUMPI POP POP POP POP POP JUMP JUMPDEST PUSH1 0x20 SWAP2 PUSH2 0x206F PUSH1 0x40 MLOAD SWAP5 DUP6 SWAP4 DUP5 SWAP4 PUSH4 0xF23A6E61 PUSH1 0xE0 SHL SWAP9 DUP10 DUP7 MSTORE PUSH1 0x4 DUP7 ADD PUSH2 0x1F87 JUMP JUMPDEST SUB DUP2 PUSH1 0x0 PUSH1 0x1 PUSH1 0x1 PUSH1 0xA0 SHL SUB DUP9 AND GAS CALL PUSH1 0x0 SWAP2 DUP2 PUSH2 0x2104 JUMPI JUMPDEST POP PUSH2 0x20C7 JUMPI DUP3 PUSH2 0x2096 PUSH2 0x200A JUMP JUMPDEST DUP1 MLOAD SWAP2 SWAP1 DUP3 PUSH2 0x20C0 JUMPI PUSH1 0x40 MLOAD PUSH4 0x2BFA23E7 PUSH1 0xE1 SHL DUP2 MSTORE PUSH1 0x1 PUSH1 0x1 PUSH1 0xA0 SHL SUB DUP4 AND PUSH1 0x4 DUP3 ADD MSTORE PUSH1 0x24 SWAP1 REVERT JUMPDEST SWAP1 POP PUSH1 0x20 ADD REVERT JUMPDEST PUSH1 0x1 PUSH1 0x1 PUSH1 0xE0 SHL SUB NOT AND SUB PUSH2 0x20E1 JUMPI POP CODESIZE DUP1 DUP1 DUP1 DUP1 PUSH2 0x1EB7 JUMP JUMPDEST PUSH1 0x40 MLOAD PUSH4 0x2BFA23E7 PUSH1 0xE1 SHL DUP2 MSTORE PUSH1 0x1 PUSH1 0x1 PUSH1 0xA0 SHL SUB SWAP2 SWAP1 SWAP2 AND PUSH1 0x4 DUP3 ADD MSTORE PUSH1 0x24 SWAP1 REVERT JUMPDEST PUSH2 0x2126 SWAP2 SWAP3 POP PUSH1 0x20 RETURNDATASIZE DUP2 GT PUSH2 0x212D JUMPI JUMPDEST PUSH2 0x211E DUP2 DUP4 PUSH2 0x514 JUMP JUMPDEST DUP2 ADD SWAP1 PUSH2 0x1F72 JUMP JUMPDEST SWAP1 CODESIZE PUSH2 0x2088 JUMP JUMPDEST POP RETURNDATASIZE PUSH2 0x2114 JUMP JUMPDEST SWAP4 SWAP3 SWAP1 SWAP5 SWAP2 SWAP5 DUP6 EXTCODESIZE PUSH2 0x2149 JUMPI JUMPDEST POP POP POP POP POP POP JUMP JUMPDEST PUSH2 0x216C PUSH1 0x20 SWAP4 PUSH1 0x40 MLOAD SWAP6 DUP7 SWAP5 DUP6 SWAP5 PUSH4 0xF23A6E61 PUSH1 0xE0 SHL SWAP10 DUP11 DUP8 MSTORE PUSH1 0x4 DUP8 ADD PUSH2 0x1FB8 JUMP JUMPDEST SUB DUP2 PUSH1 0x0 PUSH1 0x1 PUSH1 0x1 PUSH1 0xA0 SHL SUB DUP9 AND GAS CALL PUSH1 0x0 SWAP2 DUP2 PUSH2 0x21AE JUMPI JUMPDEST POP PUSH2 0x2193 JUMPI DUP3 PUSH2 0x2096 PUSH2 0x200A JUMP JUMPDEST PUSH1 0x1 PUSH1 0x1 PUSH1 0xE0 SHL SUB NOT AND SUB PUSH2 0x20E1 JUMPI POP CODESIZE DUP1 DUP1 DUP1 DUP1 DUP1 PUSH2 0x2141 JUMP JUMPDEST PUSH2 0x21C7 SWAP2 SWAP3 POP PUSH1 0x20 RETURNDATASIZE DUP2 GT PUSH2 0x212D JUMPI PUSH2 0x211E DUP2 DUP4 PUSH2 0x514 JUMP JUMPDEST SWAP1 CODESIZE PUSH2 0x2185 JUMP JUMPDEST SWAP3 PUSH2 0x21FD PUSH2 0x629 SWAP6 SWAP4 PUSH2 0x220B SWAP4 PUSH1 0x1 DUP1 PUSH1 0xA0 SHL SUB AND DUP7 MSTORE PUSH1 0x0 PUSH1 0x20 DUP8 ADD MSTORE PUSH1 0xA0 PUSH1 0x40 DUP8 ADD MSTORE PUSH1 0xA0 DUP7 ADD SWAP1 PUSH2 0x950 JUMP JUMPDEST SWAP1 DUP5 DUP3 SUB PUSH1 0x60 DUP7 ADD MSTORE PUSH2 0x950 JUMP JUMPDEST SWAP2 PUSH1 0x80 DUP2 DUP5 SUB SWAP2 ADD MSTORE PUSH2 0x3FA JUMP JUMPDEST SWAP4 SWAP1 PUSH2 0x629 SWAP6 SWAP4 PUSH2 0x21FD SWAP2 PUSH2 0x220B SWAP5 PUSH1 0x1 DUP1 PUSH1 0xA0 SHL SUB DUP1 SWAP3 AND DUP9 MSTORE AND PUSH1 0x20 DUP8 ADD MSTORE PUSH1 0xA0 PUSH1 0x40 DUP8 ADD MSTORE PUSH1 0xA0 DUP7 ADD SWAP1 PUSH2 0x950 JUMP JUMPDEST SWAP3 SWAP4 SWAP2 SWAP1 SWAP4 DUP5 EXTCODESIZE PUSH2 0x225D JUMPI POP POP POP POP POP JUMP JUMPDEST PUSH1 0x20 SWAP2 PUSH2 0x206F PUSH1 0x40 MLOAD SWAP5 DUP6 SWAP4 DUP5 SWAP4 PUSH4 0xBC197C81 PUSH1 0xE0 SHL SWAP9 DUP10 DUP7 MSTORE PUSH1 0x4 DUP7 ADD PUSH2 0x21CE JUMP JUMPDEST SWAP4 SWAP3 SWAP1 SWAP5 SWAP2 SWAP5 DUP6 EXTCODESIZE PUSH2 0x2294 JUMPI POP POP POP POP POP POP JUMP JUMPDEST PUSH2 0x216C PUSH1 0x20 SWAP4 PUSH1 0x40 MLOAD SWAP6 DUP7 SWAP5 DUP6 SWAP5 PUSH4 0xBC197C81 PUSH1 0xE0 SHL SWAP10 DUP11 DUP8 MSTORE PUSH1 0x4 DUP8 ADD PUSH2 0x2219 JUMP JUMPDEST SWAP1 PUSH1 0xA DUP3 MUL SWAP2 DUP1 DUP4 DIV PUSH1 0xA EQ SWAP1 ISZERO OR ISZERO PUSH2 0x1C5B JUMPI JUMP JUMPDEST DUP2 DUP2 MUL SWAP3 SWAP2 DUP2 ISZERO SWAP2 DUP5 DIV EQ OR ISZERO PUSH2 0x1C5B JUMPI JUMP JUMPDEST DUP2 ISZERO PUSH2 0x22EA JUMPI DIV SWAP1 JUMP JUMPDEST PUSH4 0x4E487B71 PUSH1 0xE0 SHL PUSH1 0x0 MSTORE PUSH1 0x12 PUSH1 0x4 MSTORE PUSH1 0x24 PUSH1 0x0 REVERT JUMPDEST SWAP1 DUP2 PUSH1 0x20 SWAP2 SUB SLT PUSH2 0x2C1 JUMPI MLOAD PUSH2 0x629 DUP2 PUSH2 0x1231 JUMP JUMPDEST PUSH1 0xFF PUSH1 0x4 SLOAD AND PUSH2 0x2321 JUMPI JUMP JUMPDEST PUSH1 0x40 MLOAD PUSH4 0xD93C0665 PUSH1 0xE0 SHL DUP2 MSTORE PUSH1 0x4 SWAP1 REVERT JUMPDEST PUSH1 0x2 PUSH1 0x5 SLOAD EQ PUSH2 0x2344 JUMPI PUSH1 0x2 PUSH1 0x5 SSTORE JUMP JUMPDEST PUSH1 0x40 MLOAD PUSH4 0x3EE5AEB5 PUSH1 0xE0 SHL DUP2 MSTORE PUSH1 0x4 SWAP1 REVERT JUMPDEST SWAP5 SWAP2 SWAP4 SWAP3 SWAP1 SWAP4 PUSH2 0x2364 PUSH2 0x2315 JUMP JUMPDEST PUSH2 0x236C PUSH2 0x2333 JUMP JUMPDEST PUSH9 0x3635C9ADC5DEA00000 DUP7 LT PUSH2 0x2571 JUMPI PUSH1 0x12 PUSH1 0xFF DUP5 AND GT PUSH2 0x255F JUMPI PUSH1 0x32 DUP2 GT PUSH2 0x254D JUMPI PUSH1 0xA DUP5 GT PUSH2 0x253B JUMPI PUSH1 0x40 MLOAD PUSH4 0x23B872DD PUSH1 0xE0 SHL DUP2 MSTORE CALLER PUSH1 0x4 DUP3 ADD MSTORE ADDRESS PUSH1 0x24 DUP3 ADD MSTORE PUSH1 0x44 DUP2 ADD DUP8 SWAP1 MSTORE PUSH1 0x20 DUP2 PUSH1 0x64 DUP2 PUSH1 0x0 PUSH1 0x1 PUSH1 0x1 PUSH1 0xA0 SHL SUB PUSH32 0x0 AND GAS CALL SWAP1 DUP2 ISZERO PUSH2 0xE39 JUMPI PUSH1 0x0 SWAP2 PUSH2 0x251D JUMPI JUMPDEST POP ISZERO PUSH2 0x175D JUMPI PUSH2 0x2510 PUSH32 0x209E4CC824C27FB4D0B3D56450B5CDEAD204B21BFB8286755C4865B577A8A28F SWAP4 PUSH2 0x2434 PUSH2 0xD54 DUP10 PUSH1 0xC SLOAD PUSH2 0x1F40 JUMP JUMPDEST PUSH1 0x7 SLOAD SWAP8 DUP9 SWAP7 PUSH2 0x244B PUSH2 0x2446 DUP10 PUSH2 0x1C4C JUMP JUMPDEST PUSH1 0x7 SSTORE JUMP JUMPDEST PUSH2 0x24D5 PUSH2 0x2463 PUSH2 0x1050 PUSH2 0x245D DUP7 PUSH2 0x2583 JUMP JUMPDEST DUP6 PUSH2 0x22CD JUMP JUMPDEST SWAP4 PUSH2 0x249D PUSH2 0x246F PUSH2 0x536 JUMP JUMPDEST CALLER DUP2 MSTORE SWAP2 PUSH2 0x247E CALLDATASIZE DUP11 DUP16 PUSH2 0x5D7 JUMP JUMPDEST PUSH1 0x20 DUP5 ADD MSTORE PUSH2 0x248E CALLDATASIZE DUP7 DUP13 PUSH2 0x5D7 JUMP JUMPDEST PUSH1 0x40 DUP5 ADD MSTORE PUSH1 0xFF AND PUSH1 0x60 DUP4 ADD MSTORE JUMP JUMPDEST DUP5 PUSH1 0x80 DUP3 ADD MSTORE DUP4 PUSH1 0xA0 DUP3 ADD MSTORE DUP5 PUSH1 0xC0 DUP3 ADD MSTORE PUSH2 0x24BC PUSH1 0xE0 DUP3 ADD PUSH1 0x1 SWAP1 MSTORE JUMP JUMPDEST PUSH2 0x24D0 DUP11 PUSH1 0x0 MSTORE PUSH1 0xA PUSH1 0x20 MSTORE PUSH1 0x40 PUSH1 0x0 KECCAK256 SWAP1 JUMP JUMPDEST PUSH2 0x26B7 JUMP JUMPDEST CALLER PUSH1 0x0 SWAP1 DUP2 MSTORE PUSH1 0xB PUSH1 0x20 MSTORE PUSH1 0x40 SWAP1 KECCAK256 PUSH2 0x24EF SWAP1 DUP10 SWAP1 PUSH2 0x275F JUMP JUMPDEST PUSH2 0x2502 PUSH2 0x24FA PUSH2 0x1FF7 JUMP JUMPDEST DUP5 DUP11 CALLER PUSH2 0x27F1 JUMP JUMPDEST PUSH1 0x40 MLOAD SWAP6 DUP7 SWAP6 CALLER SWAP11 DUP8 PUSH2 0x27BA JUMP JUMPDEST SUB SWAP1 LOG3 PUSH2 0x629 PUSH1 0x1 PUSH1 0x5 SSTORE JUMP JUMPDEST PUSH2 0x2535 SWAP2 POP PUSH1 0x20 RETURNDATASIZE DUP2 GT PUSH2 0xE32 JUMPI PUSH2 0xE24 DUP2 DUP4 PUSH2 0x514 JUMP JUMPDEST CODESIZE PUSH2 0x23FA JUMP JUMPDEST PUSH1 0x40 MLOAD PUSH4 0x1124F78B PUSH1 0xE0 SHL DUP2 MSTORE PUSH1 0x4 SWAP1 REVERT JUMPDEST PUSH1 0x40 MLOAD PUSH4 0x680B6CAF PUSH1 0xE0 SHL DUP2 MSTORE PUSH1 0x4 SWAP1 REVERT JUMPDEST PUSH1 0x40 MLOAD PUSH4 0x692ACC5 PUSH1 0xE5 SHL DUP2 MSTORE PUSH1 0x4 SWAP1 REVERT JUMPDEST PUSH1 0x40 MLOAD PUSH4 0x2CA2F52B PUSH1 0xE1 SHL DUP2 MSTORE PUSH1 0x4 SWAP1 REVERT JUMPDEST PUSH1 0xFF AND PUSH1 0x4D DUP2 GT PUSH2 0x1C5B JUMPI PUSH1 0xA EXP SWAP1 JUMP JUMPDEST SWAP1 PUSH1 0x1F DUP2 GT PUSH2 0x25A2 JUMPI POP POP POP JUMP JUMPDEST PUSH1 0x0 SWAP2 DUP3 MSTORE PUSH1 0x20 DUP3 KECCAK256 SWAP1 PUSH1 0x20 PUSH1 0x1F DUP6 ADD PUSH1 0x5 SHR DUP4 ADD SWAP5 LT PUSH2 0x25DE JUMPI JUMPDEST PUSH1 0x1F ADD PUSH1 0x5 SHR ADD SWAP2 JUMPDEST DUP3 DUP2 LT PUSH2 0x25D3 JUMPI POP POP POP JUMP JUMPDEST DUP2 DUP2 SSTORE PUSH1 0x1 ADD PUSH2 0x25C7 JUMP JUMPDEST SWAP1 SWAP3 POP DUP3 SWAP1 PUSH2 0x25BE JUMP JUMPDEST SWAP2 SWAP1 SWAP2 DUP3 MLOAD PUSH8 0xFFFFFFFFFFFFFFFF DUP2 GT PUSH2 0x4F3 JUMPI PUSH2 0x2610 DUP2 PUSH2 0x260A DUP5 SLOAD PUSH2 0x135A JUMP JUMPDEST DUP5 PUSH2 0x2594 JUMP JUMPDEST PUSH1 0x20 DUP1 PUSH1 0x1F DUP4 GT PUSH1 0x1 EQ PUSH2 0x264C JUMPI POP DUP2 SWAP3 SWAP4 SWAP5 PUSH1 0x0 SWAP3 PUSH2 0x2641 JUMPI JUMPDEST POP POP DUP2 PUSH1 0x1 SHL SWAP2 PUSH1 0x0 NOT SWAP1 PUSH1 0x3 SHL SHR NOT AND OR SWAP1 SSTORE JUMP JUMPDEST ADD MLOAD SWAP1 POP CODESIZE DUP1 PUSH2 0x262B JUMP JUMPDEST SWAP1 PUSH1 0x1F NOT DUP4 AND SWAP6 PUSH2 0x2662 DUP6 PUSH1 0x0 MSTORE PUSH1 0x20 PUSH1 0x0 KECCAK256 SWAP1 JUMP JUMPDEST SWAP3 PUSH1 0x0 SWAP1 JUMPDEST DUP9 DUP3 LT PUSH2 0x269F JUMPI POP POP DUP4 PUSH1 0x1 SWAP6 SWAP7 SWAP8 LT PUSH2 0x2686 JUMPI JUMPDEST POP POP POP DUP2 SHL ADD SWAP1 SSTORE JUMP JUMPDEST ADD MLOAD PUSH1 0x0 NOT PUSH1 0xF8 DUP5 PUSH1 0x3 SHL AND SHR NOT AND SWAP1 SSTORE CODESIZE DUP1 DUP1 PUSH2 0x267C JUMP JUMPDEST DUP1 PUSH1 0x1 DUP6 SWAP7 DUP3 SWAP5 SWAP7 DUP7 ADD MLOAD DUP2 SSTORE ADD SWAP6 ADD SWAP4 ADD SWAP1 PUSH2 0x2667 JUMP JUMPDEST DUP2 MLOAD DUP2 SLOAD PUSH1 0x1 PUSH1 0x1 PUSH1 0xA0 SHL SUB NOT AND PUSH1 0x1 PUSH1 0x1 PUSH1 0xA0 SHL SUB SWAP1 SWAP2 AND OR DUP2 SSTORE PUSH2 0x543 SWAP2 PUSH1 0x7 SWAP1 PUSH2 0x274C SWAP1 PUSH1 0xE0 SWAP1 PUSH2 0x26F2 PUSH1 0x20 DUP3 ADD MLOAD PUSH1 0x1 DUP8 ADD PUSH2 0x25E8 JUMP JUMPDEST PUSH2 0x2703 PUSH1 0x40 DUP3 ADD MLOAD PUSH1 0x2 DUP8 ADD PUSH2 0x25E8 JUMP JUMPDEST PUSH2 0x2727 PUSH2 0x2714 PUSH1 0x60 DUP4 ADD MLOAD PUSH1 0xFF AND SWAP1 JUMP JUMPDEST PUSH1 0x3 DUP8 ADD SWAP1 PUSH1 0xFF AND PUSH1 0xFF NOT DUP3 SLOAD AND OR SWAP1 SSTORE JUMP JUMPDEST PUSH1 0x80 DUP2 ADD MLOAD PUSH1 0x4 DUP7 ADD SSTORE PUSH1 0xA0 DUP2 ADD MLOAD PUSH1 0x5 DUP7 ADD SSTORE PUSH1 0xC0 DUP2 ADD MLOAD PUSH1 0x6 DUP7 ADD SSTORE ADD MLOAD ISZERO ISZERO SWAP1 JUMP JUMPDEST SWAP2 ADD SWAP1 PUSH1 0xFF DUP1 NOT DUP4 SLOAD AND SWAP2 ISZERO ISZERO AND OR SWAP1 SSTORE JUMP JUMPDEST DUP1 SLOAD PUSH9 0x10000000000000000 DUP2 LT ISZERO PUSH2 0x4F3 JUMPI PUSH2 0x2781 SWAP2 PUSH1 0x1 DUP3 ADD DUP2 SSTORE PUSH2 0x151F JUMP JUMPDEST DUP2 SWAP3 SWAP2 SLOAD SWAP1 PUSH1 0x3 SHL SWAP2 DUP3 SHL SWAP2 PUSH1 0x0 NOT SWAP1 SHL NOT AND OR SWAP1 SSTORE JUMP JUMPDEST SWAP1 DUP1 PUSH1 0x20 SWAP4 SWAP3 DUP2 DUP5 MSTORE DUP5 DUP5 ADD CALLDATACOPY PUSH1 0x0 DUP3 DUP3 ADD DUP5 ADD MSTORE PUSH1 0x1F ADD PUSH1 0x1F NOT AND ADD ADD SWAP1 JUMP JUMPDEST SWAP3 SWAP1 SWAP4 PUSH2 0x27D9 PUSH1 0x60 SWAP6 PUSH2 0x27E7 SWAP5 SWAP10 SWAP9 SWAP8 SWAP10 PUSH1 0x80 DUP8 MSTORE PUSH1 0x80 DUP8 ADD SWAP2 PUSH2 0x2799 JUMP JUMPDEST SWAP2 DUP5 DUP4 SUB PUSH1 0x20 DUP7 ADD MSTORE PUSH2 0x2799 JUMP JUMPDEST SWAP5 PUSH1 0x40 DUP3 ADD MSTORE ADD MSTORE JUMP JUMPDEST PUSH1 0x1 PUSH1 0x1 PUSH1 0xA0 SHL SUB DUP2 AND SWAP4 SWAP3 SWAP1 SWAP2 SWAP1 DUP5 ISZERO PUSH2 0x1938 JUMPI PUSH2 0x282D PUSH1 0x40 MLOAD SWAP3 PUSH1 0x1 DUP5 MSTORE PUSH1 0x20 DUP5 ADD MSTORE PUSH1 0x40 DUP4 ADD SWAP2 PUSH1 0x1 DUP4 MSTORE PUSH1 0x60 DUP5 ADD MSTORE PUSH1 0x80 DUP4 ADD PUSH1 0x40 MSTORE JUMP JUMPDEST SWAP3 DUP2 MLOAD DUP5 MLOAD SWAP1 DUP2 DUP2 SUB PUSH2 0x1D17 JUMPI POP POP PUSH1 0x0 JUMPDEST DUP3 MLOAD DUP2 LT ISZERO PUSH2 0x2884 JUMPI DUP1 PUSH2 0x287F SWAP2 PUSH1 0x5 SHL PUSH2 0x2878 PUSH2 0x1DB1 DUP8 PUSH2 0xCE7 PUSH1 0x20 DUP1 DUP7 DUP12 ADD ADD MLOAD SWAP6 DUP13 ADD ADD MLOAD SWAP5 PUSH1 0x0 MSTORE PUSH1 0x0 PUSH1 0x20 MSTORE PUSH1 0x40 PUSH1 0x0 KECCAK256 SWAP1 JUMP JUMPDEST SWAP1 SSTORE PUSH2 0x1C4C JUMP JUMPDEST PUSH2 0x283F JUMP JUMPDEST POP SWAP3 SWAP2 SWAP4 PUSH1 0x1 DUP3 MLOAD EQ PUSH1 0x0 EQ PUSH2 0x28FB JUMPI PUSH1 0x20 DUP3 DUP2 ADD MLOAD DUP5 DUP3 ADD MLOAD PUSH1 0x40 DUP1 MLOAD SWAP3 DUP4 MSTORE SWAP3 DUP3 ADD MSTORE PUSH1 0x0 SWAP2 CALLER SWAP2 PUSH32 0xC3D58168C5AE7397731D063D5BBF3D657854427343F4C083240F7AACAA2D0F62 SWAP2 SWAP1 LOG4 JUMPDEST DUP1 MLOAD PUSH1 0x1 SUB PUSH2 0x28F1 JUMPI SWAP1 PUSH1 0x20 DUP1 PUSH2 0x543 SWAP6 SWAP4 ADD MLOAD SWAP2 ADD MLOAD SWAP2 CALLER PUSH2 0x203A JUMP JUMPDEST PUSH2 0x543 SWAP4 CALLER PUSH2 0x224B JUMP JUMPDEST PUSH1 0x0 PUSH1 0x40 MLOAD PUSH32 0x4A39DC06D4C0DBC64B70AF90FD698A233A518AA5D07E595D983B8C0526C8F7FB CALLER SWAP2 DUP1 PUSH2 0x292F DUP9 DUP9 DUP4 PUSH2 0x1F4D JUMP JUMPDEST SUB SWAP1 LOG4 PUSH2 0x28D3 JUMP JUMPDEST PUSH1 0x0 NOT DUP2 ADD SWAP2 SWAP1 DUP3 GT PUSH2 0x1C5B JUMPI JUMP JUMPDEST SWAP2 SWAP1 DUP3 SUB SWAP2 DUP3 GT PUSH2 0x1C5B JUMPI JUMP JUMPDEST PUSH1 0x1 PUSH1 0x1 PUSH1 0xA0 SHL SUB DUP2 AND SWAP3 SWAP1 SWAP2 SWAP1 DUP4 ISZERO PUSH2 0x1920 JUMPI PUSH2 0x298E PUSH1 0x40 MLOAD SWAP3 PUSH1 0x1 DUP5 MSTORE PUSH1 0x20 DUP5 ADD MSTORE PUSH1 0x40 DUP4 ADD SWAP2 PUSH1 0x1 DUP4 MSTORE PUSH1 0x60 DUP5 ADD MSTORE PUSH1 0x80 DUP4 ADD PUSH1 0x40 MSTORE JUMP JUMPDEST SWAP2 SWAP1 PUSH1 0x40 SWAP5 PUSH1 0x0 DUP7 MLOAD PUSH2 0x29A0 DUP2 PUSH2 0x4F8 JUMP JUMPDEST MSTORE DUP2 MLOAD DUP5 MLOAD SWAP1 DUP2 DUP2 SUB PUSH2 0x2AD4 JUMPI POP POP PUSH1 0x0 JUMPDEST DUP3 MLOAD DUP2 LT ISZERO PUSH2 0x2A4D JUMPI DUP1 PUSH1 0x5 SHL PUSH1 0x20 DUP1 DUP3 DUP7 ADD ADD MLOAD SWAP2 DUP8 ADD ADD MLOAD PUSH2 0x29E4 DUP7 PUSH2 0xCE7 DUP5 PUSH1 0x0 MSTORE PUSH1 0x0 PUSH1 0x20 MSTORE PUSH1 0x40 PUSH1 0x0 KECCAK256 SWAP1 JUMP JUMPDEST SLOAD DUP2 DUP2 LT PUSH2 0x2A17 JUMPI DUP7 PUSH2 0xCE7 PUSH2 0x2A12 SWAP6 SWAP5 SWAP4 PUSH2 0x2A0C SWAP4 SUB SWAP4 PUSH1 0x0 MSTORE PUSH1 0x0 PUSH1 0x20 MSTORE PUSH1 0x40 PUSH1 0x0 KECCAK256 SWAP1 JUMP JUMPDEST SSTORE PUSH2 0x1C4C JUMP JUMPDEST PUSH2 0x29B2 JUMP JUMPDEST DUP10 MLOAD PUSH4 0x3DEE4C5 PUSH1 0xE0 SHL DUP2 MSTORE PUSH1 0x1 PUSH1 0x1 PUSH1 0xA0 SHL SUB DUP9 AND PUSH1 0x4 DUP3 ADD MSTORE PUSH1 0x24 DUP2 ADD SWAP2 SWAP1 SWAP2 MSTORE PUSH1 0x44 DUP2 ADD DUP3 SWAP1 MSTORE PUSH1 0x64 DUP2 ADD DUP4 SWAP1 MSTORE PUSH1 0x84 SWAP1 REVERT JUMPDEST POP SWAP5 SWAP1 PUSH1 0x0 SWAP5 SWAP4 SWAP3 POP PUSH1 0x1 DUP2 MLOAD EQ DUP6 EQ PUSH2 0x2AA2 JUMPI PUSH1 0x20 SWAP1 DUP2 ADD MLOAD SWAP3 DUP2 ADD MLOAD SWAP2 MLOAD SWAP3 DUP4 MSTORE DUP3 ADD MSTORE CALLER SWAP1 PUSH32 0xC3D58168C5AE7397731D063D5BBF3D657854427343F4C083240F7AACAA2D0F62 SWAP1 DUP1 PUSH1 0x40 DUP2 ADD JUMPDEST SUB SWAP1 LOG4 JUMP JUMPDEST SWAP1 MLOAD CALLER SWAP3 PUSH32 0x4A39DC06D4C0DBC64B70AF90FD698A233A518AA5D07E595D983B8C0526C8F7FB SWAP3 DUP3 SWAP2 PUSH2 0x2A9D SWAP2 DUP4 PUSH2 0x1F4D JUMP JUMPDEST DUP8 MLOAD PUSH4 0x5B059991 PUSH1 0xE0 SHL DUP2 MSTORE PUSH1 0x4 DUP2 ADD SWAP2 SWAP1 SWAP2 MSTORE PUSH1 0x24 DUP2 ADD SWAP2 SWAP1 SWAP2 MSTORE PUSH1 0x44 SWAP1 REVERT JUMPDEST SWAP1 PUSH2 0x543 PUSH2 0x2B77 PUSH1 0x7 PUSH2 0x2B06 PUSH2 0x536 JUMP JUMPDEST DUP6 SLOAD PUSH1 0x1 PUSH1 0x1 PUSH1 0xA0 SHL SUB AND DUP2 MSTORE SWAP5 PUSH2 0x2B20 PUSH1 0x1 DUP3 ADD PUSH2 0x1394 JUMP JUMPDEST PUSH1 0x20 DUP8 ADD MSTORE PUSH2 0x2B31 PUSH1 0x2 DUP3 ADD PUSH2 0x1394 JUMP JUMPDEST PUSH1 0x40 DUP8 ADD MSTORE PUSH2 0x2B51 PUSH2 0x2B47 PUSH1 0x3 DUP4 ADD SLOAD PUSH1 0xFF AND SWAP1 JUMP JUMPDEST PUSH1 0xFF AND PUSH1 0x60 DUP9 ADD MSTORE JUMP JUMPDEST PUSH1 0x4 DUP2 ADD SLOAD PUSH1 0x80 DUP8 ADD MSTORE PUSH1 0x5 DUP2 ADD SLOAD PUSH1 0xA0 DUP8 ADD MSTORE PUSH1 0x6 DUP2 ADD SLOAD PUSH1 0xC0 DUP8 ADD MSTORE ADD SLOAD PUSH1 0xFF AND SWAP1 JUMP JUMPDEST ISZERO ISZERO PUSH1 0xE0 DUP5 ADD MSTORE JUMP JUMPDEST PUSH1 0x0 MSTORE PUSH1 0xA PUSH1 0x20 MSTORE PUSH1 0x40 PUSH1 0x0 KECCAK256 PUSH1 0xFF PUSH1 0x7 DUP3 ADD SLOAD AND ISZERO DUP1 ISZERO PUSH2 0x2BC5 JUMPI JUMPDEST PUSH2 0x2BBE JUMPI PUSH1 0x4 PUSH2 0x2BB5 PUSH2 0x629 SWAP4 PUSH1 0x5 DUP5 ADD SLOAD SWAP1 PUSH2 0x22CD JUMP JUMPDEST SWAP2 ADD SLOAD SWAP1 PUSH2 0x22E0 JUMP JUMPDEST POP POP PUSH1 0x0 SWAP1 JUMP JUMPDEST POP PUSH1 0x4 DUP2 ADD SLOAD ISZERO PUSH2 0x2B9D JUMP JUMPDEST SWAP1 PUSH2 0x2BE4 PUSH1 0x20 SWAP3 DUP3 DUP2 MLOAD SWAP5 DUP6 SWAP3 ADD PUSH2 0x3D7 JUMP JUMPDEST ADD SWAP1 JUMP JUMPDEST DUP1 ISZERO DUP1 ISZERO PUSH2 0x2CE4 JUMPI JUMPDEST PUSH2 0x2CDB JUMPI PUSH2 0x2C0C PUSH2 0x2C11 SWAP2 PUSH1 0x0 MSTORE PUSH1 0xA PUSH1 0x20 MSTORE PUSH1 0x40 PUSH1 0x0 KECCAK256 SWAP1 JUMP JUMPDEST PUSH2 0x2AF5 JUMP JUMPDEST PUSH2 0x2C21 PUSH2 0xCB9 PUSH1 0xE0 DUP4 ADD MLOAD ISZERO ISZERO SWAP1 JUMP JUMPDEST PUSH2 0x2CDB JUMPI PUSH2 0x629 DUP2 PUSH2 0x2CCD PUSH2 0x2CC0 PUSH1 0x20 PUSH2 0x2C8F SWAP6 ADD MLOAD SWAP3 PUSH2 0x2C89 PUSH2 0x2CA7 PUSH2 0x2C62 PUSH2 0x2C5D PUSH2 0x2C57 PUSH1 0x60 PUSH1 0x40 DUP8 ADD MLOAD SWAP7 ADD MLOAD PUSH1 0xFF AND SWAP1 JUMP JUMPDEST PUSH1 0xFF AND SWAP1 JUMP JUMPDEST PUSH2 0x2D12 JUMP JUMPDEST SWAP3 PUSH2 0x2C89 PUSH1 0x40 MLOAD SWAP10 DUP11 SWAP9 PUSH2 0x2C89 PUSH1 0x20 DUP12 ADD PUSH1 0x9 SWAP1 PUSH9 0x3D913730B6B2911D11 PUSH1 0xB9 SHL DUP2 MSTORE ADD SWAP1 JUMP JUMPDEST SWAP1 PUSH2 0x2BD1 JUMP JUMPDEST PUSH12 0x11161139BCB6B137B6111D11 PUSH1 0xA1 SHL DUP2 MSTORE PUSH1 0xC ADD SWAP1 JUMP JUMPDEST PUSH13 0x1116113232B1B4B6B0B639911D PUSH1 0x99 SHL DUP2 MSTORE PUSH1 0xD ADD SWAP1 JUMP JUMPDEST PUSH1 0x7D PUSH1 0xF8 SHL DUP2 MSTORE PUSH1 0x1 ADD SWAP1 JUMP JUMPDEST SUB PUSH1 0x1F NOT DUP2 ADD DUP4 MSTORE DUP3 PUSH2 0x514 JUMP JUMPDEST POP PUSH2 0x629 PUSH2 0x1FF7 JUMP JUMPDEST POP PUSH1 0x7 SLOAD DUP2 LT ISZERO PUSH2 0x2BF1 JUMP JUMPDEST PUSH1 0xFF AND PUSH1 0x30 ADD SWAP1 PUSH1 0xFF DUP3 GT PUSH2 0x1C5B JUMPI JUMP JUMPDEST SWAP1 DUP2 MLOAD DUP2 LT ISZERO PUSH2 0x1537 JUMPI ADD PUSH1 0x20 ADD SWAP1 JUMP JUMPDEST DUP1 ISZERO PUSH2 0x2DC6 JUMPI DUP1 PUSH1 0x0 DUP3 DUP2 SWAP4 JUMPDEST PUSH2 0x2DB2 JUMPI POP DUP2 PUSH2 0x2D2E DUP5 PUSH2 0x5BB JUMP JUMPDEST SWAP4 PUSH2 0x2D3C PUSH1 0x40 MLOAD SWAP6 DUP7 PUSH2 0x514 JUMP JUMPDEST DUP1 DUP6 MSTORE PUSH1 0x1F NOT PUSH2 0x2D4B DUP3 PUSH2 0x5BB JUMP JUMPDEST ADD CALLDATASIZE PUSH1 0x20 DUP8 ADD CALLDATACOPY SWAP1 JUMPDEST PUSH2 0x2D5E JUMPI POP POP POP SWAP1 JUMP JUMPDEST PUSH2 0x2D67 SWAP1 PUSH2 0x2937 JUMP JUMPDEST SWAP2 DUP3 PUSH2 0x2DAA PUSH2 0x2DA1 PUSH2 0x2D91 PUSH2 0x2D8C PUSH2 0x2C57 PUSH1 0xA DUP8 DIV SWAP7 PUSH2 0x2D86 DUP9 PUSH2 0x22B7 JUMP JUMPDEST SWAP1 PUSH2 0x2946 JUMP JUMPDEST PUSH2 0x2CF0 JUMP JUMPDEST PUSH1 0xF8 SHL PUSH1 0x1 PUSH1 0x1 PUSH1 0xF8 SHL SUB NOT AND SWAP1 JUMP JUMPDEST DUP5 BYTE SWAP2 DUP7 PUSH2 0x2D01 JUMP JUMPDEST MSTORE8 SWAP2 DUP3 PUSH2 0x2D54 JUMP JUMPDEST SWAP3 PUSH2 0x2DBE PUSH1 0xA SWAP2 PUSH2 0x1C4C JUMP JUMPDEST SWAP4 DIV DUP1 PUSH2 0x2D1F JUMP JUMPDEST POP PUSH1 0x40 MLOAD PUSH1 0x40 DUP2 ADD DUP2 DUP2 LT PUSH8 0xFFFFFFFFFFFFFFFF DUP3 GT OR PUSH2 0x4F3 JUMPI PUSH1 0x40 MSTORE PUSH1 0x1 DUP2 MSTORE PUSH1 0x3 PUSH1 0xFC SHL PUSH1 0x20 DUP3 ADD MSTORE SWAP1 JUMP INVALID LOG2 PUSH5 0x6970667358 0x22 SLT KECCAK256 SGT 0xE3 DUP3 0xB7 CALLDATALOAD EXTCODEHASH SGT DUP10 0x4D 0xAA 0xE4 0xD3 SWAP12 SWAP10 CALLCODE SWAP9 0xB4 0xDE 0x4C PUSH13 0xBDF79DC82417526B424271F764 PUSH20 0x6F6C634300081400332F8788117E7EFF1D82E926 0xEC PUSH26 0x4901D17C78024A50270940304540A733656F0D00000000000000 "},"methodIdentifiers":{"DEFAULT_ADMIN_ROLE()":"a217fddf","EMERGENCY_ROLE()":"20df4359","MAX_GAME_TOKEN_DECIMALS()":"df525b7d","MIN_XP_LOCK_AMOUNT()":"8760550d","PAUSER_ROLE()":"e63ab1e9","PRECISION_FACTOR()":"ccd34cd5","RATE_MANAGER_ROLE()":"cb327b8b","balanceOf(address,uint256)":"00fdd58e","balanceOfBatch(address[],uint256[])":"4e1273f4","burnGameToken(uint256,uint256)":"5ed6c1db","calculateXpAmount(uint256)":"74b334c5","calculateXpReturn(uint256,uint256)":"3b420a73","createGameToken(uint256,string,string,uint8)":"fd44d274","cridaToXpRate()":"6dd9cbd4","cridaToken()":"6d8061b8","emergencyWithdraw(address,address,uint256)":"e63ea408","gameTokens(uint256)":"bf034b69","getGameTokenInfo(uint256)":"5e79c1dc","getRoleAdmin(bytes32)":"248a9ca3","getUserGameTokens(address)":"546fdad4","grantRole(bytes32,address)":"2f2ff15d","hasRole(bytes32,address)":"91d14854","isApprovedForAll(address,address)":"e985e9c5","lockCrida(uint256)":"97e05e86","nextGameId()":"b135bbb0","pause()":"8456cb59","paused()":"5c975abb","renounceRole(bytes32,address)":"36568abe","revokeRole(bytes32,address)":"d547741f","safeBatchTransferFrom(address,address,uint256[],uint256[],bytes)":"2eb2c2d6","safeTransferFrom(address,address,uint256,uint256,bytes)":"f242432a","setApprovalForAll(address,bool)":"a22cb465","setRate(uint256)":"34fcf437","supportsInterface(bytes4)":"01ffc9a7","totalLockedCrida()":"e8321987","unpause()":"3f4ba83a","uri(uint256)":"0e89341c","userGameTokens(address,uint256)":"c21c64a7","userLockedCrida(address)":"cb4cd556","xpReserves()":"6d8554e2","xpToken()":"ae5014b1"}}}}}