{"contracts/GameTokenFactory.sol":{"GameTokenFactory":{"abi":[{"inputs":[{"internalType":"address","name":"_credaToken","type":"address"},{"internalType":"address","name":"_xpToken","type":"address"}],"stateMutability":"nonpayable","type":"constructor"},{"inputs":[],"name":"AccessControlBadConfirmation","type":"error"},{"inputs":[{"internalType":"address","name":"account","type":"address"},{"internalType":"bytes32","name":"neededRole","type":"bytes32"}],"name":"AccessControlUnauthorizedAccount","type":"error"},{"inputs":[],"name":"DuplicateGameName","type":"error"},{"inputs":[],"name":"EnforcedPause","type":"error"},{"inputs":[],"name":"ExpectedPause","type":"error"},{"inputs":[],"name":"GameTokenDeploymentFailed","type":"error"},{"inputs":[],"name":"GameTokenNotActive","type":"error"},{"inputs":[],"name":"InsufficientAmount","type":"error"},{"inputs":[],"name":"InsufficientXpReserves","type":"error"},{"inputs":[],"name":"InvalidAddress","type":"error"},{"inputs":[],"name":"InvalidDecimals","type":"error"},{"inputs":[],"name":"InvalidGameId","type":"error"},{"inputs":[],"name":"NameTooLong","type":"error"},{"inputs":[],"name":"ReentrancyGuardReentrantCall","type":"error"},{"inputs":[],"name":"SymbolTooLong","type":"error"},{"inputs":[],"name":"TransferFailed","type":"error"},{"inputs":[],"name":"ZeroAmount","type":"error"},{"inputs":[],"name":"ZeroRate","type":"error"},{"anonymous":false,"inputs":[{"indexed":true,"internalType":"address","name":"user","type":"address"},{"indexed":false,"internalType":"uint256","name":"credaAmount","type":"uint256"},{"indexed":false,"internalType":"uint256","name":"xpMinted","type":"uint256"}],"name":"CredaLocked","type":"event"},{"anonymous":false,"inputs":[{"indexed":true,"internalType":"address","name":"token","type":"address"},{"indexed":true,"internalType":"address","name":"to","type":"address"},{"indexed":false,"internalType":"uint256","name":"amount","type":"uint256"}],"name":"EmergencyWithdraw","type":"event"},{"anonymous":false,"inputs":[{"indexed":true,"internalType":"uint256","name":"gameId","type":"uint256"},{"indexed":true,"internalType":"address","name":"user","type":"address"},{"indexed":false,"internalType":"uint256","name":"burnAmount","type":"uint256"},{"indexed":false,"internalType":"uint256","name":"xpReturned","type":"uint256"}],"name":"GameTokenBurned","type":"event"},{"anonymous":false,"inputs":[{"indexed":true,"internalType":"uint256","name":"gameId","type":"uint256"},{"indexed":true,"internalType":"address","name":"creator","type":"address"},{"indexed":true,"internalType":"address","name":"tokenAddress","type":"address"},{"indexed":false,"internalType":"string","name":"name","type":"string"},{"indexed":false,"internalType":"string","name":"symbol","type":"string"},{"indexed":false,"internalType":"uint256","name":"xpLocked","type":"uint256"},{"indexed":false,"internalType":"uint256","name":"initialSupply","type":"uint256"}],"name":"GameTokenCreated","type":"event"},{"anonymous":false,"inputs":[{"indexed":false,"internalType":"address","name":"account","type":"address"}],"name":"Paused","type":"event"},{"anonymous":false,"inputs":[{"indexed":false,"internalType":"uint256","name":"oldRate","type":"uint256"},{"indexed":false,"internalType":"uint256","name":"newRate","type":"uint256"}],"name":"RateUpdated","type":"event"},{"anonymous":false,"inputs":[{"indexed":true,"internalType":"bytes32","name":"role","type":"bytes32"},{"indexed":true,"internalType":"bytes32","name":"previousAdminRole","type":"bytes32"},{"indexed":true,"internalType":"bytes32","name":"newAdminRole","type":"bytes32"}],"name":"RoleAdminChanged","type":"event"},{"anonymous":false,"inputs":[{"indexed":true,"internalType":"bytes32","name":"role","type":"bytes32"},{"indexed":true,"internalType":"address","name":"account","type":"address"},{"indexed":true,"internalType":"address","name":"sender","type":"address"}],"name":"RoleGranted","type":"event"},{"anonymous":false,"inputs":[{"indexed":true,"internalType":"bytes32","name":"role","type":"bytes32"},{"indexed":true,"internalType":"address","name":"account","type":"address"},{"indexed":true,"internalType":"address","name":"sender","type":"address"}],"name":"RoleRevoked","type":"event"},{"anonymous":false,"inputs":[{"indexed":false,"internalType":"address","name":"account","type":"address"}],"name":"Unpaused","type":"event"},{"inputs":[],"name":"DEFAULT_ADMIN_ROLE","outputs":[{"internalType":"bytes32","name":"","type":"bytes32"}],"stateMutability":"view","type":"function"},{"inputs":[],"name":"EMERGENCY_ROLE","outputs":[{"internalType":"bytes32","name":"","type":"bytes32"}],"stateMutability":"view","type":"function"},{"inputs":[],"name":"MAX_GAME_TOKEN_DECIMALS","outputs":[{"internalType":"uint256","name":"","type":"uint256"}],"stateMutability":"view","type":"function"},{"inputs":[],"name":"MAX_NAME_LENGTH","outputs":[{"internalType":"uint256","name":"","type":"uint256"}],"stateMutability":"view","type":"function"},{"inputs":[],"name":"MAX_SYMBOL_LENGTH","outputs":[{"internalType":"uint256","name":"","type":"uint256"}],"stateMutability":"view","type":"function"},{"inputs":[],"name":"MIN_XP_LOCK_AMOUNT","outputs":[{"internalType":"uint256","name":"","type":"uint256"}],"stateMutability":"view","type":"function"},{"inputs":[],"name":"PAUSER_ROLE","outputs":[{"internalType":"bytes32","name":"","type":"bytes32"}],"stateMutability":"view","type":"function"},{"inputs":[],"name":"PRECISION_FACTOR","outputs":[{"internalType":"uint256","name":"","type":"uint256"}],"stateMutability":"view","type":"function"},{"inputs":[],"name":"RATE_MANAGER_ROLE","outputs":[{"internalType":"bytes32","name":"","type":"bytes32"}],"stateMutability":"view","type":"function"},{"inputs":[{"internalType":"uint256","name":"gameId","type":"uint256"},{"internalType":"uint256","name":"burnAmount","type":"uint256"}],"name":"burnGameToken","outputs":[],"stateMutability":"nonpayable","type":"function"},{"inputs":[{"internalType":"uint256","name":"credaAmount","type":"uint256"}],"name":"calculateXpAmount","outputs":[{"internalType":"uint256","name":"","type":"uint256"}],"stateMutability":"view","type":"function"},{"inputs":[{"internalType":"uint256","name":"gameId","type":"uint256"},{"internalType":"uint256","name":"burnAmount","type":"uint256"}],"name":"calculateXpReturn","outputs":[{"internalType":"uint256","name":"","type":"uint256"}],"stateMutability":"view","type":"function"},{"inputs":[{"internalType":"uint256","name":"xpAmount","type":"uint256"},{"internalType":"string","name":"name","type":"string"},{"internalType":"string","name":"symbol","type":"string"},{"internalType":"uint8","name":"decimals","type":"uint8"}],"name":"createGameToken","outputs":[{"internalType":"uint256","name":"gameId","type":"uint256"},{"internalType":"address","name":"tokenAddress","type":"address"}],"stateMutability":"nonpayable","type":"function"},{"inputs":[],"name":"credaToXpRate","outputs":[{"internalType":"uint256","name":"","type":"uint256"}],"stateMutability":"view","type":"function"},{"inputs":[],"name":"credaToken","outputs":[{"internalType":"contract IERC20","name":"","type":"address"}],"stateMutability":"view","type":"function"},{"inputs":[{"internalType":"address","name":"token","type":"address"},{"internalType":"address","name":"to","type":"address"},{"internalType":"uint256","name":"amount","type":"uint256"}],"name":"emergencyWithdraw","outputs":[],"stateMutability":"nonpayable","type":"function"},{"inputs":[{"internalType":"uint256","name":"","type":"uint256"}],"name":"gameTokenMetadata","outputs":[{"internalType":"string","name":"name","type":"string"},{"internalType":"string","name":"symbol","type":"string"},{"internalType":"uint256","name":"initialSupply","type":"uint256"},{"internalType":"uint256","name":"creationTime","type":"uint256"}],"stateMutability":"view","type":"function"},{"inputs":[{"internalType":"uint256","name":"","type":"uint256"}],"name":"gameTokens","outputs":[{"internalType":"address","name":"tokenAddress","type":"address"},{"internalType":"address","name":"creator","type":"address"},{"internalType":"uint88","name":"xpLocked","type":"uint88"},{"internalType":"uint8","name":"decimals","type":"uint8"},{"internalType":"bool","name":"active","type":"bool"}],"stateMutability":"view","type":"function"},{"inputs":[{"internalType":"uint256","name":"gameId","type":"uint256"}],"name":"getGameTokenInfo","outputs":[{"components":[{"internalType":"address","name":"tokenAddress","type":"address"},{"internalType":"address","name":"creator","type":"address"},{"internalType":"uint88","name":"xpLocked","type":"uint88"},{"internalType":"uint8","name":"decimals","type":"uint8"},{"internalType":"bool","name":"active","type":"bool"}],"internalType":"struct GameTokenFactory.GameTokenInfo","name":"info","type":"tuple"},{"components":[{"internalType":"string","name":"name","type":"string"},{"internalType":"string","name":"symbol","type":"string"},{"internalType":"uint256","name":"initialSupply","type":"uint256"},{"internalType":"uint256","name":"creationTime","type":"uint256"}],"internalType":"struct GameTokenFactory.GameTokenMetadata","name":"metadata","type":"tuple"}],"stateMutability":"view","type":"function"},{"inputs":[{"internalType":"bytes32","name":"role","type":"bytes32"}],"name":"getRoleAdmin","outputs":[{"internalType":"bytes32","name":"","type":"bytes32"}],"stateMutability":"view","type":"function"},{"inputs":[{"internalType":"address","name":"user","type":"address"}],"name":"getUserGameTokens","outputs":[{"internalType":"uint256[]","name":"","type":"uint256[]"}],"stateMutability":"view","type":"function"},{"inputs":[{"internalType":"bytes32","name":"role","type":"bytes32"},{"internalType":"address","name":"account","type":"address"}],"name":"grantRole","outputs":[],"stateMutability":"nonpayable","type":"function"},{"inputs":[{"internalType":"bytes32","name":"role","type":"bytes32"},{"internalType":"address","name":"account","type":"address"}],"name":"hasRole","outputs":[{"internalType":"bool","name":"","type":"bool"}],"stateMutability":"view","type":"function"},{"inputs":[{"internalType":"address","name":"user","type":"address"},{"internalType":"string","name":"name","type":"string"}],"name":"isGameNameUsed","outputs":[{"internalType":"bool","name":"","type":"bool"}],"stateMutability":"view","type":"function"},{"inputs":[{"internalType":"uint256","name":"amountCreda","type":"uint256"}],"name":"lockCreda","outputs":[],"stateMutability":"nonpayable","type":"function"},{"inputs":[],"name":"nextGameId","outputs":[{"internalType":"uint256","name":"","type":"uint256"}],"stateMutability":"view","type":"function"},{"inputs":[],"name":"pause","outputs":[],"stateMutability":"nonpayable","type":"function"},{"inputs":[],"name":"paused","outputs":[{"internalType":"bool","name":"","type":"bool"}],"stateMutability":"view","type":"function"},{"inputs":[{"internalType":"bytes32","name":"role","type":"bytes32"},{"internalType":"address","name":"callerConfirmation","type":"address"}],"name":"renounceRole","outputs":[],"stateMutability":"nonpayable","type":"function"},{"inputs":[{"internalType":"bytes32","name":"role","type":"bytes32"},{"internalType":"address","name":"account","type":"address"}],"name":"revokeRole","outputs":[],"stateMutability":"nonpayable","type":"function"},{"inputs":[{"internalType":"uint256","name":"newRate","type":"uint256"}],"name":"setRate","outputs":[],"stateMutability":"nonpayable","type":"function"},{"inputs":[{"internalType":"bytes4","name":"interfaceId","type":"bytes4"}],"name":"supportsInterface","outputs":[{"internalType":"bool","name":"","type":"bool"}],"stateMutability":"view","type":"function"},{"inputs":[],"name":"totalLockedCreda","outputs":[{"internalType":"uint256","name":"","type":"uint256"}],"stateMutability":"view","type":"function"},{"inputs":[],"name":"unpause","outputs":[],"stateMutability":"nonpayable","type":"function"},{"inputs":[{"internalType":"address","name":"","type":"address"},{"internalType":"string","name":"","type":"string"}],"name":"userGameNames","outputs":[{"internalType":"bool","name":"","type":"bool"}],"stateMutability":"view","type":"function"},{"inputs":[{"internalType":"address","name":"","type":"address"},{"internalType":"uint256","name":"","type":"uint256"}],"name":"userGameTokens","outputs":[{"internalType":"uint256","name":"","type":"uint256"}],"stateMutability":"view","type":"function"},{"inputs":[{"internalType":"address","name":"","type":"address"}],"name":"userLockedCreda","outputs":[{"internalType":"uint256","name":"","type":"uint256"}],"stateMutability":"view","type":"function"},{"inputs":[],"name":"xpReserves","outputs":[{"internalType":"uint256","name":"","type":"uint256"}],"stateMutability":"view","type":"function"},{"inputs":[],"name":"xpToken","outputs":[{"internalType":"contract IERC20","name":"","type":"address"}],"stateMutability":"view","type":"function"}],"evm":{"bytecode":{"linkReferences":{},"object":"60c0346200012357601f620038ec38819003918201601f19168301916001600160401b038311848410176200012857808492604094855283398101031262000123576200005a602062000052836200013e565b92016200013e565b60016002819055670de0b6b3a76400006003556004556001600160a01b039182168015801562000118575b62000106576080521660a0526200009c3362000153565b50620000a833620001d3565b50620000b43362000275565b50620000c03362000312565b5060405161351c9081620003b08239608051818181610b150152610f92015260a05181818161030f015281816104710152818161101f01528181611128015261143e0152f35b60405163e6c4247b60e01b8152600490fd5b508282161562000085565b600080fd5b634e487b7160e01b600052604160045260246000fd5b51906001600160a01b03821682036200012357565b6001600160a01b031660008181527fad3228b676f7d3cd4284a5443f17f1962b36e491b30a40b2405849e597ba5fb5602052604081205490919060ff16620001cf57818052816020526040822081835260205260408220600160ff198254161790553391600080516020620038cc8339815191528180a4600190565b5090565b6001600160a01b031660008181527f43393de9c580acbb6a28cd9d65b7ec5698943d0e6fec07062b42a76c1fb8aeb960205260408120549091907f9f29eee2263c2102949fd3febafb3dd6dbbaee114f48a474222b2159942eb2b29060ff166200027057808352826020526040832082845260205260408320600160ff19825416179055600080516020620038cc833981519152339380a4600190565b505090565b6001600160a01b031660008181527ff7c9542c591017a21c74b6f3fab6263c7952fc0aaf9db4c22a2a04ddc7f8674f60205260408120549091907f65d7a28e3265b37a6474929f336521b332c1681b933f6cb9f3376673440d862a9060ff166200027057808352826020526040832082845260205260408320600160ff19825416179055600080516020620038cc833981519152339380a4600190565b6001600160a01b031660008181527f3c1b1854ab1360abbb06c8d4c6b2672d4b8cedc5eff522ab19e51d5cb8fdbd4660205260408120549091907fbf233dd2aafeb4d50879c4aa5c81e96d92f6e6945c906a58f9f2d1c1631b4b269060ff166200027057808352826020526040832082845260205260408320600160ff19825416179055600080516020620038cc833981519152339380a460019056fe60808060405260043610156200001457600080fd5b600090813560e01c90816301ffc9a71462001b775750806305a619541462001af5578063078199451462001ab85780631bf44cb01462001a1d57806320df435914620019e0578063238d4af814620019c0578063248a9ca314620019925780632f2ff15d146200194d57806334fcf43714620018a257806336568abe14620018535780633b420a73146200182c5780633f4ba83a14620017bc578063546fdad414620017045780635c975abb14620016df5780635e79c1dc14620015485780635ed6c1db14620012e05780636d8554e214620012c057806374b334c514620012885780638456cb59146200122857806386074985146200120a5780638760550d14620011e457806391d148541462001195578063a217fddf1462001177578063aa6450ce1462001157578063ae5014b11462001110578063b135bbb014620010f0578063bec697db1462000f11578063bf034b691462000ea5578063c21c64a71462000e48578063cb327b8b1462000e0b578063ccd34cd51462000de6578063d547741f1462000d9d578063df525b7d1462000d7f578063e3d891711462000d61578063e63ab1e91462000d24578063e63ea4081462000b44578063ecdf8fc41462000afd578063f71575581462000a7d5763fd44d27414620001f657600080fd5b3462000a7a57608036600319011262000a7a576024356001600160401b03811162000a76576200022b90369060040162001e4d565b906044356001600160401b03811162000a72576200024e90369060040162001e4d565b9290916064359260ff8416840362000a6e576200026a62002069565b6200027462002088565b683635c9adc5dea000006004351062000a5c57601260ff85161162000a4a578215801562000a3f575b62000a2d578415801562000a22575b62000a1057338652600a60205260ff604087206020604051809287878337878201908152030190205416620009fe576040516323b872dd60e01b8152336004808301919091523060248301523560448201526020816064818a6001600160a01b037f0000000000000000000000000000000000000000000000000000000000000000165af1908115620009f3578791620009cf575b5015620004ba5762000358600435600b546200205b565b600b55600454946000198614620009bb5760018601600455604d60ff861611620009bb57670de0b6b3a76400006200039960ff8716600a0a60043562001ff6565b0492604051806113018101106001600160401b0361130183011117620009a757611301620021e6823960e061130182015280620003fb620003e360e06113018401018986620020aa565b611301830181036020611301850101528587620020aa565b60ff891661130183016040810191909152606081018890523360808201523060a082015260c0018a9052039089f0806200050e578862000440600435600b54620020cb565b600b5560405163a9059cbb60e01b815233600480830191909152356024820152602081604481856001600160a01b037f0000000000000000000000000000000000000000000000000000000000000000165af1918215620005025791620004cc575b5015620004ba5760405162b5d57b60e61b8152600490fd5b6040516312171d8360e31b8152600490fd5b620004f3915060203d602011620004fa575b620004ea818362001c5c565b81019062002041565b81620004a2565b503d620004de565b604051903d90823e3d90fd5b6040516001600160a01b03919091169660ff906200052c8362001c0e565b60018060a01b03891683523360208401526001600160581b036004351660408401521660608201526001608082015287895260076020526080600260408b2060018060a01b038451166bffffffffffffffffffffffff60a01b82541617815560018060a01b036020850151166001600160581b0360a01b604086015160a01b1660ff60f81b606087015160f81b16911717600182015501910151151560ff80198354169116179055604051620005e28162001c40565b620005ef36878462001dcb565b8152620005fe36848662001dcb565b60208201528460408201524260608201528789526008602052604089209080518051906001600160401b038211620008c65781906200063e855462001bd1565b601f811162000954575b50602090601f8311600114620008e6578d92620008da575b50508160011b916000199060031b1c19161782555b60208101518051906001600160401b038211620008c6576200069b600185015462001bd1565b601f81116200087c575b506020908c601f841160011462000805579260039492819260609592620007f9575b505060001982861b1c1916600191821b17908501555b60408101516002850155015191015533885260096020526040882080549068010000000000000000821015620007e557916040809a6200072e846200078c98979660016200077d9701815562001e1e565b81549060031b908d821b91600019901b1916179055338152600a6020522060208b5180928a8583378a820190815203019020600160ff19825416179055895196608088526080880191620020aa565b918583036020870152620020aa565b90600435868401526060830152837f36b9329ca62bde49b750d7ab93525ccc2ff4ced5c2745cd242894377ec4b5d0560018060a01b038516938033940390a4600160025582519182526001600160a01b03166020820152f35b634e487b7160e01b8a52604160045260248afd5b015190503880620006c7565b5090600185018d5260208d20918d5b601f1985168110620008635750926003949260019260609583601f198116106200084a575b505050811b016001850155620006dd565b015160001983881b60f8161c1916905538808062000839565b9192602060018192868501518155019401920162000814565b600185018d5260208d20601f840160051c810160208510620008be575b601f830160051c82018110620008b1575050620006a5565b6000815560010162000899565b508062000899565b634e487b7160e01b8c52604160045260248cfd5b01519050388062000660565b9250848d5260208d20908d935b601f198416851062000938576001945083601f198116106200091e575b505050811b01825562000675565b015160001960f88460031b161c1916905538808062000910565b81810151835560209485019460019093019290910190620008f3565b909150848d5260208d20601f840160051c8101602085106200099f575b90849392915b601f830160051c820181106200098f57505062000648565b6000815585945060010162000977565b508062000971565b634e487b7160e01b89526041600452602489fd5b634e487b7160e01b87526011600452602487fd5b620009ec915060203d602011620004fa57620004ea818362001c5c565b3862000341565b6040513d89823e3d90fd5b6040516365d7bc1d60e01b8152600490fd5b604051631124f78b60e01b8152600490fd5b50600a8511620002ac565b60405163680b6caf60e01b8152600490fd5b50603283116200029d565b604051630692acc560e51b8152600490fd5b604051632ca2f52b60e11b8152600490fd5b8580fd5b8380fd5b5080fd5b80fd5b503462000a7a57604036600319011262000a7a5762000a9b62001d7c565b6024356001600160401b03811162000af95791602060ff92604062000ac68396369060040162001e4d565b6001600160a01b039093168552600a84529320604051938492908190843782019081520301902054166040519015158152f35b8280fd5b503462000a7a578060031936011262000a7a576040517f00000000000000000000000000000000000000000000000000000000000000006001600160a01b03168152602090f35b503462000a7a57606036600319011262000a7a5762000b6262001d7c565b62000b6c62001d98565b3360009081527f3c1b1854ab1360abbb06c8d4c6b2672d4b8cedc5eff522ab19e51d5cb8fdbd46602090815260409091205460443591907fbf233dd2aafeb4d50879c4aa5c81e96d92f6e6945c906a58f9f2d1c1631b4b269060ff161562000d0657506001600160a01b0383811694851562000cf457169281838562000c5d57878093508092508091885af13d1562000c57573d62000c0b8162001daf565b9062000c1b604051928362001c5c565b815286833d92013e5b15620004ba577ff24ef89f38eadc1bde50701ad6e4d6d11a2dc24f7cf834a486991f3883328504915b604051908152a380f35b62000c24565b60405163a9059cbb60e01b81526001600160a01b0393909316600484015260248301528160448189885af190811562000ce957869162000cc7575b5015620004ba577ff24ef89f38eadc1bde50701ad6e4d6d11a2dc24f7cf834a486991f38833285049162000c4d565b62000ce29150823d8411620004fa57620004ea818362001c5c565b3862000c98565b6040513d88823e3d90fd5b60405163e6c4247b60e01b8152600490fd5b6044906040519063e2517d3f60e01b82523360048301526024820152fd5b503462000a7a578060031936011262000a7a5760206040517f65d7a28e3265b37a6474929f336521b332c1681b933f6cb9f3376673440d862a8152f35b503462000a7a578060031936011262000a7a576020604051600a8152f35b503462000a7a578060031936011262000a7a57602060405160128152f35b503462000a7a57604036600319011262000a7a5762000de260043562000dc262001d98565b908084528360205262000ddc600160408620015462001eda565b62001f80565b5080f35b503462000a7a578060031936011262000a7a576020604051670de0b6b3a76400008152f35b503462000a7a578060031936011262000a7a5760206040517f9f29eee2263c2102949fd3febafb3dd6dbbaee114f48a474222b2159942eb2b28152f35b503462000a7a57604036600319011262000a7a5762000e6662001d7c565b6001600160a01b031681526009602052604081208054602435929083101562000a7a57602062000e97848462001e1e565b90546040519160031b1c8152f35b503462000a7a57602036600319011262000a7a57604060a0916004358152600760205220600180831b03808254169160ff600260018301549201541691604051938452811660208401526001600160581b0381851c16604084015260f81c606083015215156080820152f35b503462000a7a5760208060031936011262000a76576004359062000f3462002069565b62000f3e62002088565b8115620010de57670de0b6b3a764000062000f5c6003548462001ff6565b6040516323b872dd60e01b81523360048201523060248201526044810185905291900491906001600160a01b03908281606481897f000000000000000000000000000000000000000000000000000000000000000087165af190811562000ce9578691620010bc575b5015620004ba57338552600582526040852062000fe48582546200205b565b905562000ff4846006546200205b565b60065560405163a9059cbb60e01b8152336004820152602481018490529082908290604490829089907f0000000000000000000000000000000000000000000000000000000000000000165af1908115620010b15785916200108f575b5015620004ba576040519283528201527f9f7ba93b5a3c052166a93cfb443d72d1fec4f82bb913b1383b8f26c10fb7941e60403392a2600160025580f35b620010aa9150823d8411620004fa57620004ea818362001c5c565b3862001051565b6040513d87823e3d90fd5b620010d79150833d8511620004fa57620004ea818362001c5c565b3862000fc5565b604051631f2a200560e01b8152600490fd5b503462000a7a578060031936011262000a7a576020600454604051908152f35b503462000a7a578060031936011262000a7a576040517f00000000000000000000000000000000000000000000000000000000000000006001600160a01b03168152602090f35b503462000a7a578060031936011262000a7a576020600654604051908152f35b503462000a7a578060031936011262000a7a57602090604051908152f35b503462000a7a57604036600319011262000a7a576040620011b562001d98565b91600435815280602052209060018060a01b0316600052602052602060ff604060002054166040519015158152f35b503462000a7a578060031936011262000a7a576020604051683635c9adc5dea000008152f35b503462000a7a578060031936011262000a7a57602060405160328152f35b503462000a7a578060031936011262000a7a576200124562001e7d565b6200124f62002069565b600160ff19815416176001557f62e78cea01bee320cd4e420270b5ea74000d11b0c9f74754ebdbfc544b05a2586020604051338152a180f35b503462000a7a57602036600319011262000a7a576020670de0b6b3a7640000620012b760035460043562001ff6565b04604051908152f35b503462000a7a578060031936011262000a7a576020600b54604051908152f35b503462000a7a57620012f23662001e07565b90620012fd62002069565b6200130762002088565b8115620010de57801580156200153b575b6200152957808352602060078152604084209060ff60028301541615620015175782855260088152620013b060408620604051620013568162001c40565b620013618262001c7e565b8152620013716001830162001c7e565b8482015260606003600284015493604084019485520154910152620013a76001600160581b03600186015460a01c168762001ff6565b90519062002020565b9182600b54106200150557546001600160a01b03908116803b15620015015760405163079cc67960e41b8152336004820152602481018790529087908290604490829084905af18015620009f357620014d0575b506200141383600b54620020cb565b600b5560405163a9059cbb60e01b815233600482015260248101849052908290829060449082908a907f0000000000000000000000000000000000000000000000000000000000000000165af190811562000ce9578691620014ae575b5015620004ba576040519384528301527fefd5d515529a8f76c5944b1d953cde6b2c61c8b81e144c964aeb038714cabca660403393a3600160025580f35b620014c99150823d8411620004fa57620004ea818362001c5c565b3862001470565b6001600160401b038197929711620014ed57604052943862001404565b634e487b7160e01b82526041600452602482fd5b8680fd5b6040516331d2f70960e01b8152600490fd5b6040516307350d3b60e11b8152600490fd5b60405163bb97cc9b60e01b8152600490fd5b5060045481101562001318565b503462000a7a576020908160031936011262000a7a5760043591604051620015708162001c0e565b82815282828201528260408201528260609181838201526080015282816040516200159b8162001c40565b8181528185820152826040820152015283835260078252604083209160405193620015c68562001c0e565b600160a01b600190039586855416865260018501549383870194888116865260408801936001600160581b0397888360a01c168652838a019260f81c83526002015460ff169360808a0194151585528152600886526040902096604051946200162f8662001c40565b6200163a8962001c7e565b86526200164a60018a0162001c7e565b968087019788528b60028b01549a604089019b8c5260030154998689019a8b526040519d8e9d51168d525116908b0152511660408901525160ff1690870152511515608086015260a0850160c090525160c08501608090526101408501620016b29162001d55565b905184820360bf190160e0860152620016cc919062001d55565b9151610100840152516101208301520390f35b503462000a7a578060031936011262000a7a57602060ff600154166040519015158152f35b503462000a7a5760208060031936011262000a76576001600160a01b036200172b62001d7c565b168252600981526040822060405192838383549182815201908193835284832090835b818110620017a757505050846200176791038562001c5c565b60405193838594850191818652518092526040850193925b8281106200178f57505050500390f35b8351855286955093810193928101926001016200177f565b8254845292860192600192830192016200174e565b503462000a7a578060031936011262000a7a57620017d962001e7d565b60015460ff8116156200181a5760ff19166001557f5db9ee0a495bf2e6ff9c91a7834c1ba4fdd244a5e8aa4e537bd38aeae4b073aa6020604051338152a180f35b604051638dfc202b60e01b8152600490fd5b503462000a7a5760206200184b620018443662001e07565b90620020d9565b604051908152f35b503462000a7a57604036600319011262000a7a576200187162001d98565b336001600160a01b03821603620018905762000de29060043562001f80565b60405163334bd91960e11b8152600490fd5b503462000a7a57602036600319011262000a7a576004357f9f29eee2263c2102949fd3febafb3dd6dbbaee114f48a474222b2159942eb2b2808352826020526040832033845260205260ff6040842054161562000d06575080156200193b5760407fb38780ddde1f073d91c150de2696f3f7085883648ba21cc5ef01029cb21d191691600354908060035582519182526020820152a180f35b6040516314cee7cd60e11b8152600490fd5b503462000a7a57604036600319011262000a7a5762000de26004356200197262001d98565b90808452836020526200198c600160408620015462001eda565b62001f01565b503462000a7a57602036600319011262000a7a57600160406020926004358152808452200154604051908152f35b503462000a7a578060031936011262000a7a576020600354604051908152f35b503462000a7a578060031936011262000a7a5760206040517fbf233dd2aafeb4d50879c4aa5c81e96d92f6e6945c906a58f9f2d1c1631b4b268152f35b503462000a7a57604036600319011262000a7a5762001a3b62001d7c565b6024356001600160401b03811162000af9573660238201121562000af957602060ff926040829562001a7c62001aa395369060248160040135910162001dcb565b6001600160a01b039093168152600a84522060405182519094859382908590870162001d30565b82019081520301902054166040519015158152f35b503462000a7a57602036600319011262000a7a576020906040906001600160a01b0362001ae462001d7c565b168152600583522054604051908152f35b503462000a7a57602036600319011262000a7a57604062001b5991600435815260086020522062001b268162001c7e565b9062001b356001820162001c7e565b62001b68600360028401549301549160405195869560808752608087019062001d55565b90858203602087015262001d55565b91604084015260608301520390f35b90503462000a7657602036600319011262000a765760043563ffffffff60e01b811680910362000af95760209250637965db0b60e01b811490811562001bbf575b5015158152f35b6301ffc9a760e01b1490503862001bb8565b90600182811c9216801562001c03575b602083101462001bed57565b634e487b7160e01b600052602260045260246000fd5b91607f169162001be1565b60a081019081106001600160401b0382111762001c2a57604052565b634e487b7160e01b600052604160045260246000fd5b608081019081106001600160401b0382111762001c2a57604052565b90601f801991011681019081106001600160401b0382111762001c2a57604052565b906040519182600082549262001c948462001bd1565b90818452600194858116908160001462001d0b575060011462001cc4575b505062001cc29250038362001c5c565b565b9093915060005260209081600020936000915b81831062001cf257505062001cc29350820101388062001cb2565b8554888401850152948501948794509183019162001cd7565b91505062001cc294506020925060ff191682840152151560051b820101388062001cb2565b60005b83811062001d445750506000910152565b818101518382015260200162001d33565b9060209162001d708151809281855285808601910162001d30565b601f01601f1916010190565b600435906001600160a01b038216820362001d9357565b600080fd5b602435906001600160a01b038216820362001d9357565b6001600160401b03811162001c2a57601f01601f191660200190565b92919262001dd98262001daf565b9162001de9604051938462001c5c565b82948184528183011162001d93578281602093846000960137010152565b604090600319011262001d93576004359060243590565b805482101562001e375760005260206000200190600090565b634e487b7160e01b600052603260045260246000fd5b9181601f8401121562001d93578235916001600160401b03831162001d93576020838186019501011162001d9357565b3360009081527ff7c9542c591017a21c74b6f3fab6263c7952fc0aaf9db4c22a2a04ddc7f8674f60205260409020547f65d7a28e3265b37a6474929f336521b332c1681b933f6cb9f3376673440d862a9060ff161562000d065750565b80600052600060205260406000203360005260205260ff604060002054161562000d065750565b9060009180835282602052604083209160018060a01b03169182845260205260ff6040842054161560001462001f7b57808352826020526040832082845260205260408320600160ff198254161790557f2f8788117e7eff1d82e926ec794901d17c78024a50270940304540a733656f0d339380a4600190565b505090565b9060009180835282602052604083209160018060a01b03169182845260205260ff60408420541660001462001f7b5780835282602052604083208284526020526040832060ff1981541690557ff6391f5c32d9c69d2a47ea670b442974b53935d1edc7fd64eb21e047a839171b339380a4600190565b818102929181159184041417156200200a57565b634e487b7160e01b600052601160045260246000fd5b81156200202b570490565b634e487b7160e01b600052601260045260246000fd5b9081602091031262001d935751801515810362001d935790565b919082018092116200200a57565b60ff600154166200207657565b60405163d93c066560e01b8152600490fd5b6002805414620020985760028055565b604051633ee5aeb560e01b8152600490fd5b908060209392818452848401376000828201840152601f01601f1916010190565b919082039182116200200a57565b80158015620021d8575b620021d157600090808252600760205260409182812090835192620021088462001c0e565b60018060a01b03938484541681526001840154948516602082015260ff6002878301956001600160581b0397888160a01c16885260f81c6060850152015416159060808215910152620021c857815260086020528381209380516200216d8162001c40565b620021788662001c7e565b8152620021886001870162001c7e565b602082015260606003600288015493830197848952015491015215620021c0575092620013a791620021bd9451169062001ff6565b90565b935050505090565b50935050505090565b5050600090565b50600454811015620020e356fe604060e08152346200047c5762001301803803806200001e8162000481565b928339810160e0828203126200047c5781516001600160401b0392908381116200047c578262000050918301620004a7565b9260209283830151908282116200047c576200006e918401620004a7565b90858301519260ff841684036200047c57606081015193620000936080830162000519565b9660c0620000a460a0850162000519565b9301519381518181116200036d576003908154906001948583811c9316801562000471575b8c8410146200045b5781908c601f9485811162000402575b50508c908483116001146200038f5760009262000383575b505060001982851b1c191690851b1782555b87519283116200036d5760049788548581811c9116801562000362575b8c8210146200034d57908b82848796959411620002f0575b50508b918411600114620002855760009362000279575b505082841b92600019911b1c19161785555b6001600160a01b039788169788156200026257600580546001600160a01b031981168b179091558991167f8be0079c531659141344cd1fd0a4f28419497f9722a3daafe3b4186f6b6457e0600080a38060065560ff19600854161760085560805260a05260c052600254908282018092116200024d575060025560008381528083528481208054830190558451918252917fddf252ad1be2c89b69c2b068fc378daa952ba7f163c4a11628f55a4df523b3ef91a351610dd290816200052f823960805181610819015260a05181818161025801526105c3015260c051816102200152f35b601190634e487b7160e01b6000525260246000fd5b8951631e4fbdf760e01b8152600081880152602490fd5b01519150388062000157565b60008a81528c812087965093929190601f198616908e5b828210620002d85750508511620002bd575b50505050811b01855562000169565b01519060f884600019921b161c1916905538808080620002ae565b83850151875589989096019593840193018e6200029c565b9091929394508a60005283826000209181880160051c830193881062000343575b9188918897969594930160051c01915b8281106200033357508d915062000140565b6000815587965088910162000321565b9250819262000311565b60228a634e487b7160e01b6000525260246000fd5b90607f169062000128565b634e487b7160e01b600052604160045260246000fd5b015190503880620000f9565b879350908d91601f1984168760005283600020936000905b828210620003e05750508411620003c7575b505050811b0182556200010b565b015160001983871b60f8161c19169055388080620003b9565b91929395968291958786015181550195019301908f918a9695949392620003a7565b909192508560005284826000209181860160051c830193861062000451575b918991869594930160051c01915b8281106200044157508e9150620000e1565b600081558594508991016200042f565b9250819262000421565b634e487b7160e01b600052602260045260246000fd5b92607f1692620000c9565b600080fd5b6040519190601f01601f191682016001600160401b038111838210176200036d57604052565b919080601f840112156200047c5782516001600160401b0381116200036d57602090620004dd601f8201601f1916830162000481565b928184528282870101116200047c5760005b8181106200050557508260009394955001015290565b8581018301518482018401528201620004ef565b51906001600160a01b03821682036200047c5756fe6080604081815260048036101561001557600080fd5b600092833560e01c90816306fdde03146109e657508063095ea7b31461093d57806318160ddd1461091e57806323b872dd1461083d578063313ce567146107ff57806342966c68146107605780635dc96d161461073c57806370a0823114610705578063715018a6146106a857806379cc67901461059b5780637b2c835f146105395780638da5cb5b1461051057806395d89b411461040c578063a9059cbb146103db578063ad1329d114610287578063c45a015514610243578063d7c81b5514610208578063d89135cd146101e9578063dd62ed3e146101915763f2fde38b146100ff57600080fd5b3461018d57602036600319011261018d57610118610b25565b90610121610b75565b6001600160a01b03918216928315610177575050600554826bffffffffffffffffffffffff60a01b821617600555167f8be0079c531659141344cd1fd0a4f28419497f9722a3daafe3b4186f6b6457e08380a380f35b51631e4fbdf760e01b8152908101849052602490fd5b8280fd5b5050346101e557806003193601126101e5576101ab610b25565b6001600160a01b0360243581811692908390036101e1579160209491849316825260018552828220908252845220549051908152f35b8480fd5b5080fd5b5050346101e557816003193601126101e5576020906007549051908152f35b5050346101e557816003193601126101e557602090517f00000000000000000000000000000000000000000000000000000000000000008152f35b5050346101e557816003193601126101e557517f00000000000000000000000000000000000000000000000000000000000000006001600160a01b03168152602090f35b50903461018d5761029736610b40565b91906102a1610b75565b6001600160a01b039081169182156103cb57869392911680610357575082809281925af13d15610352573d67ffffffffffffffff811161033f578251906102f2601f8201601f191660200183610ba1565b81528460203d92013e5b1561030657505080f35b906020606492519162461bcd60e51b83528201526013602482015272115512081d1c985b9cd9995c8819985a5b1959606a1b6044820152fd5b634e487b7160e01b855260418452602485fd5b6102fc565b9460209360449293968651978895869463a9059cbb60e01b865285015260248401525af19081156103c2575061038b575080f35b6020813d82116103ba575b816103a360209383610ba1565b810103126101e55751801515036103b75780f35b80fd5b3d9150610396565b513d84823e3d90fd5b8451631f2a200560e01b81528690fd5b5050346101e557806003193601126101e5576020906104056103fb610b25565b6024359033610bd9565b5160018152f35b509190346101e557816003193601126101e557805191809380549160019083821c92828516948515610506575b60209586861081146104f3578589529081156104cf5750600114610477575b6104738787610469828c0383610ba1565b5191829182610adc565b0390f35b81529295507f8a35acfbc15ff81a39ae7d344fd709f28e8600b4aa8c65c6b64bfe7fe36bd19b5b8284106104bc57505050826104739461046992820101943880610458565b805486850188015292860192810161049e565b60ff19168887015250505050151560051b8301019250610469826104733880610458565b634e487b7160e01b845260228352602484fd5b93607f1693610439565b5050346101e557816003193601126101e55760055490516001600160a01b039091168152602090f35b503461018d57602036600319011261018d57359081151580920361018d577f1509137b40df48e8ef9596f9db16b632b15353d0e0688d9f23221953eb0328dd91602091610584610b75565b60ff196008541660ff83161760085551908152a180f35b50903461018d578060031936011261018d576105b5610b25565b602435906001600160a01b037f0000000000000000000000000000000000000000000000000000000000000000811633036106985760ff6008541615610688576105fd610d79565b8215610678578116938486528560205282848720541061066a575090610654817fccbea4088a3b7ae9ca2d15fab9a9742a4075b4d7247768a1eecea917565aba00949361064c82600754610cb7565b600755610cda565b60075482519182526020820152a2600160065580f35b8351631e9acf1760e31b8152fd5b50505051631f2a200560e01b8152fd5b5050505163be20705f60e01b8152fd5b5050505163a9c455db60e01b8152fd5b83346103b757806003193601126103b7576106c1610b75565b600580546001600160a01b0319811690915581906001600160a01b03167f8be0079c531659141344cd1fd0a4f28419497f9722a3daafe3b4186f6b6457e08280a380f35b5050346101e55760203660031901126101e55760209181906001600160a01b0361072d610b25565b16815280845220549051908152f35b5050346101e557816003193601126101e55760209060ff6008541690519015158152f35b50903461018d57602036600319011261018d5781359160ff60085416156107f157610789610d79565b82156107e357507fccbea4088a3b7ae9ca2d15fab9a9742a4075b4d7247768a1eecea917565aba00906107be83600754610cb7565b6007556107cb8333610cda565b600754815193845260208401523392a2600160065580f35b9051631f2a200560e01b8152fd5b905163be20705f60e01b8152fd5b5050346101e557816003193601126101e5576020905160ff7f0000000000000000000000000000000000000000000000000000000000000000168152f35b508290346101e55761084e36610b40565b6001600160a01b0383168086526001602090815287872033885290528686205491959294600019831061088a575b602088610405898989610bd9565b8683106108f25781156108db5733156108c4575082526001602090815286832033845281529186902090859003905582906104058761087c565b8751634a1406b160e11b8152908101849052602490fd5b875163e602df0560e01b8152908101849052602490fd5b8751637dc7a0d960e11b8152339181019182526020820193909352604081018790528291506060010390fd5b5050346101e557816003193601126101e5576020906002549051908152f35b503461018d578160031936011261018d57610956610b25565b6024359033156109cf576001600160a01b03169182156109b857508083602095338152600187528181208582528752205582519081527f8c5be1e5ebec7d5bd14f71427d1e84f3dd0314c0f7b2291e5b200ac8c7c3b925843392a35160018152f35b8351634a1406b160e11b8152908101859052602490fd5b835163e602df0560e01b8152808401869052602490fd5b9291905034610ad85783600319360112610ad857600354600181811c9186908281168015610ace575b6020958686108214610abb5750848852908115610a995750600114610a40575b6104738686610469828b0383610ba1565b929550600383527fc2575a0e9e593c00f959f8c92f12db2869c3395a3b0502d05e2516446f71f85b5b828410610a86575050508261047394610469928201019438610a2f565b8054868501880152928601928101610a69565b60ff191687860152505050151560051b83010192506104698261047338610a2f565b634e487b7160e01b845260229052602483fd5b93607f1693610a0f565b8380fd5b6020808252825181830181905290939260005b828110610b1157505060409293506000838284010152601f8019910116010190565b818101860151848201604001528501610aef565b600435906001600160a01b0382168203610b3b57565b600080fd5b6060906003190112610b3b576001600160a01b03906004358281168103610b3b57916024359081168103610b3b579060443590565b6005546001600160a01b03163303610b8957565b60405163118cdaa760e01b8152336004820152602490fd5b90601f8019910116810190811067ffffffffffffffff821117610bc357604052565b634e487b7160e01b600052604160045260246000fd5b916001600160a01b03808416928315610c9e5716928315610c855760009083825281602052604082205490838210610c53575091604082827fddf252ad1be2c89b69c2b068fc378daa952ba7f163c4a11628f55a4df523b3ef958760209652828652038282205586815220818154019055604051908152a3565b60405163391434e360e21b81526001600160a01b03919091166004820152602481019190915260448101839052606490fd5b60405163ec442f0560e01b815260006004820152602490fd5b604051634b637e8f60e11b815260006004820152602490fd5b91908201809211610cc457565b634e487b7160e01b600052601160045260246000fd5b906001600160a01b038216908115610c9e5760009282845283602052604084205490828210610d475750817fddf252ad1be2c89b69c2b068fc378daa952ba7f163c4a11628f55a4df523b3ef926020928587528684520360408620558060025403600255604051908152a3565b60405163391434e360e21b81526001600160a01b03919091166004820152602481019190915260448101829052606490fd5b600260065414610d8a576002600655565b604051633ee5aeb560e01b8152600490fdfea26469706673582212209f1c438f5f60eea04008a1ef860d670535e4031d5538854a94abe019fbceb6d864736f6c63430008140033a26469706673582212201e52601d7d704f28923316158ac2fca8add36e58459de307cb22c75af8ba169864736f6c634300081400332f8788117e7eff1d82e926ec794901d17c78024a50270940304540a733656f0d","opcodes":"PUSH1 0xC0 CALLVALUE PUSH3 0x123 JUMPI PUSH1 0x1F PUSH3 0x38EC CODESIZE DUP2 SWAP1 SUB SWAP2 DUP3 ADD PUSH1 0x1F NOT AND DUP4 ADD SWAP2 PUSH1 0x1 PUSH1 0x1 PUSH1 0x40 SHL SUB DUP4 GT DUP5 DUP5 LT OR PUSH3 0x128 JUMPI DUP1 DUP5 SWAP3 PUSH1 0x40 SWAP5 DUP6 MSTORE DUP4 CODECOPY DUP2 ADD SUB SLT PUSH3 0x123 JUMPI PUSH3 0x5A PUSH1 0x20 PUSH3 0x52 DUP4 PUSH3 0x13E JUMP JUMPDEST SWAP3 ADD PUSH3 0x13E JUMP JUMPDEST PUSH1 0x1 PUSH1 0x2 DUP2 SWAP1 SSTORE PUSH8 0xDE0B6B3A7640000 PUSH1 0x3 SSTORE PUSH1 0x4 SSTORE PUSH1 0x1 PUSH1 0x1 PUSH1 0xA0 SHL SUB SWAP2 DUP3 AND DUP1 ISZERO DUP1 ISZERO PUSH3 0x118 JUMPI JUMPDEST PUSH3 0x106 JUMPI PUSH1 0x80 MSTORE AND PUSH1 0xA0 MSTORE PUSH3 0x9C CALLER PUSH3 0x153 JUMP JUMPDEST POP PUSH3 0xA8 CALLER PUSH3 0x1D3 JUMP JUMPDEST POP PUSH3 0xB4 CALLER PUSH3 0x275 JUMP JUMPDEST POP PUSH3 0xC0 CALLER PUSH3 0x312 JUMP JUMPDEST POP PUSH1 0x40 MLOAD PUSH2 0x351C SWAP1 DUP2 PUSH3 0x3B0 DUP3 CODECOPY PUSH1 0x80 MLOAD DUP2 DUP2 DUP2 PUSH2 0xB15 ADD MSTORE PUSH2 0xF92 ADD MSTORE PUSH1 0xA0 MLOAD DUP2 DUP2 DUP2 PUSH2 0x30F ADD MSTORE DUP2 DUP2 PUSH2 0x471 ADD MSTORE DUP2 DUP2 PUSH2 0x101F ADD MSTORE DUP2 DUP2 PUSH2 0x1128 ADD MSTORE PUSH2 0x143E ADD MSTORE RETURN JUMPDEST PUSH1 0x40 MLOAD PUSH4 0xE6C4247B PUSH1 0xE0 SHL DUP2 MSTORE PUSH1 0x4 SWAP1 REVERT JUMPDEST POP DUP3 DUP3 AND ISZERO PUSH3 0x85 JUMP JUMPDEST PUSH1 0x0 DUP1 REVERT JUMPDEST PUSH4 0x4E487B71 PUSH1 0xE0 SHL PUSH1 0x0 MSTORE PUSH1 0x41 PUSH1 0x4 MSTORE PUSH1 0x24 PUSH1 0x0 REVERT JUMPDEST MLOAD SWAP1 PUSH1 0x1 PUSH1 0x1 PUSH1 0xA0 SHL SUB DUP3 AND DUP3 SUB PUSH3 0x123 JUMPI JUMP JUMPDEST PUSH1 0x1 PUSH1 0x1 PUSH1 0xA0 SHL SUB AND PUSH1 0x0 DUP2 DUP2 MSTORE PUSH32 0xAD3228B676F7D3CD4284A5443F17F1962B36E491B30A40B2405849E597BA5FB5 PUSH1 0x20 MSTORE PUSH1 0x40 DUP2 KECCAK256 SLOAD SWAP1 SWAP2 SWAP1 PUSH1 0xFF AND PUSH3 0x1CF JUMPI DUP2 DUP1 MSTORE DUP2 PUSH1 0x20 MSTORE PUSH1 0x40 DUP3 KECCAK256 DUP2 DUP4 MSTORE PUSH1 0x20 MSTORE PUSH1 0x40 DUP3 KECCAK256 PUSH1 0x1 PUSH1 0xFF NOT DUP3 SLOAD AND OR SWAP1 SSTORE CALLER SWAP2 PUSH1 0x0 DUP1 MLOAD PUSH1 0x20 PUSH3 0x38CC DUP4 CODECOPY DUP2 MLOAD SWAP2 MSTORE DUP2 DUP1 LOG4 PUSH1 0x1 SWAP1 JUMP JUMPDEST POP SWAP1 JUMP JUMPDEST PUSH1 0x1 PUSH1 0x1 PUSH1 0xA0 SHL SUB AND PUSH1 0x0 DUP2 DUP2 MSTORE PUSH32 0x43393DE9C580ACBB6A28CD9D65B7EC5698943D0E6FEC07062B42A76C1FB8AEB9 PUSH1 0x20 MSTORE PUSH1 0x40 DUP2 KECCAK256 SLOAD SWAP1 SWAP2 SWAP1 PUSH32 0x9F29EEE2263C2102949FD3FEBAFB3DD6DBBAEE114F48A474222B2159942EB2B2 SWAP1 PUSH1 0xFF AND PUSH3 0x270 JUMPI DUP1 DUP4 MSTORE DUP3 PUSH1 0x20 MSTORE PUSH1 0x40 DUP4 KECCAK256 DUP3 DUP5 MSTORE PUSH1 0x20 MSTORE PUSH1 0x40 DUP4 KECCAK256 PUSH1 0x1 PUSH1 0xFF NOT DUP3 SLOAD AND OR SWAP1 SSTORE PUSH1 0x0 DUP1 MLOAD PUSH1 0x20 PUSH3 0x38CC DUP4 CODECOPY DUP2 MLOAD SWAP2 MSTORE CALLER SWAP4 DUP1 LOG4 PUSH1 0x1 SWAP1 JUMP JUMPDEST POP POP SWAP1 JUMP JUMPDEST PUSH1 0x1 PUSH1 0x1 PUSH1 0xA0 SHL SUB AND PUSH1 0x0 DUP2 DUP2 MSTORE PUSH32 0xF7C9542C591017A21C74B6F3FAB6263C7952FC0AAF9DB4C22A2A04DDC7F8674F PUSH1 0x20 MSTORE PUSH1 0x40 DUP2 KECCAK256 SLOAD SWAP1 SWAP2 SWAP1 PUSH32 0x65D7A28E3265B37A6474929F336521B332C1681B933F6CB9F3376673440D862A SWAP1 PUSH1 0xFF AND PUSH3 0x270 JUMPI DUP1 DUP4 MSTORE DUP3 PUSH1 0x20 MSTORE PUSH1 0x40 DUP4 KECCAK256 DUP3 DUP5 MSTORE PUSH1 0x20 MSTORE PUSH1 0x40 DUP4 KECCAK256 PUSH1 0x1 PUSH1 0xFF NOT DUP3 SLOAD AND OR SWAP1 SSTORE PUSH1 0x0 DUP1 MLOAD PUSH1 0x20 PUSH3 0x38CC DUP4 CODECOPY DUP2 MLOAD SWAP2 MSTORE CALLER SWAP4 DUP1 LOG4 PUSH1 0x1 SWAP1 JUMP JUMPDEST PUSH1 0x1 PUSH1 0x1 PUSH1 0xA0 SHL SUB AND PUSH1 0x0 DUP2 DUP2 MSTORE PUSH32 0x3C1B1854AB1360ABBB06C8D4C6B2672D4B8CEDC5EFF522AB19E51D5CB8FDBD46 PUSH1 0x20 MSTORE PUSH1 0x40 DUP2 KECCAK256 SLOAD SWAP1 SWAP2 SWAP1 PUSH32 0xBF233DD2AAFEB4D50879C4AA5C81E96D92F6E6945C906A58F9F2D1C1631B4B26 SWAP1 PUSH1 0xFF AND PUSH3 0x270 JUMPI DUP1 DUP4 MSTORE DUP3 PUSH1 0x20 MSTORE PUSH1 0x40 DUP4 KECCAK256 DUP3 DUP5 MSTORE PUSH1 0x20 MSTORE PUSH1 0x40 DUP4 KECCAK256 PUSH1 0x1 PUSH1 0xFF NOT DUP3 SLOAD AND OR SWAP1 SSTORE PUSH1 0x0 DUP1 MLOAD PUSH1 0x20 PUSH3 0x38CC DUP4 CODECOPY DUP2 MLOAD SWAP2 MSTORE CALLER SWAP4 DUP1 LOG4 PUSH1 0x1 SWAP1 JUMP INVALID PUSH1 0x80 DUP1 PUSH1 0x40 MSTORE PUSH1 0x4 CALLDATASIZE LT ISZERO PUSH3 0x14 JUMPI PUSH1 0x0 DUP1 REVERT JUMPDEST PUSH1 0x0 SWAP1 DUP2 CALLDATALOAD PUSH1 0xE0 SHR SWAP1 DUP2 PUSH4 0x1FFC9A7 EQ PUSH3 0x1B77 JUMPI POP DUP1 PUSH4 0x5A61954 EQ PUSH3 0x1AF5 JUMPI DUP1 PUSH4 0x7819945 EQ PUSH3 0x1AB8 JUMPI DUP1 PUSH4 0x1BF44CB0 EQ PUSH3 0x1A1D JUMPI DUP1 PUSH4 0x20DF4359 EQ PUSH3 0x19E0 JUMPI DUP1 PUSH4 0x238D4AF8 EQ PUSH3 0x19C0 JUMPI DUP1 PUSH4 0x248A9CA3 EQ PUSH3 0x1992 JUMPI DUP1 PUSH4 0x2F2FF15D EQ PUSH3 0x194D JUMPI DUP1 PUSH4 0x34FCF437 EQ PUSH3 0x18A2 JUMPI DUP1 PUSH4 0x36568ABE EQ PUSH3 0x1853 JUMPI DUP1 PUSH4 0x3B420A73 EQ PUSH3 0x182C JUMPI DUP1 PUSH4 0x3F4BA83A EQ PUSH3 0x17BC JUMPI DUP1 PUSH4 0x546FDAD4 EQ PUSH3 0x1704 JUMPI DUP1 PUSH4 0x5C975ABB EQ PUSH3 0x16DF JUMPI DUP1 PUSH4 0x5E79C1DC EQ PUSH3 0x1548 JUMPI DUP1 PUSH4 0x5ED6C1DB EQ PUSH3 0x12E0 JUMPI DUP1 PUSH4 0x6D8554E2 EQ PUSH3 0x12C0 JUMPI DUP1 PUSH4 0x74B334C5 EQ PUSH3 0x1288 JUMPI DUP1 PUSH4 0x8456CB59 EQ PUSH3 0x1228 JUMPI DUP1 PUSH4 0x86074985 EQ PUSH3 0x120A JUMPI DUP1 PUSH4 0x8760550D EQ PUSH3 0x11E4 JUMPI DUP1 PUSH4 0x91D14854 EQ PUSH3 0x1195 JUMPI DUP1 PUSH4 0xA217FDDF EQ PUSH3 0x1177 JUMPI DUP1 PUSH4 0xAA6450CE EQ PUSH3 0x1157 JUMPI DUP1 PUSH4 0xAE5014B1 EQ PUSH3 0x1110 JUMPI DUP1 PUSH4 0xB135BBB0 EQ PUSH3 0x10F0 JUMPI DUP1 PUSH4 0xBEC697DB EQ PUSH3 0xF11 JUMPI DUP1 PUSH4 0xBF034B69 EQ PUSH3 0xEA5 JUMPI DUP1 PUSH4 0xC21C64A7 EQ PUSH3 0xE48 JUMPI DUP1 PUSH4 0xCB327B8B EQ PUSH3 0xE0B JUMPI DUP1 PUSH4 0xCCD34CD5 EQ PUSH3 0xDE6 JUMPI DUP1 PUSH4 0xD547741F EQ PUSH3 0xD9D JUMPI DUP1 PUSH4 0xDF525B7D EQ PUSH3 0xD7F JUMPI DUP1 PUSH4 0xE3D89171 EQ PUSH3 0xD61 JUMPI DUP1 PUSH4 0xE63AB1E9 EQ PUSH3 0xD24 JUMPI DUP1 PUSH4 0xE63EA408 EQ PUSH3 0xB44 JUMPI DUP1 PUSH4 0xECDF8FC4 EQ PUSH3 0xAFD JUMPI DUP1 PUSH4 0xF7157558 EQ PUSH3 0xA7D JUMPI PUSH4 0xFD44D274 EQ PUSH3 0x1F6 JUMPI PUSH1 0x0 DUP1 REVERT JUMPDEST CALLVALUE PUSH3 0xA7A JUMPI PUSH1 0x80 CALLDATASIZE PUSH1 0x3 NOT ADD SLT PUSH3 0xA7A JUMPI PUSH1 0x24 CALLDATALOAD PUSH1 0x1 PUSH1 0x1 PUSH1 0x40 SHL SUB DUP2 GT PUSH3 0xA76 JUMPI PUSH3 0x22B SWAP1 CALLDATASIZE SWAP1 PUSH1 0x4 ADD PUSH3 0x1E4D JUMP JUMPDEST SWAP1 PUSH1 0x44 CALLDATALOAD PUSH1 0x1 PUSH1 0x1 PUSH1 0x40 SHL SUB DUP2 GT PUSH3 0xA72 JUMPI PUSH3 0x24E SWAP1 CALLDATASIZE SWAP1 PUSH1 0x4 ADD PUSH3 0x1E4D JUMP JUMPDEST SWAP3 SWAP1 SWAP2 PUSH1 0x64 CALLDATALOAD SWAP3 PUSH1 0xFF DUP5 AND DUP5 SUB PUSH3 0xA6E JUMPI PUSH3 0x26A PUSH3 0x2069 JUMP JUMPDEST PUSH3 0x274 PUSH3 0x2088 JUMP JUMPDEST PUSH9 0x3635C9ADC5DEA00000 PUSH1 0x4 CALLDATALOAD LT PUSH3 0xA5C JUMPI PUSH1 0x12 PUSH1 0xFF DUP6 AND GT PUSH3 0xA4A JUMPI DUP3 ISZERO DUP1 ISZERO PUSH3 0xA3F JUMPI JUMPDEST PUSH3 0xA2D JUMPI DUP5 ISZERO DUP1 ISZERO PUSH3 0xA22 JUMPI JUMPDEST PUSH3 0xA10 JUMPI CALLER DUP7 MSTORE PUSH1 0xA PUSH1 0x20 MSTORE PUSH1 0xFF PUSH1 0x40 DUP8 KECCAK256 PUSH1 0x20 PUSH1 0x40 MLOAD DUP1 SWAP3 DUP8 DUP8 DUP4 CALLDATACOPY DUP8 DUP3 ADD SWAP1 DUP2 MSTORE SUB ADD SWAP1 KECCAK256 SLOAD AND PUSH3 0x9FE JUMPI PUSH1 0x40 MLOAD PUSH4 0x23B872DD PUSH1 0xE0 SHL DUP2 MSTORE CALLER PUSH1 0x4 DUP1 DUP4 ADD SWAP2 SWAP1 SWAP2 MSTORE ADDRESS PUSH1 0x24 DUP4 ADD MSTORE CALLDATALOAD PUSH1 0x44 DUP3 ADD MSTORE PUSH1 0x20 DUP2 PUSH1 0x64 DUP2 DUP11 PUSH1 0x1 PUSH1 0x1 PUSH1 0xA0 SHL SUB PUSH32 0x0 AND GAS CALL SWAP1 DUP2 ISZERO PUSH3 0x9F3 JUMPI DUP8 SWAP2 PUSH3 0x9CF JUMPI JUMPDEST POP ISZERO PUSH3 0x4BA JUMPI PUSH3 0x358 PUSH1 0x4 CALLDATALOAD PUSH1 0xB SLOAD PUSH3 0x205B JUMP JUMPDEST PUSH1 0xB SSTORE PUSH1 0x4 SLOAD SWAP5 PUSH1 0x0 NOT DUP7 EQ PUSH3 0x9BB JUMPI PUSH1 0x1 DUP7 ADD PUSH1 0x4 SSTORE PUSH1 0x4D PUSH1 0xFF DUP7 AND GT PUSH3 0x9BB JUMPI PUSH8 0xDE0B6B3A7640000 PUSH3 0x399 PUSH1 0xFF DUP8 AND PUSH1 0xA EXP PUSH1 0x4 CALLDATALOAD PUSH3 0x1FF6 JUMP JUMPDEST DIV SWAP3 PUSH1 0x40 MLOAD DUP1 PUSH2 0x1301 DUP2 ADD LT PUSH1 0x1 PUSH1 0x1 PUSH1 0x40 SHL SUB PUSH2 0x1301 DUP4 ADD GT OR PUSH3 0x9A7 JUMPI PUSH2 0x1301 PUSH3 0x21E6 DUP3 CODECOPY PUSH1 0xE0 PUSH2 0x1301 DUP3 ADD MSTORE DUP1 PUSH3 0x3FB PUSH3 0x3E3 PUSH1 0xE0 PUSH2 0x1301 DUP5 ADD ADD DUP10 DUP7 PUSH3 0x20AA JUMP JUMPDEST PUSH2 0x1301 DUP4 ADD DUP2 SUB PUSH1 0x20 PUSH2 0x1301 DUP6 ADD ADD MSTORE DUP6 DUP8 PUSH3 0x20AA JUMP JUMPDEST PUSH1 0xFF DUP10 AND PUSH2 0x1301 DUP4 ADD PUSH1 0x40 DUP2 ADD SWAP2 SWAP1 SWAP2 MSTORE PUSH1 0x60 DUP2 ADD DUP9 SWAP1 MSTORE CALLER PUSH1 0x80 DUP3 ADD MSTORE ADDRESS PUSH1 0xA0 DUP3 ADD MSTORE PUSH1 0xC0 ADD DUP11 SWAP1 MSTORE SUB SWAP1 DUP10 CREATE DUP1 PUSH3 0x50E JUMPI DUP9 PUSH3 0x440 PUSH1 0x4 CALLDATALOAD PUSH1 0xB SLOAD PUSH3 0x20CB JUMP JUMPDEST PUSH1 0xB SSTORE PUSH1 0x40 MLOAD PUSH4 0xA9059CBB PUSH1 0xE0 SHL DUP2 MSTORE CALLER PUSH1 0x4 DUP1 DUP4 ADD SWAP2 SWAP1 SWAP2 MSTORE CALLDATALOAD PUSH1 0x24 DUP3 ADD MSTORE PUSH1 0x20 DUP2 PUSH1 0x44 DUP2 DUP6 PUSH1 0x1 PUSH1 0x1 PUSH1 0xA0 SHL SUB PUSH32 0x0 AND GAS CALL SWAP2 DUP3 ISZERO PUSH3 0x502 JUMPI SWAP2 PUSH3 0x4CC JUMPI JUMPDEST POP ISZERO PUSH3 0x4BA JUMPI PUSH1 0x40 MLOAD PUSH3 0xB5D57B PUSH1 0xE6 SHL DUP2 MSTORE PUSH1 0x4 SWAP1 REVERT JUMPDEST PUSH1 0x40 MLOAD PUSH4 0x12171D83 PUSH1 0xE3 SHL DUP2 MSTORE PUSH1 0x4 SWAP1 REVERT JUMPDEST PUSH3 0x4F3 SWAP2 POP PUSH1 0x20 RETURNDATASIZE PUSH1 0x20 GT PUSH3 0x4FA JUMPI JUMPDEST PUSH3 0x4EA DUP2 DUP4 PUSH3 0x1C5C JUMP JUMPDEST DUP2 ADD SWAP1 PUSH3 0x2041 JUMP JUMPDEST DUP2 PUSH3 0x4A2 JUMP JUMPDEST POP RETURNDATASIZE PUSH3 0x4DE JUMP JUMPDEST PUSH1 0x40 MLOAD SWAP1 RETURNDATASIZE SWAP1 DUP3 RETURNDATACOPY RETURNDATASIZE SWAP1 REVERT JUMPDEST PUSH1 0x40 MLOAD PUSH1 0x1 PUSH1 0x1 PUSH1 0xA0 SHL SUB SWAP2 SWAP1 SWAP2 AND SWAP7 PUSH1 0xFF SWAP1 PUSH3 0x52C DUP4 PUSH3 0x1C0E JUMP JUMPDEST PUSH1 0x1 DUP1 PUSH1 0xA0 SHL SUB DUP10 AND DUP4 MSTORE CALLER PUSH1 0x20 DUP5 ADD MSTORE PUSH1 0x1 PUSH1 0x1 PUSH1 0x58 SHL SUB PUSH1 0x4 CALLDATALOAD AND PUSH1 0x40 DUP5 ADD MSTORE AND PUSH1 0x60 DUP3 ADD MSTORE PUSH1 0x1 PUSH1 0x80 DUP3 ADD MSTORE DUP8 DUP10 MSTORE PUSH1 0x7 PUSH1 0x20 MSTORE PUSH1 0x80 PUSH1 0x2 PUSH1 0x40 DUP12 KECCAK256 PUSH1 0x1 DUP1 PUSH1 0xA0 SHL SUB DUP5 MLOAD AND PUSH12 0xFFFFFFFFFFFFFFFFFFFFFFFF PUSH1 0xA0 SHL DUP3 SLOAD AND OR DUP2 SSTORE PUSH1 0x1 DUP1 PUSH1 0xA0 SHL SUB PUSH1 0x20 DUP6 ADD MLOAD AND PUSH1 0x1 PUSH1 0x1 PUSH1 0x58 SHL SUB PUSH1 0xA0 SHL PUSH1 0x40 DUP7 ADD MLOAD PUSH1 0xA0 SHL AND PUSH1 0xFF PUSH1 0xF8 SHL PUSH1 0x60 DUP8 ADD MLOAD PUSH1 0xF8 SHL AND SWAP2 OR OR PUSH1 0x1 DUP3 ADD SSTORE ADD SWAP2 ADD MLOAD ISZERO ISZERO PUSH1 0xFF DUP1 NOT DUP4 SLOAD AND SWAP2 AND OR SWAP1 SSTORE PUSH1 0x40 MLOAD PUSH3 0x5E2 DUP2 PUSH3 0x1C40 JUMP JUMPDEST PUSH3 0x5EF CALLDATASIZE DUP8 DUP5 PUSH3 0x1DCB JUMP JUMPDEST DUP2 MSTORE PUSH3 0x5FE CALLDATASIZE DUP5 DUP7 PUSH3 0x1DCB JUMP JUMPDEST PUSH1 0x20 DUP3 ADD MSTORE DUP5 PUSH1 0x40 DUP3 ADD MSTORE TIMESTAMP PUSH1 0x60 DUP3 ADD MSTORE DUP8 DUP10 MSTORE PUSH1 0x8 PUSH1 0x20 MSTORE PUSH1 0x40 DUP10 KECCAK256 SWAP1 DUP1 MLOAD DUP1 MLOAD SWAP1 PUSH1 0x1 PUSH1 0x1 PUSH1 0x40 SHL SUB DUP3 GT PUSH3 0x8C6 JUMPI DUP2 SWAP1 PUSH3 0x63E DUP6 SLOAD PUSH3 0x1BD1 JUMP JUMPDEST PUSH1 0x1F DUP2 GT PUSH3 0x954 JUMPI JUMPDEST POP PUSH1 0x20 SWAP1 PUSH1 0x1F DUP4 GT PUSH1 0x1 EQ PUSH3 0x8E6 JUMPI DUP14 SWAP3 PUSH3 0x8DA JUMPI JUMPDEST POP POP DUP2 PUSH1 0x1 SHL SWAP2 PUSH1 0x0 NOT SWAP1 PUSH1 0x3 SHL SHR NOT AND OR DUP3 SSTORE JUMPDEST PUSH1 0x20 DUP2 ADD MLOAD DUP1 MLOAD SWAP1 PUSH1 0x1 PUSH1 0x1 PUSH1 0x40 SHL SUB DUP3 GT PUSH3 0x8C6 JUMPI PUSH3 0x69B PUSH1 0x1 DUP6 ADD SLOAD PUSH3 0x1BD1 JUMP JUMPDEST PUSH1 0x1F DUP2 GT PUSH3 0x87C JUMPI JUMPDEST POP PUSH1 0x20 SWAP1 DUP13 PUSH1 0x1F DUP5 GT PUSH1 0x1 EQ PUSH3 0x805 JUMPI SWAP3 PUSH1 0x3 SWAP5 SWAP3 DUP2 SWAP3 PUSH1 0x60 SWAP6 SWAP3 PUSH3 0x7F9 JUMPI JUMPDEST POP POP PUSH1 0x0 NOT DUP3 DUP7 SHL SHR NOT AND PUSH1 0x1 SWAP2 DUP3 SHL OR SWAP1 DUP6 ADD SSTORE JUMPDEST PUSH1 0x40 DUP2 ADD MLOAD PUSH1 0x2 DUP6 ADD SSTORE ADD MLOAD SWAP2 ADD SSTORE CALLER DUP9 MSTORE PUSH1 0x9 PUSH1 0x20 MSTORE PUSH1 0x40 DUP9 KECCAK256 DUP1 SLOAD SWAP1 PUSH9 0x10000000000000000 DUP3 LT ISZERO PUSH3 0x7E5 JUMPI SWAP2 PUSH1 0x40 DUP1 SWAP11 PUSH3 0x72E DUP5 PUSH3 0x78C SWAP9 SWAP8 SWAP7 PUSH1 0x1 PUSH3 0x77D SWAP8 ADD DUP2 SSTORE PUSH3 0x1E1E JUMP JUMPDEST DUP2 SLOAD SWAP1 PUSH1 0x3 SHL SWAP1 DUP14 DUP3 SHL SWAP2 PUSH1 0x0 NOT SWAP1 SHL NOT AND OR SWAP1 SSTORE CALLER DUP2 MSTORE PUSH1 0xA PUSH1 0x20 MSTORE KECCAK256 PUSH1 0x20 DUP12 MLOAD DUP1 SWAP3 DUP11 DUP6 DUP4 CALLDATACOPY DUP11 DUP3 ADD SWAP1 DUP2 MSTORE SUB ADD SWAP1 KECCAK256 PUSH1 0x1 PUSH1 0xFF NOT DUP3 SLOAD AND OR SWAP1 SSTORE DUP10 MLOAD SWAP7 PUSH1 0x80 DUP9 MSTORE PUSH1 0x80 DUP9 ADD SWAP2 PUSH3 0x20AA JUMP JUMPDEST SWAP2 DUP6 DUP4 SUB PUSH1 0x20 DUP8 ADD MSTORE PUSH3 0x20AA JUMP JUMPDEST SWAP1 PUSH1 0x4 CALLDATALOAD DUP7 DUP5 ADD MSTORE PUSH1 0x60 DUP4 ADD MSTORE DUP4 PUSH32 0x36B9329CA62BDE49B750D7AB93525CCC2FF4CED5C2745CD242894377EC4B5D05 PUSH1 0x1 DUP1 PUSH1 0xA0 SHL SUB DUP6 AND SWAP4 DUP1 CALLER SWAP5 SUB SWAP1 LOG4 PUSH1 0x1 PUSH1 0x2 SSTORE DUP3 MLOAD SWAP2 DUP3 MSTORE PUSH1 0x1 PUSH1 0x1 PUSH1 0xA0 SHL SUB AND PUSH1 0x20 DUP3 ADD MSTORE RETURN JUMPDEST PUSH4 0x4E487B71 PUSH1 0xE0 SHL DUP11 MSTORE PUSH1 0x41 PUSH1 0x4 MSTORE PUSH1 0x24 DUP11 REVERT JUMPDEST ADD MLOAD SWAP1 POP CODESIZE DUP1 PUSH3 0x6C7 JUMP JUMPDEST POP SWAP1 PUSH1 0x1 DUP6 ADD DUP14 MSTORE PUSH1 0x20 DUP14 KECCAK256 SWAP2 DUP14 JUMPDEST PUSH1 0x1F NOT DUP6 AND DUP2 LT PUSH3 0x863 JUMPI POP SWAP3 PUSH1 0x3 SWAP5 SWAP3 PUSH1 0x1 SWAP3 PUSH1 0x60 SWAP6 DUP4 PUSH1 0x1F NOT DUP2 AND LT PUSH3 0x84A JUMPI JUMPDEST POP POP POP DUP2 SHL ADD PUSH1 0x1 DUP6 ADD SSTORE PUSH3 0x6DD JUMP JUMPDEST ADD MLOAD PUSH1 0x0 NOT DUP4 DUP9 SHL PUSH1 0xF8 AND SHR NOT AND SWAP1 SSTORE CODESIZE DUP1 DUP1 PUSH3 0x839 JUMP JUMPDEST SWAP2 SWAP3 PUSH1 0x20 PUSH1 0x1 DUP2 SWAP3 DUP7 DUP6 ADD MLOAD DUP2 SSTORE ADD SWAP5 ADD SWAP3 ADD PUSH3 0x814 JUMP JUMPDEST PUSH1 0x1 DUP6 ADD DUP14 MSTORE PUSH1 0x20 DUP14 KECCAK256 PUSH1 0x1F DUP5 ADD PUSH1 0x5 SHR DUP2 ADD PUSH1 0x20 DUP6 LT PUSH3 0x8BE JUMPI JUMPDEST PUSH1 0x1F DUP4 ADD PUSH1 0x5 SHR DUP3 ADD DUP2 LT PUSH3 0x8B1 JUMPI POP POP PUSH3 0x6A5 JUMP JUMPDEST PUSH1 0x0 DUP2 SSTORE PUSH1 0x1 ADD PUSH3 0x899 JUMP JUMPDEST POP DUP1 PUSH3 0x899 JUMP JUMPDEST PUSH4 0x4E487B71 PUSH1 0xE0 SHL DUP13 MSTORE PUSH1 0x41 PUSH1 0x4 MSTORE PUSH1 0x24 DUP13 REVERT JUMPDEST ADD MLOAD SWAP1 POP CODESIZE DUP1 PUSH3 0x660 JUMP JUMPDEST SWAP3 POP DUP5 DUP14 MSTORE PUSH1 0x20 DUP14 KECCAK256 SWAP1 DUP14 SWAP4 JUMPDEST PUSH1 0x1F NOT DUP5 AND DUP6 LT PUSH3 0x938 JUMPI PUSH1 0x1 SWAP5 POP DUP4 PUSH1 0x1F NOT DUP2 AND LT PUSH3 0x91E JUMPI JUMPDEST POP POP POP DUP2 SHL ADD DUP3 SSTORE PUSH3 0x675 JUMP JUMPDEST ADD MLOAD PUSH1 0x0 NOT PUSH1 0xF8 DUP5 PUSH1 0x3 SHL AND SHR NOT AND SWAP1 SSTORE CODESIZE DUP1 DUP1 PUSH3 0x910 JUMP JUMPDEST DUP2 DUP2 ADD MLOAD DUP4 SSTORE PUSH1 0x20 SWAP5 DUP6 ADD SWAP5 PUSH1 0x1 SWAP1 SWAP4 ADD SWAP3 SWAP1 SWAP2 ADD SWAP1 PUSH3 0x8F3 JUMP JUMPDEST SWAP1 SWAP2 POP DUP5 DUP14 MSTORE PUSH1 0x20 DUP14 KECCAK256 PUSH1 0x1F DUP5 ADD PUSH1 0x5 SHR DUP2 ADD PUSH1 0x20 DUP6 LT PUSH3 0x99F JUMPI JUMPDEST SWAP1 DUP5 SWAP4 SWAP3 SWAP2 JUMPDEST PUSH1 0x1F DUP4 ADD PUSH1 0x5 SHR DUP3 ADD DUP2 LT PUSH3 0x98F JUMPI POP POP PUSH3 0x648 JUMP JUMPDEST PUSH1 0x0 DUP2 SSTORE DUP6 SWAP5 POP PUSH1 0x1 ADD PUSH3 0x977 JUMP JUMPDEST POP DUP1 PUSH3 0x971 JUMP JUMPDEST PUSH4 0x4E487B71 PUSH1 0xE0 SHL DUP10 MSTORE PUSH1 0x41 PUSH1 0x4 MSTORE PUSH1 0x24 DUP10 REVERT JUMPDEST PUSH4 0x4E487B71 PUSH1 0xE0 SHL DUP8 MSTORE PUSH1 0x11 PUSH1 0x4 MSTORE PUSH1 0x24 DUP8 REVERT JUMPDEST PUSH3 0x9EC SWAP2 POP PUSH1 0x20 RETURNDATASIZE PUSH1 0x20 GT PUSH3 0x4FA JUMPI PUSH3 0x4EA DUP2 DUP4 PUSH3 0x1C5C JUMP JUMPDEST CODESIZE PUSH3 0x341 JUMP JUMPDEST PUSH1 0x40 MLOAD RETURNDATASIZE DUP10 DUP3 RETURNDATACOPY RETURNDATASIZE SWAP1 REVERT JUMPDEST PUSH1 0x40 MLOAD PUSH4 0x65D7BC1D PUSH1 0xE0 SHL DUP2 MSTORE PUSH1 0x4 SWAP1 REVERT JUMPDEST PUSH1 0x40 MLOAD PUSH4 0x1124F78B PUSH1 0xE0 SHL DUP2 MSTORE PUSH1 0x4 SWAP1 REVERT JUMPDEST POP PUSH1 0xA DUP6 GT PUSH3 0x2AC JUMP JUMPDEST PUSH1 0x40 MLOAD PUSH4 0x680B6CAF PUSH1 0xE0 SHL DUP2 MSTORE PUSH1 0x4 SWAP1 REVERT JUMPDEST POP PUSH1 0x32 DUP4 GT PUSH3 0x29D JUMP JUMPDEST PUSH1 0x40 MLOAD PUSH4 0x692ACC5 PUSH1 0xE5 SHL DUP2 MSTORE PUSH1 0x4 SWAP1 REVERT JUMPDEST PUSH1 0x40 MLOAD PUSH4 0x2CA2F52B PUSH1 0xE1 SHL DUP2 MSTORE PUSH1 0x4 SWAP1 REVERT JUMPDEST DUP6 DUP1 REVERT JUMPDEST DUP4 DUP1 REVERT JUMPDEST POP DUP1 REVERT JUMPDEST DUP1 REVERT JUMPDEST POP CALLVALUE PUSH3 0xA7A JUMPI PUSH1 0x40 CALLDATASIZE PUSH1 0x3 NOT ADD SLT PUSH3 0xA7A JUMPI PUSH3 0xA9B PUSH3 0x1D7C JUMP JUMPDEST PUSH1 0x24 CALLDATALOAD PUSH1 0x1 PUSH1 0x1 PUSH1 0x40 SHL SUB DUP2 GT PUSH3 0xAF9 JUMPI SWAP2 PUSH1 0x20 PUSH1 0xFF SWAP3 PUSH1 0x40 PUSH3 0xAC6 DUP4 SWAP7 CALLDATASIZE SWAP1 PUSH1 0x4 ADD PUSH3 0x1E4D JUMP JUMPDEST PUSH1 0x1 PUSH1 0x1 PUSH1 0xA0 SHL SUB SWAP1 SWAP4 AND DUP6 MSTORE PUSH1 0xA DUP5 MSTORE SWAP4 KECCAK256 PUSH1 0x40 MLOAD SWAP4 DUP5 SWAP3 SWAP1 DUP2 SWAP1 DUP5 CALLDATACOPY DUP3 ADD SWAP1 DUP2 MSTORE SUB ADD SWAP1 KECCAK256 SLOAD AND PUSH1 0x40 MLOAD SWAP1 ISZERO ISZERO DUP2 MSTORE RETURN JUMPDEST DUP3 DUP1 REVERT JUMPDEST POP CALLVALUE PUSH3 0xA7A JUMPI DUP1 PUSH1 0x3 NOT CALLDATASIZE ADD SLT PUSH3 0xA7A JUMPI PUSH1 0x40 MLOAD PUSH32 0x0 PUSH1 0x1 PUSH1 0x1 PUSH1 0xA0 SHL SUB AND DUP2 MSTORE PUSH1 0x20 SWAP1 RETURN JUMPDEST POP CALLVALUE PUSH3 0xA7A JUMPI PUSH1 0x60 CALLDATASIZE PUSH1 0x3 NOT ADD SLT PUSH3 0xA7A JUMPI PUSH3 0xB62 PUSH3 0x1D7C JUMP JUMPDEST PUSH3 0xB6C PUSH3 0x1D98 JUMP JUMPDEST CALLER PUSH1 0x0 SWAP1 DUP2 MSTORE PUSH32 0x3C1B1854AB1360ABBB06C8D4C6B2672D4B8CEDC5EFF522AB19E51D5CB8FDBD46 PUSH1 0x20 SWAP1 DUP2 MSTORE PUSH1 0x40 SWAP1 SWAP2 KECCAK256 SLOAD PUSH1 0x44 CALLDATALOAD SWAP2 SWAP1 PUSH32 0xBF233DD2AAFEB4D50879C4AA5C81E96D92F6E6945C906A58F9F2D1C1631B4B26 SWAP1 PUSH1 0xFF AND ISZERO PUSH3 0xD06 JUMPI POP PUSH1 0x1 PUSH1 0x1 PUSH1 0xA0 SHL SUB DUP4 DUP2 AND SWAP5 DUP6 ISZERO PUSH3 0xCF4 JUMPI AND SWAP3 DUP2 DUP4 DUP6 PUSH3 0xC5D JUMPI DUP8 DUP1 SWAP4 POP DUP1 SWAP3 POP DUP1 SWAP2 DUP9 GAS CALL RETURNDATASIZE ISZERO PUSH3 0xC57 JUMPI RETURNDATASIZE PUSH3 0xC0B DUP2 PUSH3 0x1DAF JUMP JUMPDEST SWAP1 PUSH3 0xC1B PUSH1 0x40 MLOAD SWAP3 DUP4 PUSH3 0x1C5C JUMP JUMPDEST DUP2 MSTORE DUP7 DUP4 RETURNDATASIZE SWAP3 ADD RETURNDATACOPY JUMPDEST ISZERO PUSH3 0x4BA JUMPI PUSH32 0xF24EF89F38EADC1BDE50701AD6E4D6D11A2DC24F7CF834A486991F3883328504 SWAP2 JUMPDEST PUSH1 0x40 MLOAD SWAP1 DUP2 MSTORE LOG3 DUP1 RETURN JUMPDEST PUSH3 0xC24 JUMP JUMPDEST PUSH1 0x40 MLOAD PUSH4 0xA9059CBB PUSH1 0xE0 SHL DUP2 MSTORE PUSH1 0x1 PUSH1 0x1 PUSH1 0xA0 SHL SUB SWAP4 SWAP1 SWAP4 AND PUSH1 0x4 DUP5 ADD MSTORE PUSH1 0x24 DUP4 ADD MSTORE DUP2 PUSH1 0x44 DUP2 DUP10 DUP9 GAS CALL SWAP1 DUP2 ISZERO PUSH3 0xCE9 JUMPI DUP7 SWAP2 PUSH3 0xCC7 JUMPI JUMPDEST POP ISZERO PUSH3 0x4BA JUMPI PUSH32 0xF24EF89F38EADC1BDE50701AD6E4D6D11A2DC24F7CF834A486991F3883328504 SWAP2 PUSH3 0xC4D JUMP JUMPDEST PUSH3 0xCE2 SWAP2 POP DUP3 RETURNDATASIZE DUP5 GT PUSH3 0x4FA JUMPI PUSH3 0x4EA DUP2 DUP4 PUSH3 0x1C5C JUMP JUMPDEST CODESIZE PUSH3 0xC98 JUMP JUMPDEST PUSH1 0x40 MLOAD RETURNDATASIZE DUP9 DUP3 RETURNDATACOPY RETURNDATASIZE SWAP1 REVERT JUMPDEST PUSH1 0x40 MLOAD PUSH4 0xE6C4247B PUSH1 0xE0 SHL DUP2 MSTORE PUSH1 0x4 SWAP1 REVERT JUMPDEST PUSH1 0x44 SWAP1 PUSH1 0x40 MLOAD SWAP1 PUSH4 0xE2517D3F PUSH1 0xE0 SHL DUP3 MSTORE CALLER PUSH1 0x4 DUP4 ADD MSTORE PUSH1 0x24 DUP3 ADD MSTORE REVERT JUMPDEST POP CALLVALUE PUSH3 0xA7A JUMPI DUP1 PUSH1 0x3 NOT CALLDATASIZE ADD SLT PUSH3 0xA7A JUMPI PUSH1 0x20 PUSH1 0x40 MLOAD PUSH32 0x65D7A28E3265B37A6474929F336521B332C1681B933F6CB9F3376673440D862A DUP2 MSTORE RETURN JUMPDEST POP CALLVALUE PUSH3 0xA7A JUMPI DUP1 PUSH1 0x3 NOT CALLDATASIZE ADD SLT PUSH3 0xA7A JUMPI PUSH1 0x20 PUSH1 0x40 MLOAD PUSH1 0xA DUP2 MSTORE RETURN JUMPDEST POP CALLVALUE PUSH3 0xA7A JUMPI DUP1 PUSH1 0x3 NOT CALLDATASIZE ADD SLT PUSH3 0xA7A JUMPI PUSH1 0x20 PUSH1 0x40 MLOAD PUSH1 0x12 DUP2 MSTORE RETURN JUMPDEST POP CALLVALUE PUSH3 0xA7A JUMPI PUSH1 0x40 CALLDATASIZE PUSH1 0x3 NOT ADD SLT PUSH3 0xA7A JUMPI PUSH3 0xDE2 PUSH1 0x4 CALLDATALOAD PUSH3 0xDC2 PUSH3 0x1D98 JUMP JUMPDEST SWAP1 DUP1 DUP5 MSTORE DUP4 PUSH1 0x20 MSTORE PUSH3 0xDDC PUSH1 0x1 PUSH1 0x40 DUP7 KECCAK256 ADD SLOAD PUSH3 0x1EDA JUMP JUMPDEST PUSH3 0x1F80 JUMP JUMPDEST POP DUP1 RETURN JUMPDEST POP CALLVALUE PUSH3 0xA7A JUMPI DUP1 PUSH1 0x3 NOT CALLDATASIZE ADD SLT PUSH3 0xA7A JUMPI PUSH1 0x20 PUSH1 0x40 MLOAD PUSH8 0xDE0B6B3A7640000 DUP2 MSTORE RETURN JUMPDEST POP CALLVALUE PUSH3 0xA7A JUMPI DUP1 PUSH1 0x3 NOT CALLDATASIZE ADD SLT PUSH3 0xA7A JUMPI PUSH1 0x20 PUSH1 0x40 MLOAD PUSH32 0x9F29EEE2263C2102949FD3FEBAFB3DD6DBBAEE114F48A474222B2159942EB2B2 DUP2 MSTORE RETURN JUMPDEST POP CALLVALUE PUSH3 0xA7A JUMPI PUSH1 0x40 CALLDATASIZE PUSH1 0x3 NOT ADD SLT PUSH3 0xA7A JUMPI PUSH3 0xE66 PUSH3 0x1D7C JUMP JUMPDEST PUSH1 0x1 PUSH1 0x1 PUSH1 0xA0 SHL SUB AND DUP2 MSTORE PUSH1 0x9 PUSH1 0x20 MSTORE PUSH1 0x40 DUP2 KECCAK256 DUP1 SLOAD PUSH1 0x24 CALLDATALOAD SWAP3 SWAP1 DUP4 LT ISZERO PUSH3 0xA7A JUMPI PUSH1 0x20 PUSH3 0xE97 DUP5 DUP5 PUSH3 0x1E1E JUMP JUMPDEST SWAP1 SLOAD PUSH1 0x40 MLOAD SWAP2 PUSH1 0x3 SHL SHR DUP2 MSTORE RETURN JUMPDEST POP CALLVALUE PUSH3 0xA7A JUMPI PUSH1 0x20 CALLDATASIZE PUSH1 0x3 NOT ADD SLT PUSH3 0xA7A JUMPI PUSH1 0x40 PUSH1 0xA0 SWAP2 PUSH1 0x4 CALLDATALOAD DUP2 MSTORE PUSH1 0x7 PUSH1 0x20 MSTORE KECCAK256 PUSH1 0x1 DUP1 DUP4 SHL SUB DUP1 DUP3 SLOAD AND SWAP2 PUSH1 0xFF PUSH1 0x2 PUSH1 0x1 DUP4 ADD SLOAD SWAP3 ADD SLOAD AND SWAP2 PUSH1 0x40 MLOAD SWAP4 DUP5 MSTORE DUP2 AND PUSH1 0x20 DUP5 ADD MSTORE PUSH1 0x1 PUSH1 0x1 PUSH1 0x58 SHL SUB DUP2 DUP6 SHR AND PUSH1 0x40 DUP5 ADD MSTORE PUSH1 0xF8 SHR PUSH1 0x60 DUP4 ADD MSTORE ISZERO ISZERO PUSH1 0x80 DUP3 ADD MSTORE RETURN JUMPDEST POP CALLVALUE PUSH3 0xA7A JUMPI PUSH1 0x20 DUP1 PUSH1 0x3 NOT CALLDATASIZE ADD SLT PUSH3 0xA76 JUMPI PUSH1 0x4 CALLDATALOAD SWAP1 PUSH3 0xF34 PUSH3 0x2069 JUMP JUMPDEST PUSH3 0xF3E PUSH3 0x2088 JUMP JUMPDEST DUP2 ISZERO PUSH3 0x10DE JUMPI PUSH8 0xDE0B6B3A7640000 PUSH3 0xF5C PUSH1 0x3 SLOAD DUP5 PUSH3 0x1FF6 JUMP JUMPDEST PUSH1 0x40 MLOAD PUSH4 0x23B872DD PUSH1 0xE0 SHL DUP2 MSTORE CALLER PUSH1 0x4 DUP3 ADD MSTORE ADDRESS PUSH1 0x24 DUP3 ADD MSTORE PUSH1 0x44 DUP2 ADD DUP6 SWAP1 MSTORE SWAP2 SWAP1 DIV SWAP2 SWAP1 PUSH1 0x1 PUSH1 0x1 PUSH1 0xA0 SHL SUB SWAP1 DUP3 DUP2 PUSH1 0x64 DUP2 DUP10 PUSH32 0x0 DUP8 AND GAS CALL SWAP1 DUP2 ISZERO PUSH3 0xCE9 JUMPI DUP7 SWAP2 PUSH3 0x10BC JUMPI JUMPDEST POP ISZERO PUSH3 0x4BA JUMPI CALLER DUP6 MSTORE PUSH1 0x5 DUP3 MSTORE PUSH1 0x40 DUP6 KECCAK256 PUSH3 0xFE4 DUP6 DUP3 SLOAD PUSH3 0x205B JUMP JUMPDEST SWAP1 SSTORE PUSH3 0xFF4 DUP5 PUSH1 0x6 SLOAD PUSH3 0x205B JUMP JUMPDEST PUSH1 0x6 SSTORE PUSH1 0x40 MLOAD PUSH4 0xA9059CBB PUSH1 0xE0 SHL DUP2 MSTORE CALLER PUSH1 0x4 DUP3 ADD MSTORE PUSH1 0x24 DUP2 ADD DUP5 SWAP1 MSTORE SWAP1 DUP3 SWAP1 DUP3 SWAP1 PUSH1 0x44 SWAP1 DUP3 SWAP1 DUP10 SWAP1 PUSH32 0x0 AND GAS CALL SWAP1 DUP2 ISZERO PUSH3 0x10B1 JUMPI DUP6 SWAP2 PUSH3 0x108F JUMPI JUMPDEST POP ISZERO PUSH3 0x4BA JUMPI PUSH1 0x40 MLOAD SWAP3 DUP4 MSTORE DUP3 ADD MSTORE PUSH32 0x9F7BA93B5A3C052166A93CFB443D72D1FEC4F82BB913B1383B8F26C10FB7941E PUSH1 0x40 CALLER SWAP3 LOG2 PUSH1 0x1 PUSH1 0x2 SSTORE DUP1 RETURN JUMPDEST PUSH3 0x10AA SWAP2 POP DUP3 RETURNDATASIZE DUP5 GT PUSH3 0x4FA JUMPI PUSH3 0x4EA DUP2 DUP4 PUSH3 0x1C5C JUMP JUMPDEST CODESIZE PUSH3 0x1051 JUMP JUMPDEST PUSH1 0x40 MLOAD RETURNDATASIZE DUP8 DUP3 RETURNDATACOPY RETURNDATASIZE SWAP1 REVERT JUMPDEST PUSH3 0x10D7 SWAP2 POP DUP4 RETURNDATASIZE DUP6 GT PUSH3 0x4FA JUMPI PUSH3 0x4EA DUP2 DUP4 PUSH3 0x1C5C JUMP JUMPDEST CODESIZE PUSH3 0xFC5 JUMP JUMPDEST PUSH1 0x40 MLOAD PUSH4 0x1F2A2005 PUSH1 0xE0 SHL DUP2 MSTORE PUSH1 0x4 SWAP1 REVERT JUMPDEST POP CALLVALUE PUSH3 0xA7A JUMPI DUP1 PUSH1 0x3 NOT CALLDATASIZE ADD SLT PUSH3 0xA7A JUMPI PUSH1 0x20 PUSH1 0x4 SLOAD PUSH1 0x40 MLOAD SWAP1 DUP2 MSTORE RETURN JUMPDEST POP CALLVALUE PUSH3 0xA7A JUMPI DUP1 PUSH1 0x3 NOT CALLDATASIZE ADD SLT PUSH3 0xA7A JUMPI PUSH1 0x40 MLOAD PUSH32 0x0 PUSH1 0x1 PUSH1 0x1 PUSH1 0xA0 SHL SUB AND DUP2 MSTORE PUSH1 0x20 SWAP1 RETURN JUMPDEST POP CALLVALUE PUSH3 0xA7A JUMPI DUP1 PUSH1 0x3 NOT CALLDATASIZE ADD SLT PUSH3 0xA7A JUMPI PUSH1 0x20 PUSH1 0x6 SLOAD PUSH1 0x40 MLOAD SWAP1 DUP2 MSTORE RETURN JUMPDEST POP CALLVALUE PUSH3 0xA7A JUMPI DUP1 PUSH1 0x3 NOT CALLDATASIZE ADD SLT PUSH3 0xA7A JUMPI PUSH1 0x20 SWAP1 PUSH1 0x40 MLOAD SWAP1 DUP2 MSTORE RETURN JUMPDEST POP CALLVALUE PUSH3 0xA7A JUMPI PUSH1 0x40 CALLDATASIZE PUSH1 0x3 NOT ADD SLT PUSH3 0xA7A JUMPI PUSH1 0x40 PUSH3 0x11B5 PUSH3 0x1D98 JUMP JUMPDEST SWAP2 PUSH1 0x4 CALLDATALOAD DUP2 MSTORE DUP1 PUSH1 0x20 MSTORE KECCAK256 SWAP1 PUSH1 0x1 DUP1 PUSH1 0xA0 SHL SUB AND PUSH1 0x0 MSTORE PUSH1 0x20 MSTORE PUSH1 0x20 PUSH1 0xFF PUSH1 0x40 PUSH1 0x0 KECCAK256 SLOAD AND PUSH1 0x40 MLOAD SWAP1 ISZERO ISZERO DUP2 MSTORE RETURN JUMPDEST POP CALLVALUE PUSH3 0xA7A JUMPI DUP1 PUSH1 0x3 NOT CALLDATASIZE ADD SLT PUSH3 0xA7A JUMPI PUSH1 0x20 PUSH1 0x40 MLOAD PUSH9 0x3635C9ADC5DEA00000 DUP2 MSTORE RETURN JUMPDEST POP CALLVALUE PUSH3 0xA7A JUMPI DUP1 PUSH1 0x3 NOT CALLDATASIZE ADD SLT PUSH3 0xA7A JUMPI PUSH1 0x20 PUSH1 0x40 MLOAD PUSH1 0x32 DUP2 MSTORE RETURN JUMPDEST POP CALLVALUE PUSH3 0xA7A JUMPI DUP1 PUSH1 0x3 NOT CALLDATASIZE ADD SLT PUSH3 0xA7A JUMPI PUSH3 0x1245 PUSH3 0x1E7D JUMP JUMPDEST PUSH3 0x124F PUSH3 0x2069 JUMP JUMPDEST PUSH1 0x1 PUSH1 0xFF NOT DUP2 SLOAD AND OR PUSH1 0x1 SSTORE PUSH32 0x62E78CEA01BEE320CD4E420270B5EA74000D11B0C9F74754EBDBFC544B05A258 PUSH1 0x20 PUSH1 0x40 MLOAD CALLER DUP2 MSTORE LOG1 DUP1 RETURN JUMPDEST POP CALLVALUE PUSH3 0xA7A JUMPI PUSH1 0x20 CALLDATASIZE PUSH1 0x3 NOT ADD SLT PUSH3 0xA7A JUMPI PUSH1 0x20 PUSH8 0xDE0B6B3A7640000 PUSH3 0x12B7 PUSH1 0x3 SLOAD PUSH1 0x4 CALLDATALOAD PUSH3 0x1FF6 JUMP JUMPDEST DIV PUSH1 0x40 MLOAD SWAP1 DUP2 MSTORE RETURN JUMPDEST POP CALLVALUE PUSH3 0xA7A JUMPI DUP1 PUSH1 0x3 NOT CALLDATASIZE ADD SLT PUSH3 0xA7A JUMPI PUSH1 0x20 PUSH1 0xB SLOAD PUSH1 0x40 MLOAD SWAP1 DUP2 MSTORE RETURN JUMPDEST POP CALLVALUE PUSH3 0xA7A JUMPI PUSH3 0x12F2 CALLDATASIZE PUSH3 0x1E07 JUMP JUMPDEST SWAP1 PUSH3 0x12FD PUSH3 0x2069 JUMP JUMPDEST PUSH3 0x1307 PUSH3 0x2088 JUMP JUMPDEST DUP2 ISZERO PUSH3 0x10DE JUMPI DUP1 ISZERO DUP1 ISZERO PUSH3 0x153B JUMPI JUMPDEST PUSH3 0x1529 JUMPI DUP1 DUP4 MSTORE PUSH1 0x20 PUSH1 0x7 DUP2 MSTORE PUSH1 0x40 DUP5 KECCAK256 SWAP1 PUSH1 0xFF PUSH1 0x2 DUP4 ADD SLOAD AND ISZERO PUSH3 0x1517 JUMPI DUP3 DUP6 MSTORE PUSH1 0x8 DUP2 MSTORE PUSH3 0x13B0 PUSH1 0x40 DUP7 KECCAK256 PUSH1 0x40 MLOAD PUSH3 0x1356 DUP2 PUSH3 0x1C40 JUMP JUMPDEST PUSH3 0x1361 DUP3 PUSH3 0x1C7E JUMP JUMPDEST DUP2 MSTORE PUSH3 0x1371 PUSH1 0x1 DUP4 ADD PUSH3 0x1C7E JUMP JUMPDEST DUP5 DUP3 ADD MSTORE PUSH1 0x60 PUSH1 0x3 PUSH1 0x2 DUP5 ADD SLOAD SWAP4 PUSH1 0x40 DUP5 ADD SWAP5 DUP6 MSTORE ADD SLOAD SWAP2 ADD MSTORE PUSH3 0x13A7 PUSH1 0x1 PUSH1 0x1 PUSH1 0x58 SHL SUB PUSH1 0x1 DUP7 ADD SLOAD PUSH1 0xA0 SHR AND DUP8 PUSH3 0x1FF6 JUMP JUMPDEST SWAP1 MLOAD SWAP1 PUSH3 0x2020 JUMP JUMPDEST SWAP2 DUP3 PUSH1 0xB SLOAD LT PUSH3 0x1505 JUMPI SLOAD PUSH1 0x1 PUSH1 0x1 PUSH1 0xA0 SHL SUB SWAP1 DUP2 AND DUP1 EXTCODESIZE ISZERO PUSH3 0x1501 JUMPI PUSH1 0x40 MLOAD PUSH4 0x79CC679 PUSH1 0xE4 SHL DUP2 MSTORE CALLER PUSH1 0x4 DUP3 ADD MSTORE PUSH1 0x24 DUP2 ADD DUP8 SWAP1 MSTORE SWAP1 DUP8 SWAP1 DUP3 SWAP1 PUSH1 0x44 SWAP1 DUP3 SWAP1 DUP5 SWAP1 GAS CALL DUP1 ISZERO PUSH3 0x9F3 JUMPI PUSH3 0x14D0 JUMPI JUMPDEST POP PUSH3 0x1413 DUP4 PUSH1 0xB SLOAD PUSH3 0x20CB JUMP JUMPDEST PUSH1 0xB SSTORE PUSH1 0x40 MLOAD PUSH4 0xA9059CBB PUSH1 0xE0 SHL DUP2 MSTORE CALLER PUSH1 0x4 DUP3 ADD MSTORE PUSH1 0x24 DUP2 ADD DUP5 SWAP1 MSTORE SWAP1 DUP3 SWAP1 DUP3 SWAP1 PUSH1 0x44 SWAP1 DUP3 SWAP1 DUP11 SWAP1 PUSH32 0x0 AND GAS CALL SWAP1 DUP2 ISZERO PUSH3 0xCE9 JUMPI DUP7 SWAP2 PUSH3 0x14AE JUMPI JUMPDEST POP ISZERO PUSH3 0x4BA JUMPI PUSH1 0x40 MLOAD SWAP4 DUP5 MSTORE DUP4 ADD MSTORE PUSH32 0xEFD5D515529A8F76C5944B1D953CDE6B2C61C8B81E144C964AEB038714CABCA6 PUSH1 0x40 CALLER SWAP4 LOG3 PUSH1 0x1 PUSH1 0x2 SSTORE DUP1 RETURN JUMPDEST PUSH3 0x14C9 SWAP2 POP DUP3 RETURNDATASIZE DUP5 GT PUSH3 0x4FA JUMPI PUSH3 0x4EA DUP2 DUP4 PUSH3 0x1C5C JUMP JUMPDEST CODESIZE PUSH3 0x1470 JUMP JUMPDEST PUSH1 0x1 PUSH1 0x1 PUSH1 0x40 SHL SUB DUP2 SWAP8 SWAP3 SWAP8 GT PUSH3 0x14ED JUMPI PUSH1 0x40 MSTORE SWAP5 CODESIZE PUSH3 0x1404 JUMP JUMPDEST PUSH4 0x4E487B71 PUSH1 0xE0 SHL DUP3 MSTORE PUSH1 0x41 PUSH1 0x4 MSTORE PUSH1 0x24 DUP3 REVERT JUMPDEST DUP7 DUP1 REVERT JUMPDEST PUSH1 0x40 MLOAD PUSH4 0x31D2F709 PUSH1 0xE0 SHL DUP2 MSTORE PUSH1 0x4 SWAP1 REVERT JUMPDEST PUSH1 0x40 MLOAD PUSH4 0x7350D3B PUSH1 0xE1 SHL DUP2 MSTORE PUSH1 0x4 SWAP1 REVERT JUMPDEST PUSH1 0x40 MLOAD PUSH4 0xBB97CC9B PUSH1 0xE0 SHL DUP2 MSTORE PUSH1 0x4 SWAP1 REVERT JUMPDEST POP PUSH1 0x4 SLOAD DUP2 LT ISZERO PUSH3 0x1318 JUMP JUMPDEST POP CALLVALUE PUSH3 0xA7A JUMPI PUSH1 0x20 SWAP1 DUP2 PUSH1 0x3 NOT CALLDATASIZE ADD SLT PUSH3 0xA7A JUMPI PUSH1 0x4 CALLDATALOAD SWAP2 PUSH1 0x40 MLOAD PUSH3 0x1570 DUP2 PUSH3 0x1C0E JUMP JUMPDEST DUP3 DUP2 MSTORE DUP3 DUP3 DUP3 ADD MSTORE DUP3 PUSH1 0x40 DUP3 ADD MSTORE DUP3 PUSH1 0x60 SWAP2 DUP2 DUP4 DUP3 ADD MSTORE PUSH1 0x80 ADD MSTORE DUP3 DUP2 PUSH1 0x40 MLOAD PUSH3 0x159B DUP2 PUSH3 0x1C40 JUMP JUMPDEST DUP2 DUP2 MSTORE DUP2 DUP6 DUP3 ADD MSTORE DUP3 PUSH1 0x40 DUP3 ADD MSTORE ADD MSTORE DUP4 DUP4 MSTORE PUSH1 0x7 DUP3 MSTORE PUSH1 0x40 DUP4 KECCAK256 SWAP2 PUSH1 0x40 MLOAD SWAP4 PUSH3 0x15C6 DUP6 PUSH3 0x1C0E JUMP JUMPDEST PUSH1 0x1 PUSH1 0xA0 SHL PUSH1 0x1 SWAP1 SUB SWAP6 DUP7 DUP6 SLOAD AND DUP7 MSTORE PUSH1 0x1 DUP6 ADD SLOAD SWAP4 DUP4 DUP8 ADD SWAP5 DUP9 DUP2 AND DUP7 MSTORE PUSH1 0x40 DUP9 ADD SWAP4 PUSH1 0x1 PUSH1 0x1 PUSH1 0x58 SHL SUB SWAP8 DUP9 DUP4 PUSH1 0xA0 SHR AND DUP7 MSTORE DUP4 DUP11 ADD SWAP3 PUSH1 0xF8 SHR DUP4 MSTORE PUSH1 0x2 ADD SLOAD PUSH1 0xFF AND SWAP4 PUSH1 0x80 DUP11 ADD SWAP5 ISZERO ISZERO DUP6 MSTORE DUP2 MSTORE PUSH1 0x8 DUP7 MSTORE PUSH1 0x40 SWAP1 KECCAK256 SWAP7 PUSH1 0x40 MLOAD SWAP5 PUSH3 0x162F DUP7 PUSH3 0x1C40 JUMP JUMPDEST PUSH3 0x163A DUP10 PUSH3 0x1C7E JUMP JUMPDEST DUP7 MSTORE PUSH3 0x164A PUSH1 0x1 DUP11 ADD PUSH3 0x1C7E JUMP JUMPDEST SWAP7 DUP1 DUP8 ADD SWAP8 DUP9 MSTORE DUP12 PUSH1 0x2 DUP12 ADD SLOAD SWAP11 PUSH1 0x40 DUP10 ADD SWAP12 DUP13 MSTORE PUSH1 0x3 ADD SLOAD SWAP10 DUP7 DUP10 ADD SWAP11 DUP12 MSTORE PUSH1 0x40 MLOAD SWAP14 DUP15 SWAP14 MLOAD AND DUP14 MSTORE MLOAD AND SWAP1 DUP12 ADD MSTORE MLOAD AND PUSH1 0x40 DUP10 ADD MSTORE MLOAD PUSH1 0xFF AND SWAP1 DUP8 ADD MSTORE MLOAD ISZERO ISZERO PUSH1 0x80 DUP7 ADD MSTORE PUSH1 0xA0 DUP6 ADD PUSH1 0xC0 SWAP1 MSTORE MLOAD PUSH1 0xC0 DUP6 ADD PUSH1 0x80 SWAP1 MSTORE PUSH2 0x140 DUP6 ADD PUSH3 0x16B2 SWAP2 PUSH3 0x1D55 JUMP JUMPDEST SWAP1 MLOAD DUP5 DUP3 SUB PUSH1 0xBF NOT ADD PUSH1 0xE0 DUP7 ADD MSTORE PUSH3 0x16CC SWAP2 SWAP1 PUSH3 0x1D55 JUMP JUMPDEST SWAP2 MLOAD PUSH2 0x100 DUP5 ADD MSTORE MLOAD PUSH2 0x120 DUP4 ADD MSTORE SUB SWAP1 RETURN JUMPDEST POP CALLVALUE PUSH3 0xA7A JUMPI DUP1 PUSH1 0x3 NOT CALLDATASIZE ADD SLT PUSH3 0xA7A JUMPI PUSH1 0x20 PUSH1 0xFF PUSH1 0x1 SLOAD AND PUSH1 0x40 MLOAD SWAP1 ISZERO ISZERO DUP2 MSTORE RETURN JUMPDEST POP CALLVALUE PUSH3 0xA7A JUMPI PUSH1 0x20 DUP1 PUSH1 0x3 NOT CALLDATASIZE ADD SLT PUSH3 0xA76 JUMPI PUSH1 0x1 PUSH1 0x1 PUSH1 0xA0 SHL SUB PUSH3 0x172B PUSH3 0x1D7C JUMP JUMPDEST AND DUP3 MSTORE PUSH1 0x9 DUP2 MSTORE PUSH1 0x40 DUP3 KECCAK256 PUSH1 0x40 MLOAD SWAP3 DUP4 DUP4 DUP4 SLOAD SWAP2 DUP3 DUP2 MSTORE ADD SWAP1 DUP2 SWAP4 DUP4 MSTORE DUP5 DUP4 KECCAK256 SWAP1 DUP4 JUMPDEST DUP2 DUP2 LT PUSH3 0x17A7 JUMPI POP POP POP DUP5 PUSH3 0x1767 SWAP2 SUB DUP6 PUSH3 0x1C5C JUMP JUMPDEST PUSH1 0x40 MLOAD SWAP4 DUP4 DUP6 SWAP5 DUP6 ADD SWAP2 DUP2 DUP7 MSTORE MLOAD DUP1 SWAP3 MSTORE PUSH1 0x40 DUP6 ADD SWAP4 SWAP3 JUMPDEST DUP3 DUP2 LT PUSH3 0x178F JUMPI POP POP POP POP SUB SWAP1 RETURN JUMPDEST DUP4 MLOAD DUP6 MSTORE DUP7 SWAP6 POP SWAP4 DUP2 ADD SWAP4 SWAP3 DUP2 ADD SWAP3 PUSH1 0x1 ADD PUSH3 0x177F JUMP JUMPDEST DUP3 SLOAD DUP5 MSTORE SWAP3 DUP7 ADD SWAP3 PUSH1 0x1 SWAP3 DUP4 ADD SWAP3 ADD PUSH3 0x174E JUMP JUMPDEST POP CALLVALUE PUSH3 0xA7A JUMPI DUP1 PUSH1 0x3 NOT CALLDATASIZE ADD SLT PUSH3 0xA7A JUMPI PUSH3 0x17D9 PUSH3 0x1E7D JUMP JUMPDEST PUSH1 0x1 SLOAD PUSH1 0xFF DUP2 AND ISZERO PUSH3 0x181A JUMPI PUSH1 0xFF NOT AND PUSH1 0x1 SSTORE PUSH32 0x5DB9EE0A495BF2E6FF9C91A7834C1BA4FDD244A5E8AA4E537BD38AEAE4B073AA PUSH1 0x20 PUSH1 0x40 MLOAD CALLER DUP2 MSTORE LOG1 DUP1 RETURN JUMPDEST PUSH1 0x40 MLOAD PUSH4 0x8DFC202B PUSH1 0xE0 SHL DUP2 MSTORE PUSH1 0x4 SWAP1 REVERT JUMPDEST POP CALLVALUE PUSH3 0xA7A JUMPI PUSH1 0x20 PUSH3 0x184B PUSH3 0x1844 CALLDATASIZE PUSH3 0x1E07 JUMP JUMPDEST SWAP1 PUSH3 0x20D9 JUMP JUMPDEST PUSH1 0x40 MLOAD SWAP1 DUP2 MSTORE RETURN JUMPDEST POP CALLVALUE PUSH3 0xA7A JUMPI PUSH1 0x40 CALLDATASIZE PUSH1 0x3 NOT ADD SLT PUSH3 0xA7A JUMPI PUSH3 0x1871 PUSH3 0x1D98 JUMP JUMPDEST CALLER PUSH1 0x1 PUSH1 0x1 PUSH1 0xA0 SHL SUB DUP3 AND SUB PUSH3 0x1890 JUMPI PUSH3 0xDE2 SWAP1 PUSH1 0x4 CALLDATALOAD PUSH3 0x1F80 JUMP JUMPDEST PUSH1 0x40 MLOAD PUSH4 0x334BD919 PUSH1 0xE1 SHL DUP2 MSTORE PUSH1 0x4 SWAP1 REVERT JUMPDEST POP CALLVALUE PUSH3 0xA7A JUMPI PUSH1 0x20 CALLDATASIZE PUSH1 0x3 NOT ADD SLT PUSH3 0xA7A JUMPI PUSH1 0x4 CALLDATALOAD PUSH32 0x9F29EEE2263C2102949FD3FEBAFB3DD6DBBAEE114F48A474222B2159942EB2B2 DUP1 DUP4 MSTORE DUP3 PUSH1 0x20 MSTORE PUSH1 0x40 DUP4 KECCAK256 CALLER DUP5 MSTORE PUSH1 0x20 MSTORE PUSH1 0xFF PUSH1 0x40 DUP5 KECCAK256 SLOAD AND ISZERO PUSH3 0xD06 JUMPI POP DUP1 ISZERO PUSH3 0x193B JUMPI PUSH1 0x40 PUSH32 0xB38780DDDE1F073D91C150DE2696F3F7085883648BA21CC5EF01029CB21D1916 SWAP2 PUSH1 0x3 SLOAD SWAP1 DUP1 PUSH1 0x3 SSTORE DUP3 MLOAD SWAP2 DUP3 MSTORE PUSH1 0x20 DUP3 ADD MSTORE LOG1 DUP1 RETURN JUMPDEST PUSH1 0x40 MLOAD PUSH4 0x14CEE7CD PUSH1 0xE1 SHL DUP2 MSTORE PUSH1 0x4 SWAP1 REVERT JUMPDEST POP CALLVALUE PUSH3 0xA7A JUMPI PUSH1 0x40 CALLDATASIZE PUSH1 0x3 NOT ADD SLT PUSH3 0xA7A JUMPI PUSH3 0xDE2 PUSH1 0x4 CALLDATALOAD PUSH3 0x1972 PUSH3 0x1D98 JUMP JUMPDEST SWAP1 DUP1 DUP5 MSTORE DUP4 PUSH1 0x20 MSTORE PUSH3 0x198C PUSH1 0x1 PUSH1 0x40 DUP7 KECCAK256 ADD SLOAD PUSH3 0x1EDA JUMP JUMPDEST PUSH3 0x1F01 JUMP JUMPDEST POP CALLVALUE PUSH3 0xA7A JUMPI PUSH1 0x20 CALLDATASIZE PUSH1 0x3 NOT ADD SLT PUSH3 0xA7A JUMPI PUSH1 0x1 PUSH1 0x40 PUSH1 0x20 SWAP3 PUSH1 0x4 CALLDATALOAD DUP2 MSTORE DUP1 DUP5 MSTORE KECCAK256 ADD SLOAD PUSH1 0x40 MLOAD SWAP1 DUP2 MSTORE RETURN JUMPDEST POP CALLVALUE PUSH3 0xA7A JUMPI DUP1 PUSH1 0x3 NOT CALLDATASIZE ADD SLT PUSH3 0xA7A JUMPI PUSH1 0x20 PUSH1 0x3 SLOAD PUSH1 0x40 MLOAD SWAP1 DUP2 MSTORE RETURN JUMPDEST POP CALLVALUE PUSH3 0xA7A JUMPI DUP1 PUSH1 0x3 NOT CALLDATASIZE ADD SLT PUSH3 0xA7A JUMPI PUSH1 0x20 PUSH1 0x40 MLOAD PUSH32 0xBF233DD2AAFEB4D50879C4AA5C81E96D92F6E6945C906A58F9F2D1C1631B4B26 DUP2 MSTORE RETURN JUMPDEST POP CALLVALUE PUSH3 0xA7A JUMPI PUSH1 0x40 CALLDATASIZE PUSH1 0x3 NOT ADD SLT PUSH3 0xA7A JUMPI PUSH3 0x1A3B PUSH3 0x1D7C JUMP JUMPDEST PUSH1 0x24 CALLDATALOAD PUSH1 0x1 PUSH1 0x1 PUSH1 0x40 SHL SUB DUP2 GT PUSH3 0xAF9 JUMPI CALLDATASIZE PUSH1 0x23 DUP3 ADD SLT ISZERO PUSH3 0xAF9 JUMPI PUSH1 0x20 PUSH1 0xFF SWAP3 PUSH1 0x40 DUP3 SWAP6 PUSH3 0x1A7C PUSH3 0x1AA3 SWAP6 CALLDATASIZE SWAP1 PUSH1 0x24 DUP2 PUSH1 0x4 ADD CALLDATALOAD SWAP2 ADD PUSH3 0x1DCB JUMP JUMPDEST PUSH1 0x1 PUSH1 0x1 PUSH1 0xA0 SHL SUB SWAP1 SWAP4 AND DUP2 MSTORE PUSH1 0xA DUP5 MSTORE KECCAK256 PUSH1 0x40 MLOAD DUP3 MLOAD SWAP1 SWAP5 DUP6 SWAP4 DUP3 SWAP1 DUP6 SWAP1 DUP8 ADD PUSH3 0x1D30 JUMP JUMPDEST DUP3 ADD SWAP1 DUP2 MSTORE SUB ADD SWAP1 KECCAK256 SLOAD AND PUSH1 0x40 MLOAD SWAP1 ISZERO ISZERO DUP2 MSTORE RETURN JUMPDEST POP CALLVALUE PUSH3 0xA7A JUMPI PUSH1 0x20 CALLDATASIZE PUSH1 0x3 NOT ADD SLT PUSH3 0xA7A JUMPI PUSH1 0x20 SWAP1 PUSH1 0x40 SWAP1 PUSH1 0x1 PUSH1 0x1 PUSH1 0xA0 SHL SUB PUSH3 0x1AE4 PUSH3 0x1D7C JUMP JUMPDEST AND DUP2 MSTORE PUSH1 0x5 DUP4 MSTORE KECCAK256 SLOAD PUSH1 0x40 MLOAD SWAP1 DUP2 MSTORE RETURN JUMPDEST POP CALLVALUE PUSH3 0xA7A JUMPI PUSH1 0x20 CALLDATASIZE PUSH1 0x3 NOT ADD SLT PUSH3 0xA7A JUMPI PUSH1 0x40 PUSH3 0x1B59 SWAP2 PUSH1 0x4 CALLDATALOAD DUP2 MSTORE PUSH1 0x8 PUSH1 0x20 MSTORE KECCAK256 PUSH3 0x1B26 DUP2 PUSH3 0x1C7E JUMP JUMPDEST SWAP1 PUSH3 0x1B35 PUSH1 0x1 DUP3 ADD PUSH3 0x1C7E JUMP JUMPDEST PUSH3 0x1B68 PUSH1 0x3 PUSH1 0x2 DUP5 ADD SLOAD SWAP4 ADD SLOAD SWAP2 PUSH1 0x40 MLOAD SWAP6 DUP7 SWAP6 PUSH1 0x80 DUP8 MSTORE PUSH1 0x80 DUP8 ADD SWAP1 PUSH3 0x1D55 JUMP JUMPDEST SWAP1 DUP6 DUP3 SUB PUSH1 0x20 DUP8 ADD MSTORE PUSH3 0x1D55 JUMP JUMPDEST SWAP2 PUSH1 0x40 DUP5 ADD MSTORE PUSH1 0x60 DUP4 ADD MSTORE SUB SWAP1 RETURN JUMPDEST SWAP1 POP CALLVALUE PUSH3 0xA76 JUMPI PUSH1 0x20 CALLDATASIZE PUSH1 0x3 NOT ADD SLT PUSH3 0xA76 JUMPI PUSH1 0x4 CALLDATALOAD PUSH4 0xFFFFFFFF PUSH1 0xE0 SHL DUP2 AND DUP1 SWAP2 SUB PUSH3 0xAF9 JUMPI PUSH1 0x20 SWAP3 POP PUSH4 0x7965DB0B PUSH1 0xE0 SHL DUP2 EQ SWAP1 DUP2 ISZERO PUSH3 0x1BBF JUMPI JUMPDEST POP ISZERO ISZERO DUP2 MSTORE RETURN JUMPDEST PUSH4 0x1FFC9A7 PUSH1 0xE0 SHL EQ SWAP1 POP CODESIZE PUSH3 0x1BB8 JUMP JUMPDEST SWAP1 PUSH1 0x1 DUP3 DUP2 SHR SWAP3 AND DUP1 ISZERO PUSH3 0x1C03 JUMPI JUMPDEST PUSH1 0x20 DUP4 LT EQ PUSH3 0x1BED JUMPI JUMP JUMPDEST PUSH4 0x4E487B71 PUSH1 0xE0 SHL PUSH1 0x0 MSTORE PUSH1 0x22 PUSH1 0x4 MSTORE PUSH1 0x24 PUSH1 0x0 REVERT JUMPDEST SWAP2 PUSH1 0x7F AND SWAP2 PUSH3 0x1BE1 JUMP JUMPDEST PUSH1 0xA0 DUP2 ADD SWAP1 DUP2 LT PUSH1 0x1 PUSH1 0x1 PUSH1 0x40 SHL SUB DUP3 GT OR PUSH3 0x1C2A JUMPI PUSH1 0x40 MSTORE JUMP JUMPDEST PUSH4 0x4E487B71 PUSH1 0xE0 SHL PUSH1 0x0 MSTORE PUSH1 0x41 PUSH1 0x4 MSTORE PUSH1 0x24 PUSH1 0x0 REVERT JUMPDEST PUSH1 0x80 DUP2 ADD SWAP1 DUP2 LT PUSH1 0x1 PUSH1 0x1 PUSH1 0x40 SHL SUB DUP3 GT OR PUSH3 0x1C2A JUMPI PUSH1 0x40 MSTORE JUMP JUMPDEST SWAP1 PUSH1 0x1F DUP1 NOT SWAP2 ADD AND DUP2 ADD SWAP1 DUP2 LT PUSH1 0x1 PUSH1 0x1 PUSH1 0x40 SHL SUB DUP3 GT OR PUSH3 0x1C2A JUMPI PUSH1 0x40 MSTORE JUMP JUMPDEST SWAP1 PUSH1 0x40 MLOAD SWAP2 DUP3 PUSH1 0x0 DUP3 SLOAD SWAP3 PUSH3 0x1C94 DUP5 PUSH3 0x1BD1 JUMP JUMPDEST SWAP1 DUP2 DUP5 MSTORE PUSH1 0x1 SWAP5 DUP6 DUP2 AND SWAP1 DUP2 PUSH1 0x0 EQ PUSH3 0x1D0B JUMPI POP PUSH1 0x1 EQ PUSH3 0x1CC4 JUMPI JUMPDEST POP POP PUSH3 0x1CC2 SWAP3 POP SUB DUP4 PUSH3 0x1C5C JUMP JUMPDEST JUMP JUMPDEST SWAP1 SWAP4 SWAP2 POP PUSH1 0x0 MSTORE PUSH1 0x20 SWAP1 DUP2 PUSH1 0x0 KECCAK256 SWAP4 PUSH1 0x0 SWAP2 JUMPDEST DUP2 DUP4 LT PUSH3 0x1CF2 JUMPI POP POP PUSH3 0x1CC2 SWAP4 POP DUP3 ADD ADD CODESIZE DUP1 PUSH3 0x1CB2 JUMP JUMPDEST DUP6 SLOAD DUP9 DUP5 ADD DUP6 ADD MSTORE SWAP5 DUP6 ADD SWAP5 DUP8 SWAP5 POP SWAP2 DUP4 ADD SWAP2 PUSH3 0x1CD7 JUMP JUMPDEST SWAP2 POP POP PUSH3 0x1CC2 SWAP5 POP PUSH1 0x20 SWAP3 POP PUSH1 0xFF NOT AND DUP3 DUP5 ADD MSTORE ISZERO ISZERO PUSH1 0x5 SHL DUP3 ADD ADD CODESIZE DUP1 PUSH3 0x1CB2 JUMP JUMPDEST PUSH1 0x0 JUMPDEST DUP4 DUP2 LT PUSH3 0x1D44 JUMPI POP POP PUSH1 0x0 SWAP2 ADD MSTORE JUMP JUMPDEST DUP2 DUP2 ADD MLOAD DUP4 DUP3 ADD MSTORE PUSH1 0x20 ADD PUSH3 0x1D33 JUMP JUMPDEST SWAP1 PUSH1 0x20 SWAP2 PUSH3 0x1D70 DUP2 MLOAD DUP1 SWAP3 DUP2 DUP6 MSTORE DUP6 DUP1 DUP7 ADD SWAP2 ADD PUSH3 0x1D30 JUMP JUMPDEST PUSH1 0x1F ADD PUSH1 0x1F NOT AND ADD ADD SWAP1 JUMP JUMPDEST PUSH1 0x4 CALLDATALOAD SWAP1 PUSH1 0x1 PUSH1 0x1 PUSH1 0xA0 SHL SUB DUP3 AND DUP3 SUB PUSH3 0x1D93 JUMPI JUMP JUMPDEST PUSH1 0x0 DUP1 REVERT JUMPDEST PUSH1 0x24 CALLDATALOAD SWAP1 PUSH1 0x1 PUSH1 0x1 PUSH1 0xA0 SHL SUB DUP3 AND DUP3 SUB PUSH3 0x1D93 JUMPI JUMP JUMPDEST PUSH1 0x1 PUSH1 0x1 PUSH1 0x40 SHL SUB DUP2 GT PUSH3 0x1C2A JUMPI PUSH1 0x1F ADD PUSH1 0x1F NOT AND PUSH1 0x20 ADD SWAP1 JUMP JUMPDEST SWAP3 SWAP2 SWAP3 PUSH3 0x1DD9 DUP3 PUSH3 0x1DAF JUMP JUMPDEST SWAP2 PUSH3 0x1DE9 PUSH1 0x40 MLOAD SWAP4 DUP5 PUSH3 0x1C5C JUMP JUMPDEST DUP3 SWAP5 DUP2 DUP5 MSTORE DUP2 DUP4 ADD GT PUSH3 0x1D93 JUMPI DUP3 DUP2 PUSH1 0x20 SWAP4 DUP5 PUSH1 0x0 SWAP7 ADD CALLDATACOPY ADD ADD MSTORE JUMP JUMPDEST PUSH1 0x40 SWAP1 PUSH1 0x3 NOT ADD SLT PUSH3 0x1D93 JUMPI PUSH1 0x4 CALLDATALOAD SWAP1 PUSH1 0x24 CALLDATALOAD SWAP1 JUMP JUMPDEST DUP1 SLOAD DUP3 LT ISZERO PUSH3 0x1E37 JUMPI PUSH1 0x0 MSTORE PUSH1 0x20 PUSH1 0x0 KECCAK256 ADD SWAP1 PUSH1 0x0 SWAP1 JUMP JUMPDEST PUSH4 0x4E487B71 PUSH1 0xE0 SHL PUSH1 0x0 MSTORE PUSH1 0x32 PUSH1 0x4 MSTORE PUSH1 0x24 PUSH1 0x0 REVERT JUMPDEST SWAP2 DUP2 PUSH1 0x1F DUP5 ADD SLT ISZERO PUSH3 0x1D93 JUMPI DUP3 CALLDATALOAD SWAP2 PUSH1 0x1 PUSH1 0x1 PUSH1 0x40 SHL SUB DUP4 GT PUSH3 0x1D93 JUMPI PUSH1 0x20 DUP4 DUP2 DUP7 ADD SWAP6 ADD ADD GT PUSH3 0x1D93 JUMPI JUMP JUMPDEST CALLER PUSH1 0x0 SWAP1 DUP2 MSTORE PUSH32 0xF7C9542C591017A21C74B6F3FAB6263C7952FC0AAF9DB4C22A2A04DDC7F8674F PUSH1 0x20 MSTORE PUSH1 0x40 SWAP1 KECCAK256 SLOAD PUSH32 0x65D7A28E3265B37A6474929F336521B332C1681B933F6CB9F3376673440D862A SWAP1 PUSH1 0xFF AND ISZERO PUSH3 0xD06 JUMPI POP JUMP JUMPDEST DUP1 PUSH1 0x0 MSTORE PUSH1 0x0 PUSH1 0x20 MSTORE PUSH1 0x40 PUSH1 0x0 KECCAK256 CALLER PUSH1 0x0 MSTORE PUSH1 0x20 MSTORE PUSH1 0xFF PUSH1 0x40 PUSH1 0x0 KECCAK256 SLOAD AND ISZERO PUSH3 0xD06 JUMPI POP JUMP JUMPDEST SWAP1 PUSH1 0x0 SWAP2 DUP1 DUP4 MSTORE DUP3 PUSH1 0x20 MSTORE PUSH1 0x40 DUP4 KECCAK256 SWAP2 PUSH1 0x1 DUP1 PUSH1 0xA0 SHL SUB AND SWAP2 DUP3 DUP5 MSTORE PUSH1 0x20 MSTORE PUSH1 0xFF PUSH1 0x40 DUP5 KECCAK256 SLOAD AND ISZERO PUSH1 0x0 EQ PUSH3 0x1F7B JUMPI DUP1 DUP4 MSTORE DUP3 PUSH1 0x20 MSTORE PUSH1 0x40 DUP4 KECCAK256 DUP3 DUP5 MSTORE PUSH1 0x20 MSTORE PUSH1 0x40 DUP4 KECCAK256 PUSH1 0x1 PUSH1 0xFF NOT DUP3 SLOAD AND OR SWAP1 SSTORE PUSH32 0x2F8788117E7EFF1D82E926EC794901D17C78024A50270940304540A733656F0D CALLER SWAP4 DUP1 LOG4 PUSH1 0x1 SWAP1 JUMP JUMPDEST POP POP SWAP1 JUMP JUMPDEST SWAP1 PUSH1 0x0 SWAP2 DUP1 DUP4 MSTORE DUP3 PUSH1 0x20 MSTORE PUSH1 0x40 DUP4 KECCAK256 SWAP2 PUSH1 0x1 DUP1 PUSH1 0xA0 SHL SUB AND SWAP2 DUP3 DUP5 MSTORE PUSH1 0x20 MSTORE PUSH1 0xFF PUSH1 0x40 DUP5 KECCAK256 SLOAD AND PUSH1 0x0 EQ PUSH3 0x1F7B JUMPI DUP1 DUP4 MSTORE DUP3 PUSH1 0x20 MSTORE PUSH1 0x40 DUP4 KECCAK256 DUP3 DUP5 MSTORE PUSH1 0x20 MSTORE PUSH1 0x40 DUP4 KECCAK256 PUSH1 0xFF NOT DUP2 SLOAD AND SWAP1 SSTORE PUSH32 0xF6391F5C32D9C69D2A47EA670B442974B53935D1EDC7FD64EB21E047A839171B CALLER SWAP4 DUP1 LOG4 PUSH1 0x1 SWAP1 JUMP JUMPDEST DUP2 DUP2 MUL SWAP3 SWAP2 DUP2 ISZERO SWAP2 DUP5 DIV EQ OR ISZERO PUSH3 0x200A JUMPI JUMP JUMPDEST PUSH4 0x4E487B71 PUSH1 0xE0 SHL PUSH1 0x0 MSTORE PUSH1 0x11 PUSH1 0x4 MSTORE PUSH1 0x24 PUSH1 0x0 REVERT JUMPDEST DUP2 ISZERO PUSH3 0x202B JUMPI DIV SWAP1 JUMP JUMPDEST PUSH4 0x4E487B71 PUSH1 0xE0 SHL PUSH1 0x0 MSTORE PUSH1 0x12 PUSH1 0x4 MSTORE PUSH1 0x24 PUSH1 0x0 REVERT JUMPDEST SWAP1 DUP2 PUSH1 0x20 SWAP2 SUB SLT PUSH3 0x1D93 JUMPI MLOAD DUP1 ISZERO ISZERO DUP2 SUB PUSH3 0x1D93 JUMPI SWAP1 JUMP JUMPDEST SWAP2 SWAP1 DUP3 ADD DUP1 SWAP3 GT PUSH3 0x200A JUMPI JUMP JUMPDEST PUSH1 0xFF PUSH1 0x1 SLOAD AND PUSH3 0x2076 JUMPI JUMP JUMPDEST PUSH1 0x40 MLOAD PUSH4 0xD93C0665 PUSH1 0xE0 SHL DUP2 MSTORE PUSH1 0x4 SWAP1 REVERT JUMPDEST PUSH1 0x2 DUP1 SLOAD EQ PUSH3 0x2098 JUMPI PUSH1 0x2 DUP1 SSTORE JUMP JUMPDEST PUSH1 0x40 MLOAD PUSH4 0x3EE5AEB5 PUSH1 0xE0 SHL DUP2 MSTORE PUSH1 0x4 SWAP1 REVERT JUMPDEST SWAP1 DUP1 PUSH1 0x20 SWAP4 SWAP3 DUP2 DUP5 MSTORE DUP5 DUP5 ADD CALLDATACOPY PUSH1 0x0 DUP3 DUP3 ADD DUP5 ADD MSTORE PUSH1 0x1F ADD PUSH1 0x1F NOT AND ADD ADD SWAP1 JUMP JUMPDEST SWAP2 SWAP1 DUP3 SUB SWAP2 DUP3 GT PUSH3 0x200A JUMPI JUMP JUMPDEST DUP1 ISZERO DUP1 ISZERO PUSH3 0x21D8 JUMPI JUMPDEST PUSH3 0x21D1 JUMPI PUSH1 0x0 SWAP1 DUP1 DUP3 MSTORE PUSH1 0x7 PUSH1 0x20 MSTORE PUSH1 0x40 SWAP2 DUP3 DUP2 KECCAK256 SWAP1 DUP4 MLOAD SWAP3 PUSH3 0x2108 DUP5 PUSH3 0x1C0E JUMP JUMPDEST PUSH1 0x1 DUP1 PUSH1 0xA0 SHL SUB SWAP4 DUP5 DUP5 SLOAD AND DUP2 MSTORE PUSH1 0x1 DUP5 ADD SLOAD SWAP5 DUP6 AND PUSH1 0x20 DUP3 ADD MSTORE PUSH1 0xFF PUSH1 0x2 DUP8 DUP4 ADD SWAP6 PUSH1 0x1 PUSH1 0x1 PUSH1 0x58 SHL SUB SWAP8 DUP9 DUP2 PUSH1 0xA0 SHR AND DUP9 MSTORE PUSH1 0xF8 SHR PUSH1 0x60 DUP6 ADD MSTORE ADD SLOAD AND ISZERO SWAP1 PUSH1 0x80 DUP3 ISZERO SWAP2 ADD MSTORE PUSH3 0x21C8 JUMPI DUP2 MSTORE PUSH1 0x8 PUSH1 0x20 MSTORE DUP4 DUP2 KECCAK256 SWAP4 DUP1 MLOAD PUSH3 0x216D DUP2 PUSH3 0x1C40 JUMP JUMPDEST PUSH3 0x2178 DUP7 PUSH3 0x1C7E JUMP JUMPDEST DUP2 MSTORE PUSH3 0x2188 PUSH1 0x1 DUP8 ADD PUSH3 0x1C7E JUMP JUMPDEST PUSH1 0x20 DUP3 ADD MSTORE PUSH1 0x60 PUSH1 0x3 PUSH1 0x2 DUP9 ADD SLOAD SWAP4 DUP4 ADD SWAP8 DUP5 DUP10 MSTORE ADD SLOAD SWAP2 ADD MSTORE ISZERO PUSH3 0x21C0 JUMPI POP SWAP3 PUSH3 0x13A7 SWAP2 PUSH3 0x21BD SWAP5 MLOAD AND SWAP1 PUSH3 0x1FF6 JUMP JUMPDEST SWAP1 JUMP JUMPDEST SWAP4 POP POP POP POP SWAP1 JUMP JUMPDEST POP SWAP4 POP POP POP POP SWAP1 JUMP JUMPDEST POP POP PUSH1 0x0 SWAP1 JUMP JUMPDEST POP PUSH1 0x4 SLOAD DUP2 LT ISZERO PUSH3 0x20E3 JUMP INVALID PUSH1 0x40 PUSH1 0xE0 DUP2 MSTORE CALLVALUE PUSH3 0x47C JUMPI PUSH3 0x1301 DUP1 CODESIZE SUB DUP1 PUSH3 0x1E DUP2 PUSH3 0x481 JUMP JUMPDEST SWAP3 DUP4 CODECOPY DUP2 ADD PUSH1 0xE0 DUP3 DUP3 SUB SLT PUSH3 0x47C JUMPI DUP2 MLOAD PUSH1 0x1 PUSH1 0x1 PUSH1 0x40 SHL SUB SWAP3 SWAP1 DUP4 DUP2 GT PUSH3 0x47C JUMPI DUP3 PUSH3 0x50 SWAP2 DUP4 ADD PUSH3 0x4A7 JUMP JUMPDEST SWAP3 PUSH1 0x20 SWAP3 DUP4 DUP4 ADD MLOAD SWAP1 DUP3 DUP3 GT PUSH3 0x47C JUMPI PUSH3 0x6E SWAP2 DUP5 ADD PUSH3 0x4A7 JUMP JUMPDEST SWAP1 DUP6 DUP4 ADD MLOAD SWAP3 PUSH1 0xFF DUP5 AND DUP5 SUB PUSH3 0x47C JUMPI PUSH1 0x60 DUP2 ADD MLOAD SWAP4 PUSH3 0x93 PUSH1 0x80 DUP4 ADD PUSH3 0x519 JUMP JUMPDEST SWAP7 PUSH1 0xC0 PUSH3 0xA4 PUSH1 0xA0 DUP6 ADD PUSH3 0x519 JUMP JUMPDEST SWAP4 ADD MLOAD SWAP4 DUP2 MLOAD DUP2 DUP2 GT PUSH3 0x36D JUMPI PUSH1 0x3 SWAP1 DUP2 SLOAD SWAP1 PUSH1 0x1 SWAP5 DUP6 DUP4 DUP2 SHR SWAP4 AND DUP1 ISZERO PUSH3 0x471 JUMPI JUMPDEST DUP13 DUP5 LT EQ PUSH3 0x45B JUMPI DUP2 SWAP1 DUP13 PUSH1 0x1F SWAP5 DUP6 DUP2 GT PUSH3 0x402 JUMPI JUMPDEST POP POP DUP13 SWAP1 DUP5 DUP4 GT PUSH1 0x1 EQ PUSH3 0x38F JUMPI PUSH1 0x0 SWAP3 PUSH3 0x383 JUMPI JUMPDEST POP POP PUSH1 0x0 NOT DUP3 DUP6 SHL SHR NOT AND SWAP1 DUP6 SHL OR DUP3 SSTORE JUMPDEST DUP8 MLOAD SWAP3 DUP4 GT PUSH3 0x36D JUMPI PUSH1 0x4 SWAP8 DUP9 SLOAD DUP6 DUP2 DUP2 SHR SWAP2 AND DUP1 ISZERO PUSH3 0x362 JUMPI JUMPDEST DUP13 DUP3 LT EQ PUSH3 0x34D JUMPI SWAP1 DUP12 DUP3 DUP5 DUP8 SWAP7 SWAP6 SWAP5 GT PUSH3 0x2F0 JUMPI JUMPDEST POP POP DUP12 SWAP2 DUP5 GT PUSH1 0x1 EQ PUSH3 0x285 JUMPI PUSH1 0x0 SWAP4 PUSH3 0x279 JUMPI JUMPDEST POP POP DUP3 DUP5 SHL SWAP3 PUSH1 0x0 NOT SWAP2 SHL SHR NOT AND OR DUP6 SSTORE JUMPDEST PUSH1 0x1 PUSH1 0x1 PUSH1 0xA0 SHL SUB SWAP8 DUP9 AND SWAP8 DUP9 ISZERO PUSH3 0x262 JUMPI PUSH1 0x5 DUP1 SLOAD PUSH1 0x1 PUSH1 0x1 PUSH1 0xA0 SHL SUB NOT DUP2 AND DUP12 OR SWAP1 SWAP2 SSTORE DUP10 SWAP2 AND PUSH32 0x8BE0079C531659141344CD1FD0A4F28419497F9722A3DAAFE3B4186F6B6457E0 PUSH1 0x0 DUP1 LOG3 DUP1 PUSH1 0x6 SSTORE PUSH1 0xFF NOT PUSH1 0x8 SLOAD AND OR PUSH1 0x8 SSTORE PUSH1 0x80 MSTORE PUSH1 0xA0 MSTORE PUSH1 0xC0 MSTORE PUSH1 0x2 SLOAD SWAP1 DUP3 DUP3 ADD DUP1 SWAP3 GT PUSH3 0x24D JUMPI POP PUSH1 0x2 SSTORE PUSH1 0x0 DUP4 DUP2 MSTORE DUP1 DUP4 MSTORE DUP5 DUP2 KECCAK256 DUP1 SLOAD DUP4 ADD SWAP1 SSTORE DUP5 MLOAD SWAP2 DUP3 MSTORE SWAP2 PUSH32 0xDDF252AD1BE2C89B69C2B068FC378DAA952BA7F163C4A11628F55A4DF523B3EF SWAP2 LOG3 MLOAD PUSH2 0xDD2 SWAP1 DUP2 PUSH3 0x52F DUP3 CODECOPY PUSH1 0x80 MLOAD DUP2 PUSH2 0x819 ADD MSTORE PUSH1 0xA0 MLOAD DUP2 DUP2 DUP2 PUSH2 0x258 ADD MSTORE PUSH2 0x5C3 ADD MSTORE PUSH1 0xC0 MLOAD DUP2 PUSH2 0x220 ADD MSTORE RETURN JUMPDEST PUSH1 0x11 SWAP1 PUSH4 0x4E487B71 PUSH1 0xE0 SHL PUSH1 0x0 MSTORE MSTORE PUSH1 0x24 PUSH1 0x0 REVERT JUMPDEST DUP10 MLOAD PUSH4 0x1E4FBDF7 PUSH1 0xE0 SHL DUP2 MSTORE PUSH1 0x0 DUP2 DUP9 ADD MSTORE PUSH1 0x24 SWAP1 REVERT JUMPDEST ADD MLOAD SWAP2 POP CODESIZE DUP1 PUSH3 0x157 JUMP JUMPDEST PUSH1 0x0 DUP11 DUP2 MSTORE DUP13 DUP2 KECCAK256 DUP8 SWAP7 POP SWAP4 SWAP3 SWAP2 SWAP1 PUSH1 0x1F NOT DUP7 AND SWAP1 DUP15 JUMPDEST DUP3 DUP3 LT PUSH3 0x2D8 JUMPI POP POP DUP6 GT PUSH3 0x2BD JUMPI JUMPDEST POP POP POP POP DUP2 SHL ADD DUP6 SSTORE PUSH3 0x169 JUMP JUMPDEST ADD MLOAD SWAP1 PUSH1 0xF8 DUP5 PUSH1 0x0 NOT SWAP3 SHL AND SHR NOT AND SWAP1 SSTORE CODESIZE DUP1 DUP1 DUP1 PUSH3 0x2AE JUMP JUMPDEST DUP4 DUP6 ADD MLOAD DUP8 SSTORE DUP10 SWAP9 SWAP1 SWAP7 ADD SWAP6 SWAP4 DUP5 ADD SWAP4 ADD DUP15 PUSH3 0x29C JUMP JUMPDEST SWAP1 SWAP2 SWAP3 SWAP4 SWAP5 POP DUP11 PUSH1 0x0 MSTORE DUP4 DUP3 PUSH1 0x0 KECCAK256 SWAP2 DUP2 DUP9 ADD PUSH1 0x5 SHR DUP4 ADD SWAP4 DUP9 LT PUSH3 0x343 JUMPI JUMPDEST SWAP2 DUP9 SWAP2 DUP9 SWAP8 SWAP7 SWAP6 SWAP5 SWAP4 ADD PUSH1 0x5 SHR ADD SWAP2 JUMPDEST DUP3 DUP2 LT PUSH3 0x333 JUMPI POP DUP14 SWAP2 POP PUSH3 0x140 JUMP JUMPDEST PUSH1 0x0 DUP2 SSTORE DUP8 SWAP7 POP DUP9 SWAP2 ADD PUSH3 0x321 JUMP JUMPDEST SWAP3 POP DUP2 SWAP3 PUSH3 0x311 JUMP JUMPDEST PUSH1 0x22 DUP11 PUSH4 0x4E487B71 PUSH1 0xE0 SHL PUSH1 0x0 MSTORE MSTORE PUSH1 0x24 PUSH1 0x0 REVERT JUMPDEST SWAP1 PUSH1 0x7F AND SWAP1 PUSH3 0x128 JUMP JUMPDEST PUSH4 0x4E487B71 PUSH1 0xE0 SHL PUSH1 0x0 MSTORE PUSH1 0x41 PUSH1 0x4 MSTORE PUSH1 0x24 PUSH1 0x0 REVERT JUMPDEST ADD MLOAD SWAP1 POP CODESIZE DUP1 PUSH3 0xF9 JUMP JUMPDEST DUP8 SWAP4 POP SWAP1 DUP14 SWAP2 PUSH1 0x1F NOT DUP5 AND DUP8 PUSH1 0x0 MSTORE DUP4 PUSH1 0x0 KECCAK256 SWAP4 PUSH1 0x0 SWAP1 JUMPDEST DUP3 DUP3 LT PUSH3 0x3E0 JUMPI POP POP DUP5 GT PUSH3 0x3C7 JUMPI JUMPDEST POP POP POP DUP2 SHL ADD DUP3 SSTORE PUSH3 0x10B JUMP JUMPDEST ADD MLOAD PUSH1 0x0 NOT DUP4 DUP8 SHL PUSH1 0xF8 AND SHR NOT AND SWAP1 SSTORE CODESIZE DUP1 DUP1 PUSH3 0x3B9 JUMP JUMPDEST SWAP2 SWAP3 SWAP4 SWAP6 SWAP7 DUP3 SWAP2 SWAP6 DUP8 DUP7 ADD MLOAD DUP2 SSTORE ADD SWAP6 ADD SWAP4 ADD SWAP1 DUP16 SWAP2 DUP11 SWAP7 SWAP6 SWAP5 SWAP4 SWAP3 PUSH3 0x3A7 JUMP JUMPDEST SWAP1 SWAP2 SWAP3 POP DUP6 PUSH1 0x0 MSTORE DUP5 DUP3 PUSH1 0x0 KECCAK256 SWAP2 DUP2 DUP7 ADD PUSH1 0x5 SHR DUP4 ADD SWAP4 DUP7 LT PUSH3 0x451 JUMPI JUMPDEST SWAP2 DUP10 SWAP2 DUP7 SWAP6 SWAP5 SWAP4 ADD PUSH1 0x5 SHR ADD SWAP2 JUMPDEST DUP3 DUP2 LT PUSH3 0x441 JUMPI POP DUP15 SWAP2 POP PUSH3 0xE1 JUMP JUMPDEST PUSH1 0x0 DUP2 SSTORE DUP6 SWAP5 POP DUP10 SWAP2 ADD PUSH3 0x42F JUMP JUMPDEST SWAP3 POP DUP2 SWAP3 PUSH3 0x421 JUMP JUMPDEST PUSH4 0x4E487B71 PUSH1 0xE0 SHL PUSH1 0x0 MSTORE PUSH1 0x22 PUSH1 0x4 MSTORE PUSH1 0x24 PUSH1 0x0 REVERT JUMPDEST SWAP3 PUSH1 0x7F AND SWAP3 PUSH3 0xC9 JUMP JUMPDEST PUSH1 0x0 DUP1 REVERT JUMPDEST PUSH1 0x40 MLOAD SWAP2 SWAP1 PUSH1 0x1F ADD PUSH1 0x1F NOT AND DUP3 ADD PUSH1 0x1 PUSH1 0x1 PUSH1 0x40 SHL SUB DUP2 GT DUP4 DUP3 LT OR PUSH3 0x36D JUMPI PUSH1 0x40 MSTORE JUMP JUMPDEST SWAP2 SWAP1 DUP1 PUSH1 0x1F DUP5 ADD SLT ISZERO PUSH3 0x47C JUMPI DUP3 MLOAD PUSH1 0x1 PUSH1 0x1 PUSH1 0x40 SHL SUB DUP2 GT PUSH3 0x36D JUMPI PUSH1 0x20 SWAP1 PUSH3 0x4DD PUSH1 0x1F DUP3 ADD PUSH1 0x1F NOT AND DUP4 ADD PUSH3 0x481 JUMP JUMPDEST SWAP3 DUP2 DUP5 MSTORE DUP3 DUP3 DUP8 ADD ADD GT PUSH3 0x47C JUMPI PUSH1 0x0 JUMPDEST DUP2 DUP2 LT PUSH3 0x505 JUMPI POP DUP3 PUSH1 0x0 SWAP4 SWAP5 SWAP6 POP ADD ADD MSTORE SWAP1 JUMP JUMPDEST DUP6 DUP2 ADD DUP4 ADD MLOAD DUP5 DUP3 ADD DUP5 ADD MSTORE DUP3 ADD PUSH3 0x4EF JUMP JUMPDEST MLOAD SWAP1 PUSH1 0x1 PUSH1 0x1 PUSH1 0xA0 SHL SUB DUP3 AND DUP3 SUB PUSH3 0x47C JUMPI JUMP INVALID PUSH1 0x80 PUSH1 0x40 DUP2 DUP2 MSTORE PUSH1 0x4 DUP1 CALLDATASIZE LT ISZERO PUSH2 0x15 JUMPI PUSH1 0x0 DUP1 REVERT JUMPDEST PUSH1 0x0 SWAP3 DUP4 CALLDATALOAD PUSH1 0xE0 SHR SWAP1 DUP2 PUSH4 0x6FDDE03 EQ PUSH2 0x9E6 JUMPI POP DUP1 PUSH4 0x95EA7B3 EQ PUSH2 0x93D JUMPI DUP1 PUSH4 0x18160DDD EQ PUSH2 0x91E JUMPI DUP1 PUSH4 0x23B872DD EQ PUSH2 0x83D JUMPI DUP1 PUSH4 0x313CE567 EQ PUSH2 0x7FF JUMPI DUP1 PUSH4 0x42966C68 EQ PUSH2 0x760 JUMPI DUP1 PUSH4 0x5DC96D16 EQ PUSH2 0x73C JUMPI DUP1 PUSH4 0x70A08231 EQ PUSH2 0x705 JUMPI DUP1 PUSH4 0x715018A6 EQ PUSH2 0x6A8 JUMPI DUP1 PUSH4 0x79CC6790 EQ PUSH2 0x59B JUMPI DUP1 PUSH4 0x7B2C835F EQ PUSH2 0x539 JUMPI DUP1 PUSH4 0x8DA5CB5B EQ PUSH2 0x510 JUMPI DUP1 PUSH4 0x95D89B41 EQ PUSH2 0x40C JUMPI DUP1 PUSH4 0xA9059CBB EQ PUSH2 0x3DB JUMPI DUP1 PUSH4 0xAD1329D1 EQ PUSH2 0x287 JUMPI DUP1 PUSH4 0xC45A0155 EQ PUSH2 0x243 JUMPI DUP1 PUSH4 0xD7C81B55 EQ PUSH2 0x208 JUMPI DUP1 PUSH4 0xD89135CD EQ PUSH2 0x1E9 JUMPI DUP1 PUSH4 0xDD62ED3E EQ PUSH2 0x191 JUMPI PUSH4 0xF2FDE38B EQ PUSH2 0xFF JUMPI PUSH1 0x0 DUP1 REVERT JUMPDEST CALLVALUE PUSH2 0x18D JUMPI PUSH1 0x20 CALLDATASIZE PUSH1 0x3 NOT ADD SLT PUSH2 0x18D JUMPI PUSH2 0x118 PUSH2 0xB25 JUMP JUMPDEST SWAP1 PUSH2 0x121 PUSH2 0xB75 JUMP JUMPDEST PUSH1 0x1 PUSH1 0x1 PUSH1 0xA0 SHL SUB SWAP2 DUP3 AND SWAP3 DUP4 ISZERO PUSH2 0x177 JUMPI POP POP PUSH1 0x5 SLOAD DUP3 PUSH12 0xFFFFFFFFFFFFFFFFFFFFFFFF PUSH1 0xA0 SHL DUP3 AND OR PUSH1 0x5 SSTORE AND PUSH32 0x8BE0079C531659141344CD1FD0A4F28419497F9722A3DAAFE3B4186F6B6457E0 DUP4 DUP1 LOG3 DUP1 RETURN JUMPDEST MLOAD PUSH4 0x1E4FBDF7 PUSH1 0xE0 SHL DUP2 MSTORE SWAP1 DUP2 ADD DUP5 SWAP1 MSTORE PUSH1 0x24 SWAP1 REVERT JUMPDEST DUP3 DUP1 REVERT JUMPDEST POP POP CALLVALUE PUSH2 0x1E5 JUMPI DUP1 PUSH1 0x3 NOT CALLDATASIZE ADD SLT PUSH2 0x1E5 JUMPI PUSH2 0x1AB PUSH2 0xB25 JUMP JUMPDEST PUSH1 0x1 PUSH1 0x1 PUSH1 0xA0 SHL SUB PUSH1 0x24 CALLDATALOAD DUP2 DUP2 AND SWAP3 SWAP1 DUP4 SWAP1 SUB PUSH2 0x1E1 JUMPI SWAP2 PUSH1 0x20 SWAP5 SWAP2 DUP5 SWAP4 AND DUP3 MSTORE PUSH1 0x1 DUP6 MSTORE DUP3 DUP3 KECCAK256 SWAP1 DUP3 MSTORE DUP5 MSTORE KECCAK256 SLOAD SWAP1 MLOAD SWAP1 DUP2 MSTORE RETURN JUMPDEST DUP5 DUP1 REVERT JUMPDEST POP DUP1 REVERT JUMPDEST POP POP CALLVALUE PUSH2 0x1E5 JUMPI DUP2 PUSH1 0x3 NOT CALLDATASIZE ADD SLT PUSH2 0x1E5 JUMPI PUSH1 0x20 SWAP1 PUSH1 0x7 SLOAD SWAP1 MLOAD SWAP1 DUP2 MSTORE RETURN JUMPDEST POP POP CALLVALUE PUSH2 0x1E5 JUMPI DUP2 PUSH1 0x3 NOT CALLDATASIZE ADD SLT PUSH2 0x1E5 JUMPI PUSH1 0x20 SWAP1 MLOAD PUSH32 0x0 DUP2 MSTORE RETURN JUMPDEST POP POP CALLVALUE PUSH2 0x1E5 JUMPI DUP2 PUSH1 0x3 NOT CALLDATASIZE ADD SLT PUSH2 0x1E5 JUMPI MLOAD PUSH32 0x0 PUSH1 0x1 PUSH1 0x1 PUSH1 0xA0 SHL SUB AND DUP2 MSTORE PUSH1 0x20 SWAP1 RETURN JUMPDEST POP SWAP1 CALLVALUE PUSH2 0x18D JUMPI PUSH2 0x297 CALLDATASIZE PUSH2 0xB40 JUMP JUMPDEST SWAP2 SWAP1 PUSH2 0x2A1 PUSH2 0xB75 JUMP JUMPDEST PUSH1 0x1 PUSH1 0x1 PUSH1 0xA0 SHL SUB SWAP1 DUP2 AND SWAP2 DUP3 ISZERO PUSH2 0x3CB JUMPI DUP7 SWAP4 SWAP3 SWAP2 AND DUP1 PUSH2 0x357 JUMPI POP DUP3 DUP1 SWAP3 DUP2 SWAP3 GAS CALL RETURNDATASIZE ISZERO PUSH2 0x352 JUMPI RETURNDATASIZE PUSH8 0xFFFFFFFFFFFFFFFF DUP2 GT PUSH2 0x33F JUMPI DUP3 MLOAD SWAP1 PUSH2 0x2F2 PUSH1 0x1F DUP3 ADD PUSH1 0x1F NOT AND PUSH1 0x20 ADD DUP4 PUSH2 0xBA1 JUMP JUMPDEST DUP2 MSTORE DUP5 PUSH1 0x20 RETURNDATASIZE SWAP3 ADD RETURNDATACOPY JUMPDEST ISZERO PUSH2 0x306 JUMPI POP POP DUP1 RETURN JUMPDEST SWAP1 PUSH1 0x20 PUSH1 0x64 SWAP3 MLOAD SWAP2 PUSH3 0x461BCD PUSH1 0xE5 SHL DUP4 MSTORE DUP3 ADD MSTORE PUSH1 0x13 PUSH1 0x24 DUP3 ADD MSTORE PUSH19 0x115512081D1C985B9CD9995C8819985A5B1959 PUSH1 0x6A SHL PUSH1 0x44 DUP3 ADD MSTORE REVERT JUMPDEST PUSH4 0x4E487B71 PUSH1 0xE0 SHL DUP6 MSTORE PUSH1 0x41 DUP5 MSTORE PUSH1 0x24 DUP6 REVERT JUMPDEST PUSH2 0x2FC JUMP JUMPDEST SWAP5 PUSH1 0x20 SWAP4 PUSH1 0x44 SWAP3 SWAP4 SWAP7 DUP7 MLOAD SWAP8 DUP9 SWAP6 DUP7 SWAP5 PUSH4 0xA9059CBB PUSH1 0xE0 SHL DUP7 MSTORE DUP6 ADD MSTORE PUSH1 0x24 DUP5 ADD MSTORE GAS CALL SWAP1 DUP2 ISZERO PUSH2 0x3C2 JUMPI POP PUSH2 0x38B JUMPI POP DUP1 RETURN JUMPDEST PUSH1 0x20 DUP2 RETURNDATASIZE DUP3 GT PUSH2 0x3BA JUMPI JUMPDEST DUP2 PUSH2 0x3A3 PUSH1 0x20 SWAP4 DUP4 PUSH2 0xBA1 JUMP JUMPDEST DUP2 ADD SUB SLT PUSH2 0x1E5 JUMPI MLOAD DUP1 ISZERO ISZERO SUB PUSH2 0x3B7 JUMPI DUP1 RETURN JUMPDEST DUP1 REVERT JUMPDEST RETURNDATASIZE SWAP2 POP PUSH2 0x396 JUMP JUMPDEST MLOAD RETURNDATASIZE DUP5 DUP3 RETURNDATACOPY RETURNDATASIZE SWAP1 REVERT JUMPDEST DUP5 MLOAD PUSH4 0x1F2A2005 PUSH1 0xE0 SHL DUP2 MSTORE DUP7 SWAP1 REVERT JUMPDEST POP POP CALLVALUE PUSH2 0x1E5 JUMPI DUP1 PUSH1 0x3 NOT CALLDATASIZE ADD SLT PUSH2 0x1E5 JUMPI PUSH1 0x20 SWAP1 PUSH2 0x405 PUSH2 0x3FB PUSH2 0xB25 JUMP JUMPDEST PUSH1 0x24 CALLDATALOAD SWAP1 CALLER PUSH2 0xBD9 JUMP JUMPDEST MLOAD PUSH1 0x1 DUP2 MSTORE RETURN JUMPDEST POP SWAP2 SWAP1 CALLVALUE PUSH2 0x1E5 JUMPI DUP2 PUSH1 0x3 NOT CALLDATASIZE ADD SLT PUSH2 0x1E5 JUMPI DUP1 MLOAD SWAP2 DUP1 SWAP4 DUP1 SLOAD SWAP2 PUSH1 0x1 SWAP1 DUP4 DUP3 SHR SWAP3 DUP3 DUP6 AND SWAP5 DUP6 ISZERO PUSH2 0x506 JUMPI JUMPDEST PUSH1 0x20 SWAP6 DUP7 DUP7 LT DUP2 EQ PUSH2 0x4F3 JUMPI DUP6 DUP10 MSTORE SWAP1 DUP2 ISZERO PUSH2 0x4CF JUMPI POP PUSH1 0x1 EQ PUSH2 0x477 JUMPI JUMPDEST PUSH2 0x473 DUP8 DUP8 PUSH2 0x469 DUP3 DUP13 SUB DUP4 PUSH2 0xBA1 JUMP JUMPDEST MLOAD SWAP2 DUP3 SWAP2 DUP3 PUSH2 0xADC JUMP JUMPDEST SUB SWAP1 RETURN JUMPDEST DUP2 MSTORE SWAP3 SWAP6 POP PUSH32 0x8A35ACFBC15FF81A39AE7D344FD709F28E8600B4AA8C65C6B64BFE7FE36BD19B JUMPDEST DUP3 DUP5 LT PUSH2 0x4BC JUMPI POP POP POP DUP3 PUSH2 0x473 SWAP5 PUSH2 0x469 SWAP3 DUP3 ADD ADD SWAP5 CODESIZE DUP1 PUSH2 0x458 JUMP JUMPDEST DUP1 SLOAD DUP7 DUP6 ADD DUP9 ADD MSTORE SWAP3 DUP7 ADD SWAP3 DUP2 ADD PUSH2 0x49E JUMP JUMPDEST PUSH1 0xFF NOT AND DUP9 DUP8 ADD MSTORE POP POP POP POP ISZERO ISZERO PUSH1 0x5 SHL DUP4 ADD ADD SWAP3 POP PUSH2 0x469 DUP3 PUSH2 0x473 CODESIZE DUP1 PUSH2 0x458 JUMP JUMPDEST PUSH4 0x4E487B71 PUSH1 0xE0 SHL DUP5 MSTORE PUSH1 0x22 DUP4 MSTORE PUSH1 0x24 DUP5 REVERT JUMPDEST SWAP4 PUSH1 0x7F AND SWAP4 PUSH2 0x439 JUMP JUMPDEST POP POP CALLVALUE PUSH2 0x1E5 JUMPI DUP2 PUSH1 0x3 NOT CALLDATASIZE ADD SLT PUSH2 0x1E5 JUMPI PUSH1 0x5 SLOAD SWAP1 MLOAD PUSH1 0x1 PUSH1 0x1 PUSH1 0xA0 SHL SUB SWAP1 SWAP2 AND DUP2 MSTORE PUSH1 0x20 SWAP1 RETURN JUMPDEST POP CALLVALUE PUSH2 0x18D JUMPI PUSH1 0x20 CALLDATASIZE PUSH1 0x3 NOT ADD SLT PUSH2 0x18D JUMPI CALLDATALOAD SWAP1 DUP2 ISZERO ISZERO DUP1 SWAP3 SUB PUSH2 0x18D JUMPI PUSH32 0x1509137B40DF48E8EF9596F9DB16B632B15353D0E0688D9F23221953EB0328DD SWAP2 PUSH1 0x20 SWAP2 PUSH2 0x584 PUSH2 0xB75 JUMP JUMPDEST PUSH1 0xFF NOT PUSH1 0x8 SLOAD AND PUSH1 0xFF DUP4 AND OR PUSH1 0x8 SSTORE MLOAD SWAP1 DUP2 MSTORE LOG1 DUP1 RETURN JUMPDEST POP SWAP1 CALLVALUE PUSH2 0x18D JUMPI DUP1 PUSH1 0x3 NOT CALLDATASIZE ADD SLT PUSH2 0x18D JUMPI PUSH2 0x5B5 PUSH2 0xB25 JUMP JUMPDEST PUSH1 0x24 CALLDATALOAD SWAP1 PUSH1 0x1 PUSH1 0x1 PUSH1 0xA0 SHL SUB PUSH32 0x0 DUP2 AND CALLER SUB PUSH2 0x698 JUMPI PUSH1 0xFF PUSH1 0x8 SLOAD AND ISZERO PUSH2 0x688 JUMPI PUSH2 0x5FD PUSH2 0xD79 JUMP JUMPDEST DUP3 ISZERO PUSH2 0x678 JUMPI DUP2 AND SWAP4 DUP5 DUP7 MSTORE DUP6 PUSH1 0x20 MSTORE DUP3 DUP5 DUP8 KECCAK256 SLOAD LT PUSH2 0x66A JUMPI POP SWAP1 PUSH2 0x654 DUP2 PUSH32 0xCCBEA4088A3B7AE9CA2D15FAB9A9742A4075B4D7247768A1EECEA917565ABA00 SWAP5 SWAP4 PUSH2 0x64C DUP3 PUSH1 0x7 SLOAD PUSH2 0xCB7 JUMP JUMPDEST PUSH1 0x7 SSTORE PUSH2 0xCDA JUMP JUMPDEST PUSH1 0x7 SLOAD DUP3 MLOAD SWAP2 DUP3 MSTORE PUSH1 0x20 DUP3 ADD MSTORE LOG2 PUSH1 0x1 PUSH1 0x6 SSTORE DUP1 RETURN JUMPDEST DUP4 MLOAD PUSH4 0x1E9ACF17 PUSH1 0xE3 SHL DUP2 MSTORE REVERT JUMPDEST POP POP POP MLOAD PUSH4 0x1F2A2005 PUSH1 0xE0 SHL DUP2 MSTORE REVERT JUMPDEST POP POP POP MLOAD PUSH4 0xBE20705F PUSH1 0xE0 SHL DUP2 MSTORE REVERT JUMPDEST POP POP POP MLOAD PUSH4 0xA9C455DB PUSH1 0xE0 SHL DUP2 MSTORE REVERT JUMPDEST DUP4 CALLVALUE PUSH2 0x3B7 JUMPI DUP1 PUSH1 0x3 NOT CALLDATASIZE ADD SLT PUSH2 0x3B7 JUMPI PUSH2 0x6C1 PUSH2 0xB75 JUMP JUMPDEST PUSH1 0x5 DUP1 SLOAD PUSH1 0x1 PUSH1 0x1 PUSH1 0xA0 SHL SUB NOT DUP2 AND SWAP1 SWAP2 SSTORE DUP2 SWAP1 PUSH1 0x1 PUSH1 0x1 PUSH1 0xA0 SHL SUB AND PUSH32 0x8BE0079C531659141344CD1FD0A4F28419497F9722A3DAAFE3B4186F6B6457E0 DUP3 DUP1 LOG3 DUP1 RETURN JUMPDEST POP POP CALLVALUE PUSH2 0x1E5 JUMPI PUSH1 0x20 CALLDATASIZE PUSH1 0x3 NOT ADD SLT PUSH2 0x1E5 JUMPI PUSH1 0x20 SWAP2 DUP2 SWAP1 PUSH1 0x1 PUSH1 0x1 PUSH1 0xA0 SHL SUB PUSH2 0x72D PUSH2 0xB25 JUMP JUMPDEST AND DUP2 MSTORE DUP1 DUP5 MSTORE KECCAK256 SLOAD SWAP1 MLOAD SWAP1 DUP2 MSTORE RETURN JUMPDEST POP POP CALLVALUE PUSH2 0x1E5 JUMPI DUP2 PUSH1 0x3 NOT CALLDATASIZE ADD SLT PUSH2 0x1E5 JUMPI PUSH1 0x20 SWAP1 PUSH1 0xFF PUSH1 0x8 SLOAD AND SWAP1 MLOAD SWAP1 ISZERO ISZERO DUP2 MSTORE RETURN JUMPDEST POP SWAP1 CALLVALUE PUSH2 0x18D JUMPI PUSH1 0x20 CALLDATASIZE PUSH1 0x3 NOT ADD SLT PUSH2 0x18D JUMPI DUP2 CALLDATALOAD SWAP2 PUSH1 0xFF PUSH1 0x8 SLOAD AND ISZERO PUSH2 0x7F1 JUMPI PUSH2 0x789 PUSH2 0xD79 JUMP JUMPDEST DUP3 ISZERO PUSH2 0x7E3 JUMPI POP PUSH32 0xCCBEA4088A3B7AE9CA2D15FAB9A9742A4075B4D7247768A1EECEA917565ABA00 SWAP1 PUSH2 0x7BE DUP4 PUSH1 0x7 SLOAD PUSH2 0xCB7 JUMP JUMPDEST PUSH1 0x7 SSTORE PUSH2 0x7CB DUP4 CALLER PUSH2 0xCDA JUMP JUMPDEST PUSH1 0x7 SLOAD DUP2 MLOAD SWAP4 DUP5 MSTORE PUSH1 0x20 DUP5 ADD MSTORE CALLER SWAP3 LOG2 PUSH1 0x1 PUSH1 0x6 SSTORE DUP1 RETURN JUMPDEST SWAP1 MLOAD PUSH4 0x1F2A2005 PUSH1 0xE0 SHL DUP2 MSTORE REVERT JUMPDEST SWAP1 MLOAD PUSH4 0xBE20705F PUSH1 0xE0 SHL DUP2 MSTORE REVERT JUMPDEST POP POP CALLVALUE PUSH2 0x1E5 JUMPI DUP2 PUSH1 0x3 NOT CALLDATASIZE ADD SLT PUSH2 0x1E5 JUMPI PUSH1 0x20 SWAP1 MLOAD PUSH1 0xFF PUSH32 0x0 AND DUP2 MSTORE RETURN JUMPDEST POP DUP3 SWAP1 CALLVALUE PUSH2 0x1E5 JUMPI PUSH2 0x84E CALLDATASIZE PUSH2 0xB40 JUMP JUMPDEST PUSH1 0x1 PUSH1 0x1 PUSH1 0xA0 SHL SUB DUP4 AND DUP1 DUP7 MSTORE PUSH1 0x1 PUSH1 0x20 SWAP1 DUP2 MSTORE DUP8 DUP8 KECCAK256 CALLER DUP9 MSTORE SWAP1 MSTORE DUP7 DUP7 KECCAK256 SLOAD SWAP2 SWAP6 SWAP3 SWAP5 PUSH1 0x0 NOT DUP4 LT PUSH2 0x88A JUMPI JUMPDEST PUSH1 0x20 DUP9 PUSH2 0x405 DUP10 DUP10 DUP10 PUSH2 0xBD9 JUMP JUMPDEST DUP7 DUP4 LT PUSH2 0x8F2 JUMPI DUP2 ISZERO PUSH2 0x8DB JUMPI CALLER ISZERO PUSH2 0x8C4 JUMPI POP DUP3 MSTORE PUSH1 0x1 PUSH1 0x20 SWAP1 DUP2 MSTORE DUP7 DUP4 KECCAK256 CALLER DUP5 MSTORE DUP2 MSTORE SWAP2 DUP7 SWAP1 KECCAK256 SWAP1 DUP6 SWAP1 SUB SWAP1 SSTORE DUP3 SWAP1 PUSH2 0x405 DUP8 PUSH2 0x87C JUMP JUMPDEST DUP8 MLOAD PUSH4 0x4A1406B1 PUSH1 0xE1 SHL DUP2 MSTORE SWAP1 DUP2 ADD DUP5 SWAP1 MSTORE PUSH1 0x24 SWAP1 REVERT JUMPDEST DUP8 MLOAD PUSH4 0xE602DF05 PUSH1 0xE0 SHL DUP2 MSTORE SWAP1 DUP2 ADD DUP5 SWAP1 MSTORE PUSH1 0x24 SWAP1 REVERT JUMPDEST DUP8 MLOAD PUSH4 0x7DC7A0D9 PUSH1 0xE1 SHL DUP2 MSTORE CALLER SWAP2 DUP2 ADD SWAP2 DUP3 MSTORE PUSH1 0x20 DUP3 ADD SWAP4 SWAP1 SWAP4 MSTORE PUSH1 0x40 DUP2 ADD DUP8 SWAP1 MSTORE DUP3 SWAP2 POP PUSH1 0x60 ADD SUB SWAP1 REVERT JUMPDEST POP POP CALLVALUE PUSH2 0x1E5 JUMPI DUP2 PUSH1 0x3 NOT CALLDATASIZE ADD SLT PUSH2 0x1E5 JUMPI PUSH1 0x20 SWAP1 PUSH1 0x2 SLOAD SWAP1 MLOAD SWAP1 DUP2 MSTORE RETURN JUMPDEST POP CALLVALUE PUSH2 0x18D JUMPI DUP2 PUSH1 0x3 NOT CALLDATASIZE ADD SLT PUSH2 0x18D JUMPI PUSH2 0x956 PUSH2 0xB25 JUMP JUMPDEST PUSH1 0x24 CALLDATALOAD SWAP1 CALLER ISZERO PUSH2 0x9CF JUMPI PUSH1 0x1 PUSH1 0x1 PUSH1 0xA0 SHL SUB AND SWAP2 DUP3 ISZERO PUSH2 0x9B8 JUMPI POP DUP1 DUP4 PUSH1 0x20 SWAP6 CALLER DUP2 MSTORE PUSH1 0x1 DUP8 MSTORE DUP2 DUP2 KECCAK256 DUP6 DUP3 MSTORE DUP8 MSTORE KECCAK256 SSTORE DUP3 MLOAD SWAP1 DUP2 MSTORE PUSH32 0x8C5BE1E5EBEC7D5BD14F71427D1E84F3DD0314C0F7B2291E5B200AC8C7C3B925 DUP5 CALLER SWAP3 LOG3 MLOAD PUSH1 0x1 DUP2 MSTORE RETURN JUMPDEST DUP4 MLOAD PUSH4 0x4A1406B1 PUSH1 0xE1 SHL DUP2 MSTORE SWAP1 DUP2 ADD DUP6 SWAP1 MSTORE PUSH1 0x24 SWAP1 REVERT JUMPDEST DUP4 MLOAD PUSH4 0xE602DF05 PUSH1 0xE0 SHL DUP2 MSTORE DUP1 DUP5 ADD DUP7 SWAP1 MSTORE PUSH1 0x24 SWAP1 REVERT JUMPDEST SWAP3 SWAP2 SWAP1 POP CALLVALUE PUSH2 0xAD8 JUMPI DUP4 PUSH1 0x3 NOT CALLDATASIZE ADD SLT PUSH2 0xAD8 JUMPI PUSH1 0x3 SLOAD PUSH1 0x1 DUP2 DUP2 SHR SWAP2 DUP7 SWAP1 DUP3 DUP2 AND DUP1 ISZERO PUSH2 0xACE JUMPI JUMPDEST PUSH1 0x20 SWAP6 DUP7 DUP7 LT DUP3 EQ PUSH2 0xABB JUMPI POP DUP5 DUP9 MSTORE SWAP1 DUP2 ISZERO PUSH2 0xA99 JUMPI POP PUSH1 0x1 EQ PUSH2 0xA40 JUMPI JUMPDEST PUSH2 0x473 DUP7 DUP7 PUSH2 0x469 DUP3 DUP12 SUB DUP4 PUSH2 0xBA1 JUMP JUMPDEST SWAP3 SWAP6 POP PUSH1 0x3 DUP4 MSTORE PUSH32 0xC2575A0E9E593C00F959F8C92F12DB2869C3395A3B0502D05E2516446F71F85B JUMPDEST DUP3 DUP5 LT PUSH2 0xA86 JUMPI POP POP POP DUP3 PUSH2 0x473 SWAP5 PUSH2 0x469 SWAP3 DUP3 ADD ADD SWAP5 CODESIZE PUSH2 0xA2F JUMP JUMPDEST DUP1 SLOAD DUP7 DUP6 ADD DUP9 ADD MSTORE SWAP3 DUP7 ADD SWAP3 DUP2 ADD PUSH2 0xA69 JUMP JUMPDEST PUSH1 0xFF NOT AND DUP8 DUP7 ADD MSTORE POP POP POP ISZERO ISZERO PUSH1 0x5 SHL DUP4 ADD ADD SWAP3 POP PUSH2 0x469 DUP3 PUSH2 0x473 CODESIZE PUSH2 0xA2F JUMP JUMPDEST PUSH4 0x4E487B71 PUSH1 0xE0 SHL DUP5 MSTORE PUSH1 0x22 SWAP1 MSTORE PUSH1 0x24 DUP4 REVERT JUMPDEST SWAP4 PUSH1 0x7F AND SWAP4 PUSH2 0xA0F JUMP JUMPDEST DUP4 DUP1 REVERT JUMPDEST PUSH1 0x20 DUP1 DUP3 MSTORE DUP3 MLOAD DUP2 DUP4 ADD DUP2 SWAP1 MSTORE SWAP1 SWAP4 SWAP3 PUSH1 0x0 JUMPDEST DUP3 DUP2 LT PUSH2 0xB11 JUMPI POP POP PUSH1 0x40 SWAP3 SWAP4 POP PUSH1 0x0 DUP4 DUP3 DUP5 ADD ADD MSTORE PUSH1 0x1F DUP1 NOT SWAP2 ADD AND ADD ADD SWAP1 JUMP JUMPDEST DUP2 DUP2 ADD DUP7 ADD MLOAD DUP5 DUP3 ADD PUSH1 0x40 ADD MSTORE DUP6 ADD PUSH2 0xAEF JUMP JUMPDEST PUSH1 0x4 CALLDATALOAD SWAP1 PUSH1 0x1 PUSH1 0x1 PUSH1 0xA0 SHL SUB DUP3 AND DUP3 SUB PUSH2 0xB3B JUMPI JUMP JUMPDEST PUSH1 0x0 DUP1 REVERT JUMPDEST PUSH1 0x60 SWAP1 PUSH1 0x3 NOT ADD SLT PUSH2 0xB3B JUMPI PUSH1 0x1 PUSH1 0x1 PUSH1 0xA0 SHL SUB SWAP1 PUSH1 0x4 CALLDATALOAD DUP3 DUP2 AND DUP2 SUB PUSH2 0xB3B JUMPI SWAP2 PUSH1 0x24 CALLDATALOAD SWAP1 DUP2 AND DUP2 SUB PUSH2 0xB3B JUMPI SWAP1 PUSH1 0x44 CALLDATALOAD SWAP1 JUMP JUMPDEST PUSH1 0x5 SLOAD PUSH1 0x1 PUSH1 0x1 PUSH1 0xA0 SHL SUB AND CALLER SUB PUSH2 0xB89 JUMPI JUMP JUMPDEST PUSH1 0x40 MLOAD PUSH4 0x118CDAA7 PUSH1 0xE0 SHL DUP2 MSTORE CALLER PUSH1 0x4 DUP3 ADD MSTORE PUSH1 0x24 SWAP1 REVERT JUMPDEST SWAP1 PUSH1 0x1F DUP1 NOT SWAP2 ADD AND DUP2 ADD SWAP1 DUP2 LT PUSH8 0xFFFFFFFFFFFFFFFF DUP3 GT OR PUSH2 0xBC3 JUMPI PUSH1 0x40 MSTORE JUMP JUMPDEST PUSH4 0x4E487B71 PUSH1 0xE0 SHL PUSH1 0x0 MSTORE PUSH1 0x41 PUSH1 0x4 MSTORE PUSH1 0x24 PUSH1 0x0 REVERT JUMPDEST SWAP2 PUSH1 0x1 PUSH1 0x1 PUSH1 0xA0 SHL SUB DUP1 DUP5 AND SWAP3 DUP4 ISZERO PUSH2 0xC9E JUMPI AND SWAP3 DUP4 ISZERO PUSH2 0xC85 JUMPI PUSH1 0x0 SWAP1 DUP4 DUP3 MSTORE DUP2 PUSH1 0x20 MSTORE PUSH1 0x40 DUP3 KECCAK256 SLOAD SWAP1 DUP4 DUP3 LT PUSH2 0xC53 JUMPI POP SWAP2 PUSH1 0x40 DUP3 DUP3 PUSH32 0xDDF252AD1BE2C89B69C2B068FC378DAA952BA7F163C4A11628F55A4DF523B3EF SWAP6 DUP8 PUSH1 0x20 SWAP7 MSTORE DUP3 DUP7 MSTORE SUB DUP3 DUP3 KECCAK256 SSTORE DUP7 DUP2 MSTORE KECCAK256 DUP2 DUP2 SLOAD ADD SWAP1 SSTORE PUSH1 0x40 MLOAD SWAP1 DUP2 MSTORE LOG3 JUMP JUMPDEST PUSH1 0x40 MLOAD PUSH4 0x391434E3 PUSH1 0xE2 SHL DUP2 MSTORE PUSH1 0x1 PUSH1 0x1 PUSH1 0xA0 SHL SUB SWAP2 SWAP1 SWAP2 AND PUSH1 0x4 DUP3 ADD MSTORE PUSH1 0x24 DUP2 ADD SWAP2 SWAP1 SWAP2 MSTORE PUSH1 0x44 DUP2 ADD DUP4 SWAP1 MSTORE PUSH1 0x64 SWAP1 REVERT JUMPDEST PUSH1 0x40 MLOAD PUSH4 0xEC442F05 PUSH1 0xE0 SHL DUP2 MSTORE PUSH1 0x0 PUSH1 0x4 DUP3 ADD MSTORE PUSH1 0x24 SWAP1 REVERT JUMPDEST PUSH1 0x40 MLOAD PUSH4 0x4B637E8F PUSH1 0xE1 SHL DUP2 MSTORE PUSH1 0x0 PUSH1 0x4 DUP3 ADD MSTORE PUSH1 0x24 SWAP1 REVERT JUMPDEST SWAP2 SWAP1 DUP3 ADD DUP1 SWAP3 GT PUSH2 0xCC4 JUMPI JUMP JUMPDEST PUSH4 0x4E487B71 PUSH1 0xE0 SHL PUSH1 0x0 MSTORE PUSH1 0x11 PUSH1 0x4 MSTORE PUSH1 0x24 PUSH1 0x0 REVERT JUMPDEST SWAP1 PUSH1 0x1 PUSH1 0x1 PUSH1 0xA0 SHL SUB DUP3 AND SWAP1 DUP2 ISZERO PUSH2 0xC9E JUMPI PUSH1 0x0 SWAP3 DUP3 DUP5 MSTORE DUP4 PUSH1 0x20 MSTORE PUSH1 0x40 DUP5 KECCAK256 SLOAD SWAP1 DUP3 DUP3 LT PUSH2 0xD47 JUMPI POP DUP2 PUSH32 0xDDF252AD1BE2C89B69C2B068FC378DAA952BA7F163C4A11628F55A4DF523B3EF SWAP3 PUSH1 0x20 SWAP3 DUP6 DUP8 MSTORE DUP7 DUP5 MSTORE SUB PUSH1 0x40 DUP7 KECCAK256 SSTORE DUP1 PUSH1 0x2 SLOAD SUB PUSH1 0x2 SSTORE PUSH1 0x40 MLOAD SWAP1 DUP2 MSTORE LOG3 JUMP JUMPDEST PUSH1 0x40 MLOAD PUSH4 0x391434E3 PUSH1 0xE2 SHL DUP2 MSTORE PUSH1 0x1 PUSH1 0x1 PUSH1 0xA0 SHL SUB SWAP2 SWAP1 SWAP2 AND PUSH1 0x4 DUP3 ADD MSTORE PUSH1 0x24 DUP2 ADD SWAP2 SWAP1 SWAP2 MSTORE PUSH1 0x44 DUP2 ADD DUP3 SWAP1 MSTORE PUSH1 0x64 SWAP1 REVERT JUMPDEST PUSH1 0x2 PUSH1 0x6 SLOAD EQ PUSH2 0xD8A JUMPI PUSH1 0x2 PUSH1 0x6 SSTORE JUMP JUMPDEST PUSH1 0x40 MLOAD PUSH4 0x3EE5AEB5 PUSH1 0xE0 SHL DUP2 MSTORE PUSH1 0x4 SWAP1 REVERT INVALID LOG2 PUSH5 0x6970667358 0x22 SLT KECCAK256 SWAP16 SHR NUMBER DUP16 PUSH0 PUSH1 0xEE LOG0 BLOCKHASH ADDMOD LOG1 0xEF DUP7 0xD PUSH8 0x535E4031D553885 0x4A SWAP5 0xAB 0xE0 NOT 0xFB 0xCE 0xB6 0xD8 PUSH5 0x736F6C6343 STOP ADDMOD EQ STOP CALLER LOG2 PUSH5 0x6970667358 0x22 SLT KECCAK256 0x1E MSTORE PUSH1 0x1D PUSH30 0x704F28923316158AC2FCA8ADD36E58459DE307CB22C75AF8BA169864736F PUSH13 0x634300081400332F8788117E7E SELFDESTRUCT SAR DUP3 0xE9 0x26 0xEC PUSH26 0x4901D17C78024A50270940304540A733656F0D00000000000000 "},"methodIdentifiers":{"DEFAULT_ADMIN_ROLE()":"a217fddf","EMERGENCY_ROLE()":"20df4359","MAX_GAME_TOKEN_DECIMALS()":"df525b7d","MAX_NAME_LENGTH()":"86074985","MAX_SYMBOL_LENGTH()":"e3d89171","MIN_XP_LOCK_AMOUNT()":"8760550d","PAUSER_ROLE()":"e63ab1e9","PRECISION_FACTOR()":"ccd34cd5","RATE_MANAGER_ROLE()":"cb327b8b","burnGameToken(uint256,uint256)":"5ed6c1db","calculateXpAmount(uint256)":"74b334c5","calculateXpReturn(uint256,uint256)":"3b420a73","createGameToken(uint256,string,string,uint8)":"fd44d274","credaToXpRate()":"238d4af8","credaToken()":"ecdf8fc4","emergencyWithdraw(address,address,uint256)":"e63ea408","gameTokenMetadata(uint256)":"05a61954","gameTokens(uint256)":"bf034b69","getGameTokenInfo(uint256)":"5e79c1dc","getRoleAdmin(bytes32)":"248a9ca3","getUserGameTokens(address)":"546fdad4","grantRole(bytes32,address)":"2f2ff15d","hasRole(bytes32,address)":"91d14854","isGameNameUsed(address,string)":"f7157558","lockCreda(uint256)":"bec697db","nextGameId()":"b135bbb0","pause()":"8456cb59","paused()":"5c975abb","renounceRole(bytes32,address)":"36568abe","revokeRole(bytes32,address)":"d547741f","setRate(uint256)":"34fcf437","supportsInterface(bytes4)":"01ffc9a7","totalLockedCreda()":"aa6450ce","unpause()":"3f4ba83a","userGameNames(address,string)":"1bf44cb0","userGameTokens(address,uint256)":"c21c64a7","userLockedCreda(address)":"07819945","xpReserves()":"6d8554e2","xpToken()":"ae5014b1"}}}}}