{
	"XPToken.sol": {
		"XPToken": {
			"abi": [
				{
					"inputs": [
						{
							"internalType": "string",
							"name": "name",
							"type": "string"
						},
						{
							"internalType": "string",
							"name": "symbol",
							"type": "string"
						},
						{
							"internalType": "address",
							"name": "admin",
							"type": "address"
						},
						{
							"internalType": "address",
							"name": "factory",
							"type": "address"
						}
					],
					"stateMutability": "nonpayable",
					"type": "constructor"
				},
				{
					"inputs": [],
					"name": "AccessControlBadConfirmation",
					"type": "error"
				},
				{
					"inputs": [
						{
							"internalType": "address",
							"name": "account",
							"type": "address"
						},
						{
							"internalType": "bytes32",
							"name": "neededRole",
							"type": "bytes32"
						}
					],
					"name": "AccessControlUnauthorizedAccount",
					"type": "error"
				},
				{
					"inputs": [
						{
							"internalType": "address",
							"name": "from",
							"type": "address"
						},
						{
							"internalType": "uint256",
							"name": "amount",
							"type": "uint256"
						},
						{
							"internalType": "string",
							"name": "reason",
							"type": "string"
						}
					],
					"name": "BurnOperationFailed",
					"type": "error"
				},
				{
					"inputs": [
						{
							"internalType": "string",
							"name": "reason",
							"type": "string"
						}
					],
					"name": "BurningDisabled",
					"type": "error"
				},
				{
					"inputs": [],
					"name": "ContractNotPaused",
					"type": "error"
				},
				{
					"inputs": [],
					"name": "ContractPaused",
					"type": "error"
				},
				{
					"inputs": [
						{
							"internalType": "address",
							"name": "minter",
							"type": "address"
						},
						{
							"internalType": "uint256",
							"name": "dailyLimit",
							"type": "uint256"
						},
						{
							"internalType": "uint256",
							"name": "currentMinted",
							"type": "uint256"
						}
					],
					"name": "DailyMintLimitExceeded",
					"type": "error"
				},
				{
					"inputs": [
						{
							"internalType": "address",
							"name": "spender",
							"type": "address"
						},
						{
							"internalType": "uint256",
							"name": "allowance",
							"type": "uint256"
						},
						{
							"internalType": "uint256",
							"name": "needed",
							"type": "uint256"
						}
					],
					"name": "ERC20InsufficientAllowance",
					"type": "error"
				},
				{
					"inputs": [
						{
							"internalType": "address",
							"name": "sender",
							"type": "address"
						},
						{
							"internalType": "uint256",
							"name": "balance",
							"type": "uint256"
						},
						{
							"internalType": "uint256",
							"name": "needed",
							"type": "uint256"
						}
					],
					"name": "ERC20InsufficientBalance",
					"type": "error"
				},
				{
					"inputs": [
						{
							"internalType": "address",
							"name": "approver",
							"type": "address"
						}
					],
					"name": "ERC20InvalidApprover",
					"type": "error"
				},
				{
					"inputs": [
						{
							"internalType": "address",
							"name": "receiver",
							"type": "address"
						}
					],
					"name": "ERC20InvalidReceiver",
					"type": "error"
				},
				{
					"inputs": [
						{
							"internalType": "address",
							"name": "sender",
							"type": "address"
						}
					],
					"name": "ERC20InvalidSender",
					"type": "error"
				},
				{
					"inputs": [
						{
							"internalType": "address",
							"name": "spender",
							"type": "address"
						}
					],
					"name": "ERC20InvalidSpender",
					"type": "error"
				},
				{
					"inputs": [],
					"name": "EnforcedPause",
					"type": "error"
				},
				{
					"inputs": [
						{
							"internalType": "uint256",
							"name": "requested",
							"type": "uint256"
						},
						{
							"internalType": "uint256",
							"name": "available",
							"type": "uint256"
						}
					],
					"name": "ExcessiveBurnRequest",
					"type": "error"
				},
				{
					"inputs": [
						{
							"internalType": "uint256",
							"name": "requested",
							"type": "uint256"
						},
						{
							"internalType": "uint256",
							"name": "maxAllowed",
							"type": "uint256"
						}
					],
					"name": "ExcessiveMintRequest",
					"type": "error"
				},
				{
					"inputs": [],
					"name": "ExpectedPause",
					"type": "error"
				},
				{
					"inputs": [
						{
							"internalType": "address",
							"name": "account",
							"type": "address"
						},
						{
							"internalType": "uint256",
							"name": "required",
							"type": "uint256"
						},
						{
							"internalType": "uint256",
							"name": "available",
							"type": "uint256"
						}
					],
					"name": "InsufficientBalance",
					"type": "error"
				},
				{
					"inputs": [
						{
							"internalType": "address",
							"name": "provided",
							"type": "address"
						},
						{
							"internalType": "string",
							"name": "reason",
							"type": "string"
						}
					],
					"name": "InvalidAddress",
					"type": "error"
				},
				{
					"inputs": [
						{
							"internalType": "string",
							"name": "reason",
							"type": "string"
						}
					],
					"name": "InvalidContractState",
					"type": "error"
				},
				{
					"inputs": [
						{
							"internalType": "string",
							"name": "operation",
							"type": "string"
						}
					],
					"name": "MathOverflow",
					"type": "error"
				},
				{
					"inputs": [
						{
							"internalType": "string",
							"name": "operation",
							"type": "string"
						}
					],
					"name": "MathUnderflow",
					"type": "error"
				},
				{
					"inputs": [
						{
							"internalType": "address",
							"name": "to",
							"type": "address"
						},
						{
							"internalType": "uint256",
							"name": "amount",
							"type": "uint256"
						},
						{
							"internalType": "string",
							"name": "reason",
							"type": "string"
						}
					],
					"name": "MintOperationFailed",
					"type": "error"
				},
				{
					"inputs": [
						{
							"internalType": "string",
							"name": "reason",
							"type": "string"
						}
					],
					"name": "MintingDisabled",
					"type": "error"
				},
				{
					"inputs": [],
					"name": "ReentrancyDetected",
					"type": "error"
				},
				{
					"inputs": [],
					"name": "ReentrancyGuardReentrantCall",
					"type": "error"
				},
				{
					"inputs": [
						{
							"internalType": "address",
							"name": "account",
							"type": "address"
						},
						{
							"internalType": "bytes32",
							"name": "role",
							"type": "bytes32"
						}
					],
					"name": "RoleAlreadyGranted",
					"type": "error"
				},
				{
					"inputs": [
						{
							"internalType": "address",
							"name": "account",
							"type": "address"
						},
						{
							"internalType": "bytes32",
							"name": "role",
							"type": "bytes32"
						}
					],
					"name": "RoleNotGranted",
					"type": "error"
				},
				{
					"inputs": [
						{
							"internalType": "address",
							"name": "account",
							"type": "address"
						},
						{
							"internalType": "string",
							"name": "reason",
							"type": "string"
						}
					],
					"name": "SuspiciousActivity",
					"type": "error"
				},
				{
					"inputs": [
						{
							"internalType": "uint256",
							"name": "newTotal",
							"type": "uint256"
						},
						{
							"internalType": "uint256",
							"name": "maxSupply",
							"type": "uint256"
						}
					],
					"name": "TotalSupplyLimitExceeded",
					"type": "error"
				},
				{
					"inputs": [
						{
							"internalType": "address",
							"name": "from",
							"type": "address"
						},
						{
							"internalType": "address",
							"name": "to",
							"type": "address"
						},
						{
							"internalType": "uint256",
							"name": "amount",
							"type": "uint256"
						}
					],
					"name": "TransferOperationFailed",
					"type": "error"
				},
				{
					"inputs": [
						{
							"internalType": "address",
							"name": "caller",
							"type": "address"
						}
					],
					"name": "UnauthorizedBurner",
					"type": "error"
				},
				{
					"inputs": [
						{
							"internalType": "address",
							"name": "caller",
							"type": "address"
						}
					],
					"name": "UnauthorizedMinter",
					"type": "error"
				},
				{
					"inputs": [
						{
							"internalType": "address",
							"name": "caller",
							"type": "address"
						}
					],
					"name": "UnauthorizedPauser",
					"type": "error"
				},
				{
					"inputs": [],
					"name": "ZeroAddress",
					"type": "error"
				},
				{
					"inputs": [],
					"name": "ZeroAmount",
					"type": "error"
				},
				{
					"anonymous": false,
					"inputs": [
						{
							"indexed": true,
							"internalType": "address",
							"name": "owner",
							"type": "address"
						},
						{
							"indexed": true,
							"internalType": "address",
							"name": "spender",
							"type": "address"
						},
						{
							"indexed": false,
							"internalType": "uint256",
							"name": "value",
							"type": "uint256"
						}
					],
					"name": "Approval",
					"type": "event"
				},
				{
					"anonymous": false,
					"inputs": [
						{
							"indexed": false,
							"internalType": "address",
							"name": "account",
							"type": "address"
						}
					],
					"name": "Paused",
					"type": "event"
				},
				{
					"anonymous": false,
					"inputs": [
						{
							"indexed": true,
							"internalType": "bytes32",
							"name": "role",
							"type": "bytes32"
						},
						{
							"indexed": true,
							"internalType": "bytes32",
							"name": "previousAdminRole",
							"type": "bytes32"
						},
						{
							"indexed": true,
							"internalType": "bytes32",
							"name": "newAdminRole",
							"type": "bytes32"
						}
					],
					"name": "RoleAdminChanged",
					"type": "event"
				},
				{
					"anonymous": false,
					"inputs": [
						{
							"indexed": true,
							"internalType": "bytes32",
							"name": "role",
							"type": "bytes32"
						},
						{
							"indexed": true,
							"internalType": "address",
							"name": "account",
							"type": "address"
						},
						{
							"indexed": true,
							"internalType": "address",
							"name": "sender",
							"type": "address"
						}
					],
					"name": "RoleGranted",
					"type": "event"
				},
				{
					"anonymous": false,
					"inputs": [
						{
							"indexed": true,
							"internalType": "bytes32",
							"name": "role",
							"type": "bytes32"
						},
						{
							"indexed": true,
							"internalType": "address",
							"name": "account",
							"type": "address"
						},
						{
							"indexed": true,
							"internalType": "address",
							"name": "sender",
							"type": "address"
						}
					],
					"name": "RoleRevoked",
					"type": "event"
				},
				{
					"anonymous": false,
					"inputs": [
						{
							"indexed": true,
							"internalType": "address",
							"name": "from",
							"type": "address"
						},
						{
							"indexed": false,
							"internalType": "uint256",
							"name": "amount",
							"type": "uint256"
						},
						{
							"indexed": true,
							"internalType": "address",
							"name": "burner",
							"type": "address"
						}
					],
					"name": "TokensBurned",
					"type": "event"
				},
				{
					"anonymous": false,
					"inputs": [
						{
							"indexed": true,
							"internalType": "address",
							"name": "to",
							"type": "address"
						},
						{
							"indexed": false,
							"internalType": "uint256",
							"name": "amount",
							"type": "uint256"
						},
						{
							"indexed": true,
							"internalType": "address",
							"name": "minter",
							"type": "address"
						}
					],
					"name": "TokensMinted",
					"type": "event"
				},
				{
					"anonymous": false,
					"inputs": [
						{
							"indexed": true,
							"internalType": "address",
							"name": "from",
							"type": "address"
						},
						{
							"indexed": true,
							"internalType": "address",
							"name": "to",
							"type": "address"
						},
						{
							"indexed": false,
							"internalType": "uint256",
							"name": "value",
							"type": "uint256"
						}
					],
					"name": "Transfer",
					"type": "event"
				},
				{
					"anonymous": false,
					"inputs": [
						{
							"indexed": false,
							"internalType": "address",
							"name": "account",
							"type": "address"
						}
					],
					"name": "Unpaused",
					"type": "event"
				},
				{
					"inputs": [],
					"name": "BURNER_ROLE",
					"outputs": [
						{
							"internalType": "bytes32",
							"name": "",
							"type": "bytes32"
						}
					],
					"stateMutability": "view",
					"type": "function"
				},
				{
					"inputs": [],
					"name": "DEFAULT_ADMIN_ROLE",
					"outputs": [
						{
							"internalType": "bytes32",
							"name": "",
							"type": "bytes32"
						}
					],
					"stateMutability": "view",
					"type": "function"
				},
				{
					"inputs": [],
					"name": "MINTER_ROLE",
					"outputs": [
						{
							"internalType": "bytes32",
							"name": "",
							"type": "bytes32"
						}
					],
					"stateMutability": "view",
					"type": "function"
				},
				{
					"inputs": [],
					"name": "PAUSER_ROLE",
					"outputs": [
						{
							"internalType": "bytes32",
							"name": "",
							"type": "bytes32"
						}
					],
					"stateMutability": "view",
					"type": "function"
				},
				{
					"inputs": [
						{
							"internalType": "address",
							"name": "to",
							"type": "address"
						},
						{
							"internalType": "uint256",
							"name": "amount",
							"type": "uint256"
						}
					],
					"name": "_performMint",
					"outputs": [],
					"stateMutability": "nonpayable",
					"type": "function"
				},
				{
					"inputs": [
						{
							"internalType": "address",
							"name": "owner",
							"type": "address"
						},
						{
							"internalType": "address",
							"name": "spender",
							"type": "address"
						}
					],
					"name": "allowance",
					"outputs": [
						{
							"internalType": "uint256",
							"name": "",
							"type": "uint256"
						}
					],
					"stateMutability": "view",
					"type": "function"
				},
				{
					"inputs": [
						{
							"internalType": "address",
							"name": "spender",
							"type": "address"
						},
						{
							"internalType": "uint256",
							"name": "value",
							"type": "uint256"
						}
					],
					"name": "approve",
					"outputs": [
						{
							"internalType": "bool",
							"name": "",
							"type": "bool"
						}
					],
					"stateMutability": "nonpayable",
					"type": "function"
				},
				{
					"inputs": [
						{
							"internalType": "address",
							"name": "account",
							"type": "address"
						}
					],
					"name": "balanceOf",
					"outputs": [
						{
							"internalType": "uint256",
							"name": "",
							"type": "uint256"
						}
					],
					"stateMutability": "view",
					"type": "function"
				},
				{
					"inputs": [
						{
							"internalType": "uint256",
							"name": "amount",
							"type": "uint256"
						}
					],
					"name": "burn",
					"outputs": [],
					"stateMutability": "nonpayable",
					"type": "function"
				},
				{
					"inputs": [
						{
							"internalType": "address",
							"name": "from",
							"type": "address"
						},
						{
							"internalType": "uint256",
							"name": "amount",
							"type": "uint256"
						}
					],
					"name": "burnFrom",
					"outputs": [],
					"stateMutability": "nonpayable",
					"type": "function"
				},
				{
					"inputs": [],
					"name": "decimals",
					"outputs": [
						{
							"internalType": "uint8",
							"name": "",
							"type": "uint8"
						}
					],
					"stateMutability": "view",
					"type": "function"
				},
				{
					"inputs": [
						{
							"internalType": "bytes32",
							"name": "role",
							"type": "bytes32"
						}
					],
					"name": "getRoleAdmin",
					"outputs": [
						{
							"internalType": "bytes32",
							"name": "",
							"type": "bytes32"
						}
					],
					"stateMutability": "view",
					"type": "function"
				},
				{
					"inputs": [],
					"name": "getStats",
					"outputs": [
						{
							"internalType": "uint256",
							"name": "minted",
							"type": "uint256"
						},
						{
							"internalType": "uint256",
							"name": "burned",
							"type": "uint256"
						},
						{
							"internalType": "uint256",
							"name": "circulation",
							"type": "uint256"
						}
					],
					"stateMutability": "view",
					"type": "function"
				},
				{
					"inputs": [
						{
							"internalType": "bytes32",
							"name": "role",
							"type": "bytes32"
						},
						{
							"internalType": "address",
							"name": "account",
							"type": "address"
						}
					],
					"name": "grantRole",
					"outputs": [],
					"stateMutability": "nonpayable",
					"type": "function"
				},
				{
					"inputs": [
						{
							"internalType": "bytes32",
							"name": "role",
							"type": "bytes32"
						},
						{
							"internalType": "address",
							"name": "account",
							"type": "address"
						}
					],
					"name": "hasRole",
					"outputs": [
						{
							"internalType": "bool",
							"name": "",
							"type": "bool"
						}
					],
					"stateMutability": "view",
					"type": "function"
				},
				{
					"inputs": [
						{
							"internalType": "address",
							"name": "to",
							"type": "address"
						},
						{
							"internalType": "uint256",
							"name": "amount",
							"type": "uint256"
						}
					],
					"name": "mint",
					"outputs": [],
					"stateMutability": "nonpayable",
					"type": "function"
				},
				{
					"inputs": [],
					"name": "name",
					"outputs": [
						{
							"internalType": "string",
							"name": "",
							"type": "string"
						}
					],
					"stateMutability": "view",
					"type": "function"
				},
				{
					"inputs": [],
					"name": "pause",
					"outputs": [],
					"stateMutability": "nonpayable",
					"type": "function"
				},
				{
					"inputs": [],
					"name": "paused",
					"outputs": [
						{
							"internalType": "bool",
							"name": "",
							"type": "bool"
						}
					],
					"stateMutability": "view",
					"type": "function"
				},
				{
					"inputs": [
						{
							"internalType": "bytes32",
							"name": "role",
							"type": "bytes32"
						},
						{
							"internalType": "address",
							"name": "callerConfirmation",
							"type": "address"
						}
					],
					"name": "renounceRole",
					"outputs": [],
					"stateMutability": "nonpayable",
					"type": "function"
				},
				{
					"inputs": [
						{
							"internalType": "bytes32",
							"name": "role",
							"type": "bytes32"
						},
						{
							"internalType": "address",
							"name": "account",
							"type": "address"
						}
					],
					"name": "revokeRole",
					"outputs": [],
					"stateMutability": "nonpayable",
					"type": "function"
				},
				{
					"inputs": [
						{
							"internalType": "bytes4",
							"name": "interfaceId",
							"type": "bytes4"
						}
					],
					"name": "supportsInterface",
					"outputs": [
						{
							"internalType": "bool",
							"name": "",
							"type": "bool"
						}
					],
					"stateMutability": "view",
					"type": "function"
				},
				{
					"inputs": [],
					"name": "symbol",
					"outputs": [
						{
							"internalType": "string",
							"name": "",
							"type": "string"
						}
					],
					"stateMutability": "view",
					"type": "function"
				},
				{
					"inputs": [],
					"name": "totalBurnedAmount",
					"outputs": [
						{
							"internalType": "uint256",
							"name": "",
							"type": "uint256"
						}
					],
					"stateMutability": "view",
					"type": "function"
				},
				{
					"inputs": [],
					"name": "totalInCirculation",
					"outputs": [
						{
							"internalType": "uint256",
							"name": "",
							"type": "uint256"
						}
					],
					"stateMutability": "view",
					"type": "function"
				},
				{
					"inputs": [],
					"name": "totalMinted",
					"outputs": [
						{
							"internalType": "uint256",
							"name": "",
							"type": "uint256"
						}
					],
					"stateMutability": "view",
					"type": "function"
				},
				{
					"inputs": [],
					"name": "totalSupply",
					"outputs": [
						{
							"internalType": "uint256",
							"name": "",
							"type": "uint256"
						}
					],
					"stateMutability": "view",
					"type": "function"
				},
				{
					"inputs": [
						{
							"internalType": "address",
							"name": "to",
							"type": "address"
						},
						{
							"internalType": "uint256",
							"name": "value",
							"type": "uint256"
						}
					],
					"name": "transfer",
					"outputs": [
						{
							"internalType": "bool",
							"name": "",
							"type": "bool"
						}
					],
					"stateMutability": "nonpayable",
					"type": "function"
				},
				{
					"inputs": [
						{
							"internalType": "address",
							"name": "from",
							"type": "address"
						},
						{
							"internalType": "address",
							"name": "to",
							"type": "address"
						},
						{
							"internalType": "uint256",
							"name": "value",
							"type": "uint256"
						}
					],
					"name": "transferFrom",
					"outputs": [
						{
							"internalType": "bool",
							"name": "",
							"type": "bool"
						}
					],
					"stateMutability": "nonpayable",
					"type": "function"
				},
				{
					"inputs": [],
					"name": "unpause",
					"outputs": [],
					"stateMutability": "nonpayable",
					"type": "function"
				}
			],
			"devdoc": {
				"details": "XP Token with controlled minting/burning for the game ecosystem Only the authorized factory contract can mint new XP tokens when CRIDA is locked XP tokens represent experience points that can be locked to create game tokens",
				"errors": {
					"AccessControlBadConfirmation()": [
						{
							"details": "The caller of a function is not the expected one. NOTE: Don't confuse with {AccessControlUnauthorizedAccount}."
						}
					],
					"AccessControlUnauthorizedAccount(address,bytes32)": [
						{
							"details": "The `account` is missing a role."
						}
					],
					"ERC20InsufficientAllowance(address,uint256,uint256)": [
						{
							"details": "Indicates a failure with the `spender`’s `allowance`. Used in transfers.",
							"params": {
								"allowance": "Amount of tokens a `spender` is allowed to operate with.",
								"needed": "Minimum amount required to perform a transfer.",
								"spender": "Address that may be allowed to operate on tokens without being their owner."
							}
						}
					],
					"ERC20InsufficientBalance(address,uint256,uint256)": [
						{
							"details": "Indicates an error related to the current `balance` of a `sender`. Used in transfers.",
							"params": {
								"balance": "Current balance for the interacting account.",
								"needed": "Minimum amount required to perform a transfer.",
								"sender": "Address whose tokens are being transferred."
							}
						}
					],
					"ERC20InvalidApprover(address)": [
						{
							"details": "Indicates a failure with the `approver` of a token to be approved. Used in approvals.",
							"params": {
								"approver": "Address initiating an approval operation."
							}
						}
					],
					"ERC20InvalidReceiver(address)": [
						{
							"details": "Indicates a failure with the token `receiver`. Used in transfers.",
							"params": {
								"receiver": "Address to which tokens are being transferred."
							}
						}
					],
					"ERC20InvalidSender(address)": [
						{
							"details": "Indicates a failure with the token `sender`. Used in transfers.",
							"params": {
								"sender": "Address whose tokens are being transferred."
							}
						}
					],
					"ERC20InvalidSpender(address)": [
						{
							"details": "Indicates a failure with the `spender` to be approved. Used in approvals.",
							"params": {
								"spender": "Address that may be allowed to operate on tokens without being their owner."
							}
						}
					],
					"EnforcedPause()": [
						{
							"details": "The operation failed because the contract is paused."
						}
					],
					"ExpectedPause()": [
						{
							"details": "The operation failed because the contract is not paused."
						}
					],
					"ReentrancyGuardReentrantCall()": [
						{
							"details": "Unauthorized reentrant call."
						}
					]
				},
				"events": {
					"Approval(address,address,uint256)": {
						"details": "Emitted when the allowance of a `spender` for an `owner` is set by a call to {approve}. `value` is the new allowance."
					},
					"Paused(address)": {
						"details": "Emitted when the pause is triggered by `account`."
					},
					"RoleAdminChanged(bytes32,bytes32,bytes32)": {
						"details": "Emitted when `newAdminRole` is set as ``role``'s admin role, replacing `previousAdminRole` `DEFAULT_ADMIN_ROLE` is the starting admin for all roles, despite {RoleAdminChanged} not being emitted to signal this."
					},
					"RoleGranted(bytes32,address,address)": {
						"details": "Emitted when `account` is granted `role`. `sender` is the account that originated the contract call. This account bears the admin role (for the granted role). Expected in cases where the role was granted using the internal {AccessControl-_grantRole}."
					},
					"RoleRevoked(bytes32,address,address)": {
						"details": "Emitted when `account` is revoked `role`. `sender` is the account that originated the contract call:   - if using `revokeRole`, it is the admin role bearer   - if using `renounceRole`, it is the role bearer (i.e. `account`)"
					},
					"Transfer(address,address,uint256)": {
						"details": "Emitted when `value` tokens are moved from one account (`from`) to another (`to`). Note that `value` may be zero."
					},
					"Unpaused(address)": {
						"details": "Emitted when the pause is lifted by `account`."
					}
				},
				"kind": "dev",
				"methods": {
					"_performMint(address,uint256)": {
						"details": "Internal mint function for error handling separation"
					},
					"allowance(address,address)": {
						"details": "See {IERC20-allowance}."
					},
					"approve(address,uint256)": {
						"details": "See {IERC20-approve}. NOTE: If `value` is the maximum `uint256`, the allowance is not updated on `transferFrom`. This is semantically equivalent to an infinite approval. Requirements: - `spender` cannot be the zero address."
					},
					"balanceOf(address)": {
						"details": "See {IERC20-balanceOf}."
					},
					"burn(uint256)": {
						"details": "Burn XP tokens from user",
						"params": {
							"amount": "Amount of tokens to burn"
						}
					},
					"burnFrom(address,uint256)": {
						"details": "Burn XP tokens from specific account (factory use)",
						"params": {
							"amount": "Amount of tokens to burn",
							"from": "Address to burn tokens from"
						}
					},
					"decimals()": {
						"details": "Returns the number of decimals used to get its user representation. For example, if `decimals` equals `2`, a balance of `505` tokens should be displayed to a user as `5.05` (`505 / 10 ** 2`). Tokens usually opt for a value of 18, imitating the relationship between Ether and Wei. This is the default value returned by this function, unless it's overridden. NOTE: This information is only used for _display_ purposes: it in no way affects any of the arithmetic of the contract, including {IERC20-balanceOf} and {IERC20-transfer}."
					},
					"getRoleAdmin(bytes32)": {
						"details": "Returns the admin role that controls `role`. See {grantRole} and {revokeRole}. To change a role's admin, use {_setRoleAdmin}."
					},
					"getStats()": {
						"details": "Get minting/burning statistics"
					},
					"grantRole(bytes32,address)": {
						"details": "Grants `role` to `account`. If `account` had not been already granted `role`, emits a {RoleGranted} event. Requirements: - the caller must have ``role``'s admin role. May emit a {RoleGranted} event."
					},
					"hasRole(bytes32,address)": {
						"details": "Returns `true` if `account` has been granted `role`."
					},
					"mint(address,uint256)": {
						"details": "Mint XP tokens to user when CRIDA is locked",
						"params": {
							"amount": "Amount of tokens to mint",
							"to": "Address to mint tokens to"
						}
					},
					"name()": {
						"details": "Returns the name of the token."
					},
					"pause()": {
						"details": "Pause contract operations"
					},
					"paused()": {
						"details": "Returns true if the contract is paused, and false otherwise."
					},
					"renounceRole(bytes32,address)": {
						"details": "Revokes `role` from the calling account. Roles are often managed via {grantRole} and {revokeRole}: this function's purpose is to provide a mechanism for accounts to lose their privileges if they are compromised (such as when a trusted device is misplaced). If the calling account had been revoked `role`, emits a {RoleRevoked} event. Requirements: - the caller must be `callerConfirmation`. May emit a {RoleRevoked} event."
					},
					"revokeRole(bytes32,address)": {
						"details": "Revokes `role` from `account`. If `account` had been granted `role`, emits a {RoleRevoked} event. Requirements: - the caller must have ``role``'s admin role. May emit a {RoleRevoked} event."
					},
					"supportsInterface(bytes4)": {
						"details": "See {IERC165-supportsInterface}."
					},
					"symbol()": {
						"details": "Returns the symbol of the token, usually a shorter version of the name."
					},
					"totalInCirculation()": {
						"details": "Get total XP tokens in circulation"
					},
					"totalSupply()": {
						"details": "See {IERC20-totalSupply}."
					},
					"transfer(address,uint256)": {
						"details": "See {IERC20-transfer}. Requirements: - `to` cannot be the zero address. - the caller must have a balance of at least `value`."
					},
					"transferFrom(address,address,uint256)": {
						"details": "See {IERC20-transferFrom}. Skips emitting an {Approval} event indicating an allowance update. This is not required by the ERC. See {xref-ERC20-_approve-address-address-uint256-bool-}[_approve]. NOTE: Does not update the allowance if the current allowance is the maximum `uint256`. Requirements: - `from` and `to` cannot be the zero address. - `from` must have a balance of at least `value`. - the caller must have allowance for ``from``'s tokens of at least `value`."
					},
					"unpause()": {
						"details": "Unpause contract operations"
					}
				},
				"title": "XPToken",
				"version": 1
			},
			"evm": {
				"assembly": "    /* \"XPToken.sol\":551:8051  contract XPToken is ERC20, AccessControl, Pausable, ReentrancyGuard {... */\n  mstore(0x40, 0x80)\n  jumpi(tag_16, callvalue)\n  bytecodeSize\n  dup1\n  codesize\n  sub\n  dup1\n  tag_10\n  dup2\n  tag_1\n  jump\t// in\ntag_10:\n  swap3\n  dup4\n  codecopy\n  dup2\n  add\n  0x80\n  dup3\n  dup3\n  sub\n  slt\n  tag_16\n  jumpi\n  dup2\n  mload\n  sub(shl(0x40, 0x01), 0x01)\n  dup2\n  gt\n  tag_16\n  jumpi\n  dup2\n  tag_15\n  swap2\n  dup5\n  add\n  tag_2\n  jump\t// in\ntag_15:\n  0x20\n  dup4\n  add\n  mload\n  swap1\n  swap2\n  sub(shl(0x40, 0x01), 0x01)\n  dup3\n  gt\n  tag_16\n  jumpi\n  tag_18\n  swap2\n  dup5\n  add\n  tag_2\n  jump\t// in\ntag_18:\n  tag_19\n  0x60\n  tag_20\n  0x40\n  dup7\n  add\n  tag_3\n  jump\t// in\ntag_20:\n  swap5\n  add\n  tag_3\n  jump\t// in\ntag_19:\n  dup3\n  mload\n  swap1\n  swap3\n  swap1\n  sub(shl(0x40, 0x01), 0x01)\n  dup2\n  gt\n  tag_34\n  jumpi\n    /* \"@openzeppelin/contracts/token/ERC20/ERC20.sol\":1648:1661  _name = name_ */\n  0x03\n    /* \"XPToken.sol\":551:8051  contract XPToken is ERC20, AccessControl, Pausable, ReentrancyGuard {... */\n  sload\n  0x01\n  dup2\n  dup2\n  shr\n  swap2\n  and\n  dup1\n  iszero\n  tag_23\n  jumpi\ntag_24:\n  0x20\n  dup3\n  lt\n  eq\n  tag_38\n  jumpi\n  0x1f\n  dup2\n  gt\n  tag_27\n  jumpi\ntag_28:\n  pop\n  dup1\n  0x20\n  0x1f\n  dup3\n  gt\n  0x01\n  eq\n  tag_29\n  jumpi\n  0x00\n  swap2\n  tag_31\n  jumpi\ntag_32:\n  pop\n  dup2\n  0x01\n  shl\n  swap2\n  not(0x00)\n  swap1\n    /* \"@openzeppelin/contracts/token/ERC20/ERC20.sol\":1648:1661  _name = name_ */\n  0x03\n    /* \"XPToken.sol\":551:8051  contract XPToken is ERC20, AccessControl, Pausable, ReentrancyGuard {... */\n  shl\n  shr\n  not\n  and\n  or\n    /* \"@openzeppelin/contracts/token/ERC20/ERC20.sol\":1648:1661  _name = name_ */\n  0x03\n    /* \"XPToken.sol\":551:8051  contract XPToken is ERC20, AccessControl, Pausable, ReentrancyGuard {... */\n  sstore\ntag_33:\n  dup2\n  mload\n  sub(shl(0x40, 0x01), 0x01)\n  dup2\n  gt\n  tag_34\n  jumpi\n    /* \"@openzeppelin/contracts/token/ERC20/ERC20.sol\":1671:1688  _symbol = symbol_ */\n  0x04\n    /* \"XPToken.sol\":551:8051  contract XPToken is ERC20, AccessControl, Pausable, ReentrancyGuard {... */\n  sload\n  0x01\n  dup2\n  dup2\n  shr\n  swap2\n  and\n  dup1\n  iszero\n  tag_36\n  jumpi\ntag_37:\n  0x20\n  dup3\n  lt\n  eq\n  tag_38\n  jumpi\n  0x1f\n  dup2\n  gt\n  tag_40\n  jumpi\ntag_41:\n  pop\n  dup1\n  0x20\n  0x1f\n  dup3\n  gt\n  0x01\n  eq\n  tag_42\n  jumpi\n  0x00\n  swap2\n  tag_44\n  jumpi\ntag_45:\n  pop\n  dup2\n  0x01\n  shl\n  swap2\n  not(0x00)\n  swap1\n    /* \"@openzeppelin/contracts/token/ERC20/ERC20.sol\":1648:1661  _name = name_ */\n  0x03\n    /* \"XPToken.sol\":551:8051  contract XPToken is ERC20, AccessControl, Pausable, ReentrancyGuard {... */\n  shl\n  shr\n  not\n  and\n  or\n    /* \"@openzeppelin/contracts/token/ERC20/ERC20.sol\":1671:1688  _symbol = symbol_ */\n  0x04\n    /* \"XPToken.sol\":551:8051  contract XPToken is ERC20, AccessControl, Pausable, ReentrancyGuard {... */\n  sstore\ntag_46:\n  0x01\n    /* \"@openzeppelin/contracts/utils/ReentrancyGuard.sol\":2061:2082  _status = NOT_ENTERED */\n  0x07\n    /* \"@openzeppelin/contracts/utils/ReentrancyGuard.sol\":1857:1858  1 */\n  sstore\n    /* \"XPToken.sol\":551:8051  contract XPToken is ERC20, AccessControl, Pausable, ReentrancyGuard {... */\n  mload\n    /* \"XPToken.sol\":3126:3149  bytes(name).length == 0 */\n  iszero\n    /* \"XPToken.sol\":3122:3239  if (bytes(name).length == 0) {... */\n  tag_47\n  jumpi\n    /* \"XPToken.sol\":551:8051  contract XPToken is ERC20, AccessControl, Pausable, ReentrancyGuard {... */\n  mload\n    /* \"XPToken.sol\":3252:3277  bytes(symbol).length == 0 */\n  iszero\n    /* \"XPToken.sol\":3248:3369  if (bytes(symbol).length == 0) {... */\n  tag_49\n  jumpi\n  sub(shl(0xa0, 0x01), 0x01)\n    /* \"XPToken.sol\":551:8051  contract XPToken is ERC20, AccessControl, Pausable, ReentrancyGuard {... */\n  dup3\n  and\n    /* \"XPToken.sol\":3382:3401  admin == address(0) */\n  iszero\n    /* \"XPToken.sol\":3378:3448  if (admin == address(0)) {... */\n  tag_53\n  jumpi\n  sub(shl(0xa0, 0x01), 0x01)\n    /* \"XPToken.sol\":551:8051  contract XPToken is ERC20, AccessControl, Pausable, ReentrancyGuard {... */\n  dup2\n  and\n    /* \"XPToken.sol\":3461:3482  factory == address(0) */\n  iszero\n    /* \"XPToken.sol\":3457:3529  if (factory == address(0)) {... */\n  tag_53\n  jumpi\n    /* \"XPToken.sol\":3601:3631  _grantRole(PAUSER_ROLE, admin) */\n  tag_55\n    /* \"XPToken.sol\":3554:3591  _grantRole(DEFAULT_ADMIN_ROLE, admin) */\n  dup3\n  tag_56\n    /* \"XPToken.sol\":3757:3789  _grantRole(BURNER_ROLE, factory) */\n  tag_57\n    /* \"XPToken.sol\":3554:3591  _grantRole(DEFAULT_ADMIN_ROLE, admin) */\n  swap5\n  tag_4\n  jump\t// in\ntag_56:\n  pop\n    /* \"XPToken.sol\":3601:3631  _grantRole(PAUSER_ROLE, admin) */\n  tag_5\n  jump\t// in\ntag_55:\n  pop\n    /* \"XPToken.sol\":3715:3747  _grantRole(MINTER_ROLE, factory) */\n  tag_58\n  dup2\n  tag_6\n  jump\t// in\ntag_58:\n  pop\n    /* \"XPToken.sol\":3757:3789  _grantRole(BURNER_ROLE, factory) */\n  tag_7\n  jump\t// in\ntag_57:\n  pop\n    /* \"XPToken.sol\":551:8051  contract XPToken is ERC20, AccessControl, Pausable, ReentrancyGuard {... */\n  mload(0x40)\n  dataSize(sub_0)\n  swap1\n  dup2\n  dataOffset(sub_0)\n  dup3\n  codecopy\n  return\n    /* \"XPToken.sol\":3457:3529  if (factory == address(0)) {... */\ntag_53:\n    /* \"XPToken.sol\":3424:3437  ZeroAddress() */\n  shl(0xe0, 0xd92e233d)\n  0x00\n    /* \"XPToken.sol\":3505:3518  ZeroAddress() */\n  mstore\n    /* \"@openzeppelin/contracts/token/ERC20/ERC20.sol\":1671:1688  _symbol = symbol_ */\n  0x04\n  0x00\n    /* \"XPToken.sol\":3505:3518  ZeroAddress() */\n  revert\n    /* \"XPToken.sol\":3248:3369  if (bytes(symbol).length == 0) {... */\ntag_49:\n    /* \"XPToken.sol\":3300:3358  InvalidAddress(address(0), \"Token symbol cannot be empty\") */\n  0x84\n    /* \"XPToken.sol\":551:8051  contract XPToken is ERC20, AccessControl, Pausable, ReentrancyGuard {... */\n  mload(0x40)\n    /* \"XPToken.sol\":3172:3228  InvalidAddress(address(0), \"Token name cannot be empty\") */\n  shl(0xe0, 0xf7693c3d)\n    /* \"XPToken.sol\":3300:3358  InvalidAddress(address(0), \"Token symbol cannot be empty\") */\n  dup2\n  mstore\n  0x00\n    /* \"@openzeppelin/contracts/token/ERC20/ERC20.sol\":1671:1688  _symbol = symbol_ */\n  0x04\n    /* \"XPToken.sol\":3300:3358  InvalidAddress(address(0), \"Token symbol cannot be empty\") */\n  dup3\n  add\n    /* \"XPToken.sol\":551:8051  contract XPToken is ERC20, AccessControl, Pausable, ReentrancyGuard {... */\n  mstore\n  0x40\n  0x24\n  dup3\n  add\n  mstore\n  0x1c\n  0x44\n  dup3\n  add\n  mstore\n  0x546f6b656e2073796d626f6c2063616e6e6f7420626520656d70747900000000\n  0x64\n  dup3\n  add\n  mstore\n    /* \"XPToken.sol\":3300:3358  InvalidAddress(address(0), \"Token symbol cannot be empty\") */\n  revert\n    /* \"XPToken.sol\":3122:3239  if (bytes(name).length == 0) {... */\ntag_47:\n    /* \"XPToken.sol\":3172:3228  InvalidAddress(address(0), \"Token name cannot be empty\") */\n  0x84\n    /* \"XPToken.sol\":551:8051  contract XPToken is ERC20, AccessControl, Pausable, ReentrancyGuard {... */\n  mload(0x40)\n    /* \"XPToken.sol\":3172:3228  InvalidAddress(address(0), \"Token name cannot be empty\") */\n  shl(0xe0, 0xf7693c3d)\n  dup2\n  mstore\n  0x00\n    /* \"@openzeppelin/contracts/token/ERC20/ERC20.sol\":1671:1688  _symbol = symbol_ */\n  0x04\n    /* \"XPToken.sol\":3172:3228  InvalidAddress(address(0), \"Token name cannot be empty\") */\n  dup3\n  add\n    /* \"XPToken.sol\":551:8051  contract XPToken is ERC20, AccessControl, Pausable, ReentrancyGuard {... */\n  mstore\n  0x40\n  0x24\n  dup3\n  add\n  mstore\n  0x1a\n  0x44\n  dup3\n  add\n  mstore\n  0x546f6b656e206e616d652063616e6e6f7420626520656d707479000000000000\n  0x64\n  dup3\n  add\n  mstore\n    /* \"XPToken.sol\":3172:3228  InvalidAddress(address(0), \"Token name cannot be empty\") */\n  revert\n    /* \"XPToken.sol\":551:8051  contract XPToken is ERC20, AccessControl, Pausable, ReentrancyGuard {... */\ntag_44:\n  swap1\n  pop\n  dup4\n  add\n  mload\n  0x00\n  jump(tag_45)\ntag_42:\n    /* \"@openzeppelin/contracts/token/ERC20/ERC20.sol\":1671:1688  _symbol = symbol_ */\n  0x04\n  0x00\n    /* \"XPToken.sol\":551:8051  contract XPToken is ERC20, AccessControl, Pausable, ReentrancyGuard {... */\n  swap1\n  dup2\n  mstore\n  dup2\n  dup2\n  keccak256\n  swap3\n  pop\n  not(0x1f)\n  dup5\n  and\n  swap1\ntag_59:\n  dup2\n  dup2\n  lt\n  tag_60\n  jumpi\n  pop\n  swap1\n  dup4\n  0x01\n  swap5\n  swap4\n  swap3\n  lt\n  tag_62\n  jumpi\ntag_63:\n  pop\n  pop\n  dup2\n  shl\n  add\n    /* \"@openzeppelin/contracts/token/ERC20/ERC20.sol\":1671:1688  _symbol = symbol_ */\n  0x04\n    /* \"XPToken.sol\":551:8051  contract XPToken is ERC20, AccessControl, Pausable, ReentrancyGuard {... */\n  sstore\n  jump(tag_46)\ntag_62:\n  dup6\n  add\n  mload\n  not(0x00)\n  0xf8\n  dup5\n    /* \"@openzeppelin/contracts/token/ERC20/ERC20.sol\":1648:1661  _name = name_ */\n  0x03\n    /* \"XPToken.sol\":551:8051  contract XPToken is ERC20, AccessControl, Pausable, ReentrancyGuard {... */\n  shl\n  and\n  shr\n  not\n  and\n  swap1\n  sstore\n  0x00\n  dup1\n  jump(tag_63)\ntag_60:\n  swap2\n  swap3\n  0x20\n  0x01\n  dup2\n  swap3\n  dup7\n  dup11\n  add\n  mload\n  dup2\n  sstore\n  add\n  swap5\n  add\n  swap3\n  add\n  jump(tag_59)\ntag_40:\n    /* \"@openzeppelin/contracts/token/ERC20/ERC20.sol\":1671:1688  _symbol = symbol_ */\n  0x04\n  0x00\n    /* \"XPToken.sol\":551:8051  contract XPToken is ERC20, AccessControl, Pausable, ReentrancyGuard {... */\n  mstore\n  0x8a35acfbc15ff81a39ae7d344fd709f28e8600b4aa8c65c6b64bfe7fe36bd19b\n  0x1f\n  dup4\n  add\n  0x05\n  shr\n  dup2\n  add\n  swap2\n  0x20\n  dup5\n  lt\n  tag_64\n  jumpi\ntag_65:\n  0x1f\n  add\n  0x05\n  shr\n  add\n  swap1\ntag_66:\n  dup2\n  dup2\n  lt\n  tag_67\n  jumpi\n  pop\n  jump(tag_41)\ntag_67:\n  0x00\n  dup2\n  sstore\n  0x01\n  add\n  jump(tag_66)\ntag_64:\n  swap1\n  swap2\n  pop\n  dup2\n  swap1\n  jump(tag_65)\ntag_38:\n  mstore(0x00, shl(0xe0, 0x4e487b71))\n  0x22\n    /* \"@openzeppelin/contracts/token/ERC20/ERC20.sol\":1671:1688  _symbol = symbol_ */\n  0x04\n    /* \"XPToken.sol\":551:8051  contract XPToken is ERC20, AccessControl, Pausable, ReentrancyGuard {... */\n  mstore\n  revert(0x00, 0x24)\ntag_36:\n  swap1\n  0x7f\n  and\n  swap1\n  jump(tag_37)\ntag_34:\n  mstore(0x00, shl(0xe0, 0x4e487b71))\n  0x41\n    /* \"@openzeppelin/contracts/token/ERC20/ERC20.sol\":1671:1688  _symbol = symbol_ */\n  0x04\n    /* \"XPToken.sol\":551:8051  contract XPToken is ERC20, AccessControl, Pausable, ReentrancyGuard {... */\n  mstore\n  revert(0x00, 0x24)\ntag_31:\n  swap1\n  pop\n  dup3\n  add\n  mload\n  0x00\n  jump(tag_32)\ntag_29:\n    /* \"@openzeppelin/contracts/token/ERC20/ERC20.sol\":1648:1661  _name = name_ */\n  0x03\n  0x00\n    /* \"XPToken.sol\":551:8051  contract XPToken is ERC20, AccessControl, Pausable, ReentrancyGuard {... */\n  swap1\n  dup2\n  mstore\n  dup2\n  dup2\n  keccak256\n  swap3\n  pop\n  not(0x1f)\n  dup5\n  and\n  swap1\ntag_69:\n  dup2\n  dup2\n  lt\n  tag_70\n  jumpi\n  pop\n  swap1\n  dup4\n  0x01\n  swap5\n  swap4\n  swap3\n  lt\n  tag_72\n  jumpi\ntag_73:\n  pop\n  pop\n  dup2\n  shl\n  add\n    /* \"@openzeppelin/contracts/token/ERC20/ERC20.sol\":1648:1661  _name = name_ */\n  0x03\n    /* \"XPToken.sol\":551:8051  contract XPToken is ERC20, AccessControl, Pausable, ReentrancyGuard {... */\n  sstore\n  jump(tag_33)\ntag_72:\n  dup5\n  add\n  mload\n  not(0x00)\n  0xf8\n  dup5\n    /* \"@openzeppelin/contracts/token/ERC20/ERC20.sol\":1648:1661  _name = name_ */\n  0x03\n    /* \"XPToken.sol\":551:8051  contract XPToken is ERC20, AccessControl, Pausable, ReentrancyGuard {... */\n  shl\n  and\n  shr\n  not\n  and\n  swap1\n  sstore\n  0x00\n  dup1\n  jump(tag_73)\ntag_70:\n  swap2\n  swap3\n  0x20\n  0x01\n  dup2\n  swap3\n  dup7\n  dup10\n  add\n  mload\n  dup2\n  sstore\n  add\n  swap5\n  add\n  swap3\n  add\n  jump(tag_69)\ntag_27:\n    /* \"@openzeppelin/contracts/token/ERC20/ERC20.sol\":1648:1661  _name = name_ */\n  0x03\n  0x00\n    /* \"XPToken.sol\":551:8051  contract XPToken is ERC20, AccessControl, Pausable, ReentrancyGuard {... */\n  mstore\n  0xc2575a0e9e593c00f959f8c92f12db2869c3395a3b0502d05e2516446f71f85b\n  0x1f\n  dup4\n  add\n  0x05\n  shr\n  dup2\n  add\n  swap2\n  0x20\n  dup5\n  lt\n  tag_74\n  jumpi\ntag_75:\n  0x1f\n  add\n  0x05\n  shr\n  add\n  swap1\ntag_76:\n  dup2\n  dup2\n  lt\n  tag_77\n  jumpi\n  pop\n  jump(tag_28)\ntag_77:\n  0x00\n  dup2\n  sstore\n  0x01\n  add\n  jump(tag_76)\ntag_74:\n  swap1\n  swap2\n  pop\n  dup2\n  swap1\n  jump(tag_75)\ntag_23:\n  swap1\n  0x7f\n  and\n  swap1\n  jump(tag_24)\ntag_16:\n  0x00\n  dup1\n  revert\ntag_1:\n  mload(0x40)\n  swap2\n  swap1\n  0x1f\n  add\n  not(0x1f)\n  and\n  dup3\n  add\n  sub(shl(0x40, 0x01), 0x01)\n  dup2\n  gt\n  dup4\n  dup3\n  lt\n  or\n  tag_34\n  jumpi\n  0x40\n  mstore\n  jump\t// out\ntag_2:\n  dup2\n  0x1f\n  dup3\n  add\n  slt\n  iszero\n  tag_16\n  jumpi\n  dup1\n  mload\n  swap1\n  sub(shl(0x40, 0x01), 0x01)\n  dup3\n  gt\n  tag_34\n  jumpi\n  tag_85\n  0x1f\n  dup4\n  add\n  not(0x1f)\n  and\n  0x20\n  add\n  tag_1\n  jump\t// in\ntag_85:\n  swap3\n  dup3\n  dup5\n  mstore\n  0x20\n  dup4\n  dup4\n  add\n  add\n  gt\n  tag_16\n  jumpi\n  dup2\n  0x00\n  swap3\n  0x20\n  dup1\n  swap4\n  add\n  dup4\n  dup7\n  add\n  mcopy\n  dup4\n  add\n  add\n  mstore\n  swap1\n  jump\t// out\ntag_3:\n  mload\n  swap1\n  sub(shl(0xa0, 0x01), 0x01)\n  dup3\n  and\n  dup3\n  sub\n  tag_16\n  jumpi\n  jump\t// out\n    /* \"@openzeppelin/contracts/access/AccessControl.sol\":6179:6495  function _grantRole(bytes32 role, address account) internal virtual returns (bool) {... */\ntag_4:\n  sub(shl(0xa0, 0x01), 0x01)\n    /* \"XPToken.sol\":551:8051  contract XPToken is ERC20, AccessControl, Pausable, ReentrancyGuard {... */\n  dup2\n  and\n  0x00\n  swap1\n  dup2\n  mstore\n  mload(0x00)\n  codecopy(0x00, data_d08c889a2b804c67887cd70e57ff036e6bc341281711f6587c117607d171d093, 0x20)\n  mload(0x00)\n  swap1\n  0x00\n  mstore\n  0x20\n  mstore\n  0x40\n  swap1\n  keccak256\n  sload\n  0xff\n  and\n  tag_90\n  jumpi\n  sub(shl(0xa0, 0x01), 0x01)\n  and\n  0x00\n  dup2\n  dup2\n  mstore\n  mload(0x00)\n  codecopy(0x00, data_d08c889a2b804c67887cd70e57ff036e6bc341281711f6587c117607d171d093, 0x20)\n  mload(0x00)\n  swap1\n  0x00\n  mstore\n  0x20\n  mstore\n  0x40\n  dup2\n  keccak256\n  dup1\n  sload\n  not(0xff)\n  and\n  0x01\n  or\n  swap1\n  sstore\n    /* \"@openzeppelin/contracts/utils/Context.sol\":735:745  msg.sender */\n  caller\n  swap2\n    /* \"XPToken.sol\":551:8051  contract XPToken is ERC20, AccessControl, Pausable, ReentrancyGuard {... */\n  swap1\n  mload(0x00)\n  codecopy(0x00, data_01400fe2f234cf888b5e4c66700c7903f33f31bfc9675e51cb0119f915eb534d, 0x20)\n  mload(0x00)\n  swap1\n  0x00\n  mstore\n  dup2\n  dup1\n    /* \"@openzeppelin/contracts/access/AccessControl.sol\":6370:6410  RoleGranted(role, account, _msgSender()) */\n  log4\n    /* \"@openzeppelin/contracts/access/AccessControl.sol\":6347:6351  true */\n  0x01\n    /* \"@openzeppelin/contracts/access/AccessControl.sol\":6424:6435  return true */\n  swap1\n  jump\t// out\n    /* \"@openzeppelin/contracts/access/AccessControl.sol\":6272:6489  if (!hasRole(role, account)) {... */\ntag_90:\n    /* \"@openzeppelin/contracts/access/AccessControl.sol\":6466:6478  return false */\n  pop\n    /* \"XPToken.sol\":551:8051  contract XPToken is ERC20, AccessControl, Pausable, ReentrancyGuard {... */\n  0x00\n    /* \"@openzeppelin/contracts/access/AccessControl.sol\":6466:6478  return false */\n  swap1\n  jump\t// out\n    /* \"@openzeppelin/contracts/access/AccessControl.sol\":6179:6495  function _grantRole(bytes32 role, address account) internal virtual returns (bool) {... */\ntag_5:\n  sub(shl(0xa0, 0x01), 0x01)\n    /* \"XPToken.sol\":551:8051  contract XPToken is ERC20, AccessControl, Pausable, ReentrancyGuard {... */\n  dup2\n  and\n  0x00\n  swap1\n  dup2\n  mstore\n  mload(0x00)\n  codecopy(0x00, data_d85980d215817c0b8e163b3ada55f1a92595fce2b7e9762f86dab2a6e2821760, 0x20)\n  mload(0x00)\n  swap1\n  0x00\n  mstore\n  0x20\n  mstore\n  0x40\n  swap1\n  keccak256\n  sload\n  0xff\n  and\n  tag_90\n  jumpi\n  sub(shl(0xa0, 0x01), 0x01)\n  and\n  0x00\n  dup2\n  dup2\n  mstore\n  mload(0x00)\n  codecopy(0x00, data_d85980d215817c0b8e163b3ada55f1a92595fce2b7e9762f86dab2a6e2821760, 0x20)\n  mload(0x00)\n  swap1\n  0x00\n  mstore\n  0x20\n  mstore\n  0x40\n  dup2\n  keccak256\n  dup1\n  sload\n  not(0xff)\n  and\n  0x01\n  or\n  swap1\n  sstore\n    /* \"@openzeppelin/contracts/utils/Context.sol\":735:745  msg.sender */\n  caller\n  swap2\n    /* \"XPToken.sol\":551:8051  contract XPToken is ERC20, AccessControl, Pausable, ReentrancyGuard {... */\n  swap1\n    /* \"XPToken.sol\":779:803  keccak256(\"PAUSER_ROLE\") */\n  0x65d7a28e3265b37a6474929f336521b332c1681b933f6cb9f3376673440d862a\n  swap1\n  mload(0x00)\n  codecopy(0x00, data_01400fe2f234cf888b5e4c66700c7903f33f31bfc9675e51cb0119f915eb534d, 0x20)\n  mload(0x00)\n  swap1\n  0x00\n  mstore\n    /* \"@openzeppelin/contracts/access/AccessControl.sol\":6370:6410  RoleGranted(role, account, _msgSender()) */\n  swap1\n    /* \"XPToken.sol\":551:8051  contract XPToken is ERC20, AccessControl, Pausable, ReentrancyGuard {... */\n  dup1\n    /* \"@openzeppelin/contracts/access/AccessControl.sol\":6370:6410  RoleGranted(role, account, _msgSender()) */\n  log4\n    /* \"@openzeppelin/contracts/access/AccessControl.sol\":6347:6351  true */\n  0x01\n    /* \"@openzeppelin/contracts/access/AccessControl.sol\":6424:6435  return true */\n  swap1\n  jump\t// out\n    /* \"@openzeppelin/contracts/access/AccessControl.sol\":6179:6495  function _grantRole(bytes32 role, address account) internal virtual returns (bool) {... */\ntag_6:\n  sub(shl(0xa0, 0x01), 0x01)\n    /* \"XPToken.sol\":551:8051  contract XPToken is ERC20, AccessControl, Pausable, ReentrancyGuard {... */\n  dup2\n  and\n  0x00\n  swap1\n  dup2\n  mstore\n  mload(0x00)\n  codecopy(0x00, data_014e9b15b95b23bb1237d5a4068b884f1a9e0fed3b2f5a7f00a00e8a8e130008, 0x20)\n  mload(0x00)\n  swap1\n  0x00\n  mstore\n  0x20\n  mstore\n  0x40\n  swap1\n  keccak256\n  sload\n  0xff\n  and\n  tag_90\n  jumpi\n  sub(shl(0xa0, 0x01), 0x01)\n  and\n  0x00\n  dup2\n  dup2\n  mstore\n  mload(0x00)\n  codecopy(0x00, data_014e9b15b95b23bb1237d5a4068b884f1a9e0fed3b2f5a7f00a00e8a8e130008, 0x20)\n  mload(0x00)\n  swap1\n  0x00\n  mstore\n  0x20\n  mstore\n  0x40\n  dup2\n  keccak256\n  dup1\n  sload\n  not(0xff)\n  and\n  0x01\n  or\n  swap1\n  sstore\n    /* \"@openzeppelin/contracts/utils/Context.sol\":735:745  msg.sender */\n  caller\n  swap2\n    /* \"XPToken.sol\":551:8051  contract XPToken is ERC20, AccessControl, Pausable, ReentrancyGuard {... */\n  swap1\n    /* \"XPToken.sol\":711:735  keccak256(\"MINTER_ROLE\") */\n  0x9f2df0fed2c77648de5860a4cc508cd0818c85b8b8a1ab4ceeef8d981c8956a6\n  swap1\n  mload(0x00)\n  codecopy(0x00, data_01400fe2f234cf888b5e4c66700c7903f33f31bfc9675e51cb0119f915eb534d, 0x20)\n  mload(0x00)\n  swap1\n  0x00\n  mstore\n    /* \"@openzeppelin/contracts/access/AccessControl.sol\":6370:6410  RoleGranted(role, account, _msgSender()) */\n  swap1\n    /* \"XPToken.sol\":551:8051  contract XPToken is ERC20, AccessControl, Pausable, ReentrancyGuard {... */\n  dup1\n    /* \"@openzeppelin/contracts/access/AccessControl.sol\":6370:6410  RoleGranted(role, account, _msgSender()) */\n  log4\n    /* \"@openzeppelin/contracts/access/AccessControl.sol\":6347:6351  true */\n  0x01\n    /* \"@openzeppelin/contracts/access/AccessControl.sol\":6424:6435  return true */\n  swap1\n  jump\t// out\n    /* \"@openzeppelin/contracts/access/AccessControl.sol\":6179:6495  function _grantRole(bytes32 role, address account) internal virtual returns (bool) {... */\ntag_7:\n  sub(shl(0xa0, 0x01), 0x01)\n    /* \"XPToken.sol\":551:8051  contract XPToken is ERC20, AccessControl, Pausable, ReentrancyGuard {... */\n  dup2\n  and\n  0x00\n  swap1\n  dup2\n  mstore\n  mload(0x00)\n  codecopy(0x00, data_2aa3fe5c7bf9c3d841807cf5fc1261067c392eab3054a316764bd8ba07e437f8, 0x20)\n  mload(0x00)\n  swap1\n  0x00\n  mstore\n  0x20\n  mstore\n  0x40\n  swap1\n  keccak256\n  sload\n  0xff\n  and\n  tag_90\n  jumpi\n  sub(shl(0xa0, 0x01), 0x01)\n  and\n  0x00\n  dup2\n  dup2\n  mstore\n  mload(0x00)\n  codecopy(0x00, data_2aa3fe5c7bf9c3d841807cf5fc1261067c392eab3054a316764bd8ba07e437f8, 0x20)\n  mload(0x00)\n  swap1\n  0x00\n  mstore\n  0x20\n  mstore\n  0x40\n  dup2\n  keccak256\n  dup1\n  sload\n  not(0xff)\n  and\n  0x01\n  or\n  swap1\n  sstore\n    /* \"@openzeppelin/contracts/utils/Context.sol\":735:745  msg.sender */\n  caller\n  swap2\n    /* \"XPToken.sol\":551:8051  contract XPToken is ERC20, AccessControl, Pausable, ReentrancyGuard {... */\n  swap1\n    /* \"XPToken.sol\":847:871  keccak256(\"BURNER_ROLE\") */\n  0x3c11d16cbaffd01df69ce1c404f6340ee057498f5f00246190ea54220576a848\n  swap1\n  mload(0x00)\n  codecopy(0x00, data_01400fe2f234cf888b5e4c66700c7903f33f31bfc9675e51cb0119f915eb534d, 0x20)\n  mload(0x00)\n  swap1\n  0x00\n  mstore\n    /* \"@openzeppelin/contracts/access/AccessControl.sol\":6370:6410  RoleGranted(role, account, _msgSender()) */\n  swap1\n    /* \"XPToken.sol\":551:8051  contract XPToken is ERC20, AccessControl, Pausable, ReentrancyGuard {... */\n  dup1\n    /* \"@openzeppelin/contracts/access/AccessControl.sol\":6370:6410  RoleGranted(role, account, _msgSender()) */\n  log4\n    /* \"@openzeppelin/contracts/access/AccessControl.sol\":6347:6351  true */\n  0x01\n    /* \"@openzeppelin/contracts/access/AccessControl.sol\":6424:6435  return true */\n  swap1\n  jump\t// out\nstop\ndata_01400fe2f234cf888b5e4c66700c7903f33f31bfc9675e51cb0119f915eb534d 2f8788117e7eff1d82e926ec794901d17c78024a50270940304540a733656f0d\ndata_014e9b15b95b23bb1237d5a4068b884f1a9e0fed3b2f5a7f00a00e8a8e130008 15a28d26fa1bf736cf7edc9922607171ccb09c3c73b808e7772a3013e068a522\ndata_2aa3fe5c7bf9c3d841807cf5fc1261067c392eab3054a316764bd8ba07e437f8 847f481f687befb06ed3511f1a8dcef57e83007c0147ae5047583d7056170937\ndata_d08c889a2b804c67887cd70e57ff036e6bc341281711f6587c117607d171d093 05b8ccbb9d4d8fb16ea74ce3c29a41f1b461fbdaff4714a0d9a8eb05499746bc\ndata_d85980d215817c0b8e163b3ada55f1a92595fce2b7e9762f86dab2a6e2821760 99f2891db7a8db76249871a02b43b68c0bb8f22ef8a3bc1034ae9375ef6b7c3c\n\nsub_0: assembly {\n        /* \"XPToken.sol\":551:8051  contract XPToken is ERC20, AccessControl, Pausable, ReentrancyGuard {... */\n      0x80\n      dup1\n      0x40\n      mstore\n      jumpi(tag_17, iszero(lt(calldatasize, 0x04)))\n      0x00\n      dup1\n      revert\n    tag_17:\n      0x00\n      swap1\n      shr(0xe0, calldataload(0x00))\n      swap1\n      dup2\n      0x01ffc9a7\n      eq\n      tag_19\n      jumpi\n      pop\n      dup1\n      0x06fdde03\n      eq\n      tag_21\n      jumpi\n      dup1\n      0x095ea7b3\n      eq\n      tag_23\n      jumpi\n      dup1\n      0x18160ddd\n      eq\n      tag_25\n      jumpi\n      dup1\n      0x23b872dd\n      eq\n      tag_27\n      jumpi\n      dup1\n      0x248a9ca3\n      eq\n      tag_29\n      jumpi\n      dup1\n      0x282c51f3\n      eq\n      tag_31\n      jumpi\n      dup1\n      0x2f2ff15d\n      eq\n      tag_33\n      jumpi\n      dup1\n      0x313ce567\n      eq\n      tag_35\n      jumpi\n      dup1\n      0x35ab5f64\n      eq\n      tag_37\n      jumpi\n      dup1\n      0x36568abe\n      eq\n      tag_39\n      jumpi\n      dup1\n      0x3f4ba83a\n      eq\n      tag_41\n      jumpi\n      dup1\n      0x40c10f19\n      eq\n      tag_43\n      jumpi\n      dup1\n      0x42966c68\n      eq\n      tag_45\n      jumpi\n      dup1\n      0x5c975abb\n      eq\n      tag_47\n      jumpi\n      dup1\n      0x5cb0c16f\n      eq\n      tag_49\n      jumpi\n      dup1\n      0x70a08231\n      eq\n      tag_51\n      jumpi\n      dup1\n      0x79cc6790\n      eq\n      tag_53\n      jumpi\n      dup1\n      0x8456cb59\n      eq\n      tag_55\n      jumpi\n      dup1\n      0x91d14854\n      eq\n      tag_57\n      jumpi\n      dup1\n      0x95d89b41\n      eq\n      tag_59\n      jumpi\n      dup1\n      0xa217fddf\n      eq\n      tag_61\n      jumpi\n      dup1\n      0xa2309ff8\n      eq\n      tag_63\n      jumpi\n      dup1\n      0xa9059cbb\n      eq\n      tag_65\n      jumpi\n      dup1\n      0xb028d807\n      eq\n      tag_67\n      jumpi\n      dup1\n      0xc59d4847\n      eq\n      tag_69\n      jumpi\n      dup1\n      0xd5391393\n      eq\n      tag_71\n      jumpi\n      dup1\n      0xd547741f\n      eq\n      tag_73\n      jumpi\n      dup1\n      0xdd62ed3e\n      eq\n      tag_75\n      jumpi\n      0xe63ab1e9\n      eq\n      tag_77\n      jumpi\n      0x00\n      dup1\n      revert\n    tag_77:\n      jumpi(tag_81, callvalue)\n      dup1\n      add(calldatasize, not(0x03))\n      slt\n      tag_81\n      jumpi\n      0x20\n      mload(0x40)\n        /* \"XPToken.sol\":779:803  keccak256(\"PAUSER_ROLE\") */\n      0x65d7a28e3265b37a6474929f336521b332c1681b933f6cb9f3376673440d862a\n        /* \"XPToken.sol\":551:8051  contract XPToken is ERC20, AccessControl, Pausable, ReentrancyGuard {... */\n      dup2\n      mstore\n      return\n    tag_81:\n      dup1\n      revert\n    tag_75:\n      pop\n      jumpi(tag_81, callvalue)\n      jumpi(tag_81, slt(add(not(0x03), calldatasize), 0x40))\n      0x40\n      tag_87\n      tag_2\n      jump\t// in\n    tag_87:\n      swap2\n      tag_88\n      tag_3\n      jump\t// in\n    tag_88:\n      swap3\n      0x01\n      dup1\n      0xa0\n      shl\n      sub\n      and\n      dup2\n      mstore\n        /* \"@openzeppelin/contracts/token/ERC20/ERC20.sol\":3638:3649  _allowances */\n      0x01\n        /* \"XPToken.sol\":551:8051  contract XPToken is ERC20, AccessControl, Pausable, ReentrancyGuard {... */\n      0x20\n      mstore\n      keccak256\n        /* \"@openzeppelin/contracts/token/ERC20/ERC20.sol\":3638:3665  _allowances[owner][spender] */\n      swap1\n        /* \"XPToken.sol\":551:8051  contract XPToken is ERC20, AccessControl, Pausable, ReentrancyGuard {... */\n      0x01\n      dup1\n      0xa0\n      shl\n      sub\n      and\n      0x00\n      mstore\n      0x20\n      mstore\n      0x20\n      sload(keccak256(0x00, 0x40))\n      mload(0x40)\n      swap1\n      dup2\n      mstore\n      return\n    tag_73:\n      pop\n      jumpi(tag_81, callvalue)\n      jumpi(tag_81, slt(add(not(0x03), calldatasize), 0x40))\n        /* \"@openzeppelin/contracts/access/AccessControl.sol\":4747:4773  _revokeRole(role, account) */\n      tag_93\n        /* \"XPToken.sol\":551:8051  contract XPToken is ERC20, AccessControl, Pausable, ReentrancyGuard {... */\n      calldataload(0x04)\n      tag_94\n      tag_3\n      jump\t// in\n    tag_94:\n        /* \"@openzeppelin/contracts/access/AccessControl.sol\":4717:4735  getRoleAdmin(role) */\n      swap1\n        /* \"@openzeppelin/contracts/access/AccessControl.sol\":2475:2479  role */\n      tag_95\n        /* \"@openzeppelin/contracts/access/AccessControl.sol\":4717:4735  getRoleAdmin(role) */\n      tag_96\n      dup3\n      0x00\n        /* \"XPToken.sol\":551:8051  contract XPToken is ERC20, AccessControl, Pausable, ReentrancyGuard {... */\n      mstore\n        /* \"@openzeppelin/contracts/access/AccessControl.sol\":3901:3907  _roles */\n      0x05\n        /* \"XPToken.sol\":551:8051  contract XPToken is ERC20, AccessControl, Pausable, ReentrancyGuard {... */\n      0x20\n      mstore\n        /* \"@openzeppelin/contracts/access/AccessControl.sol\":3901:3923  _roles[role].adminRole */\n      0x01\n        /* \"XPToken.sol\":551:8051  contract XPToken is ERC20, AccessControl, Pausable, ReentrancyGuard {... */\n      keccak256(0x00, 0x40)\n        /* \"@openzeppelin/contracts/access/AccessControl.sol\":3901:3923  _roles[role].adminRole */\n      add\n        /* \"XPToken.sol\":551:8051  contract XPToken is ERC20, AccessControl, Pausable, ReentrancyGuard {... */\n      sload\n        /* \"@openzeppelin/contracts/access/AccessControl.sol\":3810:3930  function getRoleAdmin(bytes32 role) public view virtual returns (bytes32) {... */\n      swap1\n      jump\n        /* \"@openzeppelin/contracts/access/AccessControl.sol\":4717:4735  getRoleAdmin(role) */\n    tag_96:\n        /* \"@openzeppelin/contracts/access/AccessControl.sol\":2475:2479  role */\n      tag_11\n      jump\t// in\n    tag_95:\n        /* \"@openzeppelin/contracts/access/AccessControl.sol\":4747:4773  _revokeRole(role, account) */\n      tag_13\n      jump\t// in\n    tag_93:\n      pop\n        /* \"XPToken.sol\":551:8051  contract XPToken is ERC20, AccessControl, Pausable, ReentrancyGuard {... */\n      dup1\n      return\n    tag_71:\n      pop\n      jumpi(tag_81, callvalue)\n      dup1\n      add(calldatasize, not(0x03))\n      slt\n      tag_81\n      jumpi\n      0x20\n      mload(0x40)\n        /* \"XPToken.sol\":711:735  keccak256(\"MINTER_ROLE\") */\n      0x9f2df0fed2c77648de5860a4cc508cd0818c85b8b8a1ab4ceeef8d981c8956a6\n        /* \"XPToken.sol\":551:8051  contract XPToken is ERC20, AccessControl, Pausable, ReentrancyGuard {... */\n      dup2\n      mstore\n      return\n    tag_69:\n      pop\n      jumpi(tag_81, callvalue)\n      dup1\n      add(calldatasize, not(0x03))\n      slt\n      tag_81\n      jumpi\n      0x60\n        /* \"XPToken.sol\":7690:7701  totalMinted */\n      0x08\n        /* \"XPToken.sol\":551:8051  contract XPToken is ERC20, AccessControl, Pausable, ReentrancyGuard {... */\n      sload\n        /* \"XPToken.sol\":7703:7720  totalBurnedAmount */\n      0x09\n        /* \"XPToken.sol\":551:8051  contract XPToken is ERC20, AccessControl, Pausable, ReentrancyGuard {... */\n      sload\n        /* \"@openzeppelin/contracts/token/ERC20/ERC20.sol\":2908:2920  _totalSupply */\n      0x02\n        /* \"XPToken.sol\":551:8051  contract XPToken is ERC20, AccessControl, Pausable, ReentrancyGuard {... */\n      sload\n      swap1\n      mload(0x40)\n      swap3\n      dup4\n      mstore\n      0x20\n      dup4\n      add\n      mstore\n      0x40\n      dup3\n      add\n      mstore\n      return\n    tag_67:\n      pop\n      jumpi(tag_81, callvalue)\n      jumpi(tag_81, slt(add(not(0x03), calldatasize), 0x40))\n      tag_109\n      tag_2\n      jump\t// in\n    tag_109:\n      calldataload(0x24)\n        /* \"XPToken.sol\":5671:5675  this */\n      swap1\n      address\n        /* \"XPToken.sol\":5649:5659  msg.sender */\n      caller\n        /* \"XPToken.sol\":5649:5676  msg.sender == address(this) */\n      sub\n        /* \"XPToken.sol\":551:8051  contract XPToken is ERC20, AccessControl, Pausable, ReentrancyGuard {... */\n      tag_110\n      jumpi\n      sub(shl(0xa0, 0x01), 0x01)\n      and\n      swap1\n        /* \"@openzeppelin/contracts/token/ERC20/ERC20.sol\":7509:7530  account == address(0) */\n      dup2\n      iszero\n        /* \"@openzeppelin/contracts/token/ERC20/ERC20.sol\":7505:7596  if (account == address(0)) {... */\n      tag_112\n      jumpi\n        /* \"@openzeppelin/contracts/token/ERC20/ERC20.sol\":7064:7089  Transfer(from, to, value) */\n      0xddf252ad1be2c89b69c2b068fc378daa952ba7f163c4a11628f55a4df523b3ef\n        /* \"XPToken.sol\":551:8051  contract XPToken is ERC20, AccessControl, Pausable, ReentrancyGuard {... */\n      0x20\n        /* \"@openzeppelin/contracts/utils/Pausable.sol\":1315:1387  modifier whenNotPaused() {... */\n      dup5\n      swap3\n      tag_114\n      tag_14\n      jump\t// in\n    tag_114:\n        /* \"@openzeppelin/contracts/token/ERC20/ERC20.sol\":6214:6235  _totalSupply += value */\n      tag_115\n        /* \"XPToken.sol\":551:8051  contract XPToken is ERC20, AccessControl, Pausable, ReentrancyGuard {... */\n      dup2\n        /* \"@openzeppelin/contracts/token/ERC20/ERC20.sol\":6214:6235  _totalSupply += value */\n      0x02\n        /* \"XPToken.sol\":551:8051  contract XPToken is ERC20, AccessControl, Pausable, ReentrancyGuard {... */\n      sload\n        /* \"@openzeppelin/contracts/token/ERC20/ERC20.sol\":6214:6235  _totalSupply += value */\n      tag_6\n      jump\t// in\n    tag_115:\n      0x02\n        /* \"XPToken.sol\":551:8051  contract XPToken is ERC20, AccessControl, Pausable, ReentrancyGuard {... */\n      sstore\n      dup5\n      dup5\n      mstore\n      dup4\n      dup3\n      mstore\n      0x40\n      dup5\n      keccak256\n      dup2\n      dup2\n      sload\n      add\n      swap1\n      sstore\n      mload(0x40)\n      swap1\n      dup2\n      mstore\n        /* \"@openzeppelin/contracts/token/ERC20/ERC20.sol\":7064:7089  Transfer(from, to, value) */\n      log3\n        /* \"XPToken.sol\":551:8051  contract XPToken is ERC20, AccessControl, Pausable, ReentrancyGuard {... */\n      dup1\n      return\n        /* \"@openzeppelin/contracts/token/ERC20/ERC20.sol\":7505:7596  if (account == address(0)) {... */\n    tag_112:\n      shl(0xe0, 0xec442f05)\n        /* \"@openzeppelin/contracts/token/ERC20/ERC20.sol\":7553:7585  ERC20InvalidReceiver(address(0)) */\n      dup4\n      mstore\n        /* \"XPToken.sol\":551:8051  contract XPToken is ERC20, AccessControl, Pausable, ReentrancyGuard {... */\n      0x04\n      dup4\n      swap1\n      mstore\n      0x24\n        /* \"@openzeppelin/contracts/token/ERC20/ERC20.sol\":7553:7585  ERC20InvalidReceiver(address(0)) */\n      dup4\n      revert\n        /* \"XPToken.sol\":551:8051  contract XPToken is ERC20, AccessControl, Pausable, ReentrancyGuard {... */\n    tag_110:\n      mload(0x40)\n      shl(0xe5, 0x461bcd)\n      dup2\n      mstore\n      0x20\n      0x04\n      dup3\n      add\n      mstore\n      0x16\n      0x24\n      dup3\n      add\n      mstore\n      shl(0x52, 0x13db9b1e481cd95b198b58d85b1b08185b1b1bddd959)\n      0x44\n      dup3\n      add\n      mstore\n      0x64\n      swap1\n      revert\n    tag_65:\n      pop\n      jumpi(tag_81, callvalue)\n      jumpi(tag_81, slt(add(not(0x03), calldatasize), 0x40))\n        /* \"@openzeppelin/contracts/token/ERC20/ERC20.sol\":3440:3445  value */\n      tag_120\n        /* \"XPToken.sol\":551:8051  contract XPToken is ERC20, AccessControl, Pausable, ReentrancyGuard {... */\n      tag_121\n      tag_2\n      jump\t// in\n    tag_121:\n      calldataload(0x24)\n        /* \"@openzeppelin/contracts/utils/Context.sol\":735:745  msg.sender */\n      swap1\n      caller\n        /* \"@openzeppelin/contracts/token/ERC20/ERC20.sol\":3440:3445  value */\n      tag_9\n      jump\t// in\n    tag_120:\n        /* \"XPToken.sol\":551:8051  contract XPToken is ERC20, AccessControl, Pausable, ReentrancyGuard {... */\n      0x20\n      mload(0x40)\n      0x01\n      dup2\n      mstore\n      return\n    tag_63:\n      pop\n      jumpi(tag_81, callvalue)\n      dup1\n      add(calldatasize, not(0x03))\n      slt\n      tag_81\n      jumpi\n      0x20\n        /* \"XPToken.sol\":931:957  uint256 public totalMinted */\n      0x08\n        /* \"XPToken.sol\":551:8051  contract XPToken is ERC20, AccessControl, Pausable, ReentrancyGuard {... */\n      sload\n      mload(0x40)\n      swap1\n      dup2\n      mstore\n      return\n    tag_61:\n      pop\n      jumpi(tag_81, callvalue)\n      dup1\n      add(calldatasize, not(0x03))\n      slt\n      tag_81\n      jumpi\n      0x20\n      swap1\n      mload(0x40)\n      swap1\n      dup2\n      mstore\n      return\n    tag_59:\n      pop\n      jumpi(tag_81, callvalue)\n      dup1\n      add(calldatasize, not(0x03))\n      slt\n      tag_81\n      jumpi\n      mload(0x40)\n      swap1\n      dup1\n      sload(0x04)\n      swap1\n      dup2\n      0x01\n      shr\n      swap2\n      0x01\n      dup2\n      and\n      dup1\n      iszero\n      tag_134\n      jumpi\n    tag_135:\n      0x20\n      dup5\n      lt\n      dup2\n      eq\n      tag_136\n      jumpi\n      dup4\n      dup7\n      mstore\n      swap1\n      dup2\n      iszero\n      tag_138\n      jumpi\n      pop\n      0x01\n      eq\n      tag_140\n      jumpi\n    tag_141:\n      tag_142\n      dup5\n      tag_143\n      dup2\n      dup7\n      sub\n      dup3\n      tag_4\n      jump\t// in\n    tag_143:\n      mload(0x40)\n      swap2\n      dup3\n      swap2\n      0x20\n      dup4\n      mstore\n      0x20\n      dup4\n      add\n      swap1\n      tag_1\n      jump\t// in\n    tag_142:\n      sub\n      swap1\n      return\n    tag_140:\n      0x04\n      dup2\n      mstore\n      0x8a35acfbc15ff81a39ae7d344fd709f28e8600b4aa8c65c6b64bfe7fe36bd19b\n      swap4\n      swap3\n      pop\n      swap1\n    tag_144:\n      dup1\n      dup3\n      lt\n      tag_145\n      jumpi\n      pop\n      swap1\n      swap2\n      pop\n      dup2\n      add\n      0x20\n      add\n      tag_143\n      dup3\n      jump(tag_141)\n    tag_145:\n      swap2\n      swap3\n      0x01\n      dup2\n      0x20\n      swap3\n      sload\n      dup4\n      dup6\n      dup9\n      add\n      add\n      mstore\n      add\n      swap2\n      add\n      swap1\n      swap3\n      swap2\n      jump(tag_144)\n    tag_138:\n      not(0xff)\n      and\n      0x20\n      dup1\n      dup8\n      add\n      swap2\n      swap1\n      swap2\n      mstore\n      swap3\n      iszero\n      iszero\n      0x05\n      shl\n      dup6\n      add\n      swap1\n      swap3\n      add\n      swap3\n      pop\n      tag_143\n      swap2\n      pop\n      dup4\n      swap1\n      pop\n      jump(tag_141)\n    tag_136:\n      shl(0xe0, 0x4e487b71)\n      dup4\n      mstore\n      mstore(0x04, 0x22)\n      0x24\n      dup4\n      revert\n    tag_134:\n      swap3\n      0x7f\n      and\n      swap3\n      jump(tag_135)\n    tag_57:\n      pop\n      jumpi(tag_81, callvalue)\n      jumpi(tag_81, slt(add(not(0x03), calldatasize), 0x40))\n      0x40\n      tag_151\n      tag_3\n      jump\t// in\n    tag_151:\n      swap2\n      calldataload(0x04)\n      dup2\n      mstore\n        /* \"@openzeppelin/contracts/access/AccessControl.sol\":2954:2960  _roles */\n      0x05\n        /* \"XPToken.sol\":551:8051  contract XPToken is ERC20, AccessControl, Pausable, ReentrancyGuard {... */\n      0x20\n      mstore\n      keccak256\n        /* \"@openzeppelin/contracts/access/AccessControl.sol\":2954:2983  _roles[role].hasRole[account] */\n      swap1\n        /* \"XPToken.sol\":551:8051  contract XPToken is ERC20, AccessControl, Pausable, ReentrancyGuard {... */\n      0x01\n      dup1\n      0xa0\n      shl\n      sub\n      and\n      0x00\n      mstore\n      0x20\n      mstore\n      0x20\n      and(sload(keccak256(0x00, 0x40)), 0xff)\n      mload(0x40)\n      swap1\n      iszero\n      iszero\n      dup2\n      mstore\n      return\n    tag_55:\n      pop\n      jumpi(tag_81, callvalue)\n      dup1\n      add(calldatasize, not(0x03))\n      slt\n      tag_81\n      jumpi\n        /* \"@openzeppelin/contracts/access/AccessControl.sol\":2475:2479  role */\n      tag_156\n      tag_10\n      jump\t// in\n    tag_156:\n        /* \"@openzeppelin/contracts/utils/Pausable.sol\":1315:1387  modifier whenNotPaused() {... */\n      tag_157\n      tag_14\n      jump\t// in\n    tag_157:\n        /* \"@openzeppelin/contracts/utils/Pausable.sol\":2408:2412  true */\n      0x01\n        /* \"XPToken.sol\":551:8051  contract XPToken is ERC20, AccessControl, Pausable, ReentrancyGuard {... */\n      not(0xff)\n        /* \"@openzeppelin/contracts/utils/Pausable.sol\":2398:2412  _paused = true */\n      0x06\n        /* \"XPToken.sol\":551:8051  contract XPToken is ERC20, AccessControl, Pausable, ReentrancyGuard {... */\n      sload\n      and\n      or\n        /* \"@openzeppelin/contracts/utils/Pausable.sol\":2398:2412  _paused = true */\n      0x06\n        /* \"XPToken.sol\":551:8051  contract XPToken is ERC20, AccessControl, Pausable, ReentrancyGuard {... */\n      sstore\n        /* \"@openzeppelin/contracts/utils/Pausable.sol\":2427:2447  Paused(_msgSender()) */\n      0x62e78cea01bee320cd4e420270b5ea74000d11b0c9f74754ebdbfc544b05a258\n        /* \"XPToken.sol\":551:8051  contract XPToken is ERC20, AccessControl, Pausable, ReentrancyGuard {... */\n      0x20\n      mload(0x40)\n        /* \"@openzeppelin/contracts/utils/Context.sol\":735:745  msg.sender */\n      caller\n        /* \"XPToken.sol\":551:8051  contract XPToken is ERC20, AccessControl, Pausable, ReentrancyGuard {... */\n      dup2\n      mstore\n        /* \"@openzeppelin/contracts/utils/Pausable.sol\":2427:2447  Paused(_msgSender()) */\n      log1\n        /* \"XPToken.sol\":551:8051  contract XPToken is ERC20, AccessControl, Pausable, ReentrancyGuard {... */\n      dup1\n      return\n    tag_53:\n      pop\n      jumpi(tag_81, callvalue)\n      jumpi(tag_81, slt(add(not(0x03), calldatasize), 0x40))\n      tag_162\n      tag_2\n      jump\t// in\n    tag_162:\n        /* \"XPToken.sol\":847:871  keccak256(\"BURNER_ROLE\") */\n      0x3c11d16cbaffd01df69ce1c404f6340ee057498f5f00246190ea54220576a848\n        /* \"XPToken.sol\":551:8051  contract XPToken is ERC20, AccessControl, Pausable, ReentrancyGuard {... */\n      dup3\n      mstore\n        /* \"@openzeppelin/contracts/access/AccessControl.sol\":2954:2960  _roles */\n      0x05\n        /* \"XPToken.sol\":551:8051  contract XPToken is ERC20, AccessControl, Pausable, ReentrancyGuard {... */\n      0x20\n      swap1\n      dup2\n      mstore\n      0x40\n      dup1\n      dup5\n      keccak256\n        /* \"@openzeppelin/contracts/utils/Context.sol\":735:745  msg.sender */\n      caller\n      0x00\n        /* \"XPToken.sol\":551:8051  contract XPToken is ERC20, AccessControl, Pausable, ReentrancyGuard {... */\n      swap1\n      dup2\n      mstore\n      swap3\n      mstore\n      swap1\n      keccak256\n      sload\n      calldataload(0x24)\n      swap2\n      swap1\n      0xff\n      and\n        /* \"@openzeppelin/contracts/access/AccessControl.sol\":3519:3542  !hasRole(role, account) */\n      iszero\n        /* \"@openzeppelin/contracts/access/AccessControl.sol\":3515:3623  if (!hasRole(role, account)) {... */\n      tag_163\n      jumpi\n        /* \"@openzeppelin/contracts/utils/Pausable.sol\":1315:1387  modifier whenNotPaused() {... */\n      tag_165\n      tag_14\n      jump\t// in\n    tag_165:\n        /* \"@openzeppelin/contracts/utils/ReentrancyGuard.sol\":2466:2569  modifier nonReentrant() {... */\n      tag_166\n      tag_15\n      jump\t// in\n    tag_166:\n        /* \"XPToken.sol\":6655:6666  amount == 0 */\n      dup2\n      iszero\n        /* \"XPToken.sol\":6651:6687  if (amount == 0) revert ZeroAmount() */\n      tag_167\n      jumpi\n        /* \"XPToken.sol\":551:8051  contract XPToken is ERC20, AccessControl, Pausable, ReentrancyGuard {... */\n      0x01\n      dup1\n      0xa0\n      shl\n      sub\n      dup2\n      and\n      swap1\n      dup2\n      dup5\n      mstore\n      dup4\n      0x20\n      mstore\n      dup3\n      0x40\n      dup6\n      keccak256\n      sload\n        /* \"XPToken.sol\":6701:6725  balanceOf(from) < amount */\n      lt\n        /* \"XPToken.sol\":6697:6784  if (balanceOf(from) < amount) revert InsufficientBalance(from, amount, balanceOf(from)) */\n      tag_169\n      jumpi\n        /* \"XPToken.sol\":551:8051  contract XPToken is ERC20, AccessControl, Pausable, ReentrancyGuard {... */\n      dup3\n        /* \"XPToken.sol\":6852:6858  amount */\n      tag_171\n        /* \"XPToken.sol\":551:8051  contract XPToken is ERC20, AccessControl, Pausable, ReentrancyGuard {... */\n      swap2\n        /* \"XPToken.sol\":6803:6830  totalBurnedAmount += amount */\n      tag_172\n        /* \"XPToken.sol\":551:8051  contract XPToken is ERC20, AccessControl, Pausable, ReentrancyGuard {... */\n      dup3\n        /* \"XPToken.sol\":6803:6830  totalBurnedAmount += amount */\n      0x09\n        /* \"XPToken.sol\":551:8051  contract XPToken is ERC20, AccessControl, Pausable, ReentrancyGuard {... */\n      sload\n        /* \"XPToken.sol\":6803:6830  totalBurnedAmount += amount */\n      tag_6\n      jump\t// in\n    tag_172:\n      0x09\n        /* \"XPToken.sol\":551:8051  contract XPToken is ERC20, AccessControl, Pausable, ReentrancyGuard {... */\n      sstore\n        /* \"XPToken.sol\":6852:6858  amount */\n      tag_16\n      jump\t// in\n    tag_171:\n        /* \"XPToken.sol\":551:8051  contract XPToken is ERC20, AccessControl, Pausable, ReentrancyGuard {... */\n      mload(0x40)\n      swap2\n      dup3\n      mstore\n        /* \"XPToken.sol\":6883:6921  TokensBurned(from, amount, msg.sender) */\n      0x08009940fb138ae33fbb70c10b643e840c71f1654344cc173975a815e117e687\n        /* \"XPToken.sol\":551:8051  contract XPToken is ERC20, AccessControl, Pausable, ReentrancyGuard {... */\n      0x20\n        /* \"@openzeppelin/contracts/utils/Context.sol\":735:745  msg.sender */\n      caller\n        /* \"XPToken.sol\":6883:6921  TokensBurned(from, amount, msg.sender) */\n      swap4\n      log3\n        /* \"XPToken.sol\":551:8051  contract XPToken is ERC20, AccessControl, Pausable, ReentrancyGuard {... */\n      0x01\n        /* \"@openzeppelin/contracts/utils/ReentrancyGuard.sol\":3068:3089  _status = NOT_ENTERED */\n      0x07\n        /* \"XPToken.sol\":551:8051  contract XPToken is ERC20, AccessControl, Pausable, ReentrancyGuard {... */\n      sstore\n      dup1\n      return\n        /* \"XPToken.sol\":6697:6784  if (balanceOf(from) < amount) revert InsufficientBalance(from, amount, balanceOf(from)) */\n    tag_169:\n        /* \"XPToken.sol\":551:8051  contract XPToken is ERC20, AccessControl, Pausable, ReentrancyGuard {... */\n      pop\n      dup3\n      swap2\n      dup2\n      0x64\n      swap5\n      mstore\n      dup3\n      0x20\n      mstore\n      0x40\n      dup4\n      keccak256\n      sload\n        /* \"XPToken.sol\":6094:6156  InsufficientBalance(msg.sender, amount, balanceOf(msg.sender)) */\n      swap2\n      shl(0xe0, 0xdb42144d)\n        /* \"XPToken.sol\":6734:6784  InsufficientBalance(from, amount, balanceOf(from)) */\n      dup5\n      mstore\n        /* \"XPToken.sol\":551:8051  contract XPToken is ERC20, AccessControl, Pausable, ReentrancyGuard {... */\n      0x04\n      mstore\n      0x24\n      mstore\n      0x44\n      mstore\n        /* \"XPToken.sol\":6734:6784  InsufficientBalance(from, amount, balanceOf(from)) */\n      revert\n        /* \"XPToken.sol\":6651:6687  if (amount == 0) revert ZeroAmount() */\n    tag_167:\n      shl(0xe0, 0x1f2a2005)\n        /* \"XPToken.sol\":6675:6687  ZeroAmount() */\n      dup4\n      mstore\n        /* \"XPToken.sol\":551:8051  contract XPToken is ERC20, AccessControl, Pausable, ReentrancyGuard {... */\n      0x04\n        /* \"XPToken.sol\":4329:4341  ZeroAmount() */\n      dup4\n        /* \"XPToken.sol\":6675:6687  ZeroAmount() */\n      revert\n        /* \"@openzeppelin/contracts/access/AccessControl.sol\":3515:3623  if (!hasRole(role, account)) {... */\n    tag_163:\n      shl(0xe0, 0xe2517d3f)\n        /* \"@openzeppelin/contracts/access/AccessControl.sol\":3565:3612  AccessControlUnauthorizedAccount(account, role) */\n      dup4\n      mstore\n        /* \"@openzeppelin/contracts/utils/Context.sol\":735:745  msg.sender */\n      caller\n        /* \"XPToken.sol\":551:8051  contract XPToken is ERC20, AccessControl, Pausable, ReentrancyGuard {... */\n      0x04\n      mstore\n        /* \"XPToken.sol\":847:871  keccak256(\"BURNER_ROLE\") */\n      0x3c11d16cbaffd01df69ce1c404f6340ee057498f5f00246190ea54220576a848\n        /* \"XPToken.sol\":551:8051  contract XPToken is ERC20, AccessControl, Pausable, ReentrancyGuard {... */\n      0x24\n      mstore\n      0x44\n        /* \"@openzeppelin/contracts/access/AccessControl.sol\":3565:3612  AccessControlUnauthorizedAccount(account, role) */\n      dup4\n      revert\n        /* \"XPToken.sol\":551:8051  contract XPToken is ERC20, AccessControl, Pausable, ReentrancyGuard {... */\n    tag_51:\n      pop\n      jumpi(tag_81, callvalue)\n      jumpi(tag_81, slt(add(not(0x03), calldatasize), 0x20))\n      0x20\n      swap1\n      0x40\n      swap1\n      sub(shl(0xa0, 0x01), 0x01)\n      tag_177\n      tag_2\n      jump\t// in\n    tag_177:\n      and\n      dup2\n      mstore\n      dup1\n      dup4\n      mstore\n      keccak256\n      sload\n      mload(0x40)\n      swap1\n      dup2\n      mstore\n      return\n    tag_49:\n      pop\n      jumpi(tag_81, callvalue)\n      dup1\n      add(calldatasize, not(0x03))\n      slt\n      tag_81\n      jumpi\n      0x20\n        /* \"@openzeppelin/contracts/token/ERC20/ERC20.sol\":2908:2920  _totalSupply */\n      0x02\n        /* \"XPToken.sol\":551:8051  contract XPToken is ERC20, AccessControl, Pausable, ReentrancyGuard {... */\n      sload\n      mload(0x40)\n      swap1\n      dup2\n      mstore\n      return\n    tag_47:\n      pop\n      jumpi(tag_81, callvalue)\n      dup1\n      add(calldatasize, not(0x03))\n      slt\n      tag_81\n      jumpi\n      0x20\n      0xff\n        /* \"@openzeppelin/contracts/utils/Pausable.sol\":1796:1803  _paused */\n      0x06\n        /* \"XPToken.sol\":551:8051  contract XPToken is ERC20, AccessControl, Pausable, ReentrancyGuard {... */\n      sload\n      and\n      mload(0x40)\n      swap1\n      iszero\n      iszero\n      dup2\n      mstore\n      return\n    tag_45:\n      pop\n      jumpi(tag_81, callvalue)\n      jumpi(tag_81, slt(add(not(0x03), calldatasize), 0x20))\n      calldataload(0x04)\n        /* \"@openzeppelin/contracts/utils/Pausable.sol\":1315:1387  modifier whenNotPaused() {... */\n      tag_190\n      tag_14\n      jump\t// in\n    tag_190:\n        /* \"@openzeppelin/contracts/utils/ReentrancyGuard.sol\":2466:2569  modifier nonReentrant() {... */\n      tag_191\n      tag_15\n      jump\t// in\n    tag_191:\n        /* \"XPToken.sol\":6009:6020  amount == 0 */\n      dup1\n      iszero\n        /* \"XPToken.sol\":6005:6041  if (amount == 0) revert ZeroAmount() */\n      tag_192\n      jumpi\n        /* \"XPToken.sol\":6065:6075  msg.sender */\n      caller\n        /* \"XPToken.sol\":551:8051  contract XPToken is ERC20, AccessControl, Pausable, ReentrancyGuard {... */\n      dup3\n      mstore\n      dup2\n      0x20\n      mstore\n      dup1\n      0x40\n      dup4\n      keccak256\n      sload\n        /* \"XPToken.sol\":6055:6085  balanceOf(msg.sender) < amount */\n      lt\n        /* \"XPToken.sol\":6051:6156  if (balanceOf(msg.sender) < amount) revert InsufficientBalance(msg.sender, amount, balanceOf(msg.sender)) */\n      tag_194\n      jumpi\n        /* \"XPToken.sol\":6175:6202  totalBurnedAmount += amount */\n      tag_196\n        /* \"XPToken.sol\":551:8051  contract XPToken is ERC20, AccessControl, Pausable, ReentrancyGuard {... */\n      dup2\n        /* \"XPToken.sol\":6175:6202  totalBurnedAmount += amount */\n      0x09\n        /* \"XPToken.sol\":551:8051  contract XPToken is ERC20, AccessControl, Pausable, ReentrancyGuard {... */\n      sload\n        /* \"XPToken.sol\":6175:6202  totalBurnedAmount += amount */\n      tag_6\n      jump\t// in\n    tag_196:\n      0x09\n        /* \"XPToken.sol\":551:8051  contract XPToken is ERC20, AccessControl, Pausable, ReentrancyGuard {... */\n      sstore\n        /* \"XPToken.sol\":6230:6236  amount */\n      tag_197\n        /* \"XPToken.sol\":6065:6075  msg.sender */\n      dup2\n      caller\n        /* \"XPToken.sol\":6230:6236  amount */\n      tag_16\n      jump\t// in\n    tag_197:\n        /* \"XPToken.sol\":551:8051  contract XPToken is ERC20, AccessControl, Pausable, ReentrancyGuard {... */\n      mload(0x40)\n      swap1\n      dup2\n      mstore\n        /* \"XPToken.sol\":6065:6075  msg.sender */\n      caller\n      swap1\n        /* \"XPToken.sol\":6261:6305  TokensBurned(msg.sender, amount, msg.sender) */\n      0x08009940fb138ae33fbb70c10b643e840c71f1654344cc173975a815e117e687\n        /* \"XPToken.sol\":551:8051  contract XPToken is ERC20, AccessControl, Pausable, ReentrancyGuard {... */\n      0x20\n        /* \"XPToken.sol\":6065:6075  msg.sender */\n      caller\n        /* \"XPToken.sol\":6261:6305  TokensBurned(msg.sender, amount, msg.sender) */\n      swap3\n      log3\n        /* \"XPToken.sol\":551:8051  contract XPToken is ERC20, AccessControl, Pausable, ReentrancyGuard {... */\n      0x01\n        /* \"@openzeppelin/contracts/utils/ReentrancyGuard.sol\":3068:3089  _status = NOT_ENTERED */\n      0x07\n        /* \"XPToken.sol\":551:8051  contract XPToken is ERC20, AccessControl, Pausable, ReentrancyGuard {... */\n      sstore\n      dup1\n      return\n        /* \"XPToken.sol\":6051:6156  if (balanceOf(msg.sender) < amount) revert InsufficientBalance(msg.sender, amount, balanceOf(msg.sender)) */\n    tag_194:\n        /* \"XPToken.sol\":6065:6075  msg.sender */\n      swap1\n        /* \"XPToken.sol\":551:8051  contract XPToken is ERC20, AccessControl, Pausable, ReentrancyGuard {... */\n      0x64\n        /* \"XPToken.sol\":6065:6075  msg.sender */\n      swap2\n      caller\n        /* \"XPToken.sol\":551:8051  contract XPToken is ERC20, AccessControl, Pausable, ReentrancyGuard {... */\n      dup3\n      mstore\n      dup2\n      0x20\n      mstore\n      0x40\n      dup3\n      keccak256\n      sload\n        /* \"XPToken.sol\":6094:6156  InsufficientBalance(msg.sender, amount, balanceOf(msg.sender)) */\n      swap1\n      shl(0xe0, 0xdb42144d)\n      dup4\n      mstore\n        /* \"XPToken.sol\":6065:6075  msg.sender */\n      caller\n        /* \"XPToken.sol\":551:8051  contract XPToken is ERC20, AccessControl, Pausable, ReentrancyGuard {... */\n      0x04\n      mstore\n      0x24\n      mstore\n      0x44\n      mstore\n        /* \"XPToken.sol\":6094:6156  InsufficientBalance(msg.sender, amount, balanceOf(msg.sender)) */\n      revert\n        /* \"XPToken.sol\":6005:6041  if (amount == 0) revert ZeroAmount() */\n    tag_192:\n      shl(0xe0, 0x1f2a2005)\n        /* \"XPToken.sol\":6029:6041  ZeroAmount() */\n      dup3\n      mstore\n        /* \"XPToken.sol\":551:8051  contract XPToken is ERC20, AccessControl, Pausable, ReentrancyGuard {... */\n      0x04\n        /* \"XPToken.sol\":4329:4341  ZeroAmount() */\n      dup3\n        /* \"XPToken.sol\":6029:6041  ZeroAmount() */\n      revert\n        /* \"XPToken.sol\":551:8051  contract XPToken is ERC20, AccessControl, Pausable, ReentrancyGuard {... */\n    tag_43:\n      pop\n      jumpi(tag_217, callvalue)\n      jumpi(tag_217, slt(add(not(0x03), calldatasize), 0x40))\n      tag_202\n      tag_2\n      jump\t// in\n    tag_202:\n        /* \"@openzeppelin/contracts/utils/Context.sol\":735:745  msg.sender */\n      caller\n        /* \"XPToken.sol\":551:8051  contract XPToken is ERC20, AccessControl, Pausable, ReentrancyGuard {... */\n      0x00\n      swap1\n      dup2\n      mstore\n      mstore(0x20, 0x15a28d26fa1bf736cf7edc9922607171ccb09c3c73b808e7772a3013e068a522)\n      0x40\n      swap1\n      keccak256\n      sload\n      calldataload(0x24)\n      swap3\n      swap2\n      swap1\n      0xff\n      and\n        /* \"@openzeppelin/contracts/access/AccessControl.sol\":3519:3542  !hasRole(role, account) */\n      iszero\n        /* \"@openzeppelin/contracts/access/AccessControl.sol\":3515:3623  if (!hasRole(role, account)) {... */\n      tag_203\n      jumpi\n        /* \"@openzeppelin/contracts/utils/Pausable.sol\":1315:1387  modifier whenNotPaused() {... */\n      tag_205\n      tag_14\n      jump\t// in\n    tag_205:\n        /* \"@openzeppelin/contracts/utils/ReentrancyGuard.sol\":2466:2569  modifier nonReentrant() {... */\n      tag_206\n      tag_15\n      jump\t// in\n    tag_206:\n      sub(shl(0xa0, 0x01), 0x01)\n        /* \"XPToken.sol\":551:8051  contract XPToken is ERC20, AccessControl, Pausable, ReentrancyGuard {... */\n      and\n      swap1\n        /* \"XPToken.sol\":4219:4235  to == address(0) */\n      dup2\n      iszero\n        /* \"XPToken.sol\":4215:4282  if (to == address(0)) {... */\n      tag_207\n      jumpi\n        /* \"XPToken.sol\":4295:4306  amount == 0 */\n      dup3\n      iszero\n        /* \"XPToken.sol\":4291:4352  if (amount == 0) {... */\n      tag_209\n      jumpi\n        /* \"XPToken.sol\":4453:4457  this */\n      address\n        /* \"XPToken.sol\":4439:4458  to == address(this) */\n      dup3\n      eq\n        /* \"XPToken.sol\":4435:4544  if (to == address(this)) {... */\n      tag_211\n      jumpi\n        /* \"XPToken.sol\":4643:4665  totalSupply() + amount */\n      tag_213\n        /* \"XPToken.sol\":551:8051  contract XPToken is ERC20, AccessControl, Pausable, ReentrancyGuard {... */\n      dup4\n        /* \"@openzeppelin/contracts/token/ERC20/ERC20.sol\":2908:2920  _totalSupply */\n      0x02\n        /* \"XPToken.sol\":551:8051  contract XPToken is ERC20, AccessControl, Pausable, ReentrancyGuard {... */\n      sload\n        /* \"XPToken.sol\":4643:4665  totalSupply() + amount */\n      tag_6\n      jump\t// in\n    tag_213:\n      sub(shl(0xff, 0x01), 0x01)\n        /* \"XPToken.sol\":4761:4787  newTotalSupply > maxSupply */\n      dup2\n      gt\n        /* \"XPToken.sol\":4757:4872  if (newTotalSupply > maxSupply) {... */\n      tag_214\n      jumpi\n        /* \"XPToken.sol\":551:8051  contract XPToken is ERC20, AccessControl, Pausable, ReentrancyGuard {... */\n      pop\n        /* \"XPToken.sol\":4950:4971  totalMinted += amount */\n      tag_216\n        /* \"XPToken.sol\":551:8051  contract XPToken is ERC20, AccessControl, Pausable, ReentrancyGuard {... */\n      dup4\n        /* \"XPToken.sol\":4950:4971  totalMinted += amount */\n      0x08\n        /* \"XPToken.sol\":551:8051  contract XPToken is ERC20, AccessControl, Pausable, ReentrancyGuard {... */\n      sload\n        /* \"XPToken.sol\":4950:4971  totalMinted += amount */\n      tag_6\n      jump\t// in\n    tag_216:\n      0x08\n        /* \"XPToken.sol\":551:8051  contract XPToken is ERC20, AccessControl, Pausable, ReentrancyGuard {... */\n      sstore\n        /* \"XPToken.sol\":4453:4457  this */\n      address\n        /* \"XPToken.sol\":4994:5023  this._performMint(to, amount) */\n      extcodesize\n      iszero\n      tag_217\n      jumpi\n        /* \"XPToken.sol\":551:8051  contract XPToken is ERC20, AccessControl, Pausable, ReentrancyGuard {... */\n      mload(0x40)\n      shl(0xe0, 0xb028d807)\n        /* \"XPToken.sol\":4994:5023  this._performMint(to, amount) */\n      dup2\n      mstore\n      dup3\n        /* \"XPToken.sol\":551:8051  contract XPToken is ERC20, AccessControl, Pausable, ReentrancyGuard {... */\n      0x04\n        /* \"XPToken.sol\":4994:5023  this._performMint(to, amount) */\n      dup3\n      add\n        /* \"XPToken.sol\":551:8051  contract XPToken is ERC20, AccessControl, Pausable, ReentrancyGuard {... */\n      mstore\n      dup4\n      0x24\n      dup3\n      add\n      mstore\n      0x00\n        /* \"XPToken.sol\":4453:4457  this */\n      dup2\n        /* \"XPToken.sol\":4994:5023  this._performMint(to, amount) */\n      0x44\n        /* \"XPToken.sol\":4453:4457  this */\n      dup2\n      dup4\n      address\n        /* \"XPToken.sol\":4994:5023  this._performMint(to, amount) */\n      gas\n      call\n      swap1\n      dup2\n      tag_219\n      jumpi\n        /* \"XPToken.sol\":551:8051  contract XPToken is ERC20, AccessControl, Pausable, ReentrancyGuard {... */\n    tag_220:\n      pop\n        /* \"XPToken.sol\":4990:5475  try this._performMint(to, amount) {... */\n      tag_221\n      jumpi\n      dup1\n        /* \"XPToken.sol\":551:8051  contract XPToken is ERC20, AccessControl, Pausable, ReentrancyGuard {... */\n      jumpi(tag_223, gt(returndatasize, 0x03))\n        /* \"XPToken.sol\":4990:5475  try this._performMint(to, amount) {... */\n    tag_224:\n      pop\n      0x08c379a0\n      eq\n      tag_225\n      jumpi\n    tag_226:\n        /* \"XPToken.sol\":551:8051  contract XPToken is ERC20, AccessControl, Pausable, ReentrancyGuard {... */\n      dup2\n        /* \"XPToken.sol\":5366:5387  totalMinted -= amount */\n      tag_227\n        /* \"XPToken.sol\":5408:5464  MintOperationFailed(to, amount, \"Unknown minting error\") */\n      0xa4\n        /* \"XPToken.sol\":551:8051  contract XPToken is ERC20, AccessControl, Pausable, ReentrancyGuard {... */\n      swap4\n        /* \"XPToken.sol\":4950:4971  totalMinted += amount */\n      0x08\n        /* \"XPToken.sol\":551:8051  contract XPToken is ERC20, AccessControl, Pausable, ReentrancyGuard {... */\n      sload\n        /* \"XPToken.sol\":5366:5387  totalMinted -= amount */\n      tag_8\n      jump\t// in\n    tag_227:\n      pop\n        /* \"XPToken.sol\":551:8051  contract XPToken is ERC20, AccessControl, Pausable, ReentrancyGuard {... */\n      mload(0x40)\n        /* \"XPToken.sol\":5238:5277  MintOperationFailed(to, amount, reason) */\n      swap2\n      shl(0xe0, 0xe6921fc1)\n        /* \"XPToken.sol\":5408:5464  MintOperationFailed(to, amount, \"Unknown minting error\") */\n      dup4\n      mstore\n        /* \"XPToken.sol\":551:8051  contract XPToken is ERC20, AccessControl, Pausable, ReentrancyGuard {... */\n      0x04\n        /* \"XPToken.sol\":5408:5464  MintOperationFailed(to, amount, \"Unknown minting error\") */\n      dup4\n      add\n        /* \"XPToken.sol\":551:8051  contract XPToken is ERC20, AccessControl, Pausable, ReentrancyGuard {... */\n      mstore\n      0x24\n      dup3\n      add\n      mstore\n      0x60\n        /* \"XPToken.sol\":4994:5023  this._performMint(to, amount) */\n      0x44\n        /* \"XPToken.sol\":551:8051  contract XPToken is ERC20, AccessControl, Pausable, ReentrancyGuard {... */\n      dup3\n      add\n      mstore\n      0x15\n      0x64\n      dup3\n      add\n      mstore\n      shl(0x59, 0x2ab735b737bbb71036b4b73a34b7339032b93937b9)\n      0x84\n      dup3\n      add\n      mstore\n        /* \"XPToken.sol\":5408:5464  MintOperationFailed(to, amount, \"Unknown minting error\") */\n      revert\n        /* \"XPToken.sol\":4990:5475  try this._performMint(to, amount) {... */\n    tag_225:\n        /* \"XPToken.sol\":5091:5288  catch Error(string memory reason) {... */\n      tag_228\n      tag_7\n      jump\t// in\n    tag_228:\n      dup1\n      tag_229\n      jumpi\n        /* \"XPToken.sol\":4990:5475  try this._performMint(to, amount) {... */\n      pop\n      jump(tag_226)\n        /* \"XPToken.sol\":5091:5288  catch Error(string memory reason) {... */\n    tag_229:\n        /* \"XPToken.sol\":551:8051  contract XPToken is ERC20, AccessControl, Pausable, ReentrancyGuard {... */\n      tag_231\n      swap1\n        /* \"XPToken.sol\":5196:5217  totalMinted -= amount */\n      tag_232\n        /* \"XPToken.sol\":551:8051  contract XPToken is ERC20, AccessControl, Pausable, ReentrancyGuard {... */\n      dup5\n        /* \"XPToken.sol\":4950:4971  totalMinted += amount */\n      0x08\n        /* \"XPToken.sol\":551:8051  contract XPToken is ERC20, AccessControl, Pausable, ReentrancyGuard {... */\n      sload\n        /* \"XPToken.sol\":5196:5217  totalMinted -= amount */\n      tag_8\n      jump\t// in\n    tag_232:\n      pop\n        /* \"XPToken.sol\":551:8051  contract XPToken is ERC20, AccessControl, Pausable, ReentrancyGuard {... */\n      mload(0x40)\n        /* \"XPToken.sol\":5238:5277  MintOperationFailed(to, amount, reason) */\n      swap4\n      dup5\n      swap4\n      shl(0xe0, 0xe6921fc1)\n      dup6\n      mstore\n        /* \"XPToken.sol\":551:8051  contract XPToken is ERC20, AccessControl, Pausable, ReentrancyGuard {... */\n      0x04\n        /* \"XPToken.sol\":5238:5277  MintOperationFailed(to, amount, reason) */\n      dup6\n      add\n        /* \"XPToken.sol\":551:8051  contract XPToken is ERC20, AccessControl, Pausable, ReentrancyGuard {... */\n      mstore\n      0x24\n      dup5\n      add\n      mstore\n      0x60\n        /* \"XPToken.sol\":4994:5023  this._performMint(to, amount) */\n      0x44\n        /* \"XPToken.sol\":551:8051  contract XPToken is ERC20, AccessControl, Pausable, ReentrancyGuard {... */\n      dup5\n      add\n      mstore\n      0x64\n      dup4\n      add\n      swap1\n      tag_1\n      jump\t// in\n    tag_231:\n        /* \"XPToken.sol\":5238:5277  MintOperationFailed(to, amount, reason) */\n      sub\n      swap1\n      revert\n        /* \"XPToken.sol\":551:8051  contract XPToken is ERC20, AccessControl, Pausable, ReentrancyGuard {... */\n    tag_223:\n      swap1\n      pop\n      0x04\n      dup2\n      dup1\n      returndatacopy\n      mload\n      0xe0\n      shr\n      0x00\n      jump(tag_224)\n        /* \"XPToken.sol\":4990:5475  try this._performMint(to, amount) {... */\n    tag_221:\n        /* \"XPToken.sol\":551:8051  contract XPToken is ERC20, AccessControl, Pausable, ReentrancyGuard {... */\n      swap2\n      swap1\n      mload(0x40)\n      swap2\n      dup3\n      mstore\n        /* \"XPToken.sol\":5043:5079  TokensMinted(to, amount, msg.sender) */\n      0x969cd201f68f120baff2bf3c59bc3b534434e08b69a71a14ab85cb79cd3b63e4\n        /* \"XPToken.sol\":551:8051  contract XPToken is ERC20, AccessControl, Pausable, ReentrancyGuard {... */\n      0x20\n        /* \"@openzeppelin/contracts/utils/Context.sol\":735:745  msg.sender */\n      caller\n        /* \"XPToken.sol\":5043:5079  TokensMinted(to, amount, msg.sender) */\n      swap4\n      log3\n        /* \"XPToken.sol\":551:8051  contract XPToken is ERC20, AccessControl, Pausable, ReentrancyGuard {... */\n      0x01\n        /* \"@openzeppelin/contracts/utils/ReentrancyGuard.sol\":3068:3089  _status = NOT_ENTERED */\n      0x07\n        /* \"XPToken.sol\":551:8051  contract XPToken is ERC20, AccessControl, Pausable, ReentrancyGuard {... */\n      sstore\n      dup1\n      return\n        /* \"XPToken.sol\":4994:5023  this._performMint(to, amount) */\n    tag_219:\n      tag_233\n      swap2\n      swap3\n      pop\n        /* \"XPToken.sol\":551:8051  contract XPToken is ERC20, AccessControl, Pausable, ReentrancyGuard {... */\n      0x00\n        /* \"XPToken.sol\":4994:5023  this._performMint(to, amount) */\n      swap1\n      tag_4\n      jump\t// in\n    tag_233:\n        /* \"XPToken.sol\":551:8051  contract XPToken is ERC20, AccessControl, Pausable, ReentrancyGuard {... */\n      0x00\n        /* \"XPToken.sol\":4994:5023  this._performMint(to, amount) */\n      swap1\n      0x00\n      jump(tag_220)\n    tag_217:\n        /* \"XPToken.sol\":551:8051  contract XPToken is ERC20, AccessControl, Pausable, ReentrancyGuard {... */\n      0x00\n      dup1\n      revert\n        /* \"XPToken.sol\":4757:4872  if (newTotalSupply > maxSupply) {... */\n    tag_214:\n      shl(0xe0, 0x594a20b7)\n        /* \"XPToken.sol\":551:8051  contract XPToken is ERC20, AccessControl, Pausable, ReentrancyGuard {... */\n      0x00\n        /* \"XPToken.sol\":4810:4861  TotalSupplyLimitExceeded(newTotalSupply, maxSupply) */\n      swap1\n      dup2\n      mstore\n        /* \"XPToken.sol\":551:8051  contract XPToken is ERC20, AccessControl, Pausable, ReentrancyGuard {... */\n      0x04\n      swap2\n      swap1\n      swap2\n      mstore\n      mstore(0x24, sub(shl(0xff, 0x01), 0x01))\n      0x44\n      swap1\n        /* \"XPToken.sol\":4810:4861  TotalSupplyLimitExceeded(newTotalSupply, maxSupply) */\n      revert\n        /* \"XPToken.sol\":4435:4544  if (to == address(this)) {... */\n    tag_211:\n        /* \"XPToken.sol\":4481:4533  InvalidAddress(to, \"Cannot mint to contract itself\") */\n      0x84\n        /* \"XPToken.sol\":551:8051  contract XPToken is ERC20, AccessControl, Pausable, ReentrancyGuard {... */\n      dup3\n      mload(0x40)\n        /* \"XPToken.sol\":4481:4533  InvalidAddress(to, \"Cannot mint to contract itself\") */\n      swap1\n      shl(0xe0, 0xf7693c3d)\n      dup3\n      mstore\n        /* \"XPToken.sol\":551:8051  contract XPToken is ERC20, AccessControl, Pausable, ReentrancyGuard {... */\n      0x04\n        /* \"XPToken.sol\":4481:4533  InvalidAddress(to, \"Cannot mint to contract itself\") */\n      dup3\n      add\n        /* \"XPToken.sol\":551:8051  contract XPToken is ERC20, AccessControl, Pausable, ReentrancyGuard {... */\n      mstore\n      0x40\n      0x24\n      dup3\n      add\n      mstore\n      0x1e\n      0x44\n      dup3\n      add\n      mstore\n      0x43616e6e6f74206d696e7420746f20636f6e747261637420697473656c660000\n      0x64\n      dup3\n      add\n      mstore\n        /* \"XPToken.sol\":4481:4533  InvalidAddress(to, \"Cannot mint to contract itself\") */\n      revert\n        /* \"XPToken.sol\":4291:4352  if (amount == 0) {... */\n    tag_209:\n        /* \"XPToken.sol\":4329:4341  ZeroAmount() */\n      shl(0xe0, 0x1f2a2005)\n        /* \"XPToken.sol\":551:8051  contract XPToken is ERC20, AccessControl, Pausable, ReentrancyGuard {... */\n      0x00\n        /* \"XPToken.sol\":4329:4341  ZeroAmount() */\n      mstore\n        /* \"XPToken.sol\":551:8051  contract XPToken is ERC20, AccessControl, Pausable, ReentrancyGuard {... */\n      0x04\n      0x00\n        /* \"XPToken.sol\":4329:4341  ZeroAmount() */\n      revert\n        /* \"XPToken.sol\":4215:4282  if (to == address(0)) {... */\n    tag_207:\n        /* \"XPToken.sol\":4258:4271  ZeroAddress() */\n      shl(0xe0, 0xd92e233d)\n        /* \"XPToken.sol\":551:8051  contract XPToken is ERC20, AccessControl, Pausable, ReentrancyGuard {... */\n      0x00\n        /* \"XPToken.sol\":4258:4271  ZeroAddress() */\n      mstore\n        /* \"XPToken.sol\":551:8051  contract XPToken is ERC20, AccessControl, Pausable, ReentrancyGuard {... */\n      0x04\n      0x00\n        /* \"XPToken.sol\":4258:4271  ZeroAddress() */\n      revert\n        /* \"@openzeppelin/contracts/access/AccessControl.sol\":3515:3623  if (!hasRole(role, account)) {... */\n    tag_203:\n        /* \"@openzeppelin/contracts/access/AccessControl.sol\":3565:3612  AccessControlUnauthorizedAccount(account, role) */\n      shl(0xe0, 0xe2517d3f)\n        /* \"XPToken.sol\":551:8051  contract XPToken is ERC20, AccessControl, Pausable, ReentrancyGuard {... */\n      0x00\n        /* \"@openzeppelin/contracts/access/AccessControl.sol\":3565:3612  AccessControlUnauthorizedAccount(account, role) */\n      mstore\n        /* \"@openzeppelin/contracts/utils/Context.sol\":735:745  msg.sender */\n      caller\n        /* \"XPToken.sol\":551:8051  contract XPToken is ERC20, AccessControl, Pausable, ReentrancyGuard {... */\n      0x04\n      mstore\n        /* \"XPToken.sol\":711:735  keccak256(\"MINTER_ROLE\") */\n      0x9f2df0fed2c77648de5860a4cc508cd0818c85b8b8a1ab4ceeef8d981c8956a6\n        /* \"XPToken.sol\":551:8051  contract XPToken is ERC20, AccessControl, Pausable, ReentrancyGuard {... */\n      0x24\n      mstore\n      0x44\n      0x00\n        /* \"@openzeppelin/contracts/access/AccessControl.sol\":3565:3612  AccessControlUnauthorizedAccount(account, role) */\n      revert\n        /* \"XPToken.sol\":551:8051  contract XPToken is ERC20, AccessControl, Pausable, ReentrancyGuard {... */\n    tag_41:\n      jumpi(tag_217, callvalue)\n      jumpi(tag_217, slt(add(not(0x03), calldatasize), 0x00))\n        /* \"@openzeppelin/contracts/access/AccessControl.sol\":2475:2479  role */\n      tag_238\n      tag_10\n      jump\t// in\n    tag_238:\n        /* \"@openzeppelin/contracts/utils/Pausable.sol\":1796:1803  _paused */\n      0x06\n        /* \"XPToken.sol\":551:8051  contract XPToken is ERC20, AccessControl, Pausable, ReentrancyGuard {... */\n      sload\n      0xff\n      dup2\n      and\n        /* \"@openzeppelin/contracts/utils/Pausable.sol\":2140:2149  !paused() */\n      iszero\n        /* \"@openzeppelin/contracts/utils/Pausable.sol\":2136:2198  if (!paused()) {... */\n      tag_239\n      jumpi\n        /* \"XPToken.sol\":551:8051  contract XPToken is ERC20, AccessControl, Pausable, ReentrancyGuard {... */\n      not(0xff)\n      and\n        /* \"@openzeppelin/contracts/utils/Pausable.sol\":1796:1803  _paused */\n      0x06\n        /* \"XPToken.sol\":551:8051  contract XPToken is ERC20, AccessControl, Pausable, ReentrancyGuard {... */\n      sstore\n        /* \"@openzeppelin/contracts/utils/Pausable.sol\":2674:2696  Unpaused(_msgSender()) */\n      0x5db9ee0a495bf2e6ff9c91a7834c1ba4fdd244a5e8aa4e537bd38aeae4b073aa\n        /* \"XPToken.sol\":551:8051  contract XPToken is ERC20, AccessControl, Pausable, ReentrancyGuard {... */\n      0x20\n      mload(0x40)\n        /* \"@openzeppelin/contracts/utils/Context.sol\":735:745  msg.sender */\n      caller\n        /* \"XPToken.sol\":551:8051  contract XPToken is ERC20, AccessControl, Pausable, ReentrancyGuard {... */\n      dup2\n      mstore\n        /* \"@openzeppelin/contracts/utils/Pausable.sol\":2674:2696  Unpaused(_msgSender()) */\n      log1\n        /* \"XPToken.sol\":551:8051  contract XPToken is ERC20, AccessControl, Pausable, ReentrancyGuard {... */\n      stop\n        /* \"@openzeppelin/contracts/utils/Pausable.sol\":2136:2198  if (!paused()) {... */\n    tag_239:\n        /* \"@openzeppelin/contracts/utils/Pausable.sol\":2172:2187  ExpectedPause() */\n      shl(0xe0, 0x8dfc202b)\n        /* \"XPToken.sol\":551:8051  contract XPToken is ERC20, AccessControl, Pausable, ReentrancyGuard {... */\n      0x00\n        /* \"@openzeppelin/contracts/utils/Pausable.sol\":2172:2187  ExpectedPause() */\n      mstore\n        /* \"XPToken.sol\":551:8051  contract XPToken is ERC20, AccessControl, Pausable, ReentrancyGuard {... */\n      0x04\n      0x00\n        /* \"@openzeppelin/contracts/utils/Pausable.sol\":2172:2187  ExpectedPause() */\n      revert\n        /* \"XPToken.sol\":551:8051  contract XPToken is ERC20, AccessControl, Pausable, ReentrancyGuard {... */\n    tag_39:\n      jumpi(tag_217, callvalue)\n      jumpi(tag_217, slt(add(not(0x03), calldatasize), 0x40))\n      tag_245\n      tag_3\n      jump\t// in\n    tag_245:\n        /* \"@openzeppelin/contracts/utils/Context.sol\":735:745  msg.sender */\n      caller\n      sub(shl(0xa0, 0x01), 0x01)\n        /* \"XPToken.sol\":551:8051  contract XPToken is ERC20, AccessControl, Pausable, ReentrancyGuard {... */\n      dup3\n      and\n        /* \"@openzeppelin/contracts/access/AccessControl.sol\":5421:5455  callerConfirmation != _msgSender() */\n      sub\n        /* \"@openzeppelin/contracts/access/AccessControl.sol\":5417:5519  if (callerConfirmation != _msgSender()) {... */\n      tag_246\n      jumpi\n        /* \"@openzeppelin/contracts/access/AccessControl.sol\":5529:5566  _revokeRole(role, callerConfirmation) */\n      tag_248\n        /* \"XPToken.sol\":551:8051  contract XPToken is ERC20, AccessControl, Pausable, ReentrancyGuard {... */\n      swap1\n      calldataload(0x04)\n        /* \"@openzeppelin/contracts/access/AccessControl.sol\":5529:5566  _revokeRole(role, callerConfirmation) */\n      tag_13\n      jump\t// in\n    tag_248:\n        /* \"XPToken.sol\":551:8051  contract XPToken is ERC20, AccessControl, Pausable, ReentrancyGuard {... */\n      stop\n        /* \"@openzeppelin/contracts/access/AccessControl.sol\":5417:5519  if (callerConfirmation != _msgSender()) {... */\n    tag_246:\n        /* \"@openzeppelin/contracts/access/AccessControl.sol\":5478:5508  AccessControlBadConfirmation() */\n      shl(0xe1, 0x334bd919)\n        /* \"XPToken.sol\":551:8051  contract XPToken is ERC20, AccessControl, Pausable, ReentrancyGuard {... */\n      0x00\n        /* \"@openzeppelin/contracts/access/AccessControl.sol\":5478:5508  AccessControlBadConfirmation() */\n      mstore\n        /* \"XPToken.sol\":551:8051  contract XPToken is ERC20, AccessControl, Pausable, ReentrancyGuard {... */\n      0x04\n      0x00\n        /* \"@openzeppelin/contracts/access/AccessControl.sol\":5478:5508  AccessControlBadConfirmation() */\n      revert\n        /* \"XPToken.sol\":551:8051  contract XPToken is ERC20, AccessControl, Pausable, ReentrancyGuard {... */\n    tag_37:\n      jumpi(tag_217, callvalue)\n      jumpi(tag_217, slt(add(not(0x03), calldatasize), 0x00))\n      0x20\n        /* \"XPToken.sol\":963:995  uint256 public totalBurnedAmount */\n      0x09\n        /* \"XPToken.sol\":551:8051  contract XPToken is ERC20, AccessControl, Pausable, ReentrancyGuard {... */\n      sload\n      mload(0x40)\n      swap1\n      dup2\n      mstore\n      return\n    tag_35:\n      jumpi(tag_217, callvalue)\n      jumpi(tag_217, slt(add(not(0x03), calldatasize), 0x00))\n      0x20\n      mload(0x40)\n        /* \"@openzeppelin/contracts/token/ERC20/ERC20.sol\":2761:2763  18 */\n      0x12\n        /* \"XPToken.sol\":551:8051  contract XPToken is ERC20, AccessControl, Pausable, ReentrancyGuard {... */\n      dup2\n      mstore\n      return\n    tag_33:\n      jumpi(tag_217, callvalue)\n      jumpi(tag_217, slt(add(not(0x03), calldatasize), 0x40))\n        /* \"@openzeppelin/contracts/access/AccessControl.sol\":4330:4355  _grantRole(role, account) */\n      tag_248\n        /* \"XPToken.sol\":551:8051  contract XPToken is ERC20, AccessControl, Pausable, ReentrancyGuard {... */\n      calldataload(0x04)\n      tag_262\n      tag_3\n      jump\t// in\n    tag_262:\n        /* \"@openzeppelin/contracts/access/AccessControl.sol\":4300:4318  getRoleAdmin(role) */\n      swap1\n        /* \"@openzeppelin/contracts/access/AccessControl.sol\":2475:2479  role */\n      tag_263\n        /* \"@openzeppelin/contracts/access/AccessControl.sol\":4300:4318  getRoleAdmin(role) */\n      tag_96\n      dup3\n      0x00\n        /* \"XPToken.sol\":551:8051  contract XPToken is ERC20, AccessControl, Pausable, ReentrancyGuard {... */\n      mstore\n        /* \"@openzeppelin/contracts/access/AccessControl.sol\":3901:3907  _roles */\n      0x05\n        /* \"XPToken.sol\":551:8051  contract XPToken is ERC20, AccessControl, Pausable, ReentrancyGuard {... */\n      0x20\n      mstore\n        /* \"@openzeppelin/contracts/access/AccessControl.sol\":3901:3923  _roles[role].adminRole */\n      0x01\n        /* \"XPToken.sol\":551:8051  contract XPToken is ERC20, AccessControl, Pausable, ReentrancyGuard {... */\n      keccak256(0x00, 0x40)\n        /* \"@openzeppelin/contracts/access/AccessControl.sol\":3901:3923  _roles[role].adminRole */\n      add\n        /* \"XPToken.sol\":551:8051  contract XPToken is ERC20, AccessControl, Pausable, ReentrancyGuard {... */\n      sload\n        /* \"@openzeppelin/contracts/access/AccessControl.sol\":3810:3930  function getRoleAdmin(bytes32 role) public view virtual returns (bytes32) {... */\n      swap1\n      jump\n        /* \"@openzeppelin/contracts/access/AccessControl.sol\":2475:2479  role */\n    tag_263:\n        /* \"@openzeppelin/contracts/access/AccessControl.sol\":4330:4355  _grantRole(role, account) */\n      tag_12\n      jump\t// in\n        /* \"XPToken.sol\":551:8051  contract XPToken is ERC20, AccessControl, Pausable, ReentrancyGuard {... */\n    tag_31:\n      jumpi(tag_217, callvalue)\n      jumpi(tag_217, slt(add(not(0x03), calldatasize), 0x00))\n      0x20\n      mload(0x40)\n        /* \"XPToken.sol\":847:871  keccak256(\"BURNER_ROLE\") */\n      0x3c11d16cbaffd01df69ce1c404f6340ee057498f5f00246190ea54220576a848\n        /* \"XPToken.sol\":551:8051  contract XPToken is ERC20, AccessControl, Pausable, ReentrancyGuard {... */\n      dup2\n      mstore\n      return\n    tag_29:\n      jumpi(tag_217, callvalue)\n      jumpi(tag_217, slt(add(not(0x03), calldatasize), 0x20))\n      0x20\n      tag_273\n      mstore(0x00, calldataload(0x04))\n        /* \"@openzeppelin/contracts/access/AccessControl.sol\":3901:3907  _roles */\n      0x05\n        /* \"XPToken.sol\":551:8051  contract XPToken is ERC20, AccessControl, Pausable, ReentrancyGuard {... */\n      0x20\n      mstore\n        /* \"@openzeppelin/contracts/access/AccessControl.sol\":3901:3923  _roles[role].adminRole */\n      0x01\n        /* \"XPToken.sol\":551:8051  contract XPToken is ERC20, AccessControl, Pausable, ReentrancyGuard {... */\n      keccak256(0x00, 0x40)\n        /* \"@openzeppelin/contracts/access/AccessControl.sol\":3901:3923  _roles[role].adminRole */\n      add\n        /* \"XPToken.sol\":551:8051  contract XPToken is ERC20, AccessControl, Pausable, ReentrancyGuard {... */\n      sload\n        /* \"@openzeppelin/contracts/access/AccessControl.sol\":3810:3930  function getRoleAdmin(bytes32 role) public view virtual returns (bytes32) {... */\n      swap1\n      jump\n        /* \"XPToken.sol\":551:8051  contract XPToken is ERC20, AccessControl, Pausable, ReentrancyGuard {... */\n    tag_273:\n      mload(0x40)\n      swap1\n      dup2\n      mstore\n      return\n    tag_27:\n      jumpi(tag_217, callvalue)\n      jumpi(tag_217, slt(add(not(0x03), calldatasize), 0x60))\n      tag_278\n      tag_2\n      jump\t// in\n    tag_278:\n      tag_279\n      tag_3\n      jump\t// in\n    tag_279:\n      sub(shl(0xa0, 0x01), 0x01)\n      dup3\n      and\n      0x00\n      dup2\n      dup2\n      mstore\n      0x01\n      0x20\n      swap1\n      dup2\n      mstore\n      0x40\n      dup1\n      dup4\n      keccak256\n        /* \"@openzeppelin/contracts/utils/Context.sol\":735:745  msg.sender */\n      caller\n        /* \"XPToken.sol\":551:8051  contract XPToken is ERC20, AccessControl, Pausable, ReentrancyGuard {... */\n      dup5\n      mstore\n      swap1\n      swap2\n      mstore\n      swap1\n      keccak256\n      sload\n      swap1\n      swap3\n      calldataload(0x44)\n      swap3\n      swap2\n      not(0x00)\n        /* \"@openzeppelin/contracts/token/ERC20/ERC20.sol\":10561:10597  currentAllowance < type(uint256).max */\n      dup2\n      lt\n        /* \"@openzeppelin/contracts/token/ERC20/ERC20.sol\":10557:10866  if (currentAllowance < type(uint256).max) {... */\n      tag_280\n      jumpi\n        /* \"XPToken.sol\":551:8051  contract XPToken is ERC20, AccessControl, Pausable, ReentrancyGuard {... */\n    tag_281:\n        /* \"@openzeppelin/contracts/token/ERC20/ERC20.sol\":4967:4972  value */\n      pop\n      tag_120\n      swap4\n      pop\n      tag_9\n      jump\t// in\n        /* \"@openzeppelin/contracts/token/ERC20/ERC20.sol\":10557:10866  if (currentAllowance < type(uint256).max) {... */\n    tag_280:\n        /* \"@openzeppelin/contracts/token/ERC20/ERC20.sol\":10617:10641  currentAllowance < value */\n      dup4\n      dup2\n      lt\n        /* \"@openzeppelin/contracts/token/ERC20/ERC20.sol\":10613:10743  if (currentAllowance < value) {... */\n      tag_283\n      jumpi\n        /* \"@openzeppelin/contracts/token/ERC20/ERC20.sol\":9794:9813  owner == address(0) */\n      dup5\n      iszero\n        /* \"@openzeppelin/contracts/token/ERC20/ERC20.sol\":9790:9879  if (owner == address(0)) {... */\n      tag_285\n      jumpi\n        /* \"@openzeppelin/contracts/utils/Context.sol\":735:745  msg.sender */\n      caller\n        /* \"@openzeppelin/contracts/token/ERC20/ERC20.sol\":9892:9913  spender == address(0) */\n      iszero\n        /* \"@openzeppelin/contracts/token/ERC20/ERC20.sol\":9888:9978  if (spender == address(0)) {... */\n      tag_287\n      jumpi\n        /* \"@openzeppelin/contracts/token/ERC20/ERC20.sol\":4967:4972  value */\n      tag_120\n        /* \"XPToken.sol\":551:8051  contract XPToken is ERC20, AccessControl, Pausable, ReentrancyGuard {... */\n      swap5\n      0x00\n      mstore\n      mstore(0x20, 0x01)\n      keccak256(0x00, 0x40)\n      0x01\n      dup1\n      0xa0\n      shl\n      sub\n        /* \"@openzeppelin/contracts/utils/Context.sol\":735:745  msg.sender */\n      caller\n        /* \"XPToken.sol\":551:8051  contract XPToken is ERC20, AccessControl, Pausable, ReentrancyGuard {... */\n      and\n      0x00\n      mstore\n      0x20\n      mstore\n      dup4\n      keccak256(0x00, 0x40)\n      swap2\n      sub\n      swap1\n      sstore\n        /* \"@openzeppelin/contracts/token/ERC20/ERC20.sol\":10557:10866  if (currentAllowance < type(uint256).max) {... */\n      dup5\n      jump(tag_281)\n        /* \"@openzeppelin/contracts/token/ERC20/ERC20.sol\":9888:9978  if (spender == address(0)) {... */\n    tag_287:\n        /* \"@openzeppelin/contracts/token/ERC20/ERC20.sol\":9936:9967  ERC20InvalidSpender(address(0)) */\n      shl(0xe1, 0x4a1406b1)\n        /* \"XPToken.sol\":551:8051  contract XPToken is ERC20, AccessControl, Pausable, ReentrancyGuard {... */\n      0x00\n        /* \"@openzeppelin/contracts/token/ERC20/ERC20.sol\":9936:9967  ERC20InvalidSpender(address(0)) */\n      mstore\n        /* \"XPToken.sol\":551:8051  contract XPToken is ERC20, AccessControl, Pausable, ReentrancyGuard {... */\n      mstore(0x04, 0x00)\n      0x24\n      0x00\n        /* \"@openzeppelin/contracts/token/ERC20/ERC20.sol\":9936:9967  ERC20InvalidSpender(address(0)) */\n      revert\n        /* \"@openzeppelin/contracts/token/ERC20/ERC20.sol\":9790:9879  if (owner == address(0)) {... */\n    tag_285:\n        /* \"@openzeppelin/contracts/token/ERC20/ERC20.sol\":9836:9868  ERC20InvalidApprover(address(0)) */\n      shl(0xe0, 0xe602df05)\n        /* \"XPToken.sol\":551:8051  contract XPToken is ERC20, AccessControl, Pausable, ReentrancyGuard {... */\n      0x00\n        /* \"@openzeppelin/contracts/token/ERC20/ERC20.sol\":9836:9868  ERC20InvalidApprover(address(0)) */\n      mstore\n        /* \"XPToken.sol\":551:8051  contract XPToken is ERC20, AccessControl, Pausable, ReentrancyGuard {... */\n      mstore(0x04, 0x00)\n      0x24\n      0x00\n        /* \"@openzeppelin/contracts/token/ERC20/ERC20.sol\":9836:9868  ERC20InvalidApprover(address(0)) */\n      revert\n        /* \"@openzeppelin/contracts/token/ERC20/ERC20.sol\":10613:10743  if (currentAllowance < value) {... */\n    tag_283:\n        /* \"@openzeppelin/contracts/token/ERC20/ERC20.sol\":10668:10728  ERC20InsufficientAllowance(spender, currentAllowance, value) */\n      dup4\n      swap1\n      shl(0xe1, 0x7dc7a0d9)\n        /* \"XPToken.sol\":551:8051  contract XPToken is ERC20, AccessControl, Pausable, ReentrancyGuard {... */\n      0x00\n        /* \"@openzeppelin/contracts/token/ERC20/ERC20.sol\":10668:10728  ERC20InsufficientAllowance(spender, currentAllowance, value) */\n      mstore\n        /* \"@openzeppelin/contracts/utils/Context.sol\":735:745  msg.sender */\n      caller\n        /* \"XPToken.sol\":551:8051  contract XPToken is ERC20, AccessControl, Pausable, ReentrancyGuard {... */\n      0x04\n      mstore\n      0x24\n      mstore\n      0x44\n      mstore\n      0x64\n      0x00\n        /* \"@openzeppelin/contracts/token/ERC20/ERC20.sol\":10668:10728  ERC20InsufficientAllowance(spender, currentAllowance, value) */\n      revert\n        /* \"XPToken.sol\":551:8051  contract XPToken is ERC20, AccessControl, Pausable, ReentrancyGuard {... */\n    tag_25:\n      jumpi(tag_217, callvalue)\n      jumpi(tag_217, slt(add(not(0x03), calldatasize), 0x00))\n      0x20\n        /* \"@openzeppelin/contracts/token/ERC20/ERC20.sol\":2908:2920  _totalSupply */\n      0x02\n        /* \"XPToken.sol\":551:8051  contract XPToken is ERC20, AccessControl, Pausable, ReentrancyGuard {... */\n      sload\n      mload(0x40)\n      swap1\n      dup2\n      mstore\n      return\n    tag_23:\n      jumpi(tag_217, callvalue)\n      jumpi(tag_217, slt(add(not(0x03), calldatasize), 0x40))\n      tag_297\n      tag_2\n      jump\t// in\n    tag_297:\n      calldataload(0x24)\n        /* \"@openzeppelin/contracts/utils/Context.sol\":735:745  msg.sender */\n      swap1\n      caller\n        /* \"@openzeppelin/contracts/token/ERC20/ERC20.sol\":9794:9813  owner == address(0) */\n      iszero\n        /* \"@openzeppelin/contracts/token/ERC20/ERC20.sol\":9790:9879  if (owner == address(0)) {... */\n      tag_285\n      jumpi\n      sub(shl(0xa0, 0x01), 0x01)\n        /* \"XPToken.sol\":551:8051  contract XPToken is ERC20, AccessControl, Pausable, ReentrancyGuard {... */\n      and\n      swap1\n        /* \"@openzeppelin/contracts/token/ERC20/ERC20.sol\":9892:9913  spender == address(0) */\n      dup2\n      iszero\n        /* \"@openzeppelin/contracts/token/ERC20/ERC20.sol\":9888:9978  if (spender == address(0)) {... */\n      tag_287\n      jumpi\n        /* \"@openzeppelin/contracts/utils/Context.sol\":735:745  msg.sender */\n      caller\n        /* \"XPToken.sol\":551:8051  contract XPToken is ERC20, AccessControl, Pausable, ReentrancyGuard {... */\n      0x00\n      mstore\n      mstore(0x20, 0x01)\n      keccak256(0x00, 0x40)\n      dup3\n      0x00\n      mstore\n      0x20\n      mstore\n      dup1\n      keccak256(0x00, 0x40)\n      sstore\n      mload(0x40)\n      swap1\n      dup2\n      mstore\n        /* \"@openzeppelin/contracts/token/ERC20/ERC20.sol\":10066:10097  Approval(owner, spender, value) */\n      0x8c5be1e5ebec7d5bd14f71427d1e84f3dd0314c0f7b2291e5b200ac8c7c3b925\n        /* \"XPToken.sol\":551:8051  contract XPToken is ERC20, AccessControl, Pausable, ReentrancyGuard {... */\n      0x20\n        /* \"@openzeppelin/contracts/utils/Context.sol\":735:745  msg.sender */\n      caller\n        /* \"@openzeppelin/contracts/token/ERC20/ERC20.sol\":10066:10097  Approval(owner, spender, value) */\n      swap3\n      log3\n        /* \"XPToken.sol\":551:8051  contract XPToken is ERC20, AccessControl, Pausable, ReentrancyGuard {... */\n      0x20\n      mload(0x40)\n      0x01\n      dup2\n      mstore\n      return\n    tag_21:\n      jumpi(tag_217, callvalue)\n      jumpi(tag_217, slt(add(not(0x03), calldatasize), 0x00))\n      mload(0x40)\n      0x00\n        /* \"@openzeppelin/contracts/token/ERC20/ERC20.sol\":1837:1842  _name */\n      0x03\n        /* \"XPToken.sol\":551:8051  contract XPToken is ERC20, AccessControl, Pausable, ReentrancyGuard {... */\n      sload\n      dup1\n      0x01\n      shr\n      swap1\n      0x01\n      dup2\n      and\n      dup1\n      iszero\n      tag_306\n      jumpi\n    tag_307:\n      0x20\n      dup4\n      lt\n      dup2\n      eq\n      tag_308\n      jumpi\n      dup3\n      dup6\n      mstore\n      swap1\n      dup2\n      iszero\n      tag_310\n      jumpi\n      pop\n      0x01\n      eq\n      tag_312\n      jumpi\n    tag_313:\n      tag_142\n      dup4\n      tag_143\n      dup2\n      dup6\n      sub\n      dup3\n      tag_4\n      jump\t// in\n    tag_312:\n      swap2\n      swap1\n      pop\n        /* \"@openzeppelin/contracts/token/ERC20/ERC20.sol\":1837:1842  _name */\n      0x03\n        /* \"XPToken.sol\":551:8051  contract XPToken is ERC20, AccessControl, Pausable, ReentrancyGuard {... */\n      0x00\n      mstore\n      0xc2575a0e9e593c00f959f8c92f12db2869c3395a3b0502d05e2516446f71f85b\n      swap2\n      0x00\n      swap1\n    tag_316:\n      dup1\n      dup3\n      lt\n      tag_317\n      jumpi\n      pop\n      swap1\n      swap2\n      pop\n      dup2\n      add\n      0x20\n      add\n      tag_143\n      jump(tag_313)\n    tag_317:\n      swap2\n      swap3\n      0x01\n      dup2\n      0x20\n      swap3\n      sload\n      dup4\n      dup6\n      dup9\n      add\n      add\n      mstore\n      add\n      swap2\n      add\n      swap1\n      swap3\n      swap2\n      jump(tag_316)\n    tag_310:\n      not(0xff)\n      and\n      0x20\n      dup1\n      dup7\n      add\n      swap2\n      swap1\n      swap2\n      mstore\n      swap2\n      iszero\n      iszero\n      0x05\n      shl\n      dup5\n      add\n      swap1\n      swap2\n      add\n      swap2\n      pop\n      tag_143\n      swap1\n      pop\n      jump(tag_313)\n    tag_308:\n      mstore(0x00, shl(0xe0, 0x4e487b71))\n      mstore(0x04, 0x22)\n      revert(0x00, 0x24)\n    tag_306:\n      swap2\n      0x7f\n      and\n      swap2\n      jump(tag_307)\n    tag_19:\n      jumpi(tag_217, callvalue)\n      jumpi(tag_217, slt(add(not(0x03), calldatasize), 0x20))\n      calldataload(0x04)\n      swap1\n      shl(0xe0, 0xffffffff)\n      dup3\n      and\n      dup1\n      swap3\n      sub\n      tag_217\n      jumpi\n      0x20\n      swap2\n      shl(0xe0, 0x7965db0b)\n        /* \"@openzeppelin/contracts/access/AccessControl.sol\":2673:2720  interfaceId == type(IAccessControl).interfaceId */\n      dup2\n      eq\n      swap1\n        /* \"@openzeppelin/contracts/access/AccessControl.sol\":2673:2760  interfaceId == type(IAccessControl).interfaceId || super.supportsInterface(interfaceId) */\n      dup2\n      iszero\n      tag_325\n      jumpi\n        /* \"XPToken.sol\":551:8051  contract XPToken is ERC20, AccessControl, Pausable, ReentrancyGuard {... */\n    tag_326:\n      pop\n      iszero\n      iszero\n      dup2\n      mstore\n      return\n        /* \"@openzeppelin/contracts/access/AccessControl.sol\":2673:2760  interfaceId == type(IAccessControl).interfaceId || super.supportsInterface(interfaceId) */\n    tag_325:\n      shl(0xe0, 0x01ffc9a7)\n        /* \"@openzeppelin/contracts/utils/introspection/ERC165.sol\":862:902  interfaceId == type(IERC165).interfaceId */\n      eq\n      swap1\n      pop\n        /* \"@openzeppelin/contracts/access/AccessControl.sol\":2673:2760  interfaceId == type(IAccessControl).interfaceId || super.supportsInterface(interfaceId) */\n      dup4\n      jump(tag_326)\n        /* \"XPToken.sol\":551:8051  contract XPToken is ERC20, AccessControl, Pausable, ReentrancyGuard {... */\n    tag_1:\n      dup1\n      mload\n      dup1\n      dup4\n      mstore\n      0x20\n      swap3\n      swap2\n      dup2\n      swap1\n      dup5\n      add\n      dup5\n      dup5\n      add\n      mcopy\n      0x00\n      dup3\n      dup3\n      add\n      dup5\n      add\n      mstore\n      0x1f\n      add\n      not(0x1f)\n      and\n      add\n      add\n      swap1\n      jump\t// out\n    tag_2:\n      calldataload(0x04)\n      swap1\n      sub(shl(0xa0, 0x01), 0x01)\n      dup3\n      and\n      dup3\n      sub\n      tag_217\n      jumpi\n      jump\t// out\n    tag_3:\n      calldataload(0x24)\n      swap1\n      sub(shl(0xa0, 0x01), 0x01)\n      dup3\n      and\n      dup3\n      sub\n      tag_217\n      jumpi\n      jump\t// out\n    tag_4:\n      swap1\n      0x1f\n      dup1\n      not\n      swap2\n      add\n      and\n      dup2\n      add\n      swap1\n      dup2\n      lt\n      0xffffffffffffffff\n      dup3\n      gt\n      or\n      tag_331\n      jumpi\n      0x40\n      mstore\n      jump\t// out\n    tag_331:\n      mstore(0x00, shl(0xe0, 0x4e487b71))\n      mstore(0x04, 0x41)\n      revert(0x00, 0x24)\n    tag_6:\n      swap2\n      swap1\n      dup3\n      add\n      dup1\n      swap3\n      gt\n      tag_333\n      jumpi\n      jump\t// out\n    tag_333:\n      mstore(0x00, shl(0xe0, 0x4e487b71))\n      mstore(0x04, 0x11)\n      revert(0x00, 0x24)\n    tag_7:\n      0x00\n      jumpi(tag_343, lt(returndatasize, 0x44))\n      mload(0x40)\n      add(not(0x03), returndatasize)\n      0x04\n      dup3\n      returndatacopy\n      dup1\n      mload\n      swap2\n      returndatasize\n      0x24\n      dup5\n      add\n      gt\n      0xffffffffffffffff\n      dup5\n      gt\n      or\n      tag_337\n      jumpi\n      dup3\n      dup3\n      add\n      swap3\n      dup4\n      mload\n      swap2\n      0xffffffffffffffff\n      dup4\n      gt\n      tag_341\n      jumpi\n      returndatasize\n      dup5\n      add\n      not(0x03)\n      add\n      dup6\n      dup5\n      add\n      0x20\n      add\n      gt\n      tag_341\n      jumpi\n      pop\n      tag_343\n      swap3\n      swap2\n      add\n      0x20\n      add\n      swap1\n      tag_4\n      jump\t// in\n    tag_343:\n      swap1\n      jump\t// out\n    tag_341:\n      swap5\n      swap4\n      pop\n      pop\n      pop\n      pop\n      jump\t// out\n    tag_337:\n      swap3\n      swap2\n      pop\n      pop\n      jump\t// out\n    tag_8:\n      swap2\n      swap1\n      dup3\n      sub\n      swap2\n      dup3\n      gt\n      tag_333\n      jumpi\n      jump\t// out\n        /* \"@openzeppelin/contracts/token/ERC20/ERC20.sol\":5374:5674  function _transfer(address from, address to, uint256 value) internal {... */\n    tag_9:\n      sub(shl(0xa0, 0x01), 0x01)\n        /* \"XPToken.sol\":551:8051  contract XPToken is ERC20, AccessControl, Pausable, ReentrancyGuard {... */\n      and\n      swap1\n        /* \"@openzeppelin/contracts/token/ERC20/ERC20.sol\":5457:5475  from == address(0) */\n      dup2\n      iszero\n        /* \"@openzeppelin/contracts/token/ERC20/ERC20.sol\":5453:5539  if (from == address(0)) {... */\n      tag_346\n      jumpi\n      sub(shl(0xa0, 0x01), 0x01)\n        /* \"XPToken.sol\":551:8051  contract XPToken is ERC20, AccessControl, Pausable, ReentrancyGuard {... */\n      and\n      swap2\n        /* \"@openzeppelin/contracts/token/ERC20/ERC20.sol\":5552:5568  to == address(0) */\n      dup3\n      iszero\n        /* \"@openzeppelin/contracts/token/ERC20/ERC20.sol\":5548:5634  if (to == address(0)) {... */\n      tag_348\n      jumpi\n        /* \"@openzeppelin/contracts/utils/Pausable.sol\":1315:1387  modifier whenNotPaused() {... */\n      tag_350\n      tag_14\n      jump\t// in\n    tag_350:\n        /* \"XPToken.sol\":551:8051  contract XPToken is ERC20, AccessControl, Pausable, ReentrancyGuard {... */\n      dup2\n        /* \"@openzeppelin/contracts/token/ERC20/ERC20.sol\":5473:5474  0 */\n      0x00\n        /* \"XPToken.sol\":551:8051  contract XPToken is ERC20, AccessControl, Pausable, ReentrancyGuard {... */\n      mstore\n        /* \"@openzeppelin/contracts/token/ERC20/ERC20.sol\":5473:5474  0 */\n      0x00\n        /* \"XPToken.sol\":551:8051  contract XPToken is ERC20, AccessControl, Pausable, ReentrancyGuard {... */\n      0x20\n      mstore\n      0x40\n        /* \"@openzeppelin/contracts/token/ERC20/ERC20.sol\":5473:5474  0 */\n      0x00\n        /* \"XPToken.sol\":551:8051  contract XPToken is ERC20, AccessControl, Pausable, ReentrancyGuard {... */\n      keccak256\n      sload\n        /* \"@openzeppelin/contracts/token/ERC20/ERC20.sol\":6321:6340  fromBalance < value */\n      dup2\n      dup2\n      lt\n        /* \"@openzeppelin/contracts/token/ERC20/ERC20.sol\":6317:6432  if (fromBalance < value) {... */\n      tag_351\n      jumpi\n        /* \"XPToken.sol\":551:8051  contract XPToken is ERC20, AccessControl, Pausable, ReentrancyGuard {... */\n      dup2\n        /* \"@openzeppelin/contracts/token/ERC20/ERC20.sol\":7064:7089  Transfer(from, to, value) */\n      0xddf252ad1be2c89b69c2b068fc378daa952ba7f163c4a11628f55a4df523b3ef\n        /* \"XPToken.sol\":551:8051  contract XPToken is ERC20, AccessControl, Pausable, ReentrancyGuard {... */\n      swap3\n      0x20\n      swap3\n      dup6\n        /* \"@openzeppelin/contracts/token/ERC20/ERC20.sol\":5473:5474  0 */\n      0x00\n        /* \"XPToken.sol\":551:8051  contract XPToken is ERC20, AccessControl, Pausable, ReentrancyGuard {... */\n      mstore\n        /* \"@openzeppelin/contracts/token/ERC20/ERC20.sol\":5473:5474  0 */\n      0x00\n        /* \"XPToken.sol\":551:8051  contract XPToken is ERC20, AccessControl, Pausable, ReentrancyGuard {... */\n      dup5\n      mstore\n      sub\n      0x40\n        /* \"@openzeppelin/contracts/token/ERC20/ERC20.sol\":5473:5474  0 */\n      0x00\n        /* \"XPToken.sol\":551:8051  contract XPToken is ERC20, AccessControl, Pausable, ReentrancyGuard {... */\n      keccak256\n      sstore\n      dup5\n        /* \"@openzeppelin/contracts/token/ERC20/ERC20.sol\":5473:5474  0 */\n      0x00\n        /* \"XPToken.sol\":551:8051  contract XPToken is ERC20, AccessControl, Pausable, ReentrancyGuard {... */\n      mstore\n        /* \"@openzeppelin/contracts/token/ERC20/ERC20.sol\":5473:5474  0 */\n      0x00\n        /* \"XPToken.sol\":551:8051  contract XPToken is ERC20, AccessControl, Pausable, ReentrancyGuard {... */\n      dup3\n      mstore\n      0x40\n        /* \"@openzeppelin/contracts/token/ERC20/ERC20.sol\":5473:5474  0 */\n      0x00\n        /* \"XPToken.sol\":551:8051  contract XPToken is ERC20, AccessControl, Pausable, ReentrancyGuard {... */\n      keccak256\n      dup2\n      dup2\n      sload\n      add\n      swap1\n      sstore\n      mload(0x40)\n      swap1\n      dup2\n      mstore\n        /* \"@openzeppelin/contracts/token/ERC20/ERC20.sol\":7064:7089  Transfer(from, to, value) */\n      log3\n        /* \"@openzeppelin/contracts/token/ERC20/ERC20.sol\":5374:5674  function _transfer(address from, address to, uint256 value) internal {... */\n      jump\t// out\n        /* \"@openzeppelin/contracts/token/ERC20/ERC20.sol\":6317:6432  if (fromBalance < value) {... */\n    tag_351:\n        /* \"@openzeppelin/contracts/token/ERC20/ERC20.sol\":6367:6417  ERC20InsufficientBalance(from, fromBalance, value) */\n      dup3\n      shl(0xe2, 0x391434e3)\n        /* \"@openzeppelin/contracts/token/ERC20/ERC20.sol\":5473:5474  0 */\n      0x00\n        /* \"@openzeppelin/contracts/token/ERC20/ERC20.sol\":6367:6417  ERC20InsufficientBalance(from, fromBalance, value) */\n      mstore\n      0x04\n        /* \"XPToken.sol\":551:8051  contract XPToken is ERC20, AccessControl, Pausable, ReentrancyGuard {... */\n      mstore\n      0x24\n      mstore\n      0x44\n      mstore\n      0x64\n        /* \"@openzeppelin/contracts/token/ERC20/ERC20.sol\":5473:5474  0 */\n      0x00\n        /* \"@openzeppelin/contracts/token/ERC20/ERC20.sol\":6367:6417  ERC20InsufficientBalance(from, fromBalance, value) */\n      revert\n        /* \"@openzeppelin/contracts/token/ERC20/ERC20.sol\":5548:5634  if (to == address(0)) {... */\n    tag_348:\n        /* \"@openzeppelin/contracts/token/ERC20/ERC20.sol\":7553:7585  ERC20InvalidReceiver(address(0)) */\n      shl(0xe0, 0xec442f05)\n        /* \"@openzeppelin/contracts/token/ERC20/ERC20.sol\":5473:5474  0 */\n      0x00\n        /* \"@openzeppelin/contracts/token/ERC20/ERC20.sol\":5591:5623  ERC20InvalidReceiver(address(0)) */\n      mstore\n        /* \"@openzeppelin/contracts/token/ERC20/ERC20.sol\":5473:5474  0 */\n      0x00\n        /* \"@openzeppelin/contracts/token/ERC20/ERC20.sol\":5591:5623  ERC20InvalidReceiver(address(0)) */\n      0x04\n        /* \"XPToken.sol\":551:8051  contract XPToken is ERC20, AccessControl, Pausable, ReentrancyGuard {... */\n      mstore\n      0x24\n        /* \"@openzeppelin/contracts/token/ERC20/ERC20.sol\":5473:5474  0 */\n      0x00\n        /* \"@openzeppelin/contracts/token/ERC20/ERC20.sol\":5591:5623  ERC20InvalidReceiver(address(0)) */\n      revert\n        /* \"@openzeppelin/contracts/token/ERC20/ERC20.sol\":5453:5539  if (from == address(0)) {... */\n    tag_346:\n        /* \"@openzeppelin/contracts/token/ERC20/ERC20.sol\":5498:5528  ERC20InvalidSender(address(0)) */\n      shl(0xe1, 0x4b637e8f)\n        /* \"@openzeppelin/contracts/token/ERC20/ERC20.sol\":5473:5474  0 */\n      0x00\n        /* \"@openzeppelin/contracts/token/ERC20/ERC20.sol\":5498:5528  ERC20InvalidSender(address(0)) */\n      mstore\n        /* \"@openzeppelin/contracts/token/ERC20/ERC20.sol\":5473:5474  0 */\n      0x00\n        /* \"@openzeppelin/contracts/token/ERC20/ERC20.sol\":5498:5528  ERC20InvalidSender(address(0)) */\n      0x04\n        /* \"XPToken.sol\":551:8051  contract XPToken is ERC20, AccessControl, Pausable, ReentrancyGuard {... */\n      mstore\n      0x24\n        /* \"@openzeppelin/contracts/token/ERC20/ERC20.sol\":5473:5474  0 */\n      0x00\n        /* \"@openzeppelin/contracts/token/ERC20/ERC20.sol\":5498:5528  ERC20InvalidSender(address(0)) */\n      revert\n        /* \"@openzeppelin/contracts/access/AccessControl.sol\":3199:3302  function _checkRole(bytes32 role) internal view virtual {... */\n    tag_10:\n        /* \"@openzeppelin/contracts/utils/Context.sol\":735:745  msg.sender */\n      caller\n      0x00\n        /* \"XPToken.sol\":551:8051  contract XPToken is ERC20, AccessControl, Pausable, ReentrancyGuard {... */\n      swap1\n      dup2\n      mstore\n      mstore(0x20, 0x99f2891db7a8db76249871a02b43b68c0bb8f22ef8a3bc1034ae9375ef6b7c3c)\n      0x40\n      swap1\n      keccak256\n      sload\n      0xff\n      and\n        /* \"@openzeppelin/contracts/access/AccessControl.sol\":3519:3542  !hasRole(role, account) */\n      iszero\n        /* \"@openzeppelin/contracts/access/AccessControl.sol\":3515:3623  if (!hasRole(role, account)) {... */\n      tag_353\n      jumpi\n        /* \"@openzeppelin/contracts/access/AccessControl.sol\":3199:3302  function _checkRole(bytes32 role) internal view virtual {... */\n      jump\t// out\n        /* \"@openzeppelin/contracts/access/AccessControl.sol\":3515:3623  if (!hasRole(role, account)) {... */\n    tag_353:\n        /* \"@openzeppelin/contracts/access/AccessControl.sol\":3565:3612  AccessControlUnauthorizedAccount(account, role) */\n      mstore(0x00, shl(0xe0, 0xe2517d3f))\n        /* \"@openzeppelin/contracts/utils/Context.sol\":735:745  msg.sender */\n      caller\n        /* \"@openzeppelin/contracts/access/AccessControl.sol\":3565:3612  AccessControlUnauthorizedAccount(account, role) */\n      0x04\n        /* \"XPToken.sol\":551:8051  contract XPToken is ERC20, AccessControl, Pausable, ReentrancyGuard {... */\n      mstore\n        /* \"XPToken.sol\":779:803  keccak256(\"PAUSER_ROLE\") */\n      0x65d7a28e3265b37a6474929f336521b332c1681b933f6cb9f3376673440d862a\n        /* \"XPToken.sol\":551:8051  contract XPToken is ERC20, AccessControl, Pausable, ReentrancyGuard {... */\n      0x24\n      mstore\n      0x44\n      0x00\n        /* \"@openzeppelin/contracts/access/AccessControl.sol\":3565:3612  AccessControlUnauthorizedAccount(account, role) */\n      revert\n        /* \"@openzeppelin/contracts/access/AccessControl.sol\":3199:3302  function _checkRole(bytes32 role) internal view virtual {... */\n    tag_11:\n      0x00\n        /* \"XPToken.sol\":551:8051  contract XPToken is ERC20, AccessControl, Pausable, ReentrancyGuard {... */\n      dup2\n      dup2\n      mstore\n        /* \"@openzeppelin/contracts/access/AccessControl.sol\":2954:2960  _roles */\n      0x05\n        /* \"XPToken.sol\":551:8051  contract XPToken is ERC20, AccessControl, Pausable, ReentrancyGuard {... */\n      0x20\n      swap1\n      dup2\n      mstore\n      0x40\n      dup1\n      dup4\n      keccak256\n        /* \"@openzeppelin/contracts/utils/Context.sol\":735:745  msg.sender */\n      caller\n        /* \"XPToken.sol\":551:8051  contract XPToken is ERC20, AccessControl, Pausable, ReentrancyGuard {... */\n      dup5\n      mstore\n      swap1\n      swap2\n      mstore\n      swap1\n      keccak256\n      sload\n      0xff\n      and\n        /* \"@openzeppelin/contracts/access/AccessControl.sol\":3519:3542  !hasRole(role, account) */\n      iszero\n        /* \"@openzeppelin/contracts/access/AccessControl.sol\":3515:3623  if (!hasRole(role, account)) {... */\n      tag_355\n      jumpi\n        /* \"@openzeppelin/contracts/access/AccessControl.sol\":3199:3302  function _checkRole(bytes32 role) internal view virtual {... */\n      pop\n      jump\t// out\n        /* \"@openzeppelin/contracts/access/AccessControl.sol\":3515:3623  if (!hasRole(role, account)) {... */\n    tag_355:\n        /* \"@openzeppelin/contracts/access/AccessControl.sol\":3565:3612  AccessControlUnauthorizedAccount(account, role) */\n      mstore(0x00, shl(0xe0, 0xe2517d3f))\n        /* \"@openzeppelin/contracts/utils/Context.sol\":735:745  msg.sender */\n      caller\n        /* \"@openzeppelin/contracts/access/AccessControl.sol\":3565:3612  AccessControlUnauthorizedAccount(account, role) */\n      0x04\n        /* \"XPToken.sol\":551:8051  contract XPToken is ERC20, AccessControl, Pausable, ReentrancyGuard {... */\n      mstore\n      0x24\n      mstore\n      0x44\n      0x00\n        /* \"@openzeppelin/contracts/access/AccessControl.sol\":3565:3612  AccessControlUnauthorizedAccount(account, role) */\n      revert\n        /* \"@openzeppelin/contracts/access/AccessControl.sol\":6179:6495  function _grantRole(bytes32 role, address account) internal virtual returns (bool) {... */\n    tag_12:\n        /* \"XPToken.sol\":551:8051  contract XPToken is ERC20, AccessControl, Pausable, ReentrancyGuard {... */\n      0x00\n      dup2\n      dup2\n      mstore\n        /* \"@openzeppelin/contracts/access/AccessControl.sol\":2954:2960  _roles */\n      0x05\n        /* \"XPToken.sol\":551:8051  contract XPToken is ERC20, AccessControl, Pausable, ReentrancyGuard {... */\n      0x20\n      swap1\n      dup2\n      mstore\n      0x40\n      dup1\n      dup4\n      keccak256\n      sub(shl(0xa0, 0x01), 0x01)\n      dup7\n      and\n      dup5\n      mstore\n      swap1\n      swap2\n      mstore\n      swap1\n      keccak256\n      sload\n      0xff\n      and\n      tag_357\n      jumpi\n      0x00\n      dup2\n      dup2\n      mstore\n        /* \"@openzeppelin/contracts/access/AccessControl.sol\":2954:2960  _roles */\n      0x05\n        /* \"XPToken.sol\":551:8051  contract XPToken is ERC20, AccessControl, Pausable, ReentrancyGuard {... */\n      0x20\n      swap1\n      dup2\n      mstore\n      0x40\n      dup1\n      dup4\n      keccak256\n      sub(shl(0xa0, 0x01), 0x01)\n      swap6\n      swap1\n      swap6\n      and\n      dup1\n      dup5\n      mstore\n      swap5\n      swap1\n      swap2\n      mstore\n      dup2\n      keccak256\n      dup1\n      sload\n      not(0xff)\n      and\n      0x01\n      or\n      swap1\n      sstore\n        /* \"@openzeppelin/contracts/utils/Context.sol\":735:745  msg.sender */\n      caller\n      swap3\n        /* \"XPToken.sol\":551:8051  contract XPToken is ERC20, AccessControl, Pausable, ReentrancyGuard {... */\n      swap2\n      swap1\n        /* \"@openzeppelin/contracts/access/AccessControl.sol\":6370:6410  RoleGranted(role, account, _msgSender()) */\n      0x2f8788117e7eff1d82e926ec794901d17c78024a50270940304540a733656f0d\n      swap1\n        /* \"XPToken.sol\":551:8051  contract XPToken is ERC20, AccessControl, Pausable, ReentrancyGuard {... */\n      dup1\n        /* \"@openzeppelin/contracts/access/AccessControl.sol\":6370:6410  RoleGranted(role, account, _msgSender()) */\n      log4\n        /* \"@openzeppelin/contracts/access/AccessControl.sol\":6347:6351  true */\n      0x01\n        /* \"@openzeppelin/contracts/access/AccessControl.sol\":6424:6435  return true */\n      swap1\n      jump\t// out\n        /* \"@openzeppelin/contracts/access/AccessControl.sol\":6272:6489  if (!hasRole(role, account)) {... */\n    tag_357:\n        /* \"@openzeppelin/contracts/access/AccessControl.sol\":6466:6478  return false */\n      pop\n      pop\n        /* \"XPToken.sol\":551:8051  contract XPToken is ERC20, AccessControl, Pausable, ReentrancyGuard {... */\n      0x00\n        /* \"@openzeppelin/contracts/access/AccessControl.sol\":6466:6478  return false */\n      swap1\n      jump\t// out\n        /* \"@openzeppelin/contracts/access/AccessControl.sol\":6732:7049  function _revokeRole(bytes32 role, address account) internal virtual returns (bool) {... */\n    tag_13:\n        /* \"XPToken.sol\":551:8051  contract XPToken is ERC20, AccessControl, Pausable, ReentrancyGuard {... */\n      0x00\n      dup2\n      dup2\n      mstore\n        /* \"@openzeppelin/contracts/access/AccessControl.sol\":2954:2960  _roles */\n      0x05\n        /* \"XPToken.sol\":551:8051  contract XPToken is ERC20, AccessControl, Pausable, ReentrancyGuard {... */\n      0x20\n      swap1\n      dup2\n      mstore\n      0x40\n      dup1\n      dup4\n      keccak256\n      sub(shl(0xa0, 0x01), 0x01)\n      dup7\n      and\n      dup5\n      mstore\n      swap1\n      swap2\n      mstore\n      swap1\n      keccak256\n      sload\n      0xff\n      and\n      iszero\n      tag_357\n      jumpi\n      0x00\n      dup2\n      dup2\n      mstore\n        /* \"@openzeppelin/contracts/access/AccessControl.sol\":2954:2960  _roles */\n      0x05\n        /* \"XPToken.sol\":551:8051  contract XPToken is ERC20, AccessControl, Pausable, ReentrancyGuard {... */\n      0x20\n      swap1\n      dup2\n      mstore\n      0x40\n      dup1\n      dup4\n      keccak256\n      sub(shl(0xa0, 0x01), 0x01)\n      swap6\n      swap1\n      swap6\n      and\n      dup1\n      dup5\n      mstore\n      swap5\n      swap1\n      swap2\n      mstore\n      dup2\n      keccak256\n      dup1\n      sload\n      not(0xff)\n      and\n      swap1\n      sstore\n        /* \"@openzeppelin/contracts/utils/Context.sol\":735:745  msg.sender */\n      caller\n      swap3\n        /* \"XPToken.sol\":551:8051  contract XPToken is ERC20, AccessControl, Pausable, ReentrancyGuard {... */\n      swap2\n      swap1\n        /* \"@openzeppelin/contracts/access/AccessControl.sol\":6924:6964  RoleRevoked(role, account, _msgSender()) */\n      0xf6391f5c32d9c69d2a47ea670b442974b53935d1edc7fd64eb21e047a839171b\n      swap1\n        /* \"XPToken.sol\":551:8051  contract XPToken is ERC20, AccessControl, Pausable, ReentrancyGuard {... */\n      dup1\n        /* \"@openzeppelin/contracts/access/AccessControl.sol\":6924:6964  RoleRevoked(role, account, _msgSender()) */\n      log4\n        /* \"XPToken.sol\":551:8051  contract XPToken is ERC20, AccessControl, Pausable, ReentrancyGuard {... */\n      0x01\n        /* \"@openzeppelin/contracts/access/AccessControl.sol\":6978:6989  return true */\n      swap1\n      jump\t// out\n        /* \"@openzeppelin/contracts/utils/Pausable.sol\":1878:2006  function _requireNotPaused() internal view virtual {... */\n    tag_14:\n        /* \"XPToken.sol\":551:8051  contract XPToken is ERC20, AccessControl, Pausable, ReentrancyGuard {... */\n      0xff\n        /* \"@openzeppelin/contracts/utils/Pausable.sol\":1796:1803  _paused */\n      0x06\n        /* \"XPToken.sol\":551:8051  contract XPToken is ERC20, AccessControl, Pausable, ReentrancyGuard {... */\n      sload\n      and\n        /* \"@openzeppelin/contracts/utils/Pausable.sol\":1939:2000  if (paused()) {... */\n      tag_361\n      jumpi\n        /* \"@openzeppelin/contracts/utils/Pausable.sol\":1878:2006  function _requireNotPaused() internal view virtual {... */\n      jump\t// out\n        /* \"@openzeppelin/contracts/utils/Pausable.sol\":1939:2000  if (paused()) {... */\n    tag_361:\n        /* \"@openzeppelin/contracts/utils/Pausable.sol\":1974:1989  EnforcedPause() */\n      mstore(0x00, shl(0xe0, 0xd93c0665))\n      revert(0x00, 0x04)\n        /* \"@openzeppelin/contracts/utils/ReentrancyGuard.sol\":2575:2882  function _nonReentrantBefore() private {... */\n    tag_15:\n        /* \"@openzeppelin/contracts/utils/ReentrancyGuard.sol\":1899:1900  2 */\n      0x02\n        /* \"@openzeppelin/contracts/utils/ReentrancyGuard.sol\":2702:2709  _status */\n      0x07\n        /* \"XPToken.sol\":551:8051  contract XPToken is ERC20, AccessControl, Pausable, ReentrancyGuard {... */\n      sload\n        /* \"@openzeppelin/contracts/utils/ReentrancyGuard.sol\":2702:2720  _status == ENTERED */\n      eq\n        /* \"@openzeppelin/contracts/utils/ReentrancyGuard.sol\":2698:2784  if (_status == ENTERED) {... */\n      tag_363\n      jumpi\n        /* \"@openzeppelin/contracts/utils/ReentrancyGuard.sol\":1899:1900  2 */\n      0x02\n        /* \"@openzeppelin/contracts/utils/ReentrancyGuard.sol\":2702:2709  _status */\n      0x07\n        /* \"XPToken.sol\":551:8051  contract XPToken is ERC20, AccessControl, Pausable, ReentrancyGuard {... */\n      sstore\n        /* \"@openzeppelin/contracts/utils/ReentrancyGuard.sol\":2575:2882  function _nonReentrantBefore() private {... */\n      jump\t// out\n        /* \"@openzeppelin/contracts/utils/ReentrancyGuard.sol\":2698:2784  if (_status == ENTERED) {... */\n    tag_363:\n        /* \"@openzeppelin/contracts/utils/ReentrancyGuard.sol\":2743:2773  ReentrancyGuardReentrantCall() */\n      mstore(0x00, shl(0xe0, 0x3ee5aeb5))\n      revert(0x00, 0x04)\n        /* \"@openzeppelin/contracts/token/ERC20/ERC20.sol\":7965:8171  function _burn(address account, uint256 value) internal {... */\n    tag_16:\n      swap1\n      swap2\n      swap1\n      sub(shl(0xa0, 0x01), 0x01)\n        /* \"XPToken.sol\":551:8051  contract XPToken is ERC20, AccessControl, Pausable, ReentrancyGuard {... */\n      and\n        /* \"@openzeppelin/contracts/token/ERC20/ERC20.sol\":8035:8056  account == address(0) */\n      dup1\n      iszero\n        /* \"@openzeppelin/contracts/token/ERC20/ERC20.sol\":8031:8120  if (account == address(0)) {... */\n      tag_346\n      jumpi\n        /* \"@openzeppelin/contracts/utils/Pausable.sol\":1315:1387  modifier whenNotPaused() {... */\n      tag_367\n      tag_14\n      jump\t// in\n    tag_367:\n        /* \"XPToken.sol\":551:8051  contract XPToken is ERC20, AccessControl, Pausable, ReentrancyGuard {... */\n      dup1\n        /* \"@openzeppelin/contracts/token/ERC20/ERC20.sol\":8054:8055  0 */\n      0x00\n        /* \"XPToken.sol\":551:8051  contract XPToken is ERC20, AccessControl, Pausable, ReentrancyGuard {... */\n      mstore\n        /* \"@openzeppelin/contracts/token/ERC20/ERC20.sol\":8054:8055  0 */\n      0x00\n        /* \"XPToken.sol\":551:8051  contract XPToken is ERC20, AccessControl, Pausable, ReentrancyGuard {... */\n      0x20\n      mstore\n      0x40\n        /* \"@openzeppelin/contracts/token/ERC20/ERC20.sol\":8054:8055  0 */\n      0x00\n        /* \"XPToken.sol\":551:8051  contract XPToken is ERC20, AccessControl, Pausable, ReentrancyGuard {... */\n      keccak256\n      sload\n        /* \"@openzeppelin/contracts/token/ERC20/ERC20.sol\":6321:6340  fromBalance < value */\n      dup4\n      dup2\n      lt\n        /* \"@openzeppelin/contracts/token/ERC20/ERC20.sol\":6317:6432  if (fromBalance < value) {... */\n      tag_368\n      jumpi\n        /* \"XPToken.sol\":551:8051  contract XPToken is ERC20, AccessControl, Pausable, ReentrancyGuard {... */\n      0x20\n      dup5\n        /* \"@openzeppelin/contracts/token/ERC20/ERC20.sol\":8054:8055  0 */\n      0x00\n        /* \"XPToken.sol\":551:8051  contract XPToken is ERC20, AccessControl, Pausable, ReentrancyGuard {... */\n      swap5\n      swap6\n        /* \"@openzeppelin/contracts/token/ERC20/ERC20.sol\":7064:7089  Transfer(from, to, value) */\n      0xddf252ad1be2c89b69c2b068fc378daa952ba7f163c4a11628f55a4df523b3ef\n        /* \"XPToken.sol\":551:8051  contract XPToken is ERC20, AccessControl, Pausable, ReentrancyGuard {... */\n      swap4\n      dup6\n      dup8\n      mstore\n      dup7\n      dup5\n      mstore\n      sub\n      0x40\n      dup7\n      keccak256\n      sstore\n      dup1\n        /* \"@openzeppelin/contracts/token/ERC20/ERC20.sol\":6791:6812  _totalSupply -= value */\n      0x02\n        /* \"XPToken.sol\":551:8051  contract XPToken is ERC20, AccessControl, Pausable, ReentrancyGuard {... */\n      sload\n      sub\n        /* \"@openzeppelin/contracts/token/ERC20/ERC20.sol\":6791:6812  _totalSupply -= value */\n      0x02\n        /* \"XPToken.sol\":551:8051  contract XPToken is ERC20, AccessControl, Pausable, ReentrancyGuard {... */\n      sstore\n      mload(0x40)\n      swap1\n      dup2\n      mstore\n        /* \"@openzeppelin/contracts/token/ERC20/ERC20.sol\":7064:7089  Transfer(from, to, value) */\n      log3\n        /* \"@openzeppelin/contracts/token/ERC20/ERC20.sol\":7965:8171  function _burn(address account, uint256 value) internal {... */\n      jump\t// out\n        /* \"@openzeppelin/contracts/token/ERC20/ERC20.sol\":6317:6432  if (fromBalance < value) {... */\n    tag_368:\n        /* \"@openzeppelin/contracts/token/ERC20/ERC20.sol\":6367:6417  ERC20InsufficientBalance(from, fromBalance, value) */\n      swap2\n      pop\n      shl(0xe2, 0x391434e3)\n        /* \"@openzeppelin/contracts/token/ERC20/ERC20.sol\":8054:8055  0 */\n      0x00\n        /* \"@openzeppelin/contracts/token/ERC20/ERC20.sol\":6367:6417  ERC20InsufficientBalance(from, fromBalance, value) */\n      mstore\n      0x04\n        /* \"XPToken.sol\":551:8051  contract XPToken is ERC20, AccessControl, Pausable, ReentrancyGuard {... */\n      mstore\n      0x24\n      mstore\n      0x44\n      mstore\n      0x64\n        /* \"@openzeppelin/contracts/token/ERC20/ERC20.sol\":8054:8055  0 */\n      0x00\n        /* \"@openzeppelin/contracts/token/ERC20/ERC20.sol\":6367:6417  ERC20InsufficientBalance(from, fromBalance, value) */\n      revert\n\n    auxdata: 0xa26469706673582212207f4ac477aa11445ca07f88e4daa0811c7d59d70062d5876f3f8659429ccd424464736f6c634300081e0033\n}\n",
				"bytecode": {
					"linkReferences": {},
					"object": "60806040523461042357611b6f8038038061001981610427565b92833981016080828203126104235781516001600160401b038111610423578161004491840161044c565b602083015190916001600160401b0382116104235761006491840161044c565b61007c60606100756040860161049d565b940161049d565b82519092906001600160401b03811161033357600354600181811c91168015610419575b602082101461031557601f81116103b6575b50806020601f8211600114610352575f91610347575b508160011b915f199060031b1c1916176003555b81516001600160401b03811161033357600454600181811c91168015610329575b602082101461031557601f81116102b2575b50806020601f821160011461024e575f91610243575b508160011b915f199060031b1c1916176004555b600160075551156101f85751156101ad576001600160a01b0382161561019e576001600160a01b0381161561019e5761017e8261017861018e946104b1565b50610527565b50610188816105ba565b5061064d565b506040516113ee90816106e18239f35b63d92e233d60e01b5f5260045ffd5b608460405163f7693c3d60e01b81525f600482015260406024820152601c60448201527f546f6b656e2073796d626f6c2063616e6e6f7420626520656d707479000000006064820152fd5b608460405163f7693c3d60e01b81525f600482015260406024820152601a60448201527f546f6b656e206e616d652063616e6e6f7420626520656d7074790000000000006064820152fd5b90508301515f610125565b60045f9081528181209250601f198416905b81811061029a57509083600194939210610282575b5050811b01600455610139565b8501515f1960f88460031b161c191690555f80610275565b9192602060018192868a015181550194019201610260565b60045f527f8a35acfbc15ff81a39ae7d344fd709f28e8600b4aa8c65c6b64bfe7fe36bd19b601f830160051c8101916020841061030b575b601f0160051c01905b818110610300575061010f565b5f81556001016102f3565b90915081906102ea565b634e487b7160e01b5f52602260045260245ffd5b90607f16906100fd565b634e487b7160e01b5f52604160045260245ffd5b90508201515f6100c8565b60035f9081528181209250601f198416905b81811061039e57509083600194939210610386575b5050811b016003556100dc565b8401515f1960f88460031b161c191690555f80610379565b91926020600181928689015181550194019201610364565b60035f527fc2575a0e9e593c00f959f8c92f12db2869c3395a3b0502d05e2516446f71f85b601f830160051c8101916020841061040f575b601f0160051c01905b81811061040457506100b2565b5f81556001016103f7565b90915081906103ee565b90607f16906100a0565b5f80fd5b6040519190601f01601f191682016001600160401b0381118382101761033357604052565b81601f82011215610423578051906001600160401b0382116103335761047b601f8301601f1916602001610427565b928284526020838301011161042357815f9260208093018386015e8301015290565b51906001600160a01b038216820361042357565b6001600160a01b0381165f9081525f516020611b2f5f395f51905f52602052604090205460ff16610522576001600160a01b03165f8181525f516020611b2f5f395f51905f5260205260408120805460ff191660011790553391905f516020611acf5f395f51905f528180a4600190565b505f90565b6001600160a01b0381165f9081525f516020611b4f5f395f51905f52602052604090205460ff16610522576001600160a01b03165f8181525f516020611b4f5f395f51905f5260205260408120805460ff191660011790553391907f65d7a28e3265b37a6474929f336521b332c1681b933f6cb9f3376673440d862a905f516020611acf5f395f51905f529080a4600190565b6001600160a01b0381165f9081525f516020611aef5f395f51905f52602052604090205460ff16610522576001600160a01b03165f8181525f516020611aef5f395f51905f5260205260408120805460ff191660011790553391907f9f2df0fed2c77648de5860a4cc508cd0818c85b8b8a1ab4ceeef8d981c8956a6905f516020611acf5f395f51905f529080a4600190565b6001600160a01b0381165f9081525f516020611b0f5f395f51905f52602052604090205460ff16610522576001600160a01b03165f8181525f516020611b0f5f395f51905f5260205260408120805460ff191660011790553391907f3c11d16cbaffd01df69ce1c404f6340ee057498f5f00246190ea54220576a848905f516020611acf5f395f51905f529080a460019056fe6080806040526004361015610012575f80fd5b5f905f3560e01c90816301ffc9a714610ef55750806306fdde0314610e01578063095ea7b314610d7f57806318160ddd14610d6257806323b872dd14610c83578063248a9ca314610c50578063282c51f314610c165780632f2ff15d14610bd8578063313ce56714610bbd57806335ab5f6414610ba057806336568abe14610b5a5780633f4ba83a14610af457806340c10f191461083057806342966c681461076e5780635c975abb1461074b5780635cb0c16f1461072d57806370a08231146106f557806379cc6790146105a95780638456cb591461054e57806391d148541461050457806395d89b41146103f3578063a217fddf146103d7578063a2309ff8146103b9578063a9059cbb14610387578063b028d807146102aa578063c59d48471461027b578063d539139314610240578063d547741f146101f8578063dd62ed3e146101a55763e63ab1e914610168575f80fd5b346101a257806003193601126101a25760206040517f65d7a28e3265b37a6474929f336521b332c1681b933f6cb9f3376673440d862a8152f35b80fd5b50346101a25760403660031901126101a25760406101c1610f6c565b916101ca610f82565b9260018060a01b031681526001602052209060018060a01b03165f52602052602060405f2054604051908152f35b50346101a25760403660031901126101a25761023c600435610218610f82565b90610237610232825f526005602052600160405f20015490565b6111a7565b61126d565b5080f35b50346101a257806003193601126101a25760206040517f9f2df0fed2c77648de5860a4cc508cd0818c85b8b8a1ab4ceeef8d981c8956a68152f35b50346101a257806003193601126101a25760606008546009546002549060405192835260208301526040820152f35b50346101a25760403660031901126101a2576102c4610f6c565b60243590303303610349576001600160a01b0316908115610335577fddf252ad1be2c89b69c2b068fc378daa952ba7f163c4a11628f55a4df523b3ef6020849261030c6112f1565b61031881600254610fce565b60025584845283825260408420818154019055604051908152a380f35b63ec442f0560e01b83526004839052602483fd5b60405162461bcd60e51b815260206004820152601660248201527513db9b1e481cd95b198b58d85b1b08185b1b1bddd95960521b6044820152606490fd5b50346101a25760403660031901126101a2576103ae6103a4610f6c565b6024359033611073565b602060405160018152f35b50346101a257806003193601126101a2576020600854604051908152f35b50346101a257806003193601126101a257602090604051908152f35b50346101a257806003193601126101a2576040519080600454908160011c916001811680156104fa575b6020841081146104e6578386529081156104bf5750600114610462575b61045e8461044a81860382610f98565b604051918291602083526020830190610f48565b0390f35b600481527f8a35acfbc15ff81a39ae7d344fd709f28e8600b4aa8c65c6b64bfe7fe36bd19b939250905b8082106104a55750909150810160200161044a8261043a565b91926001816020925483858801015201910190929161048c565b60ff191660208087019190915292151560051b8501909201925061044a915083905061043a565b634e487b7160e01b83526022600452602483fd5b92607f169261041d565b50346101a25760403660031901126101a2576040610520610f82565b9160043581526005602052209060018060a01b03165f52602052602060ff60405f2054166040519015158152f35b50346101a257806003193601126101a257610567611138565b61056f6112f1565b600160ff1960065416176006557f62e78cea01bee320cd4e420270b5ea74000d11b0c9f74754ebdbfc544b05a2586020604051338152a180f35b50346101a25760403660031901126101a2576105c3610f6c565b7f3c11d16cbaffd01df69ce1c404f6340ee057498f5f00246190ea54220576a8488252600560209081526040808420335f9081529252902054602435919060ff16156106be576106116112f1565b61061961130c565b81156106af5760018060a01b03811690818452836020528260408520541061068857826106549161064c82600954610fce565b60095561132c565b6040519182527f08009940fb138ae33fbb70c10b643e840c71f1654344cc173975a815e117e68760203393a3600160075580f35b50829181606494528260205260408320549163db42144d60e01b8452600452602452604452fd5b631f2a200560e01b8352600483fd5b63e2517d3f60e01b8352336004527f3c11d16cbaffd01df69ce1c404f6340ee057498f5f00246190ea54220576a848602452604483fd5b50346101a25760203660031901126101a2576020906040906001600160a01b0361071d610f6c565b1681528083522054604051908152f35b50346101a257806003193601126101a2576020600254604051908152f35b50346101a257806003193601126101a257602060ff600654166040519015158152f35b50346101a25760203660031901126101a25760043561078b6112f1565b61079361130c565b80156108215733825281602052806040832054106107fa576107b781600954610fce565b6009556107c4813361132c565b60405190815233907f08009940fb138ae33fbb70c10b643e840c71f1654344cc173975a815e117e68760203392a3600160075580f35b906064913382528160205260408220549063db42144d60e01b835233600452602452604452fd5b631f2a200560e01b8252600482fd5b5034610a2d576040366003190112610a2d5761084a610f6c565b335f9081527f15a28d26fa1bf736cf7edc9922607171ccb09c3c73b808e7772a3013e068a522602052604090205460243592919060ff1615610abd5761088e6112f1565b61089661130c565b6001600160a01b0316908115610aae578215610a9f57308214610a53576108bf83600254610fce565b6001600160ff1b038111610a3157506108da83600854610fce565b600855303b15610a2d5760405163b028d80760e01b81528260048201528360248201525f8160448183305af19081610a18575b506109e2578060033d116109d1575b506308c379a01461097e575b8161093760a493600854611066565b506040519163e6921fc160e01b8352600483015260248201526060604482015260156064820152742ab735b737bbb71036b4b73a34b7339032b93937b960591b6084820152fd5b610986610fef565b806109915750610928565b6109cd906109a184600854611066565b5060405193849363e6921fc160e01b855260048501526024840152606060448401526064830190610f48565b0390fd5b9050600481803e5160e01c5f61091c565b91906040519182527f969cd201f68f120baff2bf3c59bc3b534434e08b69a71a14ab85cb79cd3b63e460203393a3600160075580f35b610a259192505f90610f98565b5f905f61090d565b5f80fd5b63594a20b760e01b5f9081526004919091526001600160ff1b03602452604490fd5b6084826040519063f7693c3d60e01b8252600482015260406024820152601e60448201527f43616e6e6f74206d696e7420746f20636f6e747261637420697473656c6600006064820152fd5b631f2a200560e01b5f5260045ffd5b63d92e233d60e01b5f5260045ffd5b63e2517d3f60e01b5f52336004527f9f2df0fed2c77648de5860a4cc508cd0818c85b8b8a1ab4ceeef8d981c8956a660245260445ffd5b34610a2d575f366003190112610a2d57610b0c611138565b60065460ff811615610b4b5760ff19166006557f5db9ee0a495bf2e6ff9c91a7834c1ba4fdd244a5e8aa4e537bd38aeae4b073aa6020604051338152a1005b638dfc202b60e01b5f5260045ffd5b34610a2d576040366003190112610a2d57610b73610f82565b336001600160a01b03821603610b9157610b8f9060043561126d565b005b63334bd91960e11b5f5260045ffd5b34610a2d575f366003190112610a2d576020600954604051908152f35b34610a2d575f366003190112610a2d57602060405160128152f35b34610a2d576040366003190112610a2d57610b8f600435610bf7610f82565b90610c11610232825f526005602052600160405f20015490565b6111e1565b34610a2d575f366003190112610a2d5760206040517f3c11d16cbaffd01df69ce1c404f6340ee057498f5f00246190ea54220576a8488152f35b34610a2d576020366003190112610a2d576020610c7b6004355f526005602052600160405f20015490565b604051908152f35b34610a2d576060366003190112610a2d57610c9c610f6c565b610ca4610f82565b6001600160a01b0382165f818152600160209081526040808320338452909152902054909260443592915f198110610ce2575b506103ae9350611073565b838110610d47578415610d34573315610d21576103ae945f52600160205260405f2060018060a01b0333165f526020528360405f209103905584610cd7565b634a1406b160e11b5f525f60045260245ffd5b63e602df0560e01b5f525f60045260245ffd5b8390637dc7a0d960e11b5f523360045260245260445260645ffd5b34610a2d575f366003190112610a2d576020600254604051908152f35b34610a2d576040366003190112610a2d57610d98610f6c565b602435903315610d34576001600160a01b0316908115610d2157335f52600160205260405f20825f526020528060405f20556040519081527f8c5be1e5ebec7d5bd14f71427d1e84f3dd0314c0f7b2291e5b200ac8c7c3b92560203392a3602060405160018152f35b34610a2d575f366003190112610a2d576040515f6003548060011c90600181168015610eeb575b602083108114610ed757828552908115610eb35750600114610e55575b61045e8361044a81850382610f98565b91905060035f527fc2575a0e9e593c00f959f8c92f12db2869c3395a3b0502d05e2516446f71f85b915f905b808210610e995750909150810160200161044a610e45565b919260018160209254838588010152019101909291610e81565b60ff191660208086019190915291151560051b8401909101915061044a9050610e45565b634e487b7160e01b5f52602260045260245ffd5b91607f1691610e28565b34610a2d576020366003190112610a2d576004359063ffffffff60e01b8216809203610a2d57602091637965db0b60e01b8114908115610f37575b5015158152f35b6301ffc9a760e01b14905083610f30565b805180835260209291819084018484015e5f828201840152601f01601f1916010190565b600435906001600160a01b0382168203610a2d57565b602435906001600160a01b0382168203610a2d57565b90601f8019910116810190811067ffffffffffffffff821117610fba57604052565b634e487b7160e01b5f52604160045260245ffd5b91908201809211610fdb57565b634e487b7160e01b5f52601160045260245ffd5b5f60443d10611055576040513d600319016004823e8051913d602484011167ffffffffffffffff841117611060578282019283519167ffffffffffffffff8311611058573d84016003190185840160200111611058575061105592910160200190610f98565b90565b949350505050565b92915050565b91908203918211610fdb57565b6001600160a01b0316908115611125576001600160a01b03169182156111125761109b6112f1565b815f525f60205260405f20548181106110f957817fddf252ad1be2c89b69c2b068fc378daa952ba7f163c4a11628f55a4df523b3ef92602092855f525f84520360405f2055845f525f825260405f20818154019055604051908152a3565b8263391434e360e21b5f5260045260245260445260645ffd5b63ec442f0560e01b5f525f60045260245ffd5b634b637e8f60e11b5f525f60045260245ffd5b335f9081527f99f2891db7a8db76249871a02b43b68c0bb8f22ef8a3bc1034ae9375ef6b7c3c602052604090205460ff161561117057565b63e2517d3f60e01b5f52336004527f65d7a28e3265b37a6474929f336521b332c1681b933f6cb9f3376673440d862a60245260445ffd5b5f81815260056020908152604080832033845290915290205460ff16156111cb5750565b63e2517d3f60e01b5f523360045260245260445ffd5b5f8181526005602090815260408083206001600160a01b038616845290915290205460ff16611267575f8181526005602090815260408083206001600160a01b0395909516808452949091528120805460ff19166001179055339291907f2f8788117e7eff1d82e926ec794901d17c78024a50270940304540a733656f0d9080a4600190565b50505f90565b5f8181526005602090815260408083206001600160a01b038616845290915290205460ff1615611267575f8181526005602090815260408083206001600160a01b0395909516808452949091528120805460ff19169055339291907ff6391f5c32d9c69d2a47ea670b442974b53935d1edc7fd64eb21e047a839171b9080a4600190565b60ff600654166112fd57565b63d93c066560e01b5f5260045ffd5b60026007541461131d576002600755565b633ee5aeb560e01b5f5260045ffd5b9091906001600160a01b03168015611125576113466112f1565b805f525f60205260405f205483811061139e576020845f94957fddf252ad1be2c89b69c2b068fc378daa952ba7f163c4a11628f55a4df523b3ef938587528684520360408620558060025403600255604051908152a3565b915063391434e360e21b5f5260045260245260445260645ffdfea26469706673582212207f4ac477aa11445ca07f88e4daa0811c7d59d70062d5876f3f8659429ccd424464736f6c634300081e00332f8788117e7eff1d82e926ec794901d17c78024a50270940304540a733656f0d15a28d26fa1bf736cf7edc9922607171ccb09c3c73b808e7772a3013e068a522847f481f687befb06ed3511f1a8dcef57e83007c0147ae5047583d705617093705b8ccbb9d4d8fb16ea74ce3c29a41f1b461fbdaff4714a0d9a8eb05499746bc99f2891db7a8db76249871a02b43b68c0bb8f22ef8a3bc1034ae9375ef6b7c3c",
					"opcodes": "PUSH1 0x80 PUSH1 0x40 MSTORE CALLVALUE PUSH2 0x423 JUMPI PUSH2 0x1B6F DUP1 CODESIZE SUB DUP1 PUSH2 0x19 DUP2 PUSH2 0x427 JUMP JUMPDEST SWAP3 DUP4 CODECOPY DUP2 ADD PUSH1 0x80 DUP3 DUP3 SUB SLT PUSH2 0x423 JUMPI DUP2 MLOAD PUSH1 0x1 PUSH1 0x1 PUSH1 0x40 SHL SUB DUP2 GT PUSH2 0x423 JUMPI DUP2 PUSH2 0x44 SWAP2 DUP5 ADD PUSH2 0x44C JUMP JUMPDEST PUSH1 0x20 DUP4 ADD MLOAD SWAP1 SWAP2 PUSH1 0x1 PUSH1 0x1 PUSH1 0x40 SHL SUB DUP3 GT PUSH2 0x423 JUMPI PUSH2 0x64 SWAP2 DUP5 ADD PUSH2 0x44C JUMP JUMPDEST PUSH2 0x7C PUSH1 0x60 PUSH2 0x75 PUSH1 0x40 DUP7 ADD PUSH2 0x49D JUMP JUMPDEST SWAP5 ADD PUSH2 0x49D JUMP JUMPDEST DUP3 MLOAD SWAP1 SWAP3 SWAP1 PUSH1 0x1 PUSH1 0x1 PUSH1 0x40 SHL SUB DUP2 GT PUSH2 0x333 JUMPI PUSH1 0x3 SLOAD PUSH1 0x1 DUP2 DUP2 SHR SWAP2 AND DUP1 ISZERO PUSH2 0x419 JUMPI JUMPDEST PUSH1 0x20 DUP3 LT EQ PUSH2 0x315 JUMPI PUSH1 0x1F DUP2 GT PUSH2 0x3B6 JUMPI JUMPDEST POP DUP1 PUSH1 0x20 PUSH1 0x1F DUP3 GT PUSH1 0x1 EQ PUSH2 0x352 JUMPI PUSH0 SWAP2 PUSH2 0x347 JUMPI JUMPDEST POP DUP2 PUSH1 0x1 SHL SWAP2 PUSH0 NOT SWAP1 PUSH1 0x3 SHL SHR NOT AND OR PUSH1 0x3 SSTORE JUMPDEST DUP2 MLOAD PUSH1 0x1 PUSH1 0x1 PUSH1 0x40 SHL SUB DUP2 GT PUSH2 0x333 JUMPI PUSH1 0x4 SLOAD PUSH1 0x1 DUP2 DUP2 SHR SWAP2 AND DUP1 ISZERO PUSH2 0x329 JUMPI JUMPDEST PUSH1 0x20 DUP3 LT EQ PUSH2 0x315 JUMPI PUSH1 0x1F DUP2 GT PUSH2 0x2B2 JUMPI JUMPDEST POP DUP1 PUSH1 0x20 PUSH1 0x1F DUP3 GT PUSH1 0x1 EQ PUSH2 0x24E JUMPI PUSH0 SWAP2 PUSH2 0x243 JUMPI JUMPDEST POP DUP2 PUSH1 0x1 SHL SWAP2 PUSH0 NOT SWAP1 PUSH1 0x3 SHL SHR NOT AND OR PUSH1 0x4 SSTORE JUMPDEST PUSH1 0x1 PUSH1 0x7 SSTORE MLOAD ISZERO PUSH2 0x1F8 JUMPI MLOAD ISZERO PUSH2 0x1AD JUMPI PUSH1 0x1 PUSH1 0x1 PUSH1 0xA0 SHL SUB DUP3 AND ISZERO PUSH2 0x19E JUMPI PUSH1 0x1 PUSH1 0x1 PUSH1 0xA0 SHL SUB DUP2 AND ISZERO PUSH2 0x19E JUMPI PUSH2 0x17E DUP3 PUSH2 0x178 PUSH2 0x18E SWAP5 PUSH2 0x4B1 JUMP JUMPDEST POP PUSH2 0x527 JUMP JUMPDEST POP PUSH2 0x188 DUP2 PUSH2 0x5BA JUMP JUMPDEST POP PUSH2 0x64D JUMP JUMPDEST POP PUSH1 0x40 MLOAD PUSH2 0x13EE SWAP1 DUP2 PUSH2 0x6E1 DUP3 CODECOPY RETURN JUMPDEST PUSH4 0xD92E233D PUSH1 0xE0 SHL PUSH0 MSTORE PUSH1 0x4 PUSH0 REVERT JUMPDEST PUSH1 0x84 PUSH1 0x40 MLOAD PUSH4 0xF7693C3D PUSH1 0xE0 SHL DUP2 MSTORE PUSH0 PUSH1 0x4 DUP3 ADD MSTORE PUSH1 0x40 PUSH1 0x24 DUP3 ADD MSTORE PUSH1 0x1C PUSH1 0x44 DUP3 ADD MSTORE PUSH32 0x546F6B656E2073796D626F6C2063616E6E6F7420626520656D70747900000000 PUSH1 0x64 DUP3 ADD MSTORE REVERT JUMPDEST PUSH1 0x84 PUSH1 0x40 MLOAD PUSH4 0xF7693C3D PUSH1 0xE0 SHL DUP2 MSTORE PUSH0 PUSH1 0x4 DUP3 ADD MSTORE PUSH1 0x40 PUSH1 0x24 DUP3 ADD MSTORE PUSH1 0x1A PUSH1 0x44 DUP3 ADD MSTORE PUSH32 0x546F6B656E206E616D652063616E6E6F7420626520656D707479000000000000 PUSH1 0x64 DUP3 ADD MSTORE REVERT JUMPDEST SWAP1 POP DUP4 ADD MLOAD PUSH0 PUSH2 0x125 JUMP JUMPDEST PUSH1 0x4 PUSH0 SWAP1 DUP2 MSTORE DUP2 DUP2 KECCAK256 SWAP3 POP PUSH1 0x1F NOT DUP5 AND SWAP1 JUMPDEST DUP2 DUP2 LT PUSH2 0x29A JUMPI POP SWAP1 DUP4 PUSH1 0x1 SWAP5 SWAP4 SWAP3 LT PUSH2 0x282 JUMPI JUMPDEST POP POP DUP2 SHL ADD PUSH1 0x4 SSTORE PUSH2 0x139 JUMP JUMPDEST DUP6 ADD MLOAD PUSH0 NOT PUSH1 0xF8 DUP5 PUSH1 0x3 SHL AND SHR NOT AND SWAP1 SSTORE PUSH0 DUP1 PUSH2 0x275 JUMP JUMPDEST SWAP2 SWAP3 PUSH1 0x20 PUSH1 0x1 DUP2 SWAP3 DUP7 DUP11 ADD MLOAD DUP2 SSTORE ADD SWAP5 ADD SWAP3 ADD PUSH2 0x260 JUMP JUMPDEST PUSH1 0x4 PUSH0 MSTORE PUSH32 0x8A35ACFBC15FF81A39AE7D344FD709F28E8600B4AA8C65C6B64BFE7FE36BD19B PUSH1 0x1F DUP4 ADD PUSH1 0x5 SHR DUP2 ADD SWAP2 PUSH1 0x20 DUP5 LT PUSH2 0x30B JUMPI JUMPDEST PUSH1 0x1F ADD PUSH1 0x5 SHR ADD SWAP1 JUMPDEST DUP2 DUP2 LT PUSH2 0x300 JUMPI POP PUSH2 0x10F JUMP JUMPDEST PUSH0 DUP2 SSTORE PUSH1 0x1 ADD PUSH2 0x2F3 JUMP JUMPDEST SWAP1 SWAP2 POP DUP2 SWAP1 PUSH2 0x2EA JUMP JUMPDEST PUSH4 0x4E487B71 PUSH1 0xE0 SHL PUSH0 MSTORE PUSH1 0x22 PUSH1 0x4 MSTORE PUSH1 0x24 PUSH0 REVERT JUMPDEST SWAP1 PUSH1 0x7F AND SWAP1 PUSH2 0xFD JUMP JUMPDEST PUSH4 0x4E487B71 PUSH1 0xE0 SHL PUSH0 MSTORE PUSH1 0x41 PUSH1 0x4 MSTORE PUSH1 0x24 PUSH0 REVERT JUMPDEST SWAP1 POP DUP3 ADD MLOAD PUSH0 PUSH2 0xC8 JUMP JUMPDEST PUSH1 0x3 PUSH0 SWAP1 DUP2 MSTORE DUP2 DUP2 KECCAK256 SWAP3 POP PUSH1 0x1F NOT DUP5 AND SWAP1 JUMPDEST DUP2 DUP2 LT PUSH2 0x39E JUMPI POP SWAP1 DUP4 PUSH1 0x1 SWAP5 SWAP4 SWAP3 LT PUSH2 0x386 JUMPI JUMPDEST POP POP DUP2 SHL ADD PUSH1 0x3 SSTORE PUSH2 0xDC JUMP JUMPDEST DUP5 ADD MLOAD PUSH0 NOT PUSH1 0xF8 DUP5 PUSH1 0x3 SHL AND SHR NOT AND SWAP1 SSTORE PUSH0 DUP1 PUSH2 0x379 JUMP JUMPDEST SWAP2 SWAP3 PUSH1 0x20 PUSH1 0x1 DUP2 SWAP3 DUP7 DUP10 ADD MLOAD DUP2 SSTORE ADD SWAP5 ADD SWAP3 ADD PUSH2 0x364 JUMP JUMPDEST PUSH1 0x3 PUSH0 MSTORE PUSH32 0xC2575A0E9E593C00F959F8C92F12DB2869C3395A3B0502D05E2516446F71F85B PUSH1 0x1F DUP4 ADD PUSH1 0x5 SHR DUP2 ADD SWAP2 PUSH1 0x20 DUP5 LT PUSH2 0x40F JUMPI JUMPDEST PUSH1 0x1F ADD PUSH1 0x5 SHR ADD SWAP1 JUMPDEST DUP2 DUP2 LT PUSH2 0x404 JUMPI POP PUSH2 0xB2 JUMP JUMPDEST PUSH0 DUP2 SSTORE PUSH1 0x1 ADD PUSH2 0x3F7 JUMP JUMPDEST SWAP1 SWAP2 POP DUP2 SWAP1 PUSH2 0x3EE JUMP JUMPDEST SWAP1 PUSH1 0x7F AND SWAP1 PUSH2 0xA0 JUMP JUMPDEST PUSH0 DUP1 REVERT JUMPDEST PUSH1 0x40 MLOAD SWAP2 SWAP1 PUSH1 0x1F ADD PUSH1 0x1F NOT AND DUP3 ADD PUSH1 0x1 PUSH1 0x1 PUSH1 0x40 SHL SUB DUP2 GT DUP4 DUP3 LT OR PUSH2 0x333 JUMPI PUSH1 0x40 MSTORE JUMP JUMPDEST DUP2 PUSH1 0x1F DUP3 ADD SLT ISZERO PUSH2 0x423 JUMPI DUP1 MLOAD SWAP1 PUSH1 0x1 PUSH1 0x1 PUSH1 0x40 SHL SUB DUP3 GT PUSH2 0x333 JUMPI PUSH2 0x47B PUSH1 0x1F DUP4 ADD PUSH1 0x1F NOT AND PUSH1 0x20 ADD PUSH2 0x427 JUMP JUMPDEST SWAP3 DUP3 DUP5 MSTORE PUSH1 0x20 DUP4 DUP4 ADD ADD GT PUSH2 0x423 JUMPI DUP2 PUSH0 SWAP3 PUSH1 0x20 DUP1 SWAP4 ADD DUP4 DUP7 ADD MCOPY DUP4 ADD ADD MSTORE SWAP1 JUMP JUMPDEST MLOAD SWAP1 PUSH1 0x1 PUSH1 0x1 PUSH1 0xA0 SHL SUB DUP3 AND DUP3 SUB PUSH2 0x423 JUMPI JUMP JUMPDEST PUSH1 0x1 PUSH1 0x1 PUSH1 0xA0 SHL SUB DUP2 AND PUSH0 SWAP1 DUP2 MSTORE PUSH0 MLOAD PUSH1 0x20 PUSH2 0x1B2F PUSH0 CODECOPY PUSH0 MLOAD SWAP1 PUSH0 MSTORE PUSH1 0x20 MSTORE PUSH1 0x40 SWAP1 KECCAK256 SLOAD PUSH1 0xFF AND PUSH2 0x522 JUMPI PUSH1 0x1 PUSH1 0x1 PUSH1 0xA0 SHL SUB AND PUSH0 DUP2 DUP2 MSTORE PUSH0 MLOAD PUSH1 0x20 PUSH2 0x1B2F PUSH0 CODECOPY PUSH0 MLOAD SWAP1 PUSH0 MSTORE PUSH1 0x20 MSTORE PUSH1 0x40 DUP2 KECCAK256 DUP1 SLOAD PUSH1 0xFF NOT AND PUSH1 0x1 OR SWAP1 SSTORE CALLER SWAP2 SWAP1 PUSH0 MLOAD PUSH1 0x20 PUSH2 0x1ACF PUSH0 CODECOPY PUSH0 MLOAD SWAP1 PUSH0 MSTORE DUP2 DUP1 LOG4 PUSH1 0x1 SWAP1 JUMP JUMPDEST POP PUSH0 SWAP1 JUMP JUMPDEST PUSH1 0x1 PUSH1 0x1 PUSH1 0xA0 SHL SUB DUP2 AND PUSH0 SWAP1 DUP2 MSTORE PUSH0 MLOAD PUSH1 0x20 PUSH2 0x1B4F PUSH0 CODECOPY PUSH0 MLOAD SWAP1 PUSH0 MSTORE PUSH1 0x20 MSTORE PUSH1 0x40 SWAP1 KECCAK256 SLOAD PUSH1 0xFF AND PUSH2 0x522 JUMPI PUSH1 0x1 PUSH1 0x1 PUSH1 0xA0 SHL SUB AND PUSH0 DUP2 DUP2 MSTORE PUSH0 MLOAD PUSH1 0x20 PUSH2 0x1B4F PUSH0 CODECOPY PUSH0 MLOAD SWAP1 PUSH0 MSTORE PUSH1 0x20 MSTORE PUSH1 0x40 DUP2 KECCAK256 DUP1 SLOAD PUSH1 0xFF NOT AND PUSH1 0x1 OR SWAP1 SSTORE CALLER SWAP2 SWAP1 PUSH32 0x65D7A28E3265B37A6474929F336521B332C1681B933F6CB9F3376673440D862A SWAP1 PUSH0 MLOAD PUSH1 0x20 PUSH2 0x1ACF PUSH0 CODECOPY PUSH0 MLOAD SWAP1 PUSH0 MSTORE SWAP1 DUP1 LOG4 PUSH1 0x1 SWAP1 JUMP JUMPDEST PUSH1 0x1 PUSH1 0x1 PUSH1 0xA0 SHL SUB DUP2 AND PUSH0 SWAP1 DUP2 MSTORE PUSH0 MLOAD PUSH1 0x20 PUSH2 0x1AEF PUSH0 CODECOPY PUSH0 MLOAD SWAP1 PUSH0 MSTORE PUSH1 0x20 MSTORE PUSH1 0x40 SWAP1 KECCAK256 SLOAD PUSH1 0xFF AND PUSH2 0x522 JUMPI PUSH1 0x1 PUSH1 0x1 PUSH1 0xA0 SHL SUB AND PUSH0 DUP2 DUP2 MSTORE PUSH0 MLOAD PUSH1 0x20 PUSH2 0x1AEF PUSH0 CODECOPY PUSH0 MLOAD SWAP1 PUSH0 MSTORE PUSH1 0x20 MSTORE PUSH1 0x40 DUP2 KECCAK256 DUP1 SLOAD PUSH1 0xFF NOT AND PUSH1 0x1 OR SWAP1 SSTORE CALLER SWAP2 SWAP1 PUSH32 0x9F2DF0FED2C77648DE5860A4CC508CD0818C85B8B8A1AB4CEEEF8D981C8956A6 SWAP1 PUSH0 MLOAD PUSH1 0x20 PUSH2 0x1ACF PUSH0 CODECOPY PUSH0 MLOAD SWAP1 PUSH0 MSTORE SWAP1 DUP1 LOG4 PUSH1 0x1 SWAP1 JUMP JUMPDEST PUSH1 0x1 PUSH1 0x1 PUSH1 0xA0 SHL SUB DUP2 AND PUSH0 SWAP1 DUP2 MSTORE PUSH0 MLOAD PUSH1 0x20 PUSH2 0x1B0F PUSH0 CODECOPY PUSH0 MLOAD SWAP1 PUSH0 MSTORE PUSH1 0x20 MSTORE PUSH1 0x40 SWAP1 KECCAK256 SLOAD PUSH1 0xFF AND PUSH2 0x522 JUMPI PUSH1 0x1 PUSH1 0x1 PUSH1 0xA0 SHL SUB AND PUSH0 DUP2 DUP2 MSTORE PUSH0 MLOAD PUSH1 0x20 PUSH2 0x1B0F PUSH0 CODECOPY PUSH0 MLOAD SWAP1 PUSH0 MSTORE PUSH1 0x20 MSTORE PUSH1 0x40 DUP2 KECCAK256 DUP1 SLOAD PUSH1 0xFF NOT AND PUSH1 0x1 OR SWAP1 SSTORE CALLER SWAP2 SWAP1 PUSH32 0x3C11D16CBAFFD01DF69CE1C404F6340EE057498F5F00246190EA54220576A848 SWAP1 PUSH0 MLOAD PUSH1 0x20 PUSH2 0x1ACF PUSH0 CODECOPY PUSH0 MLOAD SWAP1 PUSH0 MSTORE SWAP1 DUP1 LOG4 PUSH1 0x1 SWAP1 JUMP INVALID PUSH1 0x80 DUP1 PUSH1 0x40 MSTORE PUSH1 0x4 CALLDATASIZE LT ISZERO PUSH2 0x12 JUMPI PUSH0 DUP1 REVERT JUMPDEST PUSH0 SWAP1 PUSH0 CALLDATALOAD PUSH1 0xE0 SHR SWAP1 DUP2 PUSH4 0x1FFC9A7 EQ PUSH2 0xEF5 JUMPI POP DUP1 PUSH4 0x6FDDE03 EQ PUSH2 0xE01 JUMPI DUP1 PUSH4 0x95EA7B3 EQ PUSH2 0xD7F JUMPI DUP1 PUSH4 0x18160DDD EQ PUSH2 0xD62 JUMPI DUP1 PUSH4 0x23B872DD EQ PUSH2 0xC83 JUMPI DUP1 PUSH4 0x248A9CA3 EQ PUSH2 0xC50 JUMPI DUP1 PUSH4 0x282C51F3 EQ PUSH2 0xC16 JUMPI DUP1 PUSH4 0x2F2FF15D EQ PUSH2 0xBD8 JUMPI DUP1 PUSH4 0x313CE567 EQ PUSH2 0xBBD JUMPI DUP1 PUSH4 0x35AB5F64 EQ PUSH2 0xBA0 JUMPI DUP1 PUSH4 0x36568ABE EQ PUSH2 0xB5A JUMPI DUP1 PUSH4 0x3F4BA83A EQ PUSH2 0xAF4 JUMPI DUP1 PUSH4 0x40C10F19 EQ PUSH2 0x830 JUMPI DUP1 PUSH4 0x42966C68 EQ PUSH2 0x76E JUMPI DUP1 PUSH4 0x5C975ABB EQ PUSH2 0x74B JUMPI DUP1 PUSH4 0x5CB0C16F EQ PUSH2 0x72D JUMPI DUP1 PUSH4 0x70A08231 EQ PUSH2 0x6F5 JUMPI DUP1 PUSH4 0x79CC6790 EQ PUSH2 0x5A9 JUMPI DUP1 PUSH4 0x8456CB59 EQ PUSH2 0x54E JUMPI DUP1 PUSH4 0x91D14854 EQ PUSH2 0x504 JUMPI DUP1 PUSH4 0x95D89B41 EQ PUSH2 0x3F3 JUMPI DUP1 PUSH4 0xA217FDDF EQ PUSH2 0x3D7 JUMPI DUP1 PUSH4 0xA2309FF8 EQ PUSH2 0x3B9 JUMPI DUP1 PUSH4 0xA9059CBB EQ PUSH2 0x387 JUMPI DUP1 PUSH4 0xB028D807 EQ PUSH2 0x2AA JUMPI DUP1 PUSH4 0xC59D4847 EQ PUSH2 0x27B JUMPI DUP1 PUSH4 0xD5391393 EQ PUSH2 0x240 JUMPI DUP1 PUSH4 0xD547741F EQ PUSH2 0x1F8 JUMPI DUP1 PUSH4 0xDD62ED3E EQ PUSH2 0x1A5 JUMPI PUSH4 0xE63AB1E9 EQ PUSH2 0x168 JUMPI PUSH0 DUP1 REVERT JUMPDEST CALLVALUE PUSH2 0x1A2 JUMPI DUP1 PUSH1 0x3 NOT CALLDATASIZE ADD SLT PUSH2 0x1A2 JUMPI PUSH1 0x20 PUSH1 0x40 MLOAD PUSH32 0x65D7A28E3265B37A6474929F336521B332C1681B933F6CB9F3376673440D862A DUP2 MSTORE RETURN JUMPDEST DUP1 REVERT JUMPDEST POP CALLVALUE PUSH2 0x1A2 JUMPI PUSH1 0x40 CALLDATASIZE PUSH1 0x3 NOT ADD SLT PUSH2 0x1A2 JUMPI PUSH1 0x40 PUSH2 0x1C1 PUSH2 0xF6C JUMP JUMPDEST SWAP2 PUSH2 0x1CA PUSH2 0xF82 JUMP JUMPDEST SWAP3 PUSH1 0x1 DUP1 PUSH1 0xA0 SHL SUB AND DUP2 MSTORE PUSH1 0x1 PUSH1 0x20 MSTORE KECCAK256 SWAP1 PUSH1 0x1 DUP1 PUSH1 0xA0 SHL SUB AND PUSH0 MSTORE PUSH1 0x20 MSTORE PUSH1 0x20 PUSH1 0x40 PUSH0 KECCAK256 SLOAD PUSH1 0x40 MLOAD SWAP1 DUP2 MSTORE RETURN JUMPDEST POP CALLVALUE PUSH2 0x1A2 JUMPI PUSH1 0x40 CALLDATASIZE PUSH1 0x3 NOT ADD SLT PUSH2 0x1A2 JUMPI PUSH2 0x23C PUSH1 0x4 CALLDATALOAD PUSH2 0x218 PUSH2 0xF82 JUMP JUMPDEST SWAP1 PUSH2 0x237 PUSH2 0x232 DUP3 PUSH0 MSTORE PUSH1 0x5 PUSH1 0x20 MSTORE PUSH1 0x1 PUSH1 0x40 PUSH0 KECCAK256 ADD SLOAD SWAP1 JUMP JUMPDEST PUSH2 0x11A7 JUMP JUMPDEST PUSH2 0x126D JUMP JUMPDEST POP DUP1 RETURN JUMPDEST POP CALLVALUE PUSH2 0x1A2 JUMPI DUP1 PUSH1 0x3 NOT CALLDATASIZE ADD SLT PUSH2 0x1A2 JUMPI PUSH1 0x20 PUSH1 0x40 MLOAD PUSH32 0x9F2DF0FED2C77648DE5860A4CC508CD0818C85B8B8A1AB4CEEEF8D981C8956A6 DUP2 MSTORE RETURN JUMPDEST POP CALLVALUE PUSH2 0x1A2 JUMPI DUP1 PUSH1 0x3 NOT CALLDATASIZE ADD SLT PUSH2 0x1A2 JUMPI PUSH1 0x60 PUSH1 0x8 SLOAD PUSH1 0x9 SLOAD PUSH1 0x2 SLOAD SWAP1 PUSH1 0x40 MLOAD SWAP3 DUP4 MSTORE PUSH1 0x20 DUP4 ADD MSTORE PUSH1 0x40 DUP3 ADD MSTORE RETURN JUMPDEST POP CALLVALUE PUSH2 0x1A2 JUMPI PUSH1 0x40 CALLDATASIZE PUSH1 0x3 NOT ADD SLT PUSH2 0x1A2 JUMPI PUSH2 0x2C4 PUSH2 0xF6C JUMP JUMPDEST PUSH1 0x24 CALLDATALOAD SWAP1 ADDRESS CALLER SUB PUSH2 0x349 JUMPI PUSH1 0x1 PUSH1 0x1 PUSH1 0xA0 SHL SUB AND SWAP1 DUP2 ISZERO PUSH2 0x335 JUMPI PUSH32 0xDDF252AD1BE2C89B69C2B068FC378DAA952BA7F163C4A11628F55A4DF523B3EF PUSH1 0x20 DUP5 SWAP3 PUSH2 0x30C PUSH2 0x12F1 JUMP JUMPDEST PUSH2 0x318 DUP2 PUSH1 0x2 SLOAD PUSH2 0xFCE JUMP JUMPDEST PUSH1 0x2 SSTORE DUP5 DUP5 MSTORE DUP4 DUP3 MSTORE PUSH1 0x40 DUP5 KECCAK256 DUP2 DUP2 SLOAD ADD SWAP1 SSTORE PUSH1 0x40 MLOAD SWAP1 DUP2 MSTORE LOG3 DUP1 RETURN JUMPDEST PUSH4 0xEC442F05 PUSH1 0xE0 SHL DUP4 MSTORE PUSH1 0x4 DUP4 SWAP1 MSTORE PUSH1 0x24 DUP4 REVERT JUMPDEST PUSH1 0x40 MLOAD PUSH3 0x461BCD PUSH1 0xE5 SHL DUP2 MSTORE PUSH1 0x20 PUSH1 0x4 DUP3 ADD MSTORE PUSH1 0x16 PUSH1 0x24 DUP3 ADD MSTORE PUSH22 0x13DB9B1E481CD95B198B58D85B1B08185B1B1BDDD959 PUSH1 0x52 SHL PUSH1 0x44 DUP3 ADD MSTORE PUSH1 0x64 SWAP1 REVERT JUMPDEST POP CALLVALUE PUSH2 0x1A2 JUMPI PUSH1 0x40 CALLDATASIZE PUSH1 0x3 NOT ADD SLT PUSH2 0x1A2 JUMPI PUSH2 0x3AE PUSH2 0x3A4 PUSH2 0xF6C JUMP JUMPDEST PUSH1 0x24 CALLDATALOAD SWAP1 CALLER PUSH2 0x1073 JUMP JUMPDEST PUSH1 0x20 PUSH1 0x40 MLOAD PUSH1 0x1 DUP2 MSTORE RETURN JUMPDEST POP CALLVALUE PUSH2 0x1A2 JUMPI DUP1 PUSH1 0x3 NOT CALLDATASIZE ADD SLT PUSH2 0x1A2 JUMPI PUSH1 0x20 PUSH1 0x8 SLOAD PUSH1 0x40 MLOAD SWAP1 DUP2 MSTORE RETURN JUMPDEST POP CALLVALUE PUSH2 0x1A2 JUMPI DUP1 PUSH1 0x3 NOT CALLDATASIZE ADD SLT PUSH2 0x1A2 JUMPI PUSH1 0x20 SWAP1 PUSH1 0x40 MLOAD SWAP1 DUP2 MSTORE RETURN JUMPDEST POP CALLVALUE PUSH2 0x1A2 JUMPI DUP1 PUSH1 0x3 NOT CALLDATASIZE ADD SLT PUSH2 0x1A2 JUMPI PUSH1 0x40 MLOAD SWAP1 DUP1 PUSH1 0x4 SLOAD SWAP1 DUP2 PUSH1 0x1 SHR SWAP2 PUSH1 0x1 DUP2 AND DUP1 ISZERO PUSH2 0x4FA JUMPI JUMPDEST PUSH1 0x20 DUP5 LT DUP2 EQ PUSH2 0x4E6 JUMPI DUP4 DUP7 MSTORE SWAP1 DUP2 ISZERO PUSH2 0x4BF JUMPI POP PUSH1 0x1 EQ PUSH2 0x462 JUMPI JUMPDEST PUSH2 0x45E DUP5 PUSH2 0x44A DUP2 DUP7 SUB DUP3 PUSH2 0xF98 JUMP JUMPDEST PUSH1 0x40 MLOAD SWAP2 DUP3 SWAP2 PUSH1 0x20 DUP4 MSTORE PUSH1 0x20 DUP4 ADD SWAP1 PUSH2 0xF48 JUMP JUMPDEST SUB SWAP1 RETURN JUMPDEST PUSH1 0x4 DUP2 MSTORE PUSH32 0x8A35ACFBC15FF81A39AE7D344FD709F28E8600B4AA8C65C6B64BFE7FE36BD19B SWAP4 SWAP3 POP SWAP1 JUMPDEST DUP1 DUP3 LT PUSH2 0x4A5 JUMPI POP SWAP1 SWAP2 POP DUP2 ADD PUSH1 0x20 ADD PUSH2 0x44A DUP3 PUSH2 0x43A JUMP JUMPDEST SWAP2 SWAP3 PUSH1 0x1 DUP2 PUSH1 0x20 SWAP3 SLOAD DUP4 DUP6 DUP9 ADD ADD MSTORE ADD SWAP2 ADD SWAP1 SWAP3 SWAP2 PUSH2 0x48C JUMP JUMPDEST PUSH1 0xFF NOT AND PUSH1 0x20 DUP1 DUP8 ADD SWAP2 SWAP1 SWAP2 MSTORE SWAP3 ISZERO ISZERO PUSH1 0x5 SHL DUP6 ADD SWAP1 SWAP3 ADD SWAP3 POP PUSH2 0x44A SWAP2 POP DUP4 SWAP1 POP PUSH2 0x43A JUMP JUMPDEST PUSH4 0x4E487B71 PUSH1 0xE0 SHL DUP4 MSTORE PUSH1 0x22 PUSH1 0x4 MSTORE PUSH1 0x24 DUP4 REVERT JUMPDEST SWAP3 PUSH1 0x7F AND SWAP3 PUSH2 0x41D JUMP JUMPDEST POP CALLVALUE PUSH2 0x1A2 JUMPI PUSH1 0x40 CALLDATASIZE PUSH1 0x3 NOT ADD SLT PUSH2 0x1A2 JUMPI PUSH1 0x40 PUSH2 0x520 PUSH2 0xF82 JUMP JUMPDEST SWAP2 PUSH1 0x4 CALLDATALOAD DUP2 MSTORE PUSH1 0x5 PUSH1 0x20 MSTORE KECCAK256 SWAP1 PUSH1 0x1 DUP1 PUSH1 0xA0 SHL SUB AND PUSH0 MSTORE PUSH1 0x20 MSTORE PUSH1 0x20 PUSH1 0xFF PUSH1 0x40 PUSH0 KECCAK256 SLOAD AND PUSH1 0x40 MLOAD SWAP1 ISZERO ISZERO DUP2 MSTORE RETURN JUMPDEST POP CALLVALUE PUSH2 0x1A2 JUMPI DUP1 PUSH1 0x3 NOT CALLDATASIZE ADD SLT PUSH2 0x1A2 JUMPI PUSH2 0x567 PUSH2 0x1138 JUMP JUMPDEST PUSH2 0x56F PUSH2 0x12F1 JUMP JUMPDEST PUSH1 0x1 PUSH1 0xFF NOT PUSH1 0x6 SLOAD AND OR PUSH1 0x6 SSTORE PUSH32 0x62E78CEA01BEE320CD4E420270B5EA74000D11B0C9F74754EBDBFC544B05A258 PUSH1 0x20 PUSH1 0x40 MLOAD CALLER DUP2 MSTORE LOG1 DUP1 RETURN JUMPDEST POP CALLVALUE PUSH2 0x1A2 JUMPI PUSH1 0x40 CALLDATASIZE PUSH1 0x3 NOT ADD SLT PUSH2 0x1A2 JUMPI PUSH2 0x5C3 PUSH2 0xF6C JUMP JUMPDEST PUSH32 0x3C11D16CBAFFD01DF69CE1C404F6340EE057498F5F00246190EA54220576A848 DUP3 MSTORE PUSH1 0x5 PUSH1 0x20 SWAP1 DUP2 MSTORE PUSH1 0x40 DUP1 DUP5 KECCAK256 CALLER PUSH0 SWAP1 DUP2 MSTORE SWAP3 MSTORE SWAP1 KECCAK256 SLOAD PUSH1 0x24 CALLDATALOAD SWAP2 SWAP1 PUSH1 0xFF AND ISZERO PUSH2 0x6BE JUMPI PUSH2 0x611 PUSH2 0x12F1 JUMP JUMPDEST PUSH2 0x619 PUSH2 0x130C JUMP JUMPDEST DUP2 ISZERO PUSH2 0x6AF JUMPI PUSH1 0x1 DUP1 PUSH1 0xA0 SHL SUB DUP2 AND SWAP1 DUP2 DUP5 MSTORE DUP4 PUSH1 0x20 MSTORE DUP3 PUSH1 0x40 DUP6 KECCAK256 SLOAD LT PUSH2 0x688 JUMPI DUP3 PUSH2 0x654 SWAP2 PUSH2 0x64C DUP3 PUSH1 0x9 SLOAD PUSH2 0xFCE JUMP JUMPDEST PUSH1 0x9 SSTORE PUSH2 0x132C JUMP JUMPDEST PUSH1 0x40 MLOAD SWAP2 DUP3 MSTORE PUSH32 0x8009940FB138AE33FBB70C10B643E840C71F1654344CC173975A815E117E687 PUSH1 0x20 CALLER SWAP4 LOG3 PUSH1 0x1 PUSH1 0x7 SSTORE DUP1 RETURN JUMPDEST POP DUP3 SWAP2 DUP2 PUSH1 0x64 SWAP5 MSTORE DUP3 PUSH1 0x20 MSTORE PUSH1 0x40 DUP4 KECCAK256 SLOAD SWAP2 PUSH4 0xDB42144D PUSH1 0xE0 SHL DUP5 MSTORE PUSH1 0x4 MSTORE PUSH1 0x24 MSTORE PUSH1 0x44 MSTORE REVERT JUMPDEST PUSH4 0x1F2A2005 PUSH1 0xE0 SHL DUP4 MSTORE PUSH1 0x4 DUP4 REVERT JUMPDEST PUSH4 0xE2517D3F PUSH1 0xE0 SHL DUP4 MSTORE CALLER PUSH1 0x4 MSTORE PUSH32 0x3C11D16CBAFFD01DF69CE1C404F6340EE057498F5F00246190EA54220576A848 PUSH1 0x24 MSTORE PUSH1 0x44 DUP4 REVERT JUMPDEST POP CALLVALUE PUSH2 0x1A2 JUMPI PUSH1 0x20 CALLDATASIZE PUSH1 0x3 NOT ADD SLT PUSH2 0x1A2 JUMPI PUSH1 0x20 SWAP1 PUSH1 0x40 SWAP1 PUSH1 0x1 PUSH1 0x1 PUSH1 0xA0 SHL SUB PUSH2 0x71D PUSH2 0xF6C JUMP JUMPDEST AND DUP2 MSTORE DUP1 DUP4 MSTORE KECCAK256 SLOAD PUSH1 0x40 MLOAD SWAP1 DUP2 MSTORE RETURN JUMPDEST POP CALLVALUE PUSH2 0x1A2 JUMPI DUP1 PUSH1 0x3 NOT CALLDATASIZE ADD SLT PUSH2 0x1A2 JUMPI PUSH1 0x20 PUSH1 0x2 SLOAD PUSH1 0x40 MLOAD SWAP1 DUP2 MSTORE RETURN JUMPDEST POP CALLVALUE PUSH2 0x1A2 JUMPI DUP1 PUSH1 0x3 NOT CALLDATASIZE ADD SLT PUSH2 0x1A2 JUMPI PUSH1 0x20 PUSH1 0xFF PUSH1 0x6 SLOAD AND PUSH1 0x40 MLOAD SWAP1 ISZERO ISZERO DUP2 MSTORE RETURN JUMPDEST POP CALLVALUE PUSH2 0x1A2 JUMPI PUSH1 0x20 CALLDATASIZE PUSH1 0x3 NOT ADD SLT PUSH2 0x1A2 JUMPI PUSH1 0x4 CALLDATALOAD PUSH2 0x78B PUSH2 0x12F1 JUMP JUMPDEST PUSH2 0x793 PUSH2 0x130C JUMP JUMPDEST DUP1 ISZERO PUSH2 0x821 JUMPI CALLER DUP3 MSTORE DUP2 PUSH1 0x20 MSTORE DUP1 PUSH1 0x40 DUP4 KECCAK256 SLOAD LT PUSH2 0x7FA JUMPI PUSH2 0x7B7 DUP2 PUSH1 0x9 SLOAD PUSH2 0xFCE JUMP JUMPDEST PUSH1 0x9 SSTORE PUSH2 0x7C4 DUP2 CALLER PUSH2 0x132C JUMP JUMPDEST PUSH1 0x40 MLOAD SWAP1 DUP2 MSTORE CALLER SWAP1 PUSH32 0x8009940FB138AE33FBB70C10B643E840C71F1654344CC173975A815E117E687 PUSH1 0x20 CALLER SWAP3 LOG3 PUSH1 0x1 PUSH1 0x7 SSTORE DUP1 RETURN JUMPDEST SWAP1 PUSH1 0x64 SWAP2 CALLER DUP3 MSTORE DUP2 PUSH1 0x20 MSTORE PUSH1 0x40 DUP3 KECCAK256 SLOAD SWAP1 PUSH4 0xDB42144D PUSH1 0xE0 SHL DUP4 MSTORE CALLER PUSH1 0x4 MSTORE PUSH1 0x24 MSTORE PUSH1 0x44 MSTORE REVERT JUMPDEST PUSH4 0x1F2A2005 PUSH1 0xE0 SHL DUP3 MSTORE PUSH1 0x4 DUP3 REVERT JUMPDEST POP CALLVALUE PUSH2 0xA2D JUMPI PUSH1 0x40 CALLDATASIZE PUSH1 0x3 NOT ADD SLT PUSH2 0xA2D JUMPI PUSH2 0x84A PUSH2 0xF6C JUMP JUMPDEST CALLER PUSH0 SWAP1 DUP2 MSTORE PUSH32 0x15A28D26FA1BF736CF7EDC9922607171CCB09C3C73B808E7772A3013E068A522 PUSH1 0x20 MSTORE PUSH1 0x40 SWAP1 KECCAK256 SLOAD PUSH1 0x24 CALLDATALOAD SWAP3 SWAP2 SWAP1 PUSH1 0xFF AND ISZERO PUSH2 0xABD JUMPI PUSH2 0x88E PUSH2 0x12F1 JUMP JUMPDEST PUSH2 0x896 PUSH2 0x130C JUMP JUMPDEST PUSH1 0x1 PUSH1 0x1 PUSH1 0xA0 SHL SUB AND SWAP1 DUP2 ISZERO PUSH2 0xAAE JUMPI DUP3 ISZERO PUSH2 0xA9F JUMPI ADDRESS DUP3 EQ PUSH2 0xA53 JUMPI PUSH2 0x8BF DUP4 PUSH1 0x2 SLOAD PUSH2 0xFCE JUMP JUMPDEST PUSH1 0x1 PUSH1 0x1 PUSH1 0xFF SHL SUB DUP2 GT PUSH2 0xA31 JUMPI POP PUSH2 0x8DA DUP4 PUSH1 0x8 SLOAD PUSH2 0xFCE JUMP JUMPDEST PUSH1 0x8 SSTORE ADDRESS EXTCODESIZE ISZERO PUSH2 0xA2D JUMPI PUSH1 0x40 MLOAD PUSH4 0xB028D807 PUSH1 0xE0 SHL DUP2 MSTORE DUP3 PUSH1 0x4 DUP3 ADD MSTORE DUP4 PUSH1 0x24 DUP3 ADD MSTORE PUSH0 DUP2 PUSH1 0x44 DUP2 DUP4 ADDRESS GAS CALL SWAP1 DUP2 PUSH2 0xA18 JUMPI JUMPDEST POP PUSH2 0x9E2 JUMPI DUP1 PUSH1 0x3 RETURNDATASIZE GT PUSH2 0x9D1 JUMPI JUMPDEST POP PUSH4 0x8C379A0 EQ PUSH2 0x97E JUMPI JUMPDEST DUP2 PUSH2 0x937 PUSH1 0xA4 SWAP4 PUSH1 0x8 SLOAD PUSH2 0x1066 JUMP JUMPDEST POP PUSH1 0x40 MLOAD SWAP2 PUSH4 0xE6921FC1 PUSH1 0xE0 SHL DUP4 MSTORE PUSH1 0x4 DUP4 ADD MSTORE PUSH1 0x24 DUP3 ADD MSTORE PUSH1 0x60 PUSH1 0x44 DUP3 ADD MSTORE PUSH1 0x15 PUSH1 0x64 DUP3 ADD MSTORE PUSH21 0x2AB735B737BBB71036B4B73A34B7339032B93937B9 PUSH1 0x59 SHL PUSH1 0x84 DUP3 ADD MSTORE REVERT JUMPDEST PUSH2 0x986 PUSH2 0xFEF JUMP JUMPDEST DUP1 PUSH2 0x991 JUMPI POP PUSH2 0x928 JUMP JUMPDEST PUSH2 0x9CD SWAP1 PUSH2 0x9A1 DUP5 PUSH1 0x8 SLOAD PUSH2 0x1066 JUMP JUMPDEST POP PUSH1 0x40 MLOAD SWAP4 DUP5 SWAP4 PUSH4 0xE6921FC1 PUSH1 0xE0 SHL DUP6 MSTORE PUSH1 0x4 DUP6 ADD MSTORE PUSH1 0x24 DUP5 ADD MSTORE PUSH1 0x60 PUSH1 0x44 DUP5 ADD MSTORE PUSH1 0x64 DUP4 ADD SWAP1 PUSH2 0xF48 JUMP JUMPDEST SUB SWAP1 REVERT JUMPDEST SWAP1 POP PUSH1 0x4 DUP2 DUP1 RETURNDATACOPY MLOAD PUSH1 0xE0 SHR PUSH0 PUSH2 0x91C JUMP JUMPDEST SWAP2 SWAP1 PUSH1 0x40 MLOAD SWAP2 DUP3 MSTORE PUSH32 0x969CD201F68F120BAFF2BF3C59BC3B534434E08B69A71A14AB85CB79CD3B63E4 PUSH1 0x20 CALLER SWAP4 LOG3 PUSH1 0x1 PUSH1 0x7 SSTORE DUP1 RETURN JUMPDEST PUSH2 0xA25 SWAP2 SWAP3 POP PUSH0 SWAP1 PUSH2 0xF98 JUMP JUMPDEST PUSH0 SWAP1 PUSH0 PUSH2 0x90D JUMP JUMPDEST PUSH0 DUP1 REVERT JUMPDEST PUSH4 0x594A20B7 PUSH1 0xE0 SHL PUSH0 SWAP1 DUP2 MSTORE PUSH1 0x4 SWAP2 SWAP1 SWAP2 MSTORE PUSH1 0x1 PUSH1 0x1 PUSH1 0xFF SHL SUB PUSH1 0x24 MSTORE PUSH1 0x44 SWAP1 REVERT JUMPDEST PUSH1 0x84 DUP3 PUSH1 0x40 MLOAD SWAP1 PUSH4 0xF7693C3D PUSH1 0xE0 SHL DUP3 MSTORE PUSH1 0x4 DUP3 ADD MSTORE PUSH1 0x40 PUSH1 0x24 DUP3 ADD MSTORE PUSH1 0x1E PUSH1 0x44 DUP3 ADD MSTORE PUSH32 0x43616E6E6F74206D696E7420746F20636F6E747261637420697473656C660000 PUSH1 0x64 DUP3 ADD MSTORE REVERT JUMPDEST PUSH4 0x1F2A2005 PUSH1 0xE0 SHL PUSH0 MSTORE PUSH1 0x4 PUSH0 REVERT JUMPDEST PUSH4 0xD92E233D PUSH1 0xE0 SHL PUSH0 MSTORE PUSH1 0x4 PUSH0 REVERT JUMPDEST PUSH4 0xE2517D3F PUSH1 0xE0 SHL PUSH0 MSTORE CALLER PUSH1 0x4 MSTORE PUSH32 0x9F2DF0FED2C77648DE5860A4CC508CD0818C85B8B8A1AB4CEEEF8D981C8956A6 PUSH1 0x24 MSTORE PUSH1 0x44 PUSH0 REVERT JUMPDEST CALLVALUE PUSH2 0xA2D JUMPI PUSH0 CALLDATASIZE PUSH1 0x3 NOT ADD SLT PUSH2 0xA2D JUMPI PUSH2 0xB0C PUSH2 0x1138 JUMP JUMPDEST PUSH1 0x6 SLOAD PUSH1 0xFF DUP2 AND ISZERO PUSH2 0xB4B JUMPI PUSH1 0xFF NOT AND PUSH1 0x6 SSTORE PUSH32 0x5DB9EE0A495BF2E6FF9C91A7834C1BA4FDD244A5E8AA4E537BD38AEAE4B073AA PUSH1 0x20 PUSH1 0x40 MLOAD CALLER DUP2 MSTORE LOG1 STOP JUMPDEST PUSH4 0x8DFC202B PUSH1 0xE0 SHL PUSH0 MSTORE PUSH1 0x4 PUSH0 REVERT JUMPDEST CALLVALUE PUSH2 0xA2D JUMPI PUSH1 0x40 CALLDATASIZE PUSH1 0x3 NOT ADD SLT PUSH2 0xA2D JUMPI PUSH2 0xB73 PUSH2 0xF82 JUMP JUMPDEST CALLER PUSH1 0x1 PUSH1 0x1 PUSH1 0xA0 SHL SUB DUP3 AND SUB PUSH2 0xB91 JUMPI PUSH2 0xB8F SWAP1 PUSH1 0x4 CALLDATALOAD PUSH2 0x126D JUMP JUMPDEST STOP JUMPDEST PUSH4 0x334BD919 PUSH1 0xE1 SHL PUSH0 MSTORE PUSH1 0x4 PUSH0 REVERT JUMPDEST CALLVALUE PUSH2 0xA2D JUMPI PUSH0 CALLDATASIZE PUSH1 0x3 NOT ADD SLT PUSH2 0xA2D JUMPI PUSH1 0x20 PUSH1 0x9 SLOAD PUSH1 0x40 MLOAD SWAP1 DUP2 MSTORE RETURN JUMPDEST CALLVALUE PUSH2 0xA2D JUMPI PUSH0 CALLDATASIZE PUSH1 0x3 NOT ADD SLT PUSH2 0xA2D JUMPI PUSH1 0x20 PUSH1 0x40 MLOAD PUSH1 0x12 DUP2 MSTORE RETURN JUMPDEST CALLVALUE PUSH2 0xA2D JUMPI PUSH1 0x40 CALLDATASIZE PUSH1 0x3 NOT ADD SLT PUSH2 0xA2D JUMPI PUSH2 0xB8F PUSH1 0x4 CALLDATALOAD PUSH2 0xBF7 PUSH2 0xF82 JUMP JUMPDEST SWAP1 PUSH2 0xC11 PUSH2 0x232 DUP3 PUSH0 MSTORE PUSH1 0x5 PUSH1 0x20 MSTORE PUSH1 0x1 PUSH1 0x40 PUSH0 KECCAK256 ADD SLOAD SWAP1 JUMP JUMPDEST PUSH2 0x11E1 JUMP JUMPDEST CALLVALUE PUSH2 0xA2D JUMPI PUSH0 CALLDATASIZE PUSH1 0x3 NOT ADD SLT PUSH2 0xA2D JUMPI PUSH1 0x20 PUSH1 0x40 MLOAD PUSH32 0x3C11D16CBAFFD01DF69CE1C404F6340EE057498F5F00246190EA54220576A848 DUP2 MSTORE RETURN JUMPDEST CALLVALUE PUSH2 0xA2D JUMPI PUSH1 0x20 CALLDATASIZE PUSH1 0x3 NOT ADD SLT PUSH2 0xA2D JUMPI PUSH1 0x20 PUSH2 0xC7B PUSH1 0x4 CALLDATALOAD PUSH0 MSTORE PUSH1 0x5 PUSH1 0x20 MSTORE PUSH1 0x1 PUSH1 0x40 PUSH0 KECCAK256 ADD SLOAD SWAP1 JUMP JUMPDEST PUSH1 0x40 MLOAD SWAP1 DUP2 MSTORE RETURN JUMPDEST CALLVALUE PUSH2 0xA2D JUMPI PUSH1 0x60 CALLDATASIZE PUSH1 0x3 NOT ADD SLT PUSH2 0xA2D JUMPI PUSH2 0xC9C PUSH2 0xF6C JUMP JUMPDEST PUSH2 0xCA4 PUSH2 0xF82 JUMP JUMPDEST PUSH1 0x1 PUSH1 0x1 PUSH1 0xA0 SHL SUB DUP3 AND PUSH0 DUP2 DUP2 MSTORE PUSH1 0x1 PUSH1 0x20 SWAP1 DUP2 MSTORE PUSH1 0x40 DUP1 DUP4 KECCAK256 CALLER DUP5 MSTORE SWAP1 SWAP2 MSTORE SWAP1 KECCAK256 SLOAD SWAP1 SWAP3 PUSH1 0x44 CALLDATALOAD SWAP3 SWAP2 PUSH0 NOT DUP2 LT PUSH2 0xCE2 JUMPI JUMPDEST POP PUSH2 0x3AE SWAP4 POP PUSH2 0x1073 JUMP JUMPDEST DUP4 DUP2 LT PUSH2 0xD47 JUMPI DUP5 ISZERO PUSH2 0xD34 JUMPI CALLER ISZERO PUSH2 0xD21 JUMPI PUSH2 0x3AE SWAP5 PUSH0 MSTORE PUSH1 0x1 PUSH1 0x20 MSTORE PUSH1 0x40 PUSH0 KECCAK256 PUSH1 0x1 DUP1 PUSH1 0xA0 SHL SUB CALLER AND PUSH0 MSTORE PUSH1 0x20 MSTORE DUP4 PUSH1 0x40 PUSH0 KECCAK256 SWAP2 SUB SWAP1 SSTORE DUP5 PUSH2 0xCD7 JUMP JUMPDEST PUSH4 0x4A1406B1 PUSH1 0xE1 SHL PUSH0 MSTORE PUSH0 PUSH1 0x4 MSTORE PUSH1 0x24 PUSH0 REVERT JUMPDEST PUSH4 0xE602DF05 PUSH1 0xE0 SHL PUSH0 MSTORE PUSH0 PUSH1 0x4 MSTORE PUSH1 0x24 PUSH0 REVERT JUMPDEST DUP4 SWAP1 PUSH4 0x7DC7A0D9 PUSH1 0xE1 SHL PUSH0 MSTORE CALLER PUSH1 0x4 MSTORE PUSH1 0x24 MSTORE PUSH1 0x44 MSTORE PUSH1 0x64 PUSH0 REVERT JUMPDEST CALLVALUE PUSH2 0xA2D JUMPI PUSH0 CALLDATASIZE PUSH1 0x3 NOT ADD SLT PUSH2 0xA2D JUMPI PUSH1 0x20 PUSH1 0x2 SLOAD PUSH1 0x40 MLOAD SWAP1 DUP2 MSTORE RETURN JUMPDEST CALLVALUE PUSH2 0xA2D JUMPI PUSH1 0x40 CALLDATASIZE PUSH1 0x3 NOT ADD SLT PUSH2 0xA2D JUMPI PUSH2 0xD98 PUSH2 0xF6C JUMP JUMPDEST PUSH1 0x24 CALLDATALOAD SWAP1 CALLER ISZERO PUSH2 0xD34 JUMPI PUSH1 0x1 PUSH1 0x1 PUSH1 0xA0 SHL SUB AND SWAP1 DUP2 ISZERO PUSH2 0xD21 JUMPI CALLER PUSH0 MSTORE PUSH1 0x1 PUSH1 0x20 MSTORE PUSH1 0x40 PUSH0 KECCAK256 DUP3 PUSH0 MSTORE PUSH1 0x20 MSTORE DUP1 PUSH1 0x40 PUSH0 KECCAK256 SSTORE PUSH1 0x40 MLOAD SWAP1 DUP2 MSTORE PUSH32 0x8C5BE1E5EBEC7D5BD14F71427D1E84F3DD0314C0F7B2291E5B200AC8C7C3B925 PUSH1 0x20 CALLER SWAP3 LOG3 PUSH1 0x20 PUSH1 0x40 MLOAD PUSH1 0x1 DUP2 MSTORE RETURN JUMPDEST CALLVALUE PUSH2 0xA2D JUMPI PUSH0 CALLDATASIZE PUSH1 0x3 NOT ADD SLT PUSH2 0xA2D JUMPI PUSH1 0x40 MLOAD PUSH0 PUSH1 0x3 SLOAD DUP1 PUSH1 0x1 SHR SWAP1 PUSH1 0x1 DUP2 AND DUP1 ISZERO PUSH2 0xEEB JUMPI JUMPDEST PUSH1 0x20 DUP4 LT DUP2 EQ PUSH2 0xED7 JUMPI DUP3 DUP6 MSTORE SWAP1 DUP2 ISZERO PUSH2 0xEB3 JUMPI POP PUSH1 0x1 EQ PUSH2 0xE55 JUMPI JUMPDEST PUSH2 0x45E DUP4 PUSH2 0x44A DUP2 DUP6 SUB DUP3 PUSH2 0xF98 JUMP JUMPDEST SWAP2 SWAP1 POP PUSH1 0x3 PUSH0 MSTORE PUSH32 0xC2575A0E9E593C00F959F8C92F12DB2869C3395A3B0502D05E2516446F71F85B SWAP2 PUSH0 SWAP1 JUMPDEST DUP1 DUP3 LT PUSH2 0xE99 JUMPI POP SWAP1 SWAP2 POP DUP2 ADD PUSH1 0x20 ADD PUSH2 0x44A PUSH2 0xE45 JUMP JUMPDEST SWAP2 SWAP3 PUSH1 0x1 DUP2 PUSH1 0x20 SWAP3 SLOAD DUP4 DUP6 DUP9 ADD ADD MSTORE ADD SWAP2 ADD SWAP1 SWAP3 SWAP2 PUSH2 0xE81 JUMP JUMPDEST PUSH1 0xFF NOT AND PUSH1 0x20 DUP1 DUP7 ADD SWAP2 SWAP1 SWAP2 MSTORE SWAP2 ISZERO ISZERO PUSH1 0x5 SHL DUP5 ADD SWAP1 SWAP2 ADD SWAP2 POP PUSH2 0x44A SWAP1 POP PUSH2 0xE45 JUMP JUMPDEST PUSH4 0x4E487B71 PUSH1 0xE0 SHL PUSH0 MSTORE PUSH1 0x22 PUSH1 0x4 MSTORE PUSH1 0x24 PUSH0 REVERT JUMPDEST SWAP2 PUSH1 0x7F AND SWAP2 PUSH2 0xE28 JUMP JUMPDEST CALLVALUE PUSH2 0xA2D JUMPI PUSH1 0x20 CALLDATASIZE PUSH1 0x3 NOT ADD SLT PUSH2 0xA2D JUMPI PUSH1 0x4 CALLDATALOAD SWAP1 PUSH4 0xFFFFFFFF PUSH1 0xE0 SHL DUP3 AND DUP1 SWAP3 SUB PUSH2 0xA2D JUMPI PUSH1 0x20 SWAP2 PUSH4 0x7965DB0B PUSH1 0xE0 SHL DUP2 EQ SWAP1 DUP2 ISZERO PUSH2 0xF37 JUMPI JUMPDEST POP ISZERO ISZERO DUP2 MSTORE RETURN JUMPDEST PUSH4 0x1FFC9A7 PUSH1 0xE0 SHL EQ SWAP1 POP DUP4 PUSH2 0xF30 JUMP JUMPDEST DUP1 MLOAD DUP1 DUP4 MSTORE PUSH1 0x20 SWAP3 SWAP2 DUP2 SWAP1 DUP5 ADD DUP5 DUP5 ADD MCOPY PUSH0 DUP3 DUP3 ADD DUP5 ADD MSTORE PUSH1 0x1F ADD PUSH1 0x1F NOT AND ADD ADD SWAP1 JUMP JUMPDEST PUSH1 0x4 CALLDATALOAD SWAP1 PUSH1 0x1 PUSH1 0x1 PUSH1 0xA0 SHL SUB DUP3 AND DUP3 SUB PUSH2 0xA2D JUMPI JUMP JUMPDEST PUSH1 0x24 CALLDATALOAD SWAP1 PUSH1 0x1 PUSH1 0x1 PUSH1 0xA0 SHL SUB DUP3 AND DUP3 SUB PUSH2 0xA2D JUMPI JUMP JUMPDEST SWAP1 PUSH1 0x1F DUP1 NOT SWAP2 ADD AND DUP2 ADD SWAP1 DUP2 LT PUSH8 0xFFFFFFFFFFFFFFFF DUP3 GT OR PUSH2 0xFBA JUMPI PUSH1 0x40 MSTORE JUMP JUMPDEST PUSH4 0x4E487B71 PUSH1 0xE0 SHL PUSH0 MSTORE PUSH1 0x41 PUSH1 0x4 MSTORE PUSH1 0x24 PUSH0 REVERT JUMPDEST SWAP2 SWAP1 DUP3 ADD DUP1 SWAP3 GT PUSH2 0xFDB JUMPI JUMP JUMPDEST PUSH4 0x4E487B71 PUSH1 0xE0 SHL PUSH0 MSTORE PUSH1 0x11 PUSH1 0x4 MSTORE PUSH1 0x24 PUSH0 REVERT JUMPDEST PUSH0 PUSH1 0x44 RETURNDATASIZE LT PUSH2 0x1055 JUMPI PUSH1 0x40 MLOAD RETURNDATASIZE PUSH1 0x3 NOT ADD PUSH1 0x4 DUP3 RETURNDATACOPY DUP1 MLOAD SWAP2 RETURNDATASIZE PUSH1 0x24 DUP5 ADD GT PUSH8 0xFFFFFFFFFFFFFFFF DUP5 GT OR PUSH2 0x1060 JUMPI DUP3 DUP3 ADD SWAP3 DUP4 MLOAD SWAP2 PUSH8 0xFFFFFFFFFFFFFFFF DUP4 GT PUSH2 0x1058 JUMPI RETURNDATASIZE DUP5 ADD PUSH1 0x3 NOT ADD DUP6 DUP5 ADD PUSH1 0x20 ADD GT PUSH2 0x1058 JUMPI POP PUSH2 0x1055 SWAP3 SWAP2 ADD PUSH1 0x20 ADD SWAP1 PUSH2 0xF98 JUMP JUMPDEST SWAP1 JUMP JUMPDEST SWAP5 SWAP4 POP POP POP POP JUMP JUMPDEST SWAP3 SWAP2 POP POP JUMP JUMPDEST SWAP2 SWAP1 DUP3 SUB SWAP2 DUP3 GT PUSH2 0xFDB JUMPI JUMP JUMPDEST PUSH1 0x1 PUSH1 0x1 PUSH1 0xA0 SHL SUB AND SWAP1 DUP2 ISZERO PUSH2 0x1125 JUMPI PUSH1 0x1 PUSH1 0x1 PUSH1 0xA0 SHL SUB AND SWAP2 DUP3 ISZERO PUSH2 0x1112 JUMPI PUSH2 0x109B PUSH2 0x12F1 JUMP JUMPDEST DUP2 PUSH0 MSTORE PUSH0 PUSH1 0x20 MSTORE PUSH1 0x40 PUSH0 KECCAK256 SLOAD DUP2 DUP2 LT PUSH2 0x10F9 JUMPI DUP2 PUSH32 0xDDF252AD1BE2C89B69C2B068FC378DAA952BA7F163C4A11628F55A4DF523B3EF SWAP3 PUSH1 0x20 SWAP3 DUP6 PUSH0 MSTORE PUSH0 DUP5 MSTORE SUB PUSH1 0x40 PUSH0 KECCAK256 SSTORE DUP5 PUSH0 MSTORE PUSH0 DUP3 MSTORE PUSH1 0x40 PUSH0 KECCAK256 DUP2 DUP2 SLOAD ADD SWAP1 SSTORE PUSH1 0x40 MLOAD SWAP1 DUP2 MSTORE LOG3 JUMP JUMPDEST DUP3 PUSH4 0x391434E3 PUSH1 0xE2 SHL PUSH0 MSTORE PUSH1 0x4 MSTORE PUSH1 0x24 MSTORE PUSH1 0x44 MSTORE PUSH1 0x64 PUSH0 REVERT JUMPDEST PUSH4 0xEC442F05 PUSH1 0xE0 SHL PUSH0 MSTORE PUSH0 PUSH1 0x4 MSTORE PUSH1 0x24 PUSH0 REVERT JUMPDEST PUSH4 0x4B637E8F PUSH1 0xE1 SHL PUSH0 MSTORE PUSH0 PUSH1 0x4 MSTORE PUSH1 0x24 PUSH0 REVERT JUMPDEST CALLER PUSH0 SWAP1 DUP2 MSTORE PUSH32 0x99F2891DB7A8DB76249871A02B43B68C0BB8F22EF8A3BC1034AE9375EF6B7C3C PUSH1 0x20 MSTORE PUSH1 0x40 SWAP1 KECCAK256 SLOAD PUSH1 0xFF AND ISZERO PUSH2 0x1170 JUMPI JUMP JUMPDEST PUSH4 0xE2517D3F PUSH1 0xE0 SHL PUSH0 MSTORE CALLER PUSH1 0x4 MSTORE PUSH32 0x65D7A28E3265B37A6474929F336521B332C1681B933F6CB9F3376673440D862A PUSH1 0x24 MSTORE PUSH1 0x44 PUSH0 REVERT JUMPDEST PUSH0 DUP2 DUP2 MSTORE PUSH1 0x5 PUSH1 0x20 SWAP1 DUP2 MSTORE PUSH1 0x40 DUP1 DUP4 KECCAK256 CALLER DUP5 MSTORE SWAP1 SWAP2 MSTORE SWAP1 KECCAK256 SLOAD PUSH1 0xFF AND ISZERO PUSH2 0x11CB JUMPI POP JUMP JUMPDEST PUSH4 0xE2517D3F PUSH1 0xE0 SHL PUSH0 MSTORE CALLER PUSH1 0x4 MSTORE PUSH1 0x24 MSTORE PUSH1 0x44 PUSH0 REVERT JUMPDEST PUSH0 DUP2 DUP2 MSTORE PUSH1 0x5 PUSH1 0x20 SWAP1 DUP2 MSTORE PUSH1 0x40 DUP1 DUP4 KECCAK256 PUSH1 0x1 PUSH1 0x1 PUSH1 0xA0 SHL SUB DUP7 AND DUP5 MSTORE SWAP1 SWAP2 MSTORE SWAP1 KECCAK256 SLOAD PUSH1 0xFF AND PUSH2 0x1267 JUMPI PUSH0 DUP2 DUP2 MSTORE PUSH1 0x5 PUSH1 0x20 SWAP1 DUP2 MSTORE PUSH1 0x40 DUP1 DUP4 KECCAK256 PUSH1 0x1 PUSH1 0x1 PUSH1 0xA0 SHL SUB SWAP6 SWAP1 SWAP6 AND DUP1 DUP5 MSTORE SWAP5 SWAP1 SWAP2 MSTORE DUP2 KECCAK256 DUP1 SLOAD PUSH1 0xFF NOT AND PUSH1 0x1 OR SWAP1 SSTORE CALLER SWAP3 SWAP2 SWAP1 PUSH32 0x2F8788117E7EFF1D82E926EC794901D17C78024A50270940304540A733656F0D SWAP1 DUP1 LOG4 PUSH1 0x1 SWAP1 JUMP JUMPDEST POP POP PUSH0 SWAP1 JUMP JUMPDEST PUSH0 DUP2 DUP2 MSTORE PUSH1 0x5 PUSH1 0x20 SWAP1 DUP2 MSTORE PUSH1 0x40 DUP1 DUP4 KECCAK256 PUSH1 0x1 PUSH1 0x1 PUSH1 0xA0 SHL SUB DUP7 AND DUP5 MSTORE SWAP1 SWAP2 MSTORE SWAP1 KECCAK256 SLOAD PUSH1 0xFF AND ISZERO PUSH2 0x1267 JUMPI PUSH0 DUP2 DUP2 MSTORE PUSH1 0x5 PUSH1 0x20 SWAP1 DUP2 MSTORE PUSH1 0x40 DUP1 DUP4 KECCAK256 PUSH1 0x1 PUSH1 0x1 PUSH1 0xA0 SHL SUB SWAP6 SWAP1 SWAP6 AND DUP1 DUP5 MSTORE SWAP5 SWAP1 SWAP2 MSTORE DUP2 KECCAK256 DUP1 SLOAD PUSH1 0xFF NOT AND SWAP1 SSTORE CALLER SWAP3 SWAP2 SWAP1 PUSH32 0xF6391F5C32D9C69D2A47EA670B442974B53935D1EDC7FD64EB21E047A839171B SWAP1 DUP1 LOG4 PUSH1 0x1 SWAP1 JUMP JUMPDEST PUSH1 0xFF PUSH1 0x6 SLOAD AND PUSH2 0x12FD JUMPI JUMP JUMPDEST PUSH4 0xD93C0665 PUSH1 0xE0 SHL PUSH0 MSTORE PUSH1 0x4 PUSH0 REVERT JUMPDEST PUSH1 0x2 PUSH1 0x7 SLOAD EQ PUSH2 0x131D JUMPI PUSH1 0x2 PUSH1 0x7 SSTORE JUMP JUMPDEST PUSH4 0x3EE5AEB5 PUSH1 0xE0 SHL PUSH0 MSTORE PUSH1 0x4 PUSH0 REVERT JUMPDEST SWAP1 SWAP2 SWAP1 PUSH1 0x1 PUSH1 0x1 PUSH1 0xA0 SHL SUB AND DUP1 ISZERO PUSH2 0x1125 JUMPI PUSH2 0x1346 PUSH2 0x12F1 JUMP JUMPDEST DUP1 PUSH0 MSTORE PUSH0 PUSH1 0x20 MSTORE PUSH1 0x40 PUSH0 KECCAK256 SLOAD DUP4 DUP2 LT PUSH2 0x139E JUMPI PUSH1 0x20 DUP5 PUSH0 SWAP5 SWAP6 PUSH32 0xDDF252AD1BE2C89B69C2B068FC378DAA952BA7F163C4A11628F55A4DF523B3EF SWAP4 DUP6 DUP8 MSTORE DUP7 DUP5 MSTORE SUB PUSH1 0x40 DUP7 KECCAK256 SSTORE DUP1 PUSH1 0x2 SLOAD SUB PUSH1 0x2 SSTORE PUSH1 0x40 MLOAD SWAP1 DUP2 MSTORE LOG3 JUMP JUMPDEST SWAP2 POP PUSH4 0x391434E3 PUSH1 0xE2 SHL PUSH0 MSTORE PUSH1 0x4 MSTORE PUSH1 0x24 MSTORE PUSH1 0x44 MSTORE PUSH1 0x64 PUSH0 REVERT INVALID LOG2 PUSH5 0x6970667358 0x22 SLT KECCAK256 PUSH32 0x4AC477AA11445CA07F88E4DAA0811C7D59D70062D5876F3F8659429CCD424464 PUSH20 0x6F6C634300081E00332F8788117E7EFF1D82E926 EOFCREATE 0x79 BLOBHASH ADD DATALOADN 0x7C78 MUL BLOBBASEFEE POP 0x27 MULMOD BLOCKHASH ADDRESS GASLIMIT BLOCKHASH 0xA7 CALLER PUSH6 0x6F0D15A28D26 STATICCALL SHL 0xF7 CALLDATASIZE 0xCF PUSH31 0xDC9922607171CCB09C3C73B808E7772A3013E068A522847F481F687BEFB06E 0xD3 MLOAD 0x1F BYTE DUP14 0xCE CREATE2 PUSH31 0x83007C0147AE5047583D705617093705B8CCBB9D4D8FB16EA74CE3C29A41F1 0xB4 PUSH2 0xFBDA SELFDESTRUCT SELFBALANCE EQ LOG0 0xD9 0xA8 0xEB SDIV BLOBHASH SWAP8 CHAINID 0xBC SWAP10 CALLCODE DUP10 SAR 0xB7 0xA8 0xDB PUSH23 0x249871A02B43B68C0BB8F22EF8A3BC1034AE9375EF6B7C EXTCODECOPY "
				},
				"gasEstimates": {
					"creation": {
						"codeDepositCost": "1020400",
						"executionCost": "infinite",
						"totalCost": "infinite"
					},
					"external": {
						"BURNER_ROLE()": "290",
						"DEFAULT_ADMIN_ROLE()": "626",
						"MINTER_ROLE()": "733",
						"PAUSER_ROLE()": "794",
						"_performMint(address,uint256)": "53290",
						"allowance(address,address)": "3186",
						"approve(address,uint256)": "24352",
						"balanceOf(address)": "2770",
						"burn(uint256)": "infinite",
						"burnFrom(address,uint256)": "infinite",
						"decimals()": "334",
						"getRoleAdmin(bytes32)": "2457",
						"getStats()": "7053",
						"grantRole(bytes32,address)": "33436",
						"hasRole(bytes32,address)": "2912",
						"mint(address,uint256)": "infinite",
						"name()": "infinite",
						"pause()": "30151",
						"paused()": "2584",
						"renounceRole(bytes32,address)": "29066",
						"revokeRole(bytes32,address)": "33880",
						"supportsInterface(bytes4)": "275",
						"symbol()": "infinite",
						"totalBurnedAmount()": "2459",
						"totalInCirculation()": "2594",
						"totalMinted()": "2748",
						"totalSupply()": "2327",
						"transfer(address,uint256)": "53413",
						"transferFrom(address,address,uint256)": "77696",
						"unpause()": "27864"
					},
					"internal": {
						"_update(address,address,uint256)": "infinite"
					}
				},
				"methodIdentifiers": {
					"BURNER_ROLE()": "282c51f3",
					"DEFAULT_ADMIN_ROLE()": "a217fddf",
					"MINTER_ROLE()": "d5391393",
					"PAUSER_ROLE()": "e63ab1e9",
					"_performMint(address,uint256)": "b028d807",
					"allowance(address,address)": "dd62ed3e",
					"approve(address,uint256)": "095ea7b3",
					"balanceOf(address)": "70a08231",
					"burn(uint256)": "42966c68",
					"burnFrom(address,uint256)": "79cc6790",
					"decimals()": "313ce567",
					"getRoleAdmin(bytes32)": "248a9ca3",
					"getStats()": "c59d4847",
					"grantRole(bytes32,address)": "2f2ff15d",
					"hasRole(bytes32,address)": "91d14854",
					"mint(address,uint256)": "40c10f19",
					"name()": "06fdde03",
					"pause()": "8456cb59",
					"paused()": "5c975abb",
					"renounceRole(bytes32,address)": "36568abe",
					"revokeRole(bytes32,address)": "d547741f",
					"supportsInterface(bytes4)": "01ffc9a7",
					"symbol()": "95d89b41",
					"totalBurnedAmount()": "35ab5f64",
					"totalInCirculation()": "5cb0c16f",
					"totalMinted()": "a2309ff8",
					"totalSupply()": "18160ddd",
					"transfer(address,uint256)": "a9059cbb",
					"transferFrom(address,address,uint256)": "23b872dd",
					"unpause()": "3f4ba83a"
				}
			},
			"storageLayout": {
				"storage": [
					{
						"astId": 538,
						"contract": "XPToken.sol:XPToken",
						"label": "_balances",
						"offset": 0,
						"slot": "0",
						"type": "t_mapping(t_address,t_uint256)"
					},
					{
						"astId": 544,
						"contract": "XPToken.sol:XPToken",
						"label": "_allowances",
						"offset": 0,
						"slot": "1",
						"type": "t_mapping(t_address,t_mapping(t_address,t_uint256))"
					},
					{
						"astId": 546,
						"contract": "XPToken.sol:XPToken",
						"label": "_totalSupply",
						"offset": 0,
						"slot": "2",
						"type": "t_uint256"
					},
					{
						"astId": 548,
						"contract": "XPToken.sol:XPToken",
						"label": "_name",
						"offset": 0,
						"slot": "3",
						"type": "t_string_storage"
					},
					{
						"astId": 550,
						"contract": "XPToken.sol:XPToken",
						"label": "_symbol",
						"offset": 0,
						"slot": "4",
						"type": "t_string_storage"
					},
					{
						"astId": 26,
						"contract": "XPToken.sol:XPToken",
						"label": "_roles",
						"offset": 0,
						"slot": "5",
						"type": "t_mapping(t_bytes32,t_struct(RoleData)21_storage)"
					},
					{
						"astId": 1173,
						"contract": "XPToken.sol:XPToken",
						"label": "_paused",
						"offset": 0,
						"slot": "6",
						"type": "t_bool"
					},
					{
						"astId": 1283,
						"contract": "XPToken.sol:XPToken",
						"label": "_status",
						"offset": 0,
						"slot": "7",
						"type": "t_uint256"
					},
					{
						"astId": 1409,
						"contract": "XPToken.sol:XPToken",
						"label": "totalMinted",
						"offset": 0,
						"slot": "8",
						"type": "t_uint256"
					},
					{
						"astId": 1411,
						"contract": "XPToken.sol:XPToken",
						"label": "totalBurnedAmount",
						"offset": 0,
						"slot": "9",
						"type": "t_uint256"
					}
				],
				"types": {
					"t_address": {
						"encoding": "inplace",
						"label": "address",
						"numberOfBytes": "20"
					},
					"t_bool": {
						"encoding": "inplace",
						"label": "bool",
						"numberOfBytes": "1"
					},
					"t_bytes32": {
						"encoding": "inplace",
						"label": "bytes32",
						"numberOfBytes": "32"
					},
					"t_mapping(t_address,t_bool)": {
						"encoding": "mapping",
						"key": "t_address",
						"label": "mapping(address => bool)",
						"numberOfBytes": "32",
						"value": "t_bool"
					},
					"t_mapping(t_address,t_mapping(t_address,t_uint256))": {
						"encoding": "mapping",
						"key": "t_address",
						"label": "mapping(address => mapping(address => uint256))",
						"numberOfBytes": "32",
						"value": "t_mapping(t_address,t_uint256)"
					},
					"t_mapping(t_address,t_uint256)": {
						"encoding": "mapping",
						"key": "t_address",
						"label": "mapping(address => uint256)",
						"numberOfBytes": "32",
						"value": "t_uint256"
					},
					"t_mapping(t_bytes32,t_struct(RoleData)21_storage)": {
						"encoding": "mapping",
						"key": "t_bytes32",
						"label": "mapping(bytes32 => struct AccessControl.RoleData)",
						"numberOfBytes": "32",
						"value": "t_struct(RoleData)21_storage"
					},
					"t_string_storage": {
						"encoding": "bytes",
						"label": "string",
						"numberOfBytes": "32"
					},
					"t_struct(RoleData)21_storage": {
						"encoding": "inplace",
						"label": "struct AccessControl.RoleData",
						"members": [
							{
								"astId": 18,
								"contract": "XPToken.sol:XPToken",
								"label": "hasRole",
								"offset": 0,
								"slot": "0",
								"type": "t_mapping(t_address,t_bool)"
							},
							{
								"astId": 20,
								"contract": "XPToken.sol:XPToken",
								"label": "adminRole",
								"offset": 0,
								"slot": "1",
								"type": "t_bytes32"
							}
						],
						"numberOfBytes": "64"
					},
					"t_uint256": {
						"encoding": "inplace",
						"label": "uint256",
						"numberOfBytes": "32"
					}
				}
			},
			"userdoc": {
				"kind": "user",
				"methods": {},
				"version": 1
			}
		}
	}
}