{
	"GameToken.sol": {
		"GameToken": {
			"abi": [
				{
					"inputs": [
						{
							"internalType": "string",
							"name": "name",
							"type": "string"
						},
						{
							"internalType": "string",
							"name": "symbol",
							"type": "string"
						},
						{
							"internalType": "uint8",
							"name": "decimals_",
							"type": "uint8"
						},
						{
							"internalType": "uint256",
							"name": "initialSupply",
							"type": "uint256"
						},
						{
							"internalType": "address",
							"name": "owner",
							"type": "address"
						},
						{
							"internalType": "address",
							"name": "factory_",
							"type": "address"
						},
						{
							"internalType": "uint256",
							"name": "gameId_",
							"type": "uint256"
						}
					],
					"stateMutability": "nonpayable",
					"type": "constructor"
				},
				{
					"inputs": [
						{
							"internalType": "string",
							"name": "reason",
							"type": "string"
						}
					],
					"name": "BurnDisabled",
					"type": "error"
				},
				{
					"inputs": [
						{
							"internalType": "address",
							"name": "from",
							"type": "address"
						},
						{
							"internalType": "uint256",
							"name": "amount",
							"type": "uint256"
						},
						{
							"internalType": "string",
							"name": "reason",
							"type": "string"
						}
					],
					"name": "BurningOperationFailed",
					"type": "error"
				},
				{
					"inputs": [],
					"name": "ContractPaused",
					"type": "error"
				},
				{
					"inputs": [
						{
							"internalType": "address",
							"name": "spender",
							"type": "address"
						},
						{
							"internalType": "uint256",
							"name": "allowance",
							"type": "uint256"
						},
						{
							"internalType": "uint256",
							"name": "needed",
							"type": "uint256"
						}
					],
					"name": "ERC20InsufficientAllowance",
					"type": "error"
				},
				{
					"inputs": [
						{
							"internalType": "address",
							"name": "sender",
							"type": "address"
						},
						{
							"internalType": "uint256",
							"name": "balance",
							"type": "uint256"
						},
						{
							"internalType": "uint256",
							"name": "needed",
							"type": "uint256"
						}
					],
					"name": "ERC20InsufficientBalance",
					"type": "error"
				},
				{
					"inputs": [
						{
							"internalType": "address",
							"name": "approver",
							"type": "address"
						}
					],
					"name": "ERC20InvalidApprover",
					"type": "error"
				},
				{
					"inputs": [
						{
							"internalType": "address",
							"name": "receiver",
							"type": "address"
						}
					],
					"name": "ERC20InvalidReceiver",
					"type": "error"
				},
				{
					"inputs": [
						{
							"internalType": "address",
							"name": "sender",
							"type": "address"
						}
					],
					"name": "ERC20InvalidSender",
					"type": "error"
				},
				{
					"inputs": [
						{
							"internalType": "address",
							"name": "spender",
							"type": "address"
						}
					],
					"name": "ERC20InvalidSpender",
					"type": "error"
				},
				{
					"inputs": [
						{
							"internalType": "uint256",
							"name": "requested",
							"type": "uint256"
						},
						{
							"internalType": "uint256",
							"name": "maxAllowed",
							"type": "uint256"
						}
					],
					"name": "ExcessiveBurnRequest",
					"type": "error"
				},
				{
					"inputs": [
						{
							"internalType": "uint256",
							"name": "gameId",
							"type": "uint256"
						}
					],
					"name": "GameTokenInactive",
					"type": "error"
				},
				{
					"inputs": [
						{
							"internalType": "address",
							"name": "account",
							"type": "address"
						},
						{
							"internalType": "uint256",
							"name": "required",
							"type": "uint256"
						},
						{
							"internalType": "uint256",
							"name": "available",
							"type": "uint256"
						}
					],
					"name": "InsufficientBalance",
					"type": "error"
				},
				{
					"inputs": [
						{
							"internalType": "address",
							"name": "provided",
							"type": "address"
						},
						{
							"internalType": "string",
							"name": "reason",
							"type": "string"
						}
					],
					"name": "InvalidAddress",
					"type": "error"
				},
				{
					"inputs": [
						{
							"internalType": "uint256",
							"name": "provided",
							"type": "uint256"
						},
						{
							"internalType": "uint256",
							"name": "min",
							"type": "uint256"
						},
						{
							"internalType": "uint256",
							"name": "max",
							"type": "uint256"
						}
					],
					"name": "InvalidAmount",
					"type": "error"
				},
				{
					"inputs": [
						{
							"internalType": "uint256",
							"name": "amount",
							"type": "uint256"
						},
						{
							"internalType": "string",
							"name": "reason",
							"type": "string"
						}
					],
					"name": "InvalidBurnAmount",
					"type": "error"
				},
				{
					"inputs": [
						{
							"internalType": "string",
							"name": "reason",
							"type": "string"
						}
					],
					"name": "InvalidContractState",
					"type": "error"
				},
				{
					"inputs": [
						{
							"internalType": "string",
							"name": "operation",
							"type": "string"
						},
						{
							"internalType": "string",
							"name": "reason",
							"type": "string"
						}
					],
					"name": "InvalidGameOperation",
					"type": "error"
				},
				{
					"inputs": [
						{
							"internalType": "address",
							"name": "target",
							"type": "address"
						}
					],
					"name": "InvalidRecoveryTarget",
					"type": "error"
				},
				{
					"inputs": [
						{
							"internalType": "string",
							"name": "operation",
							"type": "string"
						}
					],
					"name": "MathOverflow",
					"type": "error"
				},
				{
					"inputs": [
						{
							"internalType": "string",
							"name": "operation",
							"type": "string"
						}
					],
					"name": "MathUnderflow",
					"type": "error"
				},
				{
					"inputs": [
						{
							"internalType": "string",
							"name": "reason",
							"type": "string"
						}
					],
					"name": "MintingDisabledAfterInit",
					"type": "error"
				},
				{
					"inputs": [
						{
							"internalType": "address",
							"name": "owner",
							"type": "address"
						}
					],
					"name": "OwnableInvalidOwner",
					"type": "error"
				},
				{
					"inputs": [
						{
							"internalType": "address",
							"name": "account",
							"type": "address"
						}
					],
					"name": "OwnableUnauthorizedAccount",
					"type": "error"
				},
				{
					"inputs": [
						{
							"internalType": "address",
							"name": "token",
							"type": "address"
						},
						{
							"internalType": "string",
							"name": "reason",
							"type": "string"
						}
					],
					"name": "RecoveryFailed",
					"type": "error"
				},
				{
					"inputs": [
						{
							"internalType": "string",
							"name": "reason",
							"type": "string"
						}
					],
					"name": "RecoveryNotAllowed",
					"type": "error"
				},
				{
					"inputs": [],
					"name": "ReentrancyDetected",
					"type": "error"
				},
				{
					"inputs": [],
					"name": "ReentrancyGuardReentrantCall",
					"type": "error"
				},
				{
					"inputs": [
						{
							"internalType": "address",
							"name": "from",
							"type": "address"
						},
						{
							"internalType": "address",
							"name": "to",
							"type": "address"
						},
						{
							"internalType": "uint256",
							"name": "amount",
							"type": "uint256"
						}
					],
					"name": "TransferOperationFailed",
					"type": "error"
				},
				{
					"inputs": [
						{
							"internalType": "address",
							"name": "caller",
							"type": "address"
						}
					],
					"name": "UnauthorizedBurner",
					"type": "error"
				},
				{
					"inputs": [
						{
							"internalType": "address",
							"name": "caller",
							"type": "address"
						},
						{
							"internalType": "address",
							"name": "expectedFactory",
							"type": "address"
						}
					],
					"name": "UnauthorizedFactory",
					"type": "error"
				},
				{
					"inputs": [
						{
							"internalType": "address",
							"name": "caller",
							"type": "address"
						},
						{
							"internalType": "address",
							"name": "expectedOwner",
							"type": "address"
						}
					],
					"name": "UnauthorizedOwner",
					"type": "error"
				},
				{
					"inputs": [],
					"name": "ZeroAddress",
					"type": "error"
				},
				{
					"inputs": [],
					"name": "ZeroAmount",
					"type": "error"
				},
				{
					"anonymous": false,
					"inputs": [
						{
							"indexed": true,
							"internalType": "address",
							"name": "owner",
							"type": "address"
						},
						{
							"indexed": true,
							"internalType": "address",
							"name": "spender",
							"type": "address"
						},
						{
							"indexed": false,
							"internalType": "uint256",
							"name": "value",
							"type": "uint256"
						}
					],
					"name": "Approval",
					"type": "event"
				},
				{
					"anonymous": false,
					"inputs": [
						{
							"indexed": false,
							"internalType": "bool",
							"name": "enabled",
							"type": "bool"
						}
					],
					"name": "BurnStatusChanged",
					"type": "event"
				},
				{
					"anonymous": false,
					"inputs": [
						{
							"indexed": true,
							"internalType": "address",
							"name": "previousOwner",
							"type": "address"
						},
						{
							"indexed": true,
							"internalType": "address",
							"name": "newOwner",
							"type": "address"
						}
					],
					"name": "OwnershipTransferred",
					"type": "event"
				},
				{
					"anonymous": false,
					"inputs": [
						{
							"indexed": true,
							"internalType": "address",
							"name": "user",
							"type": "address"
						},
						{
							"indexed": false,
							"internalType": "uint256",
							"name": "amount",
							"type": "uint256"
						},
						{
							"indexed": false,
							"internalType": "uint256",
							"name": "totalBurned",
							"type": "uint256"
						}
					],
					"name": "TokensBurned",
					"type": "event"
				},
				{
					"anonymous": false,
					"inputs": [
						{
							"indexed": true,
							"internalType": "address",
							"name": "from",
							"type": "address"
						},
						{
							"indexed": true,
							"internalType": "address",
							"name": "to",
							"type": "address"
						},
						{
							"indexed": false,
							"internalType": "uint256",
							"name": "value",
							"type": "uint256"
						}
					],
					"name": "Transfer",
					"type": "event"
				},
				{
					"inputs": [
						{
							"internalType": "address",
							"name": "from",
							"type": "address"
						},
						{
							"internalType": "uint256",
							"name": "amount",
							"type": "uint256"
						}
					],
					"name": "_performBurn",
					"outputs": [],
					"stateMutability": "nonpayable",
					"type": "function"
				},
				{
					"inputs": [
						{
							"internalType": "address",
							"name": "owner",
							"type": "address"
						},
						{
							"internalType": "address",
							"name": "spender",
							"type": "address"
						}
					],
					"name": "allowance",
					"outputs": [
						{
							"internalType": "uint256",
							"name": "",
							"type": "uint256"
						}
					],
					"stateMutability": "view",
					"type": "function"
				},
				{
					"inputs": [
						{
							"internalType": "address",
							"name": "spender",
							"type": "address"
						},
						{
							"internalType": "uint256",
							"name": "value",
							"type": "uint256"
						}
					],
					"name": "approve",
					"outputs": [
						{
							"internalType": "bool",
							"name": "",
							"type": "bool"
						}
					],
					"stateMutability": "nonpayable",
					"type": "function"
				},
				{
					"inputs": [
						{
							"internalType": "address",
							"name": "account",
							"type": "address"
						}
					],
					"name": "balanceOf",
					"outputs": [
						{
							"internalType": "uint256",
							"name": "",
							"type": "uint256"
						}
					],
					"stateMutability": "view",
					"type": "function"
				},
				{
					"inputs": [
						{
							"internalType": "uint256",
							"name": "amount",
							"type": "uint256"
						}
					],
					"name": "burn",
					"outputs": [],
					"stateMutability": "nonpayable",
					"type": "function"
				},
				{
					"inputs": [],
					"name": "burnEnabled",
					"outputs": [
						{
							"internalType": "bool",
							"name": "",
							"type": "bool"
						}
					],
					"stateMutability": "view",
					"type": "function"
				},
				{
					"inputs": [
						{
							"internalType": "address",
							"name": "from",
							"type": "address"
						},
						{
							"internalType": "uint256",
							"name": "amount",
							"type": "uint256"
						}
					],
					"name": "burnFrom",
					"outputs": [],
					"stateMutability": "nonpayable",
					"type": "function"
				},
				{
					"inputs": [],
					"name": "decimals",
					"outputs": [
						{
							"internalType": "uint8",
							"name": "",
							"type": "uint8"
						}
					],
					"stateMutability": "view",
					"type": "function"
				},
				{
					"inputs": [
						{
							"internalType": "address",
							"name": "token",
							"type": "address"
						},
						{
							"internalType": "address",
							"name": "to",
							"type": "address"
						},
						{
							"internalType": "uint256",
							"name": "amount",
							"type": "uint256"
						}
					],
					"name": "emergencyRecover",
					"outputs": [],
					"stateMutability": "nonpayable",
					"type": "function"
				},
				{
					"inputs": [],
					"name": "factory",
					"outputs": [
						{
							"internalType": "address",
							"name": "",
							"type": "address"
						}
					],
					"stateMutability": "view",
					"type": "function"
				},
				{
					"inputs": [
						{
							"internalType": "address",
							"name": "to",
							"type": "address"
						},
						{
							"internalType": "uint256",
							"name": "amount",
							"type": "uint256"
						}
					],
					"name": "factoryMint",
					"outputs": [],
					"stateMutability": "nonpayable",
					"type": "function"
				},
				{
					"inputs": [],
					"name": "gameId",
					"outputs": [
						{
							"internalType": "uint256",
							"name": "",
							"type": "uint256"
						}
					],
					"stateMutability": "view",
					"type": "function"
				},
				{
					"inputs": [
						{
							"internalType": "address",
							"name": "",
							"type": "address"
						}
					],
					"name": "mint",
					"outputs": [],
					"stateMutability": "pure",
					"type": "function"
				},
				{
					"inputs": [],
					"name": "name",
					"outputs": [
						{
							"internalType": "string",
							"name": "",
							"type": "string"
						}
					],
					"stateMutability": "view",
					"type": "function"
				},
				{
					"inputs": [],
					"name": "owner",
					"outputs": [
						{
							"internalType": "address",
							"name": "",
							"type": "address"
						}
					],
					"stateMutability": "view",
					"type": "function"
				},
				{
					"inputs": [],
					"name": "renounceOwnership",
					"outputs": [],
					"stateMutability": "nonpayable",
					"type": "function"
				},
				{
					"inputs": [
						{
							"internalType": "bool",
							"name": "enabled",
							"type": "bool"
						}
					],
					"name": "setBurnEnabled",
					"outputs": [],
					"stateMutability": "nonpayable",
					"type": "function"
				},
				{
					"inputs": [],
					"name": "symbol",
					"outputs": [
						{
							"internalType": "string",
							"name": "",
							"type": "string"
						}
					],
					"stateMutability": "view",
					"type": "function"
				},
				{
					"inputs": [],
					"name": "totalBurned",
					"outputs": [
						{
							"internalType": "uint256",
							"name": "",
							"type": "uint256"
						}
					],
					"stateMutability": "view",
					"type": "function"
				},
				{
					"inputs": [],
					"name": "totalSupply",
					"outputs": [
						{
							"internalType": "uint256",
							"name": "",
							"type": "uint256"
						}
					],
					"stateMutability": "view",
					"type": "function"
				},
				{
					"inputs": [
						{
							"internalType": "address",
							"name": "to",
							"type": "address"
						},
						{
							"internalType": "uint256",
							"name": "value",
							"type": "uint256"
						}
					],
					"name": "transfer",
					"outputs": [
						{
							"internalType": "bool",
							"name": "",
							"type": "bool"
						}
					],
					"stateMutability": "nonpayable",
					"type": "function"
				},
				{
					"inputs": [
						{
							"internalType": "address",
							"name": "from",
							"type": "address"
						},
						{
							"internalType": "address",
							"name": "to",
							"type": "address"
						},
						{
							"internalType": "uint256",
							"name": "value",
							"type": "uint256"
						}
					],
					"name": "transferFrom",
					"outputs": [
						{
							"internalType": "bool",
							"name": "",
							"type": "bool"
						}
					],
					"stateMutability": "nonpayable",
					"type": "function"
				},
				{
					"inputs": [
						{
							"internalType": "address",
							"name": "newOwner",
							"type": "address"
						}
					],
					"name": "transferOwnership",
					"outputs": [],
					"stateMutability": "nonpayable",
					"type": "function"
				}
			],
			"devdoc": {
				"details": "Optimized ERC-20 game token with enhanced security Each game gets its own instance of this contract Optimized for gas efficiency while maintaining security",
				"errors": {
					"ERC20InsufficientAllowance(address,uint256,uint256)": [
						{
							"details": "Indicates a failure with the `spender`’s `allowance`. Used in transfers.",
							"params": {
								"allowance": "Amount of tokens a `spender` is allowed to operate with.",
								"needed": "Minimum amount required to perform a transfer.",
								"spender": "Address that may be allowed to operate on tokens without being their owner."
							}
						}
					],
					"ERC20InsufficientBalance(address,uint256,uint256)": [
						{
							"details": "Indicates an error related to the current `balance` of a `sender`. Used in transfers.",
							"params": {
								"balance": "Current balance for the interacting account.",
								"needed": "Minimum amount required to perform a transfer.",
								"sender": "Address whose tokens are being transferred."
							}
						}
					],
					"ERC20InvalidApprover(address)": [
						{
							"details": "Indicates a failure with the `approver` of a token to be approved. Used in approvals.",
							"params": {
								"approver": "Address initiating an approval operation."
							}
						}
					],
					"ERC20InvalidReceiver(address)": [
						{
							"details": "Indicates a failure with the token `receiver`. Used in transfers.",
							"params": {
								"receiver": "Address to which tokens are being transferred."
							}
						}
					],
					"ERC20InvalidSender(address)": [
						{
							"details": "Indicates a failure with the token `sender`. Used in transfers.",
							"params": {
								"sender": "Address whose tokens are being transferred."
							}
						}
					],
					"ERC20InvalidSpender(address)": [
						{
							"details": "Indicates a failure with the `spender` to be approved. Used in approvals.",
							"params": {
								"spender": "Address that may be allowed to operate on tokens without being their owner."
							}
						}
					],
					"OwnableInvalidOwner(address)": [
						{
							"details": "The owner is not a valid owner account. (eg. `address(0)`)"
						}
					],
					"OwnableUnauthorizedAccount(address)": [
						{
							"details": "The caller account is not authorized to perform an operation."
						}
					],
					"ReentrancyGuardReentrantCall()": [
						{
							"details": "Unauthorized reentrant call."
						}
					]
				},
				"events": {
					"Approval(address,address,uint256)": {
						"details": "Emitted when the allowance of a `spender` for an `owner` is set by a call to {approve}. `value` is the new allowance."
					},
					"Transfer(address,address,uint256)": {
						"details": "Emitted when `value` tokens are moved from one account (`from`) to another (`to`). Note that `value` may be zero."
					}
				},
				"kind": "dev",
				"methods": {
					"_performBurn(address,uint256)": {
						"details": "Internal burn function for error handling separation"
					},
					"allowance(address,address)": {
						"details": "See {IERC20-allowance}."
					},
					"approve(address,uint256)": {
						"details": "See {IERC20-approve}. NOTE: If `value` is the maximum `uint256`, the allowance is not updated on `transferFrom`. This is semantically equivalent to an infinite approval. Requirements: - `spender` cannot be the zero address."
					},
					"balanceOf(address)": {
						"details": "See {IERC20-balanceOf}."
					},
					"burn(uint256)": {
						"details": "Allow users to burn their own tokens directly",
						"params": {
							"amount": "Amount of tokens to burn"
						}
					},
					"burnFrom(address,uint256)": {
						"details": "Burn tokens from a specific account (called by factory)",
						"params": {
							"amount": "Amount of tokens to burn",
							"from": "Address to burn tokens from"
						}
					},
					"decimals()": {
						"details": "Returns the number of decimals used to get its user representation. For example, if `decimals` equals `2`, a balance of `505` tokens should be displayed to a user as `5.05` (`505 / 10 ** 2`). Tokens usually opt for a value of 18, imitating the relationship between Ether and Wei. This is the default value returned by this function, unless it's overridden. NOTE: This information is only used for _display_ purposes: it in no way affects any of the arithmetic of the contract, including {IERC20-balanceOf} and {IERC20-transfer}."
					},
					"emergencyRecover(address,address,uint256)": {
						"details": "Emergency function to recover stuck tokens",
						"params": {
							"amount": "Amount to recover",
							"to": "Address to send recovered tokens",
							"token": "Address of token to recover (address(0) for ETH)"
						}
					},
					"factoryMint(address,uint256)": {
						"details": "Restricted mint function - only callable by factory This ensures tokens can only be created when XP is properly locked"
					},
					"mint(address)": {
						"details": "Block any attempts to call mint functions directly Prevents manual token creation outside the XP locking mechanism"
					},
					"name()": {
						"details": "Returns the name of the token."
					},
					"owner()": {
						"details": "Returns the address of the current owner."
					},
					"renounceOwnership()": {
						"details": "Leaves the contract without owner. It will not be possible to call `onlyOwner` functions. Can only be called by the current owner. NOTE: Renouncing ownership will leave the contract without an owner, thereby disabling any functionality that is only available to the owner."
					},
					"setBurnEnabled(bool)": {
						"details": "Enable/disable burning (emergency control)",
						"params": {
							"enabled": "Whether burning should be enabled"
						}
					},
					"symbol()": {
						"details": "Returns the symbol of the token, usually a shorter version of the name."
					},
					"totalSupply()": {
						"details": "See {IERC20-totalSupply}."
					},
					"transfer(address,uint256)": {
						"details": "See {IERC20-transfer}. Requirements: - `to` cannot be the zero address. - the caller must have a balance of at least `value`."
					},
					"transferFrom(address,address,uint256)": {
						"details": "See {IERC20-transferFrom}. Skips emitting an {Approval} event indicating an allowance update. This is not required by the ERC. See {xref-ERC20-_approve-address-address-uint256-bool-}[_approve]. NOTE: Does not update the allowance if the current allowance is the maximum `uint256`. Requirements: - `from` and `to` cannot be the zero address. - `from` must have a balance of at least `value`. - the caller must have allowance for ``from``'s tokens of at least `value`."
					},
					"transferOwnership(address)": {
						"details": "Transfers ownership of the contract to a new account (`newOwner`). Can only be called by the current owner."
					}
				},
				"title": "GameToken",
				"version": 1
			},
			"evm": {
				"assembly": "    /* \"GameToken.sol\":483:9590  contract GameToken is ERC20, Ownable, ReentrancyGuard {... */\n  mstore(0x40, 0xe0)\n    /* \"GameToken.sol\":919:949  bool public burnEnabled = true */\n  0x08\n  dup1\n  sload\n  not(0xff)\n  and\n    /* \"GameToken.sol\":945:949  true */\n  0x01\n    /* \"GameToken.sol\":919:949  bool public burnEnabled = true */\n  or\n  swap1\n  sstore\n    /* \"GameToken.sol\":3226:4488  constructor(... */\n  callvalue\n  dup1\n  iszero\n  tag_1\n  jumpi\n  revert(0x00, 0x00)\ntag_1:\n  pop\n  mload(0x40)\n  sub(codesize, bytecodeSize)\n  dup1\n  bytecodeSize\n  dup4\n  codecopy\n  dup2\n  add\n  0x40\n  dup2\n  swap1\n  mstore\n  tag_2\n  swap2\n  tag_3\n  jump\t// in\ntag_2:\n    /* \"GameToken.sol\":3460:3465  owner */\n  dup3\n    /* \"GameToken.sol\":3438:3442  name */\n  dup8\n    /* \"GameToken.sol\":3444:3450  symbol */\n  dup8\n    /* \"@openzeppelin/contracts/token/ERC20/ERC20.sol\":1648:1653  _name */\n  0x03\n    /* \"@openzeppelin/contracts/token/ERC20/ERC20.sol\":1648:1661  _name = name_ */\n  tag_9\n    /* \"GameToken.sol\":3438:3442  name */\n  dup4\n    /* \"@openzeppelin/contracts/token/ERC20/ERC20.sol\":1648:1653  _name */\n  dup3\n    /* \"@openzeppelin/contracts/token/ERC20/ERC20.sol\":1648:1661  _name = name_ */\n  tag_10\n  jump\t// in\ntag_9:\n  pop\n    /* \"@openzeppelin/contracts/token/ERC20/ERC20.sol\":1671:1678  _symbol */\n  0x04\n    /* \"@openzeppelin/contracts/token/ERC20/ERC20.sol\":1671:1688  _symbol = symbol_ */\n  tag_11\n    /* \"@openzeppelin/contracts/token/ERC20/ERC20.sol\":1681:1688  symbol_ */\n  dup3\n    /* \"@openzeppelin/contracts/token/ERC20/ERC20.sol\":1671:1678  _symbol */\n  dup3\n    /* \"@openzeppelin/contracts/token/ERC20/ERC20.sol\":1671:1688  _symbol = symbol_ */\n  tag_10\n  jump\t// in\ntag_11:\n  pop\n  pop\n  pop\n  sub(shl(0xa0, 0x01), 0x01)\n    /* \"@openzeppelin/contracts/access/Ownable.sol\":1273:1299  initialOwner == address(0) */\n  dup2\n  and\n    /* \"@openzeppelin/contracts/access/Ownable.sol\":1269:1364  if (initialOwner == address(0)) {... */\n  tag_13\n  jumpi\n    /* \"@openzeppelin/contracts/access/Ownable.sol\":1322:1353  OwnableInvalidOwner(address(0)) */\n  mload(0x40)\n  shl(0xe0, 0x1e4fbdf7)\n  dup2\n  mstore\n    /* \"@openzeppelin/contracts/access/Ownable.sol\":1350:1351  0 */\n  0x00\n    /* \"@openzeppelin/contracts/access/Ownable.sol\":1322:1353  OwnableInvalidOwner(address(0)) */\n  0x04\n  dup3\n  add\n    /* \"#utility.yul\":4823:4874   */\n  mstore\n    /* \"#utility.yul\":4796:4814   */\n  0x24\n  add\n    /* \"@openzeppelin/contracts/access/Ownable.sol\":1322:1353  OwnableInvalidOwner(address(0)) */\ntag_14:\n  mload(0x40)\n  dup1\n  swap2\n  sub\n  swap1\n  revert\n    /* \"@openzeppelin/contracts/access/Ownable.sol\":1269:1364  if (initialOwner == address(0)) {... */\ntag_13:\n    /* \"@openzeppelin/contracts/access/Ownable.sol\":1373:1405  _transferOwnership(initialOwner) */\n  tag_16\n    /* \"@openzeppelin/contracts/access/Ownable.sol\":1392:1404  initialOwner */\n  dup2\n    /* \"@openzeppelin/contracts/access/Ownable.sol\":1373:1391  _transferOwnership */\n  tag_17\n    /* \"@openzeppelin/contracts/access/Ownable.sol\":1373:1405  _transferOwnership(initialOwner) */\n  jump\t// in\ntag_16:\n  pop\n    /* \"@openzeppelin/contracts/utils/ReentrancyGuard.sol\":1857:1858  1 */\n  0x01\n    /* \"@openzeppelin/contracts/utils/ReentrancyGuard.sol\":2061:2068  _status */\n  0x06\n    /* \"@openzeppelin/contracts/utils/ReentrancyGuard.sol\":2061:2082  _status = NOT_ENTERED */\n  sstore\n    /* \"GameToken.sol\":3523:3541  bytes(name).length */\n  dup7\n  mload\n    /* \"GameToken.sol\":3545:3546  0 */\n  0x00\n    /* \"GameToken.sol\":3523:3546  bytes(name).length == 0 */\n  sub\n    /* \"GameToken.sol\":3519:3636  if (bytes(name).length == 0) {... */\n  tag_20\n  jumpi\n    /* \"GameToken.sol\":3569:3625  InvalidAddress(address(0), \"Token name cannot be empty\") */\n  0x40\n  dup1\n  mload\n  shl(0xe0, 0xf7693c3d)\n  dup2\n  mstore\n    /* \"GameToken.sol\":3592:3593  0 */\n  0x00\n    /* \"GameToken.sol\":3569:3625  InvalidAddress(address(0), \"Token name cannot be empty\") */\n  0x04\n  dup3\n  add\n    /* \"#utility.yul\":5097:5148   */\n  mstore\n    /* \"#utility.yul\":5164:5182   */\n  0x24\n  dup2\n  add\n    /* \"#utility.yul\":5157:5187   */\n  swap2\n  swap1\n  swap2\n  mstore\n    /* \"#utility.yul\":5223:5225   */\n  0x1a\n    /* \"#utility.yul\":5203:5221   */\n  0x44\n  dup3\n  add\n    /* \"#utility.yul\":5196:5226   */\n  mstore\n    /* \"#utility.yul\":5262:5290   */\n  0x546f6b656e206e616d652063616e6e6f7420626520656d707479000000000000\n    /* \"#utility.yul\":5242:5260   */\n  0x64\n  dup3\n  add\n    /* \"#utility.yul\":5235:5291   */\n  mstore\n    /* \"#utility.yul\":5308:5327   */\n  0x84\n  add\n    /* \"GameToken.sol\":3569:3625  InvalidAddress(address(0), \"Token name cannot be empty\") */\n  tag_14\n    /* \"#utility.yul\":4885:5333   */\n  jump\n    /* \"GameToken.sol\":3519:3636  if (bytes(name).length == 0) {... */\ntag_20:\n    /* \"GameToken.sol\":3655:3661  symbol */\n  dup6\n    /* \"GameToken.sol\":3649:3669  bytes(symbol).length */\n  mload\n    /* \"GameToken.sol\":3673:3674  0 */\n  0x00\n    /* \"GameToken.sol\":3649:3674  bytes(symbol).length == 0 */\n  sub\n    /* \"GameToken.sol\":3645:3766  if (bytes(symbol).length == 0) {... */\n  tag_23\n  jumpi\n    /* \"GameToken.sol\":3697:3755  InvalidAddress(address(0), \"Token symbol cannot be empty\") */\n  0x40\n  dup1\n  mload\n  shl(0xe0, 0xf7693c3d)\n  dup2\n  mstore\n    /* \"GameToken.sol\":3720:3721  0 */\n  0x00\n    /* \"GameToken.sol\":3697:3755  InvalidAddress(address(0), \"Token symbol cannot be empty\") */\n  0x04\n  dup3\n  add\n    /* \"#utility.yul\":5550:5601   */\n  mstore\n    /* \"#utility.yul\":5617:5635   */\n  0x24\n  dup2\n  add\n    /* \"#utility.yul\":5610:5640   */\n  swap2\n  swap1\n  swap2\n  mstore\n    /* \"#utility.yul\":5676:5678   */\n  0x1c\n    /* \"#utility.yul\":5656:5674   */\n  0x44\n  dup3\n  add\n    /* \"#utility.yul\":5649:5679   */\n  mstore\n    /* \"#utility.yul\":5715:5745   */\n  0x546f6b656e2073796d626f6c2063616e6e6f7420626520656d70747900000000\n    /* \"#utility.yul\":5695:5713   */\n  0x64\n  dup3\n  add\n    /* \"#utility.yul\":5688:5746   */\n  mstore\n    /* \"#utility.yul\":5763:5782   */\n  0x84\n  add\n    /* \"GameToken.sol\":3697:3755  InvalidAddress(address(0), \"Token symbol cannot be empty\") */\n  tag_14\n    /* \"#utility.yul\":5338:5788   */\n  jump\n    /* \"GameToken.sol\":3645:3766  if (bytes(symbol).length == 0) {... */\ntag_23:\n  sub(shl(0xa0, 0x01), 0x01)\n    /* \"GameToken.sol\":3779:3798  owner == address(0) */\n  dup4\n  and\n    /* \"GameToken.sol\":3775:3845  if (owner == address(0)) {... */\n  tag_26\n  jumpi\n    /* \"GameToken.sol\":3821:3834  ZeroAddress() */\n  mload(0x40)\n  shl(0xe0, 0xd92e233d)\n  dup2\n  mstore\n  0x04\n  add\n  mload(0x40)\n  dup1\n  swap2\n  sub\n  swap1\n  revert\n    /* \"GameToken.sol\":3775:3845  if (owner == address(0)) {... */\ntag_26:\n  sub(shl(0xa0, 0x01), 0x01)\n    /* \"GameToken.sol\":3858:3880  factory_ == address(0) */\n  dup3\n  and\n    /* \"GameToken.sol\":3854:3927  if (factory_ == address(0)) {... */\n  tag_27\n  jumpi\n    /* \"GameToken.sol\":3903:3916  ZeroAddress() */\n  mload(0x40)\n  shl(0xe0, 0xd92e233d)\n  dup2\n  mstore\n  0x04\n  add\n  mload(0x40)\n  dup1\n  swap2\n  sub\n  swap1\n  revert\n    /* \"GameToken.sol\":3854:3927  if (factory_ == address(0)) {... */\ntag_27:\n    /* \"GameToken.sol\":3952:3954  18 */\n  0x12\n    /* \"GameToken.sol\":3940:3949  decimals_ */\n  dup6\n    /* \"GameToken.sol\":3940:3954  decimals_ > 18 */\n  0xff\n  and\n  gt\n    /* \"GameToken.sol\":3936:4019  if (decimals_ > 18) {... */\n  iszero\n  tag_28\n  jumpi\n    /* \"GameToken.sol\":3977:4008  InvalidAmount(decimals_, 0, 18) */\n  mload(0x40)\n  shl(0xe0, 0x46f4384b)\n  dup2\n  mstore\n    /* \"#utility.yul\":6040:6044   */\n  0xff\n    /* \"#utility.yul\":6028:6045   */\n  dup7\n  and\n    /* \"GameToken.sol\":3977:4008  InvalidAmount(decimals_, 0, 18) */\n  0x04\n  dup3\n  add\n    /* \"#utility.yul\":6010:6046   */\n  mstore\n    /* \"GameToken.sol\":4002:4003  0 */\n  0x00\n    /* \"#utility.yul\":6062:6080   */\n  0x24\n  dup3\n  add\n    /* \"#utility.yul\":6055:6089   */\n  mstore\n    /* \"GameToken.sol\":4005:4007  18 */\n  0x12\n    /* \"#utility.yul\":6105:6123   */\n  0x44\n  dup3\n  add\n    /* \"#utility.yul\":6098:6132   */\n  mstore\n    /* \"#utility.yul\":5983:6001   */\n  0x64\n  add\n    /* \"GameToken.sol\":3977:4008  InvalidAmount(decimals_, 0, 18) */\n  tag_14\n    /* \"#utility.yul\":5793:6138   */\n  jump\n    /* \"GameToken.sol\":3936:4019  if (decimals_ > 18) {... */\ntag_28:\n    /* \"GameToken.sol\":4032:4045  initialSupply */\n  dup4\n    /* \"GameToken.sol\":4049:4050  0 */\n  0x00\n    /* \"GameToken.sol\":4032:4050  initialSupply == 0 */\n  sub\n    /* \"GameToken.sol\":4028:4096  if (initialSupply == 0) {... */\n  tag_31\n  jumpi\n    /* \"GameToken.sol\":4073:4085  ZeroAmount() */\n  mload(0x40)\n  shl(0xe0, 0x1f2a2005)\n  dup2\n  mstore\n  0x04\n  add\n  mload(0x40)\n  dup1\n  swap2\n  sub\n  swap1\n  revert\n    /* \"GameToken.sol\":4028:4096  if (initialSupply == 0) {... */\ntag_31:\n    /* \"GameToken.sol\":4118:4126  factory_ */\n  dup2\n  sub(shl(0xa0, 0x01), 0x01)\n    /* \"GameToken.sol\":4109:4126  owner == factory_ */\n  and\n    /* \"GameToken.sol\":4109:4114  owner */\n  dup4\n  sub(shl(0xa0, 0x01), 0x01)\n    /* \"GameToken.sol\":4109:4126  owner == factory_ */\n  and\n  sub\n    /* \"GameToken.sol\":4105:4220  if (owner == factory_) {... */\n  tag_32\n  jumpi\n    /* \"GameToken.sol\":4149:4209  InvalidContractState(\"Owner and factory cannot be the same\") */\n  mload(0x40)\n  shl(0xe2, 0x313b9aa1)\n  dup2\n  mstore\n    /* \"#utility.yul\":6345:6347   */\n  0x20\n    /* \"GameToken.sol\":4149:4209  InvalidContractState(\"Owner and factory cannot be the same\") */\n  0x04\n  dup3\n  add\n    /* \"#utility.yul\":6327:6348   */\n  mstore\n    /* \"#utility.yul\":6384:6386   */\n  0x24\n    /* \"#utility.yul\":6364:6382   */\n  dup1\n  dup3\n  add\n    /* \"#utility.yul\":6357:6387   */\n  mstore\n    /* \"#utility.yul\":6423:6457   */\n  0x4f776e657220616e6420666163746f72792063616e6e6f742062652074686520\n    /* \"#utility.yul\":6403:6421   */\n  0x44\n  dup3\n  add\n    /* \"#utility.yul\":6396:6458   */\n  mstore\n  shl(0xe0, 0x73616d65)\n    /* \"#utility.yul\":6474:6492   */\n  0x64\n  dup3\n  add\n    /* \"#utility.yul\":6467:6501   */\n  mstore\n    /* \"#utility.yul\":6518:6537   */\n  0x84\n  add\n    /* \"GameToken.sol\":4149:4209  InvalidContractState(\"Owner and factory cannot be the same\") */\n  tag_14\n    /* \"#utility.yul\":6143:6543   */\n  jump\n    /* \"GameToken.sol\":4105:4220  if (owner == factory_) {... */\ntag_32:\n    /* \"GameToken.sol\":4238:4259  _decimals = decimals_ */\n  0xff\n  dup6\n  and\n  0x80\n  mstore\n  sub(shl(0xa0, 0x01), 0x01)\n    /* \"GameToken.sol\":4269:4287  factory = factory_ */\n  dup3\n  and\n  0xa0\n  mstore\n    /* \"GameToken.sol\":4297:4313  gameId = gameId_ */\n  0xc0\n  dup2\n  swap1\n  mstore\n    /* \"GameToken.sol\":4417:4444  _mint(owner, initialSupply) */\n  tag_35\n    /* \"GameToken.sol\":4423:4428  owner */\n  dup4\n    /* \"GameToken.sol\":4430:4443  initialSupply */\n  dup6\n    /* \"GameToken.sol\":4417:4422  _mint */\n  tag_36\n    /* \"GameToken.sol\":4417:4444  _mint(owner, initialSupply) */\n  jump\t// in\ntag_35:\n  pop\n  pop\n    /* \"GameToken.sol\":4454:4474  _initialMintComplete */\n  0x08\n    /* \"GameToken.sol\":4454:4481  _initialMintComplete = true */\n  dup1\n  sload\n  not(0xff00)\n  and\n  0x0100\n  or\n  swap1\n  sstore\n  pop\n    /* \"GameToken.sol\":483:9590  contract GameToken is ERC20, Ownable, ReentrancyGuard {... */\n  tag_63\n  swap4\n  pop\n  pop\n  pop\n  pop\n  jump\n    /* \"@openzeppelin/contracts/access/Ownable.sol\":2912:3099  function _transferOwnership(address newOwner) internal virtual {... */\ntag_17:\n    /* \"@openzeppelin/contracts/access/Ownable.sol\":3004:3010  _owner */\n  0x05\n  dup1\n  sload\n  sub(shl(0xa0, 0x01), 0x01)\n    /* \"@openzeppelin/contracts/access/Ownable.sol\":3020:3037  _owner = newOwner */\n  dup4\n  dup2\n  and\n  not(sub(shl(0xa0, 0x01), 0x01))\n  dup4\n  and\n  dup2\n  or\n  swap1\n  swap4\n  sstore\n    /* \"@openzeppelin/contracts/access/Ownable.sol\":3052:3092  OwnershipTransferred(oldOwner, newOwner) */\n  mload(0x40)\n    /* \"@openzeppelin/contracts/access/Ownable.sol\":3004:3010  _owner */\n  swap2\n  and\n  swap2\n    /* \"@openzeppelin/contracts/access/Ownable.sol\":3020:3037  _owner = newOwner */\n  swap1\n    /* \"@openzeppelin/contracts/access/Ownable.sol\":3004:3010  _owner */\n  dup3\n  swap1\n    /* \"@openzeppelin/contracts/access/Ownable.sol\":3052:3092  OwnershipTransferred(oldOwner, newOwner) */\n  0x8be0079c531659141344cd1fd0a4f28419497f9722a3daafe3b4186f6b6457e0\n  swap1\n    /* \"@openzeppelin/contracts/access/Ownable.sol\":2985:3001  address oldOwner */\n  0x00\n  swap1\n    /* \"@openzeppelin/contracts/access/Ownable.sol\":3052:3092  OwnershipTransferred(oldOwner, newOwner) */\n  log3\n    /* \"@openzeppelin/contracts/access/Ownable.sol\":2975:3099  {... */\n  pop\n    /* \"@openzeppelin/contracts/access/Ownable.sol\":2912:3099  function _transferOwnership(address newOwner) internal virtual {... */\n  pop\n  jump\t// out\n    /* \"@openzeppelin/contracts/token/ERC20/ERC20.sol\":7439:7647  function _mint(address account, uint256 value) internal {... */\ntag_36:\n  sub(shl(0xa0, 0x01), 0x01)\n    /* \"@openzeppelin/contracts/token/ERC20/ERC20.sol\":7509:7530  account == address(0) */\n  dup3\n  and\n    /* \"@openzeppelin/contracts/token/ERC20/ERC20.sol\":7505:7596  if (account == address(0)) {... */\n  tag_40\n  jumpi\n    /* \"@openzeppelin/contracts/token/ERC20/ERC20.sol\":7553:7585  ERC20InvalidReceiver(address(0)) */\n  mload(0x40)\n  shl(0xe0, 0xec442f05)\n  dup2\n  mstore\n    /* \"@openzeppelin/contracts/token/ERC20/ERC20.sol\":7582:7583  0 */\n  0x00\n    /* \"@openzeppelin/contracts/token/ERC20/ERC20.sol\":7553:7585  ERC20InvalidReceiver(address(0)) */\n  0x04\n  dup3\n  add\n    /* \"#utility.yul\":4823:4874   */\n  mstore\n    /* \"#utility.yul\":4796:4814   */\n  0x24\n  add\n    /* \"@openzeppelin/contracts/token/ERC20/ERC20.sol\":7553:7585  ERC20InvalidReceiver(address(0)) */\n  tag_14\n    /* \"#utility.yul\":4677:4880   */\n  jump\n    /* \"@openzeppelin/contracts/token/ERC20/ERC20.sol\":7505:7596  if (account == address(0)) {... */\ntag_40:\n    /* \"@openzeppelin/contracts/token/ERC20/ERC20.sol\":7605:7640  _update(address(0), account, value) */\n  tag_42\n    /* \"@openzeppelin/contracts/token/ERC20/ERC20.sol\":7621:7622  0 */\n  0x00\n    /* \"@openzeppelin/contracts/token/ERC20/ERC20.sol\":7625:7632  account */\n  dup4\n    /* \"@openzeppelin/contracts/token/ERC20/ERC20.sol\":7634:7639  value */\n  dup4\n    /* \"@openzeppelin/contracts/token/ERC20/ERC20.sol\":7605:7612  _update */\n  tag_43\n    /* \"@openzeppelin/contracts/token/ERC20/ERC20.sol\":7605:7640  _update(address(0), account, value) */\n  jump\t// in\ntag_42:\n    /* \"@openzeppelin/contracts/token/ERC20/ERC20.sol\":7439:7647  function _mint(address account, uint256 value) internal {... */\n  pop\n  pop\n  jump\t// out\n    /* \"@openzeppelin/contracts/token/ERC20/ERC20.sol\":5989:7096  function _update(address from, address to, uint256 value) internal virtual {... */\ntag_43:\n  sub(shl(0xa0, 0x01), 0x01)\n    /* \"@openzeppelin/contracts/token/ERC20/ERC20.sol\":6078:6096  from == address(0) */\n  dup4\n  and\n    /* \"@openzeppelin/contracts/token/ERC20/ERC20.sol\":6074:6614  if (from == address(0)) {... */\n  tag_45\n  jumpi\n    /* \"@openzeppelin/contracts/token/ERC20/ERC20.sol\":6230:6235  value */\n  dup1\n    /* \"@openzeppelin/contracts/token/ERC20/ERC20.sol\":6214:6226  _totalSupply */\n  0x02\n  0x00\n    /* \"@openzeppelin/contracts/token/ERC20/ERC20.sol\":6214:6235  _totalSupply += value */\n  dup3\n  dup3\n  sload\n  tag_46\n  swap2\n  swap1\n  tag_47\n  jump\t// in\ntag_46:\n  swap1\n  swap2\n  sstore\n  pop\n    /* \"@openzeppelin/contracts/token/ERC20/ERC20.sol\":6074:6614  if (from == address(0)) {... */\n  tag_48\n  swap1\n  pop\n  jump\ntag_45:\n  sub(shl(0xa0, 0x01), 0x01)\n    /* \"@openzeppelin/contracts/token/ERC20/ERC20.sol\":6288:6303  _balances[from] */\n  dup4\n  and\n    /* \"@openzeppelin/contracts/token/ERC20/ERC20.sol\":6266:6285  uint256 fromBalance */\n  0x00\n    /* \"@openzeppelin/contracts/token/ERC20/ERC20.sol\":6288:6303  _balances[from] */\n  swap1\n  dup2\n  mstore\n  0x20\n  dup2\n  swap1\n  mstore\n  0x40\n  swap1\n  keccak256\n  sload\n    /* \"@openzeppelin/contracts/token/ERC20/ERC20.sol\":6321:6340  fromBalance < value */\n  dup2\n  dup2\n  lt\n    /* \"@openzeppelin/contracts/token/ERC20/ERC20.sol\":6317:6432  if (fromBalance < value) {... */\n  iszero\n  tag_49\n  jumpi\n    /* \"@openzeppelin/contracts/token/ERC20/ERC20.sol\":6367:6417  ERC20InsufficientBalance(from, fromBalance, value) */\n  mload(0x40)\n  shl(0xe2, 0x391434e3)\n  dup2\n  mstore\n  sub(shl(0xa0, 0x01), 0x01)\n    /* \"#utility.yul\":6995:7027   */\n  dup6\n  and\n    /* \"@openzeppelin/contracts/token/ERC20/ERC20.sol\":6367:6417  ERC20InsufficientBalance(from, fromBalance, value) */\n  0x04\n  dup3\n  add\n    /* \"#utility.yul\":6977:7028   */\n  mstore\n    /* \"#utility.yul\":7044:7062   */\n  0x24\n  dup2\n  add\n    /* \"#utility.yul\":7037:7071   */\n  dup3\n  swap1\n  mstore\n    /* \"#utility.yul\":7087:7105   */\n  0x44\n  dup2\n  add\n    /* \"#utility.yul\":7080:7114   */\n  dup4\n  swap1\n  mstore\n    /* \"#utility.yul\":6950:6968   */\n  0x64\n  add\n    /* \"@openzeppelin/contracts/token/ERC20/ERC20.sol\":6367:6417  ERC20InsufficientBalance(from, fromBalance, value) */\n  tag_14\n    /* \"#utility.yul\":6775:7120   */\n  jump\n    /* \"@openzeppelin/contracts/token/ERC20/ERC20.sol\":6317:6432  if (fromBalance < value) {... */\ntag_49:\n  sub(shl(0xa0, 0x01), 0x01)\n    /* \"@openzeppelin/contracts/token/ERC20/ERC20.sol\":6552:6567  _balances[from] */\n  dup5\n  and\n    /* \"@openzeppelin/contracts/token/ERC20/ERC20.sol\":6552:6561  _balances */\n  0x00\n    /* \"@openzeppelin/contracts/token/ERC20/ERC20.sol\":6552:6567  _balances[from] */\n  swap1\n  dup2\n  mstore\n  0x20\n  dup2\n  swap1\n  mstore\n  0x40\n  swap1\n  keccak256\n    /* \"@openzeppelin/contracts/token/ERC20/ERC20.sol\":6570:6589  fromBalance - value */\n  swap1\n  dup3\n  swap1\n  sub\n    /* \"@openzeppelin/contracts/token/ERC20/ERC20.sol\":6552:6589  _balances[from] = fromBalance - value */\n  swap1\n  sstore\n    /* \"@openzeppelin/contracts/token/ERC20/ERC20.sol\":6074:6614  if (from == address(0)) {... */\ntag_48:\n  sub(shl(0xa0, 0x01), 0x01)\n    /* \"@openzeppelin/contracts/token/ERC20/ERC20.sol\":6628:6644  to == address(0) */\n  dup3\n  and\n    /* \"@openzeppelin/contracts/token/ERC20/ERC20.sol\":6624:7049  if (to == address(0)) {... */\n  tag_52\n  jumpi\n    /* \"@openzeppelin/contracts/token/ERC20/ERC20.sol\":6791:6803  _totalSupply */\n  0x02\n    /* \"@openzeppelin/contracts/token/ERC20/ERC20.sol\":6791:6812  _totalSupply -= value */\n  dup1\n  sload\n  dup3\n  swap1\n  sub\n  swap1\n  sstore\n    /* \"@openzeppelin/contracts/token/ERC20/ERC20.sol\":6624:7049  if (to == address(0)) {... */\n  jump(tag_53)\ntag_52:\n  sub(shl(0xa0, 0x01), 0x01)\n    /* \"@openzeppelin/contracts/token/ERC20/ERC20.sol\":7002:7015  _balances[to] */\n  dup3\n  and\n    /* \"@openzeppelin/contracts/token/ERC20/ERC20.sol\":7002:7011  _balances */\n  0x00\n    /* \"@openzeppelin/contracts/token/ERC20/ERC20.sol\":7002:7015  _balances[to] */\n  swap1\n  dup2\n  mstore\n  0x20\n  dup2\n  swap1\n  mstore\n  0x40\n  swap1\n  keccak256\n    /* \"@openzeppelin/contracts/token/ERC20/ERC20.sol\":7002:7024  _balances[to] += value */\n  dup1\n  sload\n  dup3\n  add\n  swap1\n  sstore\n    /* \"@openzeppelin/contracts/token/ERC20/ERC20.sol\":6624:7049  if (to == address(0)) {... */\ntag_53:\n    /* \"@openzeppelin/contracts/token/ERC20/ERC20.sol\":7079:7081  to */\n  dup2\n  sub(shl(0xa0, 0x01), 0x01)\n    /* \"@openzeppelin/contracts/token/ERC20/ERC20.sol\":7064:7089  Transfer(from, to, value) */\n  and\n    /* \"@openzeppelin/contracts/token/ERC20/ERC20.sol\":7073:7077  from */\n  dup4\n  sub(shl(0xa0, 0x01), 0x01)\n    /* \"@openzeppelin/contracts/token/ERC20/ERC20.sol\":7064:7089  Transfer(from, to, value) */\n  and\n  0xddf252ad1be2c89b69c2b068fc378daa952ba7f163c4a11628f55a4df523b3ef\n    /* \"@openzeppelin/contracts/token/ERC20/ERC20.sol\":7083:7088  value */\n  dup4\n    /* \"@openzeppelin/contracts/token/ERC20/ERC20.sol\":7064:7089  Transfer(from, to, value) */\n  mload(0x40)\n  tag_54\n  swap2\n    /* \"#utility.yul\":7271:7296   */\n  dup2\n  mstore\n    /* \"#utility.yul\":7259:7261   */\n  0x20\n    /* \"#utility.yul\":7244:7262   */\n  add\n  swap1\n    /* \"#utility.yul\":7125:7302   */\n  jump\n    /* \"@openzeppelin/contracts/token/ERC20/ERC20.sol\":7064:7089  Transfer(from, to, value) */\ntag_54:\n  mload(0x40)\n  dup1\n  swap2\n  sub\n  swap1\n  log3\n    /* \"@openzeppelin/contracts/token/ERC20/ERC20.sol\":5989:7096  function _update(address from, address to, uint256 value) internal virtual {... */\n  pop\n  pop\n  pop\n  jump\t// out\n    /* \"#utility.yul\":14:141   */\ntag_56:\n    /* \"#utility.yul\":75:85   */\n  0x4e487b71\n    /* \"#utility.yul\":70:73   */\n  0xe0\n    /* \"#utility.yul\":66:86   */\n  shl\n    /* \"#utility.yul\":63:64   */\n  0x00\n    /* \"#utility.yul\":56:87   */\n  mstore\n    /* \"#utility.yul\":106:110   */\n  0x41\n    /* \"#utility.yul\":103:104   */\n  0x04\n    /* \"#utility.yul\":96:111   */\n  mstore\n    /* \"#utility.yul\":130:134   */\n  0x24\n    /* \"#utility.yul\":127:128   */\n  0x00\n    /* \"#utility.yul\":120:135   */\n  revert\n    /* \"#utility.yul\":146:869   */\ntag_57:\n    /* \"#utility.yul\":200:205   */\n  0x00\n    /* \"#utility.yul\":253:256   */\n  dup3\n    /* \"#utility.yul\":246:250   */\n  0x1f\n    /* \"#utility.yul\":238:244   */\n  dup4\n    /* \"#utility.yul\":234:251   */\n  add\n    /* \"#utility.yul\":230:257   */\n  slt\n    /* \"#utility.yul\":220:275   */\n  tag_66\n  jumpi\n    /* \"#utility.yul\":271:272   */\n  0x00\n    /* \"#utility.yul\":268:269   */\n  0x00\n    /* \"#utility.yul\":261:273   */\n  revert\n    /* \"#utility.yul\":220:275   */\ntag_66:\n    /* \"#utility.yul\":298:311   */\n  dup2\n  mload\n  sub(shl(0x40, 0x01), 0x01)\n    /* \"#utility.yul\":323:353   */\n  dup2\n  gt\n    /* \"#utility.yul\":320:376   */\n  iszero\n  tag_68\n  jumpi\n    /* \"#utility.yul\":356:374   */\n  tag_68\n  tag_56\n  jump\t// in\ntag_68:\n    /* \"#utility.yul\":405:407   */\n  0x40\n    /* \"#utility.yul\":399:408   */\n  mload\n    /* \"#utility.yul\":497:499   */\n  0x1f\n    /* \"#utility.yul\":459:476   */\n  dup3\n  add\n  not(0x1f)\n    /* \"#utility.yul\":455:486   */\n  swap1\n  dup2\n  and\n    /* \"#utility.yul\":488:490   */\n  0x3f\n    /* \"#utility.yul\":451:491   */\n  add\n    /* \"#utility.yul\":447:501   */\n  and\n    /* \"#utility.yul\":435:502   */\n  dup2\n  add\n  sub(shl(0x40, 0x01), 0x01)\n    /* \"#utility.yul\":517:551   */\n  dup2\n  gt\n    /* \"#utility.yul\":553:575   */\n  dup3\n  dup3\n  lt\n    /* \"#utility.yul\":514:576   */\n  or\n    /* \"#utility.yul\":511:599   */\n  iszero\n  tag_70\n  jumpi\n    /* \"#utility.yul\":579:597   */\n  tag_70\n  tag_56\n  jump\t// in\ntag_70:\n    /* \"#utility.yul\":615:617   */\n  0x40\n    /* \"#utility.yul\":608:630   */\n  mstore\n    /* \"#utility.yul\":639:661   */\n  dup2\n  dup2\n  mstore\n    /* \"#utility.yul\":680:699   */\n  dup4\n  dup3\n  add\n    /* \"#utility.yul\":701:705   */\n  0x20\n    /* \"#utility.yul\":676:706   */\n  add\n    /* \"#utility.yul\":673:712   */\n  dup6\n  lt\n    /* \"#utility.yul\":670:729   */\n  iszero\n  tag_71\n  jumpi\n    /* \"#utility.yul\":725:726   */\n  0x00\n    /* \"#utility.yul\":722:723   */\n  0x00\n    /* \"#utility.yul\":715:727   */\n  revert\n    /* \"#utility.yul\":670:729   */\ntag_71:\n    /* \"#utility.yul\":782:788   */\n  dup2\n    /* \"#utility.yul\":775:779   */\n  0x20\n    /* \"#utility.yul\":767:773   */\n  dup6\n    /* \"#utility.yul\":763:780   */\n  add\n    /* \"#utility.yul\":756:760   */\n  0x20\n    /* \"#utility.yul\":748:754   */\n  dup4\n    /* \"#utility.yul\":744:761   */\n  add\n    /* \"#utility.yul\":738:789   */\n  mcopy\n    /* \"#utility.yul\":837:838   */\n  0x00\n    /* \"#utility.yul\":809:828   */\n  swap2\n  dup2\n  add\n    /* \"#utility.yul\":830:834   */\n  0x20\n    /* \"#utility.yul\":805:835   */\n  add\n    /* \"#utility.yul\":798:839   */\n  swap2\n  swap1\n  swap2\n  mstore\n    /* \"#utility.yul\":813:819   */\n  swap4\n    /* \"#utility.yul\":146:869   */\n  swap3\n  pop\n  pop\n  pop\n  jump\t// out\n    /* \"#utility.yul\":874:1051   */\ntag_58:\n    /* \"#utility.yul\":953:966   */\n  dup1\n  mload\n  sub(shl(0xa0, 0x01), 0x01)\n    /* \"#utility.yul\":995:1026   */\n  dup2\n  and\n    /* \"#utility.yul\":985:1027   */\n  dup2\n  eq\n    /* \"#utility.yul\":975:1045   */\n  tag_73\n  jumpi\n    /* \"#utility.yul\":1041:1042   */\n  0x00\n    /* \"#utility.yul\":1038:1039   */\n  0x00\n    /* \"#utility.yul\":1031:1043   */\n  revert\n    /* \"#utility.yul\":975:1045   */\ntag_73:\n    /* \"#utility.yul\":874:1051   */\n  swap2\n  swap1\n  pop\n  jump\t// out\n    /* \"#utility.yul\":1056:2163   */\ntag_3:\n    /* \"#utility.yul\":1198:1204   */\n  0x00\n    /* \"#utility.yul\":1206:1212   */\n  0x00\n    /* \"#utility.yul\":1214:1220   */\n  0x00\n    /* \"#utility.yul\":1222:1228   */\n  0x00\n    /* \"#utility.yul\":1230:1236   */\n  0x00\n    /* \"#utility.yul\":1238:1244   */\n  0x00\n    /* \"#utility.yul\":1246:1252   */\n  0x00\n    /* \"#utility.yul\":1299:1302   */\n  0xe0\n    /* \"#utility.yul\":1287:1296   */\n  dup9\n    /* \"#utility.yul\":1278:1285   */\n  dup11\n    /* \"#utility.yul\":1274:1297   */\n  sub\n    /* \"#utility.yul\":1270:1303   */\n  slt\n    /* \"#utility.yul\":1267:1320   */\n  iszero\n  tag_75\n  jumpi\n    /* \"#utility.yul\":1316:1317   */\n  0x00\n    /* \"#utility.yul\":1313:1314   */\n  0x00\n    /* \"#utility.yul\":1306:1318   */\n  revert\n    /* \"#utility.yul\":1267:1320   */\ntag_75:\n    /* \"#utility.yul\":1343:1359   */\n  dup8\n  mload\n  sub(shl(0x40, 0x01), 0x01)\n    /* \"#utility.yul\":1371:1401   */\n  dup2\n  gt\n    /* \"#utility.yul\":1368:1418   */\n  iszero\n  tag_76\n  jumpi\n    /* \"#utility.yul\":1414:1415   */\n  0x00\n    /* \"#utility.yul\":1411:1412   */\n  0x00\n    /* \"#utility.yul\":1404:1416   */\n  revert\n    /* \"#utility.yul\":1368:1418   */\ntag_76:\n    /* \"#utility.yul\":1437:1498   */\n  tag_77\n    /* \"#utility.yul\":1490:1497   */\n  dup11\n    /* \"#utility.yul\":1481:1487   */\n  dup3\n    /* \"#utility.yul\":1470:1479   */\n  dup12\n    /* \"#utility.yul\":1466:1488   */\n  add\n    /* \"#utility.yul\":1437:1498   */\n  tag_57\n  jump\t// in\ntag_77:\n    /* \"#utility.yul\":1544:1546   */\n  0x20\n    /* \"#utility.yul\":1529:1547   */\n  dup11\n  add\n    /* \"#utility.yul\":1523:1548   */\n  mload\n    /* \"#utility.yul\":1427:1498   */\n  swap1\n  swap9\n  pop\n    /* \"#utility.yul\":1523:1548   */\n  swap1\n  pop\n  sub(shl(0x40, 0x01), 0x01)\n    /* \"#utility.yul\":1560:1592   */\n  dup2\n  gt\n    /* \"#utility.yul\":1557:1609   */\n  iszero\n  tag_78\n  jumpi\n    /* \"#utility.yul\":1605:1606   */\n  0x00\n    /* \"#utility.yul\":1602:1603   */\n  0x00\n    /* \"#utility.yul\":1595:1607   */\n  revert\n    /* \"#utility.yul\":1557:1609   */\ntag_78:\n    /* \"#utility.yul\":1628:1691   */\n  tag_79\n    /* \"#utility.yul\":1683:1690   */\n  dup11\n    /* \"#utility.yul\":1672:1680   */\n  dup3\n    /* \"#utility.yul\":1661:1670   */\n  dup12\n    /* \"#utility.yul\":1657:1681   */\n  add\n    /* \"#utility.yul\":1628:1691   */\n  tag_57\n  jump\t// in\ntag_79:\n    /* \"#utility.yul\":1618:1691   */\n  swap7\n  pop\n  pop\n    /* \"#utility.yul\":1734:1736   */\n  0x40\n    /* \"#utility.yul\":1723:1732   */\n  dup9\n    /* \"#utility.yul\":1719:1737   */\n  add\n    /* \"#utility.yul\":1713:1738   */\n  mload\n    /* \"#utility.yul\":1778:1782   */\n  0xff\n    /* \"#utility.yul\":1771:1776   */\n  dup2\n    /* \"#utility.yul\":1767:1783   */\n  and\n    /* \"#utility.yul\":1760:1765   */\n  dup2\n    /* \"#utility.yul\":1757:1784   */\n  eq\n    /* \"#utility.yul\":1747:1802   */\n  tag_80\n  jumpi\n    /* \"#utility.yul\":1798:1799   */\n  0x00\n    /* \"#utility.yul\":1795:1796   */\n  0x00\n    /* \"#utility.yul\":1788:1800   */\n  revert\n    /* \"#utility.yul\":1747:1802   */\ntag_80:\n    /* \"#utility.yul\":1892:1894   */\n  0x60\n    /* \"#utility.yul\":1877:1895   */\n  dup10\n  add\n    /* \"#utility.yul\":1871:1896   */\n  mload\n    /* \"#utility.yul\":1821:1826   */\n  swap1\n  swap6\n  pop\n    /* \"#utility.yul\":1871:1896   */\n  swap4\n  pop\n    /* \"#utility.yul\":1941:1991   */\n  tag_81\n    /* \"#utility.yul\":1986:1989   */\n  0x80\n    /* \"#utility.yul\":1971:1990   */\n  dup10\n  add\n    /* \"#utility.yul\":1941:1991   */\n  tag_58\n  jump\t// in\ntag_81:\n    /* \"#utility.yul\":1931:1991   */\n  swap3\n  pop\n    /* \"#utility.yul\":2010:2060   */\n  tag_82\n    /* \"#utility.yul\":2055:2058   */\n  0xa0\n    /* \"#utility.yul\":2044:2053   */\n  dup10\n    /* \"#utility.yul\":2040:2059   */\n  add\n    /* \"#utility.yul\":2010:2060   */\n  tag_58\n  jump\t// in\ntag_82:\n    /* \"#utility.yul\":2000:2060   */\n  swap2\n  pop\n    /* \"#utility.yul\":2084:2085   */\n  0x00\n    /* \"#utility.yul\":2126:2129   */\n  0xc0\n    /* \"#utility.yul\":2115:2124   */\n  dup10\n    /* \"#utility.yul\":2111:2130   */\n  add\n    /* \"#utility.yul\":2105:2131   */\n  mload\n    /* \"#utility.yul\":2094:2131   */\n  swap1\n  pop\n    /* \"#utility.yul\":2150:2157   */\n  dup1\n    /* \"#utility.yul\":2140:2157   */\n  swap2\n  pop\n  pop\n    /* \"#utility.yul\":1056:2163   */\n  swap3\n  swap6\n  swap9\n  swap2\n  swap5\n  swap8\n  pop\n  swap3\n  swap6\n  pop\n  jump\t// out\n    /* \"#utility.yul\":2168:2548   */\ntag_59:\n    /* \"#utility.yul\":2247:2248   */\n  0x01\n    /* \"#utility.yul\":2243:2255   */\n  dup2\n  dup2\n  shr\n  swap1\n    /* \"#utility.yul\":2290:2302   */\n  dup3\n  and\n  dup1\n    /* \"#utility.yul\":2311:2372   */\n  tag_84\n  jumpi\n    /* \"#utility.yul\":2365:2369   */\n  0x7f\n    /* \"#utility.yul\":2357:2363   */\n  dup3\n    /* \"#utility.yul\":2353:2370   */\n  and\n    /* \"#utility.yul\":2343:2370   */\n  swap2\n  pop\n    /* \"#utility.yul\":2311:2372   */\ntag_84:\n    /* \"#utility.yul\":2418:2420   */\n  0x20\n    /* \"#utility.yul\":2410:2416   */\n  dup3\n    /* \"#utility.yul\":2407:2421   */\n  lt\n    /* \"#utility.yul\":2387:2405   */\n  dup2\n    /* \"#utility.yul\":2384:2422   */\n  sub\n    /* \"#utility.yul\":2381:2542   */\n  tag_85\n  jumpi\n    /* \"#utility.yul\":2464:2474   */\n  0x4e487b71\n    /* \"#utility.yul\":2459:2462   */\n  0xe0\n    /* \"#utility.yul\":2455:2475   */\n  shl\n    /* \"#utility.yul\":2452:2453   */\n  0x00\n    /* \"#utility.yul\":2445:2476   */\n  mstore\n    /* \"#utility.yul\":2499:2503   */\n  0x22\n    /* \"#utility.yul\":2496:2497   */\n  0x04\n    /* \"#utility.yul\":2489:2504   */\n  mstore\n    /* \"#utility.yul\":2527:2531   */\n  0x24\n    /* \"#utility.yul\":2524:2525   */\n  0x00\n    /* \"#utility.yul\":2517:2532   */\n  revert\n    /* \"#utility.yul\":2381:2542   */\ntag_85:\n  pop\n    /* \"#utility.yul\":2168:2548   */\n  swap2\n  swap1\n  pop\n  jump\t// out\n    /* \"#utility.yul\":2679:3197   */\ntag_61:\n    /* \"#utility.yul\":2781:2783   */\n  0x1f\n    /* \"#utility.yul\":2776:2779   */\n  dup3\n    /* \"#utility.yul\":2773:2784   */\n  gt\n    /* \"#utility.yul\":2770:3191   */\n  iszero\n  tag_88\n  jumpi\n    /* \"#utility.yul\":2817:2822   */\n  dup1\n    /* \"#utility.yul\":2814:2815   */\n  0x00\n    /* \"#utility.yul\":2807:2823   */\n  mstore\n    /* \"#utility.yul\":2861:2865   */\n  0x20\n    /* \"#utility.yul\":2858:2859   */\n  0x00\n    /* \"#utility.yul\":2848:2866   */\n  keccak256\n    /* \"#utility.yul\":2931:2933   */\n  0x1f\n    /* \"#utility.yul\":2919:2929   */\n  dup5\n    /* \"#utility.yul\":2915:2934   */\n  add\n    /* \"#utility.yul\":2912:2913   */\n  0x05\n    /* \"#utility.yul\":2908:2935   */\n  shr\n    /* \"#utility.yul\":2902:2906   */\n  dup2\n    /* \"#utility.yul\":2898:2936   */\n  add\n    /* \"#utility.yul\":2967:2971   */\n  0x20\n    /* \"#utility.yul\":2955:2965   */\n  dup6\n    /* \"#utility.yul\":2952:2972   */\n  lt\n    /* \"#utility.yul\":2949:2996   */\n  iszero\n  tag_89\n  jumpi\n  pop\n    /* \"#utility.yul\":2990:2994   */\n  dup1\n    /* \"#utility.yul\":2949:2996   */\ntag_89:\n    /* \"#utility.yul\":3045:3047   */\n  0x1f\n    /* \"#utility.yul\":3040:3043   */\n  dup5\n    /* \"#utility.yul\":3036:3048   */\n  add\n    /* \"#utility.yul\":3033:3034   */\n  0x05\n    /* \"#utility.yul\":3029:3049   */\n  shr\n    /* \"#utility.yul\":3023:3027   */\n  dup3\n    /* \"#utility.yul\":3019:3050   */\n  add\n    /* \"#utility.yul\":3009:3050   */\n  swap2\n  pop\n    /* \"#utility.yul\":3100:3181   */\ntag_90:\n    /* \"#utility.yul\":3118:3120   */\n  dup2\n    /* \"#utility.yul\":3111:3116   */\n  dup2\n    /* \"#utility.yul\":3108:3121   */\n  lt\n    /* \"#utility.yul\":3100:3181   */\n  iszero\n  tag_92\n  jumpi\n    /* \"#utility.yul\":3177:3178   */\n  0x00\n    /* \"#utility.yul\":3163:3179   */\n  dup2\n  sstore\n    /* \"#utility.yul\":3144:3145   */\n  0x01\n    /* \"#utility.yul\":3133:3146   */\n  add\n    /* \"#utility.yul\":3100:3181   */\n  jump(tag_90)\ntag_92:\n    /* \"#utility.yul\":3104:3107   */\n  pop\n  pop\n    /* \"#utility.yul\":2770:3191   */\ntag_88:\n    /* \"#utility.yul\":2679:3197   */\n  pop\n  pop\n  pop\n  jump\t// out\n    /* \"#utility.yul\":3373:4672   */\ntag_10:\n    /* \"#utility.yul\":3493:3503   */\n  dup2\n  mload\n  sub(shl(0x40, 0x01), 0x01)\n    /* \"#utility.yul\":3515:3545   */\n  dup2\n  gt\n    /* \"#utility.yul\":3512:3568   */\n  iszero\n  tag_96\n  jumpi\n    /* \"#utility.yul\":3548:3566   */\n  tag_96\n  tag_56\n  jump\t// in\ntag_96:\n    /* \"#utility.yul\":3577:3674   */\n  tag_97\n    /* \"#utility.yul\":3667:3673   */\n  dup2\n    /* \"#utility.yul\":3627:3665   */\n  tag_98\n    /* \"#utility.yul\":3659:3663   */\n  dup5\n    /* \"#utility.yul\":3653:3664   */\n  sload\n    /* \"#utility.yul\":3627:3665   */\n  tag_59\n  jump\t// in\ntag_98:\n    /* \"#utility.yul\":3621:3625   */\n  dup5\n    /* \"#utility.yul\":3577:3674   */\n  tag_61\n  jump\t// in\ntag_97:\n    /* \"#utility.yul\":3723:3727   */\n  0x20\n    /* \"#utility.yul\":3754:3756   */\n  0x1f\n    /* \"#utility.yul\":3743:3757   */\n  dup3\n  gt\n    /* \"#utility.yul\":3771:3772   */\n  0x01\n    /* \"#utility.yul\":3766:4415   */\n  dup2\n  eq\n  tag_100\n  jumpi\n    /* \"#utility.yul\":4459:4460   */\n  0x00\n    /* \"#utility.yul\":4476:4482   */\n  dup4\n    /* \"#utility.yul\":4473:4562   */\n  iszero\n  tag_101\n  jumpi\n  pop\n    /* \"#utility.yul\":4528:4547   */\n  dup5\n  dup3\n  add\n    /* \"#utility.yul\":4522:4548   */\n  mload\n    /* \"#utility.yul\":4473:4562   */\ntag_101:\n  not(0x00)\n    /* \"#utility.yul\":3330:3331   */\n  0x03\n    /* \"#utility.yul\":3326:3337   */\n  dup6\n  swap1\n  shl\n    /* \"#utility.yul\":3322:3346   */\n  shr\n    /* \"#utility.yul\":3318:3347   */\n  not\n    /* \"#utility.yul\":3308:3348   */\n  and\n    /* \"#utility.yul\":3354:3355   */\n  0x01\n    /* \"#utility.yul\":3350:3361   */\n  dup5\n  swap1\n  shl\n    /* \"#utility.yul\":3305:3362   */\n  or\n    /* \"#utility.yul\":4575:4656   */\n  dup5\n  sstore\n    /* \"#utility.yul\":3736:4666   */\n  jump(tag_92)\n    /* \"#utility.yul\":3766:4415   */\ntag_100:\n    /* \"#utility.yul\":2626:2627   */\n  0x00\n    /* \"#utility.yul\":2619:2633   */\n  dup5\n  dup2\n  mstore\n    /* \"#utility.yul\":2663:2667   */\n  0x20\n    /* \"#utility.yul\":2650:2668   */\n  dup2\n  keccak256\n  not(0x1f)\n    /* \"#utility.yul\":3802:3822   */\n  dup6\n  and\n  swap2\n    /* \"#utility.yul\":3920:4142   */\ntag_104:\n    /* \"#utility.yul\":3934:3941   */\n  dup3\n    /* \"#utility.yul\":3931:3932   */\n  dup2\n    /* \"#utility.yul\":3928:3942   */\n  lt\n    /* \"#utility.yul\":3920:4142   */\n  iszero\n  tag_106\n  jumpi\n    /* \"#utility.yul\":4016:4035   */\n  dup8\n  dup6\n  add\n    /* \"#utility.yul\":4010:4036   */\n  mload\n    /* \"#utility.yul\":3995:4037   */\n  dup3\n  sstore\n    /* \"#utility.yul\":4123:4127   */\n  0x20\n    /* \"#utility.yul\":4108:4128   */\n  swap5\n  dup6\n  add\n  swap5\n    /* \"#utility.yul\":4076:4077   */\n  0x01\n    /* \"#utility.yul\":4064:4078   */\n  swap1\n  swap3\n  add\n  swap2\n    /* \"#utility.yul\":3950:3962   */\n  add\n    /* \"#utility.yul\":3920:4142   */\n  jump(tag_104)\ntag_106:\n    /* \"#utility.yul\":3924:3927   */\n  pop\n    /* \"#utility.yul\":4170:4176   */\n  dup5\n    /* \"#utility.yul\":4161:4168   */\n  dup3\n    /* \"#utility.yul\":4158:4177   */\n  lt\n    /* \"#utility.yul\":4155:4356   */\n  iszero\n  tag_107\n  jumpi\n    /* \"#utility.yul\":4231:4250   */\n  dup7\n  dup5\n  add\n    /* \"#utility.yul\":4225:4251   */\n  mload\n  not(0x00)\n    /* \"#utility.yul\":4314:4315   */\n  0x03\n    /* \"#utility.yul\":4310:4324   */\n  dup8\n  swap1\n  shl\n    /* \"#utility.yul\":4326:4329   */\n  0xf8\n    /* \"#utility.yul\":4306:4330   */\n  and\n    /* \"#utility.yul\":4302:4339   */\n  shr\n    /* \"#utility.yul\":4298:4340   */\n  not\n    /* \"#utility.yul\":4283:4341   */\n  and\n    /* \"#utility.yul\":4268:4342   */\n  dup2\n  sstore\n    /* \"#utility.yul\":4155:4356   */\ntag_107:\n  pop\n  pop\n  pop\n  pop\n    /* \"#utility.yul\":4402:4403   */\n  0x01\n    /* \"#utility.yul\":4386:4400   */\n  swap1\n  dup2\n  shl\n    /* \"#utility.yul\":4382:4404   */\n  add\n    /* \"#utility.yul\":4369:4405   */\n  swap1\n  sstore\n  pop\n    /* \"#utility.yul\":3373:4672   */\n  jump\t// out\n    /* \"#utility.yul\":6548:6770   */\ntag_47:\n    /* \"#utility.yul\":6613:6622   */\n  dup1\n  dup3\n  add\n    /* \"#utility.yul\":6634:6644   */\n  dup1\n  dup3\n  gt\n    /* \"#utility.yul\":6631:6764   */\n  iszero\n  tag_114\n  jumpi\n    /* \"#utility.yul\":6686:6696   */\n  0x4e487b71\n    /* \"#utility.yul\":6681:6684   */\n  0xe0\n    /* \"#utility.yul\":6677:6697   */\n  shl\n    /* \"#utility.yul\":6674:6675   */\n  0x00\n    /* \"#utility.yul\":6667:6698   */\n  mstore\n    /* \"#utility.yul\":6721:6725   */\n  0x11\n    /* \"#utility.yul\":6718:6719   */\n  0x04\n    /* \"#utility.yul\":6711:6726   */\n  mstore\n    /* \"#utility.yul\":6749:6753   */\n  0x24\n    /* \"#utility.yul\":6746:6747   */\n  0x00\n    /* \"#utility.yul\":6739:6754   */\n  revert\n    /* \"#utility.yul\":6631:6764   */\ntag_114:\n    /* \"#utility.yul\":6548:6770   */\n  swap3\n  swap2\n  pop\n  pop\n  jump\t// out\n    /* \"#utility.yul\":7125:7302   */\ntag_63:\n    /* \"GameToken.sol\":483:9590  contract GameToken is ERC20, Ownable, ReentrancyGuard {... */\n  mload(0x80)\n  mload(0xa0)\n  mload(0xc0)\n  codecopy(0x00, dataOffset(sub_0), dataSize(sub_0))\n  0x00\n  assignImmutable(\"0x1574fd9c456ac2178cca2062e903c8444982ecdf56930f6d4f7e607dd7e8f619\")\n  0x00\n  assignImmutable(\"0x72fc7ab3e40b1907e59758f569afe04bc56a27641f6a4e6ae11ca369e7d44bde\")\n  0x00\n  assignImmutable(\"0x45e4122ae096aaf6e2aaec946f0a01ae525edda3a7e2c6a387bb8ca107829b76\")\n  return(0x00, dataSize(sub_0))\nstop\n\nsub_0: assembly {\n        /* \"GameToken.sol\":483:9590  contract GameToken is ERC20, Ownable, ReentrancyGuard {... */\n      mstore(0x40, 0x80)\n      callvalue\n      dup1\n      iszero\n      tag_1\n      jumpi\n      revert(0x00, 0x00)\n    tag_1:\n      pop\n      jumpi(tag_2, lt(calldatasize, 0x04))\n      shr(0xe0, calldataload(0x00))\n      dup1\n      0x7b2c835f\n      gt\n      tag_26\n      jumpi\n      dup1\n      0xc45a0155\n      gt\n      tag_27\n      jumpi\n      dup1\n      0xc45a0155\n      eq\n      tag_20\n      jumpi\n      dup1\n      0xd7c81b55\n      eq\n      tag_21\n      jumpi\n      dup1\n      0xd89135cd\n      eq\n      tag_22\n      jumpi\n      dup1\n      0xdd62ed3e\n      eq\n      tag_23\n      jumpi\n      dup1\n      0xf2fde38b\n      eq\n      tag_24\n      jumpi\n      dup1\n      0xf658f32a\n      eq\n      tag_25\n      jumpi\n      revert(0x00, 0x00)\n    tag_27:\n      dup1\n      0x7b2c835f\n      eq\n      tag_14\n      jumpi\n      dup1\n      0x8da5cb5b\n      eq\n      tag_15\n      jumpi\n      dup1\n      0x95d89b41\n      eq\n      tag_16\n      jumpi\n      dup1\n      0xa4f0ecd3\n      eq\n      tag_17\n      jumpi\n      dup1\n      0xa9059cbb\n      eq\n      tag_18\n      jumpi\n      dup1\n      0xad1329d1\n      eq\n      tag_19\n      jumpi\n      revert(0x00, 0x00)\n    tag_26:\n      dup1\n      0x42966c68\n      gt\n      tag_28\n      jumpi\n      dup1\n      0x42966c68\n      eq\n      tag_8\n      jumpi\n      dup1\n      0x5dc96d16\n      eq\n      tag_9\n      jumpi\n      dup1\n      0x6a627842\n      eq\n      tag_10\n      jumpi\n      dup1\n      0x70a08231\n      eq\n      tag_11\n      jumpi\n      dup1\n      0x715018a6\n      eq\n      tag_12\n      jumpi\n      dup1\n      0x79cc6790\n      eq\n      tag_13\n      jumpi\n      revert(0x00, 0x00)\n    tag_28:\n      dup1\n      0x06fdde03\n      eq\n      tag_3\n      jumpi\n      dup1\n      0x095ea7b3\n      eq\n      tag_4\n      jumpi\n      dup1\n      0x18160ddd\n      eq\n      tag_5\n      jumpi\n      dup1\n      0x23b872dd\n      eq\n      tag_6\n      jumpi\n      dup1\n      0x313ce567\n      eq\n      tag_7\n      jumpi\n    tag_2:\n      revert(0x00, 0x00)\n        /* \"@openzeppelin/contracts/token/ERC20/ERC20.sol\":1760:1849  function name() public view virtual returns (string memory) {... */\n    tag_3:\n      tag_29\n      tag_30\n      jump\t// in\n    tag_29:\n      mload(0x40)\n      tag_31\n      swap2\n      swap1\n      tag_32\n      jump\t// in\n    tag_31:\n      mload(0x40)\n      dup1\n      swap2\n      sub\n      swap1\n      return\n        /* \"@openzeppelin/contracts/token/ERC20/ERC20.sol\":3979:4165  function approve(address spender, uint256 value) public virtual returns (bool) {... */\n    tag_4:\n      tag_33\n      tag_34\n      calldatasize\n      0x04\n      tag_35\n      jump\t// in\n    tag_34:\n      tag_36\n      jump\t// in\n    tag_33:\n      mload(0x40)\n        /* \"#utility.yul\":1181:1195   */\n      swap1\n      iszero\n        /* \"#utility.yul\":1174:1196   */\n      iszero\n        /* \"#utility.yul\":1156:1197   */\n      dup2\n      mstore\n        /* \"#utility.yul\":1144:1146   */\n      0x20\n        /* \"#utility.yul\":1129:1147   */\n      add\n        /* \"@openzeppelin/contracts/token/ERC20/ERC20.sol\":3979:4165  function approve(address spender, uint256 value) public virtual returns (bool) {... */\n      tag_31\n        /* \"#utility.yul\":1016:1203   */\n      jump\n        /* \"@openzeppelin/contracts/token/ERC20/ERC20.sol\":2830:2927  function totalSupply() public view virtual returns (uint256) {... */\n    tag_5:\n        /* \"@openzeppelin/contracts/token/ERC20/ERC20.sol\":2908:2920  _totalSupply */\n      sload(0x02)\n        /* \"@openzeppelin/contracts/token/ERC20/ERC20.sol\":2830:2927  function totalSupply() public view virtual returns (uint256) {... */\n    tag_39:\n      mload(0x40)\n        /* \"#utility.yul\":1354:1379   */\n      swap1\n      dup2\n      mstore\n        /* \"#utility.yul\":1342:1344   */\n      0x20\n        /* \"#utility.yul\":1327:1345   */\n      add\n        /* \"@openzeppelin/contracts/token/ERC20/ERC20.sol\":2830:2927  function totalSupply() public view virtual returns (uint256) {... */\n      tag_31\n        /* \"#utility.yul\":1208:1385   */\n      jump\n        /* \"@openzeppelin/contracts/token/ERC20/ERC20.sol\":4757:5001  function transferFrom(address from, address to, uint256 value) public virtual returns (bool) {... */\n    tag_6:\n      tag_33\n      tag_44\n      calldatasize\n      0x04\n      tag_45\n      jump\t// in\n    tag_44:\n      tag_46\n      jump\t// in\n        /* \"GameToken.sol\":4546:4636  function decimals() public view override returns (uint8) {... */\n    tag_7:\n      mload(0x40)\n        /* \"#utility.yul\":1941:1945   */\n      0xff\n        /* \"GameToken.sol\":4620:4629  _decimals */\n      immutable(\"0x45e4122ae096aaf6e2aaec946f0a01ae525edda3a7e2c6a387bb8ca107829b76\")\n        /* \"#utility.yul\":1929:1946   */\n      and\n        /* \"#utility.yul\":1911:1947   */\n      dup2\n      mstore\n        /* \"#utility.yul\":1899:1901   */\n      0x20\n        /* \"#utility.yul\":1884:1902   */\n      add\n        /* \"GameToken.sol\":4546:4636  function decimals() public view override returns (uint8) {... */\n      tag_31\n        /* \"#utility.yul\":1769:1953   */\n      jump\n        /* \"GameToken.sol\":6905:7889  function burn(uint256 amount) external burnAllowed nonReentrant {... */\n    tag_8:\n      tag_52\n      tag_53\n      calldatasize\n      0x04\n      tag_54\n      jump\t// in\n    tag_53:\n      tag_55\n      jump\t// in\n    tag_52:\n      stop\n        /* \"GameToken.sol\":919:949  bool public burnEnabled = true */\n    tag_9:\n      sload(0x08)\n      tag_33\n      swap1\n      0xff\n      and\n      dup2\n      jump\n        /* \"GameToken.sol\":9487:9588  function mint(address) external pure {... */\n    tag_10:\n      tag_52\n      tag_60\n      calldatasize\n      0x04\n      tag_61\n      jump\t// in\n    tag_60:\n      tag_62\n      jump\t// in\n        /* \"@openzeppelin/contracts/token/ERC20/ERC20.sol\":2985:3101  function balanceOf(address account) public view virtual returns (uint256) {... */\n    tag_11:\n      tag_39\n      tag_64\n      calldatasize\n      0x04\n      tag_61\n      jump\t// in\n    tag_64:\n      sub(shl(0xa0, 0x01), 0x01)\n        /* \"@openzeppelin/contracts/token/ERC20/ERC20.sol\":3076:3094  _balances[account] */\n      and\n        /* \"@openzeppelin/contracts/token/ERC20/ERC20.sol\":3050:3057  uint256 */\n      0x00\n        /* \"@openzeppelin/contracts/token/ERC20/ERC20.sol\":3076:3094  _balances[account] */\n      swap1\n      dup2\n      mstore\n      0x20\n      dup2\n      swap1\n      mstore\n      0x40\n      swap1\n      keccak256\n      sload\n      swap1\n        /* \"@openzeppelin/contracts/token/ERC20/ERC20.sol\":2985:3101  function balanceOf(address account) public view virtual returns (uint256) {... */\n      jump\n        /* \"@openzeppelin/contracts/access/Ownable.sol\":2293:2394  function renounceOwnership() public virtual onlyOwner {... */\n    tag_12:\n      tag_52\n      tag_68\n      jump\t// in\n        /* \"GameToken.sol\":4871:6515  function burnFrom(address from, uint256 amount) ... */\n    tag_13:\n      tag_52\n      tag_70\n      calldatasize\n      0x04\n      tag_35\n      jump\t// in\n    tag_70:\n      tag_71\n      jump\t// in\n        /* \"GameToken.sol\":8075:8211  function setBurnEnabled(bool enabled) external onlyOwner {... */\n    tag_14:\n      tag_52\n      tag_73\n      calldatasize\n      0x04\n      tag_74\n      jump\t// in\n    tag_73:\n      tag_75\n      jump\t// in\n        /* \"@openzeppelin/contracts/access/Ownable.sol\":1638:1723  function owner() public view virtual returns (address) {... */\n    tag_15:\n        /* \"@openzeppelin/contracts/access/Ownable.sol\":1710:1716  _owner */\n      and(sub(shl(0xa0, 0x01), 0x01), sload(0x05))\n        /* \"@openzeppelin/contracts/access/Ownable.sol\":1638:1723  function owner() public view virtual returns (address) {... */\n    tag_76:\n      mload(0x40)\n      sub(shl(0xa0, 0x01), 0x01)\n        /* \"#utility.yul\":2913:2945   */\n      swap1\n      swap2\n      and\n        /* \"#utility.yul\":2895:2946   */\n      dup2\n      mstore\n        /* \"#utility.yul\":2883:2885   */\n      0x20\n        /* \"#utility.yul\":2868:2886   */\n      add\n        /* \"@openzeppelin/contracts/access/Ownable.sol\":1638:1723  function owner() public view virtual returns (address) {... */\n      tag_31\n        /* \"#utility.yul\":2749:2952   */\n      jump\n        /* \"@openzeppelin/contracts/token/ERC20/ERC20.sol\":1962:2055  function symbol() public view virtual returns (string memory) {... */\n    tag_16:\n      tag_29\n      tag_81\n      jump\t// in\n        /* \"GameToken.sol\":9094:9327  function factoryMint(address to, uint256 amount) external onlyFactory {... */\n    tag_17:\n      tag_52\n      tag_84\n      calldatasize\n      0x04\n      tag_35\n      jump\t// in\n    tag_84:\n      tag_85\n      jump\t// in\n        /* \"@openzeppelin/contracts/token/ERC20/ERC20.sol\":3296:3474  function transfer(address to, uint256 value) public virtual returns (bool) {... */\n    tag_18:\n      tag_33\n      tag_87\n      calldatasize\n      0x04\n      tag_35\n      jump\t// in\n    tag_87:\n      tag_88\n      jump\t// in\n        /* \"GameToken.sol\":8450:8930  function emergencyRecover(... */\n    tag_19:\n      tag_52\n      tag_91\n      calldatasize\n      0x04\n      tag_45\n      jump\t// in\n    tag_91:\n      tag_92\n      jump\t// in\n        /* \"GameToken.sol\":651:683  address public immutable factory */\n    tag_20:\n      tag_76\n      immutable(\"0x72fc7ab3e40b1907e59758f569afe04bc56a27641f6a4e6ae11ca369e7d44bde\")\n      dup2\n      jump\n        /* \"GameToken.sol\":734:765  uint256 public immutable gameId */\n    tag_21:\n      tag_39\n      immutable(\"0x1574fd9c456ac2178cca2062e903c8444982ecdf56930f6d4f7e607dd7e8f619\")\n      dup2\n      jump\n        /* \"GameToken.sol\":851:877  uint256 public totalBurned */\n    tag_22:\n      tag_39\n      sload(0x07)\n      dup2\n      jump\n        /* \"@openzeppelin/contracts/token/ERC20/ERC20.sol\":3532:3672  function allowance(address owner, address spender) public view virtual returns (uint256) {... */\n    tag_23:\n      tag_39\n      tag_103\n      calldatasize\n      0x04\n      tag_104\n      jump\t// in\n    tag_103:\n      sub(shl(0xa0, 0x01), 0x01)\n        /* \"@openzeppelin/contracts/token/ERC20/ERC20.sol\":3638:3656  _allowances[owner] */\n      swap2\n      dup3\n      and\n        /* \"@openzeppelin/contracts/token/ERC20/ERC20.sol\":3612:3619  uint256 */\n      0x00\n        /* \"@openzeppelin/contracts/token/ERC20/ERC20.sol\":3638:3656  _allowances[owner] */\n      swap1\n      dup2\n      mstore\n        /* \"@openzeppelin/contracts/token/ERC20/ERC20.sol\":3638:3649  _allowances */\n      0x01\n        /* \"@openzeppelin/contracts/token/ERC20/ERC20.sol\":3638:3656  _allowances[owner] */\n      0x20\n      swap1\n      dup2\n      mstore\n      0x40\n      dup1\n      dup4\n      keccak256\n        /* \"@openzeppelin/contracts/token/ERC20/ERC20.sol\":3638:3665  _allowances[owner][spender] */\n      swap4\n      swap1\n      swap5\n      and\n      dup3\n      mstore\n      swap2\n      swap1\n      swap2\n      mstore\n      keccak256\n      sload\n      swap1\n        /* \"@openzeppelin/contracts/token/ERC20/ERC20.sol\":3532:3672  function allowance(address owner, address spender) public view virtual returns (uint256) {... */\n      jump\n        /* \"@openzeppelin/contracts/access/Ownable.sol\":2543:2758  function transferOwnership(address newOwner) public virtual onlyOwner {... */\n    tag_24:\n      tag_52\n      tag_108\n      calldatasize\n      0x04\n      tag_61\n      jump\t// in\n    tag_108:\n      tag_109\n      jump\t// in\n        /* \"GameToken.sol\":6606:6775  function _performBurn(address from, uint256 amount) external {... */\n    tag_25:\n      tag_52\n      tag_111\n      calldatasize\n      0x04\n      tag_35\n      jump\t// in\n    tag_111:\n      tag_112\n      jump\t// in\n        /* \"@openzeppelin/contracts/token/ERC20/ERC20.sol\":1760:1849  function name() public view virtual returns (string memory) {... */\n    tag_30:\n        /* \"@openzeppelin/contracts/token/ERC20/ERC20.sol\":1805:1818  string memory */\n      0x60\n        /* \"@openzeppelin/contracts/token/ERC20/ERC20.sol\":1837:1842  _name */\n      0x03\n        /* \"@openzeppelin/contracts/token/ERC20/ERC20.sol\":1830:1842  return _name */\n      dup1\n      sload\n      tag_114\n      swap1\n      tag_115\n      jump\t// in\n    tag_114:\n      dup1\n      0x1f\n      add\n      0x20\n      dup1\n      swap2\n      div\n      mul\n      0x20\n      add\n      mload(0x40)\n      swap1\n      dup2\n      add\n      0x40\n      mstore\n      dup1\n      swap3\n      swap2\n      swap1\n      dup2\n      dup2\n      mstore\n      0x20\n      add\n      dup3\n      dup1\n      sload\n      tag_116\n      swap1\n      tag_115\n      jump\t// in\n    tag_116:\n      dup1\n      iszero\n      tag_117\n      jumpi\n      dup1\n      0x1f\n      lt\n      tag_118\n      jumpi\n      0x0100\n      dup1\n      dup4\n      sload\n      div\n      mul\n      dup4\n      mstore\n      swap2\n      0x20\n      add\n      swap2\n      jump(tag_117)\n    tag_118:\n      dup3\n      add\n      swap2\n      swap1\n      0x00\n      mstore\n      keccak256(0x00, 0x20)\n      swap1\n    tag_119:\n      dup2\n      sload\n      dup2\n      mstore\n      swap1\n      0x01\n      add\n      swap1\n      0x20\n      add\n      dup1\n      dup4\n      gt\n      tag_119\n      jumpi\n      dup3\n      swap1\n      sub\n      0x1f\n      and\n      dup3\n      add\n      swap2\n    tag_117:\n      pop\n      pop\n      pop\n      pop\n      pop\n      swap1\n      pop\n        /* \"@openzeppelin/contracts/token/ERC20/ERC20.sol\":1760:1849  function name() public view virtual returns (string memory) {... */\n      swap1\n      jump\t// out\n        /* \"@openzeppelin/contracts/token/ERC20/ERC20.sol\":3979:4165  function approve(address spender, uint256 value) public virtual returns (bool) {... */\n    tag_36:\n        /* \"@openzeppelin/contracts/token/ERC20/ERC20.sol\":4052:4056  bool */\n      0x00\n        /* \"@openzeppelin/contracts/utils/Context.sol\":735:745  msg.sender */\n      caller\n        /* \"@openzeppelin/contracts/token/ERC20/ERC20.sol\":4106:4137  _approve(owner, spender, value) */\n      tag_123\n        /* \"@openzeppelin/contracts/utils/Context.sol\":735:745  msg.sender */\n      dup2\n        /* \"@openzeppelin/contracts/token/ERC20/ERC20.sol\":4122:4129  spender */\n      dup6\n        /* \"@openzeppelin/contracts/token/ERC20/ERC20.sol\":4131:4136  value */\n      dup6\n        /* \"@openzeppelin/contracts/token/ERC20/ERC20.sol\":4106:4114  _approve */\n      tag_124\n        /* \"@openzeppelin/contracts/token/ERC20/ERC20.sol\":4106:4137  _approve(owner, spender, value) */\n      jump\t// in\n    tag_123:\n        /* \"@openzeppelin/contracts/token/ERC20/ERC20.sol\":4154:4158  true */\n      0x01\n        /* \"@openzeppelin/contracts/token/ERC20/ERC20.sol\":4147:4158  return true */\n      swap2\n      pop\n      pop\n        /* \"@openzeppelin/contracts/token/ERC20/ERC20.sol\":3979:4165  function approve(address spender, uint256 value) public virtual returns (bool) {... */\n    tag_120:\n      swap3\n      swap2\n      pop\n      pop\n      jump\t// out\n        /* \"@openzeppelin/contracts/token/ERC20/ERC20.sol\":4757:5001  function transferFrom(address from, address to, uint256 value) public virtual returns (bool) {... */\n    tag_46:\n        /* \"@openzeppelin/contracts/token/ERC20/ERC20.sol\":4844:4848  bool */\n      0x00\n        /* \"@openzeppelin/contracts/utils/Context.sol\":735:745  msg.sender */\n      caller\n        /* \"@openzeppelin/contracts/token/ERC20/ERC20.sol\":4900:4937  _spendAllowance(from, spender, value) */\n      tag_128\n        /* \"@openzeppelin/contracts/token/ERC20/ERC20.sol\":4916:4920  from */\n      dup6\n        /* \"@openzeppelin/contracts/utils/Context.sol\":735:745  msg.sender */\n      dup3\n        /* \"@openzeppelin/contracts/token/ERC20/ERC20.sol\":4931:4936  value */\n      dup6\n        /* \"@openzeppelin/contracts/token/ERC20/ERC20.sol\":4900:4915  _spendAllowance */\n      tag_129\n        /* \"@openzeppelin/contracts/token/ERC20/ERC20.sol\":4900:4937  _spendAllowance(from, spender, value) */\n      jump\t// in\n    tag_128:\n        /* \"@openzeppelin/contracts/token/ERC20/ERC20.sol\":4947:4973  _transfer(from, to, value) */\n      tag_130\n        /* \"@openzeppelin/contracts/token/ERC20/ERC20.sol\":4957:4961  from */\n      dup6\n        /* \"@openzeppelin/contracts/token/ERC20/ERC20.sol\":4963:4965  to */\n      dup6\n        /* \"@openzeppelin/contracts/token/ERC20/ERC20.sol\":4967:4972  value */\n      dup6\n        /* \"@openzeppelin/contracts/token/ERC20/ERC20.sol\":4947:4956  _transfer */\n      tag_131\n        /* \"@openzeppelin/contracts/token/ERC20/ERC20.sol\":4947:4973  _transfer(from, to, value) */\n      jump\t// in\n    tag_130:\n      pop\n        /* \"@openzeppelin/contracts/token/ERC20/ERC20.sol\":4990:4994  true */\n      0x01\n      swap5\n        /* \"@openzeppelin/contracts/token/ERC20/ERC20.sol\":4757:5001  function transferFrom(address from, address to, uint256 value) public virtual returns (bool) {... */\n      swap4\n      pop\n      pop\n      pop\n      pop\n      jump\t// out\n        /* \"GameToken.sol\":6905:7889  function burn(uint256 amount) external burnAllowed nonReentrant {... */\n    tag_55:\n        /* \"GameToken.sol\":3098:3109  burnEnabled */\n      and(0xff, sload(0x08))\n        /* \"GameToken.sol\":3093:3153  if (!burnEnabled) revert BurnDisabled(\"Burning is disabled\") */\n      tag_134\n      jumpi\n        /* \"GameToken.sol\":3118:3153  BurnDisabled(\"Burning is disabled\") */\n      mload(0x40)\n      shl(0xe0, 0x0eb8953f)\n      dup2\n      mstore\n        /* \"#utility.yul\":3809:3811   */\n      0x20\n        /* \"GameToken.sol\":3118:3153  BurnDisabled(\"Burning is disabled\") */\n      0x04\n      dup3\n      add\n        /* \"#utility.yul\":3791:3812   */\n      mstore\n        /* \"#utility.yul\":3848:3850   */\n      0x13\n        /* \"#utility.yul\":3828:3846   */\n      0x24\n      dup3\n      add\n        /* \"#utility.yul\":3821:3851   */\n      mstore\n      shl(0x6a, 0x109d5c9b9a5b99c81a5cc8191a5cd8589b1959)\n        /* \"#utility.yul\":3867:3885   */\n      0x44\n      dup3\n      add\n        /* \"#utility.yul\":3860:3909   */\n      mstore\n        /* \"#utility.yul\":3926:3944   */\n      0x64\n      add\n        /* \"GameToken.sol\":3118:3153  BurnDisabled(\"Burning is disabled\") */\n    tag_135:\n      mload(0x40)\n      dup1\n      swap2\n      sub\n      swap1\n      revert\n        /* \"GameToken.sol\":3093:3153  if (!burnEnabled) revert BurnDisabled(\"Burning is disabled\") */\n    tag_134:\n        /* \"@openzeppelin/contracts/utils/ReentrancyGuard.sol\":2500:2521  _nonReentrantBefore() */\n      tag_138\n        /* \"@openzeppelin/contracts/utils/ReentrancyGuard.sol\":2500:2519  _nonReentrantBefore */\n      tag_139\n        /* \"@openzeppelin/contracts/utils/ReentrancyGuard.sol\":2500:2521  _nonReentrantBefore() */\n      jump\t// in\n    tag_138:\n        /* \"GameToken.sol\":7020:7026  amount */\n      dup1\n        /* \"GameToken.sol\":7030:7031  0 */\n      0x00\n        /* \"GameToken.sol\":7020:7031  amount == 0 */\n      sub\n        /* \"GameToken.sol\":7016:7077  if (amount == 0) {... */\n      tag_141\n      jumpi\n        /* \"GameToken.sol\":7054:7066  ZeroAmount() */\n      mload(0x40)\n      shl(0xe0, 0x1f2a2005)\n      dup2\n      mstore\n      0x04\n      add\n      mload(0x40)\n      dup1\n      swap2\n      sub\n      swap1\n      revert\n        /* \"GameToken.sol\":7016:7077  if (amount == 0) {... */\n    tag_141:\n        /* \"GameToken.sol\":7127:7137  msg.sender */\n      caller\n        /* \"GameToken.sol\":7095:7114  uint256 userBalance */\n      0x00\n        /* \"@openzeppelin/contracts/token/ERC20/ERC20.sol\":3076:3094  _balances[account] */\n      swap1\n      dup2\n      mstore\n      0x20\n      dup2\n      swap1\n      mstore\n      0x40\n      swap1\n      keccak256\n      sload\n        /* \"GameToken.sol\":7152:7172  userBalance < amount */\n      dup2\n      dup2\n      lt\n        /* \"GameToken.sol\":7148:7258  if (userBalance < amount) {... */\n      iszero\n      tag_143\n      jumpi\n        /* \"GameToken.sol\":7215:7225  msg.sender */\n      caller\n        /* \"GameToken.sol\":7227:7233  amount */\n      dup3\n        /* \"GameToken.sol\":7235:7246  userBalance */\n      dup3\n        /* \"GameToken.sol\":7195:7247  InsufficientBalance(msg.sender, amount, userBalance) */\n      mload(0x40)\n      shl(0xe0, 0xdb42144d)\n      dup2\n      mstore\n      0x04\n      add\n      tag_135\n      swap4\n      swap3\n      swap2\n      swap1\n      tag_145\n      jump\t// in\n        /* \"GameToken.sol\":7148:7258  if (userBalance < amount) {... */\n    tag_143:\n        /* \"GameToken.sol\":7339:7345  amount */\n      dup2\n        /* \"GameToken.sol\":7324:7335  totalBurned */\n      0x07\n      0x00\n        /* \"GameToken.sol\":7324:7345  totalBurned += amount */\n      dup3\n      dup3\n      sload\n      tag_146\n      swap2\n      swap1\n      tag_147\n      jump\t// in\n    tag_146:\n      swap1\n      swap2\n      sstore\n      pop\n      pop\n        /* \"GameToken.sol\":7368:7405  this._performBurn(msg.sender, amount) */\n      mload(0x40)\n      shl(0xe1, 0x7b2c7995)\n      dup2\n      mstore\n        /* \"GameToken.sol\":7386:7396  msg.sender */\n      caller\n        /* \"GameToken.sol\":7368:7405  this._performBurn(msg.sender, amount) */\n      0x04\n      dup3\n      add\n        /* \"#utility.yul\":4741:4792   */\n      mstore\n        /* \"#utility.yul\":4808:4826   */\n      0x24\n      dup2\n      add\n        /* \"#utility.yul\":4801:4835   */\n      dup4\n      swap1\n      mstore\n        /* \"GameToken.sol\":7368:7372  this */\n      address\n      swap1\n        /* \"GameToken.sol\":7368:7385  this._performBurn */\n      0xf658f32a\n      swap1\n        /* \"#utility.yul\":4714:4732   */\n      0x44\n      add\n        /* \"GameToken.sol\":7368:7405  this._performBurn(msg.sender, amount) */\n      0x00\n      mload(0x40)\n      dup1\n      dup4\n      sub\n      dup2\n      0x00\n      dup8\n      dup1\n      extcodesize\n      iszero\n      dup1\n      iszero\n      tag_150\n      jumpi\n      revert(0x00, 0x00)\n    tag_150:\n      pop\n      gas\n      call\n      swap3\n      pop\n      pop\n      pop\n      dup1\n      iszero\n      tag_151\n      jumpi\n      pop\n      0x01\n    tag_151:\n        /* \"GameToken.sol\":7364:7883  try this._performBurn(msg.sender, amount) {... */\n      tag_152\n      jumpi\n      tag_156\n      tag_157\n      jump\t// in\n    tag_156:\n      dup1\n      0x08c379a0\n      sub\n      tag_155\n      jumpi\n      pop\n      tag_158\n      tag_159\n      jump\t// in\n    tag_158:\n      dup1\n      tag_160\n      jumpi\n      pop\n      jump(tag_154)\n    tag_160:\n        /* \"GameToken.sol\":7601:7607  amount */\n      dup3\n        /* \"GameToken.sol\":7586:7597  totalBurned */\n      0x07\n      0x00\n        /* \"GameToken.sol\":7586:7607  totalBurned -= amount */\n      dup3\n      dup3\n      sload\n      tag_161\n      swap2\n      swap1\n      tag_162\n      jump\t// in\n    tag_161:\n      swap1\n      swap2\n      sstore\n      pop\n      pop\n        /* \"GameToken.sol\":7628:7678  BurningOperationFailed(msg.sender, amount, reason) */\n      mload(0x40)\n      shl(0xe3, 0x1e764bc5)\n      dup2\n      mstore\n      tag_135\n      swap1\n        /* \"GameToken.sol\":7651:7661  msg.sender */\n      caller\n      swap1\n        /* \"GameToken.sol\":7663:7669  amount */\n      dup6\n      swap1\n        /* \"GameToken.sol\":7671:7677  reason */\n      dup5\n      swap1\n        /* \"GameToken.sol\":7628:7678  BurningOperationFailed(msg.sender, amount, reason) */\n      0x04\n      add\n      tag_164\n      jump\t// in\n        /* \"GameToken.sol\":7364:7883  try this._performBurn(msg.sender, amount) {... */\n    tag_155:\n      pop\n    tag_154:\n        /* \"GameToken.sol\":7781:7787  amount */\n      dup2\n        /* \"GameToken.sol\":7766:7777  totalBurned */\n      0x07\n      0x00\n        /* \"GameToken.sol\":7766:7787  totalBurned -= amount */\n      dup3\n      dup3\n      sload\n      tag_165\n      swap2\n      swap1\n      tag_162\n      jump\t// in\n    tag_165:\n      swap1\n      swap2\n      sstore\n      pop\n      pop\n        /* \"GameToken.sol\":7808:7872  BurningOperationFailed(msg.sender, amount, \"Unknown burn error\") */\n      mload(0x40)\n      shl(0xe3, 0x1e764bc5)\n      dup2\n      mstore\n      tag_135\n      swap1\n        /* \"GameToken.sol\":7831:7841  msg.sender */\n      caller\n      swap1\n        /* \"GameToken.sol\":7843:7849  amount */\n      dup5\n      swap1\n        /* \"GameToken.sol\":7808:7872  BurningOperationFailed(msg.sender, amount, \"Unknown burn error\") */\n      0x04\n      add\n      tag_167\n      jump\t// in\n        /* \"GameToken.sol\":7364:7883  try this._performBurn(msg.sender, amount) {... */\n    tag_152:\n        /* \"GameToken.sol\":7458:7469  totalBurned */\n      sload(0x07)\n        /* \"GameToken.sol\":7425:7470  TokensBurned(msg.sender, amount, totalBurned) */\n      mload(0x40)\n        /* \"GameToken.sol\":7438:7448  msg.sender */\n      caller\n      swap2\n        /* \"GameToken.sol\":7425:7470  TokensBurned(msg.sender, amount, totalBurned) */\n      0xccbea4088a3b7ae9ca2d15fab9a9742a4075b4d7247768a1eecea917565aba00\n      swap2\n      tag_169\n      swap2\n        /* \"GameToken.sol\":7450:7456  amount */\n      dup7\n        /* \"#utility.yul\":7231:7256   */\n      dup3\n      mstore\n        /* \"#utility.yul\":7287:7289   */\n      0x20\n        /* \"#utility.yul\":7272:7290   */\n      dup3\n      add\n        /* \"#utility.yul\":7265:7299   */\n      mstore\n        /* \"#utility.yul\":7219:7221   */\n      0x40\n        /* \"#utility.yul\":7204:7222   */\n      add\n      swap1\n        /* \"#utility.yul\":7057:7305   */\n      jump\n        /* \"GameToken.sol\":7425:7470  TokensBurned(msg.sender, amount, totalBurned) */\n    tag_169:\n      mload(0x40)\n      dup1\n      swap2\n      sub\n      swap1\n      log2\n        /* \"GameToken.sol\":6969:7889  {... */\n      pop\n        /* \"@openzeppelin/contracts/utils/ReentrancyGuard.sol\":2542:2562  _nonReentrantAfter() */\n      tag_171\n        /* \"@openzeppelin/contracts/utils/ReentrancyGuard.sol\":1857:1858  1 */\n      0x01\n        /* \"@openzeppelin/contracts/utils/ReentrancyGuard.sol\":3068:3075  _status */\n      0x06\n        /* \"@openzeppelin/contracts/utils/ReentrancyGuard.sol\":3068:3089  _status = NOT_ENTERED */\n      sstore\n        /* \"@openzeppelin/contracts/utils/ReentrancyGuard.sol\":2888:3096  function _nonReentrantAfter() private {... */\n      jump\n        /* \"@openzeppelin/contracts/utils/ReentrancyGuard.sol\":2542:2562  _nonReentrantAfter() */\n    tag_171:\n        /* \"GameToken.sol\":6905:7889  function burn(uint256 amount) external burnAllowed nonReentrant {... */\n      pop\n      jump\t// out\n        /* \"GameToken.sol\":9487:9588  function mint(address) external pure {... */\n    tag_62:\n        /* \"GameToken.sol\":9534:9581  revert(\"Mint disabled: use factory to lock XP\") */\n      mload(0x40)\n      shl(0xe5, 0x461bcd)\n      dup2\n      mstore\n        /* \"#utility.yul\":7512:7514   */\n      0x20\n        /* \"GameToken.sol\":9534:9581  revert(\"Mint disabled: use factory to lock XP\") */\n      0x04\n      dup3\n      add\n        /* \"#utility.yul\":7494:7515   */\n      mstore\n        /* \"#utility.yul\":7551:7553   */\n      0x25\n        /* \"#utility.yul\":7531:7549   */\n      0x24\n      dup3\n      add\n        /* \"#utility.yul\":7524:7554   */\n      mstore\n        /* \"#utility.yul\":7590:7624   */\n      0x4d696e742064697361626c65643a2075736520666163746f727920746f206c6f\n        /* \"#utility.yul\":7570:7588   */\n      0x44\n      dup3\n      add\n        /* \"#utility.yul\":7563:7625   */\n      mstore\n      shl(0xdc, 0x0636b20585)\n        /* \"#utility.yul\":7641:7659   */\n      0x64\n      dup3\n      add\n        /* \"#utility.yul\":7634:7669   */\n      mstore\n        /* \"#utility.yul\":7686:7705   */\n      0x84\n      add\n        /* \"GameToken.sol\":9534:9581  revert(\"Mint disabled: use factory to lock XP\") */\n      tag_135\n        /* \"#utility.yul\":7310:7711   */\n      jump\n        /* \"@openzeppelin/contracts/access/Ownable.sol\":2293:2394  function renounceOwnership() public virtual onlyOwner {... */\n    tag_68:\n        /* \"@openzeppelin/contracts/access/Ownable.sol\":1531:1544  _checkOwner() */\n      tag_178\n        /* \"@openzeppelin/contracts/access/Ownable.sol\":1531:1542  _checkOwner */\n      tag_179\n        /* \"@openzeppelin/contracts/access/Ownable.sol\":1531:1544  _checkOwner() */\n      jump\t// in\n    tag_178:\n        /* \"@openzeppelin/contracts/access/Ownable.sol\":2357:2387  _transferOwnership(address(0)) */\n      tag_181\n        /* \"@openzeppelin/contracts/access/Ownable.sol\":2384:2385  0 */\n      0x00\n        /* \"@openzeppelin/contracts/access/Ownable.sol\":2357:2375  _transferOwnership */\n      tag_182\n        /* \"@openzeppelin/contracts/access/Ownable.sol\":2357:2387  _transferOwnership(address(0)) */\n      jump\t// in\n    tag_181:\n        /* \"@openzeppelin/contracts/access/Ownable.sol\":2293:2394  function renounceOwnership() public virtual onlyOwner {... */\n      jump\t// out\n        /* \"GameToken.sol\":4871:6515  function burnFrom(address from, uint256 amount) ... */\n    tag_71:\n        /* \"GameToken.sol\":2972:2982  msg.sender */\n      caller\n      sub(shl(0xa0, 0x01), 0x01)\n        /* \"GameToken.sol\":2986:2993  factory */\n      immutable(\"0x72fc7ab3e40b1907e59758f569afe04bc56a27641f6a4e6ae11ca369e7d44bde\")\n        /* \"GameToken.sol\":2972:2993  msg.sender != factory */\n      and\n      eq\n        /* \"GameToken.sol\":2968:3032  if (msg.sender != factory) revert UnauthorizedBurner(msg.sender) */\n      tag_184\n      jumpi\n        /* \"GameToken.sol\":3002:3032  UnauthorizedBurner(msg.sender) */\n      mload(0x40)\n      shl(0xe0, 0x5936416f)\n      dup2\n      mstore\n        /* \"GameToken.sol\":3021:3031  msg.sender */\n      caller\n        /* \"GameToken.sol\":3002:3032  UnauthorizedBurner(msg.sender) */\n      0x04\n      dup3\n      add\n        /* \"#utility.yul\":2895:2946   */\n      mstore\n        /* \"#utility.yul\":2868:2886   */\n      0x24\n      add\n        /* \"GameToken.sol\":3002:3032  UnauthorizedBurner(msg.sender) */\n      tag_135\n        /* \"#utility.yul\":2749:2952   */\n      jump\n        /* \"GameToken.sol\":2968:3032  if (msg.sender != factory) revert UnauthorizedBurner(msg.sender) */\n    tag_184:\n        /* \"GameToken.sol\":3098:3109  burnEnabled */\n      and(0xff, sload(0x08))\n        /* \"GameToken.sol\":3093:3153  if (!burnEnabled) revert BurnDisabled(\"Burning is disabled\") */\n      tag_187\n      jumpi\n        /* \"GameToken.sol\":3118:3153  BurnDisabled(\"Burning is disabled\") */\n      mload(0x40)\n      shl(0xe0, 0x0eb8953f)\n      dup2\n      mstore\n        /* \"#utility.yul\":3809:3811   */\n      0x20\n        /* \"GameToken.sol\":3118:3153  BurnDisabled(\"Burning is disabled\") */\n      0x04\n      dup3\n      add\n        /* \"#utility.yul\":3791:3812   */\n      mstore\n        /* \"#utility.yul\":3848:3850   */\n      0x13\n        /* \"#utility.yul\":3828:3846   */\n      0x24\n      dup3\n      add\n        /* \"#utility.yul\":3821:3851   */\n      mstore\n      shl(0x6a, 0x109d5c9b9a5b99c81a5cc8191a5cd8589b1959)\n        /* \"#utility.yul\":3867:3885   */\n      0x44\n      dup3\n      add\n        /* \"#utility.yul\":3860:3909   */\n      mstore\n        /* \"#utility.yul\":3926:3944   */\n      0x64\n      add\n        /* \"GameToken.sol\":3118:3153  BurnDisabled(\"Burning is disabled\") */\n      tag_135\n        /* \"#utility.yul\":3607:3950   */\n      jump\n        /* \"GameToken.sol\":3093:3153  if (!burnEnabled) revert BurnDisabled(\"Burning is disabled\") */\n    tag_187:\n        /* \"@openzeppelin/contracts/utils/ReentrancyGuard.sol\":2500:2521  _nonReentrantBefore() */\n      tag_190\n        /* \"@openzeppelin/contracts/utils/ReentrancyGuard.sol\":2500:2519  _nonReentrantBefore */\n      tag_139\n        /* \"@openzeppelin/contracts/utils/ReentrancyGuard.sol\":2500:2521  _nonReentrantBefore() */\n      jump\t// in\n    tag_190:\n      sub(shl(0xa0, 0x01), 0x01)\n        /* \"GameToken.sol\":5057:5075  from == address(0) */\n      dup3\n      and\n        /* \"GameToken.sol\":5053:5122  if (from == address(0)) {... */\n      tag_192\n      jumpi\n        /* \"GameToken.sol\":5098:5111  ZeroAddress() */\n      mload(0x40)\n      shl(0xe0, 0xd92e233d)\n      dup2\n      mstore\n      0x04\n      add\n      mload(0x40)\n      dup1\n      swap2\n      sub\n      swap1\n      revert\n        /* \"GameToken.sol\":5053:5122  if (from == address(0)) {... */\n    tag_192:\n        /* \"GameToken.sol\":5135:5141  amount */\n      dup1\n        /* \"GameToken.sol\":5145:5146  0 */\n      0x00\n        /* \"GameToken.sol\":5135:5146  amount == 0 */\n      sub\n        /* \"GameToken.sol\":5131:5192  if (amount == 0) {... */\n      tag_193\n      jumpi\n        /* \"GameToken.sol\":5169:5181  ZeroAmount() */\n      mload(0x40)\n      shl(0xe0, 0x1f2a2005)\n      dup2\n      mstore\n      0x04\n      add\n      mload(0x40)\n      dup1\n      swap2\n      sub\n      swap1\n      revert\n        /* \"GameToken.sol\":5131:5192  if (amount == 0) {... */\n    tag_193:\n      sub(shl(0xa0, 0x01), 0x01)\n        /* \"@openzeppelin/contracts/token/ERC20/ERC20.sol\":3076:3094  _balances[account] */\n      dup3\n      and\n        /* \"GameToken.sol\":5210:5229  uint256 userBalance */\n      0x00\n        /* \"@openzeppelin/contracts/token/ERC20/ERC20.sol\":3076:3094  _balances[account] */\n      swap1\n      dup2\n      mstore\n      0x20\n      dup2\n      swap1\n      mstore\n      0x40\n      swap1\n      keccak256\n      sload\n        /* \"GameToken.sol\":5261:5281  userBalance < amount */\n      dup2\n      dup2\n      lt\n        /* \"GameToken.sol\":5257:5361  if (userBalance < amount) {... */\n      iszero\n      tag_195\n      jumpi\n        /* \"GameToken.sol\":5324:5328  from */\n      dup3\n        /* \"GameToken.sol\":5330:5336  amount */\n      dup3\n        /* \"GameToken.sol\":5338:5349  userBalance */\n      dup3\n        /* \"GameToken.sol\":5304:5350  InsufficientBalance(from, amount, userBalance) */\n      mload(0x40)\n      shl(0xe0, 0xdb42144d)\n      dup2\n      mstore\n      0x04\n      add\n      tag_135\n      swap4\n      swap3\n      swap2\n      swap1\n      tag_145\n      jump\t// in\n        /* \"GameToken.sol\":5257:5361  if (userBalance < amount) {... */\n    tag_195:\n        /* \"@openzeppelin/contracts/token/ERC20/ERC20.sol\":2908:2920  _totalSupply */\n      sload(0x02)\n        /* \"GameToken.sol\":5459:5465  amount */\n      dup3\n        /* \"GameToken.sol\":5459:5481  amount > totalSupply() */\n      gt\n        /* \"GameToken.sol\":5455:5558  if (amount > totalSupply()) {... */\n      iszero\n      tag_198\n      jumpi\n        /* \"GameToken.sol\":5525:5531  amount */\n      dup2\n        /* \"GameToken.sol\":5533:5546  totalSupply() */\n      tag_199\n        /* \"@openzeppelin/contracts/token/ERC20/ERC20.sol\":2908:2920  _totalSupply */\n      sload(0x02)\n      swap1\n        /* \"@openzeppelin/contracts/token/ERC20/ERC20.sol\":2830:2927  function totalSupply() public view virtual returns (uint256) {... */\n      jump\n        /* \"GameToken.sol\":5533:5546  totalSupply() */\n    tag_199:\n        /* \"GameToken.sol\":5504:5547  ExcessiveBurnRequest(amount, totalSupply()) */\n      mload(0x40)\n      shl(0xe3, 0x1ee970cd)\n      dup2\n      mstore\n      0x04\n      dup2\n      add\n        /* \"#utility.yul\":7231:7256   */\n      swap3\n      swap1\n      swap3\n      mstore\n        /* \"#utility.yul\":7272:7290   */\n      0x24\n      dup3\n      add\n        /* \"#utility.yul\":7265:7299   */\n      mstore\n        /* \"#utility.yul\":7204:7222   */\n      0x44\n      add\n        /* \"GameToken.sol\":5504:5547  ExcessiveBurnRequest(amount, totalSupply()) */\n      tag_135\n        /* \"#utility.yul\":7057:7305   */\n      jump\n        /* \"GameToken.sol\":5455:5558  if (amount > totalSupply()) {... */\n    tag_198:\n        /* \"GameToken.sol\":5674:5694  uint256 maxBurnPerTx */\n      0x00\n        /* \"GameToken.sol\":5713:5715  10 */\n      0x0a\n        /* \"GameToken.sol\":5697:5710  totalSupply() */\n      tag_201\n        /* \"@openzeppelin/contracts/token/ERC20/ERC20.sol\":2908:2920  _totalSupply */\n      sload(0x02)\n      swap1\n        /* \"@openzeppelin/contracts/token/ERC20/ERC20.sol\":2830:2927  function totalSupply() public view virtual returns (uint256) {... */\n      jump\n        /* \"GameToken.sol\":5697:5710  totalSupply() */\n    tag_201:\n        /* \"GameToken.sol\":5697:5715  totalSupply() / 10 */\n      tag_202\n      swap2\n      swap1\n      tag_203\n      jump\t// in\n    tag_202:\n        /* \"GameToken.sol\":5674:5715  uint256 maxBurnPerTx = totalSupply() / 10 */\n      swap1\n      pop\n        /* \"GameToken.sol\":5775:5787  maxBurnPerTx */\n      dup1\n        /* \"GameToken.sol\":5766:5772  amount */\n      dup4\n        /* \"GameToken.sol\":5766:5787  amount > maxBurnPerTx */\n      gt\n        /* \"GameToken.sol\":5762:5886  if (amount > maxBurnPerTx) {... */\n      iszero\n      tag_204\n      jumpi\n        /* \"GameToken.sol\":5828:5834  amount */\n      dup3\n        /* \"GameToken.sol\":5810:5875  InvalidBurnAmount(amount, \"Exceeds maximum burn per transaction\") */\n      mload(0x40)\n      shl(0xe2, 0x33be48f5)\n      dup2\n      mstore\n      0x04\n      add\n      tag_135\n      swap2\n        /* \"#utility.yul\":8150:8175   */\n      dup2\n      mstore\n        /* \"#utility.yul\":8211:8213   */\n      0x40\n        /* \"#utility.yul\":8206:8208   */\n      0x20\n        /* \"#utility.yul\":8191:8209   */\n      dup3\n      add\n        /* \"#utility.yul\":8184:8214   */\n      dup2\n      swap1\n      mstore\n        /* \"#utility.yul\":8250:8252   */\n      0x24\n        /* \"#utility.yul\":8230:8248   */\n      swap1\n      dup3\n      add\n        /* \"#utility.yul\":8223:8253   */\n      mstore\n        /* \"#utility.yul\":8289:8323   */\n      0x45786365656473206d6178696d756d206275726e20706572207472616e736163\n        /* \"#utility.yul\":8284:8286   */\n      0x60\n        /* \"#utility.yul\":8269:8287   */\n      dup3\n      add\n        /* \"#utility.yul\":8262:8324   */\n      mstore\n      shl(0xe1, 0x3a34b7b7)\n        /* \"#utility.yul\":8355:8358   */\n      0x80\n        /* \"#utility.yul\":8340:8359   */\n      dup3\n      add\n        /* \"#utility.yul\":8333:8368   */\n      mstore\n        /* \"#utility.yul\":8400:8403   */\n      0xa0\n        /* \"#utility.yul\":8385:8404   */\n      add\n      swap1\n        /* \"#utility.yul\":7938:8410   */\n      jump\n        /* \"GameToken.sol\":5762:5886  if (amount > maxBurnPerTx) {... */\n    tag_204:\n        /* \"GameToken.sol\":5989:5995  amount */\n      dup3\n        /* \"GameToken.sol\":5974:5985  totalBurned */\n      0x07\n      0x00\n        /* \"GameToken.sol\":5974:5995  totalBurned += amount */\n      dup3\n      dup3\n      sload\n      tag_207\n      swap2\n      swap1\n      tag_147\n      jump\t// in\n    tag_207:\n      swap1\n      swap2\n      sstore\n      pop\n      pop\n        /* \"GameToken.sol\":6018:6049  this._performBurn(from, amount) */\n      mload(0x40)\n      shl(0xe1, 0x7b2c7995)\n      dup2\n      mstore\n      sub(shl(0xa0, 0x01), 0x01)\n        /* \"#utility.yul\":4759:4791   */\n      dup6\n      and\n        /* \"GameToken.sol\":6018:6049  this._performBurn(from, amount) */\n      0x04\n      dup3\n      add\n        /* \"#utility.yul\":4741:4792   */\n      mstore\n        /* \"#utility.yul\":4808:4826   */\n      0x24\n      dup2\n      add\n        /* \"#utility.yul\":4801:4835   */\n      dup5\n      swap1\n      mstore\n        /* \"GameToken.sol\":6018:6022  this */\n      address\n      swap1\n        /* \"GameToken.sol\":6018:6035  this._performBurn */\n      0xf658f32a\n      swap1\n        /* \"#utility.yul\":4714:4732   */\n      0x44\n      add\n        /* \"GameToken.sol\":6018:6049  this._performBurn(from, amount) */\n      0x00\n      mload(0x40)\n      dup1\n      dup4\n      sub\n      dup2\n      0x00\n      dup8\n      dup1\n      extcodesize\n      iszero\n      dup1\n      iszero\n      tag_209\n      jumpi\n      revert(0x00, 0x00)\n    tag_209:\n      pop\n      gas\n      call\n      swap3\n      pop\n      pop\n      pop\n      dup1\n      iszero\n      tag_210\n      jumpi\n      pop\n      0x01\n    tag_210:\n        /* \"GameToken.sol\":6014:6509  try this._performBurn(from, amount) {... */\n      tag_211\n      jumpi\n      tag_215\n      tag_157\n      jump\t// in\n    tag_215:\n      dup1\n      0x08c379a0\n      sub\n      tag_214\n      jumpi\n      pop\n      tag_216\n      tag_159\n      jump\t// in\n    tag_216:\n      dup1\n      tag_217\n      jumpi\n      pop\n      jump(tag_213)\n    tag_217:\n        /* \"GameToken.sol\":6239:6245  amount */\n      dup4\n        /* \"GameToken.sol\":6224:6235  totalBurned */\n      0x07\n      0x00\n        /* \"GameToken.sol\":6224:6245  totalBurned -= amount */\n      dup3\n      dup3\n      sload\n      tag_218\n      swap2\n      swap1\n      tag_162\n      jump\t// in\n    tag_218:\n      swap1\n      swap2\n      sstore\n      pop\n      pop\n        /* \"GameToken.sol\":6266:6310  BurningOperationFailed(from, amount, reason) */\n      mload(0x40)\n      shl(0xe3, 0x1e764bc5)\n      dup2\n      mstore\n      tag_135\n      swap1\n        /* \"GameToken.sol\":6289:6293  from */\n      dup7\n      swap1\n        /* \"GameToken.sol\":6295:6301  amount */\n      dup7\n      swap1\n        /* \"GameToken.sol\":6303:6309  reason */\n      dup5\n      swap1\n        /* \"GameToken.sol\":6266:6310  BurningOperationFailed(from, amount, reason) */\n      0x04\n      add\n      tag_164\n      jump\t// in\n        /* \"GameToken.sol\":6014:6509  try this._performBurn(from, amount) {... */\n    tag_214:\n      pop\n    tag_213:\n        /* \"GameToken.sol\":6413:6419  amount */\n      dup3\n        /* \"GameToken.sol\":6398:6409  totalBurned */\n      0x07\n      0x00\n        /* \"GameToken.sol\":6398:6419  totalBurned -= amount */\n      dup3\n      dup3\n      sload\n      tag_220\n      swap2\n      swap1\n      tag_162\n      jump\t// in\n    tag_220:\n      swap1\n      swap2\n      sstore\n      pop\n      pop\n        /* \"GameToken.sol\":6440:6498  BurningOperationFailed(from, amount, \"Unknown burn error\") */\n      mload(0x40)\n      shl(0xe3, 0x1e764bc5)\n      dup2\n      mstore\n      tag_135\n      swap1\n        /* \"GameToken.sol\":6463:6467  from */\n      dup6\n      swap1\n        /* \"GameToken.sol\":6469:6475  amount */\n      dup6\n      swap1\n        /* \"GameToken.sol\":6440:6498  BurningOperationFailed(from, amount, \"Unknown burn error\") */\n      0x04\n      add\n      tag_167\n      jump\t// in\n        /* \"GameToken.sol\":6014:6509  try this._performBurn(from, amount) {... */\n    tag_211:\n        /* \"GameToken.sol\":6082:6086  from */\n      dup4\n      sub(shl(0xa0, 0x01), 0x01)\n        /* \"GameToken.sol\":6069:6108  TokensBurned(from, amount, totalBurned) */\n      and\n      0xccbea4088a3b7ae9ca2d15fab9a9742a4075b4d7247768a1eecea917565aba00\n        /* \"GameToken.sol\":6088:6094  amount */\n      dup5\n        /* \"GameToken.sol\":6096:6107  totalBurned */\n      sload(0x07)\n        /* \"GameToken.sol\":6069:6108  TokensBurned(from, amount, totalBurned) */\n      mload(0x40)\n      tag_223\n      swap3\n      swap2\n      swap1\n        /* \"#utility.yul\":7231:7256   */\n      swap2\n      dup3\n      mstore\n        /* \"#utility.yul\":7287:7289   */\n      0x20\n        /* \"#utility.yul\":7272:7290   */\n      dup3\n      add\n        /* \"#utility.yul\":7265:7299   */\n      mstore\n        /* \"#utility.yul\":7219:7221   */\n      0x40\n        /* \"#utility.yul\":7204:7222   */\n      add\n      swap1\n        /* \"#utility.yul\":7057:7305   */\n      jump\n        /* \"GameToken.sol\":6069:6108  TokensBurned(from, amount, totalBurned) */\n    tag_223:\n      mload(0x40)\n      dup1\n      swap2\n      sub\n      swap1\n      log2\n        /* \"GameToken.sol\":5006:6515  {... */\n      pop\n      pop\n        /* \"@openzeppelin/contracts/utils/ReentrancyGuard.sol\":2542:2562  _nonReentrantAfter() */\n      tag_224\n        /* \"@openzeppelin/contracts/utils/ReentrancyGuard.sol\":1857:1858  1 */\n      0x01\n        /* \"@openzeppelin/contracts/utils/ReentrancyGuard.sol\":3068:3075  _status */\n      0x06\n        /* \"@openzeppelin/contracts/utils/ReentrancyGuard.sol\":3068:3089  _status = NOT_ENTERED */\n      sstore\n        /* \"@openzeppelin/contracts/utils/ReentrancyGuard.sol\":2888:3096  function _nonReentrantAfter() private {... */\n      jump\n        /* \"@openzeppelin/contracts/utils/ReentrancyGuard.sol\":2542:2562  _nonReentrantAfter() */\n    tag_224:\n        /* \"GameToken.sol\":4871:6515  function burnFrom(address from, uint256 amount) ... */\n      pop\n      pop\n      jump\t// out\n        /* \"GameToken.sol\":8075:8211  function setBurnEnabled(bool enabled) external onlyOwner {... */\n    tag_75:\n        /* \"@openzeppelin/contracts/access/Ownable.sol\":1531:1544  _checkOwner() */\n      tag_226\n        /* \"@openzeppelin/contracts/access/Ownable.sol\":1531:1542  _checkOwner */\n      tag_179\n        /* \"@openzeppelin/contracts/access/Ownable.sol\":1531:1544  _checkOwner() */\n      jump\t// in\n    tag_226:\n        /* \"GameToken.sol\":8142:8153  burnEnabled */\n      0x08\n        /* \"GameToken.sol\":8142:8163  burnEnabled = enabled */\n      dup1\n      sload\n      not(0xff)\n      and\n      dup3\n      iszero\n      iszero\n      swap1\n      dup2\n      or\n      swap1\n      swap2\n      sstore\n        /* \"GameToken.sol\":8178:8204  BurnStatusChanged(enabled) */\n      mload(0x40)\n        /* \"#utility.yul\":1156:1197   */\n      swap1\n      dup2\n      mstore\n        /* \"GameToken.sol\":8178:8204  BurnStatusChanged(enabled) */\n      0x1509137b40df48e8ef9596f9db16b632b15353d0e0688d9f23221953eb0328dd\n      swap1\n        /* \"#utility.yul\":1144:1146   */\n      0x20\n        /* \"#utility.yul\":1129:1147   */\n      add\n        /* \"GameToken.sol\":8178:8204  BurnStatusChanged(enabled) */\n      mload(0x40)\n      dup1\n      swap2\n      sub\n      swap1\n      log1\n        /* \"GameToken.sol\":8075:8211  function setBurnEnabled(bool enabled) external onlyOwner {... */\n      pop\n      jump\t// out\n        /* \"@openzeppelin/contracts/token/ERC20/ERC20.sol\":1962:2055  function symbol() public view virtual returns (string memory) {... */\n    tag_81:\n        /* \"@openzeppelin/contracts/token/ERC20/ERC20.sol\":2009:2022  string memory */\n      0x60\n        /* \"@openzeppelin/contracts/token/ERC20/ERC20.sol\":2041:2048  _symbol */\n      0x04\n        /* \"@openzeppelin/contracts/token/ERC20/ERC20.sol\":2034:2048  return _symbol */\n      dup1\n      sload\n      tag_114\n      swap1\n      tag_115\n      jump\t// in\n        /* \"GameToken.sol\":9094:9327  function factoryMint(address to, uint256 amount) external onlyFactory {... */\n    tag_85:\n        /* \"GameToken.sol\":2972:2982  msg.sender */\n      caller\n      sub(shl(0xa0, 0x01), 0x01)\n        /* \"GameToken.sol\":2986:2993  factory */\n      immutable(\"0x72fc7ab3e40b1907e59758f569afe04bc56a27641f6a4e6ae11ca369e7d44bde\")\n        /* \"GameToken.sol\":2972:2993  msg.sender != factory */\n      and\n      eq\n        /* \"GameToken.sol\":2968:3032  if (msg.sender != factory) revert UnauthorizedBurner(msg.sender) */\n      tag_237\n      jumpi\n        /* \"GameToken.sol\":3002:3032  UnauthorizedBurner(msg.sender) */\n      mload(0x40)\n      shl(0xe0, 0x5936416f)\n      dup2\n      mstore\n        /* \"GameToken.sol\":3021:3031  msg.sender */\n      caller\n        /* \"GameToken.sol\":3002:3032  UnauthorizedBurner(msg.sender) */\n      0x04\n      dup3\n      add\n        /* \"#utility.yul\":2895:2946   */\n      mstore\n        /* \"#utility.yul\":2868:2886   */\n      0x24\n      add\n        /* \"GameToken.sol\":3002:3032  UnauthorizedBurner(msg.sender) */\n      tag_135\n        /* \"#utility.yul\":2749:2952   */\n      jump\n        /* \"GameToken.sol\":2968:3032  if (msg.sender != factory) revert UnauthorizedBurner(msg.sender) */\n    tag_237:\n        /* \"GameToken.sol\":9303:9320  _mint(to, amount) */\n      tag_224\n        /* \"GameToken.sol\":9309:9311  to */\n      dup3\n        /* \"GameToken.sol\":9313:9319  amount */\n      dup3\n        /* \"GameToken.sol\":9303:9308  _mint */\n      tag_241\n        /* \"GameToken.sol\":9303:9320  _mint(to, amount) */\n      jump\t// in\n        /* \"@openzeppelin/contracts/token/ERC20/ERC20.sol\":3296:3474  function transfer(address to, uint256 value) public virtual returns (bool) {... */\n    tag_88:\n        /* \"@openzeppelin/contracts/token/ERC20/ERC20.sol\":3365:3369  bool */\n      0x00\n        /* \"@openzeppelin/contracts/utils/Context.sol\":735:745  msg.sender */\n      caller\n        /* \"@openzeppelin/contracts/token/ERC20/ERC20.sol\":3419:3446  _transfer(owner, to, value) */\n      tag_123\n        /* \"@openzeppelin/contracts/utils/Context.sol\":735:745  msg.sender */\n      dup2\n        /* \"@openzeppelin/contracts/token/ERC20/ERC20.sol\":3436:3438  to */\n      dup6\n        /* \"@openzeppelin/contracts/token/ERC20/ERC20.sol\":3440:3445  value */\n      dup6\n        /* \"@openzeppelin/contracts/token/ERC20/ERC20.sol\":3419:3428  _transfer */\n      tag_131\n        /* \"@openzeppelin/contracts/token/ERC20/ERC20.sol\":3419:3446  _transfer(owner, to, value) */\n      jump\t// in\n        /* \"GameToken.sol\":8450:8930  function emergencyRecover(... */\n    tag_92:\n        /* \"@openzeppelin/contracts/access/Ownable.sol\":1531:1544  _checkOwner() */\n      tag_246\n        /* \"@openzeppelin/contracts/access/Ownable.sol\":1531:1542  _checkOwner */\n      tag_179\n        /* \"@openzeppelin/contracts/access/Ownable.sol\":1531:1544  _checkOwner() */\n      jump\t// in\n    tag_246:\n      sub(shl(0xa0, 0x01), 0x01)\n        /* \"GameToken.sol\":8582:8598  to == address(0) */\n      dup3\n      and\n        /* \"GameToken.sol\":8578:8620  if (to == address(0)) revert ZeroAddress() */\n      tag_248\n      jumpi\n        /* \"GameToken.sol\":8607:8620  ZeroAddress() */\n      mload(0x40)\n      shl(0xe0, 0xd92e233d)\n      dup2\n      mstore\n      0x04\n      add\n      mload(0x40)\n      dup1\n      swap2\n      sub\n      swap1\n      revert\n        /* \"GameToken.sol\":8578:8620  if (to == address(0)) revert ZeroAddress() */\n    tag_248:\n      sub(shl(0xa0, 0x01), 0x01)\n        /* \"GameToken.sol\":8643:8662  token == address(0) */\n      dup4\n      and\n        /* \"GameToken.sol\":8639:8924  if (token == address(0)) {... */\n      tag_249\n      jumpi\n        /* \"GameToken.sol\":8706:8718  bool success */\n      0x00\n        /* \"GameToken.sol\":8732:8734  to */\n      dup3\n      sub(shl(0xa0, 0x01), 0x01)\n        /* \"GameToken.sol\":8724:8740  payable(to).call */\n      and\n        /* \"GameToken.sol\":8748:8754  amount */\n      dup3\n        /* \"GameToken.sol\":8724:8759  payable(to).call{value: amount}(\"\") */\n      mload(0x40)\n      0x00\n      mload(0x40)\n      dup1\n      dup4\n      sub\n      dup2\n      dup6\n      dup8\n      gas\n      call\n      swap3\n      pop\n      pop\n      pop\n      returndatasize\n      dup1\n      0x00\n      dup2\n      eq\n      tag_254\n      jumpi\n      mload(0x40)\n      swap2\n      pop\n      and(add(returndatasize, 0x3f), not(0x1f))\n      dup3\n      add\n      0x40\n      mstore\n      returndatasize\n      dup3\n      mstore\n      returndatasize\n      0x00\n      0x20\n      dup5\n      add\n      returndatacopy\n      jump(tag_253)\n    tag_254:\n      0x60\n      swap2\n      pop\n    tag_253:\n      pop\n        /* \"GameToken.sol\":8705:8759  (bool success, ) = payable(to).call{value: amount}(\"\") */\n      pop\n      swap1\n      pop\n        /* \"GameToken.sol\":8781:8788  success */\n      dup1\n        /* \"GameToken.sol\":8773:8812  require(success, \"ETH transfer failed\") */\n      tag_255\n      jumpi\n      mload(0x40)\n      shl(0xe5, 0x461bcd)\n      dup2\n      mstore\n        /* \"#utility.yul\":8827:8829   */\n      0x20\n        /* \"GameToken.sol\":8773:8812  require(success, \"ETH transfer failed\") */\n      0x04\n      dup3\n      add\n        /* \"#utility.yul\":8809:8830   */\n      mstore\n        /* \"#utility.yul\":8866:8868   */\n      0x13\n        /* \"#utility.yul\":8846:8864   */\n      0x24\n      dup3\n      add\n        /* \"#utility.yul\":8839:8869   */\n      mstore\n      shl(0x6a, 0x115512081d1c985b9cd9995c8819985a5b1959)\n        /* \"#utility.yul\":8885:8903   */\n      0x44\n      dup3\n      add\n        /* \"#utility.yul\":8878:8927   */\n      mstore\n        /* \"#utility.yul\":8944:8962   */\n      0x64\n      add\n        /* \"GameToken.sol\":8773:8812  require(success, \"ETH transfer failed\") */\n      tag_135\n        /* \"#utility.yul\":8625:8968   */\n      jump\n        /* \"GameToken.sol\":8773:8812  require(success, \"ETH transfer failed\") */\n    tag_255:\n        /* \"GameToken.sol\":8664:8823  {... */\n      pop\n        /* \"GameToken.sol\":8450:8930  function emergencyRecover(... */\n      pop\n      pop\n      pop\n      jump\t// out\n        /* \"GameToken.sol\":8639:8924  if (token == address(0)) {... */\n    tag_249:\n        /* \"GameToken.sol\":8879:8913  IERC20(token).transfer(to, amount) */\n      mload(0x40)\n      shl(0xe0, 0xa9059cbb)\n      dup2\n      mstore\n      sub(shl(0xa0, 0x01), 0x01)\n        /* \"#utility.yul\":4759:4791   */\n      dup4\n      dup2\n      and\n        /* \"GameToken.sol\":8879:8913  IERC20(token).transfer(to, amount) */\n      0x04\n      dup4\n      add\n        /* \"#utility.yul\":4741:4792   */\n      mstore\n        /* \"#utility.yul\":4808:4826   */\n      0x24\n      dup3\n      add\n        /* \"#utility.yul\":4801:4835   */\n      dup4\n      swap1\n      mstore\n        /* \"GameToken.sol\":8879:8901  IERC20(token).transfer */\n      dup5\n      and\n      swap1\n      0xa9059cbb\n      swap1\n        /* \"#utility.yul\":4714:4732   */\n      0x44\n      add\n        /* \"GameToken.sol\":8879:8913  IERC20(token).transfer(to, amount) */\n      0x20\n      mload(0x40)\n      dup1\n      dup4\n      sub\n      dup2\n      0x00\n      dup8\n      gas\n      call\n      iszero\n      dup1\n      iszero\n      tag_261\n      jumpi\n      returndatacopy(0x00, 0x00, returndatasize)\n      revert(0x00, returndatasize)\n    tag_261:\n      pop\n      pop\n      pop\n      pop\n      mload(0x40)\n      returndatasize\n      not(0x1f)\n      0x1f\n      dup3\n      add\n      and\n      dup3\n      add\n      dup1\n      0x40\n      mstore\n      pop\n      dup2\n      add\n      swap1\n      tag_255\n      swap2\n      swap1\n      tag_263\n      jump\t// in\n        /* \"GameToken.sol\":8639:8924  if (token == address(0)) {... */\n    tag_258:\n        /* \"GameToken.sol\":8450:8930  function emergencyRecover(... */\n      pop\n      pop\n      pop\n      jump\t// out\n        /* \"@openzeppelin/contracts/access/Ownable.sol\":2543:2758  function transferOwnership(address newOwner) public virtual onlyOwner {... */\n    tag_109:\n        /* \"@openzeppelin/contracts/access/Ownable.sol\":1531:1544  _checkOwner() */\n      tag_266\n        /* \"@openzeppelin/contracts/access/Ownable.sol\":1531:1542  _checkOwner */\n      tag_179\n        /* \"@openzeppelin/contracts/access/Ownable.sol\":1531:1544  _checkOwner() */\n      jump\t// in\n    tag_266:\n      sub(shl(0xa0, 0x01), 0x01)\n        /* \"@openzeppelin/contracts/access/Ownable.sol\":2627:2649  newOwner == address(0) */\n      dup2\n      and\n        /* \"@openzeppelin/contracts/access/Ownable.sol\":2623:2714  if (newOwner == address(0)) {... */\n      tag_268\n      jumpi\n        /* \"@openzeppelin/contracts/access/Ownable.sol\":2672:2703  OwnableInvalidOwner(address(0)) */\n      mload(0x40)\n      shl(0xe0, 0x1e4fbdf7)\n      dup2\n      mstore\n        /* \"@openzeppelin/contracts/access/Ownable.sol\":2700:2701  0 */\n      0x00\n        /* \"@openzeppelin/contracts/access/Ownable.sol\":2672:2703  OwnableInvalidOwner(address(0)) */\n      0x04\n      dup3\n      add\n        /* \"#utility.yul\":2895:2946   */\n      mstore\n        /* \"#utility.yul\":2868:2886   */\n      0x24\n      add\n        /* \"@openzeppelin/contracts/access/Ownable.sol\":2672:2703  OwnableInvalidOwner(address(0)) */\n      tag_135\n        /* \"#utility.yul\":2749:2952   */\n      jump\n        /* \"@openzeppelin/contracts/access/Ownable.sol\":2623:2714  if (newOwner == address(0)) {... */\n    tag_268:\n        /* \"@openzeppelin/contracts/access/Ownable.sol\":2723:2751  _transferOwnership(newOwner) */\n      tag_171\n        /* \"@openzeppelin/contracts/access/Ownable.sol\":2742:2750  newOwner */\n      dup2\n        /* \"@openzeppelin/contracts/access/Ownable.sol\":2723:2741  _transferOwnership */\n      tag_182\n        /* \"@openzeppelin/contracts/access/Ownable.sol\":2723:2751  _transferOwnership(newOwner) */\n      jump\t// in\n        /* \"GameToken.sol\":6606:6775  function _performBurn(address from, uint256 amount) external {... */\n    tag_112:\n        /* \"GameToken.sol\":6685:6695  msg.sender */\n      caller\n        /* \"GameToken.sol\":6707:6711  this */\n      address\n        /* \"GameToken.sol\":6685:6712  msg.sender == address(this) */\n      eq\n        /* \"GameToken.sol\":6677:6739  require(msg.sender == address(this), \"Only self-call allowed\") */\n      tag_272\n      jumpi\n      mload(0x40)\n      shl(0xe5, 0x461bcd)\n      dup2\n      mstore\n        /* \"#utility.yul\":9425:9427   */\n      0x20\n        /* \"GameToken.sol\":6677:6739  require(msg.sender == address(this), \"Only self-call allowed\") */\n      0x04\n      dup3\n      add\n        /* \"#utility.yul\":9407:9428   */\n      mstore\n        /* \"#utility.yul\":9464:9466   */\n      0x16\n        /* \"#utility.yul\":9444:9462   */\n      0x24\n      dup3\n      add\n        /* \"#utility.yul\":9437:9467   */\n      mstore\n      shl(0x52, 0x13db9b1e481cd95b198b58d85b1b08185b1b1bddd959)\n        /* \"#utility.yul\":9483:9501   */\n      0x44\n      dup3\n      add\n        /* \"#utility.yul\":9476:9528   */\n      mstore\n        /* \"#utility.yul\":9545:9563   */\n      0x64\n      add\n        /* \"GameToken.sol\":6677:6739  require(msg.sender == address(this), \"Only self-call allowed\") */\n      tag_135\n        /* \"#utility.yul\":9223:9569   */\n      jump\n        /* \"GameToken.sol\":6677:6739  require(msg.sender == address(this), \"Only self-call allowed\") */\n    tag_272:\n        /* \"GameToken.sol\":6749:6768  _burn(from, amount) */\n      tag_224\n        /* \"GameToken.sol\":6755:6759  from */\n      dup3\n        /* \"GameToken.sol\":6761:6767  amount */\n      dup3\n        /* \"GameToken.sol\":6749:6754  _burn */\n      tag_276\n        /* \"GameToken.sol\":6749:6768  _burn(from, amount) */\n      jump\t// in\n        /* \"@openzeppelin/contracts/token/ERC20/ERC20.sol\":8707:8835  function _approve(address owner, address spender, uint256 value) internal {... */\n    tag_124:\n        /* \"@openzeppelin/contracts/token/ERC20/ERC20.sol\":8791:8828  _approve(owner, spender, value, true) */\n      tag_258\n        /* \"@openzeppelin/contracts/token/ERC20/ERC20.sol\":8800:8805  owner */\n      dup4\n        /* \"@openzeppelin/contracts/token/ERC20/ERC20.sol\":8807:8814  spender */\n      dup4\n        /* \"@openzeppelin/contracts/token/ERC20/ERC20.sol\":8816:8821  value */\n      dup4\n        /* \"@openzeppelin/contracts/token/ERC20/ERC20.sol\":8823:8827  true */\n      0x01\n        /* \"@openzeppelin/contracts/token/ERC20/ERC20.sol\":8791:8799  _approve */\n      tag_280\n        /* \"@openzeppelin/contracts/token/ERC20/ERC20.sol\":8791:8828  _approve(owner, spender, value, true) */\n      jump\t// in\n        /* \"@openzeppelin/contracts/token/ERC20/ERC20.sol\":10396:10872  function _spendAllowance(address owner, address spender, uint256 value) internal virtual {... */\n    tag_129:\n      sub(shl(0xa0, 0x01), 0x01)\n        /* \"@openzeppelin/contracts/token/ERC20/ERC20.sol\":3638:3656  _allowances[owner] */\n      dup4\n      dup2\n      and\n        /* \"@openzeppelin/contracts/token/ERC20/ERC20.sol\":10495:10519  uint256 currentAllowance */\n      0x00\n        /* \"@openzeppelin/contracts/token/ERC20/ERC20.sol\":3638:3656  _allowances[owner] */\n      swap1\n      dup2\n      mstore\n        /* \"@openzeppelin/contracts/token/ERC20/ERC20.sol\":3638:3649  _allowances */\n      0x01\n        /* \"@openzeppelin/contracts/token/ERC20/ERC20.sol\":3638:3656  _allowances[owner] */\n      0x20\n      swap1\n      dup2\n      mstore\n      0x40\n      dup1\n      dup4\n      keccak256\n        /* \"@openzeppelin/contracts/token/ERC20/ERC20.sol\":3638:3665  _allowances[owner][spender] */\n      swap4\n      dup7\n      and\n      dup4\n      mstore\n      swap3\n      swap1\n      mstore\n      keccak256\n      sload\n      not(0x00)\n        /* \"@openzeppelin/contracts/token/ERC20/ERC20.sol\":10561:10597  currentAllowance < type(uint256).max */\n      dup2\n      lt\n        /* \"@openzeppelin/contracts/token/ERC20/ERC20.sol\":10557:10866  if (currentAllowance < type(uint256).max) {... */\n      iszero\n      tag_255\n      jumpi\n        /* \"@openzeppelin/contracts/token/ERC20/ERC20.sol\":10636:10641  value */\n      dup2\n        /* \"@openzeppelin/contracts/token/ERC20/ERC20.sol\":10617:10633  currentAllowance */\n      dup2\n        /* \"@openzeppelin/contracts/token/ERC20/ERC20.sol\":10617:10641  currentAllowance < value */\n      lt\n        /* \"@openzeppelin/contracts/token/ERC20/ERC20.sol\":10613:10743  if (currentAllowance < value) {... */\n      iszero\n      tag_284\n      jumpi\n        /* \"@openzeppelin/contracts/token/ERC20/ERC20.sol\":10695:10702  spender */\n      dup3\n        /* \"@openzeppelin/contracts/token/ERC20/ERC20.sol\":10704:10720  currentAllowance */\n      dup2\n        /* \"@openzeppelin/contracts/token/ERC20/ERC20.sol\":10722:10727  value */\n      dup4\n        /* \"@openzeppelin/contracts/token/ERC20/ERC20.sol\":10668:10728  ERC20InsufficientAllowance(spender, currentAllowance, value) */\n      mload(0x40)\n      shl(0xe1, 0x7dc7a0d9)\n      dup2\n      mstore\n      0x04\n      add\n      tag_135\n      swap4\n      swap3\n      swap2\n      swap1\n      tag_145\n      jump\t// in\n        /* \"@openzeppelin/contracts/token/ERC20/ERC20.sol\":10613:10743  if (currentAllowance < value) {... */\n    tag_284:\n        /* \"@openzeppelin/contracts/token/ERC20/ERC20.sol\":10784:10841  _approve(owner, spender, currentAllowance - value, false) */\n      tag_255\n        /* \"@openzeppelin/contracts/token/ERC20/ERC20.sol\":10793:10798  owner */\n      dup5\n        /* \"@openzeppelin/contracts/token/ERC20/ERC20.sol\":10800:10807  spender */\n      dup5\n        /* \"@openzeppelin/contracts/token/ERC20/ERC20.sol\":10828:10833  value */\n      dup5\n        /* \"@openzeppelin/contracts/token/ERC20/ERC20.sol\":10809:10825  currentAllowance */\n      dup5\n        /* \"@openzeppelin/contracts/token/ERC20/ERC20.sol\":10809:10833  currentAllowance - value */\n      sub\n        /* \"@openzeppelin/contracts/token/ERC20/ERC20.sol\":10835:10840  false */\n      0x00\n        /* \"@openzeppelin/contracts/token/ERC20/ERC20.sol\":10784:10792  _approve */\n      tag_280\n        /* \"@openzeppelin/contracts/token/ERC20/ERC20.sol\":10784:10841  _approve(owner, spender, currentAllowance - value, false) */\n      jump\t// in\n        /* \"@openzeppelin/contracts/token/ERC20/ERC20.sol\":5374:5674  function _transfer(address from, address to, uint256 value) internal {... */\n    tag_131:\n      sub(shl(0xa0, 0x01), 0x01)\n        /* \"@openzeppelin/contracts/token/ERC20/ERC20.sol\":5457:5475  from == address(0) */\n      dup4\n      and\n        /* \"@openzeppelin/contracts/token/ERC20/ERC20.sol\":5453:5539  if (from == address(0)) {... */\n      tag_288\n      jumpi\n        /* \"@openzeppelin/contracts/token/ERC20/ERC20.sol\":5498:5528  ERC20InvalidSender(address(0)) */\n      mload(0x40)\n      shl(0xe1, 0x4b637e8f)\n      dup2\n      mstore\n        /* \"@openzeppelin/contracts/token/ERC20/ERC20.sol\":5525:5526  0 */\n      0x00\n        /* \"@openzeppelin/contracts/token/ERC20/ERC20.sol\":5498:5528  ERC20InvalidSender(address(0)) */\n      0x04\n      dup3\n      add\n        /* \"#utility.yul\":2895:2946   */\n      mstore\n        /* \"#utility.yul\":2868:2886   */\n      0x24\n      add\n        /* \"@openzeppelin/contracts/token/ERC20/ERC20.sol\":5498:5528  ERC20InvalidSender(address(0)) */\n      tag_135\n        /* \"#utility.yul\":2749:2952   */\n      jump\n        /* \"@openzeppelin/contracts/token/ERC20/ERC20.sol\":5453:5539  if (from == address(0)) {... */\n    tag_288:\n      sub(shl(0xa0, 0x01), 0x01)\n        /* \"@openzeppelin/contracts/token/ERC20/ERC20.sol\":5552:5568  to == address(0) */\n      dup3\n      and\n        /* \"@openzeppelin/contracts/token/ERC20/ERC20.sol\":5548:5634  if (to == address(0)) {... */\n      tag_290\n      jumpi\n        /* \"@openzeppelin/contracts/token/ERC20/ERC20.sol\":5591:5623  ERC20InvalidReceiver(address(0)) */\n      mload(0x40)\n      shl(0xe0, 0xec442f05)\n      dup2\n      mstore\n        /* \"@openzeppelin/contracts/token/ERC20/ERC20.sol\":5620:5621  0 */\n      0x00\n        /* \"@openzeppelin/contracts/token/ERC20/ERC20.sol\":5591:5623  ERC20InvalidReceiver(address(0)) */\n      0x04\n      dup3\n      add\n        /* \"#utility.yul\":2895:2946   */\n      mstore\n        /* \"#utility.yul\":2868:2886   */\n      0x24\n      add\n        /* \"@openzeppelin/contracts/token/ERC20/ERC20.sol\":5591:5623  ERC20InvalidReceiver(address(0)) */\n      tag_135\n        /* \"#utility.yul\":2749:2952   */\n      jump\n        /* \"@openzeppelin/contracts/token/ERC20/ERC20.sol\":5548:5634  if (to == address(0)) {... */\n    tag_290:\n        /* \"@openzeppelin/contracts/token/ERC20/ERC20.sol\":5643:5667  _update(from, to, value) */\n      tag_258\n        /* \"@openzeppelin/contracts/token/ERC20/ERC20.sol\":5651:5655  from */\n      dup4\n        /* \"@openzeppelin/contracts/token/ERC20/ERC20.sol\":5657:5659  to */\n      dup4\n        /* \"@openzeppelin/contracts/token/ERC20/ERC20.sol\":5661:5666  value */\n      dup4\n        /* \"@openzeppelin/contracts/token/ERC20/ERC20.sol\":5643:5650  _update */\n      tag_293\n        /* \"@openzeppelin/contracts/token/ERC20/ERC20.sol\":5643:5667  _update(from, to, value) */\n      jump\t// in\n        /* \"@openzeppelin/contracts/utils/ReentrancyGuard.sol\":2575:2882  function _nonReentrantBefore() private {... */\n    tag_139:\n        /* \"@openzeppelin/contracts/utils/ReentrancyGuard.sol\":1899:1900  2 */\n      0x02\n        /* \"@openzeppelin/contracts/utils/ReentrancyGuard.sol\":2702:2709  _status */\n      sload(0x06)\n        /* \"@openzeppelin/contracts/utils/ReentrancyGuard.sol\":2702:2720  _status == ENTERED */\n      sub\n        /* \"@openzeppelin/contracts/utils/ReentrancyGuard.sol\":2698:2784  if (_status == ENTERED) {... */\n      tag_295\n      jumpi\n        /* \"@openzeppelin/contracts/utils/ReentrancyGuard.sol\":2743:2773  ReentrancyGuardReentrantCall() */\n      mload(0x40)\n      shl(0xe0, 0x3ee5aeb5)\n      dup2\n      mstore\n      0x04\n      add\n      mload(0x40)\n      dup1\n      swap2\n      sub\n      swap1\n      revert\n        /* \"@openzeppelin/contracts/utils/ReentrancyGuard.sol\":2698:2784  if (_status == ENTERED) {... */\n    tag_295:\n        /* \"@openzeppelin/contracts/utils/ReentrancyGuard.sol\":1899:1900  2 */\n      0x02\n        /* \"@openzeppelin/contracts/utils/ReentrancyGuard.sol\":2858:2865  _status */\n      0x06\n        /* \"@openzeppelin/contracts/utils/ReentrancyGuard.sol\":2858:2875  _status = ENTERED */\n      sstore\n        /* \"@openzeppelin/contracts/utils/ReentrancyGuard.sol\":2575:2882  function _nonReentrantBefore() private {... */\n      jump\t// out\n        /* \"@openzeppelin/contracts/access/Ownable.sol\":1796:1958  function _checkOwner() internal view virtual {... */\n    tag_179:\n        /* \"@openzeppelin/contracts/access/Ownable.sol\":1710:1716  _owner */\n      and(sub(shl(0xa0, 0x01), 0x01), sload(0x05))\n        /* \"@openzeppelin/contracts/utils/Context.sol\":735:745  msg.sender */\n      caller\n        /* \"@openzeppelin/contracts/access/Ownable.sol\":1855:1878  owner() != _msgSender() */\n      eq\n        /* \"@openzeppelin/contracts/access/Ownable.sol\":1851:1952  if (owner() != _msgSender()) {... */\n      tag_181\n      jumpi\n        /* \"@openzeppelin/contracts/access/Ownable.sol\":1901:1941  OwnableUnauthorizedAccount(_msgSender()) */\n      mload(0x40)\n      shl(0xe0, 0x118cdaa7)\n      dup2\n      mstore\n        /* \"@openzeppelin/contracts/utils/Context.sol\":735:745  msg.sender */\n      caller\n        /* \"@openzeppelin/contracts/access/Ownable.sol\":1901:1941  OwnableUnauthorizedAccount(_msgSender()) */\n      0x04\n      dup3\n      add\n        /* \"#utility.yul\":2895:2946   */\n      mstore\n        /* \"#utility.yul\":2868:2886   */\n      0x24\n      add\n        /* \"@openzeppelin/contracts/access/Ownable.sol\":1901:1941  OwnableUnauthorizedAccount(_msgSender()) */\n      tag_135\n        /* \"#utility.yul\":2749:2952   */\n      jump\n        /* \"@openzeppelin/contracts/access/Ownable.sol\":2912:3099  function _transferOwnership(address newOwner) internal virtual {... */\n    tag_182:\n        /* \"@openzeppelin/contracts/access/Ownable.sol\":3004:3010  _owner */\n      0x05\n      dup1\n      sload\n      sub(shl(0xa0, 0x01), 0x01)\n        /* \"@openzeppelin/contracts/access/Ownable.sol\":3020:3037  _owner = newOwner */\n      dup4\n      dup2\n      and\n      not(sub(shl(0xa0, 0x01), 0x01))\n      dup4\n      and\n      dup2\n      or\n      swap1\n      swap4\n      sstore\n        /* \"@openzeppelin/contracts/access/Ownable.sol\":3052:3092  OwnershipTransferred(oldOwner, newOwner) */\n      mload(0x40)\n        /* \"@openzeppelin/contracts/access/Ownable.sol\":3004:3010  _owner */\n      swap2\n      and\n      swap2\n        /* \"@openzeppelin/contracts/access/Ownable.sol\":3020:3037  _owner = newOwner */\n      swap1\n        /* \"@openzeppelin/contracts/access/Ownable.sol\":3004:3010  _owner */\n      dup3\n      swap1\n        /* \"@openzeppelin/contracts/access/Ownable.sol\":3052:3092  OwnershipTransferred(oldOwner, newOwner) */\n      0x8be0079c531659141344cd1fd0a4f28419497f9722a3daafe3b4186f6b6457e0\n      swap1\n        /* \"@openzeppelin/contracts/access/Ownable.sol\":2985:3001  address oldOwner */\n      0x00\n      swap1\n        /* \"@openzeppelin/contracts/access/Ownable.sol\":3052:3092  OwnershipTransferred(oldOwner, newOwner) */\n      log3\n        /* \"@openzeppelin/contracts/access/Ownable.sol\":2975:3099  {... */\n      pop\n        /* \"@openzeppelin/contracts/access/Ownable.sol\":2912:3099  function _transferOwnership(address newOwner) internal virtual {... */\n      pop\n      jump\t// out\n        /* \"@openzeppelin/contracts/token/ERC20/ERC20.sol\":7439:7647  function _mint(address account, uint256 value) internal {... */\n    tag_241:\n      sub(shl(0xa0, 0x01), 0x01)\n        /* \"@openzeppelin/contracts/token/ERC20/ERC20.sol\":7509:7530  account == address(0) */\n      dup3\n      and\n        /* \"@openzeppelin/contracts/token/ERC20/ERC20.sol\":7505:7596  if (account == address(0)) {... */\n      tag_305\n      jumpi\n        /* \"@openzeppelin/contracts/token/ERC20/ERC20.sol\":7553:7585  ERC20InvalidReceiver(address(0)) */\n      mload(0x40)\n      shl(0xe0, 0xec442f05)\n      dup2\n      mstore\n        /* \"@openzeppelin/contracts/token/ERC20/ERC20.sol\":7582:7583  0 */\n      0x00\n        /* \"@openzeppelin/contracts/token/ERC20/ERC20.sol\":7553:7585  ERC20InvalidReceiver(address(0)) */\n      0x04\n      dup3\n      add\n        /* \"#utility.yul\":2895:2946   */\n      mstore\n        /* \"#utility.yul\":2868:2886   */\n      0x24\n      add\n        /* \"@openzeppelin/contracts/token/ERC20/ERC20.sol\":7553:7585  ERC20InvalidReceiver(address(0)) */\n      tag_135\n        /* \"#utility.yul\":2749:2952   */\n      jump\n        /* \"@openzeppelin/contracts/token/ERC20/ERC20.sol\":7505:7596  if (account == address(0)) {... */\n    tag_305:\n        /* \"@openzeppelin/contracts/token/ERC20/ERC20.sol\":7605:7640  _update(address(0), account, value) */\n      tag_224\n        /* \"@openzeppelin/contracts/token/ERC20/ERC20.sol\":7621:7622  0 */\n      0x00\n        /* \"@openzeppelin/contracts/token/ERC20/ERC20.sol\":7625:7632  account */\n      dup4\n        /* \"@openzeppelin/contracts/token/ERC20/ERC20.sol\":7634:7639  value */\n      dup4\n        /* \"@openzeppelin/contracts/token/ERC20/ERC20.sol\":7605:7612  _update */\n      tag_293\n        /* \"@openzeppelin/contracts/token/ERC20/ERC20.sol\":7605:7640  _update(address(0), account, value) */\n      jump\t// in\n        /* \"@openzeppelin/contracts/token/ERC20/ERC20.sol\":7965:8171  function _burn(address account, uint256 value) internal {... */\n    tag_276:\n      sub(shl(0xa0, 0x01), 0x01)\n        /* \"@openzeppelin/contracts/token/ERC20/ERC20.sol\":8035:8056  account == address(0) */\n      dup3\n      and\n        /* \"@openzeppelin/contracts/token/ERC20/ERC20.sol\":8031:8120  if (account == address(0)) {... */\n      tag_309\n      jumpi\n        /* \"@openzeppelin/contracts/token/ERC20/ERC20.sol\":8079:8109  ERC20InvalidSender(address(0)) */\n      mload(0x40)\n      shl(0xe1, 0x4b637e8f)\n      dup2\n      mstore\n        /* \"@openzeppelin/contracts/token/ERC20/ERC20.sol\":8106:8107  0 */\n      0x00\n        /* \"@openzeppelin/contracts/token/ERC20/ERC20.sol\":8079:8109  ERC20InvalidSender(address(0)) */\n      0x04\n      dup3\n      add\n        /* \"#utility.yul\":2895:2946   */\n      mstore\n        /* \"#utility.yul\":2868:2886   */\n      0x24\n      add\n        /* \"@openzeppelin/contracts/token/ERC20/ERC20.sol\":8079:8109  ERC20InvalidSender(address(0)) */\n      tag_135\n        /* \"#utility.yul\":2749:2952   */\n      jump\n        /* \"@openzeppelin/contracts/token/ERC20/ERC20.sol\":8031:8120  if (account == address(0)) {... */\n    tag_309:\n        /* \"@openzeppelin/contracts/token/ERC20/ERC20.sol\":8129:8164  _update(account, address(0), value) */\n      tag_224\n        /* \"@openzeppelin/contracts/token/ERC20/ERC20.sol\":8137:8144  account */\n      dup3\n        /* \"@openzeppelin/contracts/token/ERC20/ERC20.sol\":8154:8155  0 */\n      0x00\n        /* \"@openzeppelin/contracts/token/ERC20/ERC20.sol\":8158:8163  value */\n      dup4\n        /* \"@openzeppelin/contracts/token/ERC20/ERC20.sol\":8129:8136  _update */\n      tag_293\n        /* \"@openzeppelin/contracts/token/ERC20/ERC20.sol\":8129:8164  _update(account, address(0), value) */\n      jump\t// in\n        /* \"@openzeppelin/contracts/token/ERC20/ERC20.sol\":9682:10114  function _approve(address owner, address spender, uint256 value, bool emitEvent) internal virtual {... */\n    tag_280:\n      sub(shl(0xa0, 0x01), 0x01)\n        /* \"@openzeppelin/contracts/token/ERC20/ERC20.sol\":9794:9813  owner == address(0) */\n      dup5\n      and\n        /* \"@openzeppelin/contracts/token/ERC20/ERC20.sol\":9790:9879  if (owner == address(0)) {... */\n      tag_313\n      jumpi\n        /* \"@openzeppelin/contracts/token/ERC20/ERC20.sol\":9836:9868  ERC20InvalidApprover(address(0)) */\n      mload(0x40)\n      shl(0xe0, 0xe602df05)\n      dup2\n      mstore\n        /* \"@openzeppelin/contracts/token/ERC20/ERC20.sol\":9865:9866  0 */\n      0x00\n        /* \"@openzeppelin/contracts/token/ERC20/ERC20.sol\":9836:9868  ERC20InvalidApprover(address(0)) */\n      0x04\n      dup3\n      add\n        /* \"#utility.yul\":2895:2946   */\n      mstore\n        /* \"#utility.yul\":2868:2886   */\n      0x24\n      add\n        /* \"@openzeppelin/contracts/token/ERC20/ERC20.sol\":9836:9868  ERC20InvalidApprover(address(0)) */\n      tag_135\n        /* \"#utility.yul\":2749:2952   */\n      jump\n        /* \"@openzeppelin/contracts/token/ERC20/ERC20.sol\":9790:9879  if (owner == address(0)) {... */\n    tag_313:\n      sub(shl(0xa0, 0x01), 0x01)\n        /* \"@openzeppelin/contracts/token/ERC20/ERC20.sol\":9892:9913  spender == address(0) */\n      dup4\n      and\n        /* \"@openzeppelin/contracts/token/ERC20/ERC20.sol\":9888:9978  if (spender == address(0)) {... */\n      tag_315\n      jumpi\n        /* \"@openzeppelin/contracts/token/ERC20/ERC20.sol\":9936:9967  ERC20InvalidSpender(address(0)) */\n      mload(0x40)\n      shl(0xe1, 0x4a1406b1)\n      dup2\n      mstore\n        /* \"@openzeppelin/contracts/token/ERC20/ERC20.sol\":9964:9965  0 */\n      0x00\n        /* \"@openzeppelin/contracts/token/ERC20/ERC20.sol\":9936:9967  ERC20InvalidSpender(address(0)) */\n      0x04\n      dup3\n      add\n        /* \"#utility.yul\":2895:2946   */\n      mstore\n        /* \"#utility.yul\":2868:2886   */\n      0x24\n      add\n        /* \"@openzeppelin/contracts/token/ERC20/ERC20.sol\":9936:9967  ERC20InvalidSpender(address(0)) */\n      tag_135\n        /* \"#utility.yul\":2749:2952   */\n      jump\n        /* \"@openzeppelin/contracts/token/ERC20/ERC20.sol\":9888:9978  if (spender == address(0)) {... */\n    tag_315:\n      sub(shl(0xa0, 0x01), 0x01)\n        /* \"@openzeppelin/contracts/token/ERC20/ERC20.sol\":9987:10005  _allowances[owner] */\n      dup1\n      dup6\n      and\n      0x00\n      swap1\n      dup2\n      mstore\n        /* \"@openzeppelin/contracts/token/ERC20/ERC20.sol\":9987:9998  _allowances */\n      0x01\n        /* \"@openzeppelin/contracts/token/ERC20/ERC20.sol\":9987:10005  _allowances[owner] */\n      0x20\n      swap1\n      dup2\n      mstore\n      0x40\n      dup1\n      dup4\n      keccak256\n        /* \"@openzeppelin/contracts/token/ERC20/ERC20.sol\":9987:10014  _allowances[owner][spender] */\n      swap4\n      dup8\n      and\n      dup4\n      mstore\n      swap3\n      swap1\n      mstore\n      keccak256\n        /* \"@openzeppelin/contracts/token/ERC20/ERC20.sol\":9987:10022  _allowances[owner][spender] = value */\n      dup3\n      swap1\n      sstore\n        /* \"@openzeppelin/contracts/token/ERC20/ERC20.sol\":10032:10108  if (emitEvent) {... */\n      dup1\n      iszero\n      tag_255\n      jumpi\n        /* \"@openzeppelin/contracts/token/ERC20/ERC20.sol\":10082:10089  spender */\n      dup3\n      sub(shl(0xa0, 0x01), 0x01)\n        /* \"@openzeppelin/contracts/token/ERC20/ERC20.sol\":10066:10097  Approval(owner, spender, value) */\n      and\n        /* \"@openzeppelin/contracts/token/ERC20/ERC20.sol\":10075:10080  owner */\n      dup5\n      sub(shl(0xa0, 0x01), 0x01)\n        /* \"@openzeppelin/contracts/token/ERC20/ERC20.sol\":10066:10097  Approval(owner, spender, value) */\n      and\n      0x8c5be1e5ebec7d5bd14f71427d1e84f3dd0314c0f7b2291e5b200ac8c7c3b925\n        /* \"@openzeppelin/contracts/token/ERC20/ERC20.sol\":10091:10096  value */\n      dup5\n        /* \"@openzeppelin/contracts/token/ERC20/ERC20.sol\":10066:10097  Approval(owner, spender, value) */\n      mload(0x40)\n      tag_318\n      swap2\n        /* \"#utility.yul\":1354:1379   */\n      dup2\n      mstore\n        /* \"#utility.yul\":1342:1344   */\n      0x20\n        /* \"#utility.yul\":1327:1345   */\n      add\n      swap1\n        /* \"#utility.yul\":1208:1385   */\n      jump\n        /* \"@openzeppelin/contracts/token/ERC20/ERC20.sol\":10066:10097  Approval(owner, spender, value) */\n    tag_318:\n      mload(0x40)\n      dup1\n      swap2\n      sub\n      swap1\n      log3\n        /* \"@openzeppelin/contracts/token/ERC20/ERC20.sol\":9682:10114  function _approve(address owner, address spender, uint256 value, bool emitEvent) internal virtual {... */\n      pop\n      pop\n      pop\n      pop\n      jump\t// out\n        /* \"@openzeppelin/contracts/token/ERC20/ERC20.sol\":5989:7096  function _update(address from, address to, uint256 value) internal virtual {... */\n    tag_293:\n      sub(shl(0xa0, 0x01), 0x01)\n        /* \"@openzeppelin/contracts/token/ERC20/ERC20.sol\":6078:6096  from == address(0) */\n      dup4\n      and\n        /* \"@openzeppelin/contracts/token/ERC20/ERC20.sol\":6074:6614  if (from == address(0)) {... */\n      tag_320\n      jumpi\n        /* \"@openzeppelin/contracts/token/ERC20/ERC20.sol\":6230:6235  value */\n      dup1\n        /* \"@openzeppelin/contracts/token/ERC20/ERC20.sol\":6214:6226  _totalSupply */\n      0x02\n      0x00\n        /* \"@openzeppelin/contracts/token/ERC20/ERC20.sol\":6214:6235  _totalSupply += value */\n      dup3\n      dup3\n      sload\n      tag_321\n      swap2\n      swap1\n      tag_147\n      jump\t// in\n    tag_321:\n      swap1\n      swap2\n      sstore\n      pop\n        /* \"@openzeppelin/contracts/token/ERC20/ERC20.sol\":6074:6614  if (from == address(0)) {... */\n      tag_322\n      swap1\n      pop\n      jump\n    tag_320:\n      sub(shl(0xa0, 0x01), 0x01)\n        /* \"@openzeppelin/contracts/token/ERC20/ERC20.sol\":6288:6303  _balances[from] */\n      dup4\n      and\n        /* \"@openzeppelin/contracts/token/ERC20/ERC20.sol\":6266:6285  uint256 fromBalance */\n      0x00\n        /* \"@openzeppelin/contracts/token/ERC20/ERC20.sol\":6288:6303  _balances[from] */\n      swap1\n      dup2\n      mstore\n      0x20\n      dup2\n      swap1\n      mstore\n      0x40\n      swap1\n      keccak256\n      sload\n        /* \"@openzeppelin/contracts/token/ERC20/ERC20.sol\":6321:6340  fromBalance < value */\n      dup2\n      dup2\n      lt\n        /* \"@openzeppelin/contracts/token/ERC20/ERC20.sol\":6317:6432  if (fromBalance < value) {... */\n      iszero\n      tag_323\n      jumpi\n        /* \"@openzeppelin/contracts/token/ERC20/ERC20.sol\":6392:6396  from */\n      dup4\n        /* \"@openzeppelin/contracts/token/ERC20/ERC20.sol\":6398:6409  fromBalance */\n      dup2\n        /* \"@openzeppelin/contracts/token/ERC20/ERC20.sol\":6411:6416  value */\n      dup4\n        /* \"@openzeppelin/contracts/token/ERC20/ERC20.sol\":6367:6417  ERC20InsufficientBalance(from, fromBalance, value) */\n      mload(0x40)\n      shl(0xe2, 0x391434e3)\n      dup2\n      mstore\n      0x04\n      add\n      tag_135\n      swap4\n      swap3\n      swap2\n      swap1\n      tag_145\n      jump\t// in\n        /* \"@openzeppelin/contracts/token/ERC20/ERC20.sol\":6317:6432  if (fromBalance < value) {... */\n    tag_323:\n      sub(shl(0xa0, 0x01), 0x01)\n        /* \"@openzeppelin/contracts/token/ERC20/ERC20.sol\":6552:6567  _balances[from] */\n      dup5\n      and\n        /* \"@openzeppelin/contracts/token/ERC20/ERC20.sol\":6552:6561  _balances */\n      0x00\n        /* \"@openzeppelin/contracts/token/ERC20/ERC20.sol\":6552:6567  _balances[from] */\n      swap1\n      dup2\n      mstore\n      0x20\n      dup2\n      swap1\n      mstore\n      0x40\n      swap1\n      keccak256\n        /* \"@openzeppelin/contracts/token/ERC20/ERC20.sol\":6570:6589  fromBalance - value */\n      swap1\n      dup3\n      swap1\n      sub\n        /* \"@openzeppelin/contracts/token/ERC20/ERC20.sol\":6552:6589  _balances[from] = fromBalance - value */\n      swap1\n      sstore\n        /* \"@openzeppelin/contracts/token/ERC20/ERC20.sol\":6074:6614  if (from == address(0)) {... */\n    tag_322:\n      sub(shl(0xa0, 0x01), 0x01)\n        /* \"@openzeppelin/contracts/token/ERC20/ERC20.sol\":6628:6644  to == address(0) */\n      dup3\n      and\n        /* \"@openzeppelin/contracts/token/ERC20/ERC20.sol\":6624:7049  if (to == address(0)) {... */\n      tag_325\n      jumpi\n        /* \"@openzeppelin/contracts/token/ERC20/ERC20.sol\":6791:6803  _totalSupply */\n      0x02\n        /* \"@openzeppelin/contracts/token/ERC20/ERC20.sol\":6791:6812  _totalSupply -= value */\n      dup1\n      sload\n      dup3\n      swap1\n      sub\n      swap1\n      sstore\n        /* \"@openzeppelin/contracts/token/ERC20/ERC20.sol\":6624:7049  if (to == address(0)) {... */\n      jump(tag_326)\n    tag_325:\n      sub(shl(0xa0, 0x01), 0x01)\n        /* \"@openzeppelin/contracts/token/ERC20/ERC20.sol\":7002:7015  _balances[to] */\n      dup3\n      and\n        /* \"@openzeppelin/contracts/token/ERC20/ERC20.sol\":7002:7011  _balances */\n      0x00\n        /* \"@openzeppelin/contracts/token/ERC20/ERC20.sol\":7002:7015  _balances[to] */\n      swap1\n      dup2\n      mstore\n      0x20\n      dup2\n      swap1\n      mstore\n      0x40\n      swap1\n      keccak256\n        /* \"@openzeppelin/contracts/token/ERC20/ERC20.sol\":7002:7024  _balances[to] += value */\n      dup1\n      sload\n      dup3\n      add\n      swap1\n      sstore\n        /* \"@openzeppelin/contracts/token/ERC20/ERC20.sol\":6624:7049  if (to == address(0)) {... */\n    tag_326:\n        /* \"@openzeppelin/contracts/token/ERC20/ERC20.sol\":7079:7081  to */\n      dup2\n      sub(shl(0xa0, 0x01), 0x01)\n        /* \"@openzeppelin/contracts/token/ERC20/ERC20.sol\":7064:7089  Transfer(from, to, value) */\n      and\n        /* \"@openzeppelin/contracts/token/ERC20/ERC20.sol\":7073:7077  from */\n      dup4\n      sub(shl(0xa0, 0x01), 0x01)\n        /* \"@openzeppelin/contracts/token/ERC20/ERC20.sol\":7064:7089  Transfer(from, to, value) */\n      and\n      0xddf252ad1be2c89b69c2b068fc378daa952ba7f163c4a11628f55a4df523b3ef\n        /* \"@openzeppelin/contracts/token/ERC20/ERC20.sol\":7083:7088  value */\n      dup4\n        /* \"@openzeppelin/contracts/token/ERC20/ERC20.sol\":7064:7089  Transfer(from, to, value) */\n      mload(0x40)\n      tag_327\n      swap2\n        /* \"#utility.yul\":1354:1379   */\n      dup2\n      mstore\n        /* \"#utility.yul\":1342:1344   */\n      0x20\n        /* \"#utility.yul\":1327:1345   */\n      add\n      swap1\n        /* \"#utility.yul\":1208:1385   */\n      jump\n        /* \"@openzeppelin/contracts/token/ERC20/ERC20.sol\":7064:7089  Transfer(from, to, value) */\n    tag_327:\n      mload(0x40)\n      dup1\n      swap2\n      sub\n      swap1\n      log3\n        /* \"@openzeppelin/contracts/token/ERC20/ERC20.sol\":5989:7096  function _update(address from, address to, uint256 value) internal virtual {... */\n      pop\n      pop\n      pop\n      jump\t// out\n        /* \"#utility.yul\":14:303   */\n    tag_328:\n        /* \"#utility.yul\":56:59   */\n      0x00\n        /* \"#utility.yul\":94:99   */\n      dup2\n        /* \"#utility.yul\":88:100   */\n      mload\n        /* \"#utility.yul\":121:127   */\n      dup1\n        /* \"#utility.yul\":116:119   */\n      dup5\n        /* \"#utility.yul\":109:128   */\n      mstore\n        /* \"#utility.yul\":177:183   */\n      dup1\n        /* \"#utility.yul\":170:174   */\n      0x20\n        /* \"#utility.yul\":163:168   */\n      dup5\n        /* \"#utility.yul\":159:175   */\n      add\n        /* \"#utility.yul\":152:156   */\n      0x20\n        /* \"#utility.yul\":147:150   */\n      dup7\n        /* \"#utility.yul\":143:157   */\n      add\n        /* \"#utility.yul\":137:184   */\n      mcopy\n        /* \"#utility.yul\":229:230   */\n      0x00\n        /* \"#utility.yul\":222:226   */\n      0x20\n        /* \"#utility.yul\":213:219   */\n      dup3\n        /* \"#utility.yul\":208:211   */\n      dup7\n        /* \"#utility.yul\":204:220   */\n      add\n        /* \"#utility.yul\":200:227   */\n      add\n        /* \"#utility.yul\":193:231   */\n      mstore\n        /* \"#utility.yul\":292:296   */\n      0x20\n        /* \"#utility.yul\":285:287   */\n      0x1f\n        /* \"#utility.yul\":281:288   */\n      not\n        /* \"#utility.yul\":276:278   */\n      0x1f\n        /* \"#utility.yul\":268:274   */\n      dup4\n        /* \"#utility.yul\":264:279   */\n      add\n        /* \"#utility.yul\":260:289   */\n      and\n        /* \"#utility.yul\":255:258   */\n      dup6\n        /* \"#utility.yul\":251:290   */\n      add\n        /* \"#utility.yul\":247:297   */\n      add\n        /* \"#utility.yul\":240:297   */\n      swap2\n      pop\n      pop\n        /* \"#utility.yul\":14:303   */\n      swap3\n      swap2\n      pop\n      pop\n      jump\t// out\n        /* \"#utility.yul\":308:528   */\n    tag_32:\n        /* \"#utility.yul\":457:459   */\n      0x20\n        /* \"#utility.yul\":446:455   */\n      dup2\n        /* \"#utility.yul\":439:460   */\n      mstore\n        /* \"#utility.yul\":420:424   */\n      0x00\n        /* \"#utility.yul\":477:522   */\n      tag_336\n        /* \"#utility.yul\":518:520   */\n      0x20\n        /* \"#utility.yul\":507:516   */\n      dup4\n        /* \"#utility.yul\":503:521   */\n      add\n        /* \"#utility.yul\":495:501   */\n      dup5\n        /* \"#utility.yul\":477:522   */\n      tag_328\n      jump\t// in\n    tag_336:\n        /* \"#utility.yul\":469:522   */\n      swap4\n        /* \"#utility.yul\":308:528   */\n      swap3\n      pop\n      pop\n      pop\n      jump\t// out\n        /* \"#utility.yul\":533:706   */\n    tag_329:\n        /* \"#utility.yul\":601:621   */\n      dup1\n      calldataload\n      sub(shl(0xa0, 0x01), 0x01)\n        /* \"#utility.yul\":650:681   */\n      dup2\n      and\n        /* \"#utility.yul\":640:682   */\n      dup2\n      eq\n        /* \"#utility.yul\":630:700   */\n      tag_338\n      jumpi\n        /* \"#utility.yul\":696:697   */\n      0x00\n        /* \"#utility.yul\":693:694   */\n      0x00\n        /* \"#utility.yul\":686:698   */\n      revert\n        /* \"#utility.yul\":630:700   */\n    tag_338:\n        /* \"#utility.yul\":533:706   */\n      swap2\n      swap1\n      pop\n      jump\t// out\n        /* \"#utility.yul\":711:1011   */\n    tag_35:\n        /* \"#utility.yul\":779:785   */\n      0x00\n        /* \"#utility.yul\":787:793   */\n      0x00\n        /* \"#utility.yul\":840:842   */\n      0x40\n        /* \"#utility.yul\":828:837   */\n      dup4\n        /* \"#utility.yul\":819:826   */\n      dup6\n        /* \"#utility.yul\":815:838   */\n      sub\n        /* \"#utility.yul\":811:843   */\n      slt\n        /* \"#utility.yul\":808:860   */\n      iszero\n      tag_340\n      jumpi\n        /* \"#utility.yul\":856:857   */\n      0x00\n        /* \"#utility.yul\":853:854   */\n      0x00\n        /* \"#utility.yul\":846:858   */\n      revert\n        /* \"#utility.yul\":808:860   */\n    tag_340:\n        /* \"#utility.yul\":879:908   */\n      tag_341\n        /* \"#utility.yul\":898:907   */\n      dup4\n        /* \"#utility.yul\":879:908   */\n      tag_329\n      jump\t// in\n    tag_341:\n        /* \"#utility.yul\":869:908   */\n      swap5\n        /* \"#utility.yul\":977:979   */\n      0x20\n        /* \"#utility.yul\":962:980   */\n      swap4\n      swap1\n      swap4\n      add\n        /* \"#utility.yul\":949:981   */\n      calldataload\n      swap4\n      pop\n      pop\n      pop\n        /* \"#utility.yul\":711:1011   */\n      jump\t// out\n        /* \"#utility.yul\":1390:1764   */\n    tag_45:\n        /* \"#utility.yul\":1467:1473   */\n      0x00\n        /* \"#utility.yul\":1475:1481   */\n      0x00\n        /* \"#utility.yul\":1483:1489   */\n      0x00\n        /* \"#utility.yul\":1536:1538   */\n      0x60\n        /* \"#utility.yul\":1524:1533   */\n      dup5\n        /* \"#utility.yul\":1515:1522   */\n      dup7\n        /* \"#utility.yul\":1511:1534   */\n      sub\n        /* \"#utility.yul\":1507:1539   */\n      slt\n        /* \"#utility.yul\":1504:1556   */\n      iszero\n      tag_345\n      jumpi\n        /* \"#utility.yul\":1552:1553   */\n      0x00\n        /* \"#utility.yul\":1549:1550   */\n      0x00\n        /* \"#utility.yul\":1542:1554   */\n      revert\n        /* \"#utility.yul\":1504:1556   */\n    tag_345:\n        /* \"#utility.yul\":1575:1604   */\n      tag_346\n        /* \"#utility.yul\":1594:1603   */\n      dup5\n        /* \"#utility.yul\":1575:1604   */\n      tag_329\n      jump\t// in\n    tag_346:\n        /* \"#utility.yul\":1565:1604   */\n      swap3\n      pop\n        /* \"#utility.yul\":1623:1661   */\n      tag_347\n        /* \"#utility.yul\":1657:1659   */\n      0x20\n        /* \"#utility.yul\":1646:1655   */\n      dup6\n        /* \"#utility.yul\":1642:1660   */\n      add\n        /* \"#utility.yul\":1623:1661   */\n      tag_329\n      jump\t// in\n    tag_347:\n        /* \"#utility.yul\":1390:1764   */\n      swap3\n      swap6\n        /* \"#utility.yul\":1613:1661   */\n      swap3\n      swap5\n      pop\n      pop\n      pop\n        /* \"#utility.yul\":1730:1732   */\n      0x40\n        /* \"#utility.yul\":1715:1733   */\n      swap2\n      swap1\n      swap2\n      add\n        /* \"#utility.yul\":1702:1734   */\n      calldataload\n      swap1\n        /* \"#utility.yul\":1390:1764   */\n      jump\t// out\n        /* \"#utility.yul\":1958:2184   */\n    tag_54:\n        /* \"#utility.yul\":2017:2023   */\n      0x00\n        /* \"#utility.yul\":2070:2072   */\n      0x20\n        /* \"#utility.yul\":2058:2067   */\n      dup3\n        /* \"#utility.yul\":2049:2056   */\n      dup5\n        /* \"#utility.yul\":2045:2068   */\n      sub\n        /* \"#utility.yul\":2041:2073   */\n      slt\n        /* \"#utility.yul\":2038:2090   */\n      iszero\n      tag_350\n      jumpi\n        /* \"#utility.yul\":2086:2087   */\n      0x00\n        /* \"#utility.yul\":2083:2084   */\n      0x00\n        /* \"#utility.yul\":2076:2088   */\n      revert\n        /* \"#utility.yul\":2038:2090   */\n    tag_350:\n      pop\n        /* \"#utility.yul\":2131:2154   */\n      calldataload\n      swap2\n        /* \"#utility.yul\":1958:2184   */\n      swap1\n      pop\n      jump\t// out\n        /* \"#utility.yul\":2189:2375   */\n    tag_61:\n        /* \"#utility.yul\":2248:2254   */\n      0x00\n        /* \"#utility.yul\":2301:2303   */\n      0x20\n        /* \"#utility.yul\":2289:2298   */\n      dup3\n        /* \"#utility.yul\":2280:2287   */\n      dup5\n        /* \"#utility.yul\":2276:2299   */\n      sub\n        /* \"#utility.yul\":2272:2304   */\n      slt\n        /* \"#utility.yul\":2269:2321   */\n      iszero\n      tag_352\n      jumpi\n        /* \"#utility.yul\":2317:2318   */\n      0x00\n        /* \"#utility.yul\":2314:2315   */\n      0x00\n        /* \"#utility.yul\":2307:2319   */\n      revert\n        /* \"#utility.yul\":2269:2321   */\n    tag_352:\n        /* \"#utility.yul\":2340:2369   */\n      tag_336\n        /* \"#utility.yul\":2359:2368   */\n      dup3\n        /* \"#utility.yul\":2340:2369   */\n      tag_329\n      jump\t// in\n        /* \"#utility.yul\":2380:2498   */\n    tag_330:\n        /* \"#utility.yul\":2466:2471   */\n      dup1\n        /* \"#utility.yul\":2459:2472   */\n      iszero\n        /* \"#utility.yul\":2452:2473   */\n      iszero\n        /* \"#utility.yul\":2445:2450   */\n      dup2\n        /* \"#utility.yul\":2442:2474   */\n      eq\n        /* \"#utility.yul\":2432:2492   */\n      tag_171\n      jumpi\n        /* \"#utility.yul\":2488:2489   */\n      0x00\n        /* \"#utility.yul\":2485:2486   */\n      0x00\n        /* \"#utility.yul\":2478:2490   */\n      revert\n        /* \"#utility.yul\":2503:2744   */\n    tag_74:\n        /* \"#utility.yul\":2559:2565   */\n      0x00\n        /* \"#utility.yul\":2612:2614   */\n      0x20\n        /* \"#utility.yul\":2600:2609   */\n      dup3\n        /* \"#utility.yul\":2591:2598   */\n      dup5\n        /* \"#utility.yul\":2587:2610   */\n      sub\n        /* \"#utility.yul\":2583:2615   */\n      slt\n        /* \"#utility.yul\":2580:2632   */\n      iszero\n      tag_357\n      jumpi\n        /* \"#utility.yul\":2628:2629   */\n      0x00\n        /* \"#utility.yul\":2625:2626   */\n      0x00\n        /* \"#utility.yul\":2618:2630   */\n      revert\n        /* \"#utility.yul\":2580:2632   */\n    tag_357:\n        /* \"#utility.yul\":2667:2676   */\n      dup2\n        /* \"#utility.yul\":2654:2677   */\n      calldataload\n        /* \"#utility.yul\":2686:2714   */\n      tag_336\n        /* \"#utility.yul\":2708:2713   */\n      dup2\n        /* \"#utility.yul\":2686:2714   */\n      tag_330\n      jump\t// in\n        /* \"#utility.yul\":2957:3217   */\n    tag_104:\n        /* \"#utility.yul\":3025:3031   */\n      0x00\n        /* \"#utility.yul\":3033:3039   */\n      0x00\n        /* \"#utility.yul\":3086:3088   */\n      0x40\n        /* \"#utility.yul\":3074:3083   */\n      dup4\n        /* \"#utility.yul\":3065:3072   */\n      dup6\n        /* \"#utility.yul\":3061:3084   */\n      sub\n        /* \"#utility.yul\":3057:3089   */\n      slt\n        /* \"#utility.yul\":3054:3106   */\n      iszero\n      tag_361\n      jumpi\n        /* \"#utility.yul\":3102:3103   */\n      0x00\n        /* \"#utility.yul\":3099:3100   */\n      0x00\n        /* \"#utility.yul\":3092:3104   */\n      revert\n        /* \"#utility.yul\":3054:3106   */\n    tag_361:\n        /* \"#utility.yul\":3125:3154   */\n      tag_362\n        /* \"#utility.yul\":3144:3153   */\n      dup4\n        /* \"#utility.yul\":3125:3154   */\n      tag_329\n      jump\t// in\n    tag_362:\n        /* \"#utility.yul\":3115:3154   */\n      swap2\n      pop\n        /* \"#utility.yul\":3173:3211   */\n      tag_363\n        /* \"#utility.yul\":3207:3209   */\n      0x20\n        /* \"#utility.yul\":3196:3205   */\n      dup5\n        /* \"#utility.yul\":3192:3210   */\n      add\n        /* \"#utility.yul\":3173:3211   */\n      tag_329\n      jump\t// in\n    tag_363:\n        /* \"#utility.yul\":3163:3211   */\n      swap1\n      pop\n        /* \"#utility.yul\":2957:3217   */\n      swap3\n      pop\n      swap3\n      swap1\n      pop\n      jump\t// out\n        /* \"#utility.yul\":3222:3602   */\n    tag_115:\n        /* \"#utility.yul\":3301:3302   */\n      0x01\n        /* \"#utility.yul\":3297:3309   */\n      dup2\n      dup2\n      shr\n      swap1\n        /* \"#utility.yul\":3344:3356   */\n      dup3\n      and\n      dup1\n        /* \"#utility.yul\":3365:3426   */\n      tag_365\n      jumpi\n        /* \"#utility.yul\":3419:3423   */\n      0x7f\n        /* \"#utility.yul\":3411:3417   */\n      dup3\n        /* \"#utility.yul\":3407:3424   */\n      and\n        /* \"#utility.yul\":3397:3424   */\n      swap2\n      pop\n        /* \"#utility.yul\":3365:3426   */\n    tag_365:\n        /* \"#utility.yul\":3472:3474   */\n      0x20\n        /* \"#utility.yul\":3464:3470   */\n      dup3\n        /* \"#utility.yul\":3461:3475   */\n      lt\n        /* \"#utility.yul\":3441:3459   */\n      dup2\n        /* \"#utility.yul\":3438:3476   */\n      sub\n        /* \"#utility.yul\":3435:3596   */\n      tag_366\n      jumpi\n        /* \"#utility.yul\":3518:3528   */\n      0x4e487b71\n        /* \"#utility.yul\":3513:3516   */\n      0xe0\n        /* \"#utility.yul\":3509:3529   */\n      shl\n        /* \"#utility.yul\":3506:3507   */\n      0x00\n        /* \"#utility.yul\":3499:3530   */\n      mstore\n        /* \"#utility.yul\":3553:3557   */\n      0x22\n        /* \"#utility.yul\":3550:3551   */\n      0x04\n        /* \"#utility.yul\":3543:3558   */\n      mstore\n        /* \"#utility.yul\":3581:3585   */\n      0x24\n        /* \"#utility.yul\":3578:3579   */\n      0x00\n        /* \"#utility.yul\":3571:3586   */\n      revert\n        /* \"#utility.yul\":3435:3596   */\n    tag_366:\n      pop\n        /* \"#utility.yul\":3222:3602   */\n      swap2\n      swap1\n      pop\n      jump\t// out\n        /* \"#utility.yul\":3955:4300   */\n    tag_145:\n      sub(shl(0xa0, 0x01), 0x01)\n        /* \"#utility.yul\":4175:4207   */\n      swap4\n      swap1\n      swap4\n      and\n        /* \"#utility.yul\":4157:4208   */\n      dup4\n      mstore\n        /* \"#utility.yul\":4239:4241   */\n      0x20\n        /* \"#utility.yul\":4224:4242   */\n      dup4\n      add\n        /* \"#utility.yul\":4217:4251   */\n      swap2\n      swap1\n      swap2\n      mstore\n        /* \"#utility.yul\":4282:4284   */\n      0x40\n        /* \"#utility.yul\":4267:4285   */\n      dup3\n      add\n        /* \"#utility.yul\":4260:4294   */\n      mstore\n        /* \"#utility.yul\":4145:4147   */\n      0x60\n        /* \"#utility.yul\":4130:4148   */\n      add\n      swap1\n        /* \"#utility.yul\":3955:4300   */\n      jump\t// out\n        /* \"#utility.yul\":4305:4432   */\n    tag_331:\n        /* \"#utility.yul\":4366:4376   */\n      0x4e487b71\n        /* \"#utility.yul\":4361:4364   */\n      0xe0\n        /* \"#utility.yul\":4357:4377   */\n      shl\n        /* \"#utility.yul\":4354:4355   */\n      0x00\n        /* \"#utility.yul\":4347:4378   */\n      mstore\n        /* \"#utility.yul\":4397:4401   */\n      0x11\n        /* \"#utility.yul\":4394:4395   */\n      0x04\n        /* \"#utility.yul\":4387:4402   */\n      mstore\n        /* \"#utility.yul\":4421:4425   */\n      0x24\n        /* \"#utility.yul\":4418:4419   */\n      0x00\n        /* \"#utility.yul\":4411:4426   */\n      revert\n        /* \"#utility.yul\":4437:4562   */\n    tag_147:\n        /* \"#utility.yul\":4502:4511   */\n      dup1\n      dup3\n      add\n        /* \"#utility.yul\":4523:4533   */\n      dup1\n      dup3\n      gt\n        /* \"#utility.yul\":4520:4556   */\n      iszero\n      tag_120\n      jumpi\n        /* \"#utility.yul\":4536:4554   */\n      tag_120\n      tag_331\n      jump\t// in\n        /* \"#utility.yul\":4846:5025   */\n    tag_157:\n        /* \"#utility.yul\":4881:4884   */\n      0x00\n        /* \"#utility.yul\":4923:4924   */\n      0x03\n        /* \"#utility.yul\":4905:4921   */\n      returndatasize\n        /* \"#utility.yul\":4902:4925   */\n      gt\n        /* \"#utility.yul\":4899:5019   */\n      iszero\n      tag_375\n      jumpi\n        /* \"#utility.yul\":4969:4970   */\n      0x04\n        /* \"#utility.yul\":4966:4967   */\n      0x00\n        /* \"#utility.yul\":4963:4964   */\n      0x00\n        /* \"#utility.yul\":4948:4971   */\n      returndatacopy\n      pop\n        /* \"#utility.yul\":5006:5007   */\n      0x00\n        /* \"#utility.yul\":5000:5008   */\n      mload\n        /* \"#utility.yul\":4995:4998   */\n      0xe0\n        /* \"#utility.yul\":4991:5009   */\n      shr\n        /* \"#utility.yul\":4899:5019   */\n    tag_375:\n        /* \"#utility.yul\":4846:5025   */\n      swap1\n      jump\t// out\n        /* \"#utility.yul\":5030:5376   */\n    tag_332:\n        /* \"#utility.yul\":5140:5142   */\n      0x1f\n        /* \"#utility.yul\":5121:5134   */\n      dup3\n      add\n      not(0x1f)\n        /* \"#utility.yul\":5117:5144   */\n      and\n        /* \"#utility.yul\":5105:5145   */\n      dup2\n      add\n        /* \"#utility.yul\":5175:5193   */\n      0xffffffffffffffff\n        /* \"#utility.yul\":5160:5194   */\n      dup2\n      gt\n        /* \"#utility.yul\":5196:5218   */\n      dup3\n      dup3\n      lt\n        /* \"#utility.yul\":5157:5219   */\n      or\n        /* \"#utility.yul\":5154:5339   */\n      iszero\n      tag_377\n      jumpi\n        /* \"#utility.yul\":5261:5271   */\n      0x4e487b71\n        /* \"#utility.yul\":5256:5259   */\n      0xe0\n        /* \"#utility.yul\":5252:5272   */\n      shl\n        /* \"#utility.yul\":5249:5250   */\n      0x00\n        /* \"#utility.yul\":5242:5273   */\n      mstore\n        /* \"#utility.yul\":5296:5300   */\n      0x41\n        /* \"#utility.yul\":5293:5294   */\n      0x04\n        /* \"#utility.yul\":5286:5301   */\n      mstore\n        /* \"#utility.yul\":5324:5328   */\n      0x24\n        /* \"#utility.yul\":5321:5322   */\n      0x00\n        /* \"#utility.yul\":5314:5329   */\n      revert\n        /* \"#utility.yul\":5154:5339   */\n    tag_377:\n        /* \"#utility.yul\":5355:5357   */\n      0x40\n        /* \"#utility.yul\":5348:5370   */\n      mstore\n      pop\n      pop\n        /* \"#utility.yul\":5030:5376   */\n      jump\t// out\n        /* \"#utility.yul\":5381:6009   */\n    tag_159:\n        /* \"#utility.yul\":5420:5423   */\n      0x00\n        /* \"#utility.yul\":5462:5466   */\n      0x44\n        /* \"#utility.yul\":5444:5460   */\n      returndatasize\n        /* \"#utility.yul\":5441:5467   */\n      lt\n        /* \"#utility.yul\":5438:5477   */\n      iszero\n      tag_379\n      jumpi\n        /* \"#utility.yul\":5381:6009   */\n      swap1\n      jump\t// out\n        /* \"#utility.yul\":5438:5477   */\n    tag_379:\n        /* \"#utility.yul\":5504:5506   */\n      0x40\n        /* \"#utility.yul\":5498:5507   */\n      mload\n        /* \"#utility.yul\":5544:5560   */\n      returndatasize\n      not(0x03)\n        /* \"#utility.yul\":5540:5569   */\n      add\n        /* \"#utility.yul\":5537:5538   */\n      0x04\n        /* \"#utility.yul\":5498:5507   */\n      dup3\n        /* \"#utility.yul\":5516:5570   */\n      returndatacopy\n        /* \"#utility.yul\":5599:5603   */\n      dup1\n        /* \"#utility.yul\":5593:5604   */\n      mload\n        /* \"#utility.yul\":5673:5689   */\n      returndatasize\n        /* \"#utility.yul\":5666:5670   */\n      0x24\n        /* \"#utility.yul\":5658:5664   */\n      dup3\n        /* \"#utility.yul\":5654:5671   */\n      add\n        /* \"#utility.yul\":5651:5690   */\n      gt\n        /* \"#utility.yul\":5630:5648   */\n      0xffffffffffffffff\n        /* \"#utility.yul\":5622:5628   */\n      dup3\n        /* \"#utility.yul\":5619:5649   */\n      gt\n        /* \"#utility.yul\":5616:5691   */\n      or\n        /* \"#utility.yul\":5613:5701   */\n      iszero\n      tag_380\n      jumpi\n        /* \"#utility.yul\":5694:5699   */\n      pop\n      pop\n        /* \"#utility.yul\":5381:6009   */\n      swap1\n      jump\t// out\n        /* \"#utility.yul\":5613:5701   */\n    tag_380:\n        /* \"#utility.yul\":5731:5737   */\n      dup1\n        /* \"#utility.yul\":5725:5729   */\n      dup3\n        /* \"#utility.yul\":5721:5738   */\n      add\n        /* \"#utility.yul\":5767:5770   */\n      dup1\n        /* \"#utility.yul\":5761:5771   */\n      mload\n        /* \"#utility.yul\":5794:5812   */\n      0xffffffffffffffff\n        /* \"#utility.yul\":5786:5792   */\n      dup2\n        /* \"#utility.yul\":5783:5813   */\n      gt\n        /* \"#utility.yul\":5780:5823   */\n      iszero\n      tag_381\n      jumpi\n        /* \"#utility.yul\":5816:5821   */\n      pop\n      pop\n      pop\n      pop\n        /* \"#utility.yul\":5381:6009   */\n      swap1\n      jump\t// out\n        /* \"#utility.yul\":5780:5823   */\n    tag_381:\n        /* \"#utility.yul\":5881:5897   */\n      returndatasize\n        /* \"#utility.yul\":5871:5898   */\n      dup5\n      add\n      not(0x03)\n        /* \"#utility.yul\":5867:5907   */\n      add\n        /* \"#utility.yul\":5842:5858   */\n      dup3\n      dup3\n      add\n        /* \"#utility.yul\":5860:5864   */\n      0x20\n        /* \"#utility.yul\":5838:5865   */\n      add\n        /* \"#utility.yul\":5835:5908   */\n      gt\n        /* \"#utility.yul\":5832:5918   */\n      iszero\n      tag_382\n      jumpi\n        /* \"#utility.yul\":5911:5916   */\n      pop\n      pop\n      pop\n      pop\n        /* \"#utility.yul\":5381:6009   */\n      swap1\n      jump\t// out\n        /* \"#utility.yul\":5832:5918   */\n    tag_382:\n        /* \"#utility.yul\":5927:5984   */\n      tag_383\n        /* \"#utility.yul\":5978:5982   */\n      0x20\n        /* \"#utility.yul\":5969:5975   */\n      dup3\n        /* \"#utility.yul\":5961:5967   */\n      dup6\n        /* \"#utility.yul\":5957:5976   */\n      add\n        /* \"#utility.yul\":5953:5983   */\n      add\n        /* \"#utility.yul\":5947:5951   */\n      dup6\n        /* \"#utility.yul\":5927:5984   */\n      tag_332\n      jump\t// in\n    tag_383:\n      pop\n        /* \"#utility.yul\":6000:6003   */\n      swap4\n        /* \"#utility.yul\":5381:6009   */\n      swap3\n      pop\n      pop\n      pop\n      jump\t// out\n        /* \"#utility.yul\":6014:6142   */\n    tag_162:\n        /* \"#utility.yul\":6081:6090   */\n      dup2\n      dup2\n      sub\n        /* \"#utility.yul\":6102:6113   */\n      dup2\n      dup2\n      gt\n        /* \"#utility.yul\":6099:6136   */\n      iszero\n      tag_120\n      jumpi\n        /* \"#utility.yul\":6116:6134   */\n      tag_120\n      tag_331\n      jump\t// in\n        /* \"#utility.yul\":6147:6535   */\n    tag_164:\n        /* \"#utility.yul\":6381:6382   */\n      0x01\n        /* \"#utility.yul\":6377:6378   */\n      dup1\n        /* \"#utility.yul\":6372:6375   */\n      0xa0\n        /* \"#utility.yul\":6368:6379   */\n      shl\n        /* \"#utility.yul\":6364:6383   */\n      sub\n        /* \"#utility.yul\":6356:6362   */\n      dup5\n        /* \"#utility.yul\":6352:6384   */\n      and\n        /* \"#utility.yul\":6341:6350   */\n      dup2\n        /* \"#utility.yul\":6334:6385   */\n      mstore\n        /* \"#utility.yul\":6421:6427   */\n      dup3\n        /* \"#utility.yul\":6416:6418   */\n      0x20\n        /* \"#utility.yul\":6405:6414   */\n      dup3\n        /* \"#utility.yul\":6401:6419   */\n      add\n        /* \"#utility.yul\":6394:6428   */\n      mstore\n        /* \"#utility.yul\":6464:6466   */\n      0x60\n        /* \"#utility.yul\":6459:6461   */\n      0x40\n        /* \"#utility.yul\":6448:6457   */\n      dup3\n        /* \"#utility.yul\":6444:6462   */\n      add\n        /* \"#utility.yul\":6437:6467   */\n      mstore\n        /* \"#utility.yul\":6315:6319   */\n      0x00\n        /* \"#utility.yul\":6484:6529   */\n      tag_388\n        /* \"#utility.yul\":6525:6527   */\n      0x60\n        /* \"#utility.yul\":6514:6523   */\n      dup4\n        /* \"#utility.yul\":6510:6528   */\n      add\n        /* \"#utility.yul\":6502:6508   */\n      dup5\n        /* \"#utility.yul\":6484:6529   */\n      tag_328\n      jump\t// in\n    tag_388:\n        /* \"#utility.yul\":6476:6529   */\n      swap6\n        /* \"#utility.yul\":6147:6535   */\n      swap5\n      pop\n      pop\n      pop\n      pop\n      pop\n      jump\t// out\n        /* \"#utility.yul\":6540:7052   */\n    tag_167:\n      sub(shl(0xa0, 0x01), 0x01)\n        /* \"#utility.yul\":6798:6830   */\n      swap3\n      swap1\n      swap3\n      and\n        /* \"#utility.yul\":6780:6831   */\n      dup3\n      mstore\n        /* \"#utility.yul\":6862:6864   */\n      0x20\n        /* \"#utility.yul\":6847:6865   */\n      dup3\n      add\n        /* \"#utility.yul\":6840:6874   */\n      mstore\n        /* \"#utility.yul\":6910:6912   */\n      0x60\n        /* \"#utility.yul\":6905:6907   */\n      0x40\n        /* \"#utility.yul\":6890:6908   */\n      dup3\n      add\n        /* \"#utility.yul\":6883:6913   */\n      dup2\n      swap1\n      mstore\n        /* \"#utility.yul\":6949:6951   */\n      0x12\n        /* \"#utility.yul\":6929:6947   */\n      swap1\n      dup3\n      add\n        /* \"#utility.yul\":6922:6952   */\n      mstore\n      shl(0x71, 0x2ab735b737bbb710313ab9371032b93937b9)\n        /* \"#utility.yul\":6983:6986   */\n      0x80\n        /* \"#utility.yul\":6968:6987   */\n      dup3\n      add\n        /* \"#utility.yul\":6961:7010   */\n      mstore\n        /* \"#utility.yul\":6818:6821   */\n      0xa0\n        /* \"#utility.yul\":7027:7046   */\n      add\n      swap1\n        /* \"#utility.yul\":6540:7052   */\n      jump\t// out\n        /* \"#utility.yul\":7716:7933   */\n    tag_203:\n        /* \"#utility.yul\":7756:7757   */\n      0x00\n        /* \"#utility.yul\":7782:7783   */\n      dup3\n        /* \"#utility.yul\":7772:7904   */\n      tag_393\n      jumpi\n        /* \"#utility.yul\":7826:7836   */\n      0x4e487b71\n        /* \"#utility.yul\":7821:7824   */\n      0xe0\n        /* \"#utility.yul\":7817:7837   */\n      shl\n        /* \"#utility.yul\":7814:7815   */\n      0x00\n        /* \"#utility.yul\":7807:7838   */\n      mstore\n        /* \"#utility.yul\":7861:7865   */\n      0x12\n        /* \"#utility.yul\":7858:7859   */\n      0x04\n        /* \"#utility.yul\":7851:7866   */\n      mstore\n        /* \"#utility.yul\":7889:7893   */\n      0x24\n        /* \"#utility.yul\":7886:7887   */\n      0x00\n        /* \"#utility.yul\":7879:7894   */\n      revert\n        /* \"#utility.yul\":7772:7904   */\n    tag_393:\n      pop\n        /* \"#utility.yul\":7918:7927   */\n      div\n      swap1\n        /* \"#utility.yul\":7716:7933   */\n      jump\t// out\n        /* \"#utility.yul\":8973:9218   */\n    tag_263:\n        /* \"#utility.yul\":9040:9046   */\n      0x00\n        /* \"#utility.yul\":9093:9095   */\n      0x20\n        /* \"#utility.yul\":9081:9090   */\n      dup3\n        /* \"#utility.yul\":9072:9079   */\n      dup5\n        /* \"#utility.yul\":9068:9091   */\n      sub\n        /* \"#utility.yul\":9064:9096   */\n      slt\n        /* \"#utility.yul\":9061:9113   */\n      iszero\n      tag_398\n      jumpi\n        /* \"#utility.yul\":9109:9110   */\n      0x00\n        /* \"#utility.yul\":9106:9107   */\n      0x00\n        /* \"#utility.yul\":9099:9111   */\n      revert\n        /* \"#utility.yul\":9061:9113   */\n    tag_398:\n        /* \"#utility.yul\":9141:9150   */\n      dup2\n        /* \"#utility.yul\":9135:9151   */\n      mload\n        /* \"#utility.yul\":9160:9188   */\n      tag_336\n        /* \"#utility.yul\":9182:9187   */\n      dup2\n        /* \"#utility.yul\":9160:9188   */\n      tag_330\n      jump\t// in\n\n    auxdata: 0xa2646970667358221220c9c7ae96297410fef143e8be3c9db06b71d4b72f344f43926a1b795f4ae75be264736f6c634300081e0033\n}\n",
				"bytecode": {
					"linkReferences": {},
					"object": "60e06040526008805460ff1916600117905534801561001c575f5ffd5b50604051611b2e380380611b2e83398101604081905261003b91610502565b828787600361004a838261063a565b506004610057828261063a565b5050506001600160a01b03811661008857604051631e4fbdf760e01b81525f60048201526024015b60405180910390fd5b6100918161029b565b50600160065586515f036100f0576040805163f7693c3d60e01b81525f60048201526024810191909152601a60448201527f546f6b656e206e616d652063616e6e6f7420626520656d707479000000000000606482015260840161007f565b85515f03610149576040805163f7693c3d60e01b81525f60048201526024810191909152601c60448201527f546f6b656e2073796d626f6c2063616e6e6f7420626520656d70747900000000606482015260840161007f565b6001600160a01b0383166101705760405163d92e233d60e01b815260040160405180910390fd5b6001600160a01b0382166101975760405163d92e233d60e01b815260040160405180910390fd5b60128560ff1611156101ce576040516346f4384b60e01b815260ff861660048201525f60248201526012604482015260640161007f565b835f036101ee57604051631f2a200560e01b815260040160405180910390fd5b816001600160a01b0316836001600160a01b03160361025c5760405163313b9aa160e21b8152602060048201526024808201527f4f776e657220616e6420666163746f72792063616e6e6f74206265207468652060448201526373616d6560e01b606482015260840161007f565b60ff85166080526001600160a01b03821660a05260c081905261027f83856102ec565b50506008805461ff001916610100179055506107199350505050565b600580546001600160a01b038381166001600160a01b0319831681179093556040519116919082907f8be0079c531659141344cd1fd0a4f28419497f9722a3daafe3b4186f6b6457e0905f90a35050565b6001600160a01b0382166103155760405163ec442f0560e01b81525f600482015260240161007f565b6103205f8383610324565b5050565b6001600160a01b03831661034e578060025f82825461034391906106f4565b909155506103be9050565b6001600160a01b0383165f90815260208190526040902054818110156103a05760405163391434e360e21b81526001600160a01b0385166004820152602481018290526044810183905260640161007f565b6001600160a01b0384165f9081526020819052604090209082900390555b6001600160a01b0382166103da576002805482900390556103f8565b6001600160a01b0382165f9081526020819052604090208054820190555b816001600160a01b0316836001600160a01b03167fddf252ad1be2c89b69c2b068fc378daa952ba7f163c4a11628f55a4df523b3ef8360405161043d91815260200190565b60405180910390a3505050565b634e487b7160e01b5f52604160045260245ffd5b5f82601f83011261046d575f5ffd5b81516001600160401b038111156104865761048661044a565b604051601f8201601f19908116603f011681016001600160401b03811182821017156104b4576104b461044a565b6040528181528382016020018510156104cb575f5ffd5b8160208501602083015e5f918101602001919091529392505050565b80516001600160a01b03811681146104fd575f5ffd5b919050565b5f5f5f5f5f5f5f60e0888a031215610518575f5ffd5b87516001600160401b0381111561052d575f5ffd5b6105398a828b0161045e565b60208a015190985090506001600160401b03811115610556575f5ffd5b6105628a828b0161045e565b965050604088015160ff81168114610578575f5ffd5b6060890151909550935061058e608089016104e7565b925061059c60a089016104e7565b91505f60c089015190508091505092959891949750929550565b600181811c908216806105ca57607f821691505b6020821081036105e857634e487b7160e01b5f52602260045260245ffd5b50919050565b601f82111561063557805f5260205f20601f840160051c810160208510156106135750805b601f840160051c820191505b81811015610632575f815560010161061f565b50505b505050565b81516001600160401b038111156106535761065361044a565b6106678161066184546105b6565b846105ee565b6020601f821160018114610699575f83156106825750848201515b5f19600385901b1c1916600184901b178455610632565b5f84815260208120601f198516915b828110156106c857878501518255602094850194600190920191016106a8565b50848210156106e557868401515f19600387901b60f8161c191681555b50505050600190811b01905550565b8082018082111561071357634e487b7160e01b5f52601160045260245ffd5b92915050565b60805160a05160c0516113dd6107515f395f61030001525f81816102d9015281816106bf0152610a5301525f6101b901526113dd5ff3fe608060405234801561000f575f5ffd5b5060043610610148575f3560e01c80637b2c835f116100bf578063c45a015511610079578063c45a0155146102d4578063d7c81b55146102fb578063d89135cd14610322578063dd62ed3e1461032b578063f2fde38b14610363578063f658f32a14610376575f5ffd5b80637b2c835f1461025b5780638da5cb5b1461026e57806395d89b4114610293578063a4f0ecd31461029b578063a9059cbb146102ae578063ad1329d1146102c1575f5ffd5b806342966c681161011057806342966c68146101e35780635dc96d16146101f85780636a6278421461020557806370a0823114610218578063715018a61461024057806379cc679014610248575f5ffd5b806306fdde031461014c578063095ea7b31461016a57806318160ddd1461018d57806323b872dd1461019f578063313ce567146101b2575b5f5ffd5b610154610389565b6040516101619190611073565b60405180910390f35b61017d6101783660046110a7565b610419565b6040519015158152602001610161565b6002545b604051908152602001610161565b61017d6101ad3660046110cf565b610432565b60405160ff7f0000000000000000000000000000000000000000000000000000000000000000168152602001610161565b6101f66101f1366004611109565b610455565b005b60085461017d9060ff1681565b6101f6610213366004611120565b61064b565b610191610226366004611120565b6001600160a01b03165f9081526020819052604090205490565b6101f66106a1565b6101f66102563660046110a7565b6106b4565b6101f6610269366004611146565b6109ea565b6005546001600160a01b03165b6040516001600160a01b039091168152602001610161565b610154610a39565b6101f66102a93660046110a7565b610a48565b61017d6102bc3660046110a7565b610a9d565b6101f66102cf3660046110cf565b610aaa565b61027b7f000000000000000000000000000000000000000000000000000000000000000081565b6101917f000000000000000000000000000000000000000000000000000000000000000081565b61019160075481565b610191610339366004611161565b6001600160a01b039182165f90815260016020908152604080832093909416825291909152205490565b6101f6610371366004611120565b610bf7565b6101f66103843660046110a7565b610c31565b60606003805461039890611192565b80601f01602080910402602001604051908101604052809291908181526020018280546103c490611192565b801561040f5780601f106103e65761010080835404028352916020019161040f565b820191905f5260205f20905b8154815290600101906020018083116103f257829003601f168201915b5050505050905090565b5f33610426818585610c83565b60019150505b92915050565b5f3361043f858285610c90565b61044a858585610cf3565b506001949350505050565b60085460ff166104a357604051630eb8953f60e01b8152602060048201526013602482015272109d5c9b9a5b99c81a5cc8191a5cd8589b1959606a1b60448201526064015b60405180910390fd5b6104ab610d50565b805f036104cb57604051631f2a200560e01b815260040160405180910390fd5b335f90815260208190526040902054818110156105015733828260405163db42144d60e01b815260040161049a939291906111ca565b8160075f82825461051291906111ff565b9091555050604051637b2c799560e11b815233600482015260248101839052309063f658f32a906044015f604051808303815f87803b158015610553575f5ffd5b505af1925050508015610564575060015b6105f957610570611212565b806308c379a0036105c45750610584611264565b8061058f57506105c6565b8260075f8282546105a091906112e8565b9091555050604051631e764bc560e31b815261049a903390859084906004016112fb565b505b8160075f8282546105d791906112e8565b9091555050604051631e764bc560e31b815261049a903390849060040161132a565b60075460405133917fccbea4088a3b7ae9ca2d15fab9a9742a4075b4d7247768a1eecea917565aba009161063591868252602082015260400190565b60405180910390a2506106486001600655565b50565b60405162461bcd60e51b815260206004820152602560248201527f4d696e742064697361626c65643a2075736520666163746f727920746f206c6f6044820152640636b2058560dc1b606482015260840161049a565b6106a9610d7a565b6106b25f610da7565b565b336001600160a01b037f000000000000000000000000000000000000000000000000000000000000000016146106ff57604051635936416f60e01b815233600482015260240161049a565b60085460ff1661074857604051630eb8953f60e01b8152602060048201526013602482015272109d5c9b9a5b99c81a5cc8191a5cd8589b1959606a1b604482015260640161049a565b610750610d50565b6001600160a01b0382166107775760405163d92e233d60e01b815260040160405180910390fd5b805f0361079757604051631f2a200560e01b815260040160405180910390fd5b6001600160a01b0382165f90815260208190526040902054818110156107d65782828260405163db42144d60e01b815260040161049a939291906111ca565b60025482111561080c57816107ea60025490565b604051631ee970cd60e31b81526004810192909252602482015260440161049a565b5f600a61081860025490565b610822919061136d565b90508083111561088b57826040516333be48f560e21b815260040161049a9181526040602082018190526024908201527f45786365656473206d6178696d756d206275726e20706572207472616e7361636060820152633a34b7b760e11b608082015260a00190565b8260075f82825461089c91906111ff565b9091555050604051637b2c799560e11b81526001600160a01b038516600482015260248101849052309063f658f32a906044015f604051808303815f87803b1580156108e6575f5ffd5b505af19250505080156108f7575060015b61098c57610903611212565b806308c379a0036109575750610917611264565b806109225750610959565b8360075f82825461093391906112e8565b9091555050604051631e764bc560e31b815261049a908690869084906004016112fb565b505b8260075f82825461096a91906112e8565b9091555050604051631e764bc560e31b815261049a908590859060040161132a565b836001600160a01b03167fccbea4088a3b7ae9ca2d15fab9a9742a4075b4d7247768a1eecea917565aba00846007546040516109d2929190918252602082015260400190565b60405180910390a250506109e66001600655565b5050565b6109f2610d7a565b6008805460ff19168215159081179091556040519081527f1509137b40df48e8ef9596f9db16b632b15353d0e0688d9f23221953eb0328dd9060200160405180910390a150565b60606004805461039890611192565b336001600160a01b037f00000000000000000000000000000000000000000000000000000000000000001614610a9357604051635936416f60e01b815233600482015260240161049a565b6109e68282610df8565b5f33610426818585610cf3565b610ab2610d7a565b6001600160a01b038216610ad95760405163d92e233d60e01b815260040160405180910390fd5b6001600160a01b038316610b82575f826001600160a01b0316826040515f6040518083038185875af1925050503d805f8114610b30576040519150601f19603f3d011682016040523d82523d5f602084013e610b35565b606091505b5050905080610b7c5760405162461bcd60e51b8152602060048201526013602482015272115512081d1c985b9cd9995c8819985a5b1959606a1b604482015260640161049a565b50505050565b60405163a9059cbb60e01b81526001600160a01b0383811660048301526024820183905284169063a9059cbb906044016020604051808303815f875af1158015610bce573d5f5f3e3d5ffd5b505050506040513d601f19601f82011682018060405250810190610b7c919061138c565b505050565b610bff610d7a565b6001600160a01b038116610c2857604051631e4fbdf760e01b81525f600482015260240161049a565b61064881610da7565b333014610c795760405162461bcd60e51b815260206004820152601660248201527513db9b1e481cd95b198b58d85b1b08185b1b1bddd95960521b604482015260640161049a565b6109e68282610e2c565b610bf28383836001610e60565b6001600160a01b038381165f908152600160209081526040808320938616835292905220545f19811015610b7c5781811015610ce557828183604051637dc7a0d960e11b815260040161049a939291906111ca565b610b7c84848484035f610e60565b6001600160a01b038316610d1c57604051634b637e8f60e11b81525f600482015260240161049a565b6001600160a01b038216610d455760405163ec442f0560e01b81525f600482015260240161049a565b610bf2838383610f32565b600260065403610d7357604051633ee5aeb560e01b815260040160405180910390fd5b6002600655565b6005546001600160a01b031633146106b25760405163118cdaa760e01b815233600482015260240161049a565b600580546001600160a01b038381166001600160a01b0319831681179093556040519116919082907f8be0079c531659141344cd1fd0a4f28419497f9722a3daafe3b4186f6b6457e0905f90a35050565b6001600160a01b038216610e215760405163ec442f0560e01b81525f600482015260240161049a565b6109e65f8383610f32565b6001600160a01b038216610e5557604051634b637e8f60e11b81525f600482015260240161049a565b6109e6825f83610f32565b6001600160a01b038416610e895760405163e602df0560e01b81525f600482015260240161049a565b6001600160a01b038316610eb257604051634a1406b160e11b81525f600482015260240161049a565b6001600160a01b038085165f9081526001602090815260408083209387168352929052208290558015610b7c57826001600160a01b0316846001600160a01b03167f8c5be1e5ebec7d5bd14f71427d1e84f3dd0314c0f7b2291e5b200ac8c7c3b92584604051610f2491815260200190565b60405180910390a350505050565b6001600160a01b038316610f5c578060025f828254610f5191906111ff565b90915550610fb99050565b6001600160a01b0383165f9081526020819052604090205481811015610f9b5783818360405163391434e360e21b815260040161049a939291906111ca565b6001600160a01b0384165f9081526020819052604090209082900390555b6001600160a01b038216610fd557600280548290039055610ff3565b6001600160a01b0382165f9081526020819052604090208054820190555b816001600160a01b0316836001600160a01b03167fddf252ad1be2c89b69c2b068fc378daa952ba7f163c4a11628f55a4df523b3ef8360405161103891815260200190565b60405180910390a3505050565b5f81518084528060208401602086015e5f602082860101526020601f19601f83011685010191505092915050565b602081525f6110856020830184611045565b9392505050565b80356001600160a01b03811681146110a2575f5ffd5b919050565b5f5f604083850312156110b8575f5ffd5b6110c18361108c565b946020939093013593505050565b5f5f5f606084860312156110e1575f5ffd5b6110ea8461108c565b92506110f86020850161108c565b929592945050506040919091013590565b5f60208284031215611119575f5ffd5b5035919050565b5f60208284031215611130575f5ffd5b6110858261108c565b8015158114610648575f5ffd5b5f60208284031215611156575f5ffd5b813561108581611139565b5f5f60408385031215611172575f5ffd5b61117b8361108c565b91506111896020840161108c565b90509250929050565b600181811c908216806111a657607f821691505b6020821081036111c457634e487b7160e01b5f52602260045260245ffd5b50919050565b6001600160a01b039390931683526020830191909152604082015260600190565b634e487b7160e01b5f52601160045260245ffd5b8082018082111561042c5761042c6111eb565b5f60033d11156112285760045f5f3e505f5160e01c5b90565b601f8201601f1916810167ffffffffffffffff8111828210171561125d57634e487b7160e01b5f52604160045260245ffd5b6040525050565b5f60443d10156112715790565b6040513d600319016004823e80513d602482011167ffffffffffffffff8211171561129b57505090565b808201805167ffffffffffffffff8111156112b7575050505090565b3d84016003190182820160200111156112d1575050505090565b6112e06020828501018561122b565b509392505050565b8181038181111561042c5761042c6111eb565b60018060a01b0384168152826020820152606060408201525f6113216060830184611045565b95945050505050565b6001600160a01b039290921682526020820152606060408201819052601290820152712ab735b737bbb710313ab9371032b93937b960711b608082015260a00190565b5f8261138757634e487b7160e01b5f52601260045260245ffd5b500490565b5f6020828403121561139c575f5ffd5b81516110858161113956fea2646970667358221220c9c7ae96297410fef143e8be3c9db06b71d4b72f344f43926a1b795f4ae75be264736f6c634300081e0033",
					"opcodes": "PUSH1 0xE0 PUSH1 0x40 MSTORE PUSH1 0x8 DUP1 SLOAD PUSH1 0xFF NOT AND PUSH1 0x1 OR SWAP1 SSTORE CALLVALUE DUP1 ISZERO PUSH2 0x1C JUMPI PUSH0 PUSH0 REVERT JUMPDEST POP PUSH1 0x40 MLOAD PUSH2 0x1B2E CODESIZE SUB DUP1 PUSH2 0x1B2E DUP4 CODECOPY DUP2 ADD PUSH1 0x40 DUP2 SWAP1 MSTORE PUSH2 0x3B SWAP2 PUSH2 0x502 JUMP JUMPDEST DUP3 DUP8 DUP8 PUSH1 0x3 PUSH2 0x4A DUP4 DUP3 PUSH2 0x63A JUMP JUMPDEST POP PUSH1 0x4 PUSH2 0x57 DUP3 DUP3 PUSH2 0x63A JUMP JUMPDEST POP POP POP PUSH1 0x1 PUSH1 0x1 PUSH1 0xA0 SHL SUB DUP2 AND PUSH2 0x88 JUMPI PUSH1 0x40 MLOAD PUSH4 0x1E4FBDF7 PUSH1 0xE0 SHL DUP2 MSTORE PUSH0 PUSH1 0x4 DUP3 ADD MSTORE PUSH1 0x24 ADD JUMPDEST PUSH1 0x40 MLOAD DUP1 SWAP2 SUB SWAP1 REVERT JUMPDEST PUSH2 0x91 DUP2 PUSH2 0x29B JUMP JUMPDEST POP PUSH1 0x1 PUSH1 0x6 SSTORE DUP7 MLOAD PUSH0 SUB PUSH2 0xF0 JUMPI PUSH1 0x40 DUP1 MLOAD PUSH4 0xF7693C3D PUSH1 0xE0 SHL DUP2 MSTORE PUSH0 PUSH1 0x4 DUP3 ADD MSTORE PUSH1 0x24 DUP2 ADD SWAP2 SWAP1 SWAP2 MSTORE PUSH1 0x1A PUSH1 0x44 DUP3 ADD MSTORE PUSH32 0x546F6B656E206E616D652063616E6E6F7420626520656D707479000000000000 PUSH1 0x64 DUP3 ADD MSTORE PUSH1 0x84 ADD PUSH2 0x7F JUMP JUMPDEST DUP6 MLOAD PUSH0 SUB PUSH2 0x149 JUMPI PUSH1 0x40 DUP1 MLOAD PUSH4 0xF7693C3D PUSH1 0xE0 SHL DUP2 MSTORE PUSH0 PUSH1 0x4 DUP3 ADD MSTORE PUSH1 0x24 DUP2 ADD SWAP2 SWAP1 SWAP2 MSTORE PUSH1 0x1C PUSH1 0x44 DUP3 ADD MSTORE PUSH32 0x546F6B656E2073796D626F6C2063616E6E6F7420626520656D70747900000000 PUSH1 0x64 DUP3 ADD MSTORE PUSH1 0x84 ADD PUSH2 0x7F JUMP JUMPDEST PUSH1 0x1 PUSH1 0x1 PUSH1 0xA0 SHL SUB DUP4 AND PUSH2 0x170 JUMPI PUSH1 0x40 MLOAD PUSH4 0xD92E233D PUSH1 0xE0 SHL DUP2 MSTORE PUSH1 0x4 ADD PUSH1 0x40 MLOAD DUP1 SWAP2 SUB SWAP1 REVERT JUMPDEST PUSH1 0x1 PUSH1 0x1 PUSH1 0xA0 SHL SUB DUP3 AND PUSH2 0x197 JUMPI PUSH1 0x40 MLOAD PUSH4 0xD92E233D PUSH1 0xE0 SHL DUP2 MSTORE PUSH1 0x4 ADD PUSH1 0x40 MLOAD DUP1 SWAP2 SUB SWAP1 REVERT JUMPDEST PUSH1 0x12 DUP6 PUSH1 0xFF AND GT ISZERO PUSH2 0x1CE JUMPI PUSH1 0x40 MLOAD PUSH4 0x46F4384B PUSH1 0xE0 SHL DUP2 MSTORE PUSH1 0xFF DUP7 AND PUSH1 0x4 DUP3 ADD MSTORE PUSH0 PUSH1 0x24 DUP3 ADD MSTORE PUSH1 0x12 PUSH1 0x44 DUP3 ADD MSTORE PUSH1 0x64 ADD PUSH2 0x7F JUMP JUMPDEST DUP4 PUSH0 SUB PUSH2 0x1EE JUMPI PUSH1 0x40 MLOAD PUSH4 0x1F2A2005 PUSH1 0xE0 SHL DUP2 MSTORE PUSH1 0x4 ADD PUSH1 0x40 MLOAD DUP1 SWAP2 SUB SWAP1 REVERT JUMPDEST DUP2 PUSH1 0x1 PUSH1 0x1 PUSH1 0xA0 SHL SUB AND DUP4 PUSH1 0x1 PUSH1 0x1 PUSH1 0xA0 SHL SUB AND SUB PUSH2 0x25C JUMPI PUSH1 0x40 MLOAD PUSH4 0x313B9AA1 PUSH1 0xE2 SHL DUP2 MSTORE PUSH1 0x20 PUSH1 0x4 DUP3 ADD MSTORE PUSH1 0x24 DUP1 DUP3 ADD MSTORE PUSH32 0x4F776E657220616E6420666163746F72792063616E6E6F742062652074686520 PUSH1 0x44 DUP3 ADD MSTORE PUSH4 0x73616D65 PUSH1 0xE0 SHL PUSH1 0x64 DUP3 ADD MSTORE PUSH1 0x84 ADD PUSH2 0x7F JUMP JUMPDEST PUSH1 0xFF DUP6 AND PUSH1 0x80 MSTORE PUSH1 0x1 PUSH1 0x1 PUSH1 0xA0 SHL SUB DUP3 AND PUSH1 0xA0 MSTORE PUSH1 0xC0 DUP2 SWAP1 MSTORE PUSH2 0x27F DUP4 DUP6 PUSH2 0x2EC JUMP JUMPDEST POP POP PUSH1 0x8 DUP1 SLOAD PUSH2 0xFF00 NOT AND PUSH2 0x100 OR SWAP1 SSTORE POP PUSH2 0x719 SWAP4 POP POP POP POP JUMP JUMPDEST PUSH1 0x5 DUP1 SLOAD PUSH1 0x1 PUSH1 0x1 PUSH1 0xA0 SHL SUB DUP4 DUP2 AND PUSH1 0x1 PUSH1 0x1 PUSH1 0xA0 SHL SUB NOT DUP4 AND DUP2 OR SWAP1 SWAP4 SSTORE PUSH1 0x40 MLOAD SWAP2 AND SWAP2 SWAP1 DUP3 SWAP1 PUSH32 0x8BE0079C531659141344CD1FD0A4F28419497F9722A3DAAFE3B4186F6B6457E0 SWAP1 PUSH0 SWAP1 LOG3 POP POP JUMP JUMPDEST PUSH1 0x1 PUSH1 0x1 PUSH1 0xA0 SHL SUB DUP3 AND PUSH2 0x315 JUMPI PUSH1 0x40 MLOAD PUSH4 0xEC442F05 PUSH1 0xE0 SHL DUP2 MSTORE PUSH0 PUSH1 0x4 DUP3 ADD MSTORE PUSH1 0x24 ADD PUSH2 0x7F JUMP JUMPDEST PUSH2 0x320 PUSH0 DUP4 DUP4 PUSH2 0x324 JUMP JUMPDEST POP POP JUMP JUMPDEST PUSH1 0x1 PUSH1 0x1 PUSH1 0xA0 SHL SUB DUP4 AND PUSH2 0x34E JUMPI DUP1 PUSH1 0x2 PUSH0 DUP3 DUP3 SLOAD PUSH2 0x343 SWAP2 SWAP1 PUSH2 0x6F4 JUMP JUMPDEST SWAP1 SWAP2 SSTORE POP PUSH2 0x3BE SWAP1 POP JUMP JUMPDEST PUSH1 0x1 PUSH1 0x1 PUSH1 0xA0 SHL SUB DUP4 AND PUSH0 SWAP1 DUP2 MSTORE PUSH1 0x20 DUP2 SWAP1 MSTORE PUSH1 0x40 SWAP1 KECCAK256 SLOAD DUP2 DUP2 LT ISZERO PUSH2 0x3A0 JUMPI PUSH1 0x40 MLOAD PUSH4 0x391434E3 PUSH1 0xE2 SHL DUP2 MSTORE PUSH1 0x1 PUSH1 0x1 PUSH1 0xA0 SHL SUB DUP6 AND PUSH1 0x4 DUP3 ADD MSTORE PUSH1 0x24 DUP2 ADD DUP3 SWAP1 MSTORE PUSH1 0x44 DUP2 ADD DUP4 SWAP1 MSTORE PUSH1 0x64 ADD PUSH2 0x7F JUMP JUMPDEST PUSH1 0x1 PUSH1 0x1 PUSH1 0xA0 SHL SUB DUP5 AND PUSH0 SWAP1 DUP2 MSTORE PUSH1 0x20 DUP2 SWAP1 MSTORE PUSH1 0x40 SWAP1 KECCAK256 SWAP1 DUP3 SWAP1 SUB SWAP1 SSTORE JUMPDEST PUSH1 0x1 PUSH1 0x1 PUSH1 0xA0 SHL SUB DUP3 AND PUSH2 0x3DA JUMPI PUSH1 0x2 DUP1 SLOAD DUP3 SWAP1 SUB SWAP1 SSTORE PUSH2 0x3F8 JUMP JUMPDEST PUSH1 0x1 PUSH1 0x1 PUSH1 0xA0 SHL SUB DUP3 AND PUSH0 SWAP1 DUP2 MSTORE PUSH1 0x20 DUP2 SWAP1 MSTORE PUSH1 0x40 SWAP1 KECCAK256 DUP1 SLOAD DUP3 ADD SWAP1 SSTORE JUMPDEST DUP2 PUSH1 0x1 PUSH1 0x1 PUSH1 0xA0 SHL SUB AND DUP4 PUSH1 0x1 PUSH1 0x1 PUSH1 0xA0 SHL SUB AND PUSH32 0xDDF252AD1BE2C89B69C2B068FC378DAA952BA7F163C4A11628F55A4DF523B3EF DUP4 PUSH1 0x40 MLOAD PUSH2 0x43D SWAP2 DUP2 MSTORE PUSH1 0x20 ADD SWAP1 JUMP JUMPDEST PUSH1 0x40 MLOAD DUP1 SWAP2 SUB SWAP1 LOG3 POP POP POP JUMP JUMPDEST PUSH4 0x4E487B71 PUSH1 0xE0 SHL PUSH0 MSTORE PUSH1 0x41 PUSH1 0x4 MSTORE PUSH1 0x24 PUSH0 REVERT JUMPDEST PUSH0 DUP3 PUSH1 0x1F DUP4 ADD SLT PUSH2 0x46D JUMPI PUSH0 PUSH0 REVERT JUMPDEST DUP2 MLOAD PUSH1 0x1 PUSH1 0x1 PUSH1 0x40 SHL SUB DUP2 GT ISZERO PUSH2 0x486 JUMPI PUSH2 0x486 PUSH2 0x44A JUMP JUMPDEST PUSH1 0x40 MLOAD PUSH1 0x1F DUP3 ADD PUSH1 0x1F NOT SWAP1 DUP2 AND PUSH1 0x3F ADD AND DUP2 ADD PUSH1 0x1 PUSH1 0x1 PUSH1 0x40 SHL SUB DUP2 GT DUP3 DUP3 LT OR ISZERO PUSH2 0x4B4 JUMPI PUSH2 0x4B4 PUSH2 0x44A JUMP JUMPDEST PUSH1 0x40 MSTORE DUP2 DUP2 MSTORE DUP4 DUP3 ADD PUSH1 0x20 ADD DUP6 LT ISZERO PUSH2 0x4CB JUMPI PUSH0 PUSH0 REVERT JUMPDEST DUP2 PUSH1 0x20 DUP6 ADD PUSH1 0x20 DUP4 ADD MCOPY PUSH0 SWAP2 DUP2 ADD PUSH1 0x20 ADD SWAP2 SWAP1 SWAP2 MSTORE SWAP4 SWAP3 POP POP POP JUMP JUMPDEST DUP1 MLOAD PUSH1 0x1 PUSH1 0x1 PUSH1 0xA0 SHL SUB DUP2 AND DUP2 EQ PUSH2 0x4FD JUMPI PUSH0 PUSH0 REVERT JUMPDEST SWAP2 SWAP1 POP JUMP JUMPDEST PUSH0 PUSH0 PUSH0 PUSH0 PUSH0 PUSH0 PUSH0 PUSH1 0xE0 DUP9 DUP11 SUB SLT ISZERO PUSH2 0x518 JUMPI PUSH0 PUSH0 REVERT JUMPDEST DUP8 MLOAD PUSH1 0x1 PUSH1 0x1 PUSH1 0x40 SHL SUB DUP2 GT ISZERO PUSH2 0x52D JUMPI PUSH0 PUSH0 REVERT JUMPDEST PUSH2 0x539 DUP11 DUP3 DUP12 ADD PUSH2 0x45E JUMP JUMPDEST PUSH1 0x20 DUP11 ADD MLOAD SWAP1 SWAP9 POP SWAP1 POP PUSH1 0x1 PUSH1 0x1 PUSH1 0x40 SHL SUB DUP2 GT ISZERO PUSH2 0x556 JUMPI PUSH0 PUSH0 REVERT JUMPDEST PUSH2 0x562 DUP11 DUP3 DUP12 ADD PUSH2 0x45E JUMP JUMPDEST SWAP7 POP POP PUSH1 0x40 DUP9 ADD MLOAD PUSH1 0xFF DUP2 AND DUP2 EQ PUSH2 0x578 JUMPI PUSH0 PUSH0 REVERT JUMPDEST PUSH1 0x60 DUP10 ADD MLOAD SWAP1 SWAP6 POP SWAP4 POP PUSH2 0x58E PUSH1 0x80 DUP10 ADD PUSH2 0x4E7 JUMP JUMPDEST SWAP3 POP PUSH2 0x59C PUSH1 0xA0 DUP10 ADD PUSH2 0x4E7 JUMP JUMPDEST SWAP2 POP PUSH0 PUSH1 0xC0 DUP10 ADD MLOAD SWAP1 POP DUP1 SWAP2 POP POP SWAP3 SWAP6 SWAP9 SWAP2 SWAP5 SWAP8 POP SWAP3 SWAP6 POP JUMP JUMPDEST PUSH1 0x1 DUP2 DUP2 SHR SWAP1 DUP3 AND DUP1 PUSH2 0x5CA JUMPI PUSH1 0x7F DUP3 AND SWAP2 POP JUMPDEST PUSH1 0x20 DUP3 LT DUP2 SUB PUSH2 0x5E8 JUMPI PUSH4 0x4E487B71 PUSH1 0xE0 SHL PUSH0 MSTORE PUSH1 0x22 PUSH1 0x4 MSTORE PUSH1 0x24 PUSH0 REVERT JUMPDEST POP SWAP2 SWAP1 POP JUMP JUMPDEST PUSH1 0x1F DUP3 GT ISZERO PUSH2 0x635 JUMPI DUP1 PUSH0 MSTORE PUSH1 0x20 PUSH0 KECCAK256 PUSH1 0x1F DUP5 ADD PUSH1 0x5 SHR DUP2 ADD PUSH1 0x20 DUP6 LT ISZERO PUSH2 0x613 JUMPI POP DUP1 JUMPDEST PUSH1 0x1F DUP5 ADD PUSH1 0x5 SHR DUP3 ADD SWAP2 POP JUMPDEST DUP2 DUP2 LT ISZERO PUSH2 0x632 JUMPI PUSH0 DUP2 SSTORE PUSH1 0x1 ADD PUSH2 0x61F JUMP JUMPDEST POP POP JUMPDEST POP POP POP JUMP JUMPDEST DUP2 MLOAD PUSH1 0x1 PUSH1 0x1 PUSH1 0x40 SHL SUB DUP2 GT ISZERO PUSH2 0x653 JUMPI PUSH2 0x653 PUSH2 0x44A JUMP JUMPDEST PUSH2 0x667 DUP2 PUSH2 0x661 DUP5 SLOAD PUSH2 0x5B6 JUMP JUMPDEST DUP5 PUSH2 0x5EE JUMP JUMPDEST PUSH1 0x20 PUSH1 0x1F DUP3 GT PUSH1 0x1 DUP2 EQ PUSH2 0x699 JUMPI PUSH0 DUP4 ISZERO PUSH2 0x682 JUMPI POP DUP5 DUP3 ADD MLOAD JUMPDEST PUSH0 NOT PUSH1 0x3 DUP6 SWAP1 SHL SHR NOT AND PUSH1 0x1 DUP5 SWAP1 SHL OR DUP5 SSTORE PUSH2 0x632 JUMP JUMPDEST PUSH0 DUP5 DUP2 MSTORE PUSH1 0x20 DUP2 KECCAK256 PUSH1 0x1F NOT DUP6 AND SWAP2 JUMPDEST DUP3 DUP2 LT ISZERO PUSH2 0x6C8 JUMPI DUP8 DUP6 ADD MLOAD DUP3 SSTORE PUSH1 0x20 SWAP5 DUP6 ADD SWAP5 PUSH1 0x1 SWAP1 SWAP3 ADD SWAP2 ADD PUSH2 0x6A8 JUMP JUMPDEST POP DUP5 DUP3 LT ISZERO PUSH2 0x6E5 JUMPI DUP7 DUP5 ADD MLOAD PUSH0 NOT PUSH1 0x3 DUP8 SWAP1 SHL PUSH1 0xF8 AND SHR NOT AND DUP2 SSTORE JUMPDEST POP POP POP POP PUSH1 0x1 SWAP1 DUP2 SHL ADD SWAP1 SSTORE POP JUMP JUMPDEST DUP1 DUP3 ADD DUP1 DUP3 GT ISZERO PUSH2 0x713 JUMPI PUSH4 0x4E487B71 PUSH1 0xE0 SHL PUSH0 MSTORE PUSH1 0x11 PUSH1 0x4 MSTORE PUSH1 0x24 PUSH0 REVERT JUMPDEST SWAP3 SWAP2 POP POP JUMP JUMPDEST PUSH1 0x80 MLOAD PUSH1 0xA0 MLOAD PUSH1 0xC0 MLOAD PUSH2 0x13DD PUSH2 0x751 PUSH0 CODECOPY PUSH0 PUSH2 0x300 ADD MSTORE PUSH0 DUP2 DUP2 PUSH2 0x2D9 ADD MSTORE DUP2 DUP2 PUSH2 0x6BF ADD MSTORE PUSH2 0xA53 ADD MSTORE PUSH0 PUSH2 0x1B9 ADD MSTORE PUSH2 0x13DD PUSH0 RETURN INVALID PUSH1 0x80 PUSH1 0x40 MSTORE CALLVALUE DUP1 ISZERO PUSH2 0xF JUMPI PUSH0 PUSH0 REVERT JUMPDEST POP PUSH1 0x4 CALLDATASIZE LT PUSH2 0x148 JUMPI PUSH0 CALLDATALOAD PUSH1 0xE0 SHR DUP1 PUSH4 0x7B2C835F GT PUSH2 0xBF JUMPI DUP1 PUSH4 0xC45A0155 GT PUSH2 0x79 JUMPI DUP1 PUSH4 0xC45A0155 EQ PUSH2 0x2D4 JUMPI DUP1 PUSH4 0xD7C81B55 EQ PUSH2 0x2FB JUMPI DUP1 PUSH4 0xD89135CD EQ PUSH2 0x322 JUMPI DUP1 PUSH4 0xDD62ED3E EQ PUSH2 0x32B JUMPI DUP1 PUSH4 0xF2FDE38B EQ PUSH2 0x363 JUMPI DUP1 PUSH4 0xF658F32A EQ PUSH2 0x376 JUMPI PUSH0 PUSH0 REVERT JUMPDEST DUP1 PUSH4 0x7B2C835F EQ PUSH2 0x25B JUMPI DUP1 PUSH4 0x8DA5CB5B EQ PUSH2 0x26E JUMPI DUP1 PUSH4 0x95D89B41 EQ PUSH2 0x293 JUMPI DUP1 PUSH4 0xA4F0ECD3 EQ PUSH2 0x29B JUMPI DUP1 PUSH4 0xA9059CBB EQ PUSH2 0x2AE JUMPI DUP1 PUSH4 0xAD1329D1 EQ PUSH2 0x2C1 JUMPI PUSH0 PUSH0 REVERT JUMPDEST DUP1 PUSH4 0x42966C68 GT PUSH2 0x110 JUMPI DUP1 PUSH4 0x42966C68 EQ PUSH2 0x1E3 JUMPI DUP1 PUSH4 0x5DC96D16 EQ PUSH2 0x1F8 JUMPI DUP1 PUSH4 0x6A627842 EQ PUSH2 0x205 JUMPI DUP1 PUSH4 0x70A08231 EQ PUSH2 0x218 JUMPI DUP1 PUSH4 0x715018A6 EQ PUSH2 0x240 JUMPI DUP1 PUSH4 0x79CC6790 EQ PUSH2 0x248 JUMPI PUSH0 PUSH0 REVERT JUMPDEST DUP1 PUSH4 0x6FDDE03 EQ PUSH2 0x14C JUMPI DUP1 PUSH4 0x95EA7B3 EQ PUSH2 0x16A JUMPI DUP1 PUSH4 0x18160DDD EQ PUSH2 0x18D JUMPI DUP1 PUSH4 0x23B872DD EQ PUSH2 0x19F JUMPI DUP1 PUSH4 0x313CE567 EQ PUSH2 0x1B2 JUMPI JUMPDEST PUSH0 PUSH0 REVERT JUMPDEST PUSH2 0x154 PUSH2 0x389 JUMP JUMPDEST PUSH1 0x40 MLOAD PUSH2 0x161 SWAP2 SWAP1 PUSH2 0x1073 JUMP JUMPDEST PUSH1 0x40 MLOAD DUP1 SWAP2 SUB SWAP1 RETURN JUMPDEST PUSH2 0x17D PUSH2 0x178 CALLDATASIZE PUSH1 0x4 PUSH2 0x10A7 JUMP JUMPDEST PUSH2 0x419 JUMP JUMPDEST PUSH1 0x40 MLOAD SWAP1 ISZERO ISZERO DUP2 MSTORE PUSH1 0x20 ADD PUSH2 0x161 JUMP JUMPDEST PUSH1 0x2 SLOAD JUMPDEST PUSH1 0x40 MLOAD SWAP1 DUP2 MSTORE PUSH1 0x20 ADD PUSH2 0x161 JUMP JUMPDEST PUSH2 0x17D PUSH2 0x1AD CALLDATASIZE PUSH1 0x4 PUSH2 0x10CF JUMP JUMPDEST PUSH2 0x432 JUMP JUMPDEST PUSH1 0x40 MLOAD PUSH1 0xFF PUSH32 0x0 AND DUP2 MSTORE PUSH1 0x20 ADD PUSH2 0x161 JUMP JUMPDEST PUSH2 0x1F6 PUSH2 0x1F1 CALLDATASIZE PUSH1 0x4 PUSH2 0x1109 JUMP JUMPDEST PUSH2 0x455 JUMP JUMPDEST STOP JUMPDEST PUSH1 0x8 SLOAD PUSH2 0x17D SWAP1 PUSH1 0xFF AND DUP2 JUMP JUMPDEST PUSH2 0x1F6 PUSH2 0x213 CALLDATASIZE PUSH1 0x4 PUSH2 0x1120 JUMP JUMPDEST PUSH2 0x64B JUMP JUMPDEST PUSH2 0x191 PUSH2 0x226 CALLDATASIZE PUSH1 0x4 PUSH2 0x1120 JUMP JUMPDEST PUSH1 0x1 PUSH1 0x1 PUSH1 0xA0 SHL SUB AND PUSH0 SWAP1 DUP2 MSTORE PUSH1 0x20 DUP2 SWAP1 MSTORE PUSH1 0x40 SWAP1 KECCAK256 SLOAD SWAP1 JUMP JUMPDEST PUSH2 0x1F6 PUSH2 0x6A1 JUMP JUMPDEST PUSH2 0x1F6 PUSH2 0x256 CALLDATASIZE PUSH1 0x4 PUSH2 0x10A7 JUMP JUMPDEST PUSH2 0x6B4 JUMP JUMPDEST PUSH2 0x1F6 PUSH2 0x269 CALLDATASIZE PUSH1 0x4 PUSH2 0x1146 JUMP JUMPDEST PUSH2 0x9EA JUMP JUMPDEST PUSH1 0x5 SLOAD PUSH1 0x1 PUSH1 0x1 PUSH1 0xA0 SHL SUB AND JUMPDEST PUSH1 0x40 MLOAD PUSH1 0x1 PUSH1 0x1 PUSH1 0xA0 SHL SUB SWAP1 SWAP2 AND DUP2 MSTORE PUSH1 0x20 ADD PUSH2 0x161 JUMP JUMPDEST PUSH2 0x154 PUSH2 0xA39 JUMP JUMPDEST PUSH2 0x1F6 PUSH2 0x2A9 CALLDATASIZE PUSH1 0x4 PUSH2 0x10A7 JUMP JUMPDEST PUSH2 0xA48 JUMP JUMPDEST PUSH2 0x17D PUSH2 0x2BC CALLDATASIZE PUSH1 0x4 PUSH2 0x10A7 JUMP JUMPDEST PUSH2 0xA9D JUMP JUMPDEST PUSH2 0x1F6 PUSH2 0x2CF CALLDATASIZE PUSH1 0x4 PUSH2 0x10CF JUMP JUMPDEST PUSH2 0xAAA JUMP JUMPDEST PUSH2 0x27B PUSH32 0x0 DUP2 JUMP JUMPDEST PUSH2 0x191 PUSH32 0x0 DUP2 JUMP JUMPDEST PUSH2 0x191 PUSH1 0x7 SLOAD DUP2 JUMP JUMPDEST PUSH2 0x191 PUSH2 0x339 CALLDATASIZE PUSH1 0x4 PUSH2 0x1161 JUMP JUMPDEST PUSH1 0x1 PUSH1 0x1 PUSH1 0xA0 SHL SUB SWAP2 DUP3 AND PUSH0 SWAP1 DUP2 MSTORE PUSH1 0x1 PUSH1 0x20 SWAP1 DUP2 MSTORE PUSH1 0x40 DUP1 DUP4 KECCAK256 SWAP4 SWAP1 SWAP5 AND DUP3 MSTORE SWAP2 SWAP1 SWAP2 MSTORE KECCAK256 SLOAD SWAP1 JUMP JUMPDEST PUSH2 0x1F6 PUSH2 0x371 CALLDATASIZE PUSH1 0x4 PUSH2 0x1120 JUMP JUMPDEST PUSH2 0xBF7 JUMP JUMPDEST PUSH2 0x1F6 PUSH2 0x384 CALLDATASIZE PUSH1 0x4 PUSH2 0x10A7 JUMP JUMPDEST PUSH2 0xC31 JUMP JUMPDEST PUSH1 0x60 PUSH1 0x3 DUP1 SLOAD PUSH2 0x398 SWAP1 PUSH2 0x1192 JUMP JUMPDEST DUP1 PUSH1 0x1F ADD PUSH1 0x20 DUP1 SWAP2 DIV MUL PUSH1 0x20 ADD PUSH1 0x40 MLOAD SWAP1 DUP2 ADD PUSH1 0x40 MSTORE DUP1 SWAP3 SWAP2 SWAP1 DUP2 DUP2 MSTORE PUSH1 0x20 ADD DUP3 DUP1 SLOAD PUSH2 0x3C4 SWAP1 PUSH2 0x1192 JUMP JUMPDEST DUP1 ISZERO PUSH2 0x40F JUMPI DUP1 PUSH1 0x1F LT PUSH2 0x3E6 JUMPI PUSH2 0x100 DUP1 DUP4 SLOAD DIV MUL DUP4 MSTORE SWAP2 PUSH1 0x20 ADD SWAP2 PUSH2 0x40F JUMP JUMPDEST DUP3 ADD SWAP2 SWAP1 PUSH0 MSTORE PUSH1 0x20 PUSH0 KECCAK256 SWAP1 JUMPDEST DUP2 SLOAD DUP2 MSTORE SWAP1 PUSH1 0x1 ADD SWAP1 PUSH1 0x20 ADD DUP1 DUP4 GT PUSH2 0x3F2 JUMPI DUP3 SWAP1 SUB PUSH1 0x1F AND DUP3 ADD SWAP2 JUMPDEST POP POP POP POP POP SWAP1 POP SWAP1 JUMP JUMPDEST PUSH0 CALLER PUSH2 0x426 DUP2 DUP6 DUP6 PUSH2 0xC83 JUMP JUMPDEST PUSH1 0x1 SWAP2 POP POP JUMPDEST SWAP3 SWAP2 POP POP JUMP JUMPDEST PUSH0 CALLER PUSH2 0x43F DUP6 DUP3 DUP6 PUSH2 0xC90 JUMP JUMPDEST PUSH2 0x44A DUP6 DUP6 DUP6 PUSH2 0xCF3 JUMP JUMPDEST POP PUSH1 0x1 SWAP5 SWAP4 POP POP POP POP JUMP JUMPDEST PUSH1 0x8 SLOAD PUSH1 0xFF AND PUSH2 0x4A3 JUMPI PUSH1 0x40 MLOAD PUSH4 0xEB8953F PUSH1 0xE0 SHL DUP2 MSTORE PUSH1 0x20 PUSH1 0x4 DUP3 ADD MSTORE PUSH1 0x13 PUSH1 0x24 DUP3 ADD MSTORE PUSH19 0x109D5C9B9A5B99C81A5CC8191A5CD8589B1959 PUSH1 0x6A SHL PUSH1 0x44 DUP3 ADD MSTORE PUSH1 0x64 ADD JUMPDEST PUSH1 0x40 MLOAD DUP1 SWAP2 SUB SWAP1 REVERT JUMPDEST PUSH2 0x4AB PUSH2 0xD50 JUMP JUMPDEST DUP1 PUSH0 SUB PUSH2 0x4CB JUMPI PUSH1 0x40 MLOAD PUSH4 0x1F2A2005 PUSH1 0xE0 SHL DUP2 MSTORE PUSH1 0x4 ADD PUSH1 0x40 MLOAD DUP1 SWAP2 SUB SWAP1 REVERT JUMPDEST CALLER PUSH0 SWAP1 DUP2 MSTORE PUSH1 0x20 DUP2 SWAP1 MSTORE PUSH1 0x40 SWAP1 KECCAK256 SLOAD DUP2 DUP2 LT ISZERO PUSH2 0x501 JUMPI CALLER DUP3 DUP3 PUSH1 0x40 MLOAD PUSH4 0xDB42144D PUSH1 0xE0 SHL DUP2 MSTORE PUSH1 0x4 ADD PUSH2 0x49A SWAP4 SWAP3 SWAP2 SWAP1 PUSH2 0x11CA JUMP JUMPDEST DUP2 PUSH1 0x7 PUSH0 DUP3 DUP3 SLOAD PUSH2 0x512 SWAP2 SWAP1 PUSH2 0x11FF JUMP JUMPDEST SWAP1 SWAP2 SSTORE POP POP PUSH1 0x40 MLOAD PUSH4 0x7B2C7995 PUSH1 0xE1 SHL DUP2 MSTORE CALLER PUSH1 0x4 DUP3 ADD MSTORE PUSH1 0x24 DUP2 ADD DUP4 SWAP1 MSTORE ADDRESS SWAP1 PUSH4 0xF658F32A SWAP1 PUSH1 0x44 ADD PUSH0 PUSH1 0x40 MLOAD DUP1 DUP4 SUB DUP2 PUSH0 DUP8 DUP1 EXTCODESIZE ISZERO DUP1 ISZERO PUSH2 0x553 JUMPI PUSH0 PUSH0 REVERT JUMPDEST POP GAS CALL SWAP3 POP POP POP DUP1 ISZERO PUSH2 0x564 JUMPI POP PUSH1 0x1 JUMPDEST PUSH2 0x5F9 JUMPI PUSH2 0x570 PUSH2 0x1212 JUMP JUMPDEST DUP1 PUSH4 0x8C379A0 SUB PUSH2 0x5C4 JUMPI POP PUSH2 0x584 PUSH2 0x1264 JUMP JUMPDEST DUP1 PUSH2 0x58F JUMPI POP PUSH2 0x5C6 JUMP JUMPDEST DUP3 PUSH1 0x7 PUSH0 DUP3 DUP3 SLOAD PUSH2 0x5A0 SWAP2 SWAP1 PUSH2 0x12E8 JUMP JUMPDEST SWAP1 SWAP2 SSTORE POP POP PUSH1 0x40 MLOAD PUSH4 0x1E764BC5 PUSH1 0xE3 SHL DUP2 MSTORE PUSH2 0x49A SWAP1 CALLER SWAP1 DUP6 SWAP1 DUP5 SWAP1 PUSH1 0x4 ADD PUSH2 0x12FB JUMP JUMPDEST POP JUMPDEST DUP2 PUSH1 0x7 PUSH0 DUP3 DUP3 SLOAD PUSH2 0x5D7 SWAP2 SWAP1 PUSH2 0x12E8 JUMP JUMPDEST SWAP1 SWAP2 SSTORE POP POP PUSH1 0x40 MLOAD PUSH4 0x1E764BC5 PUSH1 0xE3 SHL DUP2 MSTORE PUSH2 0x49A SWAP1 CALLER SWAP1 DUP5 SWAP1 PUSH1 0x4 ADD PUSH2 0x132A JUMP JUMPDEST PUSH1 0x7 SLOAD PUSH1 0x40 MLOAD CALLER SWAP2 PUSH32 0xCCBEA4088A3B7AE9CA2D15FAB9A9742A4075B4D7247768A1EECEA917565ABA00 SWAP2 PUSH2 0x635 SWAP2 DUP7 DUP3 MSTORE PUSH1 0x20 DUP3 ADD MSTORE PUSH1 0x40 ADD SWAP1 JUMP JUMPDEST PUSH1 0x40 MLOAD DUP1 SWAP2 SUB SWAP1 LOG2 POP PUSH2 0x648 PUSH1 0x1 PUSH1 0x6 SSTORE JUMP JUMPDEST POP JUMP JUMPDEST PUSH1 0x40 MLOAD PUSH3 0x461BCD PUSH1 0xE5 SHL DUP2 MSTORE PUSH1 0x20 PUSH1 0x4 DUP3 ADD MSTORE PUSH1 0x25 PUSH1 0x24 DUP3 ADD MSTORE PUSH32 0x4D696E742064697361626C65643A2075736520666163746F727920746F206C6F PUSH1 0x44 DUP3 ADD MSTORE PUSH5 0x636B20585 PUSH1 0xDC SHL PUSH1 0x64 DUP3 ADD MSTORE PUSH1 0x84 ADD PUSH2 0x49A JUMP JUMPDEST PUSH2 0x6A9 PUSH2 0xD7A JUMP JUMPDEST PUSH2 0x6B2 PUSH0 PUSH2 0xDA7 JUMP JUMPDEST JUMP JUMPDEST CALLER PUSH1 0x1 PUSH1 0x1 PUSH1 0xA0 SHL SUB PUSH32 0x0 AND EQ PUSH2 0x6FF JUMPI PUSH1 0x40 MLOAD PUSH4 0x5936416F PUSH1 0xE0 SHL DUP2 MSTORE CALLER PUSH1 0x4 DUP3 ADD MSTORE PUSH1 0x24 ADD PUSH2 0x49A JUMP JUMPDEST PUSH1 0x8 SLOAD PUSH1 0xFF AND PUSH2 0x748 JUMPI PUSH1 0x40 MLOAD PUSH4 0xEB8953F PUSH1 0xE0 SHL DUP2 MSTORE PUSH1 0x20 PUSH1 0x4 DUP3 ADD MSTORE PUSH1 0x13 PUSH1 0x24 DUP3 ADD MSTORE PUSH19 0x109D5C9B9A5B99C81A5CC8191A5CD8589B1959 PUSH1 0x6A SHL PUSH1 0x44 DUP3 ADD MSTORE PUSH1 0x64 ADD PUSH2 0x49A JUMP JUMPDEST PUSH2 0x750 PUSH2 0xD50 JUMP JUMPDEST PUSH1 0x1 PUSH1 0x1 PUSH1 0xA0 SHL SUB DUP3 AND PUSH2 0x777 JUMPI PUSH1 0x40 MLOAD PUSH4 0xD92E233D PUSH1 0xE0 SHL DUP2 MSTORE PUSH1 0x4 ADD PUSH1 0x40 MLOAD DUP1 SWAP2 SUB SWAP1 REVERT JUMPDEST DUP1 PUSH0 SUB PUSH2 0x797 JUMPI PUSH1 0x40 MLOAD PUSH4 0x1F2A2005 PUSH1 0xE0 SHL DUP2 MSTORE PUSH1 0x4 ADD PUSH1 0x40 MLOAD DUP1 SWAP2 SUB SWAP1 REVERT JUMPDEST PUSH1 0x1 PUSH1 0x1 PUSH1 0xA0 SHL SUB DUP3 AND PUSH0 SWAP1 DUP2 MSTORE PUSH1 0x20 DUP2 SWAP1 MSTORE PUSH1 0x40 SWAP1 KECCAK256 SLOAD DUP2 DUP2 LT ISZERO PUSH2 0x7D6 JUMPI DUP3 DUP3 DUP3 PUSH1 0x40 MLOAD PUSH4 0xDB42144D PUSH1 0xE0 SHL DUP2 MSTORE PUSH1 0x4 ADD PUSH2 0x49A SWAP4 SWAP3 SWAP2 SWAP1 PUSH2 0x11CA JUMP JUMPDEST PUSH1 0x2 SLOAD DUP3 GT ISZERO PUSH2 0x80C JUMPI DUP2 PUSH2 0x7EA PUSH1 0x2 SLOAD SWAP1 JUMP JUMPDEST PUSH1 0x40 MLOAD PUSH4 0x1EE970CD PUSH1 0xE3 SHL DUP2 MSTORE PUSH1 0x4 DUP2 ADD SWAP3 SWAP1 SWAP3 MSTORE PUSH1 0x24 DUP3 ADD MSTORE PUSH1 0x44 ADD PUSH2 0x49A JUMP JUMPDEST PUSH0 PUSH1 0xA PUSH2 0x818 PUSH1 0x2 SLOAD SWAP1 JUMP JUMPDEST PUSH2 0x822 SWAP2 SWAP1 PUSH2 0x136D JUMP JUMPDEST SWAP1 POP DUP1 DUP4 GT ISZERO PUSH2 0x88B JUMPI DUP3 PUSH1 0x40 MLOAD PUSH4 0x33BE48F5 PUSH1 0xE2 SHL DUP2 MSTORE PUSH1 0x4 ADD PUSH2 0x49A SWAP2 DUP2 MSTORE PUSH1 0x40 PUSH1 0x20 DUP3 ADD DUP2 SWAP1 MSTORE PUSH1 0x24 SWAP1 DUP3 ADD MSTORE PUSH32 0x45786365656473206D6178696D756D206275726E20706572207472616E736163 PUSH1 0x60 DUP3 ADD MSTORE PUSH4 0x3A34B7B7 PUSH1 0xE1 SHL PUSH1 0x80 DUP3 ADD MSTORE PUSH1 0xA0 ADD SWAP1 JUMP JUMPDEST DUP3 PUSH1 0x7 PUSH0 DUP3 DUP3 SLOAD PUSH2 0x89C SWAP2 SWAP1 PUSH2 0x11FF JUMP JUMPDEST SWAP1 SWAP2 SSTORE POP POP PUSH1 0x40 MLOAD PUSH4 0x7B2C7995 PUSH1 0xE1 SHL DUP2 MSTORE PUSH1 0x1 PUSH1 0x1 PUSH1 0xA0 SHL SUB DUP6 AND PUSH1 0x4 DUP3 ADD MSTORE PUSH1 0x24 DUP2 ADD DUP5 SWAP1 MSTORE ADDRESS SWAP1 PUSH4 0xF658F32A SWAP1 PUSH1 0x44 ADD PUSH0 PUSH1 0x40 MLOAD DUP1 DUP4 SUB DUP2 PUSH0 DUP8 DUP1 EXTCODESIZE ISZERO DUP1 ISZERO PUSH2 0x8E6 JUMPI PUSH0 PUSH0 REVERT JUMPDEST POP GAS CALL SWAP3 POP POP POP DUP1 ISZERO PUSH2 0x8F7 JUMPI POP PUSH1 0x1 JUMPDEST PUSH2 0x98C JUMPI PUSH2 0x903 PUSH2 0x1212 JUMP JUMPDEST DUP1 PUSH4 0x8C379A0 SUB PUSH2 0x957 JUMPI POP PUSH2 0x917 PUSH2 0x1264 JUMP JUMPDEST DUP1 PUSH2 0x922 JUMPI POP PUSH2 0x959 JUMP JUMPDEST DUP4 PUSH1 0x7 PUSH0 DUP3 DUP3 SLOAD PUSH2 0x933 SWAP2 SWAP1 PUSH2 0x12E8 JUMP JUMPDEST SWAP1 SWAP2 SSTORE POP POP PUSH1 0x40 MLOAD PUSH4 0x1E764BC5 PUSH1 0xE3 SHL DUP2 MSTORE PUSH2 0x49A SWAP1 DUP7 SWAP1 DUP7 SWAP1 DUP5 SWAP1 PUSH1 0x4 ADD PUSH2 0x12FB JUMP JUMPDEST POP JUMPDEST DUP3 PUSH1 0x7 PUSH0 DUP3 DUP3 SLOAD PUSH2 0x96A SWAP2 SWAP1 PUSH2 0x12E8 JUMP JUMPDEST SWAP1 SWAP2 SSTORE POP POP PUSH1 0x40 MLOAD PUSH4 0x1E764BC5 PUSH1 0xE3 SHL DUP2 MSTORE PUSH2 0x49A SWAP1 DUP6 SWAP1 DUP6 SWAP1 PUSH1 0x4 ADD PUSH2 0x132A JUMP JUMPDEST DUP4 PUSH1 0x1 PUSH1 0x1 PUSH1 0xA0 SHL SUB AND PUSH32 0xCCBEA4088A3B7AE9CA2D15FAB9A9742A4075B4D7247768A1EECEA917565ABA00 DUP5 PUSH1 0x7 SLOAD PUSH1 0x40 MLOAD PUSH2 0x9D2 SWAP3 SWAP2 SWAP1 SWAP2 DUP3 MSTORE PUSH1 0x20 DUP3 ADD MSTORE PUSH1 0x40 ADD SWAP1 JUMP JUMPDEST PUSH1 0x40 MLOAD DUP1 SWAP2 SUB SWAP1 LOG2 POP POP PUSH2 0x9E6 PUSH1 0x1 PUSH1 0x6 SSTORE JUMP JUMPDEST POP POP JUMP JUMPDEST PUSH2 0x9F2 PUSH2 0xD7A JUMP JUMPDEST PUSH1 0x8 DUP1 SLOAD PUSH1 0xFF NOT AND DUP3 ISZERO ISZERO SWAP1 DUP2 OR SWAP1 SWAP2 SSTORE PUSH1 0x40 MLOAD SWAP1 DUP2 MSTORE PUSH32 0x1509137B40DF48E8EF9596F9DB16B632B15353D0E0688D9F23221953EB0328DD SWAP1 PUSH1 0x20 ADD PUSH1 0x40 MLOAD DUP1 SWAP2 SUB SWAP1 LOG1 POP JUMP JUMPDEST PUSH1 0x60 PUSH1 0x4 DUP1 SLOAD PUSH2 0x398 SWAP1 PUSH2 0x1192 JUMP JUMPDEST CALLER PUSH1 0x1 PUSH1 0x1 PUSH1 0xA0 SHL SUB PUSH32 0x0 AND EQ PUSH2 0xA93 JUMPI PUSH1 0x40 MLOAD PUSH4 0x5936416F PUSH1 0xE0 SHL DUP2 MSTORE CALLER PUSH1 0x4 DUP3 ADD MSTORE PUSH1 0x24 ADD PUSH2 0x49A JUMP JUMPDEST PUSH2 0x9E6 DUP3 DUP3 PUSH2 0xDF8 JUMP JUMPDEST PUSH0 CALLER PUSH2 0x426 DUP2 DUP6 DUP6 PUSH2 0xCF3 JUMP JUMPDEST PUSH2 0xAB2 PUSH2 0xD7A JUMP JUMPDEST PUSH1 0x1 PUSH1 0x1 PUSH1 0xA0 SHL SUB DUP3 AND PUSH2 0xAD9 JUMPI PUSH1 0x40 MLOAD PUSH4 0xD92E233D PUSH1 0xE0 SHL DUP2 MSTORE PUSH1 0x4 ADD PUSH1 0x40 MLOAD DUP1 SWAP2 SUB SWAP1 REVERT JUMPDEST PUSH1 0x1 PUSH1 0x1 PUSH1 0xA0 SHL SUB DUP4 AND PUSH2 0xB82 JUMPI PUSH0 DUP3 PUSH1 0x1 PUSH1 0x1 PUSH1 0xA0 SHL SUB AND DUP3 PUSH1 0x40 MLOAD PUSH0 PUSH1 0x40 MLOAD DUP1 DUP4 SUB DUP2 DUP6 DUP8 GAS CALL SWAP3 POP POP POP RETURNDATASIZE DUP1 PUSH0 DUP2 EQ PUSH2 0xB30 JUMPI PUSH1 0x40 MLOAD SWAP2 POP PUSH1 0x1F NOT PUSH1 0x3F RETURNDATASIZE ADD AND DUP3 ADD PUSH1 0x40 MSTORE RETURNDATASIZE DUP3 MSTORE RETURNDATASIZE PUSH0 PUSH1 0x20 DUP5 ADD RETURNDATACOPY PUSH2 0xB35 JUMP JUMPDEST PUSH1 0x60 SWAP2 POP JUMPDEST POP POP SWAP1 POP DUP1 PUSH2 0xB7C JUMPI PUSH1 0x40 MLOAD PUSH3 0x461BCD PUSH1 0xE5 SHL DUP2 MSTORE PUSH1 0x20 PUSH1 0x4 DUP3 ADD MSTORE PUSH1 0x13 PUSH1 0x24 DUP3 ADD MSTORE PUSH19 0x115512081D1C985B9CD9995C8819985A5B1959 PUSH1 0x6A SHL PUSH1 0x44 DUP3 ADD MSTORE PUSH1 0x64 ADD PUSH2 0x49A JUMP JUMPDEST POP POP POP POP JUMP JUMPDEST PUSH1 0x40 MLOAD PUSH4 0xA9059CBB PUSH1 0xE0 SHL DUP2 MSTORE PUSH1 0x1 PUSH1 0x1 PUSH1 0xA0 SHL SUB DUP4 DUP2 AND PUSH1 0x4 DUP4 ADD MSTORE PUSH1 0x24 DUP3 ADD DUP4 SWAP1 MSTORE DUP5 AND SWAP1 PUSH4 0xA9059CBB SWAP1 PUSH1 0x44 ADD PUSH1 0x20 PUSH1 0x40 MLOAD DUP1 DUP4 SUB DUP2 PUSH0 DUP8 GAS CALL ISZERO DUP1 ISZERO PUSH2 0xBCE JUMPI RETURNDATASIZE PUSH0 PUSH0 RETURNDATACOPY RETURNDATASIZE PUSH0 REVERT JUMPDEST POP POP POP POP PUSH1 0x40 MLOAD RETURNDATASIZE PUSH1 0x1F NOT PUSH1 0x1F DUP3 ADD AND DUP3 ADD DUP1 PUSH1 0x40 MSTORE POP DUP2 ADD SWAP1 PUSH2 0xB7C SWAP2 SWAP1 PUSH2 0x138C JUMP JUMPDEST POP POP POP JUMP JUMPDEST PUSH2 0xBFF PUSH2 0xD7A JUMP JUMPDEST PUSH1 0x1 PUSH1 0x1 PUSH1 0xA0 SHL SUB DUP2 AND PUSH2 0xC28 JUMPI PUSH1 0x40 MLOAD PUSH4 0x1E4FBDF7 PUSH1 0xE0 SHL DUP2 MSTORE PUSH0 PUSH1 0x4 DUP3 ADD MSTORE PUSH1 0x24 ADD PUSH2 0x49A JUMP JUMPDEST PUSH2 0x648 DUP2 PUSH2 0xDA7 JUMP JUMPDEST CALLER ADDRESS EQ PUSH2 0xC79 JUMPI PUSH1 0x40 MLOAD PUSH3 0x461BCD PUSH1 0xE5 SHL DUP2 MSTORE PUSH1 0x20 PUSH1 0x4 DUP3 ADD MSTORE PUSH1 0x16 PUSH1 0x24 DUP3 ADD MSTORE PUSH22 0x13DB9B1E481CD95B198B58D85B1B08185B1B1BDDD959 PUSH1 0x52 SHL PUSH1 0x44 DUP3 ADD MSTORE PUSH1 0x64 ADD PUSH2 0x49A JUMP JUMPDEST PUSH2 0x9E6 DUP3 DUP3 PUSH2 0xE2C JUMP JUMPDEST PUSH2 0xBF2 DUP4 DUP4 DUP4 PUSH1 0x1 PUSH2 0xE60 JUMP JUMPDEST PUSH1 0x1 PUSH1 0x1 PUSH1 0xA0 SHL SUB DUP4 DUP2 AND PUSH0 SWAP1 DUP2 MSTORE PUSH1 0x1 PUSH1 0x20 SWAP1 DUP2 MSTORE PUSH1 0x40 DUP1 DUP4 KECCAK256 SWAP4 DUP7 AND DUP4 MSTORE SWAP3 SWAP1 MSTORE KECCAK256 SLOAD PUSH0 NOT DUP2 LT ISZERO PUSH2 0xB7C JUMPI DUP2 DUP2 LT ISZERO PUSH2 0xCE5 JUMPI DUP3 DUP2 DUP4 PUSH1 0x40 MLOAD PUSH4 0x7DC7A0D9 PUSH1 0xE1 SHL DUP2 MSTORE PUSH1 0x4 ADD PUSH2 0x49A SWAP4 SWAP3 SWAP2 SWAP1 PUSH2 0x11CA JUMP JUMPDEST PUSH2 0xB7C DUP5 DUP5 DUP5 DUP5 SUB PUSH0 PUSH2 0xE60 JUMP JUMPDEST PUSH1 0x1 PUSH1 0x1 PUSH1 0xA0 SHL SUB DUP4 AND PUSH2 0xD1C JUMPI PUSH1 0x40 MLOAD PUSH4 0x4B637E8F PUSH1 0xE1 SHL DUP2 MSTORE PUSH0 PUSH1 0x4 DUP3 ADD MSTORE PUSH1 0x24 ADD PUSH2 0x49A JUMP JUMPDEST PUSH1 0x1 PUSH1 0x1 PUSH1 0xA0 SHL SUB DUP3 AND PUSH2 0xD45 JUMPI PUSH1 0x40 MLOAD PUSH4 0xEC442F05 PUSH1 0xE0 SHL DUP2 MSTORE PUSH0 PUSH1 0x4 DUP3 ADD MSTORE PUSH1 0x24 ADD PUSH2 0x49A JUMP JUMPDEST PUSH2 0xBF2 DUP4 DUP4 DUP4 PUSH2 0xF32 JUMP JUMPDEST PUSH1 0x2 PUSH1 0x6 SLOAD SUB PUSH2 0xD73 JUMPI PUSH1 0x40 MLOAD PUSH4 0x3EE5AEB5 PUSH1 0xE0 SHL DUP2 MSTORE PUSH1 0x4 ADD PUSH1 0x40 MLOAD DUP1 SWAP2 SUB SWAP1 REVERT JUMPDEST PUSH1 0x2 PUSH1 0x6 SSTORE JUMP JUMPDEST PUSH1 0x5 SLOAD PUSH1 0x1 PUSH1 0x1 PUSH1 0xA0 SHL SUB AND CALLER EQ PUSH2 0x6B2 JUMPI PUSH1 0x40 MLOAD PUSH4 0x118CDAA7 PUSH1 0xE0 SHL DUP2 MSTORE CALLER PUSH1 0x4 DUP3 ADD MSTORE PUSH1 0x24 ADD PUSH2 0x49A JUMP JUMPDEST PUSH1 0x5 DUP1 SLOAD PUSH1 0x1 PUSH1 0x1 PUSH1 0xA0 SHL SUB DUP4 DUP2 AND PUSH1 0x1 PUSH1 0x1 PUSH1 0xA0 SHL SUB NOT DUP4 AND DUP2 OR SWAP1 SWAP4 SSTORE PUSH1 0x40 MLOAD SWAP2 AND SWAP2 SWAP1 DUP3 SWAP1 PUSH32 0x8BE0079C531659141344CD1FD0A4F28419497F9722A3DAAFE3B4186F6B6457E0 SWAP1 PUSH0 SWAP1 LOG3 POP POP JUMP JUMPDEST PUSH1 0x1 PUSH1 0x1 PUSH1 0xA0 SHL SUB DUP3 AND PUSH2 0xE21 JUMPI PUSH1 0x40 MLOAD PUSH4 0xEC442F05 PUSH1 0xE0 SHL DUP2 MSTORE PUSH0 PUSH1 0x4 DUP3 ADD MSTORE PUSH1 0x24 ADD PUSH2 0x49A JUMP JUMPDEST PUSH2 0x9E6 PUSH0 DUP4 DUP4 PUSH2 0xF32 JUMP JUMPDEST PUSH1 0x1 PUSH1 0x1 PUSH1 0xA0 SHL SUB DUP3 AND PUSH2 0xE55 JUMPI PUSH1 0x40 MLOAD PUSH4 0x4B637E8F PUSH1 0xE1 SHL DUP2 MSTORE PUSH0 PUSH1 0x4 DUP3 ADD MSTORE PUSH1 0x24 ADD PUSH2 0x49A JUMP JUMPDEST PUSH2 0x9E6 DUP3 PUSH0 DUP4 PUSH2 0xF32 JUMP JUMPDEST PUSH1 0x1 PUSH1 0x1 PUSH1 0xA0 SHL SUB DUP5 AND PUSH2 0xE89 JUMPI PUSH1 0x40 MLOAD PUSH4 0xE602DF05 PUSH1 0xE0 SHL DUP2 MSTORE PUSH0 PUSH1 0x4 DUP3 ADD MSTORE PUSH1 0x24 ADD PUSH2 0x49A JUMP JUMPDEST PUSH1 0x1 PUSH1 0x1 PUSH1 0xA0 SHL SUB DUP4 AND PUSH2 0xEB2 JUMPI PUSH1 0x40 MLOAD PUSH4 0x4A1406B1 PUSH1 0xE1 SHL DUP2 MSTORE PUSH0 PUSH1 0x4 DUP3 ADD MSTORE PUSH1 0x24 ADD PUSH2 0x49A JUMP JUMPDEST PUSH1 0x1 PUSH1 0x1 PUSH1 0xA0 SHL SUB DUP1 DUP6 AND PUSH0 SWAP1 DUP2 MSTORE PUSH1 0x1 PUSH1 0x20 SWAP1 DUP2 MSTORE PUSH1 0x40 DUP1 DUP4 KECCAK256 SWAP4 DUP8 AND DUP4 MSTORE SWAP3 SWAP1 MSTORE KECCAK256 DUP3 SWAP1 SSTORE DUP1 ISZERO PUSH2 0xB7C JUMPI DUP3 PUSH1 0x1 PUSH1 0x1 PUSH1 0xA0 SHL SUB AND DUP5 PUSH1 0x1 PUSH1 0x1 PUSH1 0xA0 SHL SUB AND PUSH32 0x8C5BE1E5EBEC7D5BD14F71427D1E84F3DD0314C0F7B2291E5B200AC8C7C3B925 DUP5 PUSH1 0x40 MLOAD PUSH2 0xF24 SWAP2 DUP2 MSTORE PUSH1 0x20 ADD SWAP1 JUMP JUMPDEST PUSH1 0x40 MLOAD DUP1 SWAP2 SUB SWAP1 LOG3 POP POP POP POP JUMP JUMPDEST PUSH1 0x1 PUSH1 0x1 PUSH1 0xA0 SHL SUB DUP4 AND PUSH2 0xF5C JUMPI DUP1 PUSH1 0x2 PUSH0 DUP3 DUP3 SLOAD PUSH2 0xF51 SWAP2 SWAP1 PUSH2 0x11FF JUMP JUMPDEST SWAP1 SWAP2 SSTORE POP PUSH2 0xFB9 SWAP1 POP JUMP JUMPDEST PUSH1 0x1 PUSH1 0x1 PUSH1 0xA0 SHL SUB DUP4 AND PUSH0 SWAP1 DUP2 MSTORE PUSH1 0x20 DUP2 SWAP1 MSTORE PUSH1 0x40 SWAP1 KECCAK256 SLOAD DUP2 DUP2 LT ISZERO PUSH2 0xF9B JUMPI DUP4 DUP2 DUP4 PUSH1 0x40 MLOAD PUSH4 0x391434E3 PUSH1 0xE2 SHL DUP2 MSTORE PUSH1 0x4 ADD PUSH2 0x49A SWAP4 SWAP3 SWAP2 SWAP1 PUSH2 0x11CA JUMP JUMPDEST PUSH1 0x1 PUSH1 0x1 PUSH1 0xA0 SHL SUB DUP5 AND PUSH0 SWAP1 DUP2 MSTORE PUSH1 0x20 DUP2 SWAP1 MSTORE PUSH1 0x40 SWAP1 KECCAK256 SWAP1 DUP3 SWAP1 SUB SWAP1 SSTORE JUMPDEST PUSH1 0x1 PUSH1 0x1 PUSH1 0xA0 SHL SUB DUP3 AND PUSH2 0xFD5 JUMPI PUSH1 0x2 DUP1 SLOAD DUP3 SWAP1 SUB SWAP1 SSTORE PUSH2 0xFF3 JUMP JUMPDEST PUSH1 0x1 PUSH1 0x1 PUSH1 0xA0 SHL SUB DUP3 AND PUSH0 SWAP1 DUP2 MSTORE PUSH1 0x20 DUP2 SWAP1 MSTORE PUSH1 0x40 SWAP1 KECCAK256 DUP1 SLOAD DUP3 ADD SWAP1 SSTORE JUMPDEST DUP2 PUSH1 0x1 PUSH1 0x1 PUSH1 0xA0 SHL SUB AND DUP4 PUSH1 0x1 PUSH1 0x1 PUSH1 0xA0 SHL SUB AND PUSH32 0xDDF252AD1BE2C89B69C2B068FC378DAA952BA7F163C4A11628F55A4DF523B3EF DUP4 PUSH1 0x40 MLOAD PUSH2 0x1038 SWAP2 DUP2 MSTORE PUSH1 0x20 ADD SWAP1 JUMP JUMPDEST PUSH1 0x40 MLOAD DUP1 SWAP2 SUB SWAP1 LOG3 POP POP POP JUMP JUMPDEST PUSH0 DUP2 MLOAD DUP1 DUP5 MSTORE DUP1 PUSH1 0x20 DUP5 ADD PUSH1 0x20 DUP7 ADD MCOPY PUSH0 PUSH1 0x20 DUP3 DUP7 ADD ADD MSTORE PUSH1 0x20 PUSH1 0x1F NOT PUSH1 0x1F DUP4 ADD AND DUP6 ADD ADD SWAP2 POP POP SWAP3 SWAP2 POP POP JUMP JUMPDEST PUSH1 0x20 DUP2 MSTORE PUSH0 PUSH2 0x1085 PUSH1 0x20 DUP4 ADD DUP5 PUSH2 0x1045 JUMP JUMPDEST SWAP4 SWAP3 POP POP POP JUMP JUMPDEST DUP1 CALLDATALOAD PUSH1 0x1 PUSH1 0x1 PUSH1 0xA0 SHL SUB DUP2 AND DUP2 EQ PUSH2 0x10A2 JUMPI PUSH0 PUSH0 REVERT JUMPDEST SWAP2 SWAP1 POP JUMP JUMPDEST PUSH0 PUSH0 PUSH1 0x40 DUP4 DUP6 SUB SLT ISZERO PUSH2 0x10B8 JUMPI PUSH0 PUSH0 REVERT JUMPDEST PUSH2 0x10C1 DUP4 PUSH2 0x108C JUMP JUMPDEST SWAP5 PUSH1 0x20 SWAP4 SWAP1 SWAP4 ADD CALLDATALOAD SWAP4 POP POP POP JUMP JUMPDEST PUSH0 PUSH0 PUSH0 PUSH1 0x60 DUP5 DUP7 SUB SLT ISZERO PUSH2 0x10E1 JUMPI PUSH0 PUSH0 REVERT JUMPDEST PUSH2 0x10EA DUP5 PUSH2 0x108C JUMP JUMPDEST SWAP3 POP PUSH2 0x10F8 PUSH1 0x20 DUP6 ADD PUSH2 0x108C JUMP JUMPDEST SWAP3 SWAP6 SWAP3 SWAP5 POP POP POP PUSH1 0x40 SWAP2 SWAP1 SWAP2 ADD CALLDATALOAD SWAP1 JUMP JUMPDEST PUSH0 PUSH1 0x20 DUP3 DUP5 SUB SLT ISZERO PUSH2 0x1119 JUMPI PUSH0 PUSH0 REVERT JUMPDEST POP CALLDATALOAD SWAP2 SWAP1 POP JUMP JUMPDEST PUSH0 PUSH1 0x20 DUP3 DUP5 SUB SLT ISZERO PUSH2 0x1130 JUMPI PUSH0 PUSH0 REVERT JUMPDEST PUSH2 0x1085 DUP3 PUSH2 0x108C JUMP JUMPDEST DUP1 ISZERO ISZERO DUP2 EQ PUSH2 0x648 JUMPI PUSH0 PUSH0 REVERT JUMPDEST PUSH0 PUSH1 0x20 DUP3 DUP5 SUB SLT ISZERO PUSH2 0x1156 JUMPI PUSH0 PUSH0 REVERT JUMPDEST DUP2 CALLDATALOAD PUSH2 0x1085 DUP2 PUSH2 0x1139 JUMP JUMPDEST PUSH0 PUSH0 PUSH1 0x40 DUP4 DUP6 SUB SLT ISZERO PUSH2 0x1172 JUMPI PUSH0 PUSH0 REVERT JUMPDEST PUSH2 0x117B DUP4 PUSH2 0x108C JUMP JUMPDEST SWAP2 POP PUSH2 0x1189 PUSH1 0x20 DUP5 ADD PUSH2 0x108C JUMP JUMPDEST SWAP1 POP SWAP3 POP SWAP3 SWAP1 POP JUMP JUMPDEST PUSH1 0x1 DUP2 DUP2 SHR SWAP1 DUP3 AND DUP1 PUSH2 0x11A6 JUMPI PUSH1 0x7F DUP3 AND SWAP2 POP JUMPDEST PUSH1 0x20 DUP3 LT DUP2 SUB PUSH2 0x11C4 JUMPI PUSH4 0x4E487B71 PUSH1 0xE0 SHL PUSH0 MSTORE PUSH1 0x22 PUSH1 0x4 MSTORE PUSH1 0x24 PUSH0 REVERT JUMPDEST POP SWAP2 SWAP1 POP JUMP JUMPDEST PUSH1 0x1 PUSH1 0x1 PUSH1 0xA0 SHL SUB SWAP4 SWAP1 SWAP4 AND DUP4 MSTORE PUSH1 0x20 DUP4 ADD SWAP2 SWAP1 SWAP2 MSTORE PUSH1 0x40 DUP3 ADD MSTORE PUSH1 0x60 ADD SWAP1 JUMP JUMPDEST PUSH4 0x4E487B71 PUSH1 0xE0 SHL PUSH0 MSTORE PUSH1 0x11 PUSH1 0x4 MSTORE PUSH1 0x24 PUSH0 REVERT JUMPDEST DUP1 DUP3 ADD DUP1 DUP3 GT ISZERO PUSH2 0x42C JUMPI PUSH2 0x42C PUSH2 0x11EB JUMP JUMPDEST PUSH0 PUSH1 0x3 RETURNDATASIZE GT ISZERO PUSH2 0x1228 JUMPI PUSH1 0x4 PUSH0 PUSH0 RETURNDATACOPY POP PUSH0 MLOAD PUSH1 0xE0 SHR JUMPDEST SWAP1 JUMP JUMPDEST PUSH1 0x1F DUP3 ADD PUSH1 0x1F NOT AND DUP2 ADD PUSH8 0xFFFFFFFFFFFFFFFF DUP2 GT DUP3 DUP3 LT OR ISZERO PUSH2 0x125D JUMPI PUSH4 0x4E487B71 PUSH1 0xE0 SHL PUSH0 MSTORE PUSH1 0x41 PUSH1 0x4 MSTORE PUSH1 0x24 PUSH0 REVERT JUMPDEST PUSH1 0x40 MSTORE POP POP JUMP JUMPDEST PUSH0 PUSH1 0x44 RETURNDATASIZE LT ISZERO PUSH2 0x1271 JUMPI SWAP1 JUMP JUMPDEST PUSH1 0x40 MLOAD RETURNDATASIZE PUSH1 0x3 NOT ADD PUSH1 0x4 DUP3 RETURNDATACOPY DUP1 MLOAD RETURNDATASIZE PUSH1 0x24 DUP3 ADD GT PUSH8 0xFFFFFFFFFFFFFFFF DUP3 GT OR ISZERO PUSH2 0x129B JUMPI POP POP SWAP1 JUMP JUMPDEST DUP1 DUP3 ADD DUP1 MLOAD PUSH8 0xFFFFFFFFFFFFFFFF DUP2 GT ISZERO PUSH2 0x12B7 JUMPI POP POP POP POP SWAP1 JUMP JUMPDEST RETURNDATASIZE DUP5 ADD PUSH1 0x3 NOT ADD DUP3 DUP3 ADD PUSH1 0x20 ADD GT ISZERO PUSH2 0x12D1 JUMPI POP POP POP POP SWAP1 JUMP JUMPDEST PUSH2 0x12E0 PUSH1 0x20 DUP3 DUP6 ADD ADD DUP6 PUSH2 0x122B JUMP JUMPDEST POP SWAP4 SWAP3 POP POP POP JUMP JUMPDEST DUP2 DUP2 SUB DUP2 DUP2 GT ISZERO PUSH2 0x42C JUMPI PUSH2 0x42C PUSH2 0x11EB JUMP JUMPDEST PUSH1 0x1 DUP1 PUSH1 0xA0 SHL SUB DUP5 AND DUP2 MSTORE DUP3 PUSH1 0x20 DUP3 ADD MSTORE PUSH1 0x60 PUSH1 0x40 DUP3 ADD MSTORE PUSH0 PUSH2 0x1321 PUSH1 0x60 DUP4 ADD DUP5 PUSH2 0x1045 JUMP JUMPDEST SWAP6 SWAP5 POP POP POP POP POP JUMP JUMPDEST PUSH1 0x1 PUSH1 0x1 PUSH1 0xA0 SHL SUB SWAP3 SWAP1 SWAP3 AND DUP3 MSTORE PUSH1 0x20 DUP3 ADD MSTORE PUSH1 0x60 PUSH1 0x40 DUP3 ADD DUP2 SWAP1 MSTORE PUSH1 0x12 SWAP1 DUP3 ADD MSTORE PUSH18 0x2AB735B737BBB710313AB9371032B93937B9 PUSH1 0x71 SHL PUSH1 0x80 DUP3 ADD MSTORE PUSH1 0xA0 ADD SWAP1 JUMP JUMPDEST PUSH0 DUP3 PUSH2 0x1387 JUMPI PUSH4 0x4E487B71 PUSH1 0xE0 SHL PUSH0 MSTORE PUSH1 0x12 PUSH1 0x4 MSTORE PUSH1 0x24 PUSH0 REVERT JUMPDEST POP DIV SWAP1 JUMP JUMPDEST PUSH0 PUSH1 0x20 DUP3 DUP5 SUB SLT ISZERO PUSH2 0x139C JUMPI PUSH0 PUSH0 REVERT JUMPDEST DUP2 MLOAD PUSH2 0x1085 DUP2 PUSH2 0x1139 JUMP INVALID LOG2 PUSH5 0x6970667358 0x22 SLT KECCAK256 0xC9 0xC7 0xAE SWAP7 0x29 PUSH21 0x10FEF143E8BE3C9DB06B71D4B72F344F43926A1B79 PUSH0 BLOBBASEFEE SWAPN 0x5B 0xE2 PUSH5 0x736F6C6343 STOP ADDMOD 0x1E STOP CALLER "
				},
				"gasEstimates": {
					"creation": {
						"codeDepositCost": "1017000",
						"executionCost": "infinite",
						"totalCost": "infinite"
					},
					"external": {
						"_performBurn(address,uint256)": "infinite",
						"allowance(address,address)": "infinite",
						"approve(address,uint256)": "24757",
						"balanceOf(address)": "2626",
						"burn(uint256)": "infinite",
						"burnEnabled()": "2354",
						"burnFrom(address,uint256)": "infinite",
						"decimals()": "infinite",
						"emergencyRecover(address,address,uint256)": "infinite",
						"factory()": "infinite",
						"factoryMint(address,uint256)": "infinite",
						"gameId()": "infinite",
						"mint(address)": "499",
						"name()": "infinite",
						"owner()": "2364",
						"renounceOwnership()": "infinite",
						"setBurnEnabled(bool)": "27767",
						"symbol()": "infinite",
						"totalBurned()": "2360",
						"totalSupply()": "2348",
						"transfer(address,uint256)": "51326",
						"transferFrom(address,address,uint256)": "infinite",
						"transferOwnership(address)": "28443"
					}
				},
				"methodIdentifiers": {
					"_performBurn(address,uint256)": "f658f32a",
					"allowance(address,address)": "dd62ed3e",
					"approve(address,uint256)": "095ea7b3",
					"balanceOf(address)": "70a08231",
					"burn(uint256)": "42966c68",
					"burnEnabled()": "5dc96d16",
					"burnFrom(address,uint256)": "79cc6790",
					"decimals()": "313ce567",
					"emergencyRecover(address,address,uint256)": "ad1329d1",
					"factory()": "c45a0155",
					"factoryMint(address,uint256)": "a4f0ecd3",
					"gameId()": "d7c81b55",
					"mint(address)": "6a627842",
					"name()": "06fdde03",
					"owner()": "8da5cb5b",
					"renounceOwnership()": "715018a6",
					"setBurnEnabled(bool)": "7b2c835f",
					"symbol()": "95d89b41",
					"totalBurned()": "d89135cd",
					"totalSupply()": "18160ddd",
					"transfer(address,uint256)": "a9059cbb",
					"transferFrom(address,address,uint256)": "23b872dd",
					"transferOwnership(address)": "f2fde38b"
				}
			},
			"storageLayout": {
				"storage": [
					{
						"astId": 307,
						"contract": "GameToken.sol:GameToken",
						"label": "_balances",
						"offset": 0,
						"slot": "0",
						"type": "t_mapping(t_address,t_uint256)"
					},
					{
						"astId": 313,
						"contract": "GameToken.sol:GameToken",
						"label": "_allowances",
						"offset": 0,
						"slot": "1",
						"type": "t_mapping(t_address,t_mapping(t_address,t_uint256))"
					},
					{
						"astId": 315,
						"contract": "GameToken.sol:GameToken",
						"label": "_totalSupply",
						"offset": 0,
						"slot": "2",
						"type": "t_uint256"
					},
					{
						"astId": 317,
						"contract": "GameToken.sol:GameToken",
						"label": "_name",
						"offset": 0,
						"slot": "3",
						"type": "t_string_storage"
					},
					{
						"astId": 319,
						"contract": "GameToken.sol:GameToken",
						"label": "_symbol",
						"offset": 0,
						"slot": "4",
						"type": "t_string_storage"
					},
					{
						"astId": 8,
						"contract": "GameToken.sol:GameToken",
						"label": "_owner",
						"offset": 0,
						"slot": "5",
						"type": "t_address"
					},
					{
						"astId": 944,
						"contract": "GameToken.sol:GameToken",
						"label": "_status",
						"offset": 0,
						"slot": "6",
						"type": "t_uint256"
					},
					{
						"astId": 1023,
						"contract": "GameToken.sol:GameToken",
						"label": "totalBurned",
						"offset": 0,
						"slot": "7",
						"type": "t_uint256"
					},
					{
						"astId": 1026,
						"contract": "GameToken.sol:GameToken",
						"label": "burnEnabled",
						"offset": 0,
						"slot": "8",
						"type": "t_bool"
					},
					{
						"astId": 1028,
						"contract": "GameToken.sol:GameToken",
						"label": "_initialMintComplete",
						"offset": 1,
						"slot": "8",
						"type": "t_bool"
					}
				],
				"types": {
					"t_address": {
						"encoding": "inplace",
						"label": "address",
						"numberOfBytes": "20"
					},
					"t_bool": {
						"encoding": "inplace",
						"label": "bool",
						"numberOfBytes": "1"
					},
					"t_mapping(t_address,t_mapping(t_address,t_uint256))": {
						"encoding": "mapping",
						"key": "t_address",
						"label": "mapping(address => mapping(address => uint256))",
						"numberOfBytes": "32",
						"value": "t_mapping(t_address,t_uint256)"
					},
					"t_mapping(t_address,t_uint256)": {
						"encoding": "mapping",
						"key": "t_address",
						"label": "mapping(address => uint256)",
						"numberOfBytes": "32",
						"value": "t_uint256"
					},
					"t_string_storage": {
						"encoding": "bytes",
						"label": "string",
						"numberOfBytes": "32"
					},
					"t_uint256": {
						"encoding": "inplace",
						"label": "uint256",
						"numberOfBytes": "32"
					}
				}
			},
			"userdoc": {
				"kind": "user",
				"methods": {},
				"version": 1
			}
		}
	}
}