{
  "_format": "hh-sol-artifact-1",
  "contractName": "GameToken",
  "sourceName": "contracts/GameToken.sol",
  "abi": [
    {
      "inputs": [
        {
          "internalType": "string",
          "name": "name",
          "type": "string"
        },
        {
          "internalType": "string",
          "name": "symbol",
          "type": "string"
        },
        {
          "internalType": "uint8",
          "name": "decimals_",
          "type": "uint8"
        },
        {
          "internalType": "uint256",
          "name": "initialSupply",
          "type": "uint256"
        },
        {
          "internalType": "address",
          "name": "owner",
          "type": "address"
        },
        {
          "internalType": "address",
          "name": "factory_",
          "type": "address"
        },
        {
          "internalType": "uint256",
          "name": "gameId_",
          "type": "uint256"
        }
      ],
      "stateMutability": "nonpayable",
      "type": "constructor"
    },
    {
      "inputs": [
        {
          "internalType": "string",
          "name": "reason",
          "type": "string"
        }
      ],
      "name": "BurnDisabled",
      "type": "error"
    },
    {
      "inputs": [
        {
          "internalType": "address",
          "name": "from",
          "type": "address"
        },
        {
          "internalType": "uint256",
          "name": "amount",
          "type": "uint256"
        },
        {
          "internalType": "string",
          "name": "reason",
          "type": "string"
        }
      ],
      "name": "BurningOperationFailed",
      "type": "error"
    },
    {
      "inputs": [],
      "name": "ContractPaused",
      "type": "error"
    },
    {
      "inputs": [
        {
          "internalType": "address",
          "name": "spender",
          "type": "address"
        },
        {
          "internalType": "uint256",
          "name": "allowance",
          "type": "uint256"
        },
        {
          "internalType": "uint256",
          "name": "needed",
          "type": "uint256"
        }
      ],
      "name": "ERC20InsufficientAllowance",
      "type": "error"
    },
    {
      "inputs": [
        {
          "internalType": "address",
          "name": "sender",
          "type": "address"
        },
        {
          "internalType": "uint256",
          "name": "balance",
          "type": "uint256"
        },
        {
          "internalType": "uint256",
          "name": "needed",
          "type": "uint256"
        }
      ],
      "name": "ERC20InsufficientBalance",
      "type": "error"
    },
    {
      "inputs": [
        {
          "internalType": "address",
          "name": "approver",
          "type": "address"
        }
      ],
      "name": "ERC20InvalidApprover",
      "type": "error"
    },
    {
      "inputs": [
        {
          "internalType": "address",
          "name": "receiver",
          "type": "address"
        }
      ],
      "name": "ERC20InvalidReceiver",
      "type": "error"
    },
    {
      "inputs": [
        {
          "internalType": "address",
          "name": "sender",
          "type": "address"
        }
      ],
      "name": "ERC20InvalidSender",
      "type": "error"
    },
    {
      "inputs": [
        {
          "internalType": "address",
          "name": "spender",
          "type": "address"
        }
      ],
      "name": "ERC20InvalidSpender",
      "type": "error"
    },
    {
      "inputs": [
        {
          "internalType": "uint256",
          "name": "requested",
          "type": "uint256"
        },
        {
          "internalType": "uint256",
          "name": "maxAllowed",
          "type": "uint256"
        }
      ],
      "name": "ExcessiveBurnRequest",
      "type": "error"
    },
    {
      "inputs": [
        {
          "internalType": "uint256",
          "name": "gameId",
          "type": "uint256"
        }
      ],
      "name": "GameTokenInactive",
      "type": "error"
    },
    {
      "inputs": [
        {
          "internalType": "address",
          "name": "account",
          "type": "address"
        },
        {
          "internalType": "uint256",
          "name": "required",
          "type": "uint256"
        },
        {
          "internalType": "uint256",
          "name": "available",
          "type": "uint256"
        }
      ],
      "name": "InsufficientBalance",
      "type": "error"
    },
    {
      "inputs": [
        {
          "internalType": "address",
          "name": "provided",
          "type": "address"
        },
        {
          "internalType": "string",
          "name": "reason",
          "type": "string"
        }
      ],
      "name": "InvalidAddress",
      "type": "error"
    },
    {
      "inputs": [
        {
          "internalType": "uint256",
          "name": "provided",
          "type": "uint256"
        },
        {
          "internalType": "uint256",
          "name": "min",
          "type": "uint256"
        },
        {
          "internalType": "uint256",
          "name": "max",
          "type": "uint256"
        }
      ],
      "name": "InvalidAmount",
      "type": "error"
    },
    {
      "inputs": [
        {
          "internalType": "uint256",
          "name": "amount",
          "type": "uint256"
        },
        {
          "internalType": "string",
          "name": "reason",
          "type": "string"
        }
      ],
      "name": "InvalidBurnAmount",
      "type": "error"
    },
    {
      "inputs": [
        {
          "internalType": "string",
          "name": "reason",
          "type": "string"
        }
      ],
      "name": "InvalidContractState",
      "type": "error"
    },
    {
      "inputs": [
        {
          "internalType": "string",
          "name": "operation",
          "type": "string"
        },
        {
          "internalType": "string",
          "name": "reason",
          "type": "string"
        }
      ],
      "name": "InvalidGameOperation",
      "type": "error"
    },
    {
      "inputs": [
        {
          "internalType": "address",
          "name": "target",
          "type": "address"
        }
      ],
      "name": "InvalidRecoveryTarget",
      "type": "error"
    },
    {
      "inputs": [
        {
          "internalType": "string",
          "name": "operation",
          "type": "string"
        }
      ],
      "name": "MathOverflow",
      "type": "error"
    },
    {
      "inputs": [
        {
          "internalType": "string",
          "name": "operation",
          "type": "string"
        }
      ],
      "name": "MathUnderflow",
      "type": "error"
    },
    {
      "inputs": [
        {
          "internalType": "string",
          "name": "reason",
          "type": "string"
        }
      ],
      "name": "MintingDisabledAfterInit",
      "type": "error"
    },
    {
      "inputs": [
        {
          "internalType": "address",
          "name": "owner",
          "type": "address"
        }
      ],
      "name": "OwnableInvalidOwner",
      "type": "error"
    },
    {
      "inputs": [
        {
          "internalType": "address",
          "name": "account",
          "type": "address"
        }
      ],
      "name": "OwnableUnauthorizedAccount",
      "type": "error"
    },
    {
      "inputs": [
        {
          "internalType": "address",
          "name": "token",
          "type": "address"
        },
        {
          "internalType": "string",
          "name": "reason",
          "type": "string"
        }
      ],
      "name": "RecoveryFailed",
      "type": "error"
    },
    {
      "inputs": [
        {
          "internalType": "string",
          "name": "reason",
          "type": "string"
        }
      ],
      "name": "RecoveryNotAllowed",
      "type": "error"
    },
    {
      "inputs": [],
      "name": "ReentrancyDetected",
      "type": "error"
    },
    {
      "inputs": [],
      "name": "ReentrancyGuardReentrantCall",
      "type": "error"
    },
    {
      "inputs": [
        {
          "internalType": "address",
          "name": "from",
          "type": "address"
        },
        {
          "internalType": "address",
          "name": "to",
          "type": "address"
        },
        {
          "internalType": "uint256",
          "name": "amount",
          "type": "uint256"
        }
      ],
      "name": "TransferOperationFailed",
      "type": "error"
    },
    {
      "inputs": [
        {
          "internalType": "address",
          "name": "caller",
          "type": "address"
        }
      ],
      "name": "UnauthorizedBurner",
      "type": "error"
    },
    {
      "inputs": [
        {
          "internalType": "address",
          "name": "caller",
          "type": "address"
        },
        {
          "internalType": "address",
          "name": "expectedFactory",
          "type": "address"
        }
      ],
      "name": "UnauthorizedFactory",
      "type": "error"
    },
    {
      "inputs": [
        {
          "internalType": "address",
          "name": "caller",
          "type": "address"
        },
        {
          "internalType": "address",
          "name": "expectedOwner",
          "type": "address"
        }
      ],
      "name": "UnauthorizedOwner",
      "type": "error"
    },
    {
      "inputs": [],
      "name": "ZeroAddress",
      "type": "error"
    },
    {
      "inputs": [],
      "name": "ZeroAmount",
      "type": "error"
    },
    {
      "anonymous": false,
      "inputs": [
        {
          "indexed": true,
          "internalType": "address",
          "name": "owner",
          "type": "address"
        },
        {
          "indexed": true,
          "internalType": "address",
          "name": "spender",
          "type": "address"
        },
        {
          "indexed": false,
          "internalType": "uint256",
          "name": "value",
          "type": "uint256"
        }
      ],
      "name": "Approval",
      "type": "event"
    },
    {
      "anonymous": false,
      "inputs": [
        {
          "indexed": false,
          "internalType": "bool",
          "name": "enabled",
          "type": "bool"
        }
      ],
      "name": "BurnStatusChanged",
      "type": "event"
    },
    {
      "anonymous": false,
      "inputs": [
        {
          "indexed": true,
          "internalType": "address",
          "name": "previousOwner",
          "type": "address"
        },
        {
          "indexed": true,
          "internalType": "address",
          "name": "newOwner",
          "type": "address"
        }
      ],
      "name": "OwnershipTransferred",
      "type": "event"
    },
    {
      "anonymous": false,
      "inputs": [
        {
          "indexed": true,
          "internalType": "address",
          "name": "user",
          "type": "address"
        },
        {
          "indexed": false,
          "internalType": "uint256",
          "name": "amount",
          "type": "uint256"
        },
        {
          "indexed": false,
          "internalType": "uint256",
          "name": "totalBurned",
          "type": "uint256"
        }
      ],
      "name": "TokensBurned",
      "type": "event"
    },
    {
      "anonymous": false,
      "inputs": [
        {
          "indexed": true,
          "internalType": "address",
          "name": "from",
          "type": "address"
        },
        {
          "indexed": true,
          "internalType": "address",
          "name": "to",
          "type": "address"
        },
        {
          "indexed": false,
          "internalType": "uint256",
          "name": "value",
          "type": "uint256"
        }
      ],
      "name": "Transfer",
      "type": "event"
    },
    {
      "inputs": [
        {
          "internalType": "address",
          "name": "from",
          "type": "address"
        },
        {
          "internalType": "uint256",
          "name": "amount",
          "type": "uint256"
        }
      ],
      "name": "_performBurn",
      "outputs": [],
      "stateMutability": "nonpayable",
      "type": "function"
    },
    {
      "inputs": [
        {
          "internalType": "address",
          "name": "owner",
          "type": "address"
        },
        {
          "internalType": "address",
          "name": "spender",
          "type": "address"
        }
      ],
      "name": "allowance",
      "outputs": [
        {
          "internalType": "uint256",
          "name": "",
          "type": "uint256"
        }
      ],
      "stateMutability": "view",
      "type": "function"
    },
    {
      "inputs": [
        {
          "internalType": "address",
          "name": "spender",
          "type": "address"
        },
        {
          "internalType": "uint256",
          "name": "value",
          "type": "uint256"
        }
      ],
      "name": "approve",
      "outputs": [
        {
          "internalType": "bool",
          "name": "",
          "type": "bool"
        }
      ],
      "stateMutability": "nonpayable",
      "type": "function"
    },
    {
      "inputs": [
        {
          "internalType": "address",
          "name": "account",
          "type": "address"
        }
      ],
      "name": "balanceOf",
      "outputs": [
        {
          "internalType": "uint256",
          "name": "",
          "type": "uint256"
        }
      ],
      "stateMutability": "view",
      "type": "function"
    },
    {
      "inputs": [
        {
          "internalType": "uint256",
          "name": "amount",
          "type": "uint256"
        }
      ],
      "name": "burn",
      "outputs": [],
      "stateMutability": "nonpayable",
      "type": "function"
    },
    {
      "inputs": [],
      "name": "burnEnabled",
      "outputs": [
        {
          "internalType": "bool",
          "name": "",
          "type": "bool"
        }
      ],
      "stateMutability": "view",
      "type": "function"
    },
    {
      "inputs": [
        {
          "internalType": "address",
          "name": "from",
          "type": "address"
        },
        {
          "internalType": "uint256",
          "name": "amount",
          "type": "uint256"
        }
      ],
      "name": "burnFrom",
      "outputs": [],
      "stateMutability": "nonpayable",
      "type": "function"
    },
    {
      "inputs": [],
      "name": "decimals",
      "outputs": [
        {
          "internalType": "uint8",
          "name": "",
          "type": "uint8"
        }
      ],
      "stateMutability": "view",
      "type": "function"
    },
    {
      "inputs": [
        {
          "internalType": "address",
          "name": "token",
          "type": "address"
        },
        {
          "internalType": "address",
          "name": "to",
          "type": "address"
        },
        {
          "internalType": "uint256",
          "name": "amount",
          "type": "uint256"
        }
      ],
      "name": "emergencyRecover",
      "outputs": [],
      "stateMutability": "nonpayable",
      "type": "function"
    },
    {
      "inputs": [],
      "name": "factory",
      "outputs": [
        {
          "internalType": "address",
          "name": "",
          "type": "address"
        }
      ],
      "stateMutability": "view",
      "type": "function"
    },
    {
      "inputs": [
        {
          "internalType": "address",
          "name": "to",
          "type": "address"
        },
        {
          "internalType": "uint256",
          "name": "amount",
          "type": "uint256"
        }
      ],
      "name": "factoryMint",
      "outputs": [],
      "stateMutability": "nonpayable",
      "type": "function"
    },
    {
      "inputs": [],
      "name": "gameId",
      "outputs": [
        {
          "internalType": "uint256",
          "name": "",
          "type": "uint256"
        }
      ],
      "stateMutability": "view",
      "type": "function"
    },
    {
      "inputs": [
        {
          "internalType": "address",
          "name": "",
          "type": "address"
        }
      ],
      "name": "mint",
      "outputs": [],
      "stateMutability": "pure",
      "type": "function"
    },
    {
      "inputs": [],
      "name": "name",
      "outputs": [
        {
          "internalType": "string",
          "name": "",
          "type": "string"
        }
      ],
      "stateMutability": "view",
      "type": "function"
    },
    {
      "inputs": [],
      "name": "owner",
      "outputs": [
        {
          "internalType": "address",
          "name": "",
          "type": "address"
        }
      ],
      "stateMutability": "view",
      "type": "function"
    },
    {
      "inputs": [],
      "name": "renounceOwnership",
      "outputs": [],
      "stateMutability": "nonpayable",
      "type": "function"
    },
    {
      "inputs": [
        {
          "internalType": "bool",
          "name": "enabled",
          "type": "bool"
        }
      ],
      "name": "setBurnEnabled",
      "outputs": [],
      "stateMutability": "nonpayable",
      "type": "function"
    },
    {
      "inputs": [],
      "name": "symbol",
      "outputs": [
        {
          "internalType": "string",
          "name": "",
          "type": "string"
        }
      ],
      "stateMutability": "view",
      "type": "function"
    },
    {
      "inputs": [],
      "name": "totalBurned",
      "outputs": [
        {
          "internalType": "uint256",
          "name": "",
          "type": "uint256"
        }
      ],
      "stateMutability": "view",
      "type": "function"
    },
    {
      "inputs": [],
      "name": "totalSupply",
      "outputs": [
        {
          "internalType": "uint256",
          "name": "",
          "type": "uint256"
        }
      ],
      "stateMutability": "view",
      "type": "function"
    },
    {
      "inputs": [
        {
          "internalType": "address",
          "name": "to",
          "type": "address"
        },
        {
          "internalType": "uint256",
          "name": "value",
          "type": "uint256"
        }
      ],
      "name": "transfer",
      "outputs": [
        {
          "internalType": "bool",
          "name": "",
          "type": "bool"
        }
      ],
      "stateMutability": "nonpayable",
      "type": "function"
    },
    {
      "inputs": [
        {
          "internalType": "address",
          "name": "from",
          "type": "address"
        },
        {
          "internalType": "address",
          "name": "to",
          "type": "address"
        },
        {
          "internalType": "uint256",
          "name": "value",
          "type": "uint256"
        }
      ],
      "name": "transferFrom",
      "outputs": [
        {
          "internalType": "bool",
          "name": "",
          "type": "bool"
        }
      ],
      "stateMutability": "nonpayable",
      "type": "function"
    },
    {
      "inputs": [
        {
          "internalType": "address",
          "name": "newOwner",
          "type": "address"
        }
      ],
      "name": "transferOwnership",
      "outputs": [],
      "stateMutability": "nonpayable",
      "type": "function"
    }
  ],
  "bytecode": "0x604060e08152346200064c5762001adb803803806200001e8162000651565b92833981019060e0818303126200064c5780516001600160401b0381116200064c57826200004e91830162000677565b602082015190926001600160401b0382116200064c576200007191830162000677565b838201519160ff831683036200064c576060810151926200009560808301620006e9565b60c0620000a560a08501620006e9565b93015186519094906001600160401b0381116200052a57600354600181811c9116801562000641575b60208210146200050957601f8111620005d7575b50806020601f82116001146200054c5760009162000540575b508160011b916000199060031b1c1916176003555b80516001600160401b0381116200052a57600454600181811c911680156200051f575b60208210146200050957601f81116200049f575b50806020601f8211600114620004155760009162000409575b508160011b916000199060031b1c1916176004555b6001600160a01b03918216968715620003f157600580546001600160a01b031981168a1790915589519190899085167f8be0079c531659141344cd1fd0a4f28419497f9722a3daafe3b4186f6b6457e0600080a36001600655600160ff1960085416176008555115620003a7575051156200035b57821680156200034a57601260ff8316116200032257841562000311578514620002c05760805260a05260c05260025490808201809211620002aa5760207fddf252ad1be2c89b69c2b068fc378daa952ba7f163c4a11628f55a4df523b3ef916000936002558484528382528584208181540190558551908152a361010061ff00196008541617600855516113dc9081620006ff823960805181610dbd015260a05181818161039d01528181610592015261080c015260c051816103650152f35b634e487b7160e01b600052601160045260246000fd5b855163313b9aa160e21b8152602060048201526024808201527f4f776e657220616e6420666163746f72792063616e6e6f74206265207468652060448201526373616d6560e01b6064820152608490fd5b8651631f2a200560e01b8152600490fd5b86516346f4384b60e01b815260ff831660048201526000602482015260126044820152606490fd5b865163d92e233d60e01b8152600490fd5b865163f7693c3d60e01b81526000600482015260248101889052601c60448201527f546f6b656e2073796d626f6c2063616e6e6f7420626520656d707479000000006064820152608490fd5b63f7693c3d60e01b81526000600482015260248101899052601a60448201527f546f6b656e206e616d652063616e6e6f7420626520656d7074790000000000006064820152608490fd5b8851631e4fbdf760e01b815260006004820152602490fd5b90508201513862000160565b6004600090815292507f8a35acfbc15ff81a39ae7d344fd709f28e8600b4aa8c65c6b64bfe7fe36bd19b905b601f198316841062000486576001935082601f198116106200046c575b5050811b0160045562000175565b84015160001960f88460031b161c1916905538806200045e565b8481015182556020938401936001909201910162000441565b60046000527f8a35acfbc15ff81a39ae7d344fd709f28e8600b4aa8c65c6b64bfe7fe36bd19b601f830160051c81019160208410620004fe575b601f0160051c01905b818110620004f1575062000147565b60008155600101620004e2565b9091508190620004d9565b634e487b7160e01b600052602260045260246000fd5b90607f169062000133565b634e487b7160e01b600052604160045260246000fd5b905088015138620000fb565b6003600090815292507fc2575a0e9e593c00f959f8c92f12db2869c3395a3b0502d05e2516446f71f85b905b8a601f1984168510620005bf57506001935082601f19811610620005a5575b5050811b0160035562000110565b8a015160001960f88460031b161c19169055388062000597565b81015182556020938401936001909201910162000578565b60036000527fc2575a0e9e593c00f959f8c92f12db2869c3395a3b0502d05e2516446f71f85b601f830160051c8101916020841062000636575b601f0160051c01905b818110620006295750620000e2565b600081556001016200061a565b909150819062000611565b90607f1690620000ce565b600080fd5b6040519190601f01601f191682016001600160401b038111838210176200052a57604052565b919080601f840112156200064c5782516001600160401b0381116200052a57602090620006ad601f8201601f1916830162000651565b928184528282870101116200064c5760005b818110620006d557508260009394955001015290565b8581018301518482018401528201620006bf565b51906001600160a01b03821682036200064c5756fe608060409080825260048036101561001657600080fd5b600091823560e01c90816306fdde0314610f8a57508063095ea7b314610edf57806318160ddd14610ec057806323b872dd14610de1578063313ce56714610da357806342966c6814610bd75780635dc96d1614610bb35780636a62784214610b4657806370a0823114610b0f578063715018a614610ab157806379cc6790146107e35780637b2c835f1461077f5780638da5cb5b1461075657806395d89b411461063a578063a4f0ecd314610568578063a9059cbb14610537578063ad1329d1146103cc578063c45a015514610388578063d7c81b551461034d578063d89135cd1461032e578063dd62ed3e146102d7578063f2fde38b146102415763f658f32a1461012157600080fd5b3461023d578260031936011261023d576101396110be565b9060243590303303610201576001600160a01b0383169283156101ea578360005260006020528560002054918383106101b257856000867fddf252ad1be2c89b69c2b068fc378daa952ba7f163c4a11628f55a4df523b3ef6020888c818a8688528785520381872055816002540360025551908152a380f35b865163391434e360e21b81526001600160a01b03909216908201908152602081018390526040810184905281906060010390fd5b0390fd5b8551634b637e8f60e11b8152808301869052602490fd5b606490602086519162461bcd60e51b8352820152601660248201527513db9b1e481cd95b198b58d85b1b08185b1b1bddd95960521b6044820152fd5b5080fd5b508290346102d35760203660031901126102d35761025d6110be565b90610266611109565b6001600160a01b039182169283156102bd575050600554826bffffffffffffffffffffffff60a01b821617600555167f8be0079c531659141344cd1fd0a4f28419497f9722a3daafe3b4186f6b6457e0600080a380f35b51631e4fbdf760e01b8152908101849052602490fd5b8280fd5b82843461023d578060031936011261023d576102f16110be565b6001600160a01b0392602435848116929190839003610329576020948492168152600185522090600052825280600020549051908152f35b600080fd5b82843461023d578160031936011261023d576020906007549051908152f35b82843461023d578160031936011261023d57602090517f00000000000000000000000000000000000000000000000000000000000000008152f35b82843461023d578160031936011261023d57517f00000000000000000000000000000000000000000000000000000000000000006001600160a01b03168152602090f35b5082346102d3576103dc366110d4565b91906103e6611109565b6001600160a01b0381811692831561052757879493929116908161049f57505082809281925af13d1561049a573d67ffffffffffffffff81116104875782519061043a601f8201601f19166020018361115f565b81528460203d92013e5b1561044e57505080f35b906020606492519162461bcd60e51b83528201526013602482015272115512081d1c985b9cd9995c8819985a5b1959606a1b6044820152fd5b634e487b7160e01b855260418452602485fd5b610444565b855163a9059cbb60e01b81526001600160a01b03919091169681019687526020808801949094529592938693849003604001925083915af190811561051e57506104e7575080f35b6020813d8211610516575b816104ff6020938361115f565b8101031261023d5751801515036105135780f35b80fd5b3d91506104f2565b513d84823e3d90fd5b855163d92e233d60e01b81528790fd5b82843461023d578060031936011261023d576020906105616105576110be565b6024359033611181565b5160018152f35b5082346102d357806003193601126102d3576105826110be565b60243591906001600160a01b03907f000000000000000000000000000000000000000000000000000000000000000082163303610624571692831561060f57506020827fddf252ad1be2c89b69c2b068fc378daa952ba7f163c4a11628f55a4df523b3ef926105f560009560025461125f565b60025585855284835280852082815401905551908152a380f35b84602492519163ec442f0560e01b8352820152fd5b8251635936416f60e01b81523381870152602490fd5b5091903461051357806003193601126105135781519181845492600184811c9181861695861561074c575b6020968785108114610739579087899a92868b999a9b52918260001461070f5750506001146106b4575b85886106b0896106a1848a038561115f565b5192828493845283019061107e565b0390f35b815286935091907f8a35acfbc15ff81a39ae7d344fd709f28e8600b4aa8c65c6b64bfe7fe36bd19b5b8284106106f757505050820101816106a16106b03861068f565b8054848a0186015288955087949093019281016106dd565b60ff19168882015294151560051b870190940194508593506106a192506106b0915038905061068f565b634e487b7160e01b835260228a52602483fd5b92607f1692610665565b82843461023d578160031936011261023d5760055490516001600160a01b039091168152602090f35b508290346102d35760203660031901126102d35735908115158092036102d3577f1509137b40df48e8ef9596f9db16b632b15353d0e0688d9f23221953eb0328dd916020916107cc611109565b60ff196008541660ff83161760085551908152a180f35b5082346102d357806003193601126102d3576107fd6110be565b92602435906001600160a01b037f000000000000000000000000000000000000000000000000000000000000000081163303610a9b5760ff6008541615610a5957610846611383565b85168015610a49578215610a39578082528160205283822054838110610a0757506002548084116109eb57600a90048311610994576108878360075461125f565b600755303b1561023d578351637b2c799560e11b81526001600160a01b038716868201908152602081018590528390819083908190604001038183305af19182610980575b50506109475750506108dc611282565b6308c379a01461090d575b6101e6916108f782600754611312565b5051631e764bc560e31b81529384938401611343565b6109156112a0565b8061092057506108e7565b906101e69261093182600754611312565b5051631e764bc560e31b8152948594850161131f565b7fccbea4088a3b7ae9ca2d15fab9a9742a4075b4d7247768a1eecea917565aba00848460075482519182526020820152a2600160065580f35b61098990611135565b6102d35782886108cc565b505060a493508151926333be48f560e21b84528301526024820152602460448201527f45786365656473206d6178696d756d206275726e20706572207472616e7361636064820152633a34b7b760e11b6084820152fd5b8560449185875192631ee970cd60e31b84528301526024820152fd5b935163db42144d60e01b81526001600160a01b0390961694860194855250506020830152604082015281906060010390fd5b50505051631f2a200560e01b8152fd5b5050505163d92e233d60e01b8152fd5b8351630eb8953f60e01b8152602081870181815260139181019190915272109d5c9b9a5b99c81a5cc8191a5cd8589b1959606a1b604082015281906060010390fd5b8351635936416f60e01b81523381870152602490fd5b8234610513578060031936011261051357610aca611109565b600580546001600160a01b031981169091556000906001600160a01b03167f8be0079c531659141344cd1fd0a4f28419497f9722a3daafe3b4186f6b6457e08280a380f35b82843461023d57602036600319011261023d5760209181906001600160a01b03610b376110be565b16815280845220549051908152f35b50903461051357602036600319011261051357506020608492610b676110be565b505162461bcd60e51b815291820152602560248201527f4d696e742064697361626c65643a2075736520666163746f727920746f206c6f6044820152640636b2058560dc1b6064820152fd5b82843461023d578160031936011261023d5760209060ff6008541690519015158152f35b5082346102d35760203660031901126102d35781359260ff6008541615610d6157610c00611383565b8315610d53573381528060205281812054848110610d295750610c258460075461125f565b600755303b15610513578151637b2c799560e11b81523384820190815260208101869052909190819083908190604001038183305af19182610d1a575b5090610cdf5750610c71611282565b6308c379a014610ca4575b6101e690610c8c84600754611312565b5051631e764bc560e31b815292839233908401611343565b610cac6112a0565b80610cb75750610c7c565b6101e691610cc785600754611312565b5051631e764bc560e31b81529384933390850161131f565b837fccbea4088a3b7ae9ca2d15fab9a9742a4075b4d7247768a1eecea917565aba0083600754815193845260208401523392a2600160065580f35b610d2390611135565b85610c62565b915163db42144d60e01b815233938101938452602084019490945250604082015281906060010390fd5b5051631f2a200560e01b8152fd5b8151630eb8953f60e01b8152602081850181815260139181019190915272109d5c9b9a5b99c81a5cc8191a5cd8589b1959606a1b604082015281906060010390fd5b82843461023d578160031936011261023d576020905160ff7f0000000000000000000000000000000000000000000000000000000000000000168152f35b503461023d57610df0366110d4565b6001600160a01b03831680865260016020908152878720338852905286862054919592946000198310610e2c575b602088610561898989611181565b868310610e94578115610e7d573315610e665750825260016020908152868320338452815291869020908590039055829061056138610e1e565b8751634a1406b160e11b8152908101849052602490fd5b875163e602df0560e01b8152908101849052602490fd5b8751637dc7a0d960e11b8152339181019182526020820193909352604081018790528291506060010390fd5b82843461023d578160031936011261023d576020906002549051908152f35b508290346102d357816003193601126102d357610efa6110be565b602435903315610f73576001600160a01b0316918215610f5c57508083602095338152600187528181208582528752205582519081527f8c5be1e5ebec7d5bd14f71427d1e84f3dd0314c0f7b2291e5b200ac8c7c3b925843392a35160018152f35b8351634a1406b160e11b8152908101859052602490fd5b835163e602df0560e01b8152808401869052602490fd5b905082843461023d578160031936011261023d578160035492600184811c91818616958615611074575b6020968785108114610739578899509688969785829a52918260001461104d575050600114610ff1575b5050506106b092916106a191038561115f565b9190869350600383527fc2575a0e9e593c00f959f8c92f12db2869c3395a3b0502d05e2516446f71f85b5b82841061103557505050820101816106a16106b0610fde565b8054848a01860152889550879490930192810161101c565b60ff19168782015293151560051b860190930193508492506106a191506106b09050610fde565b92607f1692610fb4565b919082519283825260005b8481106110aa575050826000602080949584010152601f8019910116010190565b602081830181015184830182015201611089565b600435906001600160a01b038216820361032957565b6060906003190112610329576001600160a01b0390600435828116810361032957916024359081168103610329579060443590565b6005546001600160a01b0316330361111d57565b60405163118cdaa760e01b8152336004820152602490fd5b67ffffffffffffffff811161114957604052565b634e487b7160e01b600052604160045260246000fd5b90601f8019910116810190811067ffffffffffffffff82111761114957604052565b916001600160a01b03808416928315611246571692831561122d57600090838252816020526040822054908382106111fb575091604082827fddf252ad1be2c89b69c2b068fc378daa952ba7f163c4a11628f55a4df523b3ef958760209652828652038282205586815220818154019055604051908152a3565b60405163391434e360e21b81526001600160a01b03919091166004820152602481019190915260448101839052606490fd5b60405163ec442f0560e01b815260006004820152602490fd5b604051634b637e8f60e11b815260006004820152602490fd5b9190820180921161126c57565b634e487b7160e01b600052601160045260246000fd5b60009060033d1161128f57565b905060046000803e60005160e01c90565b600060443d106112fe57604051600319913d83016004833e815167ffffffffffffffff918282113d60248401111761130157818401948551938411611309573d8501016020848701011161130157506112fe9291016020019061115f565b90565b949350505050565b50949350505050565b9190820391821161126c57565b6112fe939260609260018060a01b031682526020820152816040820152019061107e565b909160a092600180851b0316825260208201526060604082015260126060820152712ab735b737bbb710313ab9371032b93937b960711b60808201520190565b600260065414611394576002600655565b604051633ee5aeb560e01b8152600490fdfea2646970667358221220cd711da2a8cbe2259ca40fd30fa7084f8aa4a846e6d0d61a8dcd331080b5da0b64736f6c63430008140033",
  "linkReferences": {},
  "deployedLinkReferences": {}
}