{
	"data": {
		"bytecode": {
			"linkReferences": {},
			"object": "60c0604052346102c65761317e80380380610019816102ca565b9283398101906060818303126102c657610032816102ef565b61003e602083016102ef565b604083015190926001600160401b0382116102c6570183601f820112156102c6578051906001600160401b0382116102b257610083601f8301601f19166020016102ca565b94828652602083830101116102c657815f9260208093018388015e8501015282516001600160401b0381116102b257600254600181811c911680156102a8575b602082101461029457601f8111610231575b506020601f82116001146101ce57819293945f926101c3575b50508160011b915f199060031b1c1916176002555b60016005819055670de0b6b3a76400006006556007556001600160a01b0316801580156101b2575b6101a3576080526001600160a01b031660a05261014733610303565b5061015133610379565b5061015b3361040c565b506101653361049f565b50604051612bab90816105338239608051818181610d980152610f78015260a051818181610c7401528181611008015281816111a60152611cf70152f35b631f2a200560e01b5f5260045ffd5b506001600160a01b0382161561012b565b015190505f806100ee565b601f1982169060025f52805f20915f5b81811061021957509583600195969710610201575b505050811b01600255610103565b01515f1960f88460031b161c191690555f80806101f3565b9192602060018192868b0151815501940192016101de565b60025f527f405787fa12a823e0f2b7631cc41b3ba8828b3321ca811111fa75cd3aa3bb5ace601f830160051c8101916020841061028a575b601f0160051c01905b81811061027f57506100d5565b5f8155600101610272565b9091508190610269565b634e487b7160e01b5f52602260045260245ffd5b90607f16906100c3565b634e487b7160e01b5f52604160045260245ffd5b5f80fd5b6040519190601f01601f191682016001600160401b038111838210176102b257604052565b51906001600160a01b03821682036102c657565b6001600160a01b0381165f9081525f51602061315e5f395f51905f52602052604090205460ff16610374576001600160a01b03165f8181525f51602061315e5f395f51905f5260205260408120805460ff191660011790553391905f5160206130de5f395f51905f528180a4600190565b505f90565b6001600160a01b0381165f9081525f5160206130fe5f395f51905f52602052604090205460ff16610374576001600160a01b03165f8181525f5160206130fe5f395f51905f5260205260408120805460ff191660011790553391907f9f29eee2263c2102949fd3febafb3dd6dbbaee114f48a474222b2159942eb2b2905f5160206130de5f395f51905f529080a4600190565b6001600160a01b0381165f9081525f51602061311e5f395f51905f52602052604090205460ff16610374576001600160a01b03165f8181525f51602061311e5f395f51905f5260205260408120805460ff191660011790553391907f65d7a28e3265b37a6474929f336521b332c1681b933f6cb9f3376673440d862a905f5160206130de5f395f51905f529080a4600190565b6001600160a01b0381165f9081525f51602061313e5f395f51905f52602052604090205460ff16610374576001600160a01b03165f8181525f51602061313e5f395f51905f5260205260408120805460ff191660011790553391907fbf233dd2aafeb4d50879c4aa5c81e96d92f6e6945c906a58f9f2d1c1631b4b26905f5160206130de5f395f51905f529080a460019056fe60806040526004361015610011575f80fd5b5f3560e01c8062fdd58e146102a357806301ffc9a71461029e5780630e89341c1461029957806320df435914610294578063248a9ca31461028f5780632eb2c2d61461028a5780632f2ff15d1461028557806334fcf4371461028057806336568abe1461027b5780633b420a73146102765780633f4ba83a146102715780634e1273f41461026c578063546fdad4146102675780635c975abb146102625780635e79c1dc1461025d5780635ed6c1db146102585780636d8061b8146102535780636d8554e21461024e5780636dd9cbd41461024957806374b334c5146102445780638456cb591461023f5780638760550d1461023a57806391d148541461023557806397e05e8614610230578063a217fddf1461022b578063a22cb46514610226578063ae5014b114610221578063b135bbb01461021c578063bf034b6914610217578063c21c64a714610212578063cb327b8b1461020d578063cb4cd55614610208578063ccd34cd514610203578063d547741f146101fe578063df525b7d146101f9578063e63ab1e9146101f4578063e63ea408146101ef578063e8321987146101ea578063e985e9c5146101e5578063f242432a146101e05763fd44d274146101db575f80fd5b611814565b6116e1565b611691565b611674565b611547565b61150d565b6114f2565b6114b4565b611492565b61145a565b611420565b6113c8565b611324565b6111d5565b611191565b6110df565b6110bb565b610f00565b610eb1565b610e8e565b610e35565b610e01565b610de4565b610dc7565b610d83565b610b5d565b610a6b565b6109c5565b610953565b610894565b6107ea565b6107c9565b610785565b6106b1565b61066e565b6105e2565b610464565b61042a565b6103f3565b610346565b6102ec565b600435906001600160a01b03821682036102be57565b5f80fd5b602435906001600160a01b03821682036102be57565b35906001600160a01b03821682036102be57565b346102be5760403660031901126102be57602061032b61030a6102a8565b6024355f525f835260405f209060018060a01b03165f5260205260405f2090565b54604051908152f35b6001600160e01b03198116036102be57565b346102be5760203660031901126102be5760043561036381610334565b63ffffffff60e01b16637965db0b60e01b811490811561038c575b506040519015158152602090f35b636cdb3d1360e11b8114915081156103be575b81156103ad575b505f61037e565b6301ffc9a760e01b1490505f6103a6565b6303a24d0760e21b8114915061039f565b805180835260209291819084018484015e5f828201840152601f01601f1916010190565b346102be5760203660031901126102be57610426610412600435611936565b6040519182916020835260208301906103cf565b0390f35b346102be575f3660031901126102be5760206040517fbf233dd2aafeb4d50879c4aa5c81e96d92f6e6945c906a58f9f2d1c1631b4b268152f35b346102be5760203660031901126102be57602061048f6004355f526003602052600160405f20015490565b604051908152f35b634e487b7160e01b5f52604160045260245ffd5b61010081019081106001600160401b038211176104c757604052565b610497565b90601f801991011681019081106001600160401b038211176104c757604052565b604051906104fd610100836104cc565b565b6001600160401b0381116104c75760051b60200190565b9080601f830112156102be57813561052d816104ff565b9261053b60405194856104cc565b81845260208085019260051b8201019283116102be57602001905b8282106105635750505090565b8135815260209182019101610556565b6001600160401b0381116104c757601f01601f191660200190565b92919261059a82610573565b916105a860405193846104cc565b8294818452818301116102be578281602093845f960137010152565b9080601f830112156102be578160206105df9335910161058e565b90565b346102be5760a03660031901126102be576105fb6102a8565b6106036102c2565b906044356001600160401b0381116102be57610623903690600401610516565b6064356001600160401b0381116102be57610642903690600401610516565b90608435936001600160401b0385116102be5761066661066c9536906004016105c4565b93611a3c565b005b346102be5760403660031901126102be5761066c60043561068d6102c2565b906106ac6106a7825f526003602052600160405f20015490565b6122ea565b612324565b346102be5760203660031901126102be57335f9081527fce96a28fb06ca29ce31a17de45a1073cd88b8170e4a67f7f416f721e36bde95c60205260409020546004359060ff161561074e57801561073f5760068054908290556040805191825260208201929092527fb38780ddde1f073d91c150de2696f3f7085883648ba21cc5ef01029cb21d19169190a1005b6314cee7cd60e11b5f5260045ffd5b63e2517d3f60e01b5f52336004527f9f29eee2263c2102949fd3febafb3dd6dbbaee114f48a474222b2159942eb2b260245260445ffd5b346102be5760403660031901126102be576004356107a16102c2565b336001600160a01b038216036107ba5761066c916123ae565b63334bd91960e11b5f5260045ffd5b346102be5760403660031901126102be57602061048f602435600435611af8565b346102be575f3660031901126102be5761080261220c565b60045460ff8116156108415760ff19166004557f5db9ee0a495bf2e6ff9c91a7834c1ba4fdd244a5e8aa4e537bd38aeae4b073aa6020604051338152a1005b638dfc202b60e01b5f5260045ffd5b90602080835192838152019201905f5b81811061086d5750505090565b8251845260209384019390920191600101610860565b9060206105df928181520190610850565b346102be5760403660031901126102be576004356001600160401b0381116102be57366023820112156102be578060040135906108d0826104ff565b916108de60405193846104cc565b8083526024602084019160051b830101913683116102be57602401905b82821061093b57836024356001600160401b0381116102be576104269161092961092f923690600401610516565b90611b5a565b60405191829182610883565b60208091610948846102d8565b8152019101906108fb565b346102be5760203660031901126102be576001600160a01b036109746102a8565b165f52600b60205260405f206040519081602082549182815201915f5260205f20905f5b8181106109af576104268561092f818703826104cc565b8254845260209093019260019283019201610998565b346102be575f3660031901126102be57602060ff600454166040519015158152f35b6105df906020815260018060a01b03835116602082015261010060e0610a35610a1f60208701518460408701526101208601906103cf565b6040870151858203601f190160608701526103cf565b606086015160ff16608085015294608081015160a085015260a081015160c085015260c081015182850152015191019015159052565b346102be5760203660031901126102be576004355f60e0604051610a8e816104ab565b82815260606020820152606060408201528260608201528260808201528260a08201528260c082015201525f52600a60205261042660405f20610b51610b486007610ad76104ed565b84546001600160a01b0316815293610af16001820161122a565b6020860152610b026002820161122a565b6040860152610b22610b18600383015460ff1690565b60ff166060870152565b60048101546080860152600581015460a0860152600681015460c0860152015460ff1690565b151560e0830152565b604051918291826109e7565b346102be5760403660031901126102be57602435600435610b7c612436565b610b84612451565b8115610d7457610b9c815f52600a60205260405f2090565b610bb1610bad600783015460ff1690565b1590565b610d655781158015610d59575b610d4a5782610bed33610bd8855f525f60205260405f2090565b9060018060a01b03165f5260205260405f2090565b5410610d3b57610c0f610c04600583015485611ac7565b600483015490611ada565b9081600c5410610d2c57600690610c27858533612471565b01610c33848254611c1c565b9055610c49610c4482600c54611c1c565b600c55565b60405163a9059cbb60e01b8152336004820152602481018290526020816044815f6001600160a01b037f0000000000000000000000000000000000000000000000000000000000000000165af1908115610d27575f91610cf8575b5015610ce95760408051938452602084019190915233927fefd5d515529a8f76c5944b1d953cde6b2c61c8b81e144c964aeb038714cabca69190a361066c6001600555565b6312171d8360e31b5f5260045ffd5b610d1a915060203d602011610d20575b610d1281836104cc565b810190611c29565b5f610ca4565b503d610d08565b611c3e565b6331d2f70960e01b5f5260045ffd5b632ca2f52b60e11b5f5260045ffd5b63bb97cc9b60e01b5f5260045ffd5b50600754821015610bbe565b6307350d3b60e11b5f5260045ffd5b631f2a200560e01b5f5260045ffd5b346102be575f3660031901126102be576040517f00000000000000000000000000000000000000000000000000000000000000006001600160a01b03168152602090f35b346102be575f3660031901126102be576020600c54604051908152f35b346102be575f3660031901126102be576020600654604051908152f35b346102be5760203660031901126102be576020670de0b6b3a7640000610e2c60043560065490611ac7565b04604051908152f35b346102be575f3660031901126102be57610e4d61220c565b610e55612436565b600160ff1960045416176004557f62e78cea01bee320cd4e420270b5ea74000d11b0c9f74754ebdbfc544b05a2586020604051338152a1005b346102be575f3660031901126102be576020604051683635c9adc5dea000008152f35b346102be5760403660031901126102be57602060ff610ef4600435610ed46102c2565b905f526003845260405f209060018060a01b03165f5260205260405f2090565b54166040519015158152f35b346102be5760203660031901126102be57600435610f1c612436565b610f24612451565b8015610d7457610f47610f3960065483611ac7565b670de0b6b3a7640000900490565b6040516323b872dd60e01b8152336004820152306024820152604481018390526020816064815f6001600160a01b037f0000000000000000000000000000000000000000000000000000000000000000165af1908115610d27575f9161109c575b5015610ce957335f908152600860205260409020610fc7838254611c49565b9055610fdd610fd883600954611c49565b600955565b60405163a9059cbb60e01b8152336004820152602481018290526020816044815f6001600160a01b037f0000000000000000000000000000000000000000000000000000000000000000165af1908115610d27575f9161107d575b5015610ce95760408051928352602083019190915233917f728ef7f9f5da04913a2539a83b1d7620e12ed0fb6ca88328bdba350f977cff0f9190a261066c6001600555565b611096915060203d602011610d2057610d1281836104cc565b5f611038565b6110b5915060203d602011610d2057610d1281836104cc565b5f610fa8565b346102be575f3660031901126102be5760206040515f8152f35b801515036102be57565b346102be5760403660031901126102be576110f86102a8565b602435611104816110d5565b6001600160a01b03821691821561117f578161113e61114f92335f52600160205260405f209060018060a01b03165f5260205260405f2090565b9060ff801983541691151516179055565b60405190151581527f17307eab39ab6107e8899845ad3d59bd9653f200f220920489ca2b5937696c3160203392a3005b62ced3e160e81b5f525f60045260245ffd5b346102be575f3660031901126102be576040517f00000000000000000000000000000000000000000000000000000000000000006001600160a01b03168152602090f35b346102be575f3660031901126102be576020600754604051908152f35b90600182811c92168015611220575b602083101461120c57565b634e487b7160e01b5f52602260045260245ffd5b91607f1691611201565b9060405191825f82549261123d846111f2565b80845293600181169081156112a65750600114611262575b506104fd925003836104cc565b90505f9291925260205f20905f915b81831061128a5750509060206104fd928201015f611255565b6020919350806001915483858901015201910190918492611271565b9050602092506104fd94915060ff191682840152151560051b8201015f611255565b96939897949160e096936112f96113079260ff9460018060a01b03168b5261010060208c01526101008b01906103cf565b9089820360408b01526103cf565b98166060870152608086015260a085015260c08401521515910152565b346102be5760203660031901126102be576004355f908152600a6020526040902080546001600160a01b031661042661135f6001840161122a565b9261136c6002820161122a565b9060ff600382015416600482015460058301549160ff600760068601549501541694604051988998896112c8565b634e487b7160e01b5f52603260045260245ffd5b80548210156113c3575f5260205f2001905f90565b61139a565b346102be5760403660031901126102be576113e16102a8565b6001600160a01b03165f908152600b60205260409020805460243591908210156102be57602091611411916113ae565b90549060031b1c604051908152f35b346102be575f3660031901126102be5760206040517f9f29eee2263c2102949fd3febafb3dd6dbbaee114f48a474222b2159942eb2b28152f35b346102be5760203660031901126102be576001600160a01b0361147b6102a8565b165f526008602052602060405f2054604051908152f35b346102be575f3660031901126102be576020604051670de0b6b3a76400008152f35b346102be5760403660031901126102be5761066c6004356114d36102c2565b906114ed6106a7825f526003602052600160405f20015490565b6123ae565b346102be575f3660031901126102be57602060405160128152f35b346102be575f3660031901126102be5760206040517f65d7a28e3265b37a6474929f336521b332c1681b933f6cb9f3376673440d862a8152f35b346102be5760603660031901126102be576115606102a8565b6115686102c2565b60443561157361227b565b6001600160a01b038216928315610d74576001600160a01b0316918190836115e757505f80808093875af16115a6611c56565b5015610ce9576115e27ff24ef89f38eadc1bde50701ad6e4d6d11a2dc24f7cf834a486991f3883328504915b6040519081529081906020820190565b0390a3005b60405163a9059cbb60e01b81526001600160a01b0391909116600482015260248101919091526020816044815f875af1908115610d27575f91611655575b5015610ce9576115e27ff24ef89f38eadc1bde50701ad6e4d6d11a2dc24f7cf834a486991f3883328504916115d2565b61166e915060203d602011610d2057610d1281836104cc565b5f611625565b346102be575f3660031901126102be576020600954604051908152f35b346102be5760403660031901126102be57602060ff610ef46116b16102a8565b6116b96102c2565b6001600160a01b039182165f9081526001865260408082209290931681526020919091522090565b346102be5760a03660031901126102be576116fa6102a8565b6117026102c2565b60443590606435926084356001600160401b0381116102be576117299036906004016105c4565b926001600160a01b03821633811415806117c4575b6117ae576001600160a01b0384161561179b57156117895761066c9461178160405192600184526020840152604083019160018352606084015260808301604052565b929091612745565b626a0d4560e21b5f525f60045260245ffd5b632bfa23e760e11b5f525f60045260245ffd5b63711bec9160e11b5f523360045260245260445ffd5b505f81815260016020908152604080832033845290915290205460ff161561173e565b9181601f840112156102be578235916001600160401b0383116102be57602083818601950101116102be57565b346102be5760803660031901126102be576004356024356001600160401b0381116102be576118479036906004016117e7565b6044929192356001600160401b0381116102be576118699036906004016117e7565b906064359260ff841684036102be57610426956115d295611c85565b604051906118946020836104cc565b5f8252565b906104fd61191b60076118aa6104ed565b85546001600160a01b03168152946118c46001820161122a565b60208701526118d56002820161122a565b60408701526118f56118eb600383015460ff1690565b60ff166060880152565b60048101546080870152600581015460a0870152600681015460c0870152015460ff1690565b151560e0840152565b805191908290602001825e015f815290565b80158015611a30575b611a275761195861195d915f52600a60205260405f2090565b611899565b61196d610bad60e0830151151590565b611a27576105df81611a19611a0c60206119db950151926119d56119f36119ae6119a96119a36060604087015196015160ff1690565b60ff1690565b612158565b926119d5604051998a986119d560208b01600990683d913730b6b2911d1160b91b81520190565b90611924565b6b11161139bcb6b137b6111d1160a11b8152600c0190565b6c1116113232b1b4b6b0b639911d60991b8152600d0190565b607d60f81b815260010190565b03601f1981018352826104cc565b506105df611885565b5060075481101561193f565b939291906001600160a01b0385163381141580611a75575b6117ae576001600160a01b0382161561179b5715611789576104fd94612745565b505f81815260016020908152604080832033845290915290205460ff1615611a54565b634e487b7160e01b5f52601160045260245ffd5b90600a820291808304600a1490151715611ac257565b611a98565b81810292918115918404141715611ac257565b8115611ae4570490565b634e487b7160e01b5f52601260045260245ffd5b5f52600a60205260405f2060ff600782015416158015611b3a575b611b34576004611b2b6105df93600584015490611ac7565b91015490611ada565b50505f90565b50600481015415611b13565b80518210156113c35760209160051b010190565b91909180518351808203611bf9575050805190611b76826104ff565b91611b8460405193846104cc565b808352611b93601f19916104ff565b013660208401375f5b8151811015611bf25780611be160019260051b60208082870101519189010151905f918252602082815260408084206001600160a01b03909316845291905290205490565b611beb8286611b46565b5201611b9c565b5090925050565b635b05999160e01b5f5260045260245260445ffd5b5f19810191908211611ac257565b91908203918211611ac257565b908160209103126102be57516105df816110d5565b6040513d5f823e3d90fd5b91908201809211611ac257565b3d15611c80573d90611c6782610573565b91611c7560405193846104cc565b82523d5f602084013e565b606090565b949193929093611c93612436565b611c9b612451565b683635c9adc5dea000008610610d3b57601260ff841611611e845760328111611e7557600a8411611e66576040516323b872dd60e01b8152336004820152306024820152604481018790526020816064815f6001600160a01b037f0000000000000000000000000000000000000000000000000000000000000000165af1908115610d27575f91611e47575b5015610ce957611e3a7f209e4cc824c27fb4d0b3d56450b5cdead204b21bfb8286755c4865b577a8a28f93611d61610c4489600c54611c49565b600754978896611d78611d7389611e93565b600755565b611e00611d90610f39611d8a86611ea1565b85611ac7565b93611dca611d9c6104ed565b33815291611dab368a8f61058e565b6020840152611dbb36868c61058e565b604084015260ff166060830152565b8460808201528360a08201528460c0820152611de960e0820160019052565b611dfb8a5f52600a60205260405f2090565b611fcc565b335f908152600b60205260409020611e19908990612074565b611e2c611e24611885565b848a33612601565b604051958695339a876120cd565b0390a36105df6001600555565b611e60915060203d602011610d2057610d1281836104cc565b5f611d27565b631124f78b60e01b5f5260045ffd5b63680b6caf60e01b5f5260045ffd5b630692acc560e51b5f5260045ffd5b5f198114611ac25760010190565b60ff16604d8111611ac257600a0a90565b601f8211611ebf57505050565b5f5260205f20906020601f840160051c83019310611ef7575b601f0160051c01905b818110611eec575050565b5f8155600101611ee1565b9091508190611ed8565b91909182516001600160401b0381116104c757611f2881611f2284546111f2565b84611eb2565b6020601f8211600114611f67578190611f589394955f92611f5c575b50508160011b915f199060031b1c19161790565b9055565b015190505f80611f44565b601f19821690611f7a845f5260205f2090565b915f5b818110611fb457509583600195969710611f9c575b505050811b019055565b01515f1960f88460031b161c191690555f8080611f92565b9192602060018192868b015181550194019201611f7d565b815181546001600160a01b0319166001600160a01b039091161781556104fd916007906120619060e090612007602082015160018701611f01565b612018604082015160028701611f01565b61203c612029606083015160ff1690565b600387019060ff1660ff19825416179055565b6080810151600486015560a0810151600586015560c081015160068601550151151590565b91019060ff801983541691151516179055565b8054680100000000000000008110156104c757612096916001820181556113ae565b819291549060031b91821b915f19901b1916179055565b908060209392818452848401375f828201840152601f01601f1916010190565b9290936120ec6060956120fa94999897996080875260808701916120ad565b9184830360208601526120ad565b9460408201520152565b9061210e82610573565b61211b60405191826104cc565b828152809261212c601f1991610573565b0190602036910137565b60ff166030019060ff8211611ac257565b9081518110156113c3570160200190565b80156121ec5780815f925b6121d157508061217283612104565b92905b61217e57505090565b61218790611c0e565b906121bd6121ad6121a86119a3600a8504946121a286611aac565b90611c1c565b612136565b60f81b6001600160f81b03191690565b5f1a6121c98385612147565b539081612175565b916121de6121e691611e93565b92600a900490565b80612163565b506040516121fb6040826104cc565b60018152600360fc1b602082015290565b335f9081527f30adeb818ef77f204f5a603c30fa5332397b6e28fb3b7f9d937ae6a6914716de602052604090205460ff161561224457565b63e2517d3f60e01b5f52336004527f65d7a28e3265b37a6474929f336521b332c1681b933f6cb9f3376673440d862a60245260445ffd5b335f9081527f4a18c22192f7476ec84391fce95952ace1237d522de16c98159f6d46d423ef36602052604090205460ff16156122b357565b63e2517d3f60e01b5f52336004527fbf233dd2aafeb4d50879c4aa5c81e96d92f6e6945c906a58f9f2d1c1631b4b2660245260445ffd5b5f81815260036020908152604080832033845290915290205460ff161561230e5750565b63e2517d3f60e01b5f523360045260245260445ffd5b5f8181526003602090815260408083206001600160a01b038616845290915290205460ff16611b34575f8181526003602090815260408083206001600160a01b03861684529091529020805460ff1916600117905533916001600160a01b0316907f2f8788117e7eff1d82e926ec794901d17c78024a50270940304540a733656f0d5f80a4600190565b5f8181526003602090815260408083206001600160a01b038616845290915290205460ff1615611b34575f8181526003602090815260408083206001600160a01b03861684529091529020805460ff1916905533916001600160a01b0316907ff6391f5c32d9c69d2a47ea670b442974b53935d1edc7fd64eb21e047a839171b5f80a4600190565b60ff6004541661244257565b63d93c066560e01b5f5260045ffd5b600260055414612462576002600555565b633ee5aeb560e01b5f5260045ffd5b926001600160a01b038416929091908315611789576124ad60405192600184526020840152604083019160018352606084015260808301604052565b91906020915f6040516124c085826104cc565b5281518451908181036125ec5750505f5b8251811015612561578060051b8480828601015191870101516124ff89610bd8845f525f60205260405f2090565b5481811061252a5789610bd860019594936125239303935f525f60205260405f2090565b55016124d1565b6040516303dee4c560e01b81526001600160a01b038b16600482015260248101919091526044810182905260648101839052608490fd5b50945090915f9392600183511485146125b8579182015191015160408051928352602083019190915233917fc3d58168c5ae7397731d063d5bbf3d657854427343f4c083240f7aacaa2d0f6291819081015b0390a4565b506125b37f4a39dc06d4c0dbc64b70af90fd698a233a518aa5d07e595d983b8c0526c8f7fb9160405191829133958361291b565b635b05999160e01b5f5260045260245260445ffd5b6001600160a01b0381169392909190841561179b5761263d60405192600184526020840152604083019160018352606084015260808301604052565b9281518451908181036125ec5750505f5b8251811015612693578060019160051b61268b61268387610bd8602080868b010151958c010151945f525f60205260405f2090565b918254611c49565b90550161264e565b5092919360018251145f1461270a576020828101518482015160408051928352928201525f9133917fc3d58168c5ae7397731d063d5bbf3d657854427343f4c083240f7aacaa2d0f629190a45b80516001036126ff57906020806104fd95930151910151915f33612ad7565b6104fd935f336129a8565b5f6040517f4a39dc06d4c0dbc64b70af90fd698a233a518aa5d07e595d983b8c0526c8f7fb33918061273d88888361291b565b0390a46126e0565b94939290919384518251908181036125ec5750506001600160a01b038681169586151595918516801515939192905f5b845181101561284e578060051b90898988602080868b010151958c010151926127cd575b936001946127ab575b50505001612775565b6127c391610bd8612683925f525f60205260405f2090565b90555f89816127a2565b505090916127e68d610bd8835f525f60205260405f2090565b54828110612817578291898f61280e600197968f950391610bd8855f525f60205260405f2090565b55909450612799565b6040516303dee4c560e01b81526001600160a01b038f16600482015260248101919091526044810183905260648101829052608490fd5b5091989593929790965060018851145f146128e15760208881015186820151604080519283529282015233917fc3d58168c5ae7397731d063d5bbf3d657854427343f4c083240f7aacaa2d0f6291a45b6128aa575b5050505050565b84516001036128d0576020806128c69601519201519233612ad7565b5f808080806128a3565b6128dc949192336129a8565b6128c6565b6040517f4a39dc06d4c0dbc64b70af90fd698a233a518aa5d07e595d983b8c0526c8f7fb339180612913898d8361291b565b0390a461289e565b90916129326105df93604084526040840190610850565b916020818403910152610850565b908160209103126102be57516105df81610334565b6001600160a01b0391821681529116602082015260a0604082018190526105df949193919261299a929161298c9190860190610850565b908482036060860152610850565b9160808184039101526103cf565b9091949293853b6129bc575b505050505050565b6020936129de91604051968795869563bc197c8160e01b875260048701612955565b03815f6001600160a01b0387165af15f9181612a6d575b50612a2f5750612a03611c56565b8051919082612a2857632bfa23e760e11b5f526001600160a01b03821660045260245ffd5b9050602001fd5b6001600160e01b0319166343e6837f60e01b01612a5257505f80808080806129b4565b632bfa23e760e11b5f526001600160a01b031660045260245ffd5b612a9091925060203d602011612a97575b612a8881836104cc565b810190612940565b905f6129f5565b503d612a7e565b6001600160a01b039182168152911660208201526040810191909152606081019190915260a0608082018190526105df929101906103cf565b9091949293853b612aea57505050505050565b602093612b0c91604051968795869563f23a6e6160e01b875260048701612a9e565b03815f6001600160a01b0387165af15f9181612b54575b50612b315750612a03611c56565b6001600160e01b031916630dc5919f60e01b01612a5257505f80808080806129b4565b612b6e91925060203d602011612a9757612a8881836104cc565b905f612b2356fea26469706673582212207a35a5a0fffc9dca017501bdc3fabe4a5c4eb5a90a63f4358021f2a6ced35bf664736f6c634300081e00332f8788117e7eff1d82e926ec794901d17c78024a50270940304540a733656f0dce96a28fb06ca29ce31a17de45a1073cd88b8170e4a67f7f416f721e36bde95c30adeb818ef77f204f5a603c30fa5332397b6e28fb3b7f9d937ae6a6914716de4a18c22192f7476ec84391fce95952ace1237d522de16c98159f6d46d423ef363617319a054d772f909f7c479a2cebe5066e836a939412e32403c99029b92eff",
			"opcodes": "PUSH1 0xC0 PUSH1 0x40 MSTORE CALLVALUE PUSH2 0x2C6 JUMPI PUSH2 0x317E DUP1 CODESIZE SUB DUP1 PUSH2 0x19 DUP2 PUSH2 0x2CA JUMP JUMPDEST SWAP3 DUP4 CODECOPY DUP2 ADD SWAP1 PUSH1 0x60 DUP2 DUP4 SUB SLT PUSH2 0x2C6 JUMPI PUSH2 0x32 DUP2 PUSH2 0x2EF JUMP JUMPDEST PUSH2 0x3E PUSH1 0x20 DUP4 ADD PUSH2 0x2EF JUMP JUMPDEST PUSH1 0x40 DUP4 ADD MLOAD SWAP1 SWAP3 PUSH1 0x1 PUSH1 0x1 PUSH1 0x40 SHL SUB DUP3 GT PUSH2 0x2C6 JUMPI ADD DUP4 PUSH1 0x1F DUP3 ADD SLT ISZERO PUSH2 0x2C6 JUMPI DUP1 MLOAD SWAP1 PUSH1 0x1 PUSH1 0x1 PUSH1 0x40 SHL SUB DUP3 GT PUSH2 0x2B2 JUMPI PUSH2 0x83 PUSH1 0x1F DUP4 ADD PUSH1 0x1F NOT AND PUSH1 0x20 ADD PUSH2 0x2CA JUMP JUMPDEST SWAP5 DUP3 DUP7 MSTORE PUSH1 0x20 DUP4 DUP4 ADD ADD GT PUSH2 0x2C6 JUMPI DUP2 PUSH0 SWAP3 PUSH1 0x20 DUP1 SWAP4 ADD DUP4 DUP9 ADD MCOPY DUP6 ADD ADD MSTORE DUP3 MLOAD PUSH1 0x1 PUSH1 0x1 PUSH1 0x40 SHL SUB DUP2 GT PUSH2 0x2B2 JUMPI PUSH1 0x2 SLOAD PUSH1 0x1 DUP2 DUP2 SHR SWAP2 AND DUP1 ISZERO PUSH2 0x2A8 JUMPI JUMPDEST PUSH1 0x20 DUP3 LT EQ PUSH2 0x294 JUMPI PUSH1 0x1F DUP2 GT PUSH2 0x231 JUMPI JUMPDEST POP PUSH1 0x20 PUSH1 0x1F DUP3 GT PUSH1 0x1 EQ PUSH2 0x1CE JUMPI DUP2 SWAP3 SWAP4 SWAP5 PUSH0 SWAP3 PUSH2 0x1C3 JUMPI JUMPDEST POP POP DUP2 PUSH1 0x1 SHL SWAP2 PUSH0 NOT SWAP1 PUSH1 0x3 SHL SHR NOT AND OR PUSH1 0x2 SSTORE JUMPDEST PUSH1 0x1 PUSH1 0x5 DUP2 SWAP1 SSTORE PUSH8 0xDE0B6B3A7640000 PUSH1 0x6 SSTORE PUSH1 0x7 SSTORE PUSH1 0x1 PUSH1 0x1 PUSH1 0xA0 SHL SUB AND DUP1 ISZERO DUP1 ISZERO PUSH2 0x1B2 JUMPI JUMPDEST PUSH2 0x1A3 JUMPI PUSH1 0x80 MSTORE PUSH1 0x1 PUSH1 0x1 PUSH1 0xA0 SHL SUB AND PUSH1 0xA0 MSTORE PUSH2 0x147 CALLER PUSH2 0x303 JUMP JUMPDEST POP PUSH2 0x151 CALLER PUSH2 0x379 JUMP JUMPDEST POP PUSH2 0x15B CALLER PUSH2 0x40C JUMP JUMPDEST POP PUSH2 0x165 CALLER PUSH2 0x49F JUMP JUMPDEST POP PUSH1 0x40 MLOAD PUSH2 0x2BAB SWAP1 DUP2 PUSH2 0x533 DUP3 CODECOPY PUSH1 0x80 MLOAD DUP2 DUP2 DUP2 PUSH2 0xD98 ADD MSTORE PUSH2 0xF78 ADD MSTORE PUSH1 0xA0 MLOAD DUP2 DUP2 DUP2 PUSH2 0xC74 ADD MSTORE DUP2 DUP2 PUSH2 0x1008 ADD MSTORE DUP2 DUP2 PUSH2 0x11A6 ADD MSTORE PUSH2 0x1CF7 ADD MSTORE RETURN JUMPDEST PUSH4 0x1F2A2005 PUSH1 0xE0 SHL PUSH0 MSTORE PUSH1 0x4 PUSH0 REVERT JUMPDEST POP PUSH1 0x1 PUSH1 0x1 PUSH1 0xA0 SHL SUB DUP3 AND ISZERO PUSH2 0x12B JUMP JUMPDEST ADD MLOAD SWAP1 POP PUSH0 DUP1 PUSH2 0xEE JUMP JUMPDEST PUSH1 0x1F NOT DUP3 AND SWAP1 PUSH1 0x2 PUSH0 MSTORE DUP1 PUSH0 KECCAK256 SWAP2 PUSH0 JUMPDEST DUP2 DUP2 LT PUSH2 0x219 JUMPI POP SWAP6 DUP4 PUSH1 0x1 SWAP6 SWAP7 SWAP8 LT PUSH2 0x201 JUMPI JUMPDEST POP POP POP DUP2 SHL ADD PUSH1 0x2 SSTORE PUSH2 0x103 JUMP JUMPDEST ADD MLOAD PUSH0 NOT PUSH1 0xF8 DUP5 PUSH1 0x3 SHL AND SHR NOT AND SWAP1 SSTORE PUSH0 DUP1 DUP1 PUSH2 0x1F3 JUMP JUMPDEST SWAP2 SWAP3 PUSH1 0x20 PUSH1 0x1 DUP2 SWAP3 DUP7 DUP12 ADD MLOAD DUP2 SSTORE ADD SWAP5 ADD SWAP3 ADD PUSH2 0x1DE JUMP JUMPDEST PUSH1 0x2 PUSH0 MSTORE PUSH32 0x405787FA12A823E0F2B7631CC41B3BA8828B3321CA811111FA75CD3AA3BB5ACE PUSH1 0x1F DUP4 ADD PUSH1 0x5 SHR DUP2 ADD SWAP2 PUSH1 0x20 DUP5 LT PUSH2 0x28A JUMPI JUMPDEST PUSH1 0x1F ADD PUSH1 0x5 SHR ADD SWAP1 JUMPDEST DUP2 DUP2 LT PUSH2 0x27F JUMPI POP PUSH2 0xD5 JUMP JUMPDEST PUSH0 DUP2 SSTORE PUSH1 0x1 ADD PUSH2 0x272 JUMP JUMPDEST SWAP1 SWAP2 POP DUP2 SWAP1 PUSH2 0x269 JUMP JUMPDEST PUSH4 0x4E487B71 PUSH1 0xE0 SHL PUSH0 MSTORE PUSH1 0x22 PUSH1 0x4 MSTORE PUSH1 0x24 PUSH0 REVERT JUMPDEST SWAP1 PUSH1 0x7F AND SWAP1 PUSH2 0xC3 JUMP JUMPDEST PUSH4 0x4E487B71 PUSH1 0xE0 SHL PUSH0 MSTORE PUSH1 0x41 PUSH1 0x4 MSTORE PUSH1 0x24 PUSH0 REVERT JUMPDEST PUSH0 DUP1 REVERT JUMPDEST PUSH1 0x40 MLOAD SWAP2 SWAP1 PUSH1 0x1F ADD PUSH1 0x1F NOT AND DUP3 ADD PUSH1 0x1 PUSH1 0x1 PUSH1 0x40 SHL SUB DUP2 GT DUP4 DUP3 LT OR PUSH2 0x2B2 JUMPI PUSH1 0x40 MSTORE JUMP JUMPDEST MLOAD SWAP1 PUSH1 0x1 PUSH1 0x1 PUSH1 0xA0 SHL SUB DUP3 AND DUP3 SUB PUSH2 0x2C6 JUMPI JUMP JUMPDEST PUSH1 0x1 PUSH1 0x1 PUSH1 0xA0 SHL SUB DUP2 AND PUSH0 SWAP1 DUP2 MSTORE PUSH0 MLOAD PUSH1 0x20 PUSH2 0x315E PUSH0 CODECOPY PUSH0 MLOAD SWAP1 PUSH0 MSTORE PUSH1 0x20 MSTORE PUSH1 0x40 SWAP1 KECCAK256 SLOAD PUSH1 0xFF AND PUSH2 0x374 JUMPI PUSH1 0x1 PUSH1 0x1 PUSH1 0xA0 SHL SUB AND PUSH0 DUP2 DUP2 MSTORE PUSH0 MLOAD PUSH1 0x20 PUSH2 0x315E PUSH0 CODECOPY PUSH0 MLOAD SWAP1 PUSH0 MSTORE PUSH1 0x20 MSTORE PUSH1 0x40 DUP2 KECCAK256 DUP1 SLOAD PUSH1 0xFF NOT AND PUSH1 0x1 OR SWAP1 SSTORE CALLER SWAP2 SWAP1 PUSH0 MLOAD PUSH1 0x20 PUSH2 0x30DE PUSH0 CODECOPY PUSH0 MLOAD SWAP1 PUSH0 MSTORE DUP2 DUP1 LOG4 PUSH1 0x1 SWAP1 JUMP JUMPDEST POP PUSH0 SWAP1 JUMP JUMPDEST PUSH1 0x1 PUSH1 0x1 PUSH1 0xA0 SHL SUB DUP2 AND PUSH0 SWAP1 DUP2 MSTORE PUSH0 MLOAD PUSH1 0x20 PUSH2 0x30FE PUSH0 CODECOPY PUSH0 MLOAD SWAP1 PUSH0 MSTORE PUSH1 0x20 MSTORE PUSH1 0x40 SWAP1 KECCAK256 SLOAD PUSH1 0xFF AND PUSH2 0x374 JUMPI PUSH1 0x1 PUSH1 0x1 PUSH1 0xA0 SHL SUB AND PUSH0 DUP2 DUP2 MSTORE PUSH0 MLOAD PUSH1 0x20 PUSH2 0x30FE PUSH0 CODECOPY PUSH0 MLOAD SWAP1 PUSH0 MSTORE PUSH1 0x20 MSTORE PUSH1 0x40 DUP2 KECCAK256 DUP1 SLOAD PUSH1 0xFF NOT AND PUSH1 0x1 OR SWAP1 SSTORE CALLER SWAP2 SWAP1 PUSH32 0x9F29EEE2263C2102949FD3FEBAFB3DD6DBBAEE114F48A474222B2159942EB2B2 SWAP1 PUSH0 MLOAD PUSH1 0x20 PUSH2 0x30DE PUSH0 CODECOPY PUSH0 MLOAD SWAP1 PUSH0 MSTORE SWAP1 DUP1 LOG4 PUSH1 0x1 SWAP1 JUMP JUMPDEST PUSH1 0x1 PUSH1 0x1 PUSH1 0xA0 SHL SUB DUP2 AND PUSH0 SWAP1 DUP2 MSTORE PUSH0 MLOAD PUSH1 0x20 PUSH2 0x311E PUSH0 CODECOPY PUSH0 MLOAD SWAP1 PUSH0 MSTORE PUSH1 0x20 MSTORE PUSH1 0x40 SWAP1 KECCAK256 SLOAD PUSH1 0xFF AND PUSH2 0x374 JUMPI PUSH1 0x1 PUSH1 0x1 PUSH1 0xA0 SHL SUB AND PUSH0 DUP2 DUP2 MSTORE PUSH0 MLOAD PUSH1 0x20 PUSH2 0x311E PUSH0 CODECOPY PUSH0 MLOAD SWAP1 PUSH0 MSTORE PUSH1 0x20 MSTORE PUSH1 0x40 DUP2 KECCAK256 DUP1 SLOAD PUSH1 0xFF NOT AND PUSH1 0x1 OR SWAP1 SSTORE CALLER SWAP2 SWAP1 PUSH32 0x65D7A28E3265B37A6474929F336521B332C1681B933F6CB9F3376673440D862A SWAP1 PUSH0 MLOAD PUSH1 0x20 PUSH2 0x30DE PUSH0 CODECOPY PUSH0 MLOAD SWAP1 PUSH0 MSTORE SWAP1 DUP1 LOG4 PUSH1 0x1 SWAP1 JUMP JUMPDEST PUSH1 0x1 PUSH1 0x1 PUSH1 0xA0 SHL SUB DUP2 AND PUSH0 SWAP1 DUP2 MSTORE PUSH0 MLOAD PUSH1 0x20 PUSH2 0x313E PUSH0 CODECOPY PUSH0 MLOAD SWAP1 PUSH0 MSTORE PUSH1 0x20 MSTORE PUSH1 0x40 SWAP1 KECCAK256 SLOAD PUSH1 0xFF AND PUSH2 0x374 JUMPI PUSH1 0x1 PUSH1 0x1 PUSH1 0xA0 SHL SUB AND PUSH0 DUP2 DUP2 MSTORE PUSH0 MLOAD PUSH1 0x20 PUSH2 0x313E PUSH0 CODECOPY PUSH0 MLOAD SWAP1 PUSH0 MSTORE PUSH1 0x20 MSTORE PUSH1 0x40 DUP2 KECCAK256 DUP1 SLOAD PUSH1 0xFF NOT AND PUSH1 0x1 OR SWAP1 SSTORE CALLER SWAP2 SWAP1 PUSH32 0xBF233DD2AAFEB4D50879C4AA5C81E96D92F6E6945C906A58F9F2D1C1631B4B26 SWAP1 PUSH0 MLOAD PUSH1 0x20 PUSH2 0x30DE PUSH0 CODECOPY PUSH0 MLOAD SWAP1 PUSH0 MSTORE SWAP1 DUP1 LOG4 PUSH1 0x1 SWAP1 JUMP INVALID PUSH1 0x80 PUSH1 0x40 MSTORE PUSH1 0x4 CALLDATASIZE LT ISZERO PUSH2 0x11 JUMPI PUSH0 DUP1 REVERT JUMPDEST PUSH0 CALLDATALOAD PUSH1 0xE0 SHR DUP1 PUSH3 0xFDD58E EQ PUSH2 0x2A3 JUMPI DUP1 PUSH4 0x1FFC9A7 EQ PUSH2 0x29E JUMPI DUP1 PUSH4 0xE89341C EQ PUSH2 0x299 JUMPI DUP1 PUSH4 0x20DF4359 EQ PUSH2 0x294 JUMPI DUP1 PUSH4 0x248A9CA3 EQ PUSH2 0x28F JUMPI DUP1 PUSH4 0x2EB2C2D6 EQ PUSH2 0x28A JUMPI DUP1 PUSH4 0x2F2FF15D EQ PUSH2 0x285 JUMPI DUP1 PUSH4 0x34FCF437 EQ PUSH2 0x280 JUMPI DUP1 PUSH4 0x36568ABE EQ PUSH2 0x27B JUMPI DUP1 PUSH4 0x3B420A73 EQ PUSH2 0x276 JUMPI DUP1 PUSH4 0x3F4BA83A EQ PUSH2 0x271 JUMPI DUP1 PUSH4 0x4E1273F4 EQ PUSH2 0x26C JUMPI DUP1 PUSH4 0x546FDAD4 EQ PUSH2 0x267 JUMPI DUP1 PUSH4 0x5C975ABB EQ PUSH2 0x262 JUMPI DUP1 PUSH4 0x5E79C1DC EQ PUSH2 0x25D JUMPI DUP1 PUSH4 0x5ED6C1DB EQ PUSH2 0x258 JUMPI DUP1 PUSH4 0x6D8061B8 EQ PUSH2 0x253 JUMPI DUP1 PUSH4 0x6D8554E2 EQ PUSH2 0x24E JUMPI DUP1 PUSH4 0x6DD9CBD4 EQ PUSH2 0x249 JUMPI DUP1 PUSH4 0x74B334C5 EQ PUSH2 0x244 JUMPI DUP1 PUSH4 0x8456CB59 EQ PUSH2 0x23F JUMPI DUP1 PUSH4 0x8760550D EQ PUSH2 0x23A JUMPI DUP1 PUSH4 0x91D14854 EQ PUSH2 0x235 JUMPI DUP1 PUSH4 0x97E05E86 EQ PUSH2 0x230 JUMPI DUP1 PUSH4 0xA217FDDF EQ PUSH2 0x22B JUMPI DUP1 PUSH4 0xA22CB465 EQ PUSH2 0x226 JUMPI DUP1 PUSH4 0xAE5014B1 EQ PUSH2 0x221 JUMPI DUP1 PUSH4 0xB135BBB0 EQ PUSH2 0x21C JUMPI DUP1 PUSH4 0xBF034B69 EQ PUSH2 0x217 JUMPI DUP1 PUSH4 0xC21C64A7 EQ PUSH2 0x212 JUMPI DUP1 PUSH4 0xCB327B8B EQ PUSH2 0x20D JUMPI DUP1 PUSH4 0xCB4CD556 EQ PUSH2 0x208 JUMPI DUP1 PUSH4 0xCCD34CD5 EQ PUSH2 0x203 JUMPI DUP1 PUSH4 0xD547741F EQ PUSH2 0x1FE JUMPI DUP1 PUSH4 0xDF525B7D EQ PUSH2 0x1F9 JUMPI DUP1 PUSH4 0xE63AB1E9 EQ PUSH2 0x1F4 JUMPI DUP1 PUSH4 0xE63EA408 EQ PUSH2 0x1EF JUMPI DUP1 PUSH4 0xE8321987 EQ PUSH2 0x1EA JUMPI DUP1 PUSH4 0xE985E9C5 EQ PUSH2 0x1E5 JUMPI DUP1 PUSH4 0xF242432A EQ PUSH2 0x1E0 JUMPI PUSH4 0xFD44D274 EQ PUSH2 0x1DB JUMPI PUSH0 DUP1 REVERT JUMPDEST PUSH2 0x1814 JUMP JUMPDEST PUSH2 0x16E1 JUMP JUMPDEST PUSH2 0x1691 JUMP JUMPDEST PUSH2 0x1674 JUMP JUMPDEST PUSH2 0x1547 JUMP JUMPDEST PUSH2 0x150D JUMP JUMPDEST PUSH2 0x14F2 JUMP JUMPDEST PUSH2 0x14B4 JUMP JUMPDEST PUSH2 0x1492 JUMP JUMPDEST PUSH2 0x145A JUMP JUMPDEST PUSH2 0x1420 JUMP JUMPDEST PUSH2 0x13C8 JUMP JUMPDEST PUSH2 0x1324 JUMP JUMPDEST PUSH2 0x11D5 JUMP JUMPDEST PUSH2 0x1191 JUMP JUMPDEST PUSH2 0x10DF JUMP JUMPDEST PUSH2 0x10BB JUMP JUMPDEST PUSH2 0xF00 JUMP JUMPDEST PUSH2 0xEB1 JUMP JUMPDEST PUSH2 0xE8E JUMP JUMPDEST PUSH2 0xE35 JUMP JUMPDEST PUSH2 0xE01 JUMP JUMPDEST PUSH2 0xDE4 JUMP JUMPDEST PUSH2 0xDC7 JUMP JUMPDEST PUSH2 0xD83 JUMP JUMPDEST PUSH2 0xB5D JUMP JUMPDEST PUSH2 0xA6B JUMP JUMPDEST PUSH2 0x9C5 JUMP JUMPDEST PUSH2 0x953 JUMP JUMPDEST PUSH2 0x894 JUMP JUMPDEST PUSH2 0x7EA JUMP JUMPDEST PUSH2 0x7C9 JUMP JUMPDEST PUSH2 0x785 JUMP JUMPDEST PUSH2 0x6B1 JUMP JUMPDEST PUSH2 0x66E JUMP JUMPDEST PUSH2 0x5E2 JUMP JUMPDEST PUSH2 0x464 JUMP JUMPDEST PUSH2 0x42A JUMP JUMPDEST PUSH2 0x3F3 JUMP JUMPDEST PUSH2 0x346 JUMP JUMPDEST PUSH2 0x2EC JUMP JUMPDEST PUSH1 0x4 CALLDATALOAD SWAP1 PUSH1 0x1 PUSH1 0x1 PUSH1 0xA0 SHL SUB DUP3 AND DUP3 SUB PUSH2 0x2BE JUMPI JUMP JUMPDEST PUSH0 DUP1 REVERT JUMPDEST PUSH1 0x24 CALLDATALOAD SWAP1 PUSH1 0x1 PUSH1 0x1 PUSH1 0xA0 SHL SUB DUP3 AND DUP3 SUB PUSH2 0x2BE JUMPI JUMP JUMPDEST CALLDATALOAD SWAP1 PUSH1 0x1 PUSH1 0x1 PUSH1 0xA0 SHL SUB DUP3 AND DUP3 SUB PUSH2 0x2BE JUMPI JUMP JUMPDEST CALLVALUE PUSH2 0x2BE JUMPI PUSH1 0x40 CALLDATASIZE PUSH1 0x3 NOT ADD SLT PUSH2 0x2BE JUMPI PUSH1 0x20 PUSH2 0x32B PUSH2 0x30A PUSH2 0x2A8 JUMP JUMPDEST PUSH1 0x24 CALLDATALOAD PUSH0 MSTORE PUSH0 DUP4 MSTORE PUSH1 0x40 PUSH0 KECCAK256 SWAP1 PUSH1 0x1 DUP1 PUSH1 0xA0 SHL SUB AND PUSH0 MSTORE PUSH1 0x20 MSTORE PUSH1 0x40 PUSH0 KECCAK256 SWAP1 JUMP JUMPDEST SLOAD PUSH1 0x40 MLOAD SWAP1 DUP2 MSTORE RETURN JUMPDEST PUSH1 0x1 PUSH1 0x1 PUSH1 0xE0 SHL SUB NOT DUP2 AND SUB PUSH2 0x2BE JUMPI JUMP JUMPDEST CALLVALUE PUSH2 0x2BE JUMPI PUSH1 0x20 CALLDATASIZE PUSH1 0x3 NOT ADD SLT PUSH2 0x2BE JUMPI PUSH1 0x4 CALLDATALOAD PUSH2 0x363 DUP2 PUSH2 0x334 JUMP JUMPDEST PUSH4 0xFFFFFFFF PUSH1 0xE0 SHL AND PUSH4 0x7965DB0B PUSH1 0xE0 SHL DUP2 EQ SWAP1 DUP2 ISZERO PUSH2 0x38C JUMPI JUMPDEST POP PUSH1 0x40 MLOAD SWAP1 ISZERO ISZERO DUP2 MSTORE PUSH1 0x20 SWAP1 RETURN JUMPDEST PUSH4 0x6CDB3D13 PUSH1 0xE1 SHL DUP2 EQ SWAP2 POP DUP2 ISZERO PUSH2 0x3BE JUMPI JUMPDEST DUP2 ISZERO PUSH2 0x3AD JUMPI JUMPDEST POP PUSH0 PUSH2 0x37E JUMP JUMPDEST PUSH4 0x1FFC9A7 PUSH1 0xE0 SHL EQ SWAP1 POP PUSH0 PUSH2 0x3A6 JUMP JUMPDEST PUSH4 0x3A24D07 PUSH1 0xE2 SHL DUP2 EQ SWAP2 POP PUSH2 0x39F JUMP JUMPDEST DUP1 MLOAD DUP1 DUP4 MSTORE PUSH1 0x20 SWAP3 SWAP2 DUP2 SWAP1 DUP5 ADD DUP5 DUP5 ADD MCOPY PUSH0 DUP3 DUP3 ADD DUP5 ADD MSTORE PUSH1 0x1F ADD PUSH1 0x1F NOT AND ADD ADD SWAP1 JUMP JUMPDEST CALLVALUE PUSH2 0x2BE JUMPI PUSH1 0x20 CALLDATASIZE PUSH1 0x3 NOT ADD SLT PUSH2 0x2BE JUMPI PUSH2 0x426 PUSH2 0x412 PUSH1 0x4 CALLDATALOAD PUSH2 0x1936 JUMP JUMPDEST PUSH1 0x40 MLOAD SWAP2 DUP3 SWAP2 PUSH1 0x20 DUP4 MSTORE PUSH1 0x20 DUP4 ADD SWAP1 PUSH2 0x3CF JUMP JUMPDEST SUB SWAP1 RETURN JUMPDEST CALLVALUE PUSH2 0x2BE JUMPI PUSH0 CALLDATASIZE PUSH1 0x3 NOT ADD SLT PUSH2 0x2BE JUMPI PUSH1 0x20 PUSH1 0x40 MLOAD PUSH32 0xBF233DD2AAFEB4D50879C4AA5C81E96D92F6E6945C906A58F9F2D1C1631B4B26 DUP2 MSTORE RETURN JUMPDEST CALLVALUE PUSH2 0x2BE JUMPI PUSH1 0x20 CALLDATASIZE PUSH1 0x3 NOT ADD SLT PUSH2 0x2BE JUMPI PUSH1 0x20 PUSH2 0x48F PUSH1 0x4 CALLDATALOAD PUSH0 MSTORE PUSH1 0x3 PUSH1 0x20 MSTORE PUSH1 0x1 PUSH1 0x40 PUSH0 KECCAK256 ADD SLOAD SWAP1 JUMP JUMPDEST PUSH1 0x40 MLOAD SWAP1 DUP2 MSTORE RETURN JUMPDEST PUSH4 0x4E487B71 PUSH1 0xE0 SHL PUSH0 MSTORE PUSH1 0x41 PUSH1 0x4 MSTORE PUSH1 0x24 PUSH0 REVERT JUMPDEST PUSH2 0x100 DUP2 ADD SWAP1 DUP2 LT PUSH1 0x1 PUSH1 0x1 PUSH1 0x40 SHL SUB DUP3 GT OR PUSH2 0x4C7 JUMPI PUSH1 0x40 MSTORE JUMP JUMPDEST PUSH2 0x497 JUMP JUMPDEST SWAP1 PUSH1 0x1F DUP1 NOT SWAP2 ADD AND DUP2 ADD SWAP1 DUP2 LT PUSH1 0x1 PUSH1 0x1 PUSH1 0x40 SHL SUB DUP3 GT OR PUSH2 0x4C7 JUMPI PUSH1 0x40 MSTORE JUMP JUMPDEST PUSH1 0x40 MLOAD SWAP1 PUSH2 0x4FD PUSH2 0x100 DUP4 PUSH2 0x4CC JUMP JUMPDEST JUMP JUMPDEST PUSH1 0x1 PUSH1 0x1 PUSH1 0x40 SHL SUB DUP2 GT PUSH2 0x4C7 JUMPI PUSH1 0x5 SHL PUSH1 0x20 ADD SWAP1 JUMP JUMPDEST SWAP1 DUP1 PUSH1 0x1F DUP4 ADD SLT ISZERO PUSH2 0x2BE JUMPI DUP2 CALLDATALOAD PUSH2 0x52D DUP2 PUSH2 0x4FF JUMP JUMPDEST SWAP3 PUSH2 0x53B PUSH1 0x40 MLOAD SWAP5 DUP6 PUSH2 0x4CC JUMP JUMPDEST DUP2 DUP5 MSTORE PUSH1 0x20 DUP1 DUP6 ADD SWAP3 PUSH1 0x5 SHL DUP3 ADD ADD SWAP3 DUP4 GT PUSH2 0x2BE JUMPI PUSH1 0x20 ADD SWAP1 JUMPDEST DUP3 DUP3 LT PUSH2 0x563 JUMPI POP POP POP SWAP1 JUMP JUMPDEST DUP2 CALLDATALOAD DUP2 MSTORE PUSH1 0x20 SWAP2 DUP3 ADD SWAP2 ADD PUSH2 0x556 JUMP JUMPDEST PUSH1 0x1 PUSH1 0x1 PUSH1 0x40 SHL SUB DUP2 GT PUSH2 0x4C7 JUMPI PUSH1 0x1F ADD PUSH1 0x1F NOT AND PUSH1 0x20 ADD SWAP1 JUMP JUMPDEST SWAP3 SWAP2 SWAP3 PUSH2 0x59A DUP3 PUSH2 0x573 JUMP JUMPDEST SWAP2 PUSH2 0x5A8 PUSH1 0x40 MLOAD SWAP4 DUP5 PUSH2 0x4CC JUMP JUMPDEST DUP3 SWAP5 DUP2 DUP5 MSTORE DUP2 DUP4 ADD GT PUSH2 0x2BE JUMPI DUP3 DUP2 PUSH1 0x20 SWAP4 DUP5 PUSH0 SWAP7 ADD CALLDATACOPY ADD ADD MSTORE JUMP JUMPDEST SWAP1 DUP1 PUSH1 0x1F DUP4 ADD SLT ISZERO PUSH2 0x2BE JUMPI DUP2 PUSH1 0x20 PUSH2 0x5DF SWAP4 CALLDATALOAD SWAP2 ADD PUSH2 0x58E JUMP JUMPDEST SWAP1 JUMP JUMPDEST CALLVALUE PUSH2 0x2BE JUMPI PUSH1 0xA0 CALLDATASIZE PUSH1 0x3 NOT ADD SLT PUSH2 0x2BE JUMPI PUSH2 0x5FB PUSH2 0x2A8 JUMP JUMPDEST PUSH2 0x603 PUSH2 0x2C2 JUMP JUMPDEST SWAP1 PUSH1 0x44 CALLDATALOAD PUSH1 0x1 PUSH1 0x1 PUSH1 0x40 SHL SUB DUP2 GT PUSH2 0x2BE JUMPI PUSH2 0x623 SWAP1 CALLDATASIZE SWAP1 PUSH1 0x4 ADD PUSH2 0x516 JUMP JUMPDEST PUSH1 0x64 CALLDATALOAD PUSH1 0x1 PUSH1 0x1 PUSH1 0x40 SHL SUB DUP2 GT PUSH2 0x2BE JUMPI PUSH2 0x642 SWAP1 CALLDATASIZE SWAP1 PUSH1 0x4 ADD PUSH2 0x516 JUMP JUMPDEST SWAP1 PUSH1 0x84 CALLDATALOAD SWAP4 PUSH1 0x1 PUSH1 0x1 PUSH1 0x40 SHL SUB DUP6 GT PUSH2 0x2BE JUMPI PUSH2 0x666 PUSH2 0x66C SWAP6 CALLDATASIZE SWAP1 PUSH1 0x4 ADD PUSH2 0x5C4 JUMP JUMPDEST SWAP4 PUSH2 0x1A3C JUMP JUMPDEST STOP JUMPDEST CALLVALUE PUSH2 0x2BE JUMPI PUSH1 0x40 CALLDATASIZE PUSH1 0x3 NOT ADD SLT PUSH2 0x2BE JUMPI PUSH2 0x66C PUSH1 0x4 CALLDATALOAD PUSH2 0x68D PUSH2 0x2C2 JUMP JUMPDEST SWAP1 PUSH2 0x6AC PUSH2 0x6A7 DUP3 PUSH0 MSTORE PUSH1 0x3 PUSH1 0x20 MSTORE PUSH1 0x1 PUSH1 0x40 PUSH0 KECCAK256 ADD SLOAD SWAP1 JUMP JUMPDEST PUSH2 0x22EA JUMP JUMPDEST PUSH2 0x2324 JUMP JUMPDEST CALLVALUE PUSH2 0x2BE JUMPI PUSH1 0x20 CALLDATASIZE PUSH1 0x3 NOT ADD SLT PUSH2 0x2BE JUMPI CALLER PUSH0 SWAP1 DUP2 MSTORE PUSH32 0xCE96A28FB06CA29CE31A17DE45A1073CD88B8170E4A67F7F416F721E36BDE95C PUSH1 0x20 MSTORE PUSH1 0x40 SWAP1 KECCAK256 SLOAD PUSH1 0x4 CALLDATALOAD SWAP1 PUSH1 0xFF AND ISZERO PUSH2 0x74E JUMPI DUP1 ISZERO PUSH2 0x73F JUMPI PUSH1 0x6 DUP1 SLOAD SWAP1 DUP3 SWAP1 SSTORE PUSH1 0x40 DUP1 MLOAD SWAP2 DUP3 MSTORE PUSH1 0x20 DUP3 ADD SWAP3 SWAP1 SWAP3 MSTORE PUSH32 0xB38780DDDE1F073D91C150DE2696F3F7085883648BA21CC5EF01029CB21D1916 SWAP2 SWAP1 LOG1 STOP JUMPDEST PUSH4 0x14CEE7CD PUSH1 0xE1 SHL PUSH0 MSTORE PUSH1 0x4 PUSH0 REVERT JUMPDEST PUSH4 0xE2517D3F PUSH1 0xE0 SHL PUSH0 MSTORE CALLER PUSH1 0x4 MSTORE PUSH32 0x9F29EEE2263C2102949FD3FEBAFB3DD6DBBAEE114F48A474222B2159942EB2B2 PUSH1 0x24 MSTORE PUSH1 0x44 PUSH0 REVERT JUMPDEST CALLVALUE PUSH2 0x2BE JUMPI PUSH1 0x40 CALLDATASIZE PUSH1 0x3 NOT ADD SLT PUSH2 0x2BE JUMPI PUSH1 0x4 CALLDATALOAD PUSH2 0x7A1 PUSH2 0x2C2 JUMP JUMPDEST CALLER PUSH1 0x1 PUSH1 0x1 PUSH1 0xA0 SHL SUB DUP3 AND SUB PUSH2 0x7BA JUMPI PUSH2 0x66C SWAP2 PUSH2 0x23AE JUMP JUMPDEST PUSH4 0x334BD919 PUSH1 0xE1 SHL PUSH0 MSTORE PUSH1 0x4 PUSH0 REVERT JUMPDEST CALLVALUE PUSH2 0x2BE JUMPI PUSH1 0x40 CALLDATASIZE PUSH1 0x3 NOT ADD SLT PUSH2 0x2BE JUMPI PUSH1 0x20 PUSH2 0x48F PUSH1 0x24 CALLDATALOAD PUSH1 0x4 CALLDATALOAD PUSH2 0x1AF8 JUMP JUMPDEST CALLVALUE PUSH2 0x2BE JUMPI PUSH0 CALLDATASIZE PUSH1 0x3 NOT ADD SLT PUSH2 0x2BE JUMPI PUSH2 0x802 PUSH2 0x220C JUMP JUMPDEST PUSH1 0x4 SLOAD PUSH1 0xFF DUP2 AND ISZERO PUSH2 0x841 JUMPI PUSH1 0xFF NOT AND PUSH1 0x4 SSTORE PUSH32 0x5DB9EE0A495BF2E6FF9C91A7834C1BA4FDD244A5E8AA4E537BD38AEAE4B073AA PUSH1 0x20 PUSH1 0x40 MLOAD CALLER DUP2 MSTORE LOG1 STOP JUMPDEST PUSH4 0x8DFC202B PUSH1 0xE0 SHL PUSH0 MSTORE PUSH1 0x4 PUSH0 REVERT JUMPDEST SWAP1 PUSH1 0x20 DUP1 DUP4 MLOAD SWAP3 DUP4 DUP2 MSTORE ADD SWAP3 ADD SWAP1 PUSH0 JUMPDEST DUP2 DUP2 LT PUSH2 0x86D JUMPI POP POP POP SWAP1 JUMP JUMPDEST DUP3 MLOAD DUP5 MSTORE PUSH1 0x20 SWAP4 DUP5 ADD SWAP4 SWAP1 SWAP3 ADD SWAP2 PUSH1 0x1 ADD PUSH2 0x860 JUMP JUMPDEST SWAP1 PUSH1 0x20 PUSH2 0x5DF SWAP3 DUP2 DUP2 MSTORE ADD SWAP1 PUSH2 0x850 JUMP JUMPDEST CALLVALUE PUSH2 0x2BE JUMPI PUSH1 0x40 CALLDATASIZE PUSH1 0x3 NOT ADD SLT PUSH2 0x2BE JUMPI PUSH1 0x4 CALLDATALOAD PUSH1 0x1 PUSH1 0x1 PUSH1 0x40 SHL SUB DUP2 GT PUSH2 0x2BE JUMPI CALLDATASIZE PUSH1 0x23 DUP3 ADD SLT ISZERO PUSH2 0x2BE JUMPI DUP1 PUSH1 0x4 ADD CALLDATALOAD SWAP1 PUSH2 0x8D0 DUP3 PUSH2 0x4FF JUMP JUMPDEST SWAP2 PUSH2 0x8DE PUSH1 0x40 MLOAD SWAP4 DUP5 PUSH2 0x4CC JUMP JUMPDEST DUP1 DUP4 MSTORE PUSH1 0x24 PUSH1 0x20 DUP5 ADD SWAP2 PUSH1 0x5 SHL DUP4 ADD ADD SWAP2 CALLDATASIZE DUP4 GT PUSH2 0x2BE JUMPI PUSH1 0x24 ADD SWAP1 JUMPDEST DUP3 DUP3 LT PUSH2 0x93B JUMPI DUP4 PUSH1 0x24 CALLDATALOAD PUSH1 0x1 PUSH1 0x1 PUSH1 0x40 SHL SUB DUP2 GT PUSH2 0x2BE JUMPI PUSH2 0x426 SWAP2 PUSH2 0x929 PUSH2 0x92F SWAP3 CALLDATASIZE SWAP1 PUSH1 0x4 ADD PUSH2 0x516 JUMP JUMPDEST SWAP1 PUSH2 0x1B5A JUMP JUMPDEST PUSH1 0x40 MLOAD SWAP2 DUP3 SWAP2 DUP3 PUSH2 0x883 JUMP JUMPDEST PUSH1 0x20 DUP1 SWAP2 PUSH2 0x948 DUP5 PUSH2 0x2D8 JUMP JUMPDEST DUP2 MSTORE ADD SWAP2 ADD SWAP1 PUSH2 0x8FB JUMP JUMPDEST CALLVALUE PUSH2 0x2BE JUMPI PUSH1 0x20 CALLDATASIZE PUSH1 0x3 NOT ADD SLT PUSH2 0x2BE JUMPI PUSH1 0x1 PUSH1 0x1 PUSH1 0xA0 SHL SUB PUSH2 0x974 PUSH2 0x2A8 JUMP JUMPDEST AND PUSH0 MSTORE PUSH1 0xB PUSH1 0x20 MSTORE PUSH1 0x40 PUSH0 KECCAK256 PUSH1 0x40 MLOAD SWAP1 DUP2 PUSH1 0x20 DUP3 SLOAD SWAP2 DUP3 DUP2 MSTORE ADD SWAP2 PUSH0 MSTORE PUSH1 0x20 PUSH0 KECCAK256 SWAP1 PUSH0 JUMPDEST DUP2 DUP2 LT PUSH2 0x9AF JUMPI PUSH2 0x426 DUP6 PUSH2 0x92F DUP2 DUP8 SUB DUP3 PUSH2 0x4CC JUMP JUMPDEST DUP3 SLOAD DUP5 MSTORE PUSH1 0x20 SWAP1 SWAP4 ADD SWAP3 PUSH1 0x1 SWAP3 DUP4 ADD SWAP3 ADD PUSH2 0x998 JUMP JUMPDEST CALLVALUE PUSH2 0x2BE JUMPI PUSH0 CALLDATASIZE PUSH1 0x3 NOT ADD SLT PUSH2 0x2BE JUMPI PUSH1 0x20 PUSH1 0xFF PUSH1 0x4 SLOAD AND PUSH1 0x40 MLOAD SWAP1 ISZERO ISZERO DUP2 MSTORE RETURN JUMPDEST PUSH2 0x5DF SWAP1 PUSH1 0x20 DUP2 MSTORE PUSH1 0x1 DUP1 PUSH1 0xA0 SHL SUB DUP4 MLOAD AND PUSH1 0x20 DUP3 ADD MSTORE PUSH2 0x100 PUSH1 0xE0 PUSH2 0xA35 PUSH2 0xA1F PUSH1 0x20 DUP8 ADD MLOAD DUP5 PUSH1 0x40 DUP8 ADD MSTORE PUSH2 0x120 DUP7 ADD SWAP1 PUSH2 0x3CF JUMP JUMPDEST PUSH1 0x40 DUP8 ADD MLOAD DUP6 DUP3 SUB PUSH1 0x1F NOT ADD PUSH1 0x60 DUP8 ADD MSTORE PUSH2 0x3CF JUMP JUMPDEST PUSH1 0x60 DUP7 ADD MLOAD PUSH1 0xFF AND PUSH1 0x80 DUP6 ADD MSTORE SWAP5 PUSH1 0x80 DUP2 ADD MLOAD PUSH1 0xA0 DUP6 ADD MSTORE PUSH1 0xA0 DUP2 ADD MLOAD PUSH1 0xC0 DUP6 ADD MSTORE PUSH1 0xC0 DUP2 ADD MLOAD DUP3 DUP6 ADD MSTORE ADD MLOAD SWAP2 ADD SWAP1 ISZERO ISZERO SWAP1 MSTORE JUMP JUMPDEST CALLVALUE PUSH2 0x2BE JUMPI PUSH1 0x20 CALLDATASIZE PUSH1 0x3 NOT ADD SLT PUSH2 0x2BE JUMPI PUSH1 0x4 CALLDATALOAD PUSH0 PUSH1 0xE0 PUSH1 0x40 MLOAD PUSH2 0xA8E DUP2 PUSH2 0x4AB JUMP JUMPDEST DUP3 DUP2 MSTORE PUSH1 0x60 PUSH1 0x20 DUP3 ADD MSTORE PUSH1 0x60 PUSH1 0x40 DUP3 ADD MSTORE DUP3 PUSH1 0x60 DUP3 ADD MSTORE DUP3 PUSH1 0x80 DUP3 ADD MSTORE DUP3 PUSH1 0xA0 DUP3 ADD MSTORE DUP3 PUSH1 0xC0 DUP3 ADD MSTORE ADD MSTORE PUSH0 MSTORE PUSH1 0xA PUSH1 0x20 MSTORE PUSH2 0x426 PUSH1 0x40 PUSH0 KECCAK256 PUSH2 0xB51 PUSH2 0xB48 PUSH1 0x7 PUSH2 0xAD7 PUSH2 0x4ED JUMP JUMPDEST DUP5 SLOAD PUSH1 0x1 PUSH1 0x1 PUSH1 0xA0 SHL SUB AND DUP2 MSTORE SWAP4 PUSH2 0xAF1 PUSH1 0x1 DUP3 ADD PUSH2 0x122A JUMP JUMPDEST PUSH1 0x20 DUP7 ADD MSTORE PUSH2 0xB02 PUSH1 0x2 DUP3 ADD PUSH2 0x122A JUMP JUMPDEST PUSH1 0x40 DUP7 ADD MSTORE PUSH2 0xB22 PUSH2 0xB18 PUSH1 0x3 DUP4 ADD SLOAD PUSH1 0xFF AND SWAP1 JUMP JUMPDEST PUSH1 0xFF AND PUSH1 0x60 DUP8 ADD MSTORE JUMP JUMPDEST PUSH1 0x4 DUP2 ADD SLOAD PUSH1 0x80 DUP7 ADD MSTORE PUSH1 0x5 DUP2 ADD SLOAD PUSH1 0xA0 DUP7 ADD MSTORE PUSH1 0x6 DUP2 ADD SLOAD PUSH1 0xC0 DUP7 ADD MSTORE ADD SLOAD PUSH1 0xFF AND SWAP1 JUMP JUMPDEST ISZERO ISZERO PUSH1 0xE0 DUP4 ADD MSTORE JUMP JUMPDEST PUSH1 0x40 MLOAD SWAP2 DUP3 SWAP2 DUP3 PUSH2 0x9E7 JUMP JUMPDEST CALLVALUE PUSH2 0x2BE JUMPI PUSH1 0x40 CALLDATASIZE PUSH1 0x3 NOT ADD SLT PUSH2 0x2BE JUMPI PUSH1 0x24 CALLDATALOAD PUSH1 0x4 CALLDATALOAD PUSH2 0xB7C PUSH2 0x2436 JUMP JUMPDEST PUSH2 0xB84 PUSH2 0x2451 JUMP JUMPDEST DUP2 ISZERO PUSH2 0xD74 JUMPI PUSH2 0xB9C DUP2 PUSH0 MSTORE PUSH1 0xA PUSH1 0x20 MSTORE PUSH1 0x40 PUSH0 KECCAK256 SWAP1 JUMP JUMPDEST PUSH2 0xBB1 PUSH2 0xBAD PUSH1 0x7 DUP4 ADD SLOAD PUSH1 0xFF AND SWAP1 JUMP JUMPDEST ISZERO SWAP1 JUMP JUMPDEST PUSH2 0xD65 JUMPI DUP2 ISZERO DUP1 ISZERO PUSH2 0xD59 JUMPI JUMPDEST PUSH2 0xD4A JUMPI DUP3 PUSH2 0xBED CALLER PUSH2 0xBD8 DUP6 PUSH0 MSTORE PUSH0 PUSH1 0x20 MSTORE PUSH1 0x40 PUSH0 KECCAK256 SWAP1 JUMP JUMPDEST SWAP1 PUSH1 0x1 DUP1 PUSH1 0xA0 SHL SUB AND PUSH0 MSTORE PUSH1 0x20 MSTORE PUSH1 0x40 PUSH0 KECCAK256 SWAP1 JUMP JUMPDEST SLOAD LT PUSH2 0xD3B JUMPI PUSH2 0xC0F PUSH2 0xC04 PUSH1 0x5 DUP4 ADD SLOAD DUP6 PUSH2 0x1AC7 JUMP JUMPDEST PUSH1 0x4 DUP4 ADD SLOAD SWAP1 PUSH2 0x1ADA JUMP JUMPDEST SWAP1 DUP2 PUSH1 0xC SLOAD LT PUSH2 0xD2C JUMPI PUSH1 0x6 SWAP1 PUSH2 0xC27 DUP6 DUP6 CALLER PUSH2 0x2471 JUMP JUMPDEST ADD PUSH2 0xC33 DUP5 DUP3 SLOAD PUSH2 0x1C1C JUMP JUMPDEST SWAP1 SSTORE PUSH2 0xC49 PUSH2 0xC44 DUP3 PUSH1 0xC SLOAD PUSH2 0x1C1C JUMP JUMPDEST PUSH1 0xC SSTORE JUMP JUMPDEST PUSH1 0x40 MLOAD PUSH4 0xA9059CBB PUSH1 0xE0 SHL DUP2 MSTORE CALLER PUSH1 0x4 DUP3 ADD MSTORE PUSH1 0x24 DUP2 ADD DUP3 SWAP1 MSTORE PUSH1 0x20 DUP2 PUSH1 0x44 DUP2 PUSH0 PUSH1 0x1 PUSH1 0x1 PUSH1 0xA0 SHL SUB PUSH32 0x0 AND GAS CALL SWAP1 DUP2 ISZERO PUSH2 0xD27 JUMPI PUSH0 SWAP2 PUSH2 0xCF8 JUMPI JUMPDEST POP ISZERO PUSH2 0xCE9 JUMPI PUSH1 0x40 DUP1 MLOAD SWAP4 DUP5 MSTORE PUSH1 0x20 DUP5 ADD SWAP2 SWAP1 SWAP2 MSTORE CALLER SWAP3 PUSH32 0xEFD5D515529A8F76C5944B1D953CDE6B2C61C8B81E144C964AEB038714CABCA6 SWAP2 SWAP1 LOG3 PUSH2 0x66C PUSH1 0x1 PUSH1 0x5 SSTORE JUMP JUMPDEST PUSH4 0x12171D83 PUSH1 0xE3 SHL PUSH0 MSTORE PUSH1 0x4 PUSH0 REVERT JUMPDEST PUSH2 0xD1A SWAP2 POP PUSH1 0x20 RETURNDATASIZE PUSH1 0x20 GT PUSH2 0xD20 JUMPI JUMPDEST PUSH2 0xD12 DUP2 DUP4 PUSH2 0x4CC JUMP JUMPDEST DUP2 ADD SWAP1 PUSH2 0x1C29 JUMP JUMPDEST PUSH0 PUSH2 0xCA4 JUMP JUMPDEST POP RETURNDATASIZE PUSH2 0xD08 JUMP JUMPDEST PUSH2 0x1C3E JUMP JUMPDEST PUSH4 0x31D2F709 PUSH1 0xE0 SHL PUSH0 MSTORE PUSH1 0x4 PUSH0 REVERT JUMPDEST PUSH4 0x2CA2F52B PUSH1 0xE1 SHL PUSH0 MSTORE PUSH1 0x4 PUSH0 REVERT JUMPDEST PUSH4 0xBB97CC9B PUSH1 0xE0 SHL PUSH0 MSTORE PUSH1 0x4 PUSH0 REVERT JUMPDEST POP PUSH1 0x7 SLOAD DUP3 LT ISZERO PUSH2 0xBBE JUMP JUMPDEST PUSH4 0x7350D3B PUSH1 0xE1 SHL PUSH0 MSTORE PUSH1 0x4 PUSH0 REVERT JUMPDEST PUSH4 0x1F2A2005 PUSH1 0xE0 SHL PUSH0 MSTORE PUSH1 0x4 PUSH0 REVERT JUMPDEST CALLVALUE PUSH2 0x2BE JUMPI PUSH0 CALLDATASIZE PUSH1 0x3 NOT ADD SLT PUSH2 0x2BE JUMPI PUSH1 0x40 MLOAD PUSH32 0x0 PUSH1 0x1 PUSH1 0x1 PUSH1 0xA0 SHL SUB AND DUP2 MSTORE PUSH1 0x20 SWAP1 RETURN JUMPDEST CALLVALUE PUSH2 0x2BE JUMPI PUSH0 CALLDATASIZE PUSH1 0x3 NOT ADD SLT PUSH2 0x2BE JUMPI PUSH1 0x20 PUSH1 0xC SLOAD PUSH1 0x40 MLOAD SWAP1 DUP2 MSTORE RETURN JUMPDEST CALLVALUE PUSH2 0x2BE JUMPI PUSH0 CALLDATASIZE PUSH1 0x3 NOT ADD SLT PUSH2 0x2BE JUMPI PUSH1 0x20 PUSH1 0x6 SLOAD PUSH1 0x40 MLOAD SWAP1 DUP2 MSTORE RETURN JUMPDEST CALLVALUE PUSH2 0x2BE JUMPI PUSH1 0x20 CALLDATASIZE PUSH1 0x3 NOT ADD SLT PUSH2 0x2BE JUMPI PUSH1 0x20 PUSH8 0xDE0B6B3A7640000 PUSH2 0xE2C PUSH1 0x4 CALLDATALOAD PUSH1 0x6 SLOAD SWAP1 PUSH2 0x1AC7 JUMP JUMPDEST DIV PUSH1 0x40 MLOAD SWAP1 DUP2 MSTORE RETURN JUMPDEST CALLVALUE PUSH2 0x2BE JUMPI PUSH0 CALLDATASIZE PUSH1 0x3 NOT ADD SLT PUSH2 0x2BE JUMPI PUSH2 0xE4D PUSH2 0x220C JUMP JUMPDEST PUSH2 0xE55 PUSH2 0x2436 JUMP JUMPDEST PUSH1 0x1 PUSH1 0xFF NOT PUSH1 0x4 SLOAD AND OR PUSH1 0x4 SSTORE PUSH32 0x62E78CEA01BEE320CD4E420270B5EA74000D11B0C9F74754EBDBFC544B05A258 PUSH1 0x20 PUSH1 0x40 MLOAD CALLER DUP2 MSTORE LOG1 STOP JUMPDEST CALLVALUE PUSH2 0x2BE JUMPI PUSH0 CALLDATASIZE PUSH1 0x3 NOT ADD SLT PUSH2 0x2BE JUMPI PUSH1 0x20 PUSH1 0x40 MLOAD PUSH9 0x3635C9ADC5DEA00000 DUP2 MSTORE RETURN JUMPDEST CALLVALUE PUSH2 0x2BE JUMPI PUSH1 0x40 CALLDATASIZE PUSH1 0x3 NOT ADD SLT PUSH2 0x2BE JUMPI PUSH1 0x20 PUSH1 0xFF PUSH2 0xEF4 PUSH1 0x4 CALLDATALOAD PUSH2 0xED4 PUSH2 0x2C2 JUMP JUMPDEST SWAP1 PUSH0 MSTORE PUSH1 0x3 DUP5 MSTORE PUSH1 0x40 PUSH0 KECCAK256 SWAP1 PUSH1 0x1 DUP1 PUSH1 0xA0 SHL SUB AND PUSH0 MSTORE PUSH1 0x20 MSTORE PUSH1 0x40 PUSH0 KECCAK256 SWAP1 JUMP JUMPDEST SLOAD AND PUSH1 0x40 MLOAD SWAP1 ISZERO ISZERO DUP2 MSTORE RETURN JUMPDEST CALLVALUE PUSH2 0x2BE JUMPI PUSH1 0x20 CALLDATASIZE PUSH1 0x3 NOT ADD SLT PUSH2 0x2BE JUMPI PUSH1 0x4 CALLDATALOAD PUSH2 0xF1C PUSH2 0x2436 JUMP JUMPDEST PUSH2 0xF24 PUSH2 0x2451 JUMP JUMPDEST DUP1 ISZERO PUSH2 0xD74 JUMPI PUSH2 0xF47 PUSH2 0xF39 PUSH1 0x6 SLOAD DUP4 PUSH2 0x1AC7 JUMP JUMPDEST PUSH8 0xDE0B6B3A7640000 SWAP1 DIV SWAP1 JUMP JUMPDEST PUSH1 0x40 MLOAD PUSH4 0x23B872DD PUSH1 0xE0 SHL DUP2 MSTORE CALLER PUSH1 0x4 DUP3 ADD MSTORE ADDRESS PUSH1 0x24 DUP3 ADD MSTORE PUSH1 0x44 DUP2 ADD DUP4 SWAP1 MSTORE PUSH1 0x20 DUP2 PUSH1 0x64 DUP2 PUSH0 PUSH1 0x1 PUSH1 0x1 PUSH1 0xA0 SHL SUB PUSH32 0x0 AND GAS CALL SWAP1 DUP2 ISZERO PUSH2 0xD27 JUMPI PUSH0 SWAP2 PUSH2 0x109C JUMPI JUMPDEST POP ISZERO PUSH2 0xCE9 JUMPI CALLER PUSH0 SWAP1 DUP2 MSTORE PUSH1 0x8 PUSH1 0x20 MSTORE PUSH1 0x40 SWAP1 KECCAK256 PUSH2 0xFC7 DUP4 DUP3 SLOAD PUSH2 0x1C49 JUMP JUMPDEST SWAP1 SSTORE PUSH2 0xFDD PUSH2 0xFD8 DUP4 PUSH1 0x9 SLOAD PUSH2 0x1C49 JUMP JUMPDEST PUSH1 0x9 SSTORE JUMP JUMPDEST PUSH1 0x40 MLOAD PUSH4 0xA9059CBB PUSH1 0xE0 SHL DUP2 MSTORE CALLER PUSH1 0x4 DUP3 ADD MSTORE PUSH1 0x24 DUP2 ADD DUP3 SWAP1 MSTORE PUSH1 0x20 DUP2 PUSH1 0x44 DUP2 PUSH0 PUSH1 0x1 PUSH1 0x1 PUSH1 0xA0 SHL SUB PUSH32 0x0 AND GAS CALL SWAP1 DUP2 ISZERO PUSH2 0xD27 JUMPI PUSH0 SWAP2 PUSH2 0x107D JUMPI JUMPDEST POP ISZERO PUSH2 0xCE9 JUMPI PUSH1 0x40 DUP1 MLOAD SWAP3 DUP4 MSTORE PUSH1 0x20 DUP4 ADD SWAP2 SWAP1 SWAP2 MSTORE CALLER SWAP2 PUSH32 0x728EF7F9F5DA04913A2539A83B1D7620E12ED0FB6CA88328BDBA350F977CFF0F SWAP2 SWAP1 LOG2 PUSH2 0x66C PUSH1 0x1 PUSH1 0x5 SSTORE JUMP JUMPDEST PUSH2 0x1096 SWAP2 POP PUSH1 0x20 RETURNDATASIZE PUSH1 0x20 GT PUSH2 0xD20 JUMPI PUSH2 0xD12 DUP2 DUP4 PUSH2 0x4CC JUMP JUMPDEST PUSH0 PUSH2 0x1038 JUMP JUMPDEST PUSH2 0x10B5 SWAP2 POP PUSH1 0x20 RETURNDATASIZE PUSH1 0x20 GT PUSH2 0xD20 JUMPI PUSH2 0xD12 DUP2 DUP4 PUSH2 0x4CC JUMP JUMPDEST PUSH0 PUSH2 0xFA8 JUMP JUMPDEST CALLVALUE PUSH2 0x2BE JUMPI PUSH0 CALLDATASIZE PUSH1 0x3 NOT ADD SLT PUSH2 0x2BE JUMPI PUSH1 0x20 PUSH1 0x40 MLOAD PUSH0 DUP2 MSTORE RETURN JUMPDEST DUP1 ISZERO ISZERO SUB PUSH2 0x2BE JUMPI JUMP JUMPDEST CALLVALUE PUSH2 0x2BE JUMPI PUSH1 0x40 CALLDATASIZE PUSH1 0x3 NOT ADD SLT PUSH2 0x2BE JUMPI PUSH2 0x10F8 PUSH2 0x2A8 JUMP JUMPDEST PUSH1 0x24 CALLDATALOAD PUSH2 0x1104 DUP2 PUSH2 0x10D5 JUMP JUMPDEST PUSH1 0x1 PUSH1 0x1 PUSH1 0xA0 SHL SUB DUP3 AND SWAP2 DUP3 ISZERO PUSH2 0x117F JUMPI DUP2 PUSH2 0x113E PUSH2 0x114F SWAP3 CALLER PUSH0 MSTORE PUSH1 0x1 PUSH1 0x20 MSTORE PUSH1 0x40 PUSH0 KECCAK256 SWAP1 PUSH1 0x1 DUP1 PUSH1 0xA0 SHL SUB AND PUSH0 MSTORE PUSH1 0x20 MSTORE PUSH1 0x40 PUSH0 KECCAK256 SWAP1 JUMP JUMPDEST SWAP1 PUSH1 0xFF DUP1 NOT DUP4 SLOAD AND SWAP2 ISZERO ISZERO AND OR SWAP1 SSTORE JUMP JUMPDEST PUSH1 0x40 MLOAD SWAP1 ISZERO ISZERO DUP2 MSTORE PUSH32 0x17307EAB39AB6107E8899845AD3D59BD9653F200F220920489CA2B5937696C31 PUSH1 0x20 CALLER SWAP3 LOG3 STOP JUMPDEST PUSH3 0xCED3E1 PUSH1 0xE8 SHL PUSH0 MSTORE PUSH0 PUSH1 0x4 MSTORE PUSH1 0x24 PUSH0 REVERT JUMPDEST CALLVALUE PUSH2 0x2BE JUMPI PUSH0 CALLDATASIZE PUSH1 0x3 NOT ADD SLT PUSH2 0x2BE JUMPI PUSH1 0x40 MLOAD PUSH32 0x0 PUSH1 0x1 PUSH1 0x1 PUSH1 0xA0 SHL SUB AND DUP2 MSTORE PUSH1 0x20 SWAP1 RETURN JUMPDEST CALLVALUE PUSH2 0x2BE JUMPI PUSH0 CALLDATASIZE PUSH1 0x3 NOT ADD SLT PUSH2 0x2BE JUMPI PUSH1 0x20 PUSH1 0x7 SLOAD PUSH1 0x40 MLOAD SWAP1 DUP2 MSTORE RETURN JUMPDEST SWAP1 PUSH1 0x1 DUP3 DUP2 SHR SWAP3 AND DUP1 ISZERO PUSH2 0x1220 JUMPI JUMPDEST PUSH1 0x20 DUP4 LT EQ PUSH2 0x120C JUMPI JUMP JUMPDEST PUSH4 0x4E487B71 PUSH1 0xE0 SHL PUSH0 MSTORE PUSH1 0x22 PUSH1 0x4 MSTORE PUSH1 0x24 PUSH0 REVERT JUMPDEST SWAP2 PUSH1 0x7F AND SWAP2 PUSH2 0x1201 JUMP JUMPDEST SWAP1 PUSH1 0x40 MLOAD SWAP2 DUP3 PUSH0 DUP3 SLOAD SWAP3 PUSH2 0x123D DUP5 PUSH2 0x11F2 JUMP JUMPDEST DUP1 DUP5 MSTORE SWAP4 PUSH1 0x1 DUP2 AND SWAP1 DUP2 ISZERO PUSH2 0x12A6 JUMPI POP PUSH1 0x1 EQ PUSH2 0x1262 JUMPI JUMPDEST POP PUSH2 0x4FD SWAP3 POP SUB DUP4 PUSH2 0x4CC JUMP JUMPDEST SWAP1 POP PUSH0 SWAP3 SWAP2 SWAP3 MSTORE PUSH1 0x20 PUSH0 KECCAK256 SWAP1 PUSH0 SWAP2 JUMPDEST DUP2 DUP4 LT PUSH2 0x128A JUMPI POP POP SWAP1 PUSH1 0x20 PUSH2 0x4FD SWAP3 DUP3 ADD ADD PUSH0 PUSH2 0x1255 JUMP JUMPDEST PUSH1 0x20 SWAP2 SWAP4 POP DUP1 PUSH1 0x1 SWAP2 SLOAD DUP4 DUP6 DUP10 ADD ADD MSTORE ADD SWAP2 ADD SWAP1 SWAP2 DUP5 SWAP3 PUSH2 0x1271 JUMP JUMPDEST SWAP1 POP PUSH1 0x20 SWAP3 POP PUSH2 0x4FD SWAP5 SWAP2 POP PUSH1 0xFF NOT AND DUP3 DUP5 ADD MSTORE ISZERO ISZERO PUSH1 0x5 SHL DUP3 ADD ADD PUSH0 PUSH2 0x1255 JUMP JUMPDEST SWAP7 SWAP4 SWAP9 SWAP8 SWAP5 SWAP2 PUSH1 0xE0 SWAP7 SWAP4 PUSH2 0x12F9 PUSH2 0x1307 SWAP3 PUSH1 0xFF SWAP5 PUSH1 0x1 DUP1 PUSH1 0xA0 SHL SUB AND DUP12 MSTORE PUSH2 0x100 PUSH1 0x20 DUP13 ADD MSTORE PUSH2 0x100 DUP12 ADD SWAP1 PUSH2 0x3CF JUMP JUMPDEST SWAP1 DUP10 DUP3 SUB PUSH1 0x40 DUP12 ADD MSTORE PUSH2 0x3CF JUMP JUMPDEST SWAP9 AND PUSH1 0x60 DUP8 ADD MSTORE PUSH1 0x80 DUP7 ADD MSTORE PUSH1 0xA0 DUP6 ADD MSTORE PUSH1 0xC0 DUP5 ADD MSTORE ISZERO ISZERO SWAP2 ADD MSTORE JUMP JUMPDEST CALLVALUE PUSH2 0x2BE JUMPI PUSH1 0x20 CALLDATASIZE PUSH1 0x3 NOT ADD SLT PUSH2 0x2BE JUMPI PUSH1 0x4 CALLDATALOAD PUSH0 SWAP1 DUP2 MSTORE PUSH1 0xA PUSH1 0x20 MSTORE PUSH1 0x40 SWAP1 KECCAK256 DUP1 SLOAD PUSH1 0x1 PUSH1 0x1 PUSH1 0xA0 SHL SUB AND PUSH2 0x426 PUSH2 0x135F PUSH1 0x1 DUP5 ADD PUSH2 0x122A JUMP JUMPDEST SWAP3 PUSH2 0x136C PUSH1 0x2 DUP3 ADD PUSH2 0x122A JUMP JUMPDEST SWAP1 PUSH1 0xFF PUSH1 0x3 DUP3 ADD SLOAD AND PUSH1 0x4 DUP3 ADD SLOAD PUSH1 0x5 DUP4 ADD SLOAD SWAP2 PUSH1 0xFF PUSH1 0x7 PUSH1 0x6 DUP7 ADD SLOAD SWAP6 ADD SLOAD AND SWAP5 PUSH1 0x40 MLOAD SWAP9 DUP10 SWAP9 DUP10 PUSH2 0x12C8 JUMP JUMPDEST PUSH4 0x4E487B71 PUSH1 0xE0 SHL PUSH0 MSTORE PUSH1 0x32 PUSH1 0x4 MSTORE PUSH1 0x24 PUSH0 REVERT JUMPDEST DUP1 SLOAD DUP3 LT ISZERO PUSH2 0x13C3 JUMPI PUSH0 MSTORE PUSH1 0x20 PUSH0 KECCAK256 ADD SWAP1 PUSH0 SWAP1 JUMP JUMPDEST PUSH2 0x139A JUMP JUMPDEST CALLVALUE PUSH2 0x2BE JUMPI PUSH1 0x40 CALLDATASIZE PUSH1 0x3 NOT ADD SLT PUSH2 0x2BE JUMPI PUSH2 0x13E1 PUSH2 0x2A8 JUMP JUMPDEST PUSH1 0x1 PUSH1 0x1 PUSH1 0xA0 SHL SUB AND PUSH0 SWAP1 DUP2 MSTORE PUSH1 0xB PUSH1 0x20 MSTORE PUSH1 0x40 SWAP1 KECCAK256 DUP1 SLOAD PUSH1 0x24 CALLDATALOAD SWAP2 SWAP1 DUP3 LT ISZERO PUSH2 0x2BE JUMPI PUSH1 0x20 SWAP2 PUSH2 0x1411 SWAP2 PUSH2 0x13AE JUMP JUMPDEST SWAP1 SLOAD SWAP1 PUSH1 0x3 SHL SHR PUSH1 0x40 MLOAD SWAP1 DUP2 MSTORE RETURN JUMPDEST CALLVALUE PUSH2 0x2BE JUMPI PUSH0 CALLDATASIZE PUSH1 0x3 NOT ADD SLT PUSH2 0x2BE JUMPI PUSH1 0x20 PUSH1 0x40 MLOAD PUSH32 0x9F29EEE2263C2102949FD3FEBAFB3DD6DBBAEE114F48A474222B2159942EB2B2 DUP2 MSTORE RETURN JUMPDEST CALLVALUE PUSH2 0x2BE JUMPI PUSH1 0x20 CALLDATASIZE PUSH1 0x3 NOT ADD SLT PUSH2 0x2BE JUMPI PUSH1 0x1 PUSH1 0x1 PUSH1 0xA0 SHL SUB PUSH2 0x147B PUSH2 0x2A8 JUMP JUMPDEST AND PUSH0 MSTORE PUSH1 0x8 PUSH1 0x20 MSTORE PUSH1 0x20 PUSH1 0x40 PUSH0 KECCAK256 SLOAD PUSH1 0x40 MLOAD SWAP1 DUP2 MSTORE RETURN JUMPDEST CALLVALUE PUSH2 0x2BE JUMPI PUSH0 CALLDATASIZE PUSH1 0x3 NOT ADD SLT PUSH2 0x2BE JUMPI PUSH1 0x20 PUSH1 0x40 MLOAD PUSH8 0xDE0B6B3A7640000 DUP2 MSTORE RETURN JUMPDEST CALLVALUE PUSH2 0x2BE JUMPI PUSH1 0x40 CALLDATASIZE PUSH1 0x3 NOT ADD SLT PUSH2 0x2BE JUMPI PUSH2 0x66C PUSH1 0x4 CALLDATALOAD PUSH2 0x14D3 PUSH2 0x2C2 JUMP JUMPDEST SWAP1 PUSH2 0x14ED PUSH2 0x6A7 DUP3 PUSH0 MSTORE PUSH1 0x3 PUSH1 0x20 MSTORE PUSH1 0x1 PUSH1 0x40 PUSH0 KECCAK256 ADD SLOAD SWAP1 JUMP JUMPDEST PUSH2 0x23AE JUMP JUMPDEST CALLVALUE PUSH2 0x2BE JUMPI PUSH0 CALLDATASIZE PUSH1 0x3 NOT ADD SLT PUSH2 0x2BE JUMPI PUSH1 0x20 PUSH1 0x40 MLOAD PUSH1 0x12 DUP2 MSTORE RETURN JUMPDEST CALLVALUE PUSH2 0x2BE JUMPI PUSH0 CALLDATASIZE PUSH1 0x3 NOT ADD SLT PUSH2 0x2BE JUMPI PUSH1 0x20 PUSH1 0x40 MLOAD PUSH32 0x65D7A28E3265B37A6474929F336521B332C1681B933F6CB9F3376673440D862A DUP2 MSTORE RETURN JUMPDEST CALLVALUE PUSH2 0x2BE JUMPI PUSH1 0x60 CALLDATASIZE PUSH1 0x3 NOT ADD SLT PUSH2 0x2BE JUMPI PUSH2 0x1560 PUSH2 0x2A8 JUMP JUMPDEST PUSH2 0x1568 PUSH2 0x2C2 JUMP JUMPDEST PUSH1 0x44 CALLDATALOAD PUSH2 0x1573 PUSH2 0x227B JUMP JUMPDEST PUSH1 0x1 PUSH1 0x1 PUSH1 0xA0 SHL SUB DUP3 AND SWAP3 DUP4 ISZERO PUSH2 0xD74 JUMPI PUSH1 0x1 PUSH1 0x1 PUSH1 0xA0 SHL SUB AND SWAP2 DUP2 SWAP1 DUP4 PUSH2 0x15E7 JUMPI POP PUSH0 DUP1 DUP1 DUP1 SWAP4 DUP8 GAS CALL PUSH2 0x15A6 PUSH2 0x1C56 JUMP JUMPDEST POP ISZERO PUSH2 0xCE9 JUMPI PUSH2 0x15E2 PUSH32 0xF24EF89F38EADC1BDE50701AD6E4D6D11A2DC24F7CF834A486991F3883328504 SWAP2 JUMPDEST PUSH1 0x40 MLOAD SWAP1 DUP2 MSTORE SWAP1 DUP2 SWAP1 PUSH1 0x20 DUP3 ADD SWAP1 JUMP JUMPDEST SUB SWAP1 LOG3 STOP JUMPDEST PUSH1 0x40 MLOAD PUSH4 0xA9059CBB PUSH1 0xE0 SHL DUP2 MSTORE PUSH1 0x1 PUSH1 0x1 PUSH1 0xA0 SHL SUB SWAP2 SWAP1 SWAP2 AND PUSH1 0x4 DUP3 ADD MSTORE PUSH1 0x24 DUP2 ADD SWAP2 SWAP1 SWAP2 MSTORE PUSH1 0x20 DUP2 PUSH1 0x44 DUP2 PUSH0 DUP8 GAS CALL SWAP1 DUP2 ISZERO PUSH2 0xD27 JUMPI PUSH0 SWAP2 PUSH2 0x1655 JUMPI JUMPDEST POP ISZERO PUSH2 0xCE9 JUMPI PUSH2 0x15E2 PUSH32 0xF24EF89F38EADC1BDE50701AD6E4D6D11A2DC24F7CF834A486991F3883328504 SWAP2 PUSH2 0x15D2 JUMP JUMPDEST PUSH2 0x166E SWAP2 POP PUSH1 0x20 RETURNDATASIZE PUSH1 0x20 GT PUSH2 0xD20 JUMPI PUSH2 0xD12 DUP2 DUP4 PUSH2 0x4CC JUMP JUMPDEST PUSH0 PUSH2 0x1625 JUMP JUMPDEST CALLVALUE PUSH2 0x2BE JUMPI PUSH0 CALLDATASIZE PUSH1 0x3 NOT ADD SLT PUSH2 0x2BE JUMPI PUSH1 0x20 PUSH1 0x9 SLOAD PUSH1 0x40 MLOAD SWAP1 DUP2 MSTORE RETURN JUMPDEST CALLVALUE PUSH2 0x2BE JUMPI PUSH1 0x40 CALLDATASIZE PUSH1 0x3 NOT ADD SLT PUSH2 0x2BE JUMPI PUSH1 0x20 PUSH1 0xFF PUSH2 0xEF4 PUSH2 0x16B1 PUSH2 0x2A8 JUMP JUMPDEST PUSH2 0x16B9 PUSH2 0x2C2 JUMP JUMPDEST PUSH1 0x1 PUSH1 0x1 PUSH1 0xA0 SHL SUB SWAP2 DUP3 AND PUSH0 SWAP1 DUP2 MSTORE PUSH1 0x1 DUP7 MSTORE PUSH1 0x40 DUP1 DUP3 KECCAK256 SWAP3 SWAP1 SWAP4 AND DUP2 MSTORE PUSH1 0x20 SWAP2 SWAP1 SWAP2 MSTORE KECCAK256 SWAP1 JUMP JUMPDEST CALLVALUE PUSH2 0x2BE JUMPI PUSH1 0xA0 CALLDATASIZE PUSH1 0x3 NOT ADD SLT PUSH2 0x2BE JUMPI PUSH2 0x16FA PUSH2 0x2A8 JUMP JUMPDEST PUSH2 0x1702 PUSH2 0x2C2 JUMP JUMPDEST PUSH1 0x44 CALLDATALOAD SWAP1 PUSH1 0x64 CALLDATALOAD SWAP3 PUSH1 0x84 CALLDATALOAD PUSH1 0x1 PUSH1 0x1 PUSH1 0x40 SHL SUB DUP2 GT PUSH2 0x2BE JUMPI PUSH2 0x1729 SWAP1 CALLDATASIZE SWAP1 PUSH1 0x4 ADD PUSH2 0x5C4 JUMP JUMPDEST SWAP3 PUSH1 0x1 PUSH1 0x1 PUSH1 0xA0 SHL SUB DUP3 AND CALLER DUP2 EQ ISZERO DUP1 PUSH2 0x17C4 JUMPI JUMPDEST PUSH2 0x17AE JUMPI PUSH1 0x1 PUSH1 0x1 PUSH1 0xA0 SHL SUB DUP5 AND ISZERO PUSH2 0x179B JUMPI ISZERO PUSH2 0x1789 JUMPI PUSH2 0x66C SWAP5 PUSH2 0x1781 PUSH1 0x40 MLOAD SWAP3 PUSH1 0x1 DUP5 MSTORE PUSH1 0x20 DUP5 ADD MSTORE PUSH1 0x40 DUP4 ADD SWAP2 PUSH1 0x1 DUP4 MSTORE PUSH1 0x60 DUP5 ADD MSTORE PUSH1 0x80 DUP4 ADD PUSH1 0x40 MSTORE JUMP JUMPDEST SWAP3 SWAP1 SWAP2 PUSH2 0x2745 JUMP JUMPDEST PUSH3 0x6A0D45 PUSH1 0xE2 SHL PUSH0 MSTORE PUSH0 PUSH1 0x4 MSTORE PUSH1 0x24 PUSH0 REVERT JUMPDEST PUSH4 0x2BFA23E7 PUSH1 0xE1 SHL PUSH0 MSTORE PUSH0 PUSH1 0x4 MSTORE PUSH1 0x24 PUSH0 REVERT JUMPDEST PUSH4 0x711BEC91 PUSH1 0xE1 SHL PUSH0 MSTORE CALLER PUSH1 0x4 MSTORE PUSH1 0x24 MSTORE PUSH1 0x44 PUSH0 REVERT JUMPDEST POP PUSH0 DUP2 DUP2 MSTORE PUSH1 0x1 PUSH1 0x20 SWAP1 DUP2 MSTORE PUSH1 0x40 DUP1 DUP4 KECCAK256 CALLER DUP5 MSTORE SWAP1 SWAP2 MSTORE SWAP1 KECCAK256 SLOAD PUSH1 0xFF AND ISZERO PUSH2 0x173E JUMP JUMPDEST SWAP2 DUP2 PUSH1 0x1F DUP5 ADD SLT ISZERO PUSH2 0x2BE JUMPI DUP3 CALLDATALOAD SWAP2 PUSH1 0x1 PUSH1 0x1 PUSH1 0x40 SHL SUB DUP4 GT PUSH2 0x2BE JUMPI PUSH1 0x20 DUP4 DUP2 DUP7 ADD SWAP6 ADD ADD GT PUSH2 0x2BE JUMPI JUMP JUMPDEST CALLVALUE PUSH2 0x2BE JUMPI PUSH1 0x80 CALLDATASIZE PUSH1 0x3 NOT ADD SLT PUSH2 0x2BE JUMPI PUSH1 0x4 CALLDATALOAD PUSH1 0x24 CALLDATALOAD PUSH1 0x1 PUSH1 0x1 PUSH1 0x40 SHL SUB DUP2 GT PUSH2 0x2BE JUMPI PUSH2 0x1847 SWAP1 CALLDATASIZE SWAP1 PUSH1 0x4 ADD PUSH2 0x17E7 JUMP JUMPDEST PUSH1 0x44 SWAP3 SWAP2 SWAP3 CALLDATALOAD PUSH1 0x1 PUSH1 0x1 PUSH1 0x40 SHL SUB DUP2 GT PUSH2 0x2BE JUMPI PUSH2 0x1869 SWAP1 CALLDATASIZE SWAP1 PUSH1 0x4 ADD PUSH2 0x17E7 JUMP JUMPDEST SWAP1 PUSH1 0x64 CALLDATALOAD SWAP3 PUSH1 0xFF DUP5 AND DUP5 SUB PUSH2 0x2BE JUMPI PUSH2 0x426 SWAP6 PUSH2 0x15D2 SWAP6 PUSH2 0x1C85 JUMP JUMPDEST PUSH1 0x40 MLOAD SWAP1 PUSH2 0x1894 PUSH1 0x20 DUP4 PUSH2 0x4CC JUMP JUMPDEST PUSH0 DUP3 MSTORE JUMP JUMPDEST SWAP1 PUSH2 0x4FD PUSH2 0x191B PUSH1 0x7 PUSH2 0x18AA PUSH2 0x4ED JUMP JUMPDEST DUP6 SLOAD PUSH1 0x1 PUSH1 0x1 PUSH1 0xA0 SHL SUB AND DUP2 MSTORE SWAP5 PUSH2 0x18C4 PUSH1 0x1 DUP3 ADD PUSH2 0x122A JUMP JUMPDEST PUSH1 0x20 DUP8 ADD MSTORE PUSH2 0x18D5 PUSH1 0x2 DUP3 ADD PUSH2 0x122A JUMP JUMPDEST PUSH1 0x40 DUP8 ADD MSTORE PUSH2 0x18F5 PUSH2 0x18EB PUSH1 0x3 DUP4 ADD SLOAD PUSH1 0xFF AND SWAP1 JUMP JUMPDEST PUSH1 0xFF AND PUSH1 0x60 DUP9 ADD MSTORE JUMP JUMPDEST PUSH1 0x4 DUP2 ADD SLOAD PUSH1 0x80 DUP8 ADD MSTORE PUSH1 0x5 DUP2 ADD SLOAD PUSH1 0xA0 DUP8 ADD MSTORE PUSH1 0x6 DUP2 ADD SLOAD PUSH1 0xC0 DUP8 ADD MSTORE ADD SLOAD PUSH1 0xFF AND SWAP1 JUMP JUMPDEST ISZERO ISZERO PUSH1 0xE0 DUP5 ADD MSTORE JUMP JUMPDEST DUP1 MLOAD SWAP2 SWAP1 DUP3 SWAP1 PUSH1 0x20 ADD DUP3 MCOPY ADD PUSH0 DUP2 MSTORE SWAP1 JUMP JUMPDEST DUP1 ISZERO DUP1 ISZERO PUSH2 0x1A30 JUMPI JUMPDEST PUSH2 0x1A27 JUMPI PUSH2 0x1958 PUSH2 0x195D SWAP2 PUSH0 MSTORE PUSH1 0xA PUSH1 0x20 MSTORE PUSH1 0x40 PUSH0 KECCAK256 SWAP1 JUMP JUMPDEST PUSH2 0x1899 JUMP JUMPDEST PUSH2 0x196D PUSH2 0xBAD PUSH1 0xE0 DUP4 ADD MLOAD ISZERO ISZERO SWAP1 JUMP JUMPDEST PUSH2 0x1A27 JUMPI PUSH2 0x5DF DUP2 PUSH2 0x1A19 PUSH2 0x1A0C PUSH1 0x20 PUSH2 0x19DB SWAP6 ADD MLOAD SWAP3 PUSH2 0x19D5 PUSH2 0x19F3 PUSH2 0x19AE PUSH2 0x19A9 PUSH2 0x19A3 PUSH1 0x60 PUSH1 0x40 DUP8 ADD MLOAD SWAP7 ADD MLOAD PUSH1 0xFF AND SWAP1 JUMP JUMPDEST PUSH1 0xFF AND SWAP1 JUMP JUMPDEST PUSH2 0x2158 JUMP JUMPDEST SWAP3 PUSH2 0x19D5 PUSH1 0x40 MLOAD SWAP10 DUP11 SWAP9 PUSH2 0x19D5 PUSH1 0x20 DUP12 ADD PUSH1 0x9 SWAP1 PUSH9 0x3D913730B6B2911D11 PUSH1 0xB9 SHL DUP2 MSTORE ADD SWAP1 JUMP JUMPDEST SWAP1 PUSH2 0x1924 JUMP JUMPDEST PUSH12 0x11161139BCB6B137B6111D11 PUSH1 0xA1 SHL DUP2 MSTORE PUSH1 0xC ADD SWAP1 JUMP JUMPDEST PUSH13 0x1116113232B1B4B6B0B639911D PUSH1 0x99 SHL DUP2 MSTORE PUSH1 0xD ADD SWAP1 JUMP JUMPDEST PUSH1 0x7D PUSH1 0xF8 SHL DUP2 MSTORE PUSH1 0x1 ADD SWAP1 JUMP JUMPDEST SUB PUSH1 0x1F NOT DUP2 ADD DUP4 MSTORE DUP3 PUSH2 0x4CC JUMP JUMPDEST POP PUSH2 0x5DF PUSH2 0x1885 JUMP JUMPDEST POP PUSH1 0x7 SLOAD DUP2 LT ISZERO PUSH2 0x193F JUMP JUMPDEST SWAP4 SWAP3 SWAP2 SWAP1 PUSH1 0x1 PUSH1 0x1 PUSH1 0xA0 SHL SUB DUP6 AND CALLER DUP2 EQ ISZERO DUP1 PUSH2 0x1A75 JUMPI JUMPDEST PUSH2 0x17AE JUMPI PUSH1 0x1 PUSH1 0x1 PUSH1 0xA0 SHL SUB DUP3 AND ISZERO PUSH2 0x179B JUMPI ISZERO PUSH2 0x1789 JUMPI PUSH2 0x4FD SWAP5 PUSH2 0x2745 JUMP JUMPDEST POP PUSH0 DUP2 DUP2 MSTORE PUSH1 0x1 PUSH1 0x20 SWAP1 DUP2 MSTORE PUSH1 0x40 DUP1 DUP4 KECCAK256 CALLER DUP5 MSTORE SWAP1 SWAP2 MSTORE SWAP1 KECCAK256 SLOAD PUSH1 0xFF AND ISZERO PUSH2 0x1A54 JUMP JUMPDEST PUSH4 0x4E487B71 PUSH1 0xE0 SHL PUSH0 MSTORE PUSH1 0x11 PUSH1 0x4 MSTORE PUSH1 0x24 PUSH0 REVERT JUMPDEST SWAP1 PUSH1 0xA DUP3 MUL SWAP2 DUP1 DUP4 DIV PUSH1 0xA EQ SWAP1 ISZERO OR ISZERO PUSH2 0x1AC2 JUMPI JUMP JUMPDEST PUSH2 0x1A98 JUMP JUMPDEST DUP2 DUP2 MUL SWAP3 SWAP2 DUP2 ISZERO SWAP2 DUP5 DIV EQ OR ISZERO PUSH2 0x1AC2 JUMPI JUMP JUMPDEST DUP2 ISZERO PUSH2 0x1AE4 JUMPI DIV SWAP1 JUMP JUMPDEST PUSH4 0x4E487B71 PUSH1 0xE0 SHL PUSH0 MSTORE PUSH1 0x12 PUSH1 0x4 MSTORE PUSH1 0x24 PUSH0 REVERT JUMPDEST PUSH0 MSTORE PUSH1 0xA PUSH1 0x20 MSTORE PUSH1 0x40 PUSH0 KECCAK256 PUSH1 0xFF PUSH1 0x7 DUP3 ADD SLOAD AND ISZERO DUP1 ISZERO PUSH2 0x1B3A JUMPI JUMPDEST PUSH2 0x1B34 JUMPI PUSH1 0x4 PUSH2 0x1B2B PUSH2 0x5DF SWAP4 PUSH1 0x5 DUP5 ADD SLOAD SWAP1 PUSH2 0x1AC7 JUMP JUMPDEST SWAP2 ADD SLOAD SWAP1 PUSH2 0x1ADA JUMP JUMPDEST POP POP PUSH0 SWAP1 JUMP JUMPDEST POP PUSH1 0x4 DUP2 ADD SLOAD ISZERO PUSH2 0x1B13 JUMP JUMPDEST DUP1 MLOAD DUP3 LT ISZERO PUSH2 0x13C3 JUMPI PUSH1 0x20 SWAP2 PUSH1 0x5 SHL ADD ADD SWAP1 JUMP JUMPDEST SWAP2 SWAP1 SWAP2 DUP1 MLOAD DUP4 MLOAD DUP1 DUP3 SUB PUSH2 0x1BF9 JUMPI POP POP DUP1 MLOAD SWAP1 PUSH2 0x1B76 DUP3 PUSH2 0x4FF JUMP JUMPDEST SWAP2 PUSH2 0x1B84 PUSH1 0x40 MLOAD SWAP4 DUP5 PUSH2 0x4CC JUMP JUMPDEST DUP1 DUP4 MSTORE PUSH2 0x1B93 PUSH1 0x1F NOT SWAP2 PUSH2 0x4FF JUMP JUMPDEST ADD CALLDATASIZE PUSH1 0x20 DUP5 ADD CALLDATACOPY PUSH0 JUMPDEST DUP2 MLOAD DUP2 LT ISZERO PUSH2 0x1BF2 JUMPI DUP1 PUSH2 0x1BE1 PUSH1 0x1 SWAP3 PUSH1 0x5 SHL PUSH1 0x20 DUP1 DUP3 DUP8 ADD ADD MLOAD SWAP2 DUP10 ADD ADD MLOAD SWAP1 PUSH0 SWAP2 DUP3 MSTORE PUSH1 0x20 DUP3 DUP2 MSTORE PUSH1 0x40 DUP1 DUP5 KECCAK256 PUSH1 0x1 PUSH1 0x1 PUSH1 0xA0 SHL SUB SWAP1 SWAP4 AND DUP5 MSTORE SWAP2 SWAP1 MSTORE SWAP1 KECCAK256 SLOAD SWAP1 JUMP JUMPDEST PUSH2 0x1BEB DUP3 DUP7 PUSH2 0x1B46 JUMP JUMPDEST MSTORE ADD PUSH2 0x1B9C JUMP JUMPDEST POP SWAP1 SWAP3 POP POP JUMP JUMPDEST PUSH4 0x5B059991 PUSH1 0xE0 SHL PUSH0 MSTORE PUSH1 0x4 MSTORE PUSH1 0x24 MSTORE PUSH1 0x44 PUSH0 REVERT JUMPDEST PUSH0 NOT DUP2 ADD SWAP2 SWAP1 DUP3 GT PUSH2 0x1AC2 JUMPI JUMP JUMPDEST SWAP2 SWAP1 DUP3 SUB SWAP2 DUP3 GT PUSH2 0x1AC2 JUMPI JUMP JUMPDEST SWAP1 DUP2 PUSH1 0x20 SWAP2 SUB SLT PUSH2 0x2BE JUMPI MLOAD PUSH2 0x5DF DUP2 PUSH2 0x10D5 JUMP JUMPDEST PUSH1 0x40 MLOAD RETURNDATASIZE PUSH0 DUP3 RETURNDATACOPY RETURNDATASIZE SWAP1 REVERT JUMPDEST SWAP2 SWAP1 DUP3 ADD DUP1 SWAP3 GT PUSH2 0x1AC2 JUMPI JUMP JUMPDEST RETURNDATASIZE ISZERO PUSH2 0x1C80 JUMPI RETURNDATASIZE SWAP1 PUSH2 0x1C67 DUP3 PUSH2 0x573 JUMP JUMPDEST SWAP2 PUSH2 0x1C75 PUSH1 0x40 MLOAD SWAP4 DUP5 PUSH2 0x4CC JUMP JUMPDEST DUP3 MSTORE RETURNDATASIZE PUSH0 PUSH1 0x20 DUP5 ADD RETURNDATACOPY JUMP JUMPDEST PUSH1 0x60 SWAP1 JUMP JUMPDEST SWAP5 SWAP2 SWAP4 SWAP3 SWAP1 SWAP4 PUSH2 0x1C93 PUSH2 0x2436 JUMP JUMPDEST PUSH2 0x1C9B PUSH2 0x2451 JUMP JUMPDEST PUSH9 0x3635C9ADC5DEA00000 DUP7 LT PUSH2 0xD3B JUMPI PUSH1 0x12 PUSH1 0xFF DUP5 AND GT PUSH2 0x1E84 JUMPI PUSH1 0x32 DUP2 GT PUSH2 0x1E75 JUMPI PUSH1 0xA DUP5 GT PUSH2 0x1E66 JUMPI PUSH1 0x40 MLOAD PUSH4 0x23B872DD PUSH1 0xE0 SHL DUP2 MSTORE CALLER PUSH1 0x4 DUP3 ADD MSTORE ADDRESS PUSH1 0x24 DUP3 ADD MSTORE PUSH1 0x44 DUP2 ADD DUP8 SWAP1 MSTORE PUSH1 0x20 DUP2 PUSH1 0x64 DUP2 PUSH0 PUSH1 0x1 PUSH1 0x1 PUSH1 0xA0 SHL SUB PUSH32 0x0 AND GAS CALL SWAP1 DUP2 ISZERO PUSH2 0xD27 JUMPI PUSH0 SWAP2 PUSH2 0x1E47 JUMPI JUMPDEST POP ISZERO PUSH2 0xCE9 JUMPI PUSH2 0x1E3A PUSH32 0x209E4CC824C27FB4D0B3D56450B5CDEAD204B21BFB8286755C4865B577A8A28F SWAP4 PUSH2 0x1D61 PUSH2 0xC44 DUP10 PUSH1 0xC SLOAD PUSH2 0x1C49 JUMP JUMPDEST PUSH1 0x7 SLOAD SWAP8 DUP9 SWAP7 PUSH2 0x1D78 PUSH2 0x1D73 DUP10 PUSH2 0x1E93 JUMP JUMPDEST PUSH1 0x7 SSTORE JUMP JUMPDEST PUSH2 0x1E00 PUSH2 0x1D90 PUSH2 0xF39 PUSH2 0x1D8A DUP7 PUSH2 0x1EA1 JUMP JUMPDEST DUP6 PUSH2 0x1AC7 JUMP JUMPDEST SWAP4 PUSH2 0x1DCA PUSH2 0x1D9C PUSH2 0x4ED JUMP JUMPDEST CALLER DUP2 MSTORE SWAP2 PUSH2 0x1DAB CALLDATASIZE DUP11 DUP16 PUSH2 0x58E JUMP JUMPDEST PUSH1 0x20 DUP5 ADD MSTORE PUSH2 0x1DBB CALLDATASIZE DUP7 DUP13 PUSH2 0x58E JUMP JUMPDEST PUSH1 0x40 DUP5 ADD MSTORE PUSH1 0xFF AND PUSH1 0x60 DUP4 ADD MSTORE JUMP JUMPDEST DUP5 PUSH1 0x80 DUP3 ADD MSTORE DUP4 PUSH1 0xA0 DUP3 ADD MSTORE DUP5 PUSH1 0xC0 DUP3 ADD MSTORE PUSH2 0x1DE9 PUSH1 0xE0 DUP3 ADD PUSH1 0x1 SWAP1 MSTORE JUMP JUMPDEST PUSH2 0x1DFB DUP11 PUSH0 MSTORE PUSH1 0xA PUSH1 0x20 MSTORE PUSH1 0x40 PUSH0 KECCAK256 SWAP1 JUMP JUMPDEST PUSH2 0x1FCC JUMP JUMPDEST CALLER PUSH0 SWAP1 DUP2 MSTORE PUSH1 0xB PUSH1 0x20 MSTORE PUSH1 0x40 SWAP1 KECCAK256 PUSH2 0x1E19 SWAP1 DUP10 SWAP1 PUSH2 0x2074 JUMP JUMPDEST PUSH2 0x1E2C PUSH2 0x1E24 PUSH2 0x1885 JUMP JUMPDEST DUP5 DUP11 CALLER PUSH2 0x2601 JUMP JUMPDEST PUSH1 0x40 MLOAD SWAP6 DUP7 SWAP6 CALLER SWAP11 DUP8 PUSH2 0x20CD JUMP JUMPDEST SUB SWAP1 LOG3 PUSH2 0x5DF PUSH1 0x1 PUSH1 0x5 SSTORE JUMP JUMPDEST PUSH2 0x1E60 SWAP2 POP PUSH1 0x20 RETURNDATASIZE PUSH1 0x20 GT PUSH2 0xD20 JUMPI PUSH2 0xD12 DUP2 DUP4 PUSH2 0x4CC JUMP JUMPDEST PUSH0 PUSH2 0x1D27 JUMP JUMPDEST PUSH4 0x1124F78B PUSH1 0xE0 SHL PUSH0 MSTORE PUSH1 0x4 PUSH0 REVERT JUMPDEST PUSH4 0x680B6CAF PUSH1 0xE0 SHL PUSH0 MSTORE PUSH1 0x4 PUSH0 REVERT JUMPDEST PUSH4 0x692ACC5 PUSH1 0xE5 SHL PUSH0 MSTORE PUSH1 0x4 PUSH0 REVERT JUMPDEST PUSH0 NOT DUP2 EQ PUSH2 0x1AC2 JUMPI PUSH1 0x1 ADD SWAP1 JUMP JUMPDEST PUSH1 0xFF AND PUSH1 0x4D DUP2 GT PUSH2 0x1AC2 JUMPI PUSH1 0xA EXP SWAP1 JUMP JUMPDEST PUSH1 0x1F DUP3 GT PUSH2 0x1EBF JUMPI POP POP POP JUMP JUMPDEST PUSH0 MSTORE PUSH1 0x20 PUSH0 KECCAK256 SWAP1 PUSH1 0x20 PUSH1 0x1F DUP5 ADD PUSH1 0x5 SHR DUP4 ADD SWAP4 LT PUSH2 0x1EF7 JUMPI JUMPDEST PUSH1 0x1F ADD PUSH1 0x5 SHR ADD SWAP1 JUMPDEST DUP2 DUP2 LT PUSH2 0x1EEC JUMPI POP POP JUMP JUMPDEST PUSH0 DUP2 SSTORE PUSH1 0x1 ADD PUSH2 0x1EE1 JUMP JUMPDEST SWAP1 SWAP2 POP DUP2 SWAP1 PUSH2 0x1ED8 JUMP JUMPDEST SWAP2 SWAP1 SWAP2 DUP3 MLOAD PUSH1 0x1 PUSH1 0x1 PUSH1 0x40 SHL SUB DUP2 GT PUSH2 0x4C7 JUMPI PUSH2 0x1F28 DUP2 PUSH2 0x1F22 DUP5 SLOAD PUSH2 0x11F2 JUMP JUMPDEST DUP5 PUSH2 0x1EB2 JUMP JUMPDEST PUSH1 0x20 PUSH1 0x1F DUP3 GT PUSH1 0x1 EQ PUSH2 0x1F67 JUMPI DUP2 SWAP1 PUSH2 0x1F58 SWAP4 SWAP5 SWAP6 PUSH0 SWAP3 PUSH2 0x1F5C JUMPI JUMPDEST POP POP DUP2 PUSH1 0x1 SHL SWAP2 PUSH0 NOT SWAP1 PUSH1 0x3 SHL SHR NOT AND OR SWAP1 JUMP JUMPDEST SWAP1 SSTORE JUMP JUMPDEST ADD MLOAD SWAP1 POP PUSH0 DUP1 PUSH2 0x1F44 JUMP JUMPDEST PUSH1 0x1F NOT DUP3 AND SWAP1 PUSH2 0x1F7A DUP5 PUSH0 MSTORE PUSH1 0x20 PUSH0 KECCAK256 SWAP1 JUMP JUMPDEST SWAP2 PUSH0 JUMPDEST DUP2 DUP2 LT PUSH2 0x1FB4 JUMPI POP SWAP6 DUP4 PUSH1 0x1 SWAP6 SWAP7 SWAP8 LT PUSH2 0x1F9C JUMPI JUMPDEST POP POP POP DUP2 SHL ADD SWAP1 SSTORE JUMP JUMPDEST ADD MLOAD PUSH0 NOT PUSH1 0xF8 DUP5 PUSH1 0x3 SHL AND SHR NOT AND SWAP1 SSTORE PUSH0 DUP1 DUP1 PUSH2 0x1F92 JUMP JUMPDEST SWAP2 SWAP3 PUSH1 0x20 PUSH1 0x1 DUP2 SWAP3 DUP7 DUP12 ADD MLOAD DUP2 SSTORE ADD SWAP5 ADD SWAP3 ADD PUSH2 0x1F7D JUMP JUMPDEST DUP2 MLOAD DUP2 SLOAD PUSH1 0x1 PUSH1 0x1 PUSH1 0xA0 SHL SUB NOT AND PUSH1 0x1 PUSH1 0x1 PUSH1 0xA0 SHL SUB SWAP1 SWAP2 AND OR DUP2 SSTORE PUSH2 0x4FD SWAP2 PUSH1 0x7 SWAP1 PUSH2 0x2061 SWAP1 PUSH1 0xE0 SWAP1 PUSH2 0x2007 PUSH1 0x20 DUP3 ADD MLOAD PUSH1 0x1 DUP8 ADD PUSH2 0x1F01 JUMP JUMPDEST PUSH2 0x2018 PUSH1 0x40 DUP3 ADD MLOAD PUSH1 0x2 DUP8 ADD PUSH2 0x1F01 JUMP JUMPDEST PUSH2 0x203C PUSH2 0x2029 PUSH1 0x60 DUP4 ADD MLOAD PUSH1 0xFF AND SWAP1 JUMP JUMPDEST PUSH1 0x3 DUP8 ADD SWAP1 PUSH1 0xFF AND PUSH1 0xFF NOT DUP3 SLOAD AND OR SWAP1 SSTORE JUMP JUMPDEST PUSH1 0x80 DUP2 ADD MLOAD PUSH1 0x4 DUP7 ADD SSTORE PUSH1 0xA0 DUP2 ADD MLOAD PUSH1 0x5 DUP7 ADD SSTORE PUSH1 0xC0 DUP2 ADD MLOAD PUSH1 0x6 DUP7 ADD SSTORE ADD MLOAD ISZERO ISZERO SWAP1 JUMP JUMPDEST SWAP2 ADD SWAP1 PUSH1 0xFF DUP1 NOT DUP4 SLOAD AND SWAP2 ISZERO ISZERO AND OR SWAP1 SSTORE JUMP JUMPDEST DUP1 SLOAD PUSH9 0x10000000000000000 DUP2 LT ISZERO PUSH2 0x4C7 JUMPI PUSH2 0x2096 SWAP2 PUSH1 0x1 DUP3 ADD DUP2 SSTORE PUSH2 0x13AE JUMP JUMPDEST DUP2 SWAP3 SWAP2 SLOAD SWAP1 PUSH1 0x3 SHL SWAP2 DUP3 SHL SWAP2 PUSH0 NOT SWAP1 SHL NOT AND OR SWAP1 SSTORE JUMP JUMPDEST SWAP1 DUP1 PUSH1 0x20 SWAP4 SWAP3 DUP2 DUP5 MSTORE DUP5 DUP5 ADD CALLDATACOPY PUSH0 DUP3 DUP3 ADD DUP5 ADD MSTORE PUSH1 0x1F ADD PUSH1 0x1F NOT AND ADD ADD SWAP1 JUMP JUMPDEST SWAP3 SWAP1 SWAP4 PUSH2 0x20EC PUSH1 0x60 SWAP6 PUSH2 0x20FA SWAP5 SWAP10 SWAP9 SWAP8 SWAP10 PUSH1 0x80 DUP8 MSTORE PUSH1 0x80 DUP8 ADD SWAP2 PUSH2 0x20AD JUMP JUMPDEST SWAP2 DUP5 DUP4 SUB PUSH1 0x20 DUP7 ADD MSTORE PUSH2 0x20AD JUMP JUMPDEST SWAP5 PUSH1 0x40 DUP3 ADD MSTORE ADD MSTORE JUMP JUMPDEST SWAP1 PUSH2 0x210E DUP3 PUSH2 0x573 JUMP JUMPDEST PUSH2 0x211B PUSH1 0x40 MLOAD SWAP2 DUP3 PUSH2 0x4CC JUMP JUMPDEST DUP3 DUP2 MSTORE DUP1 SWAP3 PUSH2 0x212C PUSH1 0x1F NOT SWAP2 PUSH2 0x573 JUMP JUMPDEST ADD SWAP1 PUSH1 0x20 CALLDATASIZE SWAP2 ADD CALLDATACOPY JUMP JUMPDEST PUSH1 0xFF AND PUSH1 0x30 ADD SWAP1 PUSH1 0xFF DUP3 GT PUSH2 0x1AC2 JUMPI JUMP JUMPDEST SWAP1 DUP2 MLOAD DUP2 LT ISZERO PUSH2 0x13C3 JUMPI ADD PUSH1 0x20 ADD SWAP1 JUMP JUMPDEST DUP1 ISZERO PUSH2 0x21EC JUMPI DUP1 DUP2 PUSH0 SWAP3 JUMPDEST PUSH2 0x21D1 JUMPI POP DUP1 PUSH2 0x2172 DUP4 PUSH2 0x2104 JUMP JUMPDEST SWAP3 SWAP1 JUMPDEST PUSH2 0x217E JUMPI POP POP SWAP1 JUMP JUMPDEST PUSH2 0x2187 SWAP1 PUSH2 0x1C0E JUMP JUMPDEST SWAP1 PUSH2 0x21BD PUSH2 0x21AD PUSH2 0x21A8 PUSH2 0x19A3 PUSH1 0xA DUP6 DIV SWAP5 PUSH2 0x21A2 DUP7 PUSH2 0x1AAC JUMP JUMPDEST SWAP1 PUSH2 0x1C1C JUMP JUMPDEST PUSH2 0x2136 JUMP JUMPDEST PUSH1 0xF8 SHL PUSH1 0x1 PUSH1 0x1 PUSH1 0xF8 SHL SUB NOT AND SWAP1 JUMP JUMPDEST PUSH0 BYTE PUSH2 0x21C9 DUP4 DUP6 PUSH2 0x2147 JUMP JUMPDEST MSTORE8 SWAP1 DUP2 PUSH2 0x2175 JUMP JUMPDEST SWAP2 PUSH2 0x21DE PUSH2 0x21E6 SWAP2 PUSH2 0x1E93 JUMP JUMPDEST SWAP3 PUSH1 0xA SWAP1 DIV SWAP1 JUMP JUMPDEST DUP1 PUSH2 0x2163 JUMP JUMPDEST POP PUSH1 0x40 MLOAD PUSH2 0x21FB PUSH1 0x40 DUP3 PUSH2 0x4CC JUMP JUMPDEST PUSH1 0x1 DUP2 MSTORE PUSH1 0x3 PUSH1 0xFC SHL PUSH1 0x20 DUP3 ADD MSTORE SWAP1 JUMP JUMPDEST CALLER PUSH0 SWAP1 DUP2 MSTORE PUSH32 0x30ADEB818EF77F204F5A603C30FA5332397B6E28FB3B7F9D937AE6A6914716DE PUSH1 0x20 MSTORE PUSH1 0x40 SWAP1 KECCAK256 SLOAD PUSH1 0xFF AND ISZERO PUSH2 0x2244 JUMPI JUMP JUMPDEST PUSH4 0xE2517D3F PUSH1 0xE0 SHL PUSH0 MSTORE CALLER PUSH1 0x4 MSTORE PUSH32 0x65D7A28E3265B37A6474929F336521B332C1681B933F6CB9F3376673440D862A PUSH1 0x24 MSTORE PUSH1 0x44 PUSH0 REVERT JUMPDEST CALLER PUSH0 SWAP1 DUP2 MSTORE PUSH32 0x4A18C22192F7476EC84391FCE95952ACE1237D522DE16C98159F6D46D423EF36 PUSH1 0x20 MSTORE PUSH1 0x40 SWAP1 KECCAK256 SLOAD PUSH1 0xFF AND ISZERO PUSH2 0x22B3 JUMPI JUMP JUMPDEST PUSH4 0xE2517D3F PUSH1 0xE0 SHL PUSH0 MSTORE CALLER PUSH1 0x4 MSTORE PUSH32 0xBF233DD2AAFEB4D50879C4AA5C81E96D92F6E6945C906A58F9F2D1C1631B4B26 PUSH1 0x24 MSTORE PUSH1 0x44 PUSH0 REVERT JUMPDEST PUSH0 DUP2 DUP2 MSTORE PUSH1 0x3 PUSH1 0x20 SWAP1 DUP2 MSTORE PUSH1 0x40 DUP1 DUP4 KECCAK256 CALLER DUP5 MSTORE SWAP1 SWAP2 MSTORE SWAP1 KECCAK256 SLOAD PUSH1 0xFF AND ISZERO PUSH2 0x230E JUMPI POP JUMP JUMPDEST PUSH4 0xE2517D3F PUSH1 0xE0 SHL PUSH0 MSTORE CALLER PUSH1 0x4 MSTORE PUSH1 0x24 MSTORE PUSH1 0x44 PUSH0 REVERT JUMPDEST PUSH0 DUP2 DUP2 MSTORE PUSH1 0x3 PUSH1 0x20 SWAP1 DUP2 MSTORE PUSH1 0x40 DUP1 DUP4 KECCAK256 PUSH1 0x1 PUSH1 0x1 PUSH1 0xA0 SHL SUB DUP7 AND DUP5 MSTORE SWAP1 SWAP2 MSTORE SWAP1 KECCAK256 SLOAD PUSH1 0xFF AND PUSH2 0x1B34 JUMPI PUSH0 DUP2 DUP2 MSTORE PUSH1 0x3 PUSH1 0x20 SWAP1 DUP2 MSTORE PUSH1 0x40 DUP1 DUP4 KECCAK256 PUSH1 0x1 PUSH1 0x1 PUSH1 0xA0 SHL SUB DUP7 AND DUP5 MSTORE SWAP1 SWAP2 MSTORE SWAP1 KECCAK256 DUP1 SLOAD PUSH1 0xFF NOT AND PUSH1 0x1 OR SWAP1 SSTORE CALLER SWAP2 PUSH1 0x1 PUSH1 0x1 PUSH1 0xA0 SHL SUB AND SWAP1 PUSH32 0x2F8788117E7EFF1D82E926EC794901D17C78024A50270940304540A733656F0D PUSH0 DUP1 LOG4 PUSH1 0x1 SWAP1 JUMP JUMPDEST PUSH0 DUP2 DUP2 MSTORE PUSH1 0x3 PUSH1 0x20 SWAP1 DUP2 MSTORE PUSH1 0x40 DUP1 DUP4 KECCAK256 PUSH1 0x1 PUSH1 0x1 PUSH1 0xA0 SHL SUB DUP7 AND DUP5 MSTORE SWAP1 SWAP2 MSTORE SWAP1 KECCAK256 SLOAD PUSH1 0xFF AND ISZERO PUSH2 0x1B34 JUMPI PUSH0 DUP2 DUP2 MSTORE PUSH1 0x3 PUSH1 0x20 SWAP1 DUP2 MSTORE PUSH1 0x40 DUP1 DUP4 KECCAK256 PUSH1 0x1 PUSH1 0x1 PUSH1 0xA0 SHL SUB DUP7 AND DUP5 MSTORE SWAP1 SWAP2 MSTORE SWAP1 KECCAK256 DUP1 SLOAD PUSH1 0xFF NOT AND SWAP1 SSTORE CALLER SWAP2 PUSH1 0x1 PUSH1 0x1 PUSH1 0xA0 SHL SUB AND SWAP1 PUSH32 0xF6391F5C32D9C69D2A47EA670B442974B53935D1EDC7FD64EB21E047A839171B PUSH0 DUP1 LOG4 PUSH1 0x1 SWAP1 JUMP JUMPDEST PUSH1 0xFF PUSH1 0x4 SLOAD AND PUSH2 0x2442 JUMPI JUMP JUMPDEST PUSH4 0xD93C0665 PUSH1 0xE0 SHL PUSH0 MSTORE PUSH1 0x4 PUSH0 REVERT JUMPDEST PUSH1 0x2 PUSH1 0x5 SLOAD EQ PUSH2 0x2462 JUMPI PUSH1 0x2 PUSH1 0x5 SSTORE JUMP JUMPDEST PUSH4 0x3EE5AEB5 PUSH1 0xE0 SHL PUSH0 MSTORE PUSH1 0x4 PUSH0 REVERT JUMPDEST SWAP3 PUSH1 0x1 PUSH1 0x1 PUSH1 0xA0 SHL SUB DUP5 AND SWAP3 SWAP1 SWAP2 SWAP1 DUP4 ISZERO PUSH2 0x1789 JUMPI PUSH2 0x24AD PUSH1 0x40 MLOAD SWAP3 PUSH1 0x1 DUP5 MSTORE PUSH1 0x20 DUP5 ADD MSTORE PUSH1 0x40 DUP4 ADD SWAP2 PUSH1 0x1 DUP4 MSTORE PUSH1 0x60 DUP5 ADD MSTORE PUSH1 0x80 DUP4 ADD PUSH1 0x40 MSTORE JUMP JUMPDEST SWAP2 SWAP1 PUSH1 0x20 SWAP2 PUSH0 PUSH1 0x40 MLOAD PUSH2 0x24C0 DUP6 DUP3 PUSH2 0x4CC JUMP JUMPDEST MSTORE DUP2 MLOAD DUP5 MLOAD SWAP1 DUP2 DUP2 SUB PUSH2 0x25EC JUMPI POP POP PUSH0 JUMPDEST DUP3 MLOAD DUP2 LT ISZERO PUSH2 0x2561 JUMPI DUP1 PUSH1 0x5 SHL DUP5 DUP1 DUP3 DUP7 ADD ADD MLOAD SWAP2 DUP8 ADD ADD MLOAD PUSH2 0x24FF DUP10 PUSH2 0xBD8 DUP5 PUSH0 MSTORE PUSH0 PUSH1 0x20 MSTORE PUSH1 0x40 PUSH0 KECCAK256 SWAP1 JUMP JUMPDEST SLOAD DUP2 DUP2 LT PUSH2 0x252A JUMPI DUP10 PUSH2 0xBD8 PUSH1 0x1 SWAP6 SWAP5 SWAP4 PUSH2 0x2523 SWAP4 SUB SWAP4 PUSH0 MSTORE PUSH0 PUSH1 0x20 MSTORE PUSH1 0x40 PUSH0 KECCAK256 SWAP1 JUMP JUMPDEST SSTORE ADD PUSH2 0x24D1 JUMP JUMPDEST PUSH1 0x40 MLOAD PUSH4 0x3DEE4C5 PUSH1 0xE0 SHL DUP2 MSTORE PUSH1 0x1 PUSH1 0x1 PUSH1 0xA0 SHL SUB DUP12 AND PUSH1 0x4 DUP3 ADD MSTORE PUSH1 0x24 DUP2 ADD SWAP2 SWAP1 SWAP2 MSTORE PUSH1 0x44 DUP2 ADD DUP3 SWAP1 MSTORE PUSH1 0x64 DUP2 ADD DUP4 SWAP1 MSTORE PUSH1 0x84 SWAP1 REVERT JUMPDEST POP SWAP5 POP SWAP1 SWAP2 PUSH0 SWAP4 SWAP3 PUSH1 0x1 DUP4 MLOAD EQ DUP6 EQ PUSH2 0x25B8 JUMPI SWAP2 DUP3 ADD MLOAD SWAP2 ADD MLOAD PUSH1 0x40 DUP1 MLOAD SWAP3 DUP4 MSTORE PUSH1 0x20 DUP4 ADD SWAP2 SWAP1 SWAP2 MSTORE CALLER SWAP2 PUSH32 0xC3D58168C5AE7397731D063D5BBF3D657854427343F4C083240F7AACAA2D0F62 SWAP2 DUP2 SWAP1 DUP2 ADD JUMPDEST SUB SWAP1 LOG4 JUMP JUMPDEST POP PUSH2 0x25B3 PUSH32 0x4A39DC06D4C0DBC64B70AF90FD698A233A518AA5D07E595D983B8C0526C8F7FB SWAP2 PUSH1 0x40 MLOAD SWAP2 DUP3 SWAP2 CALLER SWAP6 DUP4 PUSH2 0x291B JUMP JUMPDEST PUSH4 0x5B059991 PUSH1 0xE0 SHL PUSH0 MSTORE PUSH1 0x4 MSTORE PUSH1 0x24 MSTORE PUSH1 0x44 PUSH0 REVERT JUMPDEST PUSH1 0x1 PUSH1 0x1 PUSH1 0xA0 SHL SUB DUP2 AND SWAP4 SWAP3 SWAP1 SWAP2 SWAP1 DUP5 ISZERO PUSH2 0x179B JUMPI PUSH2 0x263D PUSH1 0x40 MLOAD SWAP3 PUSH1 0x1 DUP5 MSTORE PUSH1 0x20 DUP5 ADD MSTORE PUSH1 0x40 DUP4 ADD SWAP2 PUSH1 0x1 DUP4 MSTORE PUSH1 0x60 DUP5 ADD MSTORE PUSH1 0x80 DUP4 ADD PUSH1 0x40 MSTORE JUMP JUMPDEST SWAP3 DUP2 MLOAD DUP5 MLOAD SWAP1 DUP2 DUP2 SUB PUSH2 0x25EC JUMPI POP POP PUSH0 JUMPDEST DUP3 MLOAD DUP2 LT ISZERO PUSH2 0x2693 JUMPI DUP1 PUSH1 0x1 SWAP2 PUSH1 0x5 SHL PUSH2 0x268B PUSH2 0x2683 DUP8 PUSH2 0xBD8 PUSH1 0x20 DUP1 DUP7 DUP12 ADD ADD MLOAD SWAP6 DUP13 ADD ADD MLOAD SWAP5 PUSH0 MSTORE PUSH0 PUSH1 0x20 MSTORE PUSH1 0x40 PUSH0 KECCAK256 SWAP1 JUMP JUMPDEST SWAP2 DUP3 SLOAD PUSH2 0x1C49 JUMP JUMPDEST SWAP1 SSTORE ADD PUSH2 0x264E JUMP JUMPDEST POP SWAP3 SWAP2 SWAP4 PUSH1 0x1 DUP3 MLOAD EQ PUSH0 EQ PUSH2 0x270A JUMPI PUSH1 0x20 DUP3 DUP2 ADD MLOAD DUP5 DUP3 ADD MLOAD PUSH1 0x40 DUP1 MLOAD SWAP3 DUP4 MSTORE SWAP3 DUP3 ADD MSTORE PUSH0 SWAP2 CALLER SWAP2 PUSH32 0xC3D58168C5AE7397731D063D5BBF3D657854427343F4C083240F7AACAA2D0F62 SWAP2 SWAP1 LOG4 JUMPDEST DUP1 MLOAD PUSH1 0x1 SUB PUSH2 0x26FF JUMPI SWAP1 PUSH1 0x20 DUP1 PUSH2 0x4FD SWAP6 SWAP4 ADD MLOAD SWAP2 ADD MLOAD SWAP2 PUSH0 CALLER PUSH2 0x2AD7 JUMP JUMPDEST PUSH2 0x4FD SWAP4 PUSH0 CALLER PUSH2 0x29A8 JUMP JUMPDEST PUSH0 PUSH1 0x40 MLOAD PUSH32 0x4A39DC06D4C0DBC64B70AF90FD698A233A518AA5D07E595D983B8C0526C8F7FB CALLER SWAP2 DUP1 PUSH2 0x273D DUP9 DUP9 DUP4 PUSH2 0x291B JUMP JUMPDEST SUB SWAP1 LOG4 PUSH2 0x26E0 JUMP JUMPDEST SWAP5 SWAP4 SWAP3 SWAP1 SWAP2 SWAP4 DUP5 MLOAD DUP3 MLOAD SWAP1 DUP2 DUP2 SUB PUSH2 0x25EC JUMPI POP POP PUSH1 0x1 PUSH1 0x1 PUSH1 0xA0 SHL SUB DUP7 DUP2 AND SWAP6 DUP7 ISZERO ISZERO SWAP6 SWAP2 DUP6 AND DUP1 ISZERO ISZERO SWAP4 SWAP2 SWAP3 SWAP1 PUSH0 JUMPDEST DUP5 MLOAD DUP2 LT ISZERO PUSH2 0x284E JUMPI DUP1 PUSH1 0x5 SHL SWAP1 DUP10 DUP10 DUP9 PUSH1 0x20 DUP1 DUP7 DUP12 ADD ADD MLOAD SWAP6 DUP13 ADD ADD MLOAD SWAP3 PUSH2 0x27CD JUMPI JUMPDEST SWAP4 PUSH1 0x1 SWAP5 PUSH2 0x27AB JUMPI JUMPDEST POP POP POP ADD PUSH2 0x2775 JUMP JUMPDEST PUSH2 0x27C3 SWAP2 PUSH2 0xBD8 PUSH2 0x2683 SWAP3 PUSH0 MSTORE PUSH0 PUSH1 0x20 MSTORE PUSH1 0x40 PUSH0 KECCAK256 SWAP1 JUMP JUMPDEST SWAP1 SSTORE PUSH0 DUP10 DUP2 PUSH2 0x27A2 JUMP JUMPDEST POP POP SWAP1 SWAP2 PUSH2 0x27E6 DUP14 PUSH2 0xBD8 DUP4 PUSH0 MSTORE PUSH0 PUSH1 0x20 MSTORE PUSH1 0x40 PUSH0 KECCAK256 SWAP1 JUMP JUMPDEST SLOAD DUP3 DUP2 LT PUSH2 0x2817 JUMPI DUP3 SWAP2 DUP10 DUP16 PUSH2 0x280E PUSH1 0x1 SWAP8 SWAP7 DUP16 SWAP6 SUB SWAP2 PUSH2 0xBD8 DUP6 PUSH0 MSTORE PUSH0 PUSH1 0x20 MSTORE PUSH1 0x40 PUSH0 KECCAK256 SWAP1 JUMP JUMPDEST SSTORE SWAP1 SWAP5 POP PUSH2 0x2799 JUMP JUMPDEST PUSH1 0x40 MLOAD PUSH4 0x3DEE4C5 PUSH1 0xE0 SHL DUP2 MSTORE PUSH1 0x1 PUSH1 0x1 PUSH1 0xA0 SHL SUB DUP16 AND PUSH1 0x4 DUP3 ADD MSTORE PUSH1 0x24 DUP2 ADD SWAP2 SWAP1 SWAP2 MSTORE PUSH1 0x44 DUP2 ADD DUP4 SWAP1 MSTORE PUSH1 0x64 DUP2 ADD DUP3 SWAP1 MSTORE PUSH1 0x84 SWAP1 REVERT JUMPDEST POP SWAP2 SWAP9 SWAP6 SWAP4 SWAP3 SWAP8 SWAP1 SWAP7 POP PUSH1 0x1 DUP9 MLOAD EQ PUSH0 EQ PUSH2 0x28E1 JUMPI PUSH1 0x20 DUP9 DUP2 ADD MLOAD DUP7 DUP3 ADD MLOAD PUSH1 0x40 DUP1 MLOAD SWAP3 DUP4 MSTORE SWAP3 DUP3 ADD MSTORE CALLER SWAP2 PUSH32 0xC3D58168C5AE7397731D063D5BBF3D657854427343F4C083240F7AACAA2D0F62 SWAP2 LOG4 JUMPDEST PUSH2 0x28AA JUMPI JUMPDEST POP POP POP POP POP JUMP JUMPDEST DUP5 MLOAD PUSH1 0x1 SUB PUSH2 0x28D0 JUMPI PUSH1 0x20 DUP1 PUSH2 0x28C6 SWAP7 ADD MLOAD SWAP3 ADD MLOAD SWAP3 CALLER PUSH2 0x2AD7 JUMP JUMPDEST PUSH0 DUP1 DUP1 DUP1 DUP1 PUSH2 0x28A3 JUMP JUMPDEST PUSH2 0x28DC SWAP5 SWAP2 SWAP3 CALLER PUSH2 0x29A8 JUMP JUMPDEST PUSH2 0x28C6 JUMP JUMPDEST PUSH1 0x40 MLOAD PUSH32 0x4A39DC06D4C0DBC64B70AF90FD698A233A518AA5D07E595D983B8C0526C8F7FB CALLER SWAP2 DUP1 PUSH2 0x2913 DUP10 DUP14 DUP4 PUSH2 0x291B JUMP JUMPDEST SUB SWAP1 LOG4 PUSH2 0x289E JUMP JUMPDEST SWAP1 SWAP2 PUSH2 0x2932 PUSH2 0x5DF SWAP4 PUSH1 0x40 DUP5 MSTORE PUSH1 0x40 DUP5 ADD SWAP1 PUSH2 0x850 JUMP JUMPDEST SWAP2 PUSH1 0x20 DUP2 DUP5 SUB SWAP2 ADD MSTORE PUSH2 0x850 JUMP JUMPDEST SWAP1 DUP2 PUSH1 0x20 SWAP2 SUB SLT PUSH2 0x2BE JUMPI MLOAD PUSH2 0x5DF DUP2 PUSH2 0x334 JUMP JUMPDEST PUSH1 0x1 PUSH1 0x1 PUSH1 0xA0 SHL SUB SWAP2 DUP3 AND DUP2 MSTORE SWAP2 AND PUSH1 0x20 DUP3 ADD MSTORE PUSH1 0xA0 PUSH1 0x40 DUP3 ADD DUP2 SWAP1 MSTORE PUSH2 0x5DF SWAP5 SWAP2 SWAP4 SWAP2 SWAP3 PUSH2 0x299A SWAP3 SWAP2 PUSH2 0x298C SWAP2 SWAP1 DUP7 ADD SWAP1 PUSH2 0x850 JUMP JUMPDEST SWAP1 DUP5 DUP3 SUB PUSH1 0x60 DUP7 ADD MSTORE PUSH2 0x850 JUMP JUMPDEST SWAP2 PUSH1 0x80 DUP2 DUP5 SUB SWAP2 ADD MSTORE PUSH2 0x3CF JUMP JUMPDEST SWAP1 SWAP2 SWAP5 SWAP3 SWAP4 DUP6 EXTCODESIZE PUSH2 0x29BC JUMPI JUMPDEST POP POP POP POP POP POP JUMP JUMPDEST PUSH1 0x20 SWAP4 PUSH2 0x29DE SWAP2 PUSH1 0x40 MLOAD SWAP7 DUP8 SWAP6 DUP7 SWAP6 PUSH4 0xBC197C81 PUSH1 0xE0 SHL DUP8 MSTORE PUSH1 0x4 DUP8 ADD PUSH2 0x2955 JUMP JUMPDEST SUB DUP2 PUSH0 PUSH1 0x1 PUSH1 0x1 PUSH1 0xA0 SHL SUB DUP8 AND GAS CALL PUSH0 SWAP2 DUP2 PUSH2 0x2A6D JUMPI JUMPDEST POP PUSH2 0x2A2F JUMPI POP PUSH2 0x2A03 PUSH2 0x1C56 JUMP JUMPDEST DUP1 MLOAD SWAP2 SWAP1 DUP3 PUSH2 0x2A28 JUMPI PUSH4 0x2BFA23E7 PUSH1 0xE1 SHL PUSH0 MSTORE PUSH1 0x1 PUSH1 0x1 PUSH1 0xA0 SHL SUB DUP3 AND PUSH1 0x4 MSTORE PUSH1 0x24 PUSH0 REVERT JUMPDEST SWAP1 POP PUSH1 0x20 ADD REVERT JUMPDEST PUSH1 0x1 PUSH1 0x1 PUSH1 0xE0 SHL SUB NOT AND PUSH4 0x43E6837F PUSH1 0xE0 SHL ADD PUSH2 0x2A52 JUMPI POP PUSH0 DUP1 DUP1 DUP1 DUP1 DUP1 PUSH2 0x29B4 JUMP JUMPDEST PUSH4 0x2BFA23E7 PUSH1 0xE1 SHL PUSH0 MSTORE PUSH1 0x1 PUSH1 0x1 PUSH1 0xA0 SHL SUB AND PUSH1 0x4 MSTORE PUSH1 0x24 PUSH0 REVERT JUMPDEST PUSH2 0x2A90 SWAP2 SWAP3 POP PUSH1 0x20 RETURNDATASIZE PUSH1 0x20 GT PUSH2 0x2A97 JUMPI JUMPDEST PUSH2 0x2A88 DUP2 DUP4 PUSH2 0x4CC JUMP JUMPDEST DUP2 ADD SWAP1 PUSH2 0x2940 JUMP JUMPDEST SWAP1 PUSH0 PUSH2 0x29F5 JUMP JUMPDEST POP RETURNDATASIZE PUSH2 0x2A7E JUMP JUMPDEST PUSH1 0x1 PUSH1 0x1 PUSH1 0xA0 SHL SUB SWAP2 DUP3 AND DUP2 MSTORE SWAP2 AND PUSH1 0x20 DUP3 ADD MSTORE PUSH1 0x40 DUP2 ADD SWAP2 SWAP1 SWAP2 MSTORE PUSH1 0x60 DUP2 ADD SWAP2 SWAP1 SWAP2 MSTORE PUSH1 0xA0 PUSH1 0x80 DUP3 ADD DUP2 SWAP1 MSTORE PUSH2 0x5DF SWAP3 SWAP2 ADD SWAP1 PUSH2 0x3CF JUMP JUMPDEST SWAP1 SWAP2 SWAP5 SWAP3 SWAP4 DUP6 EXTCODESIZE PUSH2 0x2AEA JUMPI POP POP POP POP POP POP JUMP JUMPDEST PUSH1 0x20 SWAP4 PUSH2 0x2B0C SWAP2 PUSH1 0x40 MLOAD SWAP7 DUP8 SWAP6 DUP7 SWAP6 PUSH4 0xF23A6E61 PUSH1 0xE0 SHL DUP8 MSTORE PUSH1 0x4 DUP8 ADD PUSH2 0x2A9E JUMP JUMPDEST SUB DUP2 PUSH0 PUSH1 0x1 PUSH1 0x1 PUSH1 0xA0 SHL SUB DUP8 AND GAS CALL PUSH0 SWAP2 DUP2 PUSH2 0x2B54 JUMPI JUMPDEST POP PUSH2 0x2B31 JUMPI POP PUSH2 0x2A03 PUSH2 0x1C56 JUMP JUMPDEST PUSH1 0x1 PUSH1 0x1 PUSH1 0xE0 SHL SUB NOT AND PUSH4 0xDC5919F PUSH1 0xE0 SHL ADD PUSH2 0x2A52 JUMPI POP PUSH0 DUP1 DUP1 DUP1 DUP1 DUP1 PUSH2 0x29B4 JUMP JUMPDEST PUSH2 0x2B6E SWAP2 SWAP3 POP PUSH1 0x20 RETURNDATASIZE PUSH1 0x20 GT PUSH2 0x2A97 JUMPI PUSH2 0x2A88 DUP2 DUP4 PUSH2 0x4CC JUMP JUMPDEST SWAP1 PUSH0 PUSH2 0x2B23 JUMP INVALID LOG2 PUSH5 0x6970667358 0x22 SLT KECCAK256 PUSH27 0x35A5A0FFFC9DCA017501BDC3FABE4A5C4EB5A90A63F4358021F2A6 0xCE 0xD3 JUMPDEST 0xF6 PUSH5 0x736F6C6343 STOP ADDMOD 0x1E STOP CALLER 0x2F DUP8 DUP9 GT PUSH31 0x7EFF1D82E926EC794901D17C78024A50270940304540A733656F0DCE96A28F 0xB0 PUSH13 0xA29CE31A17DE45A1073CD88B81 PUSH17 0xE4A67F7F416F721E36BDE95C30ADEB818E 0xF7 PUSH32 0x204F5A603C30FA5332397B6E28FB3B7F9D937AE6A6914716DE4A18C22192F747 PUSH15 0xC84391FCE95952ACE1237D522DE16C SWAP9 ISZERO SWAP16 PUSH14 0x46D423EF363617319A054D772F90 SWAP16 PUSH29 0x479A2CEBE5066E836A939412E32403C99029B92EFF0000000000000000 "
		},
		"gasEstimates": {
			"creation": {
				"codeDepositCost": "2235800",
				"executionCost": "infinite",
				"totalCost": "infinite"
			},
			"external": {
				"DEFAULT_ADMIN_ROLE()": "684",
				"EMERGENCY_ROLE()": "223",
				"MAX_GAME_TOKEN_DECIMALS()": "905",
				"MIN_XP_LOCK_AMOUNT()": "619",
				"PAUSER_ROLE()": "927",
				"PRECISION_FACTOR()": "861",
				"RATE_MANAGER_ROLE()": "817",
				"balanceOf(address,uint256)": "2491",
				"balanceOfBatch(address[],uint256[])": "infinite",
				"burnGameToken(uint256,uint256)": "infinite",
				"calculateXpAmount(uint256)": "2782",
				"calculateXpReturn(uint256,uint256)": "9091",
				"createGameToken(uint256,string,string,uint8)": "infinite",
				"cridaToXpRate()": "2656",
				"cridaToken()": "infinite",
				"emergencyWithdraw(address,address,uint256)": "infinite",
				"gameTokens(uint256)": "infinite",
				"getGameTokenInfo(uint256)": "infinite",
				"getRoleAdmin(bytes32)": "2434",
				"getUserGameTokens(address)": "infinite",
				"grantRole(bytes32,address)": "33415",
				"hasRole(bytes32,address)": "2991",
				"isApprovedForAll(address,address)": "3437",
				"lockCrida(uint256)": "infinite",
				"nextGameId()": "2854",
				"pause()": "30188",
				"paused()": "2558",
				"renounceRole(bytes32,address)": "29023",
				"revokeRole(bytes32,address)": "34006",
				"safeBatchTransferFrom(address,address,uint256[],uint256[],bytes)": "infinite",
				"safeTransferFrom(address,address,uint256,uint256,bytes)": "infinite",
				"setApprovalForAll(address,bool)": "27063",
				"setRate(uint256)": "28042",
				"supportsInterface(bytes4)": "453",
				"totalLockedCrida()": "3074",
				"unpause()": "27841",
				"uri(uint256)": "infinite",
				"userGameTokens(address,uint256)": "7419",
				"userLockedCrida(address)": "3092",
				"xpReserves()": "2634",
				"xpToken()": "infinite"
			},
			"internal": {
				"uint2str(uint256)": "infinite"
			}
		},
		"methodIdentifiers": {
			"DEFAULT_ADMIN_ROLE()": "a217fddf",
			"EMERGENCY_ROLE()": "20df4359",
			"MAX_GAME_TOKEN_DECIMALS()": "df525b7d",
			"MIN_XP_LOCK_AMOUNT()": "8760550d",
			"PAUSER_ROLE()": "e63ab1e9",
			"PRECISION_FACTOR()": "ccd34cd5",
			"RATE_MANAGER_ROLE()": "cb327b8b",
			"balanceOf(address,uint256)": "00fdd58e",
			"balanceOfBatch(address[],uint256[])": "4e1273f4",
			"burnGameToken(uint256,uint256)": "5ed6c1db",
			"calculateXpAmount(uint256)": "74b334c5",
			"calculateXpReturn(uint256,uint256)": "3b420a73",
			"createGameToken(uint256,string,string,uint8)": "fd44d274",
			"cridaToXpRate()": "6dd9cbd4",
			"cridaToken()": "6d8061b8",
			"emergencyWithdraw(address,address,uint256)": "e63ea408",
			"gameTokens(uint256)": "bf034b69",
			"getGameTokenInfo(uint256)": "5e79c1dc",
			"getRoleAdmin(bytes32)": "248a9ca3",
			"getUserGameTokens(address)": "546fdad4",
			"grantRole(bytes32,address)": "2f2ff15d",
			"hasRole(bytes32,address)": "91d14854",
			"isApprovedForAll(address,address)": "e985e9c5",
			"lockCrida(uint256)": "97e05e86",
			"nextGameId()": "b135bbb0",
			"pause()": "8456cb59",
			"paused()": "5c975abb",
			"renounceRole(bytes32,address)": "36568abe",
			"revokeRole(bytes32,address)": "d547741f",
			"safeBatchTransferFrom(address,address,uint256[],uint256[],bytes)": "2eb2c2d6",
			"safeTransferFrom(address,address,uint256,uint256,bytes)": "f242432a",
			"setApprovalForAll(address,bool)": "a22cb465",
			"setRate(uint256)": "34fcf437",
			"supportsInterface(bytes4)": "01ffc9a7",
			"totalLockedCrida()": "e8321987",
			"unpause()": "3f4ba83a",
			"uri(uint256)": "0e89341c",
			"userGameTokens(address,uint256)": "c21c64a7",
			"userLockedCrida(address)": "cb4cd556",
			"xpReserves()": "6d8554e2",
			"xpToken()": "ae5014b1"
		}
	},
	"abi": [
		{
			"inputs": [
				{
					"internalType": "address",
					"name": "_cridaToken",
					"type": "address"
				},
				{
					"internalType": "address",
					"name": "_xpToken",
					"type": "address"
				},
				{
					"internalType": "string",
					"name": "_uri",
					"type": "string"
				}
			],
			"stateMutability": "nonpayable",
			"type": "constructor"
		},
		{
			"inputs": [],
			"name": "AccessControlBadConfirmation",
			"type": "error"
		},
		{
			"inputs": [
				{
					"internalType": "address",
					"name": "account",
					"type": "address"
				},
				{
					"internalType": "bytes32",
					"name": "neededRole",
					"type": "bytes32"
				}
			],
			"name": "AccessControlUnauthorizedAccount",
			"type": "error"
		},
		{
			"inputs": [
				{
					"internalType": "address",
					"name": "sender",
					"type": "address"
				},
				{
					"internalType": "uint256",
					"name": "balance",
					"type": "uint256"
				},
				{
					"internalType": "uint256",
					"name": "needed",
					"type": "uint256"
				},
				{
					"internalType": "uint256",
					"name": "tokenId",
					"type": "uint256"
				}
			],
			"name": "ERC1155InsufficientBalance",
			"type": "error"
		},
		{
			"inputs": [
				{
					"internalType": "address",
					"name": "approver",
					"type": "address"
				}
			],
			"name": "ERC1155InvalidApprover",
			"type": "error"
		},
		{
			"inputs": [
				{
					"internalType": "uint256",
					"name": "idsLength",
					"type": "uint256"
				},
				{
					"internalType": "uint256",
					"name": "valuesLength",
					"type": "uint256"
				}
			],
			"name": "ERC1155InvalidArrayLength",
			"type": "error"
		},
		{
			"inputs": [
				{
					"internalType": "address",
					"name": "operator",
					"type": "address"
				}
			],
			"name": "ERC1155InvalidOperator",
			"type": "error"
		},
		{
			"inputs": [
				{
					"internalType": "address",
					"name": "receiver",
					"type": "address"
				}
			],
			"name": "ERC1155InvalidReceiver",
			"type": "error"
		},
		{
			"inputs": [
				{
					"internalType": "address",
					"name": "sender",
					"type": "address"
				}
			],
			"name": "ERC1155InvalidSender",
			"type": "error"
		},
		{
			"inputs": [
				{
					"internalType": "address",
					"name": "operator",
					"type": "address"
				},
				{
					"internalType": "address",
					"name": "owner",
					"type": "address"
				}
			],
			"name": "ERC1155MissingApprovalForAll",
			"type": "error"
		},
		{
			"inputs": [],
			"name": "EnforcedPause",
			"type": "error"
		},
		{
			"inputs": [],
			"name": "ExpectedPause",
			"type": "error"
		},
		{
			"inputs": [],
			"name": "GameTokenNotActive",
			"type": "error"
		},
		{
			"inputs": [],
			"name": "InsufficientAmount",
			"type": "error"
		},
		{
			"inputs": [],
			"name": "InsufficientXpReserves",
			"type": "error"
		},
		{
			"inputs": [],
			"name": "InvalidDecimals",
			"type": "error"
		},
		{
			"inputs": [],
			"name": "InvalidGameId",
			"type": "error"
		},
		{
			"inputs": [],
			"name": "NameTooLong",
			"type": "error"
		},
		{
			"inputs": [],
			"name": "ReentrancyGuardReentrantCall",
			"type": "error"
		},
		{
			"inputs": [],
			"name": "SymbolTooLong",
			"type": "error"
		},
		{
			"inputs": [],
			"name": "TransferFailed",
			"type": "error"
		},
		{
			"inputs": [],
			"name": "ZeroAmount",
			"type": "error"
		},
		{
			"inputs": [],
			"name": "ZeroRate",
			"type": "error"
		},
		{
			"anonymous": false,
			"inputs": [
				{
					"indexed": true,
					"internalType": "address",
					"name": "account",
					"type": "address"
				},
				{
					"indexed": true,
					"internalType": "address",
					"name": "operator",
					"type": "address"
				},
				{
					"indexed": false,
					"internalType": "bool",
					"name": "approved",
					"type": "bool"
				}
			],
			"name": "ApprovalForAll",
			"type": "event"
		},
		{
			"anonymous": false,
			"inputs": [
				{
					"indexed": true,
					"internalType": "address",
					"name": "user",
					"type": "address"
				},
				{
					"indexed": false,
					"internalType": "uint256",
					"name": "cridaAmount",
					"type": "uint256"
				},
				{
					"indexed": false,
					"internalType": "uint256",
					"name": "xpMinted",
					"type": "uint256"
				}
			],
			"name": "CridaLocked",
			"type": "event"
		},
		{
			"anonymous": false,
			"inputs": [
				{
					"indexed": true,
					"internalType": "address",
					"name": "token",
					"type": "address"
				},
				{
					"indexed": true,
					"internalType": "address",
					"name": "to",
					"type": "address"
				},
				{
					"indexed": false,
					"internalType": "uint256",
					"name": "amount",
					"type": "uint256"
				}
			],
			"name": "EmergencyWithdraw",
			"type": "event"
		},
		{
			"anonymous": false,
			"inputs": [
				{
					"indexed": true,
					"internalType": "uint256",
					"name": "gameId",
					"type": "uint256"
				},
				{
					"indexed": true,
					"internalType": "address",
					"name": "user",
					"type": "address"
				},
				{
					"indexed": false,
					"internalType": "uint256",
					"name": "burnAmount",
					"type": "uint256"
				},
				{
					"indexed": false,
					"internalType": "uint256",
					"name": "xpReturned",
					"type": "uint256"
				}
			],
			"name": "GameTokenBurned",
			"type": "event"
		},
		{
			"anonymous": false,
			"inputs": [
				{
					"indexed": true,
					"internalType": "uint256",
					"name": "gameId",
					"type": "uint256"
				},
				{
					"indexed": true,
					"internalType": "address",
					"name": "creator",
					"type": "address"
				},
				{
					"indexed": false,
					"internalType": "string",
					"name": "name",
					"type": "string"
				},
				{
					"indexed": false,
					"internalType": "string",
					"name": "symbol",
					"type": "string"
				},
				{
					"indexed": false,
					"internalType": "uint256",
					"name": "xpLocked",
					"type": "uint256"
				},
				{
					"indexed": false,
					"internalType": "uint256",
					"name": "initialSupply",
					"type": "uint256"
				}
			],
			"name": "GameTokenCreated",
			"type": "event"
		},
		{
			"anonymous": false,
			"inputs": [
				{
					"indexed": false,
					"internalType": "address",
					"name": "account",
					"type": "address"
				}
			],
			"name": "Paused",
			"type": "event"
		},
		{
			"anonymous": false,
			"inputs": [
				{
					"indexed": false,
					"internalType": "uint256",
					"name": "oldRate",
					"type": "uint256"
				},
				{
					"indexed": false,
					"internalType": "uint256",
					"name": "newRate",
					"type": "uint256"
				}
			],
			"name": "RateUpdated",
			"type": "event"
		},
		{
			"anonymous": false,
			"inputs": [
				{
					"indexed": true,
					"internalType": "bytes32",
					"name": "role",
					"type": "bytes32"
				},
				{
					"indexed": true,
					"internalType": "bytes32",
					"name": "previousAdminRole",
					"type": "bytes32"
				},
				{
					"indexed": true,
					"internalType": "bytes32",
					"name": "newAdminRole",
					"type": "bytes32"
				}
			],
			"name": "RoleAdminChanged",
			"type": "event"
		},
		{
			"anonymous": false,
			"inputs": [
				{
					"indexed": true,
					"internalType": "bytes32",
					"name": "role",
					"type": "bytes32"
				},
				{
					"indexed": true,
					"internalType": "address",
					"name": "account",
					"type": "address"
				},
				{
					"indexed": true,
					"internalType": "address",
					"name": "sender",
					"type": "address"
				}
			],
			"name": "RoleGranted",
			"type": "event"
		},
		{
			"anonymous": false,
			"inputs": [
				{
					"indexed": true,
					"internalType": "bytes32",
					"name": "role",
					"type": "bytes32"
				},
				{
					"indexed": true,
					"internalType": "address",
					"name": "account",
					"type": "address"
				},
				{
					"indexed": true,
					"internalType": "address",
					"name": "sender",
					"type": "address"
				}
			],
			"name": "RoleRevoked",
			"type": "event"
		},
		{
			"anonymous": false,
			"inputs": [
				{
					"indexed": true,
					"internalType": "address",
					"name": "operator",
					"type": "address"
				},
				{
					"indexed": true,
					"internalType": "address",
					"name": "from",
					"type": "address"
				},
				{
					"indexed": true,
					"internalType": "address",
					"name": "to",
					"type": "address"
				},
				{
					"indexed": false,
					"internalType": "uint256[]",
					"name": "ids",
					"type": "uint256[]"
				},
				{
					"indexed": false,
					"internalType": "uint256[]",
					"name": "values",
					"type": "uint256[]"
				}
			],
			"name": "TransferBatch",
			"type": "event"
		},
		{
			"anonymous": false,
			"inputs": [
				{
					"indexed": true,
					"internalType": "address",
					"name": "operator",
					"type": "address"
				},
				{
					"indexed": true,
					"internalType": "address",
					"name": "from",
					"type": "address"
				},
				{
					"indexed": true,
					"internalType": "address",
					"name": "to",
					"type": "address"
				},
				{
					"indexed": false,
					"internalType": "uint256",
					"name": "id",
					"type": "uint256"
				},
				{
					"indexed": false,
					"internalType": "uint256",
					"name": "value",
					"type": "uint256"
				}
			],
			"name": "TransferSingle",
			"type": "event"
		},
		{
			"anonymous": false,
			"inputs": [
				{
					"indexed": false,
					"internalType": "string",
					"name": "value",
					"type": "string"
				},
				{
					"indexed": true,
					"internalType": "uint256",
					"name": "id",
					"type": "uint256"
				}
			],
			"name": "URI",
			"type": "event"
		},
		{
			"anonymous": false,
			"inputs": [
				{
					"indexed": false,
					"internalType": "address",
					"name": "account",
					"type": "address"
				}
			],
			"name": "Unpaused",
			"type": "event"
		},
		{
			"inputs": [],
			"name": "DEFAULT_ADMIN_ROLE",
			"outputs": [
				{
					"internalType": "bytes32",
					"name": "",
					"type": "bytes32"
				}
			],
			"stateMutability": "view",
			"type": "function"
		},
		{
			"inputs": [],
			"name": "EMERGENCY_ROLE",
			"outputs": [
				{
					"internalType": "bytes32",
					"name": "",
					"type": "bytes32"
				}
			],
			"stateMutability": "view",
			"type": "function"
		},
		{
			"inputs": [],
			"name": "MAX_GAME_TOKEN_DECIMALS",
			"outputs": [
				{
					"internalType": "uint256",
					"name": "",
					"type": "uint256"
				}
			],
			"stateMutability": "view",
			"type": "function"
		},
		{
			"inputs": [],
			"name": "MIN_XP_LOCK_AMOUNT",
			"outputs": [
				{
					"internalType": "uint256",
					"name": "",
					"type": "uint256"
				}
			],
			"stateMutability": "view",
			"type": "function"
		},
		{
			"inputs": [],
			"name": "PAUSER_ROLE",
			"outputs": [
				{
					"internalType": "bytes32",
					"name": "",
					"type": "bytes32"
				}
			],
			"stateMutability": "view",
			"type": "function"
		},
		{
			"inputs": [],
			"name": "PRECISION_FACTOR",
			"outputs": [
				{
					"internalType": "uint256",
					"name": "",
					"type": "uint256"
				}
			],
			"stateMutability": "view",
			"type": "function"
		},
		{
			"inputs": [],
			"name": "RATE_MANAGER_ROLE",
			"outputs": [
				{
					"internalType": "bytes32",
					"name": "",
					"type": "bytes32"
				}
			],
			"stateMutability": "view",
			"type": "function"
		},
		{
			"inputs": [
				{
					"internalType": "address",
					"name": "account",
					"type": "address"
				},
				{
					"internalType": "uint256",
					"name": "id",
					"type": "uint256"
				}
			],
			"name": "balanceOf",
			"outputs": [
				{
					"internalType": "uint256",
					"name": "",
					"type": "uint256"
				}
			],
			"stateMutability": "view",
			"type": "function"
		},
		{
			"inputs": [
				{
					"internalType": "address[]",
					"name": "accounts",
					"type": "address[]"
				},
				{
					"internalType": "uint256[]",
					"name": "ids",
					"type": "uint256[]"
				}
			],
			"name": "balanceOfBatch",
			"outputs": [
				{
					"internalType": "uint256[]",
					"name": "",
					"type": "uint256[]"
				}
			],
			"stateMutability": "view",
			"type": "function"
		},
		{
			"inputs": [
				{
					"internalType": "uint256",
					"name": "gameId",
					"type": "uint256"
				},
				{
					"internalType": "uint256",
					"name": "burnAmount",
					"type": "uint256"
				}
			],
			"name": "burnGameToken",
			"outputs": [],
			"stateMutability": "nonpayable",
			"type": "function"
		},
		{
			"inputs": [
				{
					"internalType": "uint256",
					"name": "cridaAmount",
					"type": "uint256"
				}
			],
			"name": "calculateXpAmount",
			"outputs": [
				{
					"internalType": "uint256",
					"name": "",
					"type": "uint256"
				}
			],
			"stateMutability": "view",
			"type": "function"
		},
		{
			"inputs": [
				{
					"internalType": "uint256",
					"name": "gameId",
					"type": "uint256"
				},
				{
					"internalType": "uint256",
					"name": "burnAmount",
					"type": "uint256"
				}
			],
			"name": "calculateXpReturn",
			"outputs": [
				{
					"internalType": "uint256",
					"name": "",
					"type": "uint256"
				}
			],
			"stateMutability": "view",
			"type": "function"
		},
		{
			"inputs": [
				{
					"internalType": "uint256",
					"name": "xpAmount",
					"type": "uint256"
				},
				{
					"internalType": "string",
					"name": "name",
					"type": "string"
				},
				{
					"internalType": "string",
					"name": "symbol",
					"type": "string"
				},
				{
					"internalType": "uint8",
					"name": "decimals",
					"type": "uint8"
				}
			],
			"name": "createGameToken",
			"outputs": [
				{
					"internalType": "uint256",
					"name": "gameId",
					"type": "uint256"
				}
			],
			"stateMutability": "nonpayable",
			"type": "function"
		},
		{
			"inputs": [],
			"name": "cridaToXpRate",
			"outputs": [
				{
					"internalType": "uint256",
					"name": "",
					"type": "uint256"
				}
			],
			"stateMutability": "view",
			"type": "function"
		},
		{
			"inputs": [],
			"name": "cridaToken",
			"outputs": [
				{
					"internalType": "contract IERC20",
					"name": "",
					"type": "address"
				}
			],
			"stateMutability": "view",
			"type": "function"
		},
		{
			"inputs": [
				{
					"internalType": "address",
					"name": "token",
					"type": "address"
				},
				{
					"internalType": "address",
					"name": "to",
					"type": "address"
				},
				{
					"internalType": "uint256",
					"name": "amount",
					"type": "uint256"
				}
			],
			"name": "emergencyWithdraw",
			"outputs": [],
			"stateMutability": "nonpayable",
			"type": "function"
		},
		{
			"inputs": [
				{
					"internalType": "uint256",
					"name": "",
					"type": "uint256"
				}
			],
			"name": "gameTokens",
			"outputs": [
				{
					"internalType": "address",
					"name": "creator",
					"type": "address"
				},
				{
					"internalType": "string",
					"name": "name",
					"type": "string"
				},
				{
					"internalType": "string",
					"name": "symbol",
					"type": "string"
				},
				{
					"internalType": "uint8",
					"name": "decimals",
					"type": "uint8"
				},
				{
					"internalType": "uint256",
					"name": "initialSupply",
					"type": "uint256"
				},
				{
					"internalType": "uint256",
					"name": "xpLocked",
					"type": "uint256"
				},
				{
					"internalType": "uint256",
					"name": "currentSupply",
					"type": "uint256"
				},
				{
					"internalType": "bool",
					"name": "active",
					"type": "bool"
				}
			],
			"stateMutability": "view",
			"type": "function"
		},
		{
			"inputs": [
				{
					"internalType": "uint256",
					"name": "gameId",
					"type": "uint256"
				}
			],
			"name": "getGameTokenInfo",
			"outputs": [
				{
					"components": [
						{
							"internalType": "address",
							"name": "creator",
							"type": "address"
						},
						{
							"internalType": "string",
							"name": "name",
							"type": "string"
						},
						{
							"internalType": "string",
							"name": "symbol",
							"type": "string"
						},
						{
							"internalType": "uint8",
							"name": "decimals",
							"type": "uint8"
						},
						{
							"internalType": "uint256",
							"name": "initialSupply",
							"type": "uint256"
						},
						{
							"internalType": "uint256",
							"name": "xpLocked",
							"type": "uint256"
						},
						{
							"internalType": "uint256",
							"name": "currentSupply",
							"type": "uint256"
						},
						{
							"internalType": "bool",
							"name": "active",
							"type": "bool"
						}
					],
					"internalType": "struct GameEcosystem.GameTokenInfo",
					"name": "",
					"type": "tuple"
				}
			],
			"stateMutability": "view",
			"type": "function"
		},
		{
			"inputs": [
				{
					"internalType": "bytes32",
					"name": "role",
					"type": "bytes32"
				}
			],
			"name": "getRoleAdmin",
			"outputs": [
				{
					"internalType": "bytes32",
					"name": "",
					"type": "bytes32"
				}
			],
			"stateMutability": "view",
			"type": "function"
		},
		{
			"inputs": [
				{
					"internalType": "address",
					"name": "user",
					"type": "address"
				}
			],
			"name": "getUserGameTokens",
			"outputs": [
				{
					"internalType": "uint256[]",
					"name": "",
					"type": "uint256[]"
				}
			],
			"stateMutability": "view",
			"type": "function"
		},
		{
			"inputs": [
				{
					"internalType": "bytes32",
					"name": "role",
					"type": "bytes32"
				},
				{
					"internalType": "address",
					"name": "account",
					"type": "address"
				}
			],
			"name": "grantRole",
			"outputs": [],
			"stateMutability": "nonpayable",
			"type": "function"
		},
		{
			"inputs": [
				{
					"internalType": "bytes32",
					"name": "role",
					"type": "bytes32"
				},
				{
					"internalType": "address",
					"name": "account",
					"type": "address"
				}
			],
			"name": "hasRole",
			"outputs": [
				{
					"internalType": "bool",
					"name": "",
					"type": "bool"
				}
			],
			"stateMutability": "view",
			"type": "function"
		},
		{
			"inputs": [
				{
					"internalType": "address",
					"name": "account",
					"type": "address"
				},
				{
					"internalType": "address",
					"name": "operator",
					"type": "address"
				}
			],
			"name": "isApprovedForAll",
			"outputs": [
				{
					"internalType": "bool",
					"name": "",
					"type": "bool"
				}
			],
			"stateMutability": "view",
			"type": "function"
		},
		{
			"inputs": [
				{
					"internalType": "uint256",
					"name": "amountCrida",
					"type": "uint256"
				}
			],
			"name": "lockCrida",
			"outputs": [],
			"stateMutability": "nonpayable",
			"type": "function"
		},
		{
			"inputs": [],
			"name": "nextGameId",
			"outputs": [
				{
					"internalType": "uint256",
					"name": "",
					"type": "uint256"
				}
			],
			"stateMutability": "view",
			"type": "function"
		},
		{
			"inputs": [],
			"name": "pause",
			"outputs": [],
			"stateMutability": "nonpayable",
			"type": "function"
		},
		{
			"inputs": [],
			"name": "paused",
			"outputs": [
				{
					"internalType": "bool",
					"name": "",
					"type": "bool"
				}
			],
			"stateMutability": "view",
			"type": "function"
		},
		{
			"inputs": [
				{
					"internalType": "bytes32",
					"name": "role",
					"type": "bytes32"
				},
				{
					"internalType": "address",
					"name": "callerConfirmation",
					"type": "address"
				}
			],
			"name": "renounceRole",
			"outputs": [],
			"stateMutability": "nonpayable",
			"type": "function"
		},
		{
			"inputs": [
				{
					"internalType": "bytes32",
					"name": "role",
					"type": "bytes32"
				},
				{
					"internalType": "address",
					"name": "account",
					"type": "address"
				}
			],
			"name": "revokeRole",
			"outputs": [],
			"stateMutability": "nonpayable",
			"type": "function"
		},
		{
			"inputs": [
				{
					"internalType": "address",
					"name": "from",
					"type": "address"
				},
				{
					"internalType": "address",
					"name": "to",
					"type": "address"
				},
				{
					"internalType": "uint256[]",
					"name": "ids",
					"type": "uint256[]"
				},
				{
					"internalType": "uint256[]",
					"name": "values",
					"type": "uint256[]"
				},
				{
					"internalType": "bytes",
					"name": "data",
					"type": "bytes"
				}
			],
			"name": "safeBatchTransferFrom",
			"outputs": [],
			"stateMutability": "nonpayable",
			"type": "function"
		},
		{
			"inputs": [
				{
					"internalType": "address",
					"name": "from",
					"type": "address"
				},
				{
					"internalType": "address",
					"name": "to",
					"type": "address"
				},
				{
					"internalType": "uint256",
					"name": "id",
					"type": "uint256"
				},
				{
					"internalType": "uint256",
					"name": "value",
					"type": "uint256"
				},
				{
					"internalType": "bytes",
					"name": "data",
					"type": "bytes"
				}
			],
			"name": "safeTransferFrom",
			"outputs": [],
			"stateMutability": "nonpayable",
			"type": "function"
		},
		{
			"inputs": [
				{
					"internalType": "address",
					"name": "operator",
					"type": "address"
				},
				{
					"internalType": "bool",
					"name": "approved",
					"type": "bool"
				}
			],
			"name": "setApprovalForAll",
			"outputs": [],
			"stateMutability": "nonpayable",
			"type": "function"
		},
		{
			"inputs": [
				{
					"internalType": "uint256",
					"name": "newRate",
					"type": "uint256"
				}
			],
			"name": "setRate",
			"outputs": [],
			"stateMutability": "nonpayable",
			"type": "function"
		},
		{
			"inputs": [
				{
					"internalType": "bytes4",
					"name": "interfaceId",
					"type": "bytes4"
				}
			],
			"name": "supportsInterface",
			"outputs": [
				{
					"internalType": "bool",
					"name": "",
					"type": "bool"
				}
			],
			"stateMutability": "view",
			"type": "function"
		},
		{
			"inputs": [],
			"name": "totalLockedCrida",
			"outputs": [
				{
					"internalType": "uint256",
					"name": "",
					"type": "uint256"
				}
			],
			"stateMutability": "view",
			"type": "function"
		},
		{
			"inputs": [],
			"name": "unpause",
			"outputs": [],
			"stateMutability": "nonpayable",
			"type": "function"
		},
		{
			"inputs": [
				{
					"internalType": "uint256",
					"name": "gameId",
					"type": "uint256"
				}
			],
			"name": "uri",
			"outputs": [
				{
					"internalType": "string",
					"name": "",
					"type": "string"
				}
			],
			"stateMutability": "view",
			"type": "function"
		},
		{
			"inputs": [
				{
					"internalType": "address",
					"name": "",
					"type": "address"
				},
				{
					"internalType": "uint256",
					"name": "",
					"type": "uint256"
				}
			],
			"name": "userGameTokens",
			"outputs": [
				{
					"internalType": "uint256",
					"name": "",
					"type": "uint256"
				}
			],
			"stateMutability": "view",
			"type": "function"
		},
		{
			"inputs": [
				{
					"internalType": "address",
					"name": "",
					"type": "address"
				}
			],
			"name": "userLockedCrida",
			"outputs": [
				{
					"internalType": "uint256",
					"name": "",
					"type": "uint256"
				}
			],
			"stateMutability": "view",
			"type": "function"
		},
		{
			"inputs": [],
			"name": "xpReserves",
			"outputs": [
				{
					"internalType": "uint256",
					"name": "",
					"type": "uint256"
				}
			],
			"stateMutability": "view",
			"type": "function"
		},
		{
			"inputs": [],
			"name": "xpToken",
			"outputs": [
				{
					"internalType": "contract IERC20",
					"name": "",
					"type": "address"
				}
			],
			"stateMutability": "view",
			"type": "function"
		}
	]
}