{
  "_format": "hh-sol-artifact-1",
  "contractName": "MyToken",
  "sourceName": "contracts/Token.sol",
  "abi": [
    {
      "inputs": [
        {
          "internalType": "address",
          "name": "recipient",
          "type": "address"
        },
        {
          "internalType": "address",
          "name": "defaultAdmin",
          "type": "address"
        },
        {
          "internalType": "address",
          "name": "pauser",
          "type": "address"
        },
        {
          "internalType": "address",
          "name": "minter",
          "type": "address"
        }
      ],
      "stateMutability": "nonpayable",
      "type": "constructor"
    },
    {
      "inputs": [],
      "name": "AccessControlBadConfirmation",
      "type": "error"
    },
    {
      "inputs": [
        {
          "internalType": "address",
          "name": "account",
          "type": "address"
        },
        {
          "internalType": "bytes32",
          "name": "neededRole",
          "type": "bytes32"
        }
      ],
      "name": "AccessControlUnauthorizedAccount",
      "type": "error"
    },
    {
      "inputs": [],
      "name": "ECDSAInvalidSignature",
      "type": "error"
    },
    {
      "inputs": [
        {
          "internalType": "uint256",
          "name": "length",
          "type": "uint256"
        }
      ],
      "name": "ECDSAInvalidSignatureLength",
      "type": "error"
    },
    {
      "inputs": [
        {
          "internalType": "bytes32",
          "name": "s",
          "type": "bytes32"
        }
      ],
      "name": "ECDSAInvalidSignatureS",
      "type": "error"
    },
    {
      "inputs": [
        {
          "internalType": "address",
          "name": "spender",
          "type": "address"
        },
        {
          "internalType": "uint256",
          "name": "allowance",
          "type": "uint256"
        },
        {
          "internalType": "uint256",
          "name": "needed",
          "type": "uint256"
        }
      ],
      "name": "ERC20InsufficientAllowance",
      "type": "error"
    },
    {
      "inputs": [
        {
          "internalType": "address",
          "name": "sender",
          "type": "address"
        },
        {
          "internalType": "uint256",
          "name": "balance",
          "type": "uint256"
        },
        {
          "internalType": "uint256",
          "name": "needed",
          "type": "uint256"
        }
      ],
      "name": "ERC20InsufficientBalance",
      "type": "error"
    },
    {
      "inputs": [
        {
          "internalType": "address",
          "name": "approver",
          "type": "address"
        }
      ],
      "name": "ERC20InvalidApprover",
      "type": "error"
    },
    {
      "inputs": [
        {
          "internalType": "address",
          "name": "receiver",
          "type": "address"
        }
      ],
      "name": "ERC20InvalidReceiver",
      "type": "error"
    },
    {
      "inputs": [
        {
          "internalType": "address",
          "name": "sender",
          "type": "address"
        }
      ],
      "name": "ERC20InvalidSender",
      "type": "error"
    },
    {
      "inputs": [
        {
          "internalType": "address",
          "name": "spender",
          "type": "address"
        }
      ],
      "name": "ERC20InvalidSpender",
      "type": "error"
    },
    {
      "inputs": [
        {
          "internalType": "uint256",
          "name": "deadline",
          "type": "uint256"
        }
      ],
      "name": "ERC2612ExpiredSignature",
      "type": "error"
    },
    {
      "inputs": [
        {
          "internalType": "address",
          "name": "signer",
          "type": "address"
        },
        {
          "internalType": "address",
          "name": "owner",
          "type": "address"
        }
      ],
      "name": "ERC2612InvalidSigner",
      "type": "error"
    },
    {
      "inputs": [],
      "name": "EnforcedPause",
      "type": "error"
    },
    {
      "inputs": [],
      "name": "ExpectedPause",
      "type": "error"
    },
    {
      "inputs": [
        {
          "internalType": "address",
          "name": "account",
          "type": "address"
        },
        {
          "internalType": "uint256",
          "name": "currentNonce",
          "type": "uint256"
        }
      ],
      "name": "InvalidAccountNonce",
      "type": "error"
    },
    {
      "inputs": [],
      "name": "InvalidShortString",
      "type": "error"
    },
    {
      "inputs": [
        {
          "internalType": "string",
          "name": "str",
          "type": "string"
        }
      ],
      "name": "StringTooLong",
      "type": "error"
    },
    {
      "anonymous": false,
      "inputs": [
        {
          "indexed": true,
          "internalType": "address",
          "name": "owner",
          "type": "address"
        },
        {
          "indexed": true,
          "internalType": "address",
          "name": "spender",
          "type": "address"
        },
        {
          "indexed": false,
          "internalType": "uint256",
          "name": "value",
          "type": "uint256"
        }
      ],
      "name": "Approval",
      "type": "event"
    },
    {
      "anonymous": false,
      "inputs": [],
      "name": "EIP712DomainChanged",
      "type": "event"
    },
    {
      "anonymous": false,
      "inputs": [
        {
          "indexed": false,
          "internalType": "address",
          "name": "account",
          "type": "address"
        }
      ],
      "name": "Paused",
      "type": "event"
    },
    {
      "anonymous": false,
      "inputs": [
        {
          "indexed": true,
          "internalType": "bytes32",
          "name": "role",
          "type": "bytes32"
        },
        {
          "indexed": true,
          "internalType": "bytes32",
          "name": "previousAdminRole",
          "type": "bytes32"
        },
        {
          "indexed": true,
          "internalType": "bytes32",
          "name": "newAdminRole",
          "type": "bytes32"
        }
      ],
      "name": "RoleAdminChanged",
      "type": "event"
    },
    {
      "anonymous": false,
      "inputs": [
        {
          "indexed": true,
          "internalType": "bytes32",
          "name": "role",
          "type": "bytes32"
        },
        {
          "indexed": true,
          "internalType": "address",
          "name": "account",
          "type": "address"
        },
        {
          "indexed": true,
          "internalType": "address",
          "name": "sender",
          "type": "address"
        }
      ],
      "name": "RoleGranted",
      "type": "event"
    },
    {
      "anonymous": false,
      "inputs": [
        {
          "indexed": true,
          "internalType": "bytes32",
          "name": "role",
          "type": "bytes32"
        },
        {
          "indexed": true,
          "internalType": "address",
          "name": "account",
          "type": "address"
        },
        {
          "indexed": true,
          "internalType": "address",
          "name": "sender",
          "type": "address"
        }
      ],
      "name": "RoleRevoked",
      "type": "event"
    },
    {
      "anonymous": false,
      "inputs": [
        {
          "indexed": true,
          "internalType": "address",
          "name": "from",
          "type": "address"
        },
        {
          "indexed": true,
          "internalType": "address",
          "name": "to",
          "type": "address"
        },
        {
          "indexed": false,
          "internalType": "uint256",
          "name": "value",
          "type": "uint256"
        }
      ],
      "name": "Transfer",
      "type": "event"
    },
    {
      "anonymous": false,
      "inputs": [
        {
          "indexed": false,
          "internalType": "address",
          "name": "account",
          "type": "address"
        }
      ],
      "name": "Unpaused",
      "type": "event"
    },
    {
      "inputs": [],
      "name": "DEFAULT_ADMIN_ROLE",
      "outputs": [
        {
          "internalType": "bytes32",
          "name": "",
          "type": "bytes32"
        }
      ],
      "stateMutability": "view",
      "type": "function"
    },
    {
      "inputs": [],
      "name": "DOMAIN_SEPARATOR",
      "outputs": [
        {
          "internalType": "bytes32",
          "name": "",
          "type": "bytes32"
        }
      ],
      "stateMutability": "view",
      "type": "function"
    },
    {
      "inputs": [],
      "name": "MINTER_ROLE",
      "outputs": [
        {
          "internalType": "bytes32",
          "name": "",
          "type": "bytes32"
        }
      ],
      "stateMutability": "view",
      "type": "function"
    },
    {
      "inputs": [],
      "name": "PAUSER_ROLE",
      "outputs": [
        {
          "internalType": "bytes32",
          "name": "",
          "type": "bytes32"
        }
      ],
      "stateMutability": "view",
      "type": "function"
    },
    {
      "inputs": [
        {
          "internalType": "address",
          "name": "owner",
          "type": "address"
        },
        {
          "internalType": "address",
          "name": "spender",
          "type": "address"
        }
      ],
      "name": "allowance",
      "outputs": [
        {
          "internalType": "uint256",
          "name": "",
          "type": "uint256"
        }
      ],
      "stateMutability": "view",
      "type": "function"
    },
    {
      "inputs": [
        {
          "internalType": "address",
          "name": "spender",
          "type": "address"
        },
        {
          "internalType": "uint256",
          "name": "value",
          "type": "uint256"
        }
      ],
      "name": "approve",
      "outputs": [
        {
          "internalType": "bool",
          "name": "",
          "type": "bool"
        }
      ],
      "stateMutability": "nonpayable",
      "type": "function"
    },
    {
      "inputs": [
        {
          "internalType": "address",
          "name": "account",
          "type": "address"
        }
      ],
      "name": "balanceOf",
      "outputs": [
        {
          "internalType": "uint256",
          "name": "",
          "type": "uint256"
        }
      ],
      "stateMutability": "view",
      "type": "function"
    },
    {
      "inputs": [
        {
          "internalType": "uint256",
          "name": "value",
          "type": "uint256"
        }
      ],
      "name": "burn",
      "outputs": [],
      "stateMutability": "nonpayable",
      "type": "function"
    },
    {
      "inputs": [
        {
          "internalType": "address",
          "name": "account",
          "type": "address"
        },
        {
          "internalType": "uint256",
          "name": "value",
          "type": "uint256"
        }
      ],
      "name": "burnFrom",
      "outputs": [],
      "stateMutability": "nonpayable",
      "type": "function"
    },
    {
      "inputs": [],
      "name": "decimals",
      "outputs": [
        {
          "internalType": "uint8",
          "name": "",
          "type": "uint8"
        }
      ],
      "stateMutability": "view",
      "type": "function"
    },
    {
      "inputs": [],
      "name": "eip712Domain",
      "outputs": [
        {
          "internalType": "bytes1",
          "name": "fields",
          "type": "bytes1"
        },
        {
          "internalType": "string",
          "name": "name",
          "type": "string"
        },
        {
          "internalType": "string",
          "name": "version",
          "type": "string"
        },
        {
          "internalType": "uint256",
          "name": "chainId",
          "type": "uint256"
        },
        {
          "internalType": "address",
          "name": "verifyingContract",
          "type": "address"
        },
        {
          "internalType": "bytes32",
          "name": "salt",
          "type": "bytes32"
        },
        {
          "internalType": "uint256[]",
          "name": "extensions",
          "type": "uint256[]"
        }
      ],
      "stateMutability": "view",
      "type": "function"
    },
    {
      "inputs": [
        {
          "internalType": "bytes32",
          "name": "role",
          "type": "bytes32"
        }
      ],
      "name": "getRoleAdmin",
      "outputs": [
        {
          "internalType": "bytes32",
          "name": "",
          "type": "bytes32"
        }
      ],
      "stateMutability": "view",
      "type": "function"
    },
    {
      "inputs": [
        {
          "internalType": "bytes32",
          "name": "role",
          "type": "bytes32"
        },
        {
          "internalType": "address",
          "name": "account",
          "type": "address"
        }
      ],
      "name": "grantRole",
      "outputs": [],
      "stateMutability": "nonpayable",
      "type": "function"
    },
    {
      "inputs": [
        {
          "internalType": "bytes32",
          "name": "role",
          "type": "bytes32"
        },
        {
          "internalType": "address",
          "name": "account",
          "type": "address"
        }
      ],
      "name": "hasRole",
      "outputs": [
        {
          "internalType": "bool",
          "name": "",
          "type": "bool"
        }
      ],
      "stateMutability": "view",
      "type": "function"
    },
    {
      "inputs": [
        {
          "internalType": "address",
          "name": "to",
          "type": "address"
        },
        {
          "internalType": "uint256",
          "name": "amount",
          "type": "uint256"
        }
      ],
      "name": "mint",
      "outputs": [],
      "stateMutability": "nonpayable",
      "type": "function"
    },
    {
      "inputs": [],
      "name": "name",
      "outputs": [
        {
          "internalType": "string",
          "name": "",
          "type": "string"
        }
      ],
      "stateMutability": "view",
      "type": "function"
    },
    {
      "inputs": [
        {
          "internalType": "address",
          "name": "owner",
          "type": "address"
        }
      ],
      "name": "nonces",
      "outputs": [
        {
          "internalType": "uint256",
          "name": "",
          "type": "uint256"
        }
      ],
      "stateMutability": "view",
      "type": "function"
    },
    {
      "inputs": [],
      "name": "pause",
      "outputs": [],
      "stateMutability": "nonpayable",
      "type": "function"
    },
    {
      "inputs": [],
      "name": "paused",
      "outputs": [
        {
          "internalType": "bool",
          "name": "",
          "type": "bool"
        }
      ],
      "stateMutability": "view",
      "type": "function"
    },
    {
      "inputs": [
        {
          "internalType": "address",
          "name": "owner",
          "type": "address"
        },
        {
          "internalType": "address",
          "name": "spender",
          "type": "address"
        },
        {
          "internalType": "uint256",
          "name": "value",
          "type": "uint256"
        },
        {
          "internalType": "uint256",
          "name": "deadline",
          "type": "uint256"
        },
        {
          "internalType": "uint8",
          "name": "v",
          "type": "uint8"
        },
        {
          "internalType": "bytes32",
          "name": "r",
          "type": "bytes32"
        },
        {
          "internalType": "bytes32",
          "name": "s",
          "type": "bytes32"
        }
      ],
      "name": "permit",
      "outputs": [],
      "stateMutability": "nonpayable",
      "type": "function"
    },
    {
      "inputs": [
        {
          "internalType": "bytes32",
          "name": "role",
          "type": "bytes32"
        },
        {
          "internalType": "address",
          "name": "callerConfirmation",
          "type": "address"
        }
      ],
      "name": "renounceRole",
      "outputs": [],
      "stateMutability": "nonpayable",
      "type": "function"
    },
    {
      "inputs": [
        {
          "internalType": "bytes32",
          "name": "role",
          "type": "bytes32"
        },
        {
          "internalType": "address",
          "name": "account",
          "type": "address"
        }
      ],
      "name": "revokeRole",
      "outputs": [],
      "stateMutability": "nonpayable",
      "type": "function"
    },
    {
      "inputs": [
        {
          "internalType": "bytes4",
          "name": "interfaceId",
          "type": "bytes4"
        }
      ],
      "name": "supportsInterface",
      "outputs": [
        {
          "internalType": "bool",
          "name": "",
          "type": "bool"
        }
      ],
      "stateMutability": "view",
      "type": "function"
    },
    {
      "inputs": [],
      "name": "symbol",
      "outputs": [
        {
          "internalType": "string",
          "name": "",
          "type": "string"
        }
      ],
      "stateMutability": "view",
      "type": "function"
    },
    {
      "inputs": [],
      "name": "totalSupply",
      "outputs": [
        {
          "internalType": "uint256",
          "name": "",
          "type": "uint256"
        }
      ],
      "stateMutability": "view",
      "type": "function"
    },
    {
      "inputs": [
        {
          "internalType": "address",
          "name": "to",
          "type": "address"
        },
        {
          "internalType": "uint256",
          "name": "value",
          "type": "uint256"
        }
      ],
      "name": "transfer",
      "outputs": [
        {
          "internalType": "bool",
          "name": "",
          "type": "bool"
        }
      ],
      "stateMutability": "nonpayable",
      "type": "function"
    },
    {
      "inputs": [
        {
          "internalType": "address",
          "name": "from",
          "type": "address"
        },
        {
          "internalType": "address",
          "name": "to",
          "type": "address"
        },
        {
          "internalType": "uint256",
          "name": "value",
          "type": "uint256"
        }
      ],
      "name": "transferFrom",
      "outputs": [
        {
          "internalType": "bool",
          "name": "",
          "type": "bool"
        }
      ],
      "stateMutability": "nonpayable",
      "type": "function"
    },
    {
      "inputs": [],
      "name": "unpause",
      "outputs": [],
      "stateMutability": "nonpayable",
      "type": "function"
    }
  ],
  "bytecode": "0x610160346200056157601f906001600160401b0390601f19906200206a3881900385810184168301929185841183851017620004635781608092849260409687528339810103126200056157620000568162000582565b906020916200006783830162000582565b906200008360606200007b87860162000582565b940162000582565b93855196620000928862000566565b60078852818801986626bcaa37b5b2b760c91b808b52885190620000b68262000566565b6007825284820152885192620000cc8462000566565b60039c8d8552624d544b60e81b868601528a519d8e620000ec8162000566565b876001918281520194603160f81b865280519087821162000463578354908382811c9216801562000556575b8b83101462000540578186849311620004ea575b508a90868311600114620004855760009262000479575b505060001982851b1c191690821b1782555b865192868411620004635760049788548381811c9116801562000458575b8b8210146200044357828111620003f8575b50899185116001146200038f578495509084929160009562000383575b50501b92600019911b1c19161783555b620001bd8a62000759565b9a6101209b8c52620001cf8d62000920565b9a6101409b8c525190209b8c60e052519020936101009b858d524660a052895195858701917f8b73c3c69bb8fe3d512ecc4cf759cc79239f7b179b0ffacaa9a75d522b39400f83528b88015260608701524660808701523060a087015260a0865260c0860192868410908411176200036e57828a52855190206080523060c0526001600160a01b03169384156200035757505060ff6005541662000349576002546a084595161401484a000000918282018092116200033457509260007fddf252ad1be2c89b69c2b068fc378daa952ba7f163c4a11628f55a4df523b3ef620002dd94620002e49794620002eb9a99976002558484528382528b84208181540190558b51908152a362000597565b5062000618565b50620006bb565b505191611571938462000ad9853960805184611275015260a05184611341015260c0518461123f015260e051846112c4015251836112ea0152518261055b015251816105850152f35b601190634e487b7160e01b6000525260246000fd5b865163d93c066560e01b8152fd5b63ec442f0560e01b8252600060c490910152602490fd5b604184634e487b7160e01b6000525260246000fd5b015193503880620001a2565b92919484169288600052848a6000209460005b8c89838310620003e05750505010620003c5575b50505050811b018355620001b2565b01519060f884600019921b161c1916905538808080620003b6565b868601518955909701969485019488935001620003a2565b896000528a6000208380880160051c8201928d891062000439575b0160051c019084905b8281106200042c57505062000185565b600081550184906200041c565b9250819262000413565b60228a634e487b7160e01b6000525260246000fd5b90607f169062000173565b634e487b7160e01b600052604160045260246000fd5b01519050388062000143565b908785941691866000528c600020928d6000905b828210620004d25750508411620004b9575b505050811b01825562000155565b015160001983871b60f8161c19169055388080620004ab565b83850151865588979095019493840193018e62000499565b909150846000528a6000208680850160051c8201928d861062000536575b918691869594930160051c01915b828110620005265750506200012c565b6000815585945086910162000516565b9250819262000508565b634e487b7160e01b600052602260045260246000fd5b91607f169162000118565b600080fd5b604081019081106001600160401b038211176200046357604052565b51906001600160a01b03821682036200056157565b6001600160a01b031660008181527f54cdd369e4e8a8515e52ca72ec816c2101831ad1f18bf44102ed171459c9b4f8602052604081205490919060ff16620006145781805260066020526040822081835260205260408220600160ff1982541617905533916000805160206200204a8339815191528180a4600190565b5090565b6001600160a01b031660008181527fe09f975e15f8f53f24cbbc282b13c40b84df485fcdb8d3997fa103dc5a4ef84160205260408120549091907f65d7a28e3265b37a6474929f336521b332c1681b933f6cb9f3376673440d862a9060ff16620006b65780835260066020526040832082845260205260408320600160ff198254161790556000805160206200204a833981519152339380a4600190565b505090565b6001600160a01b031660008181527f3195c024b2ddd6d9b8f6c836aa52f67fe69376c8903d009b80229b3ce4425f5160205260408120549091907f9f2df0fed2c77648de5860a4cc508cd0818c85b8b8a1ab4ceeef8d981c8956a69060ff16620006b65780835260066020526040832082845260205260408320600160ff198254161790556000805160206200204a833981519152339380a4600190565b805160209081811015620007f65750601f8251116200079557808251920151908083106200078657501790565b82600019910360031b1b161790565b90604051809263305a27a960e01b82528060048301528251908160248401526000935b828510620007dc575050604492506000838284010152601f80199101168101030190fd5b8481018201518686016044015293810193859350620007b8565b906001600160401b0382116200046357600754926001938481811c9116801562000915575b838210146200054057601f8111620008db575b5081601f84116001146200086f575092829391839260009462000863575b50501b916000199060031b1c19161760075560ff90565b0151925038806200084c565b919083601f198116600760005284600020946000905b88838310620008c05750505010620008a6575b505050811b0160075560ff90565b015160001960f88460031b161c1916905538808062000898565b85870151885590960195948501948793509081019062000885565b600760005284601f84600020920160051c820191601f860160051c015b828110620009085750506200082e565b60008155018590620008f8565b90607f16906200081b565b805160209081811015620009ae5750601f8251116200094d57808251920151908083106200078657501790565b90604051809263305a27a960e01b82528060048301528251908160248401526000935b82851062000994575050604492506000838284010152601f80199101168101030190fd5b848101820151868601604401529381019385935062000970565b906001600160401b0382116200046357600854926001938481811c9116801562000acd575b838210146200054057601f811162000a93575b5081601f841160011462000a27575092829391839260009462000a1b575b50501b916000199060031b1c19161760085560ff90565b01519250388062000a04565b919083601f198116600860005284600020946000905b8883831062000a78575050501062000a5e575b505050811b0160085560ff90565b015160001960f88460031b161c1916905538808062000a50565b85870151885590960195948501948793509081019062000a3d565b600860005284601f84600020920160051c820191601f860160051c015b82811062000ac0575050620009e6565b6000815501859062000ab0565b90607f1690620009d356fe608060408181526004918236101561001657600080fd5b600092833560e01c91826301ffc9a714610b4b5750816306fdde0314610a78578163095ea7b314610a4e57816318160ddd14610a2f57816323b872dd146109f2578163248a9ca3146109c75781632f2ff15d1461099d578163313ce567146109815781633644e5151461095d57816336568abe146109175781633f4ba83a146108ad57816340c10f19146107a057816342966c68146107825781635c975abb1461075e57816370a082311461072757816379cc6790146106f45781637ecebe00146106bc5781638456cb591461066157816384b0196e1461054357816391d14854146104fc57816395d89b4114610411578163a217fddf146103f6578163a9059cbb146103c5578163d505accf1461025d578163d539139314610222578163d547741f146101de57508063dd62ed3e146101965763e63ab1e91461015957600080fd5b34610192578160031936011261019257602090517f65d7a28e3265b37a6474929f336521b332c1681b933f6cb9f3376673440d862a8152f35b5080fd5b5034610192578060031936011261019257806020926101b3610bde565b6101bb610bf9565b6001600160a01b0391821683526001865283832091168252845220549051908152f35b9190503461021e578060031936011261021e5761021a91356102156001610203610bf9565b93838752600660205286200154610c89565b610d2f565b5080f35b8280fd5b505034610192578160031936011261019257602090517f9f2df0fed2c77648de5860a4cc508cd0818c85b8b8a1ab4ceeef8d981c8956a68152f35b839150346101925760e036600319011261019257610279610bde565b610281610bf9565b906044359260643560843560ff811681036103c1578142116103aa5760018060a01b0390818516928389526009602052898920908154916001830190558a519060208201927f6e71edae12b1b97f4d1f60370fef10105fa2faae0126114a169c64845d6126c98452868d840152858a1660608401528a608084015260a083015260c082015260c0815260e0810181811067ffffffffffffffff821117610397578b525190206103659161035c9161033661123c565b908c519161190160f01b83526002830152602282015260c43591604260a4359220611127565b909291926111b7565b1681810361037c5786610379878787610f1a565b80f35b87516325c0072360e11b815292830152602482015260449150fd5b634e487b7160e01b8b526041875260248bfd5b875163313c898160e11b8152808401839052602490fd5b8680fd5b5050346101925780600319360112610192576020906103ef6103e5610bde565b6024359033610e34565b5160018152f35b50503461019257816003193601126101925751908152602090f35b9190503461021e578260031936011261021e578051918381549061043482610da6565b808652926001928084169081156104d15750600114610475575b610471868661045f828b0383610e12565b51918291602083526020830190610b9e565b0390f35b815294507f8a35acfbc15ff81a39ae7d344fd709f28e8600b4aa8c65c6b64bfe7fe36bd19b5b8286106104b95750505061045f82602061047195820101943861044e565b8054602087870181019190915290950194810161049b565b905061047197508693506020925061045f94915060ff191682840152151560051b820101943861044e565b90503461021e578160031936011261021e578160209360ff9261051d610bf9565b90358252600686528282206001600160a01b039091168252855220549151911615158152f35b9190503461021e578260031936011261021e5761057f7f0000000000000000000000000000000000000000000000000000000000000000611367565b926105a97f0000000000000000000000000000000000000000000000000000000000000000611463565b908251926020928385019585871067ffffffffffffffff88111761064e575092806106048388966105f7998b9996528686528151998a99600f60f81b8b5260e0868c015260e08b0190610b9e565b91898303908a0152610b9e565b924660608801523060808801528460a088015286840360c088015251928381520193925b82811061063757505050500390f35b835185528695509381019392810192600101610628565b634e487b7160e01b845260419052602483fd5b50503461019257816003193601126101925760207f62e78cea01bee320cd4e420270b5ea74000d11b0c9f74754ebdbfc544b05a2589161069f610c0f565b6106a761151d565b600160ff19600554161760055551338152a180f35b5050346101925760203660031901126101925760209181906001600160a01b036106e4610bde565b1681526009845220549051908152f35b5050346101925736600319011261072457610379610710610bde565b6024359061071f823383610fad565b611080565b80fd5b5050346101925760203660031901126101925760209181906001600160a01b0361074f610bde565b16815280845220549051908152f35b50503461019257816003193601126101925760209060ff6005541690519015158152f35b83903461019257602036600319011261019257610379903533611080565b9190503461021e578060031936011261021e576107bb610bde565b90602435917f9f2df0fed2c77648de5860a4cc508cd0818c85b8b8a1ab4ceeef8d981c8956a6808652600660205282862033875260205260ff83872054161561088f57506001600160a01b031692831561087a5761081761151d565b60025490838201809211610867575084927fddf252ad1be2c89b69c2b068fc378daa952ba7f163c4a11628f55a4df523b3ef9260209260025585855284835280852082815401905551908152a380f35b634e487b7160e01b865260119052602485fd5b84602492519163ec442f0560e01b8352820152fd5b825163e2517d3f60e01b815233818701526024810191909152604490fd5b90503461021e578260031936011261021e576108c7610c0f565b6005549060ff821615610909575060ff1916600555513381527f5db9ee0a495bf2e6ff9c91a7834c1ba4fdd244a5e8aa4e537bd38aeae4b073aa90602090a180f35b8251638dfc202b60e01b8152fd5b838334610192578060031936011261019257610931610bf9565b90336001600160a01b0383160361094e575061021a919235610d2f565b5163334bd91960e11b81528390fd5b50503461019257816003193601126101925760209061097a61123c565b9051908152f35b5050346101925781600319360112610192576020905160128152f35b9190503461021e578060031936011261021e5761021a91356109c26001610203610bf9565b610caf565b90503461021e57602036600319011261021e5781602093600192358152600685522001549051908152f35b505034610192576060366003190112610192576020906103ef610a13610bde565b610a1b610bf9565b60443591610a2a833383610fad565b610e34565b5050346101925781600319360112610192576020906002549051908152f35b5050346101925780600319360112610192576020906103ef610a6e610bde565b6024359033610f1a565b50503461019257816003193601126101925780519082600354610a9a81610da6565b80855291600191808316908115610b235750600114610ac6575b50505061045f82610471940383610e12565b9450600385527fc2575a0e9e593c00f959f8c92f12db2869c3395a3b0502d05e2516446f71f85b5b828610610b0b5750505061045f8260206104719582010194610ab4565b80546020878701810191909152909501948101610aee565b61047197508693506020925061045f94915060ff191682840152151560051b82010194610ab4565b84913461021e57602036600319011261021e573563ffffffff60e01b811680910361021e5760209250637965db0b60e01b8114908115610b8d575b5015158152f35b6301ffc9a760e01b14905083610b86565b919082519283825260005b848110610bca575050826000602080949584010152601f8019910116010190565b602081830181015184830182015201610ba9565b600435906001600160a01b0382168203610bf457565b600080fd5b602435906001600160a01b0382168203610bf457565b3360009081527fe09f975e15f8f53f24cbbc282b13c40b84df485fcdb8d3997fa103dc5a4ef84160205260409020547f65d7a28e3265b37a6474929f336521b332c1681b933f6cb9f3376673440d862a9060ff1615610c6b5750565b6044906040519063e2517d3f60e01b82523360048301526024820152fd5b80600052600660205260406000203360005260205260ff6040600020541615610c6b5750565b906000918083526006602052604083209160018060a01b03169182845260205260ff60408420541615600014610d2a5780835260066020526040832082845260205260408320600160ff198254161790557f2f8788117e7eff1d82e926ec794901d17c78024a50270940304540a733656f0d339380a4600190565b505090565b906000918083526006602052604083209160018060a01b03169182845260205260ff604084205416600014610d2a578083526006602052604083208284526020526040832060ff1981541690557ff6391f5c32d9c69d2a47ea670b442974b53935d1edc7fd64eb21e047a839171b339380a4600190565b90600182811c92168015610dd6575b6020831014610dc057565b634e487b7160e01b600052602260045260246000fd5b91607f1691610db5565b6040810190811067ffffffffffffffff821117610dfc57604052565b634e487b7160e01b600052604160045260246000fd5b90601f8019910116810190811067ffffffffffffffff821117610dfc57604052565b916001600160a01b03808416928315610f015716928315610ee857610e5761151d565b60009083825281602052604082205490838210610eb6575091604082827fddf252ad1be2c89b69c2b068fc378daa952ba7f163c4a11628f55a4df523b3ef958760209652828652038282205586815220818154019055604051908152a3565b60405163391434e360e21b81526001600160a01b03919091166004820152602481019190915260448101839052606490fd5b60405163ec442f0560e01b815260006004820152602490fd5b604051634b637e8f60e11b815260006004820152602490fd5b6001600160a01b03908116918215610f945716918215610f7b5760207f8c5be1e5ebec7d5bd14f71427d1e84f3dd0314c0f7b2291e5b200ac8c7c3b925918360005260018252604060002085600052825280604060002055604051908152a3565b604051634a1406b160e11b815260006004820152602490fd5b60405163e602df0560e01b815260006004820152602490fd5b9160018060a01b038093169160009383855260016020526040938486209183169182875260205284862054926000198410610fec575b50505050505050565b8484106110505750801561103857811561102057855260016020528385209085526020520391205538808080808080610fe3565b8451634a1406b160e11b815260048101879052602490fd5b845163e602df0560e01b815260048101879052602490fd5b8551637dc7a0d960e11b81526001600160a01b039190911660048201526024810184905260448101859052606490fd5b906001600160a01b038216908115610f015761109a61151d565b600092828452836020526040842054908282106110f55750817fddf252ad1be2c89b69c2b068fc378daa952ba7f163c4a11628f55a4df523b3ef926020928587528684520360408620558060025403600255604051908152a3565b60405163391434e360e21b81526001600160a01b03919091166004820152602481019190915260448101829052606490fd5b91907f7fffffffffffffffffffffffffffffff5d576e7357a4501ddfe92f46681b20a084116111ab57926020929160ff608095604051948552168484015260408301526060820152600092839182805260015afa1561119f5780516001600160a01b0381161561119657918190565b50809160019190565b604051903d90823e3d90fd5b50505060009160039190565b600481101561122657806111c9575050565b600181036111e35760405163f645eedf60e01b8152600490fd5b600281036112045760405163fce698f760e01b815260048101839052602490fd5b60031461120e5750565b602490604051906335e2f38360e21b82526004820152fd5b634e487b7160e01b600052602160045260246000fd5b307f00000000000000000000000000000000000000000000000000000000000000006001600160a01b0316148061133e575b15611297577f000000000000000000000000000000000000000000000000000000000000000090565b60405160208101907f8b73c3c69bb8fe3d512ecc4cf759cc79239f7b179b0ffacaa9a75d522b39400f82527f000000000000000000000000000000000000000000000000000000000000000060408201527f000000000000000000000000000000000000000000000000000000000000000060608201524660808201523060a082015260a0815260c0810181811067ffffffffffffffff821117610dfc5760405251902090565b507f0000000000000000000000000000000000000000000000000000000000000000461461126e565b60ff81146113a55760ff811690601f8211611393576040519161138983610de0565b8252602082015290565b604051632cd44ac360e21b8152600490fd5b506040516007548160006113b883610da6565b8083529260019081811690811561144157506001146113e2575b506113df92500382610e12565b90565b6007600090815291507fa66cc928b5edb82af9bd49922954155ab7b0942694bea4ce44661d9a8736c6885b84831061142657506113df9350508101602001386113d2565b8193509081602092548385890101520191019091849261140d565b9050602092506113df94915060ff191682840152151560051b820101386113d2565b60ff81146114855760ff811690601f8211611393576040519161138983610de0565b5060405160085481600061149883610da6565b8083529260019081811690811561144157506001146114be57506113df92500382610e12565b6008600090815291507ff3f7a9fe364faab93b216da50a3214154f22a0a2b415b23a84c8169e8b636ee35b84831061150257506113df9350508101602001386113d2565b819350908160209254838589010152019101909184926114e9565b60ff6005541661152957565b60405163d93c066560e01b8152600490fdfea26469706673582212206e841c09d240a722bffa331c60dc2a1b0cdf217b5de335af2cebf32e62f791f264736f6c634300081400332f8788117e7eff1d82e926ec794901d17c78024a50270940304540a733656f0d",
  "linkReferences": {},
  "deployedLinkReferences": {}
}