{
  "_format": "hh-sol-artifact-1",
  "contractName": "MockERC20",
  "sourceName": "contracts/mocks/MockERC20.sol",
  "abi": [
    {
      "inputs": [
        {
          "internalType": "string",
          "name": "name",
          "type": "string"
        },
        {
          "internalType": "string",
          "name": "symbol",
          "type": "string"
        },
        {
          "internalType": "uint8",
          "name": "tokenDecimals",
          "type": "uint8"
        },
        {
          "internalType": "uint256",
          "name": "initialSupply",
          "type": "uint256"
        }
      ],
      "stateMutability": "nonpayable",
      "type": "constructor"
    },
    {
      "inputs": [
        {
          "internalType": "address",
          "name": "spender",
          "type": "address"
        },
        {
          "internalType": "uint256",
          "name": "allowance",
          "type": "uint256"
        },
        {
          "internalType": "uint256",
          "name": "needed",
          "type": "uint256"
        }
      ],
      "name": "ERC20InsufficientAllowance",
      "type": "error"
    },
    {
      "inputs": [
        {
          "internalType": "address",
          "name": "sender",
          "type": "address"
        },
        {
          "internalType": "uint256",
          "name": "balance",
          "type": "uint256"
        },
        {
          "internalType": "uint256",
          "name": "needed",
          "type": "uint256"
        }
      ],
      "name": "ERC20InsufficientBalance",
      "type": "error"
    },
    {
      "inputs": [
        {
          "internalType": "address",
          "name": "approver",
          "type": "address"
        }
      ],
      "name": "ERC20InvalidApprover",
      "type": "error"
    },
    {
      "inputs": [
        {
          "internalType": "address",
          "name": "receiver",
          "type": "address"
        }
      ],
      "name": "ERC20InvalidReceiver",
      "type": "error"
    },
    {
      "inputs": [
        {
          "internalType": "address",
          "name": "sender",
          "type": "address"
        }
      ],
      "name": "ERC20InvalidSender",
      "type": "error"
    },
    {
      "inputs": [
        {
          "internalType": "address",
          "name": "spender",
          "type": "address"
        }
      ],
      "name": "ERC20InvalidSpender",
      "type": "error"
    },
    {
      "anonymous": false,
      "inputs": [
        {
          "indexed": true,
          "internalType": "address",
          "name": "owner",
          "type": "address"
        },
        {
          "indexed": true,
          "internalType": "address",
          "name": "spender",
          "type": "address"
        },
        {
          "indexed": false,
          "internalType": "uint256",
          "name": "value",
          "type": "uint256"
        }
      ],
      "name": "Approval",
      "type": "event"
    },
    {
      "anonymous": false,
      "inputs": [
        {
          "indexed": true,
          "internalType": "address",
          "name": "from",
          "type": "address"
        },
        {
          "indexed": true,
          "internalType": "address",
          "name": "to",
          "type": "address"
        },
        {
          "indexed": false,
          "internalType": "uint256",
          "name": "value",
          "type": "uint256"
        }
      ],
      "name": "Transfer",
      "type": "event"
    },
    {
      "inputs": [
        {
          "internalType": "address",
          "name": "owner",
          "type": "address"
        },
        {
          "internalType": "address",
          "name": "spender",
          "type": "address"
        }
      ],
      "name": "allowance",
      "outputs": [
        {
          "internalType": "uint256",
          "name": "",
          "type": "uint256"
        }
      ],
      "stateMutability": "view",
      "type": "function"
    },
    {
      "inputs": [
        {
          "internalType": "address",
          "name": "spender",
          "type": "address"
        },
        {
          "internalType": "uint256",
          "name": "value",
          "type": "uint256"
        }
      ],
      "name": "approve",
      "outputs": [
        {
          "internalType": "bool",
          "name": "",
          "type": "bool"
        }
      ],
      "stateMutability": "nonpayable",
      "type": "function"
    },
    {
      "inputs": [
        {
          "internalType": "address",
          "name": "account",
          "type": "address"
        }
      ],
      "name": "balanceOf",
      "outputs": [
        {
          "internalType": "uint256",
          "name": "",
          "type": "uint256"
        }
      ],
      "stateMutability": "view",
      "type": "function"
    },
    {
      "inputs": [
        {
          "internalType": "address",
          "name": "from",
          "type": "address"
        },
        {
          "internalType": "uint256",
          "name": "amount",
          "type": "uint256"
        }
      ],
      "name": "burn",
      "outputs": [],
      "stateMutability": "nonpayable",
      "type": "function"
    },
    {
      "inputs": [],
      "name": "decimals",
      "outputs": [
        {
          "internalType": "uint8",
          "name": "",
          "type": "uint8"
        }
      ],
      "stateMutability": "view",
      "type": "function"
    },
    {
      "inputs": [
        {
          "internalType": "address",
          "name": "to",
          "type": "address"
        },
        {
          "internalType": "uint256",
          "name": "amount",
          "type": "uint256"
        }
      ],
      "name": "mint",
      "outputs": [],
      "stateMutability": "nonpayable",
      "type": "function"
    },
    {
      "inputs": [],
      "name": "name",
      "outputs": [
        {
          "internalType": "string",
          "name": "",
          "type": "string"
        }
      ],
      "stateMutability": "view",
      "type": "function"
    },
    {
      "inputs": [],
      "name": "symbol",
      "outputs": [
        {
          "internalType": "string",
          "name": "",
          "type": "string"
        }
      ],
      "stateMutability": "view",
      "type": "function"
    },
    {
      "inputs": [],
      "name": "totalSupply",
      "outputs": [
        {
          "internalType": "uint256",
          "name": "",
          "type": "uint256"
        }
      ],
      "stateMutability": "view",
      "type": "function"
    },
    {
      "inputs": [
        {
          "internalType": "address",
          "name": "to",
          "type": "address"
        },
        {
          "internalType": "uint256",
          "name": "value",
          "type": "uint256"
        }
      ],
      "name": "transfer",
      "outputs": [
        {
          "internalType": "bool",
          "name": "",
          "type": "bool"
        }
      ],
      "stateMutability": "nonpayable",
      "type": "function"
    },
    {
      "inputs": [
        {
          "internalType": "address",
          "name": "from",
          "type": "address"
        },
        {
          "internalType": "address",
          "name": "to",
          "type": "address"
        },
        {
          "internalType": "uint256",
          "name": "value",
          "type": "uint256"
        }
      ],
      "name": "transferFrom",
      "outputs": [
        {
          "internalType": "bool",
          "name": "",
          "type": "bool"
        }
      ],
      "stateMutability": "nonpayable",
      "type": "function"
    }
  ],
  "bytecode": "0x60406080815234620003be5762000c92803803806200001e81620003c3565b9283398101608082820312620003be5781516001600160401b039290838111620003be578262000050918301620003e9565b906020928382015190858211620003be576200006e918301620003e9565b91858201519160ff8316809303620003be5760600151948151818111620002be576003908154906001948583811c93168015620003b3575b898410146200039d578190601f9384811162000347575b508990848311600114620002e057600092620002d4575b505060001982851b1c191690851b1782555b8551928311620002be5760049586548581811c91168015620002b3575b898210146200029e5782811162000253575b5087918411600114620001e857938394918492600095620001dc575b50501b92600019911b1c19161782555b60ff1960055416176005553315620001c55760025490838201809211620001b057506000917fddf252ad1be2c89b69c2b068fc378daa952ba7f163c4a11628f55a4df523b3ef9160025533835282815284832084815401905584519384523393a35161083690816200045c8239f35b601190634e487b7160e01b6000525260246000fd5b602490600085519163ec442f0560e01b8352820152fd5b01519350388062000131565b9190601f198416928760005284896000209460005b8b898383106200023b575050501062000220575b50505050811b01825562000141565b01519060f884600019921b161c191690553880808062000211565b868601518955909701969485019488935001620001fd565b87600052886000208380870160051c8201928b881062000294575b0160051c019086905b8281106200028757505062000115565b6000815501869062000277565b925081926200026e565b602288634e487b7160e01b6000525260246000fd5b90607f169062000103565b634e487b7160e01b600052604160045260246000fd5b015190503880620000d4565b90879350601f19831691866000528b6000209260005b8d82821062000330575050841162000317575b505050811b018255620000e6565b015160001983871b60f8161c1916905538808062000309565b8385015186558b97909501949384019301620002f6565b90915084600052896000208480850160051c8201928c861062000393575b918991869594930160051c01915b82811062000383575050620000bd565b6000815585945089910162000373565b9250819262000365565b634e487b7160e01b600052602260045260246000fd5b92607f1692620000a6565b600080fd5b6040519190601f01601f191682016001600160401b03811183821017620002be57604052565b919080601f84011215620003be5782516001600160401b038111620002be576020906200041f601f8201601f19168301620003c3565b92818452828287010111620003be5760005b8181106200044757508260009394955001015290565b85810183015184820184015282016200043156fe608060408181526004918236101561001657600080fd5b600092833560e01c91826306fdde03146105d057508163095ea7b31461052657816318160ddd1461050757816323b872dd14610410578163313ce567146103ee57816340c10f191461034257816370a082311461030b57816395d89b41146101ec5781639dc29fac1461011957508063a9059cbb146100e95763dd62ed3e1461009e57600080fd5b346100e557806003193601126100e557806020926100ba6106f1565b6100c261070c565b6001600160a01b0391821683526001865283832091168252845220549051908152f35b5080fd5b50346100e557806003193601126100e5576020906101126101086106f1565b6024359033610722565b5160018152f35b839150346100e557826003193601126100e5576101346106f1565b6001600160a01b038116916024359183156101d5578385528460205285852054918383106101a15750508184957fddf252ad1be2c89b69c2b068fc378daa952ba7f163c4a11628f55a4df523b3ef936020938688528785520381872055816002540360025551908152a380f35b865163391434e360e21b81526001600160a01b03909216908201908152602081018390526040810184905281906060010390fd5b8551634b637e8f60e11b8152808301869052602490fd5b8383346100e557816003193601126100e557805190828454600181811c90808316928315610301575b60209384841081146102ee578388529081156102d2575060011461027d575b505050829003601f01601f191682019267ffffffffffffffff84118385101761026a57508291826102669252826106a8565b0390f35b634e487b7160e01b815260418552602490fd5b8787529192508591837f8a35acfbc15ff81a39ae7d344fd709f28e8600b4aa8c65c6b64bfe7fe36bd19b5b8385106102be5750505050830101858080610234565b8054888601830152930192849082016102a8565b60ff1916878501525050151560051b8401019050858080610234565b634e487b7160e01b895260228a52602489fd5b91607f1691610215565b5050346100e55760203660031901126100e55760209181906001600160a01b036103336106f1565b16815280845220549051908152f35b919050346103ea57806003193601126103ea5761035d6106f1565b6001600160a01b031691602435919083156103d557600254908382018092116103c2575084927fddf252ad1be2c89b69c2b068fc378daa952ba7f163c4a11628f55a4df523b3ef9260209260025585855284835280852082815401905551908152a380f35b634e487b7160e01b865260119052602485fd5b84602492519163ec442f0560e01b8352820152fd5b8280fd5b5050346100e557816003193601126100e55760209060ff600554169051908152f35b905082346105045760603660031901126105045761042c6106f1565b61043461070c565b916044359360018060a01b038316808352600160205286832033845260205286832054916000198310610470575b602088610112898989610722565b8683106104d85781156104c15733156104aa5750825260016020908152868320338452815291869020908590039055829061011287610462565b8751634a1406b160e11b8152908101849052602490fd5b875163e602df0560e01b8152908101849052602490fd5b8751637dc7a0d960e11b8152339181019182526020820193909352604081018790528291506060010390fd5b80fd5b5050346100e557816003193601126100e5576020906002549051908152f35b9050346103ea57816003193601126103ea576105406106f1565b6024359033156105b9576001600160a01b03169182156105a257508083602095338152600187528181208582528752205582519081527f8c5be1e5ebec7d5bd14f71427d1e84f3dd0314c0f7b2291e5b200ac8c7c3b925843392a35160018152f35b8351634a1406b160e11b8152908101859052602490fd5b835163e602df0560e01b8152808401869052602490fd5b849084346103ea57826003193601126103ea5782600354600181811c9080831692831561069e575b60209384841081146102ee578388529081156102d2575060011461064857505050829003601f01601f191682019267ffffffffffffffff84118385101761026a57508291826102669252826106a8565b600387529192508591837fc2575a0e9e593c00f959f8c92f12db2869c3395a3b0502d05e2516446f71f85b5b83851061068a5750505050830101858080610234565b805488860183015293019284908201610674565b91607f16916105f8565b6020808252825181830181905290939260005b8281106106dd57505060409293506000838284010152601f8019910116010190565b8181018601518482016040015285016106bb565b600435906001600160a01b038216820361070757565b600080fd5b602435906001600160a01b038216820361070757565b916001600160a01b038084169283156107e757169283156107ce576000908382528160205260408220549083821061079c575091604082827fddf252ad1be2c89b69c2b068fc378daa952ba7f163c4a11628f55a4df523b3ef958760209652828652038282205586815220818154019055604051908152a3565b60405163391434e360e21b81526001600160a01b03919091166004820152602481019190915260448101839052606490fd5b60405163ec442f0560e01b815260006004820152602490fd5b604051634b637e8f60e11b815260006004820152602490fdfea26469706673582212205479cfaa6f15355f206eb64d068f0807769ed06fc123285a7b443dd14dba1bb264736f6c63430008140033",
  "linkReferences": {},
  "deployedLinkReferences": {}
}